{
  "abi": [
    {
      "constant": false,
      "inputs": [
        {
          "name": "_numKeys",
          "type": "uint256"
        }
      ],
      "name": "assignNextSigningKeys",
      "outputs": [],
      "payable": false,
      "stateMutability": "nonpayable",
      "type": "function"
    },
    {
      "constant": false,
      "inputs": [],
      "name": "trimUnusedKeys",
      "outputs": [],
      "payable": false,
      "stateMutability": "nonpayable",
      "type": "function"
    },
    {
      "inputs": [
        {
          "name": "_operators",
          "type": "address"
        }
      ],
      "payable": false,
      "stateMutability": "nonpayable",
      "type": "constructor"
    },
    {
      "anonymous": false,
      "inputs": [
        {
          "indexed": false,
          "name": "pubkeys",
          "type": "bytes"
        },
        {
          "indexed": false,
          "name": "signatures",
          "type": "bytes"
        }
      ],
      "name": "KeysAssigned",
      "type": "event"
    },
    {
      "anonymous": false,
      "inputs": [
        {
          "indexed": false,
          "name": "keysOpIndex",
          "type": "uint256"
        }
      ],
      "name": "KeysOpIndexSet",
      "type": "event"
    }
  ],
  "bytecode": {
    "object": "0x608060405234801561001057600080fd5b506040516020806103b0833981016040525160008054600160a060020a03909216600160a060020a031990921691909117905561035e806100526000396000f30060806040526004361061002f5760003560e01c63ffffffff16806341bc716f14610034578063f778021e1461004e575b600080fd5b34801561004057600080fd5b5061004c600435610063565b005b34801561005a57600080fd5b5061004c6102b1565b60008054604080517f41bc716f000000000000000000000000000000000000000000000000000000008152600481018590529051606093849373ffffffffffffffffffffffffffffffffffffffff16926341bc716f926024808301939282900301818387803b1580156100d557600080fd5b505af11580156100e9573d6000803e3d6000fd5b505050506040513d6000823e601f3d908101601f19168201604090815281101561011257600080fd5b81019080805164010000000081111561012a57600080fd5b8201602081018481111561013d57600080fd5b815164010000000081118282018710171561015757600080fd5b5050929190602001805164010000000081111561017357600080fd5b8201602081018481111561018657600080fd5b81516401000000008111828201871017156101a057600080fd5b5050929190505050915091507ffc51ffde36b3eeb82907b91350fc23a86f4ce1ebe9f37f59c0bab9282a37d5ac8282604051808060200180602001838103835285818151815260200191508051906020019080838360005b838110156102105781810151838201526020016101f8565b50505050905090810190601f16801561023d5780820380516001836020036101000a031916815260200191505b50838103825284518152845160209182019186019080838360005b83811015610270578181015183820152602001610258565b50505050905090810190601f16801561029d5780820380516001836020036101000a031916815260200191505b5094505050505060405180910390a1505050565b60008054604080517ff778021e000000000000000000000000000000000000000000000000000000008152905173ffffffffffffffffffffffffffffffffffffffff9092169263f778021e9260048084019382900301818387803b15801561031857600080fd5b505af115801561032c573d6000803e3d6000fd5b505050505600a165627a7a72305820b7601bcddf0542f08167591b4f9298e80711db6cadfbf3208e0fd106da43462b0029",
    "linkReferences": {}
  },
  "methodIdentifiers": {
    "assignNextSigningKeys(uint256)": "41bc716f",
    "trimUnusedKeys()": "f778021e"
  },
  "storageLayout": {
    "storage": [],
    "types": {}
  },
  "id": 15
}