{
  "abi": [
    {
      "constant": true,
      "inputs": [
        {
          "name": "beaconBalance",
          "type": "uint64"
        },
        {
          "name": "beaconValidators",
          "type": "uint32"
        }
      ],
      "name": "encode",
      "outputs": [
        {
          "name": "",
          "type": "uint256"
        }
      ],
      "payable": false,
      "stateMutability": "pure",
      "type": "function"
    },
    {
      "constant": true,
      "inputs": [
        {
          "name": "value",
          "type": "uint256"
        }
      ],
      "name": "decode",
      "outputs": [
        {
          "name": "beaconBalance",
          "type": "uint64"
        },
        {
          "name": "beaconValidators",
          "type": "uint32"
        }
      ],
      "payable": false,
      "stateMutability": "pure",
      "type": "function"
    },
    {
      "constant": true,
      "inputs": [
        {
          "name": "value",
          "type": "uint256"
        }
      ],
      "name": "decodeWithCount",
      "outputs": [
        {
          "name": "beaconBalance",
          "type": "uint64"
        },
        {
          "name": "beaconValidators",
          "type": "uint32"
        },
        {
          "name": "count",
          "type": "uint16"
        }
      ],
      "payable": false,
      "stateMutability": "pure",
      "type": "function"
    },
    {
      "constant": true,
      "inputs": [
        {
          "name": "value",
          "type": "uint256"
        }
      ],
      "name": "getCount",
      "outputs": [
        {
          "name": "",
          "type": "uint16"
        }
      ],
      "payable": false,
      "stateMutability": "pure",
      "type": "function"
    },
    {
      "constant": true,
      "inputs": [
        {
          "name": "value",
          "type": "uint256"
        },
        {
          "name": "that",
          "type": "uint256"
        }
      ],
      "name": "isDifferent",
      "outputs": [
        {
          "name": "",
          "type": "bool"
        }
      ],
      "payable": false,
      "stateMutability": "pure",
      "type": "function"
    }
  ],
  "bytecode": {
    "object": "0x608060405234801561001057600080fd5b50610263806100206000396000f3006080604052600436106100505760003560e01c63ffffffff1680632e0efc141461005557806361a769001461009257806394c7767c146100d3578063c23539181461011d578063c940a9251461014c575b600080fd5b34801561006157600080fd5b5061008067ffffffffffffffff6004351663ffffffff6024351661017b565b60408051918252519081900360200190f35b34801561009e57600080fd5b506100aa60043561018e565b6040805167ffffffffffffffff909316835263ffffffff90911660208301528051918290030190f35b3480156100df57600080fd5b506100eb6004356101a3565b6040805167ffffffffffffffff909416845263ffffffff909216602084015261ffff1682820152519081900360600190f35b34801561012957600080fd5b506101356004356101be565b6040805161ffff9092168252519081900360200190f35b34801561015857600080fd5b506101676004356024356101cf565b604080519115158252519081900360200190f35b600061018783836101e1565b9392505050565b60008061019a836101fe565b91509150915091565b60008060006101b18461020d565b9250925092509193909250565b60006101c98261021c565b92915050565b6000610187838363ffffffff61021f16565b63ffffffff1660101b67ffffffffffffffff9190911660301b1790565b603081901c9160109190911c90565b603081901c91601082901c9190565b90565b6dffffffffffffffffffffffff0000919091161415905600a165627a7a7230582000477874fdf1b6d5e8b515a8746fcfb06f3b6935d82975f44f7cf7196c9409fe0029",
    "linkReferences": {}
  },
  "methodIdentifiers": {
    "decode(uint256)": "61a76900",
    "decodeWithCount(uint256)": "94c7767c",
    "encode(uint64,uint32)": "2e0efc14",
    "getCount(uint256)": "c2353918",
    "isDifferent(uint256,uint256)": "c940a925"
  },
  "storageLayout": {
    "storage": [],
    "types": {}
  },
  "id": 30
}