{
  "abi": [
    {
      "constant": false,
      "inputs": [
        {
          "name": "spender",
          "type": "address"
        },
        {
          "name": "value",
          "type": "uint256"
        }
      ],
      "name": "approve",
      "outputs": [
        {
          "name": "",
          "type": "bool"
        }
      ],
      "payable": false,
      "stateMutability": "nonpayable",
      "type": "function"
    },
    {
      "constant": true,
      "inputs": [],
      "name": "totalSupply",
      "outputs": [
        {
          "name": "",
          "type": "uint256"
        }
      ],
      "payable": false,
      "stateMutability": "view",
      "type": "function"
    },
    {
      "constant": false,
      "inputs": [
        {
          "name": "from",
          "type": "address"
        },
        {
          "name": "to",
          "type": "address"
        },
        {
          "name": "value",
          "type": "uint256"
        }
      ],
      "name": "transferFrom",
      "outputs": [
        {
          "name": "",
          "type": "bool"
        }
      ],
      "payable": false,
      "stateMutability": "nonpayable",
      "type": "function"
    },
    {
      "constant": false,
      "inputs": [
        {
          "name": "spender",
          "type": "address"
        },
        {
          "name": "addedValue",
          "type": "uint256"
        }
      ],
      "name": "increaseAllowance",
      "outputs": [
        {
          "name": "",
          "type": "bool"
        }
      ],
      "payable": false,
      "stateMutability": "nonpayable",
      "type": "function"
    },
    {
      "constant": false,
      "inputs": [
        {
          "name": "account",
          "type": "address"
        },
        {
          "name": "value",
          "type": "uint256"
        }
      ],
      "name": "mint",
      "outputs": [],
      "payable": false,
      "stateMutability": "nonpayable",
      "type": "function"
    },
    {
      "constant": true,
      "inputs": [
        {
          "name": "owner",
          "type": "address"
        }
      ],
      "name": "balanceOf",
      "outputs": [
        {
          "name": "",
          "type": "uint256"
        }
      ],
      "payable": false,
      "stateMutability": "view",
      "type": "function"
    },
    {
      "constant": false,
      "inputs": [
        {
          "name": "account",
          "type": "address"
        },
        {
          "name": "value",
          "type": "uint256"
        }
      ],
      "name": "burn",
      "outputs": [],
      "payable": false,
      "stateMutability": "nonpayable",
      "type": "function"
    },
    {
      "constant": false,
      "inputs": [
        {
          "name": "spender",
          "type": "address"
        },
        {
          "name": "subtractedValue",
          "type": "uint256"
        }
      ],
      "name": "decreaseAllowance",
      "outputs": [
        {
          "name": "",
          "type": "bool"
        }
      ],
      "payable": false,
      "stateMutability": "nonpayable",
      "type": "function"
    },
    {
      "constant": false,
      "inputs": [
        {
          "name": "to",
          "type": "address"
        },
        {
          "name": "value",
          "type": "uint256"
        }
      ],
      "name": "transfer",
      "outputs": [
        {
          "name": "",
          "type": "bool"
        }
      ],
      "payable": false,
      "stateMutability": "nonpayable",
      "type": "function"
    },
    {
      "constant": true,
      "inputs": [
        {
          "name": "owner",
          "type": "address"
        },
        {
          "name": "spender",
          "type": "address"
        }
      ],
      "name": "allowance",
      "outputs": [
        {
          "name": "",
          "type": "uint256"
        }
      ],
      "payable": false,
      "stateMutability": "view",
      "type": "function"
    },
    {
      "anonymous": false,
      "inputs": [
        {
          "indexed": true,
          "name": "from",
          "type": "address"
        },
        {
          "indexed": true,
          "name": "to",
          "type": "address"
        },
        {
          "indexed": false,
          "name": "value",
          "type": "uint256"
        }
      ],
      "name": "Transfer",
      "type": "event"
    },
    {
      "anonymous": false,
      "inputs": [
        {
          "indexed": true,
          "name": "owner",
          "type": "address"
        },
        {
          "indexed": true,
          "name": "spender",
          "type": "address"
        },
        {
          "indexed": false,
          "name": "value",
          "type": "uint256"
        }
      ],
      "name": "Approval",
      "type": "event"
    }
  ],
  "bytecode": {
    "object": "0x608060405234801561001057600080fd5b50610769806100206000396000f3006080604052600436106100875760003560e01c63ffffffff168063095ea7b31461008c57806318160ddd146100c457806323b872dd146100eb578063395093511461011557806340c10f191461013957806370a082311461015f5780639dc29fac14610180578063a457c2d7146101a4578063a9059cbb146101c8578063dd62ed3e146101ec575b600080fd5b34801561009857600080fd5b506100b0600160a060020a0360043516602435610213565b604080519115158252519081900360200190f35b3480156100d057600080fd5b506100d9610291565b60408051918252519081900360200190f35b3480156100f757600080fd5b506100b0600160a060020a0360043581169060243516604435610297565b34801561012157600080fd5b506100b0600160a060020a0360043516602435610334565b34801561014557600080fd5b5061015d600160a060020a03600435166024356103e4565b005b34801561016b57600080fd5b506100d9600160a060020a03600435166103f2565b34801561018c57600080fd5b5061015d600160a060020a036004351660243561040d565b3480156101b057600080fd5b506100b0600160a060020a0360043516602435610417565b3480156101d457600080fd5b506100b0600160a060020a0360043516602435610462565b3480156101f857600080fd5b506100d9600160a060020a0360043581169060243516610478565b6000600160a060020a038316151561022a57600080fd5b336000818152600160209081526040808320600160a060020a03881680855290835292819020869055805186815290519293927f8c5be1e5ebec7d5bd14f71427d1e84f3dd0314c0f7b2291e5b200ac8c7c3b925929181900390910190a350600192915050565b60025490565b600160a060020a03831660009081526001602090815260408083203384529091528120548211156102c757600080fd5b600160a060020a03841660009081526001602090815260408083203384529091529020546102fb908363ffffffff6104a316565b600160a060020a038516600090815260016020908152604080832033845290915290205561032a8484846104ba565b5060019392505050565b6000600160a060020a038316151561034b57600080fd5b336000908152600160209081526040808320600160a060020a038716845290915290205461037f908363ffffffff6105ac16565b336000818152600160209081526040808320600160a060020a0389168085529083529281902085905580519485525191937f8c5be1e5ebec7d5bd14f71427d1e84f3dd0314c0f7b2291e5b200ac8c7c3b925929081900390910190a350600192915050565b6103ee82826105c5565b5050565b600160a060020a031660009081526020819052604090205490565b6103ee828261066f565b6000600160a060020a038316151561042e57600080fd5b336000908152600160209081526040808320600160a060020a038716845290915290205461037f908363ffffffff6104a316565b600061046f3384846104ba565b50600192915050565b600160a060020a03918216600090815260016020908152604080832093909416825291909152205490565b600080838311156104b357600080fd5b5050900390565b600160a060020a0383166000908152602081905260409020548111156104df57600080fd5b600160a060020a03821615156104f457600080fd5b600160a060020a03831660009081526020819052604090205461051d908263ffffffff6104a316565b600160a060020a038085166000908152602081905260408082209390935590841681522054610552908263ffffffff6105ac16565b600160a060020a038084166000818152602081815260409182902094909455805185815290519193928716927fddf252ad1be2c89b69c2b068fc378daa952ba7f163c4a11628f55a4df523b3ef92918290030190a3505050565b6000828201838110156105be57600080fd5b9392505050565b600160a060020a03821615156105da57600080fd5b6002546105ed908263ffffffff6105ac16565b600255600160a060020a038216600090815260208190526040902054610619908263ffffffff6105ac16565b600160a060020a0383166000818152602081815260408083209490945583518581529351929391927fddf252ad1be2c89b69c2b068fc378daa952ba7f163c4a11628f55a4df523b3ef9281900390910190a35050565b600160a060020a038216151561068457600080fd5b600160a060020a0382166000908152602081905260409020548111156106a957600080fd5b6002546106bc908263ffffffff6104a316565b600255600160a060020a0382166000908152602081905260409020546106e8908263ffffffff6104a316565b600160a060020a038316600081815260208181526040808320949094558351858152935191937fddf252ad1be2c89b69c2b068fc378daa952ba7f163c4a11628f55a4df523b3ef929081900390910190a350505600a165627a7a72305820a410bbb8df36af8d4e104877667913d76646ac08decf38643b1116c4ee12970b0029",
    "linkReferences": {}
  },
  "methodIdentifiers": {
    "allowance(address,address)": "dd62ed3e",
    "approve(address,uint256)": "095ea7b3",
    "balanceOf(address)": "70a08231",
    "burn(address,uint256)": "9dc29fac",
    "decreaseAllowance(address,uint256)": "a457c2d7",
    "increaseAllowance(address,uint256)": "39509351",
    "mint(address,uint256)": "40c10f19",
    "totalSupply()": "18160ddd",
    "transfer(address,uint256)": "a9059cbb",
    "transferFrom(address,address,uint256)": "23b872dd"
  },
  "storageLayout": {
    "storage": [],
    "types": {}
  },
  "id": 13
}