{
  "abi": [
    {
      "constant": false,
      "inputs": [],
      "name": "resume",
      "outputs": [],
      "payable": false,
      "stateMutability": "nonpayable",
      "type": "function"
    },
    {
      "constant": true,
      "inputs": [],
      "name": "name",
      "outputs": [
        {
          "name": "",
          "type": "string"
        }
      ],
      "payable": false,
      "stateMutability": "pure",
      "type": "function"
    },
    {
      "constant": false,
      "inputs": [],
      "name": "stop",
      "outputs": [],
      "payable": false,
      "stateMutability": "nonpayable",
      "type": "function"
    },
    {
      "constant": true,
      "inputs": [],
      "name": "hasInitialized",
      "outputs": [
        {
          "name": "",
          "type": "bool"
        }
      ],
      "payable": false,
      "stateMutability": "view",
      "type": "function"
    },
    {
      "constant": false,
      "inputs": [
        {
          "name": "_spender",
          "type": "address"
        },
        {
          "name": "_amount",
          "type": "uint256"
        }
      ],
      "name": "approve",
      "outputs": [
        {
          "name": "",
          "type": "bool"
        }
      ],
      "payable": false,
      "stateMutability": "nonpayable",
      "type": "function"
    },
    {
      "constant": true,
      "inputs": [],
      "name": "STAKING_CONTROL_ROLE",
      "outputs": [
        {
          "name": "",
          "type": "bytes32"
        }
      ],
      "payable": false,
      "stateMutability": "view",
      "type": "function"
    },
    {
      "constant": false,
      "inputs": [
        {
          "name": "_depositContract",
          "type": "address"
        },
        {
          "name": "_oracle",
          "type": "address"
        },
        {
          "name": "_operators",
          "type": "address"
        },
        {
          "name": "_treasury",
          "type": "address"
        },
        {
          "name": "_insuranceFund",
          "type": "address"
        }
      ],
      "name": "initialize",
      "outputs": [],
      "payable": false,
      "stateMutability": "nonpayable",
      "type": "function"
    },
    {
      "constant": true,
      "inputs": [],
      "name": "getInsuranceFund",
      "outputs": [
        {
          "name": "",
          "type": "address"
        }
      ],
      "payable": false,
      "stateMutability": "view",
      "type": "function"
    },
    {
      "constant": true,
      "inputs": [],
      "name": "totalSupply",
      "outputs": [
        {
          "name": "",
          "type": "uint256"
        }
      ],
      "payable": false,
      "stateMutability": "view",
      "type": "function"
    },
    {
      "constant": true,
      "inputs": [
        {
          "name": "_ethAmount",
          "type": "uint256"
        }
      ],
      "name": "getSharesByPooledEth",
      "outputs": [
        {
          "name": "",
          "type": "uint256"
        }
      ],
      "payable": false,
      "stateMutability": "view",
      "type": "function"
    },
    {
      "constant": true,
      "inputs": [],
      "name": "isStakingPaused",
      "outputs": [
        {
          "name": "",
          "type": "bool"
        }
      ],
      "payable": false,
      "stateMutability": "view",
      "type": "function"
    },
    {
      "constant": false,
      "inputs": [
        {
          "name": "_sender",
          "type": "address"
        },
        {
          "name": "_recipient",
          "type": "address"
        },
        {
          "name": "_amount",
          "type": "uint256"
        }
      ],
      "name": "transferFrom",
      "outputs": [
        {
          "name": "",
          "type": "bool"
        }
      ],
      "payable": false,
      "stateMutability": "nonpayable",
      "type": "function"
    },
    {
      "constant": true,
      "inputs": [],
      "name": "getOperators",
      "outputs": [
        {
          "name": "",
          "type": "address"
        }
      ],
      "payable": false,
      "stateMutability": "view",
      "type": "function"
    },
    {
      "constant": true,
      "inputs": [
        {
          "name": "_script",
          "type": "bytes"
        }
      ],
      "name": "getEVMScriptExecutor",
      "outputs": [
        {
          "name": "",
          "type": "address"
        }
      ],
      "payable": false,
      "stateMutability": "view",
      "type": "function"
    },
    {
      "constant": false,
      "inputs": [
        {
          "name": "_maxStakeLimit",
          "type": "uint256"
        },
        {
          "name": "_stakeLimitIncreasePerBlock",
          "type": "uint256"
        }
      ],
      "name": "setStakingLimit",
      "outputs": [],
      "payable": false,
      "stateMutability": "nonpayable",
      "type": "function"
    },
    {
      "constant": true,
      "inputs": [],
      "name": "RESUME_ROLE",
      "outputs": [
        {
          "name": "",
          "type": "bytes32"
        }
      ],
      "payable": false,
      "stateMutability": "view",
      "type": "function"
    },
    {
      "constant": true,
      "inputs": [],
      "name": "decimals",
      "outputs": [
        {
          "name": "",
          "type": "uint8"
        }
      ],
      "payable": false,
      "stateMutability": "pure",
      "type": "function"
    },
    {
      "constant": true,
      "inputs": [],
      "name": "getRecoveryVault",
      "outputs": [
        {
          "name": "",
          "type": "address"
        }
      ],
      "payable": false,
      "stateMutability": "view",
      "type": "function"
    },
    {
      "constant": true,
      "inputs": [],
      "name": "DEPOSIT_ROLE",
      "outputs": [
        {
          "name": "",
          "type": "bytes32"
        }
      ],
      "payable": false,
      "stateMutability": "view",
      "type": "function"
    },
    {
      "constant": true,
      "inputs": [],
      "name": "DEPOSIT_SIZE",
      "outputs": [
        {
          "name": "",
          "type": "uint256"
        }
      ],
      "payable": false,
      "stateMutability": "view",
      "type": "function"
    },
    {
      "constant": true,
      "inputs": [],
      "name": "getTotalPooledEther",
      "outputs": [
        {
          "name": "",
          "type": "uint256"
        }
      ],
      "payable": false,
      "stateMutability": "view",
      "type": "function"
    },
    {
      "constant": true,
      "inputs": [],
      "name": "getUnaccountedEther",
      "outputs": [
        {
          "name": "",
          "type": "uint256"
        }
      ],
      "payable": false,
      "stateMutability": "view",
      "type": "function"
    },
    {
      "constant": true,
      "inputs": [],
      "name": "PAUSE_ROLE",
      "outputs": [
        {
          "name": "",
          "type": "bytes32"
        }
      ],
      "payable": false,
      "stateMutability": "view",
      "type": "function"
    },
    {
      "constant": false,
      "inputs": [
        {
          "name": "_spender",
          "type": "address"
        },
        {
          "name": "_addedValue",
          "type": "uint256"
        }
      ],
      "name": "increaseAllowance",
      "outputs": [
        {
          "name": "",
          "type": "bool"
        }
      ],
      "payable": false,
      "stateMutability": "nonpayable",
      "type": "function"
    },
    {
      "constant": true,
      "inputs": [],
      "name": "getTreasury",
      "outputs": [
        {
          "name": "",
          "type": "address"
        }
      ],
      "payable": false,
      "stateMutability": "view",
      "type": "function"
    },
    {
      "constant": true,
      "inputs": [
        {
          "name": "_value",
          "type": "uint256"
        }
      ],
      "name": "toLittleEndian64",
      "outputs": [
        {
          "name": "result",
          "type": "uint256"
        }
      ],
      "payable": false,
      "stateMutability": "pure",
      "type": "function"
    },
    {
      "constant": true,
      "inputs": [],
      "name": "isStopped",
      "outputs": [
        {
          "name": "",
          "type": "bool"
        }
      ],
      "payable": false,
      "stateMutability": "view",
      "type": "function"
    },
    {
      "constant": true,
      "inputs": [],
      "name": "MANAGE_WITHDRAWAL_KEY",
      "outputs": [
        {
          "name": "",
          "type": "bytes32"
        }
      ],
      "payable": false,
      "stateMutability": "view",
      "type": "function"
    },
    {
      "constant": true,
      "inputs": [],
      "name": "getBufferedEther",
      "outputs": [
        {
          "name": "",
          "type": "uint256"
        }
      ],
      "payable": false,
      "stateMutability": "view",
      "type": "function"
    },
    {
      "constant": false,
      "inputs": [],
      "name": "receiveELRewards",
      "outputs": [],
      "payable": true,
      "stateMutability": "payable",
      "type": "function"
    },
    {
      "constant": true,
      "inputs": [
        {
          "name": "_b",
          "type": "bytes"
        }
      ],
      "name": "pad64",
      "outputs": [
        {
          "name": "",
          "type": "bytes"
        }
      ],
      "payable": false,
      "stateMutability": "pure",
      "type": "function"
    },
    {
      "constant": true,
      "inputs": [],
      "name": "getELRewardsWithdrawalLimit",
      "outputs": [
        {
          "name": "",
          "type": "uint256"
        }
      ],
      "payable": false,
      "stateMutability": "view",
      "type": "function"
    },
    {
      "constant": true,
      "inputs": [],
      "name": "SIGNATURE_LENGTH",
      "outputs": [
        {
          "name": "",
          "type": "uint256"
        }
      ],
      "payable": false,
      "stateMutability": "view",
      "type": "function"
    },
    {
      "constant": true,
      "inputs": [],
      "name": "getWithdrawalCredentials",
      "outputs": [
        {
          "name": "",
          "type": "bytes32"
        }
      ],
      "payable": false,
      "stateMutability": "view",
      "type": "function"
    },
    {
      "constant": true,
      "inputs": [],
      "name": "getCurrentStakeLimit",
      "outputs": [
        {
          "name": "",
          "type": "uint256"
        }
      ],
      "payable": false,
      "stateMutability": "view",
      "type": "function"
    },
    {
      "constant": false,
      "inputs": [
        {
          "name": "_limitPoints",
          "type": "uint16"
        }
      ],
      "name": "setELRewardsWithdrawalLimit",
      "outputs": [],
      "payable": false,
      "stateMutability": "nonpayable",
      "type": "function"
    },
    {
      "constant": false,
      "inputs": [
        {
          "name": "_beaconValidators",
          "type": "uint256"
        },
        {
          "name": "_beaconBalance",
          "type": "uint256"
        }
      ],
      "name": "handleOracleReport",
      "outputs": [],
      "payable": false,
      "stateMutability": "nonpayable",
      "type": "function"
    },
    {
      "constant": true,
      "inputs": [],
      "name": "getStakeLimitFullInfo",
      "outputs": [
        {
          "name": "isStakingPaused",
          "type": "bool"
        },
        {
          "name": "isStakingLimitSet",
          "type": "bool"
        },
        {
          "name": "currentStakeLimit",
          "type": "uint256"
        },
        {
          "name": "maxStakeLimit",
          "type": "uint256"
        },
        {
          "name": "maxStakeLimitGrowthBlocks",
          "type": "uint256"
        },
        {
          "name": "prevStakeLimit",
          "type": "uint256"
        },
        {
          "name": "prevStakeBlockNumber",
          "type": "uint256"
        }
      ],
      "payable": false,
      "stateMutability": "view",
      "type": "function"
    },
    {
      "constant": true,
      "inputs": [],
      "name": "SET_EL_REWARDS_WITHDRAWAL_LIMIT_ROLE",
      "outputs": [
        {
          "name": "",
          "type": "bytes32"
        }
      ],
      "payable": false,
      "stateMutability": "view",
      "type": "function"
    },
    {
      "constant": true,
      "inputs": [],
      "name": "getELRewardsVault",
      "outputs": [
        {
          "name": "",
          "type": "address"
        }
      ],
      "payable": false,
      "stateMutability": "view",
      "type": "function"
    },
    {
      "constant": true,
      "inputs": [
        {
          "name": "_account",
          "type": "address"
        }
      ],
      "name": "balanceOf",
      "outputs": [
        {
          "name": "",
          "type": "uint256"
        }
      ],
      "payable": false,
      "stateMutability": "view",
      "type": "function"
    },
    {
      "constant": false,
      "inputs": [],
      "name": "resumeStaking",
      "outputs": [],
      "payable": false,
      "stateMutability": "nonpayable",
      "type": "function"
    },
    {
      "constant": true,
      "inputs": [],
      "name": "getFeeDistribution",
      "outputs": [
        {
          "name": "treasuryFeeBasisPoints",
          "type": "uint16"
        },
        {
          "name": "insuranceFeeBasisPoints",
          "type": "uint16"
        },
        {
          "name": "operatorsFeeBasisPoints",
          "type": "uint16"
        }
      ],
      "payable": false,
      "stateMutability": "view",
      "type": "function"
    },
    {
      "constant": true,
      "inputs": [
        {
          "name": "_sharesAmount",
          "type": "uint256"
        }
      ],
      "name": "getPooledEthByShares",
      "outputs": [
        {
          "name": "",
          "type": "uint256"
        }
      ],
      "payable": false,
      "stateMutability": "view",
      "type": "function"
    },
    {
      "constant": false,
      "inputs": [
        {
          "name": "_executionLayerRewardsVault",
          "type": "address"
        }
      ],
      "name": "setELRewardsVault",
      "outputs": [],
      "payable": false,
      "stateMutability": "nonpayable",
      "type": "function"
    },
    {
      "constant": true,
      "inputs": [
        {
          "name": "token",
          "type": "address"
        }
      ],
      "name": "allowRecoverability",
      "outputs": [
        {
          "name": "",
          "type": "bool"
        }
      ],
      "payable": false,
      "stateMutability": "view",
      "type": "function"
    },
    {
      "constant": true,
      "inputs": [],
      "name": "MANAGE_PROTOCOL_CONTRACTS_ROLE",
      "outputs": [
        {
          "name": "",
          "type": "bytes32"
        }
      ],
      "payable": false,
      "stateMutability": "view",
      "type": "function"
    },
    {
      "constant": true,
      "inputs": [],
      "name": "appId",
      "outputs": [
        {
          "name": "",
          "type": "bytes32"
        }
      ],
      "payable": false,
      "stateMutability": "view",
      "type": "function"
    },
    {
      "constant": true,
      "inputs": [],
      "name": "getOracle",
      "outputs": [
        {
          "name": "",
          "type": "address"
        }
      ],
      "payable": false,
      "stateMutability": "view",
      "type": "function"
    },
    {
      "constant": true,
      "inputs": [],
      "name": "getInitializationBlock",
      "outputs": [
        {
          "name": "",
          "type": "uint256"
        }
      ],
      "payable": false,
      "stateMutability": "view",
      "type": "function"
    },
    {
      "constant": false,
      "inputs": [
        {
          "name": "_treasuryFeeBasisPoints",
          "type": "uint16"
        },
        {
          "name": "_insuranceFeeBasisPoints",
          "type": "uint16"
        },
        {
          "name": "_operatorsFeeBasisPoints",
          "type": "uint16"
        }
      ],
      "name": "setFeeDistribution",
      "outputs": [],
      "payable": false,
      "stateMutability": "nonpayable",
      "type": "function"
    },
    {
      "constant": false,
      "inputs": [],
      "name": "makeUnaccountedEther",
      "outputs": [],
      "payable": true,
      "stateMutability": "payable",
      "type": "function"
    },
    {
      "constant": false,
      "inputs": [
        {
          "name": "_feeBasisPoints",
          "type": "uint16"
        }
      ],
      "name": "setFee",
      "outputs": [],
      "payable": false,
      "stateMutability": "nonpayable",
      "type": "function"
    },
    {
      "constant": false,
      "inputs": [
        {
          "name": "_recipient",
          "type": "address"
        },
        {
          "name": "_sharesAmount",
          "type": "uint256"
        }
      ],
      "name": "transferShares",
      "outputs": [
        {
          "name": "",
          "type": "uint256"
        }
      ],
      "payable": false,
      "stateMutability": "nonpayable",
      "type": "function"
    },
    {
      "constant": false,
      "inputs": [
        {
          "name": "_maxDeposits",
          "type": "uint256"
        }
      ],
      "name": "depositBufferedEther",
      "outputs": [],
      "payable": false,
      "stateMutability": "nonpayable",
      "type": "function"
    },
    {
      "constant": true,
      "inputs": [],
      "name": "symbol",
      "outputs": [
        {
          "name": "",
          "type": "string"
        }
      ],
      "payable": false,
      "stateMutability": "pure",
      "type": "function"
    },
    {
      "constant": true,
      "inputs": [],
      "name": "MANAGE_FEE",
      "outputs": [
        {
          "name": "",
          "type": "bytes32"
        }
      ],
      "payable": false,
      "stateMutability": "view",
      "type": "function"
    },
    {
      "constant": false,
      "inputs": [
        {
          "name": "_token",
          "type": "address"
        }
      ],
      "name": "transferToVault",
      "outputs": [],
      "payable": false,
      "stateMutability": "nonpayable",
      "type": "function"
    },
    {
      "constant": true,
      "inputs": [
        {
          "name": "_sender",
          "type": "address"
        },
        {
          "name": "_role",
          "type": "bytes32"
        },
        {
          "name": "_params",
          "type": "uint256[]"
        }
      ],
      "name": "canPerform",
      "outputs": [
        {
          "name": "",
          "type": "bool"
        }
      ],
      "payable": false,
      "stateMutability": "view",
      "type": "function"
    },
    {
      "constant": false,
      "inputs": [
        {
          "name": "_referral",
          "type": "address"
        }
      ],
      "name": "submit",
      "outputs": [
        {
          "name": "",
          "type": "uint256"
        }
      ],
      "payable": true,
      "stateMutability": "payable",
      "type": "function"
    },
    {
      "constant": true,
      "inputs": [],
      "name": "WITHDRAWAL_CREDENTIALS_LENGTH",
      "outputs": [
        {
          "name": "",
          "type": "uint256"
        }
      ],
      "payable": false,
      "stateMutability": "view",
      "type": "function"
    },
    {
      "constant": false,
      "inputs": [
        {
          "name": "_spender",
          "type": "address"
        },
        {
          "name": "_subtractedValue",
          "type": "uint256"
        }
      ],
      "name": "decreaseAllowance",
      "outputs": [
        {
          "name": "",
          "type": "bool"
        }
      ],
      "payable": false,
      "stateMutability": "nonpayable",
      "type": "function"
    },
    {
      "constant": true,
      "inputs": [],
      "name": "getEVMScriptRegistry",
      "outputs": [
        {
          "name": "",
          "type": "address"
        }
      ],
      "payable": false,
      "stateMutability": "view",
      "type": "function"
    },
    {
      "constant": true,
      "inputs": [],
      "name": "PUBKEY_LENGTH",
      "outputs": [
        {
          "name": "",
          "type": "uint256"
        }
      ],
      "payable": false,
      "stateMutability": "view",
      "type": "function"
    },
    {
      "constant": true,
      "inputs": [],
      "name": "SET_EL_REWARDS_VAULT_ROLE",
      "outputs": [
        {
          "name": "",
          "type": "bytes32"
        }
      ],
      "payable": false,
      "stateMutability": "view",
      "type": "function"
    },
    {
      "constant": false,
      "inputs": [
        {
          "name": "_recipient",
          "type": "address"
        },
        {
          "name": "_amount",
          "type": "uint256"
        }
      ],
      "name": "transfer",
      "outputs": [
        {
          "name": "",
          "type": "bool"
        }
      ],
      "payable": false,
      "stateMutability": "nonpayable",
      "type": "function"
    },
    {
      "constant": true,
      "inputs": [],
      "name": "getDepositContract",
      "outputs": [
        {
          "name": "",
          "type": "address"
        }
      ],
      "payable": false,
      "stateMutability": "view",
      "type": "function"
    },
    {
      "constant": true,
      "inputs": [],
      "name": "getBeaconStat",
      "outputs": [
        {
          "name": "depositedValidators",
          "type": "uint256"
        },
        {
          "name": "beaconValidators",
          "type": "uint256"
        },
        {
          "name": "beaconBalance",
          "type": "uint256"
        }
      ],
      "payable": false,
      "stateMutability": "view",
      "type": "function"
    },
    {
      "constant": false,
      "inputs": [],
      "name": "removeStakingLimit",
      "outputs": [],
      "payable": false,
      "stateMutability": "nonpayable",
      "type": "function"
    },
    {
      "constant": true,
      "inputs": [],
      "name": "BURN_ROLE",
      "outputs": [
        {
          "name": "",
          "type": "bytes32"
        }
      ],
      "payable": false,
      "stateMutability": "view",
      "type": "function"
    },
    {
      "constant": false,
      "inputs": [
        {
          "name": "_depositContract",
          "type": "address"
        },
        {
          "name": "_oracle",
          "type": "address"
        },
        {
          "name": "_operators",
          "type": "address"
        }
      ],
      "name": "initialize",
      "outputs": [],
      "payable": false,
      "stateMutability": "nonpayable",
      "type": "function"
    },
    {
      "constant": true,
      "inputs": [],
      "name": "getFee",
      "outputs": [
        {
          "name": "feeBasisPoints",
          "type": "uint16"
        }
      ],
      "payable": false,
      "stateMutability": "view",
      "type": "function"
    },
    {
      "constant": true,
      "inputs": [],
      "name": "kernel",
      "outputs": [
        {
          "name": "",
          "type": "address"
        }
      ],
      "payable": false,
      "stateMutability": "view",
      "type": "function"
    },
    {
      "constant": true,
      "inputs": [],
      "name": "getTotalShares",
      "outputs": [
        {
          "name": "",
          "type": "uint256"
        }
      ],
      "payable": false,
      "stateMutability": "view",
      "type": "function"
    },
    {
      "constant": true,
      "inputs": [
        {
          "name": "_owner",
          "type": "address"
        },
        {
          "name": "_spender",
          "type": "address"
        }
      ],
      "name": "allowance",
      "outputs": [
        {
          "name": "",
          "type": "uint256"
        }
      ],
      "payable": false,
      "stateMutability": "view",
      "type": "function"
    },
    {
      "constant": true,
      "inputs": [],
      "name": "isPetrified",
      "outputs": [
        {
          "name": "",
          "type": "bool"
        }
      ],
      "payable": false,
      "stateMutability": "view",
      "type": "function"
    },
    {
      "constant": false,
      "inputs": [
        {
          "name": "_oracle",
          "type": "address"
        },
        {
          "name": "_treasury",
          "type": "address"
        },
        {
          "name": "_insuranceFund",
          "type": "address"
        }
      ],
      "name": "setProtocolContracts",
      "outputs": [],
      "payable": false,
      "stateMutability": "nonpayable",
      "type": "function"
    },
    {
      "constant": false,
      "inputs": [
        {
          "name": "_withdrawalCredentials",
          "type": "bytes32"
        }
      ],
      "name": "setWithdrawalCredentials",
      "outputs": [],
      "payable": false,
      "stateMutability": "nonpayable",
      "type": "function"
    },
    {
      "constant": true,
      "inputs": [],
      "name": "STAKING_PAUSE_ROLE",
      "outputs": [
        {
          "name": "",
          "type": "bytes32"
        }
      ],
      "payable": false,
      "stateMutability": "view",
      "type": "function"
    },
    {
      "constant": false,
      "inputs": [],
      "name": "depositBufferedEther",
      "outputs": [],
      "payable": false,
      "stateMutability": "nonpayable",
      "type": "function"
    },
    {
      "constant": false,
      "inputs": [
        {
          "name": "_account",
          "type": "address"
        },
        {
          "name": "_sharesAmount",
          "type": "uint256"
        }
      ],
      "name": "burnShares",
      "outputs": [
        {
          "name": "newTotalShares",
          "type": "uint256"
        }
      ],
      "payable": false,
      "stateMutability": "nonpayable",
      "type": "function"
    },
    {
      "constant": true,
      "inputs": [
        {
          "name": "_account",
          "type": "address"
        }
      ],
      "name": "sharesOf",
      "outputs": [
        {
          "name": "",
          "type": "uint256"
        }
      ],
      "payable": false,
      "stateMutability": "view",
      "type": "function"
    },
    {
      "constant": false,
      "inputs": [],
      "name": "pauseStaking",
      "outputs": [],
      "payable": false,
      "stateMutability": "nonpayable",
      "type": "function"
    },
    {
      "constant": false,
      "inputs": [],
      "name": "resumeProtocolAndStaking",
      "outputs": [],
      "payable": false,
      "stateMutability": "nonpayable",
      "type": "function"
    },
    {
      "constant": true,
      "inputs": [],
      "name": "getTotalELRewardsCollected",
      "outputs": [
        {
          "name": "",
          "type": "uint256"
        }
      ],
      "payable": false,
      "stateMutability": "view",
      "type": "function"
    },
    {
      "payable": true,
      "stateMutability": "payable",
      "type": "fallback"
    },
    {
      "anonymous": false,
      "inputs": [
        {
          "indexed": true,
          "name": "executor",
          "type": "address"
        },
        {
          "indexed": false,
          "name": "script",
          "type": "bytes"
        },
        {
          "indexed": false,
          "name": "input",
          "type": "bytes"
        },
        {
          "indexed": false,
          "name": "returnData",
          "type": "bytes"
        }
      ],
      "name": "ScriptResult",
      "type": "event"
    },
    {
      "anonymous": false,
      "inputs": [
        {
          "indexed": true,
          "name": "vault",
          "type": "address"
        },
        {
          "indexed": true,
          "name": "token",
          "type": "address"
        },
        {
          "indexed": false,
          "name": "amount",
          "type": "uint256"
        }
      ],
      "name": "RecoverToVault",
      "type": "event"
    },
    {
      "anonymous": false,
      "inputs": [
        {
          "indexed": true,
          "name": "from",
          "type": "address"
        },
        {
          "indexed": true,
          "name": "to",
          "type": "address"
        },
        {
          "indexed": false,
          "name": "sharesValue",
          "type": "uint256"
        }
      ],
      "name": "TransferShares",
      "type": "event"
    },
    {
      "anonymous": false,
      "inputs": [
        {
          "indexed": true,
          "name": "account",
          "type": "address"
        },
        {
          "indexed": false,
          "name": "preRebaseTokenAmount",
          "type": "uint256"
        },
        {
          "indexed": false,
          "name": "postRebaseTokenAmount",
          "type": "uint256"
        },
        {
          "indexed": false,
          "name": "sharesAmount",
          "type": "uint256"
        }
      ],
      "name": "SharesBurnt",
      "type": "event"
    },
    {
      "anonymous": false,
      "inputs": [],
      "name": "Stopped",
      "type": "event"
    },
    {
      "anonymous": false,
      "inputs": [],
      "name": "Resumed",
      "type": "event"
    },
    {
      "anonymous": false,
      "inputs": [
        {
          "indexed": true,
          "name": "from",
          "type": "address"
        },
        {
          "indexed": true,
          "name": "to",
          "type": "address"
        },
        {
          "indexed": false,
          "name": "value",
          "type": "uint256"
        }
      ],
      "name": "Transfer",
      "type": "event"
    },
    {
      "anonymous": false,
      "inputs": [
        {
          "indexed": true,
          "name": "owner",
          "type": "address"
        },
        {
          "indexed": true,
          "name": "spender",
          "type": "address"
        },
        {
          "indexed": false,
          "name": "value",
          "type": "uint256"
        }
      ],
      "name": "Approval",
      "type": "event"
    },
    {
      "anonymous": false,
      "inputs": [],
      "name": "StakingPaused",
      "type": "event"
    },
    {
      "anonymous": false,
      "inputs": [],
      "name": "StakingResumed",
      "type": "event"
    },
    {
      "anonymous": false,
      "inputs": [
        {
          "indexed": false,
          "name": "maxStakeLimit",
          "type": "uint256"
        },
        {
          "indexed": false,
          "name": "stakeLimitIncreasePerBlock",
          "type": "uint256"
        }
      ],
      "name": "StakingLimitSet",
      "type": "event"
    },
    {
      "anonymous": false,
      "inputs": [],
      "name": "StakingLimitRemoved",
      "type": "event"
    },
    {
      "anonymous": false,
      "inputs": [
        {
          "indexed": false,
          "name": "oracle",
          "type": "address"
        },
        {
          "indexed": false,
          "name": "treasury",
          "type": "address"
        },
        {
          "indexed": false,
          "name": "insuranceFund",
          "type": "address"
        }
      ],
      "name": "ProtocolContactsSet",
      "type": "event"
    },
    {
      "anonymous": false,
      "inputs": [
        {
          "indexed": false,
          "name": "feeBasisPoints",
          "type": "uint16"
        }
      ],
      "name": "FeeSet",
      "type": "event"
    },
    {
      "anonymous": false,
      "inputs": [
        {
          "indexed": false,
          "name": "treasuryFeeBasisPoints",
          "type": "uint16"
        },
        {
          "indexed": false,
          "name": "insuranceFeeBasisPoints",
          "type": "uint16"
        },
        {
          "indexed": false,
          "name": "operatorsFeeBasisPoints",
          "type": "uint16"
        }
      ],
      "name": "FeeDistributionSet",
      "type": "event"
    },
    {
      "anonymous": false,
      "inputs": [
        {
          "indexed": false,
          "name": "amount",
          "type": "uint256"
        }
      ],
      "name": "ELRewardsReceived",
      "type": "event"
    },
    {
      "anonymous": false,
      "inputs": [
        {
          "indexed": false,
          "name": "limitPoints",
          "type": "uint256"
        }
      ],
      "name": "ELRewardsWithdrawalLimitSet",
      "type": "event"
    },
    {
      "anonymous": false,
      "inputs": [
        {
          "indexed": false,
          "name": "withdrawalCredentials",
          "type": "bytes32"
        }
      ],
      "name": "WithdrawalCredentialsSet",
      "type": "event"
    },
    {
      "anonymous": false,
      "inputs": [
        {
          "indexed": false,
          "name": "executionLayerRewardsVault",
          "type": "address"
        }
      ],
      "name": "ELRewardsVaultSet",
      "type": "event"
    },
    {
      "anonymous": false,
      "inputs": [
        {
          "indexed": true,
          "name": "sender",
          "type": "address"
        },
        {
          "indexed": false,
          "name": "amount",
          "type": "uint256"
        },
        {
          "indexed": false,
          "name": "referral",
          "type": "address"
        }
      ],
      "name": "Submitted",
      "type": "event"
    },
    {
      "anonymous": false,
      "inputs": [
        {
          "indexed": false,
          "name": "amount",
          "type": "uint256"
        }
      ],
      "name": "Unbuffered",
      "type": "event"
    },
    {
      "anonymous": false,
      "inputs": [
        {
          "indexed": true,
          "name": "sender",
          "type": "address"
        },
        {
          "indexed": false,
          "name": "tokenAmount",
          "type": "uint256"
        },
        {
          "indexed": false,
          "name": "sentFromBuffer",
          "type": "uint256"
        },
        {
          "indexed": true,
          "name": "pubkeyHash",
          "type": "bytes32"
        },
        {
          "indexed": false,
          "name": "etherAmount",
          "type": "uint256"
        }
      ],
      "name": "Withdrawal",
      "type": "event"
    }
  ],
  "bytecode": {
    "object": "0x6080604052620000146200001a60201b60201c565b62000231565b6200002a6200011c60201b60201c565b60408051808201909152601881527f494e49545f414c52454144595f494e495449414c495a454400000000000000006020820152901562000106576040517f08c379a00000000000000000000000000000000000000000000000000000000081526004018080602001828103825283818151815260200191508051906020019080838360005b83811015620000ca578181015183820152602001620000b0565b50505050905090810190601f168015620000f85780820380516001836020036101000a031916815260200191505b509250505060405180910390fd5b506200011a6000196200014f60201b60201c565b565b60006200014a6000805160206200634783398151915260001b600019166200022960201b62003ff61760201c565b905090565b6200015f6200011c60201b60201c565b60408051808201909152601881527f494e49545f414c52454144595f494e495449414c495a4544000000000000000060208201529015620001fe576040517f08c379a000000000000000000000000000000000000000000000000000000000815260040180806020018281038252838181518152602001915080519060200190808383600083811015620000ca578181015183820152602001620000b0565b506200022660008051602062006347833981519152826200022d602090811b620037ad17901c565b50565b5490565b9055565b61610680620002416000396000f3006080604052600436106103c05760003560e01c63ffffffff168063046f7da21461042357806306fdde031461043a57806307da68f5146104c45780630803fac0146104d9578063095ea7b314610502578063136dd43c146105265780631459457a1461054d578063158626f71461058657806318160ddd146105b757806319208451146105cc5780631ea7ca89146105e457806323b872dd146105f957806327a099d8146106235780632914b9bd146106385780632cb5f784146106915780632de03aa1146106ac578063313ce567146106c157806332f0a3b5146106ec578063353efdcf1461070157806336bf33251461071657806337cfdaca146105b7578063383d85561461072b578063389ed2671461074057806339509351146107555780633b19e84a146107795780633f59a6741461078e5780633f683b6a146107a6578063435721da146107bb57806347b714e0146107d05780634ad509b2146107e55780634b6d9cc0146107ed57806352b3af9314610846578063540bc5ea1461085b5780635639671514610870578063609c4c6c1461088557806363c2eb531461089a57806364f9991a146108b6578063665b4b0b146108d15780636bb98ad314610920578063706aa30d1461093557806370a082311461094a5780637475f9131461096b578063752f77f1146109805780637a28fb88146109bb5780637e4193c6146109d35780637e7db6e1146109f45780637f6fdac714610a1557806380afdea814610a2a578063833b1fce14610a3f5780638b3dd74914610a545780638cef361214610a695780638d7a087a14610a915780638e00555314610a995780638fcb4e5b14610ab557806390adc83b14610ad957806395d89b4114610af15780639aaa2d1514610b065780639d4941d814610b1b578063a1658fad14610b3c578063a1903eab14610ba3578063a30448c014610bb7578063a457c2d714610bcc578063a479e50814610bf0578063a4d55d1d14610c05578063a6426f5f14610c1a578063a9059cbb14610c2f578063ab94276a14610c53578063ae2e353814610c68578063b3320d9a14610c9b578063b930908f14610cb0578063c0c53b8b14610cc5578063ced72f8714610cf2578063d4aae0c414610d1e578063d5002f2e14610d33578063dd62ed3e14610d48578063de4796ed14610d6f578063e73f452914610d84578063e97ee8cc14610db1578063eb85262f14610dc9578063ecc1dcfb14610dde578063ee7a7c0414610df3578063f5eb42dc14610e17578063f999c50614610e38578063f9f9e2a314610e4d578063fa64ebac14610e62575b3615610416576040805160e560020a62461bcd02815260206004820152600e60248201527f4e4f4e5f454d5054595f44415441000000000000000000000000000000000000604482015290519081900360640190fd5b6104206000610e77565b50005b34801561042f57600080fd5b506104386110e7565b005b34801561044657600080fd5b5061044f611134565b6040805160208082528351818301528351919283929083019185019080838360005b83811015610489578181015183820152602001610471565b50505050905090810190601f1680156104b65780820380516001836020036101000a031916815260200191505b509250505060405180910390f35b3480156104d057600080fd5b5061043861116b565b3480156104e557600080fd5b506104ee6111b6565b604080519115158252519081900360200190f35b34801561050e57600080fd5b506104ee600160a060020a03600435166024356111df565b34801561053257600080fd5b5061053b6111f5565b60408051918252519081900360200190f35b34801561055957600080fd5b50610438600160a060020a0360043581169060243581169060443581169060643581169060843516611218565b34801561059257600080fd5b5061059b611380565b60408051600160a060020a039092168252519081900360200190f35b3480156105c357600080fd5b5061053b6113c3565b3480156105d857600080fd5b5061053b6004356113cd565b3480156105f057600080fd5b506104ee61141b565b34801561060557600080fd5b506104ee600160a060020a0360043581169060243516604435611450565b34801561062f57600080fd5b5061059b611524565b34801561064457600080fd5b506040805160206004803580820135601f810184900484028501840190955284845261059b9436949293602493928401919081908401838280828437509497506115629650505050505050565b34801561069d57600080fd5b50610438600435602435611647565b3480156106b857600080fd5b5061053b6116f1565b3480156106cd57600080fd5b506106d6611726565b6040805160ff9092168252519081900360200190f35b3480156106f857600080fd5b5061059b61172b565b34801561070d57600080fd5b5061053b6117a0565b34801561072257600080fd5b5061053b6117d5565b34801561073757600080fd5b5061053b6117e2565b34801561074c57600080fd5b5061053b6117ec565b34801561076157600080fd5b506104ee600160a060020a0360043516602435611821565b34801561078557600080fd5b5061059b61185d565b34801561079a57600080fd5b5061053b60043561189b565b3480156107b257600080fd5b506104ee6118ac565b3480156107c757600080fd5b5061053b6118de565b3480156107dc57600080fd5b5061053b611913565b61043861191d565b3480156107f957600080fd5b506040805160206004803580820135601f810184900484028501840190955284845261044f943694929360249392840191908190840183828082843750949750611a969650505050505050565b34801561085257600080fd5b5061053b611aa1565b34801561086757600080fd5b5061053b611b05565b34801561087c57600080fd5b5061053b611b0a565b34801561089157600080fd5b5061053b611b48565b3480156108a657600080fd5b5061043861ffff60043516611b7d565b3480156108c257600080fd5b50610438600435602435611c7a565b3480156108dd57600080fd5b506108e661207a565b6040805197151588529515156020880152868601949094526060860192909252608085015260a084015260c0830152519081900360e00190f35b34801561092c57600080fd5b5061053b61211d565b34801561094157600080fd5b5061059b612178565b34801561095657600080fd5b5061053b600160a060020a03600435166121dc565b34801561097757600080fd5b506104386121ef565b34801561098c57600080fd5b50610995612218565b6040805161ffff9485168152928416602084015292168183015290519081900360600190f35b3480156109c757600080fd5b5061053b6004356122dd565b3480156109df57600080fd5b50610438600160a060020a0360043516612309565b348015610a0057600080fd5b506104ee600160a060020a03600435166123eb565b348015610a2157600080fd5b5061053b6123f1565b348015610a3657600080fd5b5061053b612426565b348015610a4b57600080fd5b5061059b612451565b348015610a6057600080fd5b5061053b61248f565b348015610a7557600080fd5b5061043861ffff600435811690602435811690604435166124ba565b610438611132565b348015610aa557600080fd5b5061043861ffff6004351661266f565b348015610ac157600080fd5b5061053b600160a060020a0360043516602435612720565b348015610ae557600080fd5b506104386004356127c6565b348015610afd57600080fd5b5061044f61280d565b348015610b1257600080fd5b5061053b612844565b348015610b2757600080fd5b50610438600160a060020a0360043516612879565b348015610b4857600080fd5b5060408051602060046044358181013583810280860185019096528085526104ee958335600160a060020a0316956024803596369695606495939492019291829185019084908082843750949750612ab99650505050505050565b61053b600160a060020a0360043516612c04565b348015610bc357600080fd5b5061053b612c0f565b348015610bd857600080fd5b506104ee600160a060020a0360043516602435612c14565b348015610bfc57600080fd5b5061059b612caf565b348015610c1157600080fd5b5061053b612d96565b348015610c2657600080fd5b5061053b612d9b565b348015610c3b57600080fd5b506104ee600160a060020a0360043516602435612dd0565b348015610c5f57600080fd5b5061059b612ddd565b348015610c7457600080fd5b50610c7d612e1b565b60408051938452602084019290925282820152519081900360600190f35b348015610ca757600080fd5b50610438612ea3565b348015610cbc57600080fd5b5061053b612f2d565b348015610cd157600080fd5b50610438600160a060020a0360043581169060243581169060443516612f62565b348015610cfe57600080fd5b50610d07612fbc565b6040805161ffff9092168252519081900360200190f35b348015610d2a57600080fd5b5061059b612ffa565b348015610d3f57600080fd5b5061053b613025565b348015610d5457600080fd5b5061053b600160a060020a036004358116906024351661302f565b348015610d7b57600080fd5b506104ee61305a565b348015610d9057600080fd5b50610438600160a060020a036004358116906024358116906044351661306d565b348015610dbd57600080fd5b506104386004356130b3565b348015610dd557600080fd5b5061053b6131c1565b348015610dea57600080fd5b506104386131f6565b348015610dff57600080fd5b5061053b600160a060020a036004351660243561323b565b348015610e2357600080fd5b5061053b600160a060020a036004351661331f565b348015610e4457600080fd5b5061043861332a565b348015610e5957600080fd5b50610438611122565b348015610e6e57600080fd5b5061053b613365565b6000610e81615f75565b600080341515610edb576040805160e560020a62461bcd02815260206004820152600c60248201527f5a45524f5f4445504f5349540000000000000000000000000000000000000000604482015290519081900360640190fd5b60408051600080516020615ffb83398151915281529051908190036014019020610f04906133c9565b9250610f0f8361341c565b15610f64576040805160e560020a62461bcd02815260206004820152600e60248201527f5354414b494e475f504155534544000000000000000000000000000000000000604482015290519081900360640190fd5b610f6d83613427565b1561101657610f7b83613439565b915034821015610fd5576040805160e560020a62461bcd02815260206004820152600b60248201527f5354414b455f4c494d4954000000000000000000000000000000000000000000604482015290519081900360640190fd5b611016610fea8434850363ffffffff6134c416565b60408051600080516020615ffb833981519152815290519081900360140190209063ffffffff61350816565b61101f346113cd565b905080151561102b5750345b6110353382613567565b5061108f611051346110456136d2565b9063ffffffff61371f16565b604080517f6c69646f2e4c69646f2e62756666657265644574686572000000000000000000815290519081900360170190209063ffffffff6137ad16565b60408051348152600160a060020a0387166020820152815133927f96a25c8ce0baabc1fdefd93e9ed25d8e092a3332f3aa9a41722b5697231d1d1a928290030190a26110db33826137b1565b8093505b505050919050565b604080517f524553554d455f524f4c450000000000000000000000000000000000000000008152905190819003600b0190206111229061383d565b61112a6138fa565b6111326139d4565b565b60408051808201909152601781527f4c6971756964207374616b656420457468657220322e30000000000000000000602082015290565b604080517f50415553455f524f4c45000000000000000000000000000000000000000000008152905190819003600a0190206111a69061383d565b6111ae613a3f565b611132613b08565b6000806111c161248f565b905080158015906111d95750806111d6613b67565b10155b91505090565b60006111ec338484613b6b565b50600192915050565b6040805160008051602061609b8339815191528152905190819003601401902081565b61122061248f565b60408051808201909152601881527f494e49545f414c52454144595f494e495449414c495a45440000000000000000602082015290156112e15760405160e560020a62461bcd0281526004018080602001828103825283818151815260200191508051906020019080838360005b838110156112a657818101518382015260200161128e565b50505050905090810190601f1680156112d35780820380516001836020036101000a031916815260200191505b509250505060405180910390fd5b50604080517f6c69646f2e4c69646f2e6e6f64654f70657261746f72735265676973747279008152905190819003601f019020611324908463ffffffff6137ad16565b604080517f6c69646f2e4c69646f2e6465706f736974436f6e74726163740000000000000081529051908190036019019020611366908663ffffffff6137ad16565b611371848383613cfa565b611379613f30565b5050505050565b604080517f6c69646f2e4c69646f2e696e737572616e636546756e64000000000000000000815290519081900360170190206000906113be90613ff6565b905090565b60006113be613ffa565b6000806113d8613ffa565b90508015156113ea5760009150611415565b611412816114066113f961403c565b869063ffffffff61407a16565b9063ffffffff61412516565b91505b50919050565b60408051600080516020615ffb833981519152815290519081900360140190206000906113be9061144b906133c9565b61341c565b600160a060020a0383166000908152600160209081526040808320338452909152812054828110156114f2576040805160e560020a62461bcd02815260206004820152602160248201527f5452414e534645525f414d4f554e545f455843454544535f414c4c4f57414e4360448201527f4500000000000000000000000000000000000000000000000000000000000000606482015290519081900360840190fd5b6114fd8585856141c5565b6115178533611512848763ffffffff61427916565b613b6b565b600191505b509392505050565b604080517f6c69646f2e4c69646f2e6e6f64654f70657261746f72735265676973747279008152905190819003601f0190206000906113be90613ff6565b600061156c612caf565b600160a060020a03166304bf2a7f836040518263ffffffff1660e01b81526004018080602001828103825283818151815260200191508051906020019080838360005b838110156115c75781810151838201526020016115af565b50505050905090810190601f1680156115f45780820380516001836020036101000a031916815260200191505b5092505050602060405180830381600087803b15801561161357600080fd5b505af1158015611627573d6000803e3d6000fd5b505050506040513d602081101561163d57600080fd5b505190505b919050565b6040805160008051602061609b833981519152815290519081900360140190206116709061383d565b60408051600080516020615ffb833981519152815290519081900360140190206116b290610fea90849084906116a5906133c9565b919063ffffffff61430d16565b604080518381526020810183905281517fce9fddf6179affa1ea7bf36d80a6bf0284e0f3b91f4b2fa6eea2af923e7fac2d929181900390910190a15050565b604080517f524553554d455f524f4c450000000000000000000000000000000000000000008152905190819003600b01902081565b601290565b6000611735612ffa565b600160a060020a03166332f0a3b56040518163ffffffff1660e01b8152600401602060405180830381600087803b15801561176f57600080fd5b505af1158015611783573d6000803e3d6000fd5b505050506040513d602081101561179957600080fd5b5051905090565b604080517f4445504f5349545f524f4c4500000000000000000000000000000000000000008152905190819003600c01902081565b6801bc16d674ec80000081565b60006113be614521565b604080517f50415553455f524f4c45000000000000000000000000000000000000000000008152905190819003600a01902081565b336000818152600160209081526040808320600160a060020a038716845290915281205490916111ec918590611512908663ffffffff61371f16565b604080517f6c69646f2e4c69646f2e74726561737572790000000000000000000000000000815290519081900360120190206000906113be90613ff6565b60006118a68261453c565b92915050565b6040805160008051602061603b833981519152815290519081900360180190206000906118d890613ff6565b15905090565b604080517f4d414e4147455f5749544844524157414c5f4b455900000000000000000000008152905190819003601501902081565b60006113be6136d2565b604080517f6c69646f2e4c69646f2e657865637574696f6e4c61796572526577617264735681527f61756c74000000000000000000000000000000000000000000000000000000006020820152905190819003602401902061197e90613ff6565b600160a060020a0316331461199257600080fd5b604080517f6c69646f2e4c69646f2e746f74616c454c52657761726473436f6c6c6563746581527f640000000000000000000000000000000000000000000000000000000000000060208201529051908190036021019020611a61906119fd90349061104590613ff6565b604080517f6c69646f2e4c69646f2e746f74616c454c52657761726473436f6c6c6563746581527f6400000000000000000000000000000000000000000000000000000000000000602082015290519081900360210190209063ffffffff6137ad16565b6040805134815290517fd27f9b0c98bdee27044afa149eadcd2047d6399cb6613a45c5b87e6aca76e6b59181900360200190a1565b60606118a682614578565b604080517f6c69646f2e4c69646f2e454c526577617264735769746864726177616c4c696d81527f6974000000000000000000000000000000000000000000000000000000000000602082015290519081900360220190206000906113be90613ff6565b606081565b604080517f6c69646f2e4c69646f2e7769746864726177616c43726564656e7469616c73008152905190819003601f0190206000906113be90613ff6565b60408051600080516020615ffb833981519152815290519081900360140190206000906113be90611b78906133c9565b61460d565b604080517f5345545f454c5f524557415244535f5749544844524157414c5f4c494d49545f81527f524f4c450000000000000000000000000000000000000000000000000000000060208201529051908190036024019020611bde9061383d565b604080517f6c69646f2e4c69646f2e454c526577617264735769746864726177616c4c696d81527f697400000000000000000000000000000000000000000000000000000000000060208201529051908190036022019020611c409082614646565b6040805161ffff8316815290517f166eb213129ab51688433b859b5a206403ee174774a1430f8ffb83af316161f69181900360200190a150565b6000806000806000806000611cb5604051808060008051602061603b8339815191528152506018019050604051809103902060001916613ff6565b1515611cf9576040805160e560020a62461bcd028152602060048201526013602482015260008051602061607b833981519152604482015290519081900360640190fd5b611d01612451565b600160a060020a03163314611d60576040805160e560020a62461bcd02815260206004820152600f60248201527f4150505f415554485f4641494c45440000000000000000000000000000000000604482015290519081900360640190fd5b6040805160008051602061605b8339815191528152905190819003601d019020611d8990613ff6565b965086891115611de3576040805160e560020a62461bcd02815260206004820152601760248201527f5245504f525445445f4d4f52455f4445504f5349544544000000000000000000604482015290519081900360640190fd5b604080516000805160206160bb8339815191528152905190819003601a019020611e0c90613ff6565b955085891015611e66576040805160e560020a62461bcd02815260206004820152601860248201527f5245504f525445445f4c4553535f56414c494441544f52530000000000000000604482015290519081900360640190fd5b611e76898763ffffffff61427916565b6040805160008051602061601b83398151915281529051908190036017019020909550611ebf90611ea690613ff6565b611045876801bc16d674ec80000063ffffffff61407a16565b6040805160008051602061601b83398151915281529051908190036017019020909450611ef2908963ffffffff6137ad16565b604080516000805160206160bb8339815191528152905190819003601a019020611f22908a63ffffffff6137ad16565b611f2a612178565b9150600160a060020a0382161561203d57604080517f6c69646f2e4c69646f2e454c526577617264735769746864726177616c4c696d81527f697400000000000000000000000000000000000000000000000000000000000060208201529051908190036022019020600160a060020a03831690639342c8f49061271090611fb190613ff6565b611fb9613ffa565b02811515611fc357fe5b046040518263ffffffff1660e01b815260040180828152602001915050602060405180830381600087803b158015611ffa57600080fd5b505af115801561200e573d6000803e3d6000fd5b505050506040513d602081101561202457600080fd5b50519250821561203d5761203d611051846110456136d2565b8388111561206f57612055888563ffffffff61427916565b905061206f61206a828563ffffffff61371f16565b6146b8565b505050505050505050565b600080600080600080600061208d615f75565b60408051600080516020615ffb833981519152815290519081900360140190206120b6906133c9565b90506120c18161341c565b97506120cc81613427565b96506120d78161460d565b955080606001516001606060020a03169450806040015163ffffffff16935080602001516001606060020a03169250806000015163ffffffff1691505090919293949596565b604080517f5345545f454c5f524557415244535f5749544844524157414c5f4c494d49545f81527f524f4c45000000000000000000000000000000000000000000000000000000006020820152905190819003602401902081565b604080517f6c69646f2e4c69646f2e657865637574696f6e4c61796572526577617264735681527f61756c7400000000000000000000000000000000000000000000000000000000602082015290519081900360240190206000906113be90613ff6565b60006118a66121ea836147e7565b6122dd565b6040805160008051602061609b8339815191528152905190819003601401902061112a9061383d565b604080517f6c69646f2e4c69646f2e74726561737572794665650000000000000000000000815290519081900360150190206000908190819061225a90613ff6565b604080517f6c69646f2e4c69646f2e696e737572616e6365466565000000000000000000008152905190819003601601902090935061229890613ff6565b604080517f6c69646f2e4c69646f2e6e6f64654f70657261746f72734665650000000000008152905190819003601a0190209092506122d690613ff6565b9050909192565b6000806122e861403c565b90508015156122fa5760009150611415565b611412816114066113f9613ffa565b604080517f5345545f454c5f524557415244535f5641554c545f524f4c4500000000000000815290519081900360190190206123449061383d565b604080517f6c69646f2e4c69646f2e657865637574696f6e4c61796572526577617264735681527f61756c7400000000000000000000000000000000000000000000000000000000602082015290519081900360240190206123ac908263ffffffff6137ad16565b60408051600160a060020a038316815290517f8e2d01c4cfaa88fa4d772d37e4d068deda4342bf4ef6dc4b0cf3e868be5ebb409181900360200190a150565b50600190565b604080517f4d414e4147455f50524f544f434f4c5f434f4e5452414354535f524f4c4500008152905190819003601e01902081565b60006113be7fd625496217aa6a3453eecb9c3489dc5a53e6c67b444329ea2b2cbc9ff547639b613ff6565b604080517f6c69646f2e4c69646f2e6f7261636c6500000000000000000000000000000000815290519081900360100190206000906113be90613ff6565b60006113be7febb05b386a8d34882b8711d156f463690983dc47815980fb82aeeff1aa43579e613ff6565b604080517f4d414e4147455f464545000000000000000000000000000000000000000000008152905190819003600a0190206124f59061383d565b6125188161ffff166110458461ffff168661ffff1661371f90919063ffffffff16565b61271014612570576040805160e560020a62461bcd02815260206004820152601060248201527f464545535f444f4e545f4144445f555000000000000000000000000000000000604482015290519081900360640190fd5b604080517f6c69646f2e4c69646f2e74726561737572794665650000000000000000000000815290519081900360150190206125ac9084614646565b604080517f6c69646f2e4c69646f2e696e737572616e636546656500000000000000000000815290519081900360160190206125e89083614646565b604080517f6c69646f2e4c69646f2e6e6f64654f70657261746f72734665650000000000008152905190819003601a0190206126249082614646565b6040805161ffff8086168252808516602083015283168183015290517f034529db1bba3830b8877e116871f19c5b96ef86c739f2a05668c860c84668989181900360600190a1505050565b604080517f4d414e4147455f464545000000000000000000000000000000000000000000008152905190819003600a0190206126aa9061383d565b604080517f6c69646f2e4c69646f2e666565000000000000000000000000000000000000008152905190819003600d0190206126e69082614646565b6040805161ffff8316815290517faab062e3faf62b6c9a0f8e62af66e0310e27127a8c871a67be7dd4d93de6da539181900360200190a150565b60008061272e338585614802565b604080518481529051600160a060020a0386169133917f9d9c909296d9c674451c0c24f02cb64981eb3b727f99865939192f880a755dcb9181900360200190a3612777836122dd565b604080518281529051919250600160a060020a0386169133917fddf252ad1be2c89b69c2b068fc378daa952ba7f163c4a11628f55a4df523b3ef919081900360200190a38091505b5092915050565b604080517f4445504f5349545f524f4c4500000000000000000000000000000000000000008152905190819003600c0190206128019061383d565b61280a81614a0b565b50565b60408051808201909152600581527f7374455448000000000000000000000000000000000000000000000000000000602082015290565b604080517f4d414e4147455f464545000000000000000000000000000000000000000000008152905190819003600a01902081565b6000806000612887846123eb565b15156128dd576040805160e560020a62461bcd02815260206004820152601260248201527f5245434f5645525f444953414c4c4f5745440000000000000000000000000000604482015290519081900360640190fd5b6128e561172b565b9250600160a060020a0383161515612947576040805160e560020a62461bcd02815260206004820152601260248201527f5245434f5645525f5641554c545f5a45524f0000000000000000000000000000604482015290519081900360640190fd5b600160a060020a03841615156129db5761295f614521565b915082600160a060020a03168260405160006040518083038185875af19250505015156129d6576040805160e560020a62461bcd02815260206004820152601760248201527f5245434f5645525f5452414e534645525f4641494c4544000000000000000000604482015290519081900360640190fd5b612a68565b50826129f6600160a060020a0382163063ffffffff614af316565b9150612a12600160a060020a038216848463ffffffff614c0816565b1515612a68576040805160e560020a62461bcd02815260206004820152601d60248201527f5245434f5645525f544f4b454e5f5452414e534645525f4641494c4544000000604482015290519081900360640190fd5b83600160a060020a031683600160a060020a03167f596caf56044b55fb8c4ca640089bbc2b63cae3e978b851f5745cbb7c5b288e02846040518082815260200191505060405180910390a350505050565b600080612ac46111b6565b1515612ad3576000915061151c565b612adb612ffa565b9050600160a060020a0381161515612af6576000915061151c565b80600160a060020a031663fdef9106863087612b1188614c8a565b60405163ffffffff861660e01b8152600160a060020a03808616600483019081529085166024830152604482018490526080606483019081528351608484015283519192909160a490910190602085019080838360005b83811015612b80578181015183820152602001612b68565b50505050905090810190601f168015612bad5780820380516001836020036101000a031916815260200191505b5095505050505050602060405180830381600087803b158015612bcf57600080fd5b505af1158015612be3573d6000803e3d6000fd5b505050506040513d6020811015612bf957600080fd5b505195945050505050565b60006118a682610e77565b602081565b336000908152600160209081526040808320600160a060020a038616845290915281205482811015612c90576040805160e560020a62461bcd02815260206004820152601e60248201527f4445435245415345445f414c4c4f57414e43455f42454c4f575f5a45524f0000604482015290519081900360640190fd5b612ca53385611512848763ffffffff61427916565b5060019392505050565b600080612cba612ffa565b604080517fbe00bbd80000000000000000000000000000000000000000000000000000000081527fd6f028ca0e8edb4a8c9757ca4fdccab25fa1e0317da1188108f7d2dee14902fb60048201527fddbcfd564f642ab5627cf68b9b7d374fb4f8a36e941a75d89c87998cef03bd6160248201529051600160a060020a03929092169163be00bbd8916044808201926020929091908290030181600087803b158015612d6457600080fd5b505af1158015612d78573d6000803e3d6000fd5b505050506040513d6020811015612d8e57600080fd5b505192915050565b603081565b604080517f5345545f454c5f524557415244535f5641554c545f524f4c45000000000000008152905190819003601901902081565b60006111ec3384846141c5565b604080517f6c69646f2e4c69646f2e6465706f736974436f6e747261637400000000000000815290519081900360190190206000906113be90613ff6565b6040805160008051602061605b8339815191528152905190819003601d01902060009081908190612e4b90613ff6565b604080516000805160206160bb8339815191528152905190819003601a019020909350612e7790613ff6565b6040805160008051602061601b833981519152815290519081900360170190209092506122d690613ff6565b6040805160008051602061609b83398151915281529051908190036014019020612ecc9061383d565b60408051600080516020615ffb83398151915281529051908190036014019020612f0290610fea90612efd906133c9565b614c94565b6040517f9b2a687c198898fcc32a33bbc610d478f177a73ab7352023e6cc1de5bf12a3df90600090a1565b604080517f4255524e5f524f4c4500000000000000000000000000000000000000000000008152905190819003600901902081565b612fb7838383612f70615f9c565b604051809103906000f080158015612f8c573d6000803e3d6000fd5b50612f95615f9c565b604051809103906000f080158015612fb1573d6000803e3d6000fd5b50611218565b505050565b604080517f6c69646f2e4c69646f2e666565000000000000000000000000000000000000008152905190819003600d0190206000906113be90613ff6565b60006113be7f4172f0f7d2289153072b0a6ca36959e0cbe2efc3afe50fc81636caa96338137b613ff6565b60006113be61403c565b600160a060020a03918216600090815260016020908152604080832093909416825291909152205490565b600060001961306761248f565b14905090565b604080517f4d414e4147455f50524f544f434f4c5f434f4e5452414354535f524f4c4500008152905190819003601e0190206130a89061383d565b612fb7838383613cfa565b604080517f4d414e4147455f5749544844524157414c5f4b45590000000000000000000000815290519081900360150190206130ee9061383d565b604080517f6c69646f2e4c69646f2e7769746864726177616c43726564656e7469616c73008152905190819003601f019020613130908263ffffffff6137ad16565b613138611524565b600160a060020a031663f778021e6040518163ffffffff1660e01b8152600401600060405180830381600087803b15801561317257600080fd5b505af1158015613186573d6000803e3d6000fd5b50506040805184815290517f13eb80e900aa05a2696d50d5de33ef631c73493c4921da233b17335ff6b7b1149350908190036020019150a150565b604080517f5354414b494e475f50415553455f524f4c4500000000000000000000000000008152905190819003601201902081565b604080517f4445504f5349545f524f4c4500000000000000000000000000000000000000008152905190819003600c0190206132319061383d565b6111326096614a0b565b604080517f4255524e5f524f4c4500000000000000000000000000000000000000000000008152905190819003600901902060009061327a8484614ca7565b613285338383612ab9565b60408051808201909152600f81527f4150505f415554485f4641494c45440000000000000000000000000000000000602082015290151561330b5760405160e560020a62461bcd028152600401808060200182810382528381815181526020019150805190602001908083836000838110156112a657818101518382015260200161128e565b506133168585614cc3565b95945050505050565b60006118a6826147e7565b604080517f5354414b494e475f50415553455f524f4c450000000000000000000000000000815290519081900360120190206111ae9061383d565b604080517f6c69646f2e4c69646f2e746f74616c454c52657761726473436f6c6c6563746581527f6400000000000000000000000000000000000000000000000000000000000000602082015290519081900360210190206000906113be90613ff6565b6133d1615f75565b60006133dc83613ff6565b63ffffffff600082901c811684526001606060020a03602083811c821690860152608083901c909116604085015260a09190911c16606083015250919050565b5163ffffffff161590565b606001516001606060020a0316151590565b6040810151600090819063ffffffff161561347d57826040015163ffffffff1683606001516001606060020a031681151561347057fe5b046001606060020a031690505b80836000015163ffffffff1643030283602001516001606060020a031601915082606001516001606060020a0316821115611415575050606001516001606060020a031690565b6134cc615f75565b6001606060020a038211156134dd57fe5b825163ffffffff1615156134ed57fe5b506001606060020a031660208201524363ffffffff16815290565b61356360a082606001516001606060020a0316901b6080836040015163ffffffff16901b602084602001516001606060020a0316901b6000856000015163ffffffff16901b17171783600019166137ad90919063ffffffff16565b5050565b6040805160008051602061603b8339815191528152905190819003601801902060009061359390613ff6565b15156135d7576040805160e560020a62461bcd028152602060048201526013602482015260008051602061607b833981519152604482015290519081900360640190fd5b600160a060020a0383161515613637576040805160e560020a62461bcd02815260206004820152601860248201527f4d494e545f544f5f5448455f5a45524f5f414444524553530000000000000000604482015290519081900360640190fd5b6136438261104561403c565b604080517f6c69646f2e53744554482e746f74616c5368617265730000000000000000000081529051908190036016019020909150613688908263ffffffff6137ad16565b600160a060020a0383166000908152602081905260409020546136b1908363ffffffff61371f16565b600160a060020a039093166000908152602081905260409020929092555090565b604080517f6c69646f2e4c69646f2e6275666665726564457468657200000000000000000081529051908190036017019020600090819061371290613ff6565b9050303181111561164257fe5b60408051808201909152601181527f4d4154485f4144445f4f564552464c4f570000000000000000000000000000006020820152600090838301908482101561151c5760405160e560020a62461bcd028152600401808060200182810382528381815181526020019150805190602001908083836000838110156112a657818101518382015260200161128e565b9055565b600160a060020a03821660007fddf252ad1be2c89b69c2b068fc378daa952ba7f163c4a11628f55a4df523b3ef6137e7846122dd565b60408051918252519081900360200190a3604080518281529051600160a060020a038416916000917f9d9c909296d9c674451c0c24f02cb64981eb3b727f99865939192f880a755dcb9181900360200190a35050565b806138743382600060405190808252806020026020018201604052801561386e578160200160208202803883390190505b50612ab9565b60408051808201909152600f81527f4150505f415554485f4641494c454400000000000000000000000000000000006020820152901515612fb75760405160e560020a62461bcd028152600401808060200182810382528381815181526020019150805190602001908083836000838110156112a657818101518382015260200161128e565b6040805160008051602061603b8339815191528152905190819003601801902061392390613ff6565b15613978576040805160e560020a62461bcd02815260206004820152601260248201527f434f4e54524143545f49535f4143544956450000000000000000000000000000604482015290519081900360640190fd5b6040805160008051602061603b833981519152815290519081900360180190206139a990600163ffffffff6137ad16565b6040517f62451d457bc659158be6e6247f56ec1df424a5c7597f71c20c2bc44e0965c8f990600090a1565b60408051600080516020615ffb83398151915281529051908190036014019020613a1490610fea90600090613a08906133c9565b9063ffffffff614ef116565b6040517fedaeeae9aed70c4545d3ab0065713261c9cee8d6cf5c8b07f52f0a65fd91efda90600090a1565b6040805160008051602061603b83398151915281529051908190036018019020613a6890613ff6565b1515613aac576040805160e560020a62461bcd028152602060048201526013602482015260008051602061607b833981519152604482015290519081900360640190fd5b6040805160008051602061603b83398151915281529051908190036018019020613add90600063ffffffff6137ad16565b6040517f7acc84e34091ae817647a4c49116f5cc07f319078ba80f8f5fde37ea7e25cbd690600090a1565b60408051600080516020615ffb83398151915281529051908190036014019020613b3c90610fea90600190613a08906133c9565b6040517f26d1807b479eaba249c1214b82e4b65bbb0cc73ee8a17901324b1ef1b5904e4990600090a1565b4390565b6040805160008051602061603b83398151915281529051908190036018019020613b9490613ff6565b1515613bd8576040805160e560020a62461bcd028152602060048201526013602482015260008051602061607b833981519152604482015290519081900360640190fd5b600160a060020a0383161515613c38576040805160e560020a62461bcd02815260206004820152601960248201527f415050524f56455f46524f4d5f5a45524f5f4144445245535300000000000000604482015290519081900360640190fd5b600160a060020a0382161515613c98576040805160e560020a62461bcd02815260206004820152601760248201527f415050524f56455f544f5f5a45524f5f41444452455353000000000000000000604482015290519081900360640190fd5b600160a060020a03808416600081815260016020908152604080832094871680845294825291829020859055815185815291517f8c5be1e5ebec7d5bd14f71427d1e84f3dd0314c0f7b2291e5b200ac8c7c3b9259281900390910190a3505050565b600160a060020a0383161515613d5a576040805160e560020a62461bcd02815260206004820152601360248201527f4f5241434c455f5a45524f5f4144445245535300000000000000000000000000604482015290519081900360640190fd5b600160a060020a0382161515613dba576040805160e560020a62461bcd02815260206004820152601560248201527f54524541535552595f5a45524f5f414444524553530000000000000000000000604482015290519081900360640190fd5b600160a060020a0381161515613e1a576040805160e560020a62461bcd02815260206004820152601b60248201527f494e535552414e43455f46554e445f5a45524f5f414444524553530000000000604482015290519081900360640190fd5b604080517f6c69646f2e4c69646f2e6f7261636c650000000000000000000000000000000081529051908190036010019020613e5c908463ffffffff6137ad16565b604080517f6c69646f2e4c69646f2e7472656173757279000000000000000000000000000081529051908190036012019020613e9e908363ffffffff6137ad16565b604080517f6c69646f2e4c69646f2e696e737572616e636546756e6400000000000000000081529051908190036017019020613ee0908263ffffffff6137ad16565b60408051600160a060020a038086168252808516602083015283168183015290517f7df55cbe17c0cf85c9c23753c046f686eeb4c6b2ce13182943d215e92afc565a9181900360600190a1505050565b613f3861248f565b60408051808201909152601881527f494e49545f414c52454144595f494e495449414c495a4544000000000000000060208201529015613fbd5760405160e560020a62461bcd028152600401808060200182810382528381815181526020019150805190602001908083836000838110156112a657818101518382015260200161128e565b50611132613fc9613b67565b7febb05b386a8d34882b8711d156f463690983dc47815980fb82aeeff1aa43579e9063ffffffff6137ad16565b5490565b60006113be614007614f16565b6040805160008051602061601b833981519152815290519081900360170190206110459061403490613ff6565b6110456136d2565b604080517f6c69646f2e53744554482e746f74616c53686172657300000000000000000000815290519081900360160190206000906113be90613ff6565b60008083151561408d57600091506127bf565b5082820282848281151561409d57fe5b60408051808201909152601181527f4d4154485f4d554c5f4f564552464c4f570000000000000000000000000000006020820152929190041461151c5760405160e560020a62461bcd028152600401808060200182810382528381815181526020019150805190602001908083836000838110156112a657818101518382015260200161128e565b60408051808201909152600d81527f4d4154485f4449565f5a45524f00000000000000000000000000000000000000602082015260009081908184116141b05760405160e560020a62461bcd028152600401808060200182810382528381815181526020019150805190602001908083836000838110156112a657818101518382015260200161128e565b5082848115156141bc57fe5b04949350505050565b60006141d0826113cd565b90506141dd848483614802565b82600160a060020a031684600160a060020a03167fddf252ad1be2c89b69c2b068fc378daa952ba7f163c4a11628f55a4df523b3ef846040518082815260200191505060405180910390a382600160a060020a031684600160a060020a03167f9d9c909296d9c674451c0c24f02cb64981eb3b727f99865939192f880a755dcb836040518082815260200191505060405180910390a350505050565b60408051808201909152601281527f4d4154485f5355425f554e444552464c4f57000000000000000000000000000060208201526000908190848411156143055760405160e560020a62461bcd028152600401808060200182810382528381815181526020019150805190602001908083836000838110156112a657818101518382015260200161128e565b505050900390565b614315615f75565b82151561436c576040805160e560020a62461bcd02815260206004820152601460248201527f5a45524f5f4d41585f5354414b455f4c494d4954000000000000000000000000604482015290519081900360640190fd5b6001606060020a038311156143cb576040805160e560020a62461bcd02815260206004820152601960248201527f544f4f5f4c415247455f4d41585f5354414b455f4c494d495400000000000000604482015290519081900360640190fd5b81831015614423576040805160e560020a62461bcd02815260206004820152601860248201527f544f4f5f4c415247455f4c494d49545f494e4352454153450000000000000000604482015290519081900360640190fd5b81158061443f575063ffffffff828481151561443b57fe5b0411155b1515614495576040805160e560020a62461bcd02815260206004820152601860248201527f544f4f5f534d414c4c5f4c494d49545f494e4352454153450000000000000000604482015290519081900360640190fd5b60608401516001606060020a031615806144bb575083602001516001606060020a031683105b156144d0576001606060020a03831660208501525b8115156144de5760006144eb565b81838115156144e957fe5b045b63ffffffff90811660408601526001606060020a0384166060860152845116156145195763ffffffff431684525b509192915050565b60006113be61452e6136d2565b30319063ffffffff61427916565b600081815b600881101561456257600892831b60ff831617929190911c90600101614541565b811561456a57fe5b505060c01b919050565b5490565b606080602083511015801561458f57506040835111155b151561459757fe5b8251604014156145a957829150611415565b6040805160208082528183019092529080820161040080388339019050509050600060208201528251602014156145e4576114128382614fa2565b611412836146088360006146038851604061427990919063ffffffff16565b61501d565b614fa2565b60006146188261341c565b1561462557506000611642565b61462e82613427565b151561463d5750600019611642565b6118a682613439565b61271061ffff821611156146a4576040805160e560020a62461bcd02815260206004820152601660248201527f56414c55455f4f5645525f3130305f50455243454e5400000000000000000000604482015290519081900360640190fd5b6135638261ffff831663ffffffff6137ad16565b60008060008060008060008060006146ce612fbc565b61ffff16985061472b6147106146ea8b8d63ffffffff61407a16565b6147046127106146f8613ffa565b9063ffffffff61407a16565b9063ffffffff61427916565b61140661471b61403c565b6146f88e8e63ffffffff61407a16565b97506147373089613567565b50614740612218565b909850965061476190506127106114068a61ffff8b1663ffffffff61407a16565b945061476b611380565b9350614778308587614802565b61478284866137b1565b6147a461479f6127106114068b61ffff8b1663ffffffff61407a16565b61509e565b92506147ba836147048a8863ffffffff61427916565b91506147c461185d565b90506147d1308284614802565b6147db81836137b1565b50505050505050505050565b600160a060020a031660009081526020819052604090205490565b6040805160008051602061603b8339815191528152905190819003601801902060009061482e90613ff6565b1515614872576040805160e560020a62461bcd028152602060048201526013602482015260008051602061607b833981519152604482015290519081900360640190fd5b600160a060020a03841615156148d2576040805160e560020a62461bcd02815260206004820152601e60248201527f5452414e534645525f46524f4d5f5448455f5a45524f5f414444524553530000604482015290519081900360640190fd5b600160a060020a0383161515614932576040805160e560020a62461bcd02815260206004820152601c60248201527f5452414e534645525f544f5f5448455f5a45524f5f4144445245535300000000604482015290519081900360640190fd5b50600160a060020a038316600090815260208190526040902054808211156149a4576040805160e560020a62461bcd02815260206004820152601f60248201527f5452414e534645525f414d4f554e545f455843454544535f42414c414e434500604482015290519081900360640190fd5b6149b4818363ffffffff61427916565b600160a060020a0380861660009081526020819052604080822093909355908516815220546149e9908363ffffffff61371f16565b600160a060020a03909316600090815260208190526040902092909255505050565b6040805160008051602061603b8339815191528152905190819003601801902060009081908190614a3b90613ff6565b1515614a7f576040805160e560020a62461bcd028152602060048201526013602482015260008051602061607b833981519152604482015290519081900360640190fd5b614a876136d2565b92506801bc16d674ec8000008310614aed57614aa1614521565b9150614abc836801bc16d674ec80000063ffffffff61412516565b9050614add614ad8858310614ad15785614ad3565b825b61528f565b61560e565b81614ae6614521565b14614aed57fe5b50505050565b60408051600160a060020a0383166024808301919091528251808303909101815260449091019091526020810180517bffffffffffffffffffffffffffffffffffffffffffffffffffffffff167f70a08231000000000000000000000000000000000000000000000000000000001790526000908180614b738684615689565b60408051808201909152601c81527f534146455f4552435f32305f42414c414e43455f52455645525445440000000060208201529193509150821515614bfe5760405160e560020a62461bcd028152600401808060200182810382528381815181526020019150805190602001908083836000838110156112a657818101518382015260200161128e565b5095945050505050565b60408051600160a060020a038416602482015260448082018490528251808303909101815260649091019091526020810180517bffffffffffffffffffffffffffffffffffffffffffffffffffffffff167fa9059cbb0000000000000000000000000000000000000000000000000000000017905260009061331685826156ba565b8051602002815290565b614c9c615f75565b506000606082015290565b6060614cbc83600160a060020a031683615708565b9392505050565b6040805160008051602061603b83398151915281529051908190036018019020600090819081908190614cf590613ff6565b1515614d39576040805160e560020a62461bcd028152602060048201526013602482015260008051602061607b833981519152604482015290519081900360640190fd5b600160a060020a0386161515614d99576040805160e560020a62461bcd02815260206004820152601a60248201527f4255524e5f46524f4d5f5448455f5a45524f5f41444452455353000000000000604482015290519081900360640190fd5b600160a060020a038616600090815260208190526040902054925082851115614e0c576040805160e560020a62461bcd02815260206004820152601b60248201527f4255524e5f414d4f554e545f455843454544535f42414c414e43450000000000604482015290519081900360640190fd5b614e15856122dd565b9150614e238561470461403c565b604080517f6c69646f2e53744554482e746f74616c5368617265730000000000000000000081529051908190036016019020909450614e68908563ffffffff6137ad16565b614e78838663ffffffff61427916565b600160a060020a038716600090815260208190526040902055614e9a856122dd565b60408051848152602081018390528082018890529051919250600160a060020a038816917f8b2a1e1ad5e0578c3dd82494156e985dade827a87c573b5c1c7716a32162ad649181900360600190a250505092915050565b614ef9615f75565b81614f045743614f07565b60005b63ffffffff1683525090919050565b6040805160008051602061605b8339815191528152905190819003601d01902060009081908190614f4690613ff6565b604080516000805160206160bb8339815191528152905190819003601a019020909250614f7290613ff6565b905080821015614f7e57fe5b614f9b6801bc16d674ec8000006146f8848463ffffffff61427916565b9250505090565b6060806040519050835180825260208201818101602087015b81831015614fd3578051835260209283019201614fbb565b50855184518101855292509050808201602086015b81831015615000578051835260209283019201614fe8565b509551919091011594909401601f01601f19166040529392505050565b60608082840185511015151561503257600080fd5b8215801561504b57604051915060208201604052615095565b6040519150601f8416801560200281840101858101878315602002848b0101015b8183101561508457805183526020928301920161506c565b5050858452601f01601f1916604052505b50949350505050565b600060608060006150ad611524565b600160a060020a03166362dcfda1866040518263ffffffff1660e01b815260040180828152602001915050600060405180830381600087803b1580156150f257600080fd5b505af1158015615106573d6000803e3d6000fd5b505050506040513d6000823e601f3d908101601f19168201604090815281101561512f57600080fd5b81019080805164010000000081111561514757600080fd5b8201602081018481111561515a57600080fd5b815185602082028301116401000000008211171561517757600080fd5b5050929190602001805164010000000081111561519357600080fd5b820160208101848111156151a657600080fd5b81518560208202830111640100000000821117156151c357600080fd5b505092919050505092509250815183511415156151dc57fe5b5060009250825b82518110156110df576152253084838151811015156151fe57fe5b90602001906020020151848481518110151561521657fe5b90602001906020020151614802565b61525d838281518110151561523657fe5b90602001906020020151838381518110151561524e57fe5b906020019060200201516137b1565b615285828281518110151561526e57fe5b60209081029091010151859063ffffffff61371f16565b93506001016151e3565b60006060806000806060806152a2611524565b600160a060020a03166341bc716f896040518263ffffffff1660e01b815260040180828152602001915050600060405180830381600087803b1580156152e757600080fd5b505af11580156152fb573d6000803e3d6000fd5b505050506040513d6000823e601f3d908101601f19168201604090815281101561532457600080fd5b81019080805164010000000081111561533c57600080fd5b8201602081018481111561534f57600080fd5b815164010000000081118282018710171561536957600080fd5b5050929190602001805164010000000081111561538557600080fd5b8201602081018481111561539857600080fd5b81516401000000008111828201871017156153b257600080fd5b50508451949a509850505090151590506153cf5760009650615603565b85516153e290603063ffffffff61576316565b1561545d576040805160e560020a62461bcd02815260206004820152602160248201527f52454749535452595f494e434f4e53495354454e545f5055424b4559535f4c4560448201527f4e00000000000000000000000000000000000000000000000000000000000000606482015290519081900360840190fd5b845161547090606063ffffffff61576316565b156154c5576040805160e560020a62461bcd02815260206004820152601d60248201527f52454749535452595f494e434f4e53495354454e545f5349475f4c454e000000604482015290519081900360640190fd5b85516154d890603063ffffffff61412516565b85519094506154ee90606063ffffffff61412516565b8414615544576040805160e560020a62461bcd02815260206004820152601f60248201527f52454749535452595f494e434f4e53495354454e545f5349475f434f554e5400604482015290519081900360640190fd5b600092505b83831015615588576155608660308502603061501d565b91506155718560608502606061501d565b905061557d8282615800565b826001019250615549565b6040805160008051602061605b8339815191528152905190819003601d0190206155e7906155bb90869061104590613ff6565b6040805160008051602061605b8339815191528152905190819003601d0190209063ffffffff6137ad16565b615600846801bc16d674ec80000063ffffffff61407a16565b96505b505050505050919050565b604080517f6c69646f2e4c69646f2e62756666657265644574686572000000000000000000815290519081900360170190206156539061105190839061470490613ff6565b6040805182815290517f76a397bea5768d4fca97ef47792796e35f98dc81b16c1de84e28a818e1f971089181900360200190a150565b6000806000806040516020818751602089018a5afa925060008311156156ae57805191505b50909590945092505050565b6000806040516020818551602087016000895af160008111156156fe573d80156156eb57602081146156f4576156fc565b600193506156fc565b600183511493505b505b5090949350505050565b60408051600280825260608083018452926020830190803883390190505090508281600081518110151561573857fe5b60209081029091010152805182908290600190811061575357fe5b6020908102909101015292915050565b60408051808201909152600d81527f4d4154485f4449565f5a45524f0000000000000000000000000000000000000060208201526000908215156157ec5760405160e560020a62461bcd028152600401808060200182810382528381815181526020019150805190602001908083836000838110156112a657818101518382015260200161128e565b5081838115156157f857fe5b069392505050565b6000806000806000806000615813611b0a565b965086151561586c576040805160e560020a62461bcd02815260206004820152601c60248201527f454d5054595f5749544844524157414c5f43524544454e5449414c5300000000604482015290519081900360640190fd5b6801bc16d674ec800000955061588c86633b9aca0063ffffffff61412516565b9450856158a386633b9aca0063ffffffff61407a16565b146158aa57fe5b60026158b58a614578565b6040518082805190602001908083835b602083106158e45780518252601f1990920191602091820191016158c5565b51815160209384036101000a600019018019909216911617905260405191909301945091925050808303816000865af1158015615925573d6000803e3d6000fd5b5050506040513d602081101561593a57600080fd5b5051935060028061594e8a6000604061501d565b6040518082805190602001908083835b6020831061597d5780518252601f19909201916020918201910161595e565b51815160209384036101000a600019018019909216911617905260405191909301945091925050808303816000865af11580156159be573d6000803e3d6000fd5b5050506040513d60208110156159d357600080fd5b505160026159f66159f18c604061460360608263ffffffff61427916565b614578565b6040518082805190602001908083835b60208310615a255780518252601f199092019160209182019101615a06565b51815160209384036101000a600019018019909216911617905260405191909301945091925050808303816000865af1158015615a66573d6000803e3d6000fd5b5050506040513d6020811015615a7b57600080fd5b5051604080516020818101949094528082019290925280518083038201815260609092019081905281519192909182918401908083835b60208310615ad15780518252601f199092019160209182019101615ab2565b51815160209384036101000a600019018019909216911617905260405191909301945091925050808303816000865af1158015615b12573d6000803e3d6000fd5b5050506040513d6020811015615b2757600080fd5b50516040805160208181018890528183018b905282518083038401815260609092019283905281519396506002938493918291908401908083835b60208310615b815780518252601f199092019160209182019101615b62565b51815160209384036101000a600019018019909216911617905260405191909301945091925050808303816000865af1158015615bc2573d6000803e3d6000fd5b5050506040513d6020811015615bd757600080fd5b50516002615be48861453c565b60408051602080820193909352808201899052815180820383018152606090910191829052805190928291908401908083835b60208310615c365780518252601f199092019160209182019101615c17565b51815160209384036101000a600019018019909216911617905260405191909301945091925050808303816000865af1158015615c77573d6000803e3d6000fd5b5050506040513d6020811015615c8c57600080fd5b5051604080516020818101949094528082019290925280518083038201815260609092019081905281519192909182918401908083835b60208310615ce25780518252601f199092019160209182019101615cc3565b51815160209384036101000a600019018019909216911617905260405191909301945091925050808303816000865af1158015615d23573d6000803e3d6000fd5b5050506040513d6020811015615d3857600080fd5b50519150615d4d30318763ffffffff61427916565b9050615d57612ddd565b600160a060020a03166322895118878b8a6040516020018082600019166000191681526020019150506040516020818303038152906040528c876040518663ffffffff1660e01b8152600401808060200180602001806020018560001916600019168152602001848103845288818151815260200191508051906020019080838360005b83811015615df3578181015183820152602001615ddb565b50505050905090810190601f168015615e205780820380516001836020036101000a031916815260200191505b50848103835287518152875160209182019189019080838360005b83811015615e53578181015183820152602001615e3b565b50505050905090810190601f168015615e805780820380516001836020036101000a031916815260200191505b50848103825286518152865160209182019188019080838360005b83811015615eb3578181015183820152602001615e9b565b50505050905090810190601f168015615ee05780820380516001836020036101000a031916815260200191505b509750505050505050506000604051808303818588803b158015615f0357600080fd5b505af1158015615f17573d6000803e3d6000fd5b5050505030318214905061206f576040805160e560020a62461bcd02815260206004820152601b60248201527f455850454354494e475f4445504f5349545f544f5f48415050454e0000000000604482015290519081900360640190fd5b60408051608081018252600080825260208201819052918101829052606081019190915290565b604051604f80615fac8339019056006080604052348015600f57600080fd5b50603280601d6000396000f30060806040520000a165627a7a72305820fa63417e383db3113e2f6e0ab4a10af0318d3a5f301b9453df48438a541c853300296c69646f2e4c69646f2e7374616b654c696d69740000000000000000000000006c69646f2e4c69646f2e626561636f6e42616c616e63650000000000000000006c69646f2e5061757361626c652e616374697665466c616700000000000000006c69646f2e4c69646f2e6465706f736974656456616c696461746f7273000000434f4e54524143545f49535f53544f50504544000000000000000000000000005354414b494e475f434f4e54524f4c5f524f4c450000000000000000000000006c69646f2e4c69646f2e626561636f6e56616c696461746f7273000000000000a165627a7a723058206a4bc33f66027693805baf5dfccd87d488dfd80d50181380bc44fcfea22be4f40029ebb05b386a8d34882b8711d156f463690983dc47815980fb82aeeff1aa43579e",
    "linkReferences": {}
  },
  "methodIdentifiers": {
    "BURN_ROLE()": "b930908f",
    "DEPOSIT_ROLE()": "353efdcf",
    "DEPOSIT_SIZE()": "36bf3325",
    "MANAGE_FEE()": "9aaa2d15",
    "MANAGE_PROTOCOL_CONTRACTS_ROLE()": "7f6fdac7",
    "MANAGE_WITHDRAWAL_KEY()": "435721da",
    "PAUSE_ROLE()": "389ed267",
    "PUBKEY_LENGTH()": "a4d55d1d",
    "RESUME_ROLE()": "2de03aa1",
    "SET_EL_REWARDS_VAULT_ROLE()": "a6426f5f",
    "SET_EL_REWARDS_WITHDRAWAL_LIMIT_ROLE()": "6bb98ad3",
    "SIGNATURE_LENGTH()": "540bc5ea",
    "STAKING_CONTROL_ROLE()": "136dd43c",
    "STAKING_PAUSE_ROLE()": "eb85262f",
    "WITHDRAWAL_CREDENTIALS_LENGTH()": "a30448c0",
    "allowRecoverability(address)": "7e7db6e1",
    "allowance(address,address)": "dd62ed3e",
    "appId()": "80afdea8",
    "approve(address,uint256)": "095ea7b3",
    "balanceOf(address)": "70a08231",
    "burnShares(address,uint256)": "ee7a7c04",
    "canPerform(address,bytes32,uint256[])": "a1658fad",
    "decimals()": "313ce567",
    "decreaseAllowance(address,uint256)": "a457c2d7",
    "depositBufferedEther()": "ecc1dcfb",
    "depositBufferedEther(uint256)": "90adc83b",
    "getBeaconStat()": "ae2e3538",
    "getBufferedEther()": "47b714e0",
    "getCurrentStakeLimit()": "609c4c6c",
    "getDepositContract()": "ab94276a",
    "getELRewardsVault()": "706aa30d",
    "getELRewardsWithdrawalLimit()": "52b3af93",
    "getEVMScriptExecutor(bytes)": "2914b9bd",
    "getEVMScriptRegistry()": "a479e508",
    "getFee()": "ced72f87",
    "getFeeDistribution()": "752f77f1",
    "getInitializationBlock()": "8b3dd749",
    "getInsuranceFund()": "158626f7",
    "getOperators()": "27a099d8",
    "getOracle()": "833b1fce",
    "getPooledEthByShares(uint256)": "7a28fb88",
    "getRecoveryVault()": "32f0a3b5",
    "getSharesByPooledEth(uint256)": "19208451",
    "getStakeLimitFullInfo()": "665b4b0b",
    "getTotalELRewardsCollected()": "fa64ebac",
    "getTotalPooledEther()": "37cfdaca",
    "getTotalShares()": "d5002f2e",
    "getTreasury()": "3b19e84a",
    "getUnaccountedEther()": "383d8556",
    "getWithdrawalCredentials()": "56396715",
    "handleOracleReport(uint256,uint256)": "64f9991a",
    "hasInitialized()": "0803fac0",
    "increaseAllowance(address,uint256)": "39509351",
    "initialize(address,address,address)": "c0c53b8b",
    "initialize(address,address,address,address,address)": "1459457a",
    "isPetrified()": "de4796ed",
    "isStakingPaused()": "1ea7ca89",
    "isStopped()": "3f683b6a",
    "kernel()": "d4aae0c4",
    "makeUnaccountedEther()": "8d7a087a",
    "name()": "06fdde03",
    "pad64(bytes)": "4b6d9cc0",
    "pauseStaking()": "f999c506",
    "receiveELRewards()": "4ad509b2",
    "removeStakingLimit()": "b3320d9a",
    "resume()": "046f7da2",
    "resumeProtocolAndStaking()": "f9f9e2a3",
    "resumeStaking()": "7475f913",
    "setELRewardsVault(address)": "7e4193c6",
    "setELRewardsWithdrawalLimit(uint16)": "63c2eb53",
    "setFee(uint16)": "8e005553",
    "setFeeDistribution(uint16,uint16,uint16)": "8cef3612",
    "setProtocolContracts(address,address,address)": "e73f4529",
    "setStakingLimit(uint256,uint256)": "2cb5f784",
    "setWithdrawalCredentials(bytes32)": "e97ee8cc",
    "sharesOf(address)": "f5eb42dc",
    "stop()": "07da68f5",
    "submit(address)": "a1903eab",
    "symbol()": "95d89b41",
    "toLittleEndian64(uint256)": "3f59a674",
    "totalSupply()": "18160ddd",
    "transfer(address,uint256)": "a9059cbb",
    "transferFrom(address,address,uint256)": "23b872dd",
    "transferShares(address,uint256)": "8fcb4e5b",
    "transferToVault(address)": "9d4941d8"
  },
  "storageLayout": {
    "storage": [],
    "types": {}
  },
  "id": 25
}