{
  "abi": [
    {
      "constant": true,
      "inputs": [],
      "name": "totalSupply",
      "outputs": [
        {
          "name": "",
          "type": "uint256"
        }
      ],
      "payable": false,
      "stateMutability": "view",
      "type": "function"
    },
    {
      "constant": false,
      "inputs": [
        {
          "name": "_val",
          "type": "uint256"
        }
      ],
      "name": "pretendTotalPooledEtherGweiForTest",
      "outputs": [],
      "payable": false,
      "stateMutability": "nonpayable",
      "type": "function"
    },
    {
      "constant": false,
      "inputs": [
        {
          "name": "",
          "type": "uint256"
        },
        {
          "name": "_beaconBalance",
          "type": "uint256"
        }
      ],
      "name": "handleOracleReport",
      "outputs": [],
      "payable": false,
      "stateMutability": "nonpayable",
      "type": "function"
    },
    {
      "constant": true,
      "inputs": [],
      "name": "getTotalShares",
      "outputs": [
        {
          "name": "",
          "type": "uint256"
        }
      ],
      "payable": false,
      "stateMutability": "view",
      "type": "function"
    }
  ],
  "bytecode": {
    "object": "0x608060405234801561001057600080fd5b5060f28061001f6000396000f30060806040526004361060405760003560e01c63ffffffff16806318160ddd1460455780635b59a78914606957806364f9991a146080578063d5002f2e146098575b600080fd5b348015605057600080fd5b50605760aa565b60408051918252519081900360200190f35b348015607457600080fd5b50607e60043560b0565b005b348015608b57600080fd5b50607e60043560243560bb565b34801560a357600080fd5b50605760c1565b60005490565b633b9aca0002600055565b60005550565b602a905600a165627a7a7230582075c664b8df8be4e8a9e4f8f90bf6e6769dde42c9515de3930dcebce4f32f6fb30029",
    "linkReferences": {}
  },
  "methodIdentifiers": {
    "getTotalShares()": "d5002f2e",
    "handleOracleReport(uint256,uint256)": "64f9991a",
    "pretendTotalPooledEtherGweiForTest(uint256)": "5b59a789",
    "totalSupply()": "18160ddd"
  },
  "storageLayout": {
    "storage": [],
    "types": {}
  },
  "id": 26
}