{
  "abi": [
    {
      "constant": true,
      "inputs": [],
      "name": "getCurrentOraclesReportStatus",
      "outputs": [
        {
          "name": "",
          "type": "uint256"
        }
      ],
      "payable": false,
      "stateMutability": "view",
      "type": "function"
    },
    {
      "constant": false,
      "inputs": [
        {
          "name": "_value",
          "type": "uint256"
        }
      ],
      "name": "setAllowedBeaconBalanceAnnualRelativeIncrease",
      "outputs": [],
      "payable": false,
      "stateMutability": "nonpayable",
      "type": "function"
    },
    {
      "constant": true,
      "inputs": [],
      "name": "hasInitialized",
      "outputs": [
        {
          "name": "",
          "type": "bool"
        }
      ],
      "payable": false,
      "stateMutability": "view",
      "type": "function"
    },
    {
      "constant": true,
      "inputs": [],
      "name": "getVersion",
      "outputs": [
        {
          "name": "",
          "type": "uint256"
        }
      ],
      "payable": false,
      "stateMutability": "view",
      "type": "function"
    },
    {
      "constant": true,
      "inputs": [
        {
          "name": "_script",
          "type": "bytes"
        }
      ],
      "name": "getEVMScriptExecutor",
      "outputs": [
        {
          "name": "",
          "type": "address"
        }
      ],
      "payable": false,
      "stateMutability": "view",
      "type": "function"
    },
    {
      "constant": true,
      "inputs": [],
      "name": "MANAGE_QUORUM",
      "outputs": [
        {
          "name": "",
          "type": "bytes32"
        }
      ],
      "payable": false,
      "stateMutability": "view",
      "type": "function"
    },
    {
      "constant": false,
      "inputs": [
        {
          "name": "_epochId",
          "type": "uint256"
        },
        {
          "name": "_beaconBalance",
          "type": "uint64"
        },
        {
          "name": "_beaconValidators",
          "type": "uint32"
        }
      ],
      "name": "reportBeacon",
      "outputs": [],
      "payable": false,
      "stateMutability": "nonpayable",
      "type": "function"
    },
    {
      "constant": true,
      "inputs": [],
      "name": "getRecoveryVault",
      "outputs": [
        {
          "name": "",
          "type": "address"
        }
      ],
      "payable": false,
      "stateMutability": "view",
      "type": "function"
    },
    {
      "constant": true,
      "inputs": [],
      "name": "getAllowedBeaconBalanceAnnualRelativeIncrease",
      "outputs": [
        {
          "name": "",
          "type": "uint256"
        }
      ],
      "payable": false,
      "stateMutability": "view",
      "type": "function"
    },
    {
      "constant": true,
      "inputs": [],
      "name": "getAllowedBeaconBalanceRelativeDecrease",
      "outputs": [
        {
          "name": "",
          "type": "uint256"
        }
      ],
      "payable": false,
      "stateMutability": "view",
      "type": "function"
    },
    {
      "constant": true,
      "inputs": [],
      "name": "getExpectedEpochId",
      "outputs": [
        {
          "name": "",
          "type": "uint256"
        }
      ],
      "payable": false,
      "stateMutability": "view",
      "type": "function"
    },
    {
      "constant": true,
      "inputs": [],
      "name": "getLastCompletedReportDelta",
      "outputs": [
        {
          "name": "postTotalPooledEther",
          "type": "uint256"
        },
        {
          "name": "preTotalPooledEther",
          "type": "uint256"
        },
        {
          "name": "timeElapsed",
          "type": "uint256"
        }
      ],
      "payable": false,
      "stateMutability": "view",
      "type": "function"
    },
    {
      "constant": false,
      "inputs": [
        {
          "name": "_lido",
          "type": "address"
        },
        {
          "name": "_epochsPerFrame",
          "type": "uint64"
        },
        {
          "name": "_slotsPerEpoch",
          "type": "uint64"
        },
        {
          "name": "_secondsPerSlot",
          "type": "uint64"
        },
        {
          "name": "_genesisTime",
          "type": "uint64"
        },
        {
          "name": "_allowedBeaconBalanceAnnualRelativeIncrease",
          "type": "uint256"
        },
        {
          "name": "_allowedBeaconBalanceRelativeDecrease",
          "type": "uint256"
        }
      ],
      "name": "initialize",
      "outputs": [],
      "payable": false,
      "stateMutability": "nonpayable",
      "type": "function"
    },
    {
      "constant": true,
      "inputs": [],
      "name": "getLido",
      "outputs": [
        {
          "name": "",
          "type": "address"
        }
      ],
      "payable": false,
      "stateMutability": "view",
      "type": "function"
    },
    {
      "constant": true,
      "inputs": [],
      "name": "SET_BEACON_REPORT_RECEIVER",
      "outputs": [
        {
          "name": "",
          "type": "bytes32"
        }
      ],
      "payable": false,
      "stateMutability": "view",
      "type": "function"
    },
    {
      "constant": false,
      "inputs": [],
      "name": "finalizeUpgrade_v3",
      "outputs": [],
      "payable": false,
      "stateMutability": "nonpayable",
      "type": "function"
    },
    {
      "constant": true,
      "inputs": [],
      "name": "MANAGE_MEMBERS",
      "outputs": [
        {
          "name": "",
          "type": "bytes32"
        }
      ],
      "payable": false,
      "stateMutability": "view",
      "type": "function"
    },
    {
      "constant": true,
      "inputs": [],
      "name": "getCurrentFrame",
      "outputs": [
        {
          "name": "frameEpochId",
          "type": "uint256"
        },
        {
          "name": "frameStartTime",
          "type": "uint256"
        },
        {
          "name": "frameEndTime",
          "type": "uint256"
        }
      ],
      "payable": false,
      "stateMutability": "view",
      "type": "function"
    },
    {
      "constant": true,
      "inputs": [
        {
          "name": "token",
          "type": "address"
        }
      ],
      "name": "allowRecoverability",
      "outputs": [
        {
          "name": "",
          "type": "bool"
        }
      ],
      "payable": false,
      "stateMutability": "view",
      "type": "function"
    },
    {
      "constant": true,
      "inputs": [
        {
          "name": "_index",
          "type": "uint256"
        }
      ],
      "name": "getCurrentReportVariant",
      "outputs": [
        {
          "name": "beaconBalance",
          "type": "uint64"
        },
        {
          "name": "beaconValidators",
          "type": "uint32"
        },
        {
          "name": "count",
          "type": "uint16"
        }
      ],
      "payable": false,
      "stateMutability": "view",
      "type": "function"
    },
    {
      "constant": true,
      "inputs": [],
      "name": "appId",
      "outputs": [
        {
          "name": "",
          "type": "bytes32"
        }
      ],
      "payable": false,
      "stateMutability": "view",
      "type": "function"
    },
    {
      "constant": true,
      "inputs": [],
      "name": "getLastCompletedEpochId",
      "outputs": [
        {
          "name": "",
          "type": "uint256"
        }
      ],
      "payable": false,
      "stateMutability": "view",
      "type": "function"
    },
    {
      "constant": true,
      "inputs": [],
      "name": "getInitializationBlock",
      "outputs": [
        {
          "name": "",
          "type": "uint256"
        }
      ],
      "payable": false,
      "stateMutability": "view",
      "type": "function"
    },
    {
      "constant": false,
      "inputs": [
        {
          "name": "_addr",
          "type": "address"
        }
      ],
      "name": "setBeaconReportReceiver",
      "outputs": [],
      "payable": false,
      "stateMutability": "nonpayable",
      "type": "function"
    },
    {
      "constant": false,
      "inputs": [
        {
          "name": "_token",
          "type": "address"
        }
      ],
      "name": "transferToVault",
      "outputs": [],
      "payable": false,
      "stateMutability": "nonpayable",
      "type": "function"
    },
    {
      "constant": true,
      "inputs": [],
      "name": "SET_BEACON_SPEC",
      "outputs": [
        {
          "name": "",
          "type": "bytes32"
        }
      ],
      "payable": false,
      "stateMutability": "view",
      "type": "function"
    },
    {
      "constant": true,
      "inputs": [
        {
          "name": "_sender",
          "type": "address"
        },
        {
          "name": "_role",
          "type": "bytes32"
        },
        {
          "name": "_params",
          "type": "uint256[]"
        }
      ],
      "name": "canPerform",
      "outputs": [
        {
          "name": "",
          "type": "bool"
        }
      ],
      "payable": false,
      "stateMutability": "view",
      "type": "function"
    },
    {
      "constant": true,
      "inputs": [],
      "name": "getCurrentEpochId",
      "outputs": [
        {
          "name": "",
          "type": "uint256"
        }
      ],
      "payable": false,
      "stateMutability": "view",
      "type": "function"
    },
    {
      "constant": true,
      "inputs": [],
      "name": "getEVMScriptRegistry",
      "outputs": [
        {
          "name": "",
          "type": "address"
        }
      ],
      "payable": false,
      "stateMutability": "view",
      "type": "function"
    },
    {
      "constant": false,
      "inputs": [
        {
          "name": "_member",
          "type": "address"
        }
      ],
      "name": "addOracleMember",
      "outputs": [],
      "payable": false,
      "stateMutability": "nonpayable",
      "type": "function"
    },
    {
      "constant": true,
      "inputs": [],
      "name": "getBeaconReportReceiver",
      "outputs": [
        {
          "name": "",
          "type": "address"
        }
      ],
      "payable": false,
      "stateMutability": "view",
      "type": "function"
    },
    {
      "constant": true,
      "inputs": [],
      "name": "SET_REPORT_BOUNDARIES",
      "outputs": [
        {
          "name": "",
          "type": "bytes32"
        }
      ],
      "payable": false,
      "stateMutability": "view",
      "type": "function"
    },
    {
      "constant": false,
      "inputs": [
        {
          "name": "_quorum",
          "type": "uint256"
        }
      ],
      "name": "setQuorum",
      "outputs": [],
      "payable": false,
      "stateMutability": "nonpayable",
      "type": "function"
    },
    {
      "constant": true,
      "inputs": [],
      "name": "getQuorum",
      "outputs": [
        {
          "name": "",
          "type": "uint256"
        }
      ],
      "payable": false,
      "stateMutability": "view",
      "type": "function"
    },
    {
      "constant": true,
      "inputs": [],
      "name": "kernel",
      "outputs": [
        {
          "name": "",
          "type": "address"
        }
      ],
      "payable": false,
      "stateMutability": "view",
      "type": "function"
    },
    {
      "constant": true,
      "inputs": [],
      "name": "getOracleMembers",
      "outputs": [
        {
          "name": "",
          "type": "address[]"
        }
      ],
      "payable": false,
      "stateMutability": "view",
      "type": "function"
    },
    {
      "constant": true,
      "inputs": [],
      "name": "isPetrified",
      "outputs": [
        {
          "name": "",
          "type": "bool"
        }
      ],
      "payable": false,
      "stateMutability": "view",
      "type": "function"
    },
    {
      "constant": false,
      "inputs": [
        {
          "name": "_value",
          "type": "uint256"
        }
      ],
      "name": "setAllowedBeaconBalanceRelativeDecrease",
      "outputs": [],
      "payable": false,
      "stateMutability": "nonpayable",
      "type": "function"
    },
    {
      "constant": true,
      "inputs": [],
      "name": "getBeaconSpec",
      "outputs": [
        {
          "name": "epochsPerFrame",
          "type": "uint64"
        },
        {
          "name": "slotsPerEpoch",
          "type": "uint64"
        },
        {
          "name": "secondsPerSlot",
          "type": "uint64"
        },
        {
          "name": "genesisTime",
          "type": "uint64"
        }
      ],
      "payable": false,
      "stateMutability": "view",
      "type": "function"
    },
    {
      "constant": false,
      "inputs": [
        {
          "name": "_epochsPerFrame",
          "type": "uint64"
        },
        {
          "name": "_slotsPerEpoch",
          "type": "uint64"
        },
        {
          "name": "_secondsPerSlot",
          "type": "uint64"
        },
        {
          "name": "_genesisTime",
          "type": "uint64"
        }
      ],
      "name": "setBeaconSpec",
      "outputs": [],
      "payable": false,
      "stateMutability": "nonpayable",
      "type": "function"
    },
    {
      "constant": true,
      "inputs": [],
      "name": "MAX_MEMBERS",
      "outputs": [
        {
          "name": "",
          "type": "uint256"
        }
      ],
      "payable": false,
      "stateMutability": "view",
      "type": "function"
    },
    {
      "constant": true,
      "inputs": [],
      "name": "getCurrentReportVariantsSize",
      "outputs": [
        {
          "name": "",
          "type": "uint256"
        }
      ],
      "payable": false,
      "stateMutability": "view",
      "type": "function"
    },
    {
      "constant": false,
      "inputs": [
        {
          "name": "_member",
          "type": "address"
        }
      ],
      "name": "removeOracleMember",
      "outputs": [],
      "payable": false,
      "stateMutability": "nonpayable",
      "type": "function"
    },
    {
      "anonymous": false,
      "inputs": [
        {
          "indexed": true,
          "name": "executor",
          "type": "address"
        },
        {
          "indexed": false,
          "name": "script",
          "type": "bytes"
        },
        {
          "indexed": false,
          "name": "input",
          "type": "bytes"
        },
        {
          "indexed": false,
          "name": "returnData",
          "type": "bytes"
        }
      ],
      "name": "ScriptResult",
      "type": "event"
    },
    {
      "anonymous": false,
      "inputs": [
        {
          "indexed": true,
          "name": "vault",
          "type": "address"
        },
        {
          "indexed": true,
          "name": "token",
          "type": "address"
        },
        {
          "indexed": false,
          "name": "amount",
          "type": "uint256"
        }
      ],
      "name": "RecoverToVault",
      "type": "event"
    },
    {
      "anonymous": false,
      "inputs": [
        {
          "indexed": false,
          "name": "value",
          "type": "uint256"
        }
      ],
      "name": "AllowedBeaconBalanceAnnualRelativeIncreaseSet",
      "type": "event"
    },
    {
      "anonymous": false,
      "inputs": [
        {
          "indexed": false,
          "name": "value",
          "type": "uint256"
        }
      ],
      "name": "AllowedBeaconBalanceRelativeDecreaseSet",
      "type": "event"
    },
    {
      "anonymous": false,
      "inputs": [
        {
          "indexed": false,
          "name": "callback",
          "type": "address"
        }
      ],
      "name": "BeaconReportReceiverSet",
      "type": "event"
    },
    {
      "anonymous": false,
      "inputs": [
        {
          "indexed": false,
          "name": "member",
          "type": "address"
        }
      ],
      "name": "MemberAdded",
      "type": "event"
    },
    {
      "anonymous": false,
      "inputs": [
        {
          "indexed": false,
          "name": "member",
          "type": "address"
        }
      ],
      "name": "MemberRemoved",
      "type": "event"
    },
    {
      "anonymous": false,
      "inputs": [
        {
          "indexed": false,
          "name": "quorum",
          "type": "uint256"
        }
      ],
      "name": "QuorumChanged",
      "type": "event"
    },
    {
      "anonymous": false,
      "inputs": [
        {
          "indexed": false,
          "name": "epochId",
          "type": "uint256"
        }
      ],
      "name": "ExpectedEpochIdUpdated",
      "type": "event"
    },
    {
      "anonymous": false,
      "inputs": [
        {
          "indexed": false,
          "name": "epochsPerFrame",
          "type": "uint64"
        },
        {
          "indexed": false,
          "name": "slotsPerEpoch",
          "type": "uint64"
        },
        {
          "indexed": false,
          "name": "secondsPerSlot",
          "type": "uint64"
        },
        {
          "indexed": false,
          "name": "genesisTime",
          "type": "uint64"
        }
      ],
      "name": "BeaconSpecSet",
      "type": "event"
    },
    {
      "anonymous": false,
      "inputs": [
        {
          "indexed": false,
          "name": "epochId",
          "type": "uint256"
        },
        {
          "indexed": false,
          "name": "beaconBalance",
          "type": "uint128"
        },
        {
          "indexed": false,
          "name": "beaconValidators",
          "type": "uint128"
        },
        {
          "indexed": false,
          "name": "caller",
          "type": "address"
        }
      ],
      "name": "BeaconReported",
      "type": "event"
    },
    {
      "anonymous": false,
      "inputs": [
        {
          "indexed": false,
          "name": "epochId",
          "type": "uint256"
        },
        {
          "indexed": false,
          "name": "beaconBalance",
          "type": "uint128"
        },
        {
          "indexed": false,
          "name": "beaconValidators",
          "type": "uint128"
        }
      ],
      "name": "Completed",
      "type": "event"
    },
    {
      "anonymous": false,
      "inputs": [
        {
          "indexed": false,
          "name": "postTotalPooledEther",
          "type": "uint256"
        },
        {
          "indexed": false,
          "name": "preTotalPooledEther",
          "type": "uint256"
        },
        {
          "indexed": false,
          "name": "timeElapsed",
          "type": "uint256"
        },
        {
          "indexed": false,
          "name": "totalShares",
          "type": "uint256"
        }
      ],
      "name": "PostTotalShares",
      "type": "event"
    },
    {
      "anonymous": false,
      "inputs": [
        {
          "indexed": false,
          "name": "version",
          "type": "uint256"
        }
      ],
      "name": "ContractVersionSet",
      "type": "event"
    }
  ],
  "bytecode": {
    "object": "0x6080604052620000146200001a60201b60201c565b62000231565b6200002a6200011c60201b60201c565b60408051808201909152601881527f494e49545f414c52454144595f494e495449414c495a454400000000000000006020820152901562000106576040517f08c379a00000000000000000000000000000000000000000000000000000000081526004018080602001828103825283818151815260200191508051906020019080838360005b83811015620000ca578181015183820152602001620000b0565b50505050905090810190601f168015620000f85780820380516001836020036101000a031916815260200191505b509250505060405180910390fd5b506200011a6000196200014f60201b60201c565b565b60006200014a600080516020620038f783398151915260001b600019166200022960201b620024b81760201c565b905090565b6200015f6200011c60201b60201c565b60408051808201909152601881527f494e49545f414c52454144595f494e495449414c495a4544000000000000000060208201529015620001fe576040517f08c379a000000000000000000000000000000000000000000000000000000000815260040180806020018281038252838181518152602001915080519060200190808383600083811015620000ca578181015183820152602001620000b0565b5062000226600080516020620038f7833981519152826200022d602090811b620024bc17901c565b50565b5490565b9055565b6136b680620002416000396000f3006080604052600436106101f25760003560e01c63ffffffff16806303cda963146101f75780630719d5311461021e5780630803fac0146102385780630d8e6e2c146102615780632914b9bd146102765780632fa689bb146102eb57806331f208b31461030057806332f0a3b51461032e57806343125b021461034357806343d21789146103585780634b47b74f1461036d578063534649c41461038257806359ae8e9e146103b55780636a516b47146103fb5780636b788573146104105780636d395b7e146104255780636e93beb81461043a57806372f79b131461044f5780637e7db6e1146104645780637ffb14721461048557806380afdea8146104cf57806389896aef146104e45780638b3dd749146104f95780639a3cb2ca1461050e5780639d4941d81461052f578063a01f048614610550578063a1658fad14610565578063a29a839f146105cc578063a479e508146105e1578063b164e437146105f6578063b248060314610617578063b97d55961461062c578063c1ba4e5914610641578063c26c12eb14610659578063d4aae0c41461066e578063dabb575714610683578063de4796ed146106e8578063de50700f146106fd578063e547c77c14610715578063e90b2da11461075f578063ea0e35b114610793578063ed9767d9146107a8578063f98fae81146107bd575b600080fd5b34801561020357600080fd5b5061020c6107de565b60408051918252519081900360200190f35b34801561022a57600080fd5b506102366004356107fd565b005b34801561024457600080fd5b5061024d610945565b604080519115158252519081900360200190f35b34801561026d57600080fd5b5061020c61096f565b34801561028257600080fd5b506040805160206004803580820135601f81018490048402850184019095528484526102cf9436949293602493928401919081908401838280828437509497506109889650505050505050565b60408051600160a060020a039092168252519081900360200190f35b3480156102f757600080fd5b5061020c610a6b565b34801561030c57600080fd5b5061023660043567ffffffffffffffff6024351663ffffffff60443516610a8f565b34801561033a57600080fd5b506102cf610e3d565b34801561034f57600080fd5b5061020c610eb2565b34801561036457600080fd5b5061020c610ecb565b34801561037957600080fd5b5061020c610ee4565b34801561038e57600080fd5b50610397610efd565b60408051938452602084019290925282820152519081900360600190f35b3480156103c157600080fd5b50610236600160a060020a036004351667ffffffffffffffff6024358116906044358116906064358116906084351660a43560c435610f87565b34801561040757600080fd5b506102cf61124d565b34801561041c57600080fd5b5061020c611278565b34801561043157600080fd5b5061023661129c565b34801561044657600080fd5b5061020c611314565b34801561045b57600080fd5b50610397611338565b34801561047057600080fd5b5061024d600160a060020a03600435166113cb565b34801561049157600080fd5b5061049d6004356113d1565b6040805167ffffffffffffffff909416845263ffffffff909216602084015261ffff1682820152519081900360600190f35b3480156104db57600080fd5b5061020c611405565b3480156104f057600080fd5b5061020c611430565b34801561050557600080fd5b5061020c61145b565b34801561051a57600080fd5b50610236600160a060020a0360043516611486565b34801561053b57600080fd5b50610236600160a060020a0360043516611653565b34801561055c57600080fd5b5061020c6118e2565b34801561057157600080fd5b50604080516020600460443581810135838102808601850190965280855261024d958335600160a060020a03169560248035963696956064959394920192918291850190849080828437509497506119069650505050505050565b3480156105d857600080fd5b5061020c611a53565b3480156105ed57600080fd5b506102cf611a70565b34801561060257600080fd5b50610236600160a060020a0360043516611b25565b34801561062357600080fd5b506102cf611d85565b34801561063857600080fd5b5061020c611db0565b34801561064d57600080fd5b50610236600435611dd4565b34801561066557600080fd5b5061020c611fdc565b34801561067a57600080fd5b506102cf611ff5565b34801561068f57600080fd5b50610698612020565b60408051602080825283518183015283519192839290830191858101910280838360005b838110156106d45781810151838201526020016106bc565b505050509050019250505060405180910390f35b3480156106f457600080fd5b5061024d612082565b34801561070957600080fd5b50610236600435612095565b34801561072157600080fd5b5061072a61219f565b6040805167ffffffffffffffff9586168152938516602085015291841683830152909216606082015290519081900360800190f35b34801561076b57600080fd5b5061023667ffffffffffffffff600435811690602435811690604435811690606435166121d6565b34801561079f57600080fd5b5061020c61229e565b3480156107b457600080fd5b5061020c6122a4565b3480156107c957600080fd5b50610236600160a060020a03600435166122aa565b60006107f760008051602061362b8339815191526124b8565b90505b90565b604080516000808252602082019092527f44adaee26c92733e57241cb0b26ffaa2d182ed7120ba3ecd7e0dce3635c01dc19161083f9133918491905b50611906565b60408051808201909152600f81526000805160206135ab83398151915260208201529015156108ef5760405160e560020a62461bcd0281526004018080602001828103825283818151815260200191508051906020019080838360005b838110156108b457818101518382015260200161089c565b50505050905090810190601f1680156108e15780820380516001836020036101000a031916815260200191505b509250505060405180910390fd5b5061090e6000805160206135eb8339815191528363ffffffff6124bc16565b6040805183815290517f15befe448b41dd28cf3e1b9db42dbb489e7bd480093345e3dbb132ab2993b5379181900360200190a15050565b60008061095061145b565b905080158015906109685750806109656124c0565b10155b91505b5090565b60006107f76000805160206135cb8339815191526124b8565b6000610992611a70565b600160a060020a03166304bf2a7f836040518263ffffffff1660e01b81526004018080602001828103825283818151815260200191508051906020019080838360005b838110156109ed5781810151838201526020016109d5565b50505050905090810190601f168015610a1a5780820380516001836020036101000a031916815260200191505b5092505050602060405180830381600087803b158015610a3957600080fd5b505af1158015610a4d573d6000803e3d6000fd5b505050506040513d6020811015610a6357600080fd5b505192915050565b7fa5ffa9f45fa52c446078e834e1914561bd9c2ab1e833572d62af775da092ccbc81565b610a9761351f565b600080600080600080600080610aab6124c4565b9850610ac460008051602061366b8339815191526124b8565b9750878c1015610b1e576040805160e560020a62461bcd02815260206004820152601060248201527f45504f43485f49535f544f4f5f4f4c4400000000000000000000000000000000604482015290519081900360640190fd5b878c1115610b9757610b38610b328a61252a565b8a612569565b8c14610b8e576040805160e560020a62461bcd02815260206004820152601060248201527f554e45585045435445445f45504f434800000000000000000000000000000000604482015290519081900360640190fd5b610b978c61258c565b604080518d81526fffffffffffffffffffffffffffffffff633b9aca0067ffffffffffffffff8f1602908116602083015263ffffffff8d168284015233606083015291519198507f23285eb039d2d2881abbf7503a6d39ac5d3113701031b3e69abcb1d2cc24266f919081900360800190a1610c123361260b565b9550600019861415610c6e576040805160e560020a62461bcd02815260206004820152601060248201527f4d454d4245525f4e4f545f464f554e4400000000000000000000000000000000604482015290519081900360640190fd5b610c8560008051602061362b8339815191526124b8565b94506001861b935083851615610ce5576040805160e560020a62461bcd02815260206004820152601160248201527f414c52454144595f5355424d4954544544000000000000000000000000000000604482015290519081900360640190fd5b610d0560008051602061362b83398151915286861763ffffffff6124bc16565b610d0f8b8b61266a565b9250610d19611fdc565b9150600090505b60015481108015610d585750610d5883600183815481101515610d3f57fe5b906000526020600020015461268790919063ffffffff16565b15610d6557600101610d20565b600154811015610ddd5781610d92600183815481101515610d8257fe5b90600052602060002001546107fa565b60010161ffff16101515610db757610db28c888c63ffffffff168c61269f565b610dd8565b6001805482908110610dc557fe5b6000918252602090912001805460010190555b610e2f565b8160011415610df857610dd88c888c63ffffffff168c61269f565b60018054808201825560008290529084017fb10e2d527612073b26eecdfd717e6a320cf44b4afac2b0732d9fcbe2b7fa0cf6909101555b505050505050505050505050565b6000610e47611ff5565b600160a060020a03166332f0a3b56040518163ffffffff1660e01b8152600401602060405180830381600087803b158015610e8157600080fd5b505af1158015610e95573d6000803e3d6000fd5b505050506040513d6020811015610eab57600080fd5b5051905090565b60006107f76000805160206135eb8339815191526124b8565b60006107f760008051602061360b8339815191526124b8565b60006107f760008051602061366b8339815191526124b8565b60008080610f2a7faa8433b13d2b111d4f84f6f374bc7acbe20794944308876aa250fa9a73dc7f536124b8565b9250610f557f1043177539af09a67d747435df3ff1155a64cd93a347daaac9132a591442d43e6124b8565b9150610f807f8fe323f4ecd3bf0497252a90142003855cc5125cee76a5b5ba5d508c7ec28c3a6124b8565b9050909192565b610f8f61351f565b6000610f9961145b565b60408051808201909152601881527f494e49545f414c52454144595f494e495449414c495a454400000000000000006020820152901561101e5760405160e560020a62461bcd028152600401808060200182810382528381815181526020019150805190602001908083836000838110156108b457818101518382015260200161089c565b506110366000805160206135cb8339815191526124b8565b1561108b576040805160e560020a62461bcd02815260206004820152601960248201527f424153455f56455253494f4e5f4d5553545f42455f5a45524f00000000000000604482015290519081900360640190fd5b61109788888888612af9565b6110c77ff6978a4f7e200f6d3a24d82d44c48bddabce399a3b8ec42a480ea8a2d5fe6ec58a63ffffffff6124bc16565b6110e660008051602061364b833981519152600163ffffffff6124bc16565b604080516001815290517f027863d12a407097e086a48e36475bfc859d0b200b7e6f65b5fd3b218e46632e9181900360200190a16111386000805160206135eb8339815191528563ffffffff6124bc16565b6040805185815290517f15befe448b41dd28cf3e1b9db42dbb489e7bd480093345e3dbb132ab2993b5379181900360200190a161118960008051602061360b8339815191528463ffffffff6124bc16565b6040805184815290517f0116349092cceaec6172fcd61b2b801a45663783c9dca24919105b66a62da84a9181900360200190a16111c46124c4565b805190925067ffffffffffffffff166111de600084612569565b0190506111ff60008051602061366b8339815191528263ffffffff6124bc16565b6040805182815290517fcdcd275f4d96ed683d684f3610a92beacdebcf1ee4d37e2df526fb9001e1ea639181900360200190a161123a612d2f565b611242612d84565b505050505050505050565b60006107f77ff6978a4f7e200f6d3a24d82d44c48bddabce399a3b8ec42a480ea8a2d5fe6ec56124b8565b7fe22a455f1bfbaf705ac3e891a64e156da92cb0b42cfc389158e6e82bd57f37be81565b6112b36000805160206135cb8339815191526124b8565b60011461130a576040805160e560020a62461bcd02815260206004820152601260248201527f57524f4e475f424153455f56455253494f4e0000000000000000000000000000604482015290519081900360640190fd5b611312612d2f565b565b7fbf6336045918ae0015f4cdb3441a2fdbfaa4bcde6558c8692aac7f56c69fb06781565b600080600061134561351f565b6000806113506124c4565b925082606001519150826020015183604001510290506113786113728461252a565b84612569565b95508167ffffffffffffffff168167ffffffffffffffff16870201945060018267ffffffffffffffff168267ffffffffffffffff16856000015167ffffffffffffffff1689010201039350505050909192565b50600190565b60008060006113f86001858154811015156113e857fe5b9060005260206000200154612e4a565b9250925092509193909250565b60006107f77fd625496217aa6a3453eecb9c3489dc5a53e6c67b444329ea2b2cbc9ff547639b6124b8565b60006107f77fdad15c0beecd15610092d84427258e369d2582df22869138b4c5265f049f574c6124b8565b60006107f77febb05b386a8d34882b8711d156f463690983dc47815980fb82aeeff1aa43579e6124b8565b604080516000808252602082019092527fe22a455f1bfbaf705ac3e891a64e156da92cb0b42cfc389158e6e82bd57f37be906114c6903390839085610839565b60408051808201909152600f81526000805160206135ab833981519152602082015290151561153a5760405160e560020a62461bcd028152600401808060200182810382528381815181526020019150805190602001908083836000838110156108b457818101518382015260200161089c565b50600160a060020a038316156115d957611583600160a060020a0384167f34212e5f0000000000000000000000000000000000000000000000000000000063ffffffff612e5916565b15156115d9576040805160e560020a62461bcd02815260206004820152601a60248201527f4241445f424541434f4e5f5245504f52545f5245434549564552000000000000604482015290519081900360640190fd5b6116127fb59039ed37776bc23c5d272e10b525a957a1dfad97f5006c84394b6b512c1564600160a060020a03851663ffffffff6124bc16565b60408051600160a060020a038516815290517f10bdb8bba3913c9e1b7ffbf8759dfcf1c355d9796d58906b147ff0b4c3e314489181900360200190a1505050565b6000806000611661846113cb565b60408051808201909152601281527f5245434f5645525f444953414c4c4f574544000000000000000000000000000060208201529015156116e75760405160e560020a62461bcd028152600401808060200182810382528381815181526020019150805190602001908083836000838110156108b457818101518382015260200161089c565b506116f0610e3d565b92506116fb83612e7c565b60408051808201909152601a81527f5245434f5645525f5641554c545f4e4f545f434f4e545241435400000000000060208201529015156117815760405160e560020a62461bcd028152600401808060200182810382528381815181526020019150805190602001908083836000838110156108b457818101518382015260200161089c565b50600160a060020a03841615156117d25760405130319250600160a060020a0384169083156108fc029084906000818181858888f193505050501580156117cc573d6000803e3d6000fd5b50611891565b50826117ed600160a060020a0382163063ffffffff612ea916565b9150611809600160a060020a038216848463ffffffff612fbe16565b60408051808201909152601d81527f5245434f5645525f544f4b454e5f5452414e534645525f4641494c4544000000602082015290151561188f5760405160e560020a62461bcd028152600401808060200182810382528381815181526020019150805190602001908083836000838110156108b457818101518382015260200161089c565b505b83600160a060020a031683600160a060020a03167f596caf56044b55fb8c4ca640089bbc2b63cae3e978b851f5745cbb7c5b288e02846040518082815260200191505060405180910390a350505050565b7f16a273d48baf8111397316e6d961e6836913acb23b181e6c5fb35ec0bd2648fc81565b600080611911610945565b15156119205760009150611a4b565b611928611ff5565b9050600160a060020a03811615156119435760009150611a4b565b80600160a060020a031663fdef910686308761195e88613049565b60405163ffffffff861660e01b8152600160a060020a03808616600483019081529085166024830152604482018490526080606483019081528351608484015283519192909160a490910190602085019080838360005b838110156119cd5781810151838201526020016119b5565b50505050905090810190601f1680156119fa5780820380516001836020036101000a031916815260200191505b5095505050505050602060405180830381600087803b158015611a1c57600080fd5b505af1158015611a30573d6000803e3d6000fd5b505050506040513d6020811015611a4657600080fd5b505191505b509392505050565b6000611a5d61351f565b611a656124c4565b90506109688161252a565b600080611a7b611ff5565b604080517fbe00bbd80000000000000000000000000000000000000000000000000000000081527fd6f028ca0e8edb4a8c9757ca4fdccab25fa1e0317da1188108f7d2dee14902fb60048201527fddbcfd564f642ab5627cf68b9b7d374fb4f8a36e941a75d89c87998cef03bd6160248201529051600160a060020a03929092169163be00bbd8916044808201926020929091908290030181600087803b158015610a3957600080fd5b604080516000808252602082019092527fbf6336045918ae0015f4cdb3441a2fdbfaa4bcde6558c8692aac7f56c69fb06791611b65913391849190610839565b60408051808201909152600f81526000805160206135ab8339815191526020820152901515611bd95760405160e560020a62461bcd028152600401808060200182810382528381815181526020019150805190602001908083836000838110156108b457818101518382015260200161089c565b50600160a060020a0382161515611c3a576040805160e560020a62461bcd02815260206004820152600c60248201527f4241445f415247554d454e540000000000000000000000000000000000000000604482015290519081900360640190fd5b611c438261260b565b60001914611c9b576040805160e560020a62461bcd02815260206004820152600d60248201527f4d454d4245525f45584953545300000000000000000000000000000000000000604482015290519081900360640190fd5b60005461010011611cf6576040805160e560020a62461bcd02815260206004820152601060248201527f544f4f5f4d414e595f4d454d4245525300000000000000000000000000000000604482015290519081900360640190fd5b600080546001810182559080527f290decd9548b62a8d60345a988386fc84ba6bc95484008f6362f93160ef3e563018054600160a060020a03841673ffffffffffffffffffffffffffffffffffffffff19909116811790915560408051918252517fb251eb052afc73ffd02ffe85ad79990a8b3fed60d76dbc2fa2fdd7123dffd9149181900360200190a15050565b60006107f77fb59039ed37776bc23c5d272e10b525a957a1dfad97f5006c84394b6b512c15646124b8565b7f44adaee26c92733e57241cb0b26ffaa2d182ed7120ba3ecd7e0dce3635c01dc181565b60008060008060007fa5ffa9f45fa52c446078e834e1914561bd9c2ab1e833572d62af775da092ccbc60001b611e35338260006040519080825280602002602001820160405280156108395781602001602082028038833901905050611906565b60408051808201909152600f81526000805160206135ab8339815191526020820152901515611ea95760405160e560020a62461bcd028152600401808060200182810382528381815181526020019150805190602001908083836000838110156108b457818101518382015260200161089c565b50861515611f01576040805160e560020a62461bcd02815260206004820152601360248201527f51554f52554d5f574f4e545f42455f4d41444500000000000000000000000000604482015290519081900360640190fd5b611f1860008051602061364b8339815191526124b8565b9550611f3860008051602061364b8339815191528863ffffffff6124bc16565b6040805188815290517f027863d12a407097e086a48e36475bfc859d0b200b7e6f65b5fd3b218e46632e9181900360200190a186861115611fd357611f7c87613053565b945094508415611fd357611f8f84613163565b9093509150611fd3611fae60008051602061366b8339815191526124b8565b8467ffffffffffffffff16633b9aca00028463ffffffff16611fce6124c4565b61269f565b50505050505050565b60006107f760008051602061364b8339815191526124b8565b60006107f77f4172f0f7d2289153072b0a6ca36959e0cbe2efc3afe50fc81636caa96338137b6124b8565b6060600080548060200260200160405190810160405280929190818152602001828054801561207857602002820191906000526020600020905b8154600160a060020a0316815260019091019060200180831161205a575b5050505050905090565b600060001961208f61145b565b14905090565b604080516000808252602082019092527f44adaee26c92733e57241cb0b26ffaa2d182ed7120ba3ecd7e0dce3635c01dc1916120d5913391849190610839565b60408051808201909152600f81526000805160206135ab83398151915260208201529015156121495760405160e560020a62461bcd028152600401808060200182810382528381815181526020019150805190602001908083836000838110156108b457818101518382015260200161089c565b5061216860008051602061360b8339815191528363ffffffff6124bc16565b6040805183815290517f0116349092cceaec6172fcd61b2b801a45663783c9dca24919105b66a62da84a9181900360200190a15050565b6000806000806121ad61351f565b6121b56124c4565b80516020820151604083015160609093015191989097509195509350915050565b604080516000808252602082019092527f16a273d48baf8111397316e6d961e6836913acb23b181e6c5fb35ec0bd2648fc91612216913391849190610839565b60408051808201909152600f81526000805160206135ab833981519152602082015290151561228a5760405160e560020a62461bcd028152600401808060200182810382528381815181526020019150805190602001908083836000838110156108b457818101518382015260200161089c565b5061229785858585612af9565b5050505050565b61010081565b60015490565b6040805160008082526020820190925281907fbf6336045918ae0015f4cdb3441a2fdbfaa4bcde6558c8692aac7f56c69fb067906122ec903390839085610839565b60408051808201909152600f81526000805160206135ab83398151915260208201529015156123605760405160e560020a62461bcd028152600401808060200182810382528381815181526020019150805190602001908083836000838110156108b457818101518382015260200161089c565b5061236a8461260b565b92506000198314156123c6576040805160e560020a62461bcd02815260206004820152601060248201527f4d454d4245525f4e4f545f464f554e4400000000000000000000000000000000604482015290519081900360640190fd5b6000546000190191508282146124375760008054839081106123e457fe5b60009182526020822001548154600160a060020a0390911691908590811061240857fe5b9060005260206000200160006101000a815481600160a060020a030219169083600160a060020a031602179055505b600080549061244a906000198301613546565b5060408051600160a060020a038616815290517f6e76fb4c77256006d9c38ec7d82b45a8c8f3c27b1d6766fffc42dfb8de6844929181900360200190a16124a660008051602061362b833981519152600063ffffffff6124bc16565b6124b26001600061356f565b50505050565b5490565b9055565b4390565b6124cc61351f565b60006124f77f805e82d53a51be3dfde7cfed901f1f96f5dad18e874708b082adb8841e8ca9096124b8565b67ffffffffffffffff60c082901c81168452608082901c81166020850152604082811c8216908501521660608301525090565b6000816040015182602001510267ffffffffffffffff16826060015167ffffffffffffffff16612558613172565b0381151561256257fe5b0492915050565b805160009067ffffffffffffffff16808481151561258357fe5b04029392505050565b6125ab60008051602061362b833981519152600063ffffffff6124bc16565b6125c960008051602061366b8339815191528263ffffffff6124bc16565b6125d56001600061356f565b6040805182815290517fcdcd275f4d96ed683d684f3610a92beacdebcf1ee4d37e2df526fb9001e1ea639181900360200190a150565b60008054815b8181101561265d5783600160a060020a031660008281548110151561263257fe5b600091825260209091200154600160a060020a0316141561265557809250612663565b600101612611565b60001992505b5050919050565b63ffffffff1660101b67ffffffffffffffff9190911660301b1790565b6dffffffffffffffffffffffff000091909116141590565b604080518581526fffffffffffffffffffffffffffffffff8086166020830152841681830152905160009182918291829182917f95423529aa0b2867e02676b0bb4766cde576fb31ea77056f683bc236c7c15f9d919081900360600190a185516127149067ffffffffffffffff168a0161258c565b61271c61124d565b945084600160a060020a03166318160ddd6040518163ffffffff1660e01b8152600401602060405180830381600087803b15801561275957600080fd5b505af115801561276d573d6000803e3d6000fd5b505050506040513d602081101561278357600080fd5b5051604080517f64f9991a0000000000000000000000000000000000000000000000000000000081526fffffffffffffffffffffffffffffffff808b1660048301528b1660248201529051919550600160a060020a038716916364f9991a9160448082019260009290919082900301818387803b15801561280357600080fd5b505af1158015612817573d6000803e3d6000fd5b5050505084600160a060020a03166318160ddd6040518163ffffffff1660e01b8152600401602060405180830381600087803b15801561285657600080fd5b505af115801561286a573d6000803e3d6000fd5b505050506040513d602081101561288057600080fd5b505192506128b47f1043177539af09a67d747435df3ff1155a64cd93a347daaac9132a591442d43e8563ffffffff6124bc16565b6128e47faa8433b13d2b111d4f84f6f374bc7acbe20794944308876aa250fa9a73dc7f538463ffffffff6124bc16565b6040860151602087015167ffffffffffffffff91821691166129257fdad15c0beecd15610092d84427258e369d2582df22869138b4c5265f049f574c6124b8565b8b030202915061295b7f8fe323f4ecd3bf0497252a90142003855cc5125cee76a5b5ba5d508c7ec28c3a8363ffffffff6124bc16565b61298b7fdad15c0beecd15610092d84427258e369d2582df22869138b4c5265f049f574c8a63ffffffff6124bc16565b612996838584613176565b7fdafd48d1eba2a416b2aca45e9ead3ad18b84e868fa6d2e1a3048bfd37ed10a3283858488600160a060020a031663d5002f2e6040518163ffffffff1660e01b8152600401602060405180830381600087803b1580156129f557600080fd5b505af1158015612a09573d6000803e3d6000fd5b505050506040513d6020811015612a1f57600080fd5b5051604080519485526020850193909352838301919091526060830152519081900360800190a1612a6f7fb59039ed37776bc23c5d272e10b525a957a1dfad97f5006c84394b6b512c15646124b8565b9050600160a060020a038116156112425780600160a060020a03166334212e5f8486856040518463ffffffff1660e01b8152600401808481526020018381526020018281526020019350505050600060405180830381600087803b158015612ad657600080fd5b505af1158015612aea573d6000803e3d6000fd5b50505050505050505050505050565b600067ffffffffffffffff85168110612b5c576040805160e560020a62461bcd02815260206004820152601460248201527f4241445f45504f4348535f5045525f4652414d45000000000000000000000000604482015290519081900360640190fd5b600067ffffffffffffffff851611612bbe576040805160e560020a62461bcd02815260206004820152601360248201527f4241445f534c4f54535f5045525f45504f434800000000000000000000000000604482015290519081900360640190fd5b600067ffffffffffffffff841611612c20576040805160e560020a62461bcd02815260206004820152601460248201527f4241445f5345434f4e44535f5045525f534c4f54000000000000000000000000604482015290519081900360640190fd5b600067ffffffffffffffff831611612c82576040805160e560020a62461bcd02815260206004820152601060248201527f4241445f47454e455349535f54494d4500000000000000000000000000000000604482015290519081900360640190fd5b5067ffffffffffffffff84811660c01b84821660801b1783821660401b1790821617612cd47f805e82d53a51be3dfde7cfed901f1f96f5dad18e874708b082adb8841e8ca9098263ffffffff6124bc16565b6040805167ffffffffffffffff80881682528087166020830152808616828401528416606082015290517fa15de8f88515e04da45ad2303c04e9f126945fd99e173d3d93ff6351e1f335ee9181900360800190a15050505050565b612d4e6000805160206135cb833981519152600363ffffffff6124bc16565b604080516003815290517ffddcded6b4f4730c226821172046b48372d3cd963c159701ae1b7c3bcac541bb9181900360200190a1565b612d8c61145b565b60408051808201909152601881527f494e49545f414c52454144595f494e495449414c495a4544000000000000000060208201529015612e115760405160e560020a62461bcd028152600401808060200182810382528381815181526020019150805190602001908083836000838110156108b457818101518382015260200161089c565b50611312612e1d6124c0565b7febb05b386a8d34882b8711d156f463690983dc47815980fb82aeeff1aa43579e9063ffffffff6124bc16565b603081901c91601082901c9190565b6000612e64836132be565b8015612e755750612e758383613320565b9392505050565b600080600160a060020a0383161515612e985760009150612ea3565b823b90506000811191505b50919050565b60408051600160a060020a0383166024808301919091528251808303909101815260449091019091526020810180517bffffffffffffffffffffffffffffffffffffffffffffffffffffffff167f70a08231000000000000000000000000000000000000000000000000000000001790526000908180612f298684613343565b60408051808201909152601c81527f534146455f4552435f32305f42414c414e43455f52455645525445440000000060208201529193509150821515612fb45760405160e560020a62461bcd028152600401808060200182810382528381815181526020019150805190602001908083836000838110156108b457818101518382015260200161089c565b5095945050505050565b60408051600160a060020a038416602482015260448082018490528251808303909101815260649091019091526020810180517bffffffffffffffffffffffffffffffffffffffffffffffffffffffff167fa9059cbb000000000000000000000000000000000000000000000000000000001790526000906130408582613374565b95945050505050565b8051602002815290565b6000806000806000806000600180549050600114156130aa578761308060016000815481101515610d8257fe5b61ffff1610156001600081548110151561309657fe5b906000526020600020015496509650613159565b60015415156130bf5760009650869550613159565b5060009350839250829150819050805b600154811015613129576130eb600182815481101515610d8257fe5b915061ffff80841690831610613121578261ffff168261ffff16141561311657836001019350613121565b809450819250600093505b6001016130cf565b878361ffff161015801561313b575083155b600180548790811061314957fe5b9060005260206000200154965096505b5050505050915091565b603081901c9160109190911c90565b4290565b60008083851061322b576131976000805160206135eb8339815191526124b8565b91506131b9836131ad848763ffffffff6133c516565b9063ffffffff6133c516565b6131d064496cebb80086880363ffffffff6133c516565b1115613226576040805160e560020a62461bcd02815260206004820152601f60248201527f414c4c4f5745445f424541434f4e5f42414c414e43455f494e43524541534500604482015290519081900360640190fd5b612297565b61324260008051602061360b8339815191526124b8565b9050613254818563ffffffff6133c516565b61326861271087870363ffffffff6133c516565b1115612297576040805160e560020a62461bcd02815260206004820152601f60248201527f414c4c4f5745445f424541434f4e5f42414c414e43455f444543524541534500604482015290519081900360640190fd5b60006132ea827f01ffc9a700000000000000000000000000000000000000000000000000000000613320565b801561331a5750613318827bffffffffffffffffffffffffffffffffffffffffffffffffffffffff19613320565b155b92915050565b600080600061332f8585613470565b915091508180156130405750949350505050565b6000806000806040516020818751602089018a5afa9250600083111561336857805191505b50909590945092505050565b6000806040516020818551602087016000895af160008111156133b8573d80156133a557602081146133ae576133b6565b600193506133b6565b600183511493505b505b50508091505b5092915050565b6000808315156133d857600091506133be565b508282028284828115156133e857fe5b60408051808201909152601181527f4d4154485f4d554c5f4f564552464c4f5700000000000000000000000000000060208201529291900414611a4b5760405160e560020a62461bcd028152600401808060200182810382528381815181526020019150805190602001908083836000838110156108b457818101518382015260200161089c565b604080517bffffffffffffffffffffffffffffffffffffffffffffffffffffffff1983166024808301919091528251808303909101815260449091018252602081810180517bffffffffffffffffffffffffffffffffffffffffffffffffffffffff167f01ffc9a700000000000000000000000000000000000000000000000000000000178152825193516000808252948594939091908183858b617530fa9051909890975095505050505050565b60408051608081018252600080825260208201819052918101829052606081019190915290565b81548183558181111561356a5760008381526020902061356a918101908301613590565b505050565b508054600082559060005260206000209081019061358d9190613590565b50565b6107fa91905b8082111561096b576000815560010161359656004150505f415554485f4641494c4544000000000000000000000000000000000075be19a3f314d89bd1f84d30a6c84e2f1cd7afc7b6ca21876564c265113bb7e4613075ab597bed8ce2e18342385ce127d3e5298bc7a84e3db68dc64abd4811ac92ba7776ed6c5d13cf023555a94e70b823a4aebd56ed522a77345ff5cd8a9109ea6fa022365e4737a3bb52facb00ddc693a656fb51ffb2b4bd24fb85bdc888bed43b42c1ba05a1ab3c178623a49b2cdb55f000ec70b9ccdba5740b3339a7589e65f1a0ee358a8a4000a59c2815dc768eb87d24146ca1ac5555cb6eb871aee915a165627a7a723058207bf054c0dc75652ca862c4aa468725327e9983cee78d7ee797e1d29f4581c0150029ebb05b386a8d34882b8711d156f463690983dc47815980fb82aeeff1aa43579e",
    "linkReferences": {}
  },
  "methodIdentifiers": {
    "MANAGE_MEMBERS()": "6e93beb8",
    "MANAGE_QUORUM()": "2fa689bb",
    "MAX_MEMBERS()": "ea0e35b1",
    "SET_BEACON_REPORT_RECEIVER()": "6b788573",
    "SET_BEACON_SPEC()": "a01f0486",
    "SET_REPORT_BOUNDARIES()": "b97d5596",
    "addOracleMember(address)": "b164e437",
    "allowRecoverability(address)": "7e7db6e1",
    "appId()": "80afdea8",
    "canPerform(address,bytes32,uint256[])": "a1658fad",
    "finalizeUpgrade_v3()": "6d395b7e",
    "getAllowedBeaconBalanceAnnualRelativeIncrease()": "43125b02",
    "getAllowedBeaconBalanceRelativeDecrease()": "43d21789",
    "getBeaconReportReceiver()": "b2480603",
    "getBeaconSpec()": "e547c77c",
    "getCurrentEpochId()": "a29a839f",
    "getCurrentFrame()": "72f79b13",
    "getCurrentOraclesReportStatus()": "03cda963",
    "getCurrentReportVariant(uint256)": "7ffb1472",
    "getCurrentReportVariantsSize()": "ed9767d9",
    "getEVMScriptExecutor(bytes)": "2914b9bd",
    "getEVMScriptRegistry()": "a479e508",
    "getExpectedEpochId()": "4b47b74f",
    "getInitializationBlock()": "8b3dd749",
    "getLastCompletedEpochId()": "89896aef",
    "getLastCompletedReportDelta()": "534649c4",
    "getLido()": "6a516b47",
    "getOracleMembers()": "dabb5757",
    "getQuorum()": "c26c12eb",
    "getRecoveryVault()": "32f0a3b5",
    "getVersion()": "0d8e6e2c",
    "hasInitialized()": "0803fac0",
    "initialize(address,uint64,uint64,uint64,uint64,uint256,uint256)": "59ae8e9e",
    "isPetrified()": "de4796ed",
    "kernel()": "d4aae0c4",
    "removeOracleMember(address)": "f98fae81",
    "reportBeacon(uint256,uint64,uint32)": "31f208b3",
    "setAllowedBeaconBalanceAnnualRelativeIncrease(uint256)": "0719d531",
    "setAllowedBeaconBalanceRelativeDecrease(uint256)": "de50700f",
    "setBeaconReportReceiver(address)": "9a3cb2ca",
    "setBeaconSpec(uint64,uint64,uint64,uint64)": "e90b2da1",
    "setQuorum(uint256)": "c1ba4e59",
    "transferToVault(address)": "9d4941d8"
  },
  "storageLayout": {
    "storage": [],
    "types": {}
  },
  "id": 16
}