{
  "abi": [
    {
      "inputs": [
        {
          "internalType": "address",
          "name": "_treasury",
          "type": "address"
        },
        {
          "internalType": "address",
          "name": "_lido",
          "type": "address"
        },
        {
          "internalType": "address",
          "name": "_voting",
          "type": "address"
        },
        {
          "internalType": "uint256",
          "name": "_totalCoverSharesBurnt",
          "type": "uint256"
        },
        {
          "internalType": "uint256",
          "name": "_totalNonCoverSharesBurnt",
          "type": "uint256"
        },
        {
          "internalType": "uint256",
          "name": "_maxBurnAmountPerRunBasisPoints",
          "type": "uint256"
        }
      ],
      "stateMutability": "nonpayable",
      "type": "constructor"
    },
    {
      "anonymous": false,
      "inputs": [
        {
          "indexed": false,
          "internalType": "uint256",
          "name": "maxBurnAmountPerRunBasisPoints",
          "type": "uint256"
        }
      ],
      "name": "BurnAmountPerRunQuotaChanged",
      "type": "event"
    },
    {
      "anonymous": false,
      "inputs": [
        {
          "indexed": true,
          "internalType": "address",
          "name": "requestedBy",
          "type": "address"
        },
        {
          "indexed": true,
          "internalType": "address",
          "name": "token",
          "type": "address"
        },
        {
          "indexed": false,
          "internalType": "uint256",
          "name": "amount",
          "type": "uint256"
        }
      ],
      "name": "ERC20Recovered",
      "type": "event"
    },
    {
      "anonymous": false,
      "inputs": [
        {
          "indexed": true,
          "internalType": "address",
          "name": "requestedBy",
          "type": "address"
        },
        {
          "indexed": true,
          "internalType": "address",
          "name": "token",
          "type": "address"
        },
        {
          "indexed": false,
          "internalType": "uint256",
          "name": "tokenId",
          "type": "uint256"
        }
      ],
      "name": "ERC721Recovered",
      "type": "event"
    },
    {
      "anonymous": false,
      "inputs": [
        {
          "indexed": true,
          "internalType": "address",
          "name": "requestedBy",
          "type": "address"
        },
        {
          "indexed": false,
          "internalType": "uint256",
          "name": "amount",
          "type": "uint256"
        },
        {
          "indexed": false,
          "internalType": "uint256",
          "name": "sharesAmount",
          "type": "uint256"
        }
      ],
      "name": "ExcessStETHRecovered",
      "type": "event"
    },
    {
      "anonymous": false,
      "inputs": [
        {
          "indexed": true,
          "internalType": "bool",
          "name": "isCover",
          "type": "bool"
        },
        {
          "indexed": true,
          "internalType": "address",
          "name": "requestedBy",
          "type": "address"
        },
        {
          "indexed": false,
          "internalType": "uint256",
          "name": "amount",
          "type": "uint256"
        },
        {
          "indexed": false,
          "internalType": "uint256",
          "name": "sharesAmount",
          "type": "uint256"
        }
      ],
      "name": "StETHBurnRequested",
      "type": "event"
    },
    {
      "anonymous": false,
      "inputs": [
        {
          "indexed": true,
          "internalType": "bool",
          "name": "isCover",
          "type": "bool"
        },
        {
          "indexed": false,
          "internalType": "uint256",
          "name": "amount",
          "type": "uint256"
        },
        {
          "indexed": false,
          "internalType": "uint256",
          "name": "sharesAmount",
          "type": "uint256"
        }
      ],
      "name": "StETHBurnt",
      "type": "event"
    },
    {
      "inputs": [],
      "name": "LIDO",
      "outputs": [
        {
          "internalType": "address",
          "name": "",
          "type": "address"
        }
      ],
      "stateMutability": "view",
      "type": "function"
    },
    {
      "inputs": [],
      "name": "TREASURY",
      "outputs": [
        {
          "internalType": "address",
          "name": "",
          "type": "address"
        }
      ],
      "stateMutability": "view",
      "type": "function"
    },
    {
      "inputs": [],
      "name": "VOTING",
      "outputs": [
        {
          "internalType": "address",
          "name": "",
          "type": "address"
        }
      ],
      "stateMutability": "view",
      "type": "function"
    },
    {
      "inputs": [],
      "name": "getBurnAmountPerRunQuota",
      "outputs": [
        {
          "internalType": "uint256",
          "name": "",
          "type": "uint256"
        }
      ],
      "stateMutability": "view",
      "type": "function"
    },
    {
      "inputs": [],
      "name": "getCoverSharesBurnt",
      "outputs": [
        {
          "internalType": "uint256",
          "name": "",
          "type": "uint256"
        }
      ],
      "stateMutability": "view",
      "type": "function"
    },
    {
      "inputs": [],
      "name": "getExcessStETH",
      "outputs": [
        {
          "internalType": "uint256",
          "name": "",
          "type": "uint256"
        }
      ],
      "stateMutability": "view",
      "type": "function"
    },
    {
      "inputs": [],
      "name": "getNonCoverSharesBurnt",
      "outputs": [
        {
          "internalType": "uint256",
          "name": "",
          "type": "uint256"
        }
      ],
      "stateMutability": "view",
      "type": "function"
    },
    {
      "inputs": [
        {
          "internalType": "uint256",
          "name": "",
          "type": "uint256"
        },
        {
          "internalType": "uint256",
          "name": "",
          "type": "uint256"
        },
        {
          "internalType": "uint256",
          "name": "",
          "type": "uint256"
        }
      ],
      "name": "processLidoOracleReport",
      "outputs": [],
      "stateMutability": "nonpayable",
      "type": "function"
    },
    {
      "inputs": [
        {
          "internalType": "address",
          "name": "_token",
          "type": "address"
        },
        {
          "internalType": "uint256",
          "name": "_amount",
          "type": "uint256"
        }
      ],
      "name": "recoverERC20",
      "outputs": [],
      "stateMutability": "nonpayable",
      "type": "function"
    },
    {
      "inputs": [
        {
          "internalType": "address",
          "name": "_token",
          "type": "address"
        },
        {
          "internalType": "uint256",
          "name": "_tokenId",
          "type": "uint256"
        }
      ],
      "name": "recoverERC721",
      "outputs": [],
      "stateMutability": "nonpayable",
      "type": "function"
    },
    {
      "inputs": [],
      "name": "recoverExcessStETH",
      "outputs": [],
      "stateMutability": "nonpayable",
      "type": "function"
    },
    {
      "inputs": [
        {
          "internalType": "uint256",
          "name": "_stETH2Burn",
          "type": "uint256"
        }
      ],
      "name": "requestBurnMyStETH",
      "outputs": [],
      "stateMutability": "nonpayable",
      "type": "function"
    },
    {
      "inputs": [
        {
          "internalType": "uint256",
          "name": "_stETH2Burn",
          "type": "uint256"
        }
      ],
      "name": "requestBurnMyStETHForCover",
      "outputs": [],
      "stateMutability": "nonpayable",
      "type": "function"
    },
    {
      "inputs": [
        {
          "internalType": "uint256",
          "name": "_maxBurnAmountPerRunBasisPoints",
          "type": "uint256"
        }
      ],
      "name": "setBurnAmountPerRunQuota",
      "outputs": [],
      "stateMutability": "nonpayable",
      "type": "function"
    },
    {
      "inputs": [
        {
          "internalType": "bytes4",
          "name": "_interfaceId",
          "type": "bytes4"
        }
      ],
      "name": "supportsInterface",
      "outputs": [
        {
          "internalType": "bool",
          "name": "",
          "type": "bool"
        }
      ],
      "stateMutability": "view",
      "type": "function"
    },
    {
      "stateMutability": "payable",
      "type": "receive"
    }
  ],
  "bytecode": {
    "object": "0x60e0604052600480553480156200001557600080fd5b5060405162001a8f38038062001a8f83398101604081905262000038916200022b565b6001600160a01b038616620000945760405162461bcd60e51b815260206004820152601560248201527f54524541535552595f5a45524f5f41444452455353000000000000000000000060448201526064015b60405180910390fd5b6001600160a01b038516620000e05760405162461bcd60e51b81526020600482015260116024820152704c49444f5f5a45524f5f4144445245535360781b60448201526064016200008b565b6001600160a01b038416620001385760405162461bcd60e51b815260206004820152601360248201527f564f54494e475f5a45524f5f414444524553530000000000000000000000000060448201526064016200008b565b600081116200018a5760405162461bcd60e51b815260206004820152601860248201527f5a45524f5f4255524e5f414d4f554e545f5045525f52554e000000000000000060448201526064016200008b565b612710811115620001de5760405162461bcd60e51b815260206004820152601d60248201527f544f4f5f4c415247455f4255524e5f414d4f554e545f5045525f52554e00000060448201526064016200008b565b6001600160a01b0395861660a0529385166080529190931660c05260029290925560039190915560045562000291565b80516001600160a01b03811681146200022657600080fd5b919050565b60008060008060008060c087890312156200024557600080fd5b62000250876200020e565b955062000260602088016200020e565b945062000270604088016200020e565b9350606087015192506080870151915060a087015190509295509295509295565b60805160a05160c0516117506200033f6000396000818161018a01528181610dd201526110540152600081816101d6015281816104b501528181610b790152610d000152600081816102c0015281816103de015281816104e40152818161059401528181610705015281816107ee015281816108f2015281816109ce01528181610ab001528181610c3101528181610ea901528181610f3f015281816110df015261118501526117506000f3fe6080604052600436106100ec5760003560e01c8063819d4cc61161008a578063d12176b611610059578063d12176b6146102f7578063ed694dfe14610317578063ef5d201d1461032c578063fef6b16d1461034c57600080fd5b8063819d4cc61461026e5780638980f11f1461028e5780638b21f170146102ae578063d03601f0146102e257600080fd5b806332b976f3116100c657806332b976f3146101f857806334212e5f1461020f5780635d0162681461022f5780637763bca61461024f57600080fd5b806301ffc9a714610143578063269e1d1a146101785780632d2c5565146101c457600080fd5b3661013e5760405162461bcd60e51b815260206004820152601960248201527f494e434f4d494e475f4554485f49535f464f5242494444454e0000000000000060448201526064015b60405180910390fd5b600080fd5b34801561014f57600080fd5b5061016361015e36600461150d565b610361565b60405190151581526020015b60405180910390f35b34801561018457600080fd5b506101ac7f000000000000000000000000000000000000000000000000000000000000000081565b6040516001600160a01b03909116815260200161016f565b3480156101d057600080fd5b506101ac7f000000000000000000000000000000000000000000000000000000000000000081565b34801561020457600080fd5b5061020d6103b3565b005b34801561021b57600080fd5b5061020d61022a366004611537565b61056e565b34801561023b57600080fd5b5061020d61024a366004611563565b610b11565b34801561025b57600080fd5b506003545b60405190815260200161016f565b34801561027a57600080fd5b5061020d610289366004611591565b610b1c565b34801561029a57600080fd5b5061020d6102a9366004611591565b610be8565b3480156102ba57600080fd5b506101ac7f000000000000000000000000000000000000000000000000000000000000000081565b3480156102ee57600080fd5b50600254610260565b34801561030357600080fd5b5061020d610312366004611563565b610d25565b34801561032357600080fd5b50610260610e73565b34801561033857600080fd5b5061020d610347366004611563565b610fe3565b34801561035857600080fd5b50600454610260565b60006001600160e01b031982166334212e5f60e01b148061039257506001600160e01b031982166353aadeab60e11b145b806103ad57506301ffc9a760e01b6001600160e01b03198316145b92915050565b60006103bd610e73565b9050801561056b57604051631920845160e01b8152600481018290526000907f00000000000000000000000000000000000000000000000000000000000000006001600160a01b03169063192084519060240160206040518083038186803b15801561042857600080fd5b505afa15801561043c573d6000803e3d6000fd5b505050506040513d601f19601f8201168201806040525081019061046091906115bd565b604080518481526020810183905291925033917fea28a36ccbf8c2eba827a529927f2e445c651d9a04a393ea79d71ea29c508483910160405180910390a260405163a9059cbb60e01b81526001600160a01b037f000000000000000000000000000000000000000000000000000000000000000081166004830152602482018490527f0000000000000000000000000000000000000000000000000000000000000000169063a9059cbb90604401602060405180830381600087803b15801561052857600080fd5b505af115801561053c573d6000803e3d6000fd5b505050506040513d601f19601f8201168201806040525081019061056091906115d6565b61056957600080fd5b505b50565b600080546001549091610581828461160e565b90508061059057505050505050565b60007f00000000000000000000000000000000000000000000000000000000000000006001600160a01b031663833b1fce6040518163ffffffff1660e01b815260040160206040518083038186803b1580156105eb57600080fd5b505afa1580156105ff573d6000803e3d6000fd5b505050506040513d601f19601f820116820180604052508101906106239190611626565b9050336001600160a01b03821614806106bd5750806001600160a01b031663b24806036040518163ffffffff1660e01b815260040160206040518083038186803b15801561067057600080fd5b505afa158015610684573d6000803e3d6000fd5b505050506040513d601f19601f820116820180604052508101906106a89190611626565b6001600160a01b0316336001600160a01b0316145b6106fb5760405162461bcd60e51b815260206004820152600f60248201526e10541417d055551217d19052531151608a1b6044820152606401610135565b60006127106004547f00000000000000000000000000000000000000000000000000000000000000006001600160a01b031663d5002f2e6040518163ffffffff1660e01b815260040160206040518083038186803b15801561075c57600080fd5b505afa158015610770573d6000803e3d6000fd5b505050506040513d601f19601f8201168201806040525081019061079491906115bd565b61079e9190611643565b6107a89190611662565b905084156109875760006107bc8287610fee565b905080600260008282546107d0919061160e565b9091555050604051630f451f7160e31b8152600481018290526000907f00000000000000000000000000000000000000000000000000000000000000006001600160a01b031690637a28fb889060240160206040518083038186803b15801561083857600080fd5b505afa15801561084c573d6000803e3d6000fd5b505050506040513d601f19601f8201168201806040525081019061087091906115bd565b60408051828152602081018590529192506001917f8959e4c88e5192ecbc28d08be97f24786bf591eb1d1848ce23e17e1b2271e863910160405180910390a2816000808282546108c09190611684565b9091555050818314806108d1575085155b1561098457604051633b9e9f0160e21b8152306004820152602481018390527f00000000000000000000000000000000000000000000000000000000000000006001600160a01b03169063ee7a7c04906044015b602060405180830381600087803b15801561093f57600080fd5b505af1158015610953573d6000803e3d6000fd5b505050506040513d601f19601f8201168201806040525081019061097791906115bd565b5050505050505050505050565b50505b600061099c6109968784611684565b86610fee565b905080600360008282546109b0919061160e565b9091555050604051630f451f7160e31b8152600481018290526000907f00000000000000000000000000000000000000000000000000000000000000006001600160a01b031690637a28fb889060240160206040518083038186803b158015610a1857600080fd5b505afa158015610a2c573d6000803e3d6000fd5b505050506040513d601f19601f82011682018060405250810190610a5091906115bd565b60408051828152602081018590529192506000917f8959e4c88e5192ecbc28d08be97f24786bf591eb1d1848ce23e17e1b2271e863910160405180910390a28160016000828254610aa19190611684565b90915550506001600160a01b037f00000000000000000000000000000000000000000000000000000000000000001663ee7a7c0430610ae0858b61160e565b6040516001600160e01b031960e085901b1681526001600160a01b0390921660048301526024820152604401610925565b61056b816000611006565b6040518181526001600160a01b0383169033907f6a30e6784464f0d1f4158aa4cb65ae9239b0fa87c7f2c083ee6dde44ba97b5e69060200160405180910390a36040516323b872dd60e01b81523060048201526001600160a01b037f000000000000000000000000000000000000000000000000000000000000000081166024830152604482018390528316906323b872dd90606401600060405180830381600087803b158015610bcc57600080fd5b505af1158015610be0573d6000803e3d6000fd5b505050505050565b60008111610c2f5760405162461bcd60e51b815260206004820152601460248201527316915493d7d49150d3d591549657d05353d5539560621b6044820152606401610135565b7f00000000000000000000000000000000000000000000000000000000000000006001600160a01b0316826001600160a01b03161415610cb15760405162461bcd60e51b815260206004820152601860248201527f53544554485f5245434f5645525f57524f4e475f46554e4300000000000000006044820152606401610135565b6040518181526001600160a01b0383169033907faca8fb252cde442184e5f10e0f2e6e4029e8cd7717cae63559079610702436aa9060200160405180910390a36105696001600160a01b0383167f000000000000000000000000000000000000000000000000000000000000000083611288565b60008111610d755760405162461bcd60e51b815260206004820152601860248201527f5a45524f5f4255524e5f414d4f554e545f5045525f52554e00000000000000006044820152606401610135565b612710811115610dc75760405162461bcd60e51b815260206004820152601d60248201527f544f4f5f4c415247455f4255524e5f414d4f554e545f5045525f52554e0000006044820152606401610135565b336001600160a01b037f00000000000000000000000000000000000000000000000000000000000000001614610e3b5760405162461bcd60e51b81526020600482015260196024820152784d53475f53454e4445525f4d5553545f42455f564f54494e4760381b6044820152606401610135565b6040518181527f0c2215eb7a22d75c1e3bac8cab81ef4f6af4311f14e2db2c255a07dc280e4d4a9060200160405180910390a1600455565b600080600154600054610e86919061160e565b604051633d7ad0b760e21b81523060048201529091506000906001600160a01b037f0000000000000000000000000000000000000000000000000000000000000000169063f5eb42dc9060240160206040518083038186803b158015610eeb57600080fd5b505afa158015610eff573d6000803e3d6000fd5b505050506040513d601f19601f82011682018060405250810190610f2391906115bd565b9050818111610f355760009250505090565b6001600160a01b037f000000000000000000000000000000000000000000000000000000000000000016637a28fb88610f6e8484611684565b6040518263ffffffff1660e01b8152600401610f8c91815260200190565b60206040518083038186803b158015610fa457600080fd5b505afa158015610fb8573d6000803e3d6000fd5b505050506040513d601f19601f82011682018060405250810190610fdc91906115bd565b9250505090565b61056b816001611006565b6000818310610ffd5781610fff565b825b9392505050565b600082116110495760405162461bcd60e51b815260206004820152601060248201526f16915493d7d095549397d05353d5539560821b6044820152606401610135565b336001600160a01b037f000000000000000000000000000000000000000000000000000000000000000016146110bd5760405162461bcd60e51b81526020600482015260196024820152784d53475f53454e4445525f4d5553545f42455f564f54494e4760381b6044820152606401610135565b6040516323b872dd60e01b8152336004820152306024820152604481018390527f00000000000000000000000000000000000000000000000000000000000000006001600160a01b0316906323b872dd90606401602060405180830381600087803b15801561112b57600080fd5b505af115801561113f573d6000803e3d6000fd5b505050506040513d601f19601f8201168201806040525081019061116391906115d6565b61116c57600080fd5b604051631920845160e01b8152600481018390526000907f00000000000000000000000000000000000000000000000000000000000000006001600160a01b03169063192084519060240160206040518083038186803b1580156111cf57600080fd5b505afa1580156111e3573d6000803e3d6000fd5b505050506040513d601f19601f8201168201806040525081019061120791906115bd565b60408051858152602081018390529192503391841515917fd2282bfa24f3803076af0953f1ed987d0e45edacdc20d6dce52337b1c4588cdb910160405180910390a3811561126b5780600080828254611260919061160e565b909155506112839050565b806001600082825461127d919061160e565b90915550505b505050565b604080516001600160a01b03848116602483015260448083018590528351808403909101815260649092018352602080830180516001600160e01b031663a9059cbb60e01b17905283518085019094528084527f5361666545524332303a206c6f772d6c6576656c2063616c6c206661696c65649084015261128392869291600091611318918516908490611395565b805190915015611283578080602001905181019061133691906115d6565b6112835760405162461bcd60e51b815260206004820152602a60248201527f5361666545524332303a204552433230206f7065726174696f6e20646964206e6044820152691bdd081cdd58d8d9595960b21b6064820152608401610135565b60606113a484846000856113ac565b949350505050565b60608247101561140d5760405162461bcd60e51b815260206004820152602660248201527f416464726573733a20696e73756666696369656e742062616c616e636520666f6044820152651c8818d85b1b60d21b6064820152608401610135565b843b61145b5760405162461bcd60e51b815260206004820152601d60248201527f416464726573733a2063616c6c20746f206e6f6e2d636f6e74726163740000006044820152606401610135565b600080866001600160a01b0316858760405161147791906116cb565b60006040518083038185875af1925050503d80600081146114b4576040519150601f19603f3d011682016040523d82523d6000602084013e6114b9565b606091505b50915091506114c98282866114d4565b979650505050505050565b606083156114e3575081610fff565b8251156114f35782518084602001fd5b8160405162461bcd60e51b815260040161013591906116e7565b60006020828403121561151f57600080fd5b81356001600160e01b031981168114610fff57600080fd5b60008060006060848603121561154c57600080fd5b505081359360208301359350604090920135919050565b60006020828403121561157557600080fd5b5035919050565b6001600160a01b038116811461056b57600080fd5b600080604083850312156115a457600080fd5b82356115af8161157c565b946020939093013593505050565b6000602082840312156115cf57600080fd5b5051919050565b6000602082840312156115e857600080fd5b81518015158114610fff57600080fd5b634e487b7160e01b600052601160045260246000fd5b60008219821115611621576116216115f8565b500190565b60006020828403121561163857600080fd5b8151610fff8161157c565b600081600019048311821515161561165d5761165d6115f8565b500290565b60008261167f57634e487b7160e01b600052601260045260246000fd5b500490565b600082821015611696576116966115f8565b500390565b60005b838110156116b657818101518382015260200161169e565b838111156116c5576000848401525b50505050565b600082516116dd81846020870161169b565b9190910192915050565b602081526000825180602084015261170681604085016020870161169b565b601f01601f1916919091016040019291505056fea2646970667358221220f3348e6bde823f06209d23cab58b6b34f72e223f914710a7a28e89bf9362496164736f6c63430008090033",
    "linkReferences": {}
  },
  "methodIdentifiers": {
    "LIDO()": "8b21f170",
    "TREASURY()": "2d2c5565",
    "VOTING()": "269e1d1a",
    "getBurnAmountPerRunQuota()": "fef6b16d",
    "getCoverSharesBurnt()": "d03601f0",
    "getExcessStETH()": "ed694dfe",
    "getNonCoverSharesBurnt()": "7763bca6",
    "processLidoOracleReport(uint256,uint256,uint256)": "34212e5f",
    "recoverERC20(address,uint256)": "8980f11f",
    "recoverERC721(address,uint256)": "819d4cc6",
    "recoverExcessStETH()": "32b976f3",
    "requestBurnMyStETH(uint256)": "5d016268",
    "requestBurnMyStETHForCover(uint256)": "ef5d201d",
    "setBurnAmountPerRunQuota(uint256)": "d12176b6",
    "supportsInterface(bytes4)": "01ffc9a7"
  },
  "storageLayout": {
    "storage": [
      {
        "astId": 1689,
        "contract": "contracts/0.8.9/SelfOwnedStETHBurner.sol:SelfOwnedStETHBurner",
        "label": "coverSharesBurnRequested",
        "offset": 0,
        "slot": "0",
        "type": "t_uint256"
      },
      {
        "astId": 1691,
        "contract": "contracts/0.8.9/SelfOwnedStETHBurner.sol:SelfOwnedStETHBurner",
        "label": "nonCoverSharesBurnRequested",
        "offset": 0,
        "slot": "1",
        "type": "t_uint256"
      },
      {
        "astId": 1693,
        "contract": "contracts/0.8.9/SelfOwnedStETHBurner.sol:SelfOwnedStETHBurner",
        "label": "totalCoverSharesBurnt",
        "offset": 0,
        "slot": "2",
        "type": "t_uint256"
      },
      {
        "astId": 1695,
        "contract": "contracts/0.8.9/SelfOwnedStETHBurner.sol:SelfOwnedStETHBurner",
        "label": "totalNonCoverSharesBurnt",
        "offset": 0,
        "slot": "3",
        "type": "t_uint256"
      },
      {
        "astId": 1698,
        "contract": "contracts/0.8.9/SelfOwnedStETHBurner.sol:SelfOwnedStETHBurner",
        "label": "maxBurnAmountPerRunBasisPoints",
        "offset": 0,
        "slot": "4",
        "type": "t_uint256"
      }
    ],
    "types": {
      "t_uint256": {
        "encoding": "inplace",
        "label": "uint256",
        "numberOfBytes": "32"
      }
    }
  },
  "id": 4
}