{
  "abi": [
    {
      "constant": true,
      "inputs": [],
      "name": "hasInitialized",
      "outputs": [
        {
          "name": "",
          "type": "bool"
        }
      ],
      "payable": false,
      "stateMutability": "view",
      "type": "function"
    },
    {
      "constant": true,
      "inputs": [],
      "name": "CREATE_PAYMENTS_ROLE",
      "outputs": [
        {
          "name": "",
          "type": "bytes32"
        }
      ],
      "payable": false,
      "stateMutability": "view",
      "type": "function"
    },
    {
      "constant": false,
      "inputs": [
        {
          "name": "_token",
          "type": "address"
        },
        {
          "name": "_receiver",
          "type": "address"
        },
        {
          "name": "_amount",
          "type": "uint256"
        },
        {
          "name": "_initialPaymentTime",
          "type": "uint64"
        },
        {
          "name": "_interval",
          "type": "uint64"
        },
        {
          "name": "_maxExecutions",
          "type": "uint64"
        },
        {
          "name": "_reference",
          "type": "string"
        }
      ],
      "name": "newScheduledPayment",
      "outputs": [
        {
          "name": "paymentId",
          "type": "uint256"
        }
      ],
      "payable": false,
      "stateMutability": "nonpayable",
      "type": "function"
    },
    {
      "constant": false,
      "inputs": [
        {
          "name": "_paymentId",
          "type": "uint256"
        }
      ],
      "name": "executePayment",
      "outputs": [],
      "payable": false,
      "stateMutability": "nonpayable",
      "type": "function"
    },
    {
      "constant": false,
      "inputs": [
        {
          "name": "_vault",
          "type": "address"
        },
        {
          "name": "_periodDuration",
          "type": "uint64"
        }
      ],
      "name": "initialize",
      "outputs": [],
      "payable": false,
      "stateMutability": "nonpayable",
      "type": "function"
    },
    {
      "constant": false,
      "inputs": [
        {
          "name": "_token",
          "type": "address"
        }
      ],
      "name": "removeBudget",
      "outputs": [],
      "payable": false,
      "stateMutability": "nonpayable",
      "type": "function"
    },
    {
      "constant": true,
      "inputs": [
        {
          "name": "_token",
          "type": "address"
        }
      ],
      "name": "getBudget",
      "outputs": [
        {
          "name": "budget",
          "type": "uint256"
        },
        {
          "name": "hasBudget",
          "type": "bool"
        }
      ],
      "payable": false,
      "stateMutability": "view",
      "type": "function"
    },
    {
      "constant": true,
      "inputs": [
        {
          "name": "_script",
          "type": "bytes"
        }
      ],
      "name": "getEVMScriptExecutor",
      "outputs": [
        {
          "name": "",
          "type": "address"
        }
      ],
      "payable": false,
      "stateMutability": "view",
      "type": "function"
    },
    {
      "constant": false,
      "inputs": [
        {
          "name": "_paymentId",
          "type": "uint256"
        },
        {
          "name": "_active",
          "type": "bool"
        }
      ],
      "name": "setPaymentStatus",
      "outputs": [],
      "payable": false,
      "stateMutability": "nonpayable",
      "type": "function"
    },
    {
      "constant": true,
      "inputs": [
        {
          "name": "_paymentId",
          "type": "uint256"
        }
      ],
      "name": "getPayment",
      "outputs": [
        {
          "name": "token",
          "type": "address"
        },
        {
          "name": "receiver",
          "type": "address"
        },
        {
          "name": "amount",
          "type": "uint256"
        },
        {
          "name": "initialPaymentTime",
          "type": "uint64"
        },
        {
          "name": "interval",
          "type": "uint64"
        },
        {
          "name": "maxExecutions",
          "type": "uint64"
        },
        {
          "name": "inactive",
          "type": "bool"
        },
        {
          "name": "executions",
          "type": "uint64"
        },
        {
          "name": "createdBy",
          "type": "address"
        }
      ],
      "payable": false,
      "stateMutability": "view",
      "type": "function"
    },
    {
      "constant": true,
      "inputs": [],
      "name": "getRecoveryVault",
      "outputs": [
        {
          "name": "",
          "type": "address"
        }
      ],
      "payable": false,
      "stateMutability": "view",
      "type": "function"
    },
    {
      "constant": true,
      "inputs": [
        {
          "name": "_transactionId",
          "type": "uint256"
        }
      ],
      "name": "getTransaction",
      "outputs": [
        {
          "name": "periodId",
          "type": "uint64"
        },
        {
          "name": "amount",
          "type": "uint256"
        },
        {
          "name": "paymentId",
          "type": "uint256"
        },
        {
          "name": "paymentExecutionNumber",
          "type": "uint64"
        },
        {
          "name": "token",
          "type": "address"
        },
        {
          "name": "entity",
          "type": "address"
        },
        {
          "name": "isIncoming",
          "type": "bool"
        },
        {
          "name": "date",
          "type": "uint64"
        }
      ],
      "payable": false,
      "stateMutability": "view",
      "type": "function"
    },
    {
      "constant": true,
      "inputs": [],
      "name": "CHANGE_PERIOD_ROLE",
      "outputs": [
        {
          "name": "",
          "type": "bytes32"
        }
      ],
      "payable": false,
      "stateMutability": "view",
      "type": "function"
    },
    {
      "constant": true,
      "inputs": [],
      "name": "CHANGE_BUDGETS_ROLE",
      "outputs": [
        {
          "name": "",
          "type": "bytes32"
        }
      ],
      "payable": false,
      "stateMutability": "view",
      "type": "function"
    },
    {
      "constant": false,
      "inputs": [
        {
          "name": "_paymentId",
          "type": "uint256"
        }
      ],
      "name": "receiverExecutePayment",
      "outputs": [],
      "payable": false,
      "stateMutability": "nonpayable",
      "type": "function"
    },
    {
      "constant": true,
      "inputs": [
        {
          "name": "_periodId",
          "type": "uint64"
        }
      ],
      "name": "getPeriod",
      "outputs": [
        {
          "name": "isCurrent",
          "type": "bool"
        },
        {
          "name": "startTime",
          "type": "uint64"
        },
        {
          "name": "endTime",
          "type": "uint64"
        },
        {
          "name": "firstTransactionId",
          "type": "uint256"
        },
        {
          "name": "lastTransactionId",
          "type": "uint256"
        }
      ],
      "payable": false,
      "stateMutability": "view",
      "type": "function"
    },
    {
      "constant": false,
      "inputs": [
        {
          "name": "_periodDuration",
          "type": "uint64"
        }
      ],
      "name": "setPeriodDuration",
      "outputs": [],
      "payable": false,
      "stateMutability": "nonpayable",
      "type": "function"
    },
    {
      "constant": true,
      "inputs": [],
      "name": "periodsLength",
      "outputs": [
        {
          "name": "",
          "type": "uint64"
        }
      ],
      "payable": false,
      "stateMutability": "view",
      "type": "function"
    },
    {
      "constant": false,
      "inputs": [
        {
          "name": "_token",
          "type": "address"
        },
        {
          "name": "_amount",
          "type": "uint256"
        }
      ],
      "name": "setBudget",
      "outputs": [],
      "payable": false,
      "stateMutability": "nonpayable",
      "type": "function"
    },
    {
      "constant": true,
      "inputs": [
        {
          "name": "",
          "type": "address"
        }
      ],
      "name": "allowRecoverability",
      "outputs": [
        {
          "name": "",
          "type": "bool"
        }
      ],
      "payable": false,
      "stateMutability": "view",
      "type": "function"
    },
    {
      "constant": true,
      "inputs": [],
      "name": "appId",
      "outputs": [
        {
          "name": "",
          "type": "bytes32"
        }
      ],
      "payable": false,
      "stateMutability": "view",
      "type": "function"
    },
    {
      "constant": true,
      "inputs": [],
      "name": "getInitializationBlock",
      "outputs": [
        {
          "name": "",
          "type": "uint256"
        }
      ],
      "payable": false,
      "stateMutability": "view",
      "type": "function"
    },
    {
      "constant": false,
      "inputs": [
        {
          "name": "_token",
          "type": "address"
        }
      ],
      "name": "recoverToVault",
      "outputs": [],
      "payable": false,
      "stateMutability": "nonpayable",
      "type": "function"
    },
    {
      "constant": true,
      "inputs": [],
      "name": "EXECUTE_PAYMENTS_ROLE",
      "outputs": [
        {
          "name": "",
          "type": "bytes32"
        }
      ],
      "payable": false,
      "stateMutability": "view",
      "type": "function"
    },
    {
      "constant": true,
      "inputs": [],
      "name": "currentPeriodId",
      "outputs": [
        {
          "name": "",
          "type": "uint64"
        }
      ],
      "payable": false,
      "stateMutability": "view",
      "type": "function"
    },
    {
      "constant": false,
      "inputs": [
        {
          "name": "_token",
          "type": "address"
        }
      ],
      "name": "transferToVault",
      "outputs": [],
      "payable": false,
      "stateMutability": "nonpayable",
      "type": "function"
    },
    {
      "constant": true,
      "inputs": [
        {
          "name": "_sender",
          "type": "address"
        },
        {
          "name": "_role",
          "type": "bytes32"
        },
        {
          "name": "_params",
          "type": "uint256[]"
        }
      ],
      "name": "canPerform",
      "outputs": [
        {
          "name": "",
          "type": "bool"
        }
      ],
      "payable": false,
      "stateMutability": "view",
      "type": "function"
    },
    {
      "constant": true,
      "inputs": [],
      "name": "getEVMScriptRegistry",
      "outputs": [
        {
          "name": "",
          "type": "address"
        }
      ],
      "payable": false,
      "stateMutability": "view",
      "type": "function"
    },
    {
      "constant": false,
      "inputs": [
        {
          "name": "_maxTransitions",
          "type": "uint64"
        }
      ],
      "name": "tryTransitionAccountingPeriod",
      "outputs": [
        {
          "name": "success",
          "type": "bool"
        }
      ],
      "payable": false,
      "stateMutability": "nonpayable",
      "type": "function"
    },
    {
      "constant": true,
      "inputs": [],
      "name": "getPeriodDuration",
      "outputs": [
        {
          "name": "",
          "type": "uint64"
        }
      ],
      "payable": false,
      "stateMutability": "view",
      "type": "function"
    },
    {
      "constant": false,
      "inputs": [
        {
          "name": "_token",
          "type": "address"
        },
        {
          "name": "_amount",
          "type": "uint256"
        },
        {
          "name": "_reference",
          "type": "string"
        }
      ],
      "name": "deposit",
      "outputs": [],
      "payable": true,
      "stateMutability": "payable",
      "type": "function"
    },
    {
      "constant": true,
      "inputs": [
        {
          "name": "_paymentId",
          "type": "uint256"
        }
      ],
      "name": "nextPaymentTime",
      "outputs": [
        {
          "name": "",
          "type": "uint64"
        }
      ],
      "payable": false,
      "stateMutability": "view",
      "type": "function"
    },
    {
      "constant": true,
      "inputs": [
        {
          "name": "_periodId",
          "type": "uint64"
        },
        {
          "name": "_token",
          "type": "address"
        }
      ],
      "name": "getPeriodTokenStatement",
      "outputs": [
        {
          "name": "expenses",
          "type": "uint256"
        },
        {
          "name": "income",
          "type": "uint256"
        }
      ],
      "payable": false,
      "stateMutability": "view",
      "type": "function"
    },
    {
      "constant": true,
      "inputs": [],
      "name": "kernel",
      "outputs": [
        {
          "name": "",
          "type": "address"
        }
      ],
      "payable": false,
      "stateMutability": "view",
      "type": "function"
    },
    {
      "constant": true,
      "inputs": [],
      "name": "paymentsNextIndex",
      "outputs": [
        {
          "name": "",
          "type": "uint256"
        }
      ],
      "payable": false,
      "stateMutability": "view",
      "type": "function"
    },
    {
      "constant": true,
      "inputs": [],
      "name": "isPetrified",
      "outputs": [
        {
          "name": "",
          "type": "bool"
        }
      ],
      "payable": false,
      "stateMutability": "view",
      "type": "function"
    },
    {
      "constant": true,
      "inputs": [
        {
          "name": "_token",
          "type": "address"
        },
        {
          "name": "_amount",
          "type": "uint256"
        }
      ],
      "name": "canMakePayment",
      "outputs": [
        {
          "name": "",
          "type": "bool"
        }
      ],
      "payable": false,
      "stateMutability": "view",
      "type": "function"
    },
    {
      "constant": true,
      "inputs": [],
      "name": "MANAGE_PAYMENTS_ROLE",
      "outputs": [
        {
          "name": "",
          "type": "bytes32"
        }
      ],
      "payable": false,
      "stateMutability": "view",
      "type": "function"
    },
    {
      "constant": true,
      "inputs": [],
      "name": "transactionsNextIndex",
      "outputs": [
        {
          "name": "",
          "type": "uint256"
        }
      ],
      "payable": false,
      "stateMutability": "view",
      "type": "function"
    },
    {
      "constant": true,
      "inputs": [
        {
          "name": "_token",
          "type": "address"
        }
      ],
      "name": "getRemainingBudget",
      "outputs": [
        {
          "name": "",
          "type": "uint256"
        }
      ],
      "payable": false,
      "stateMutability": "view",
      "type": "function"
    },
    {
      "constant": false,
      "inputs": [
        {
          "name": "_token",
          "type": "address"
        },
        {
          "name": "_receiver",
          "type": "address"
        },
        {
          "name": "_amount",
          "type": "uint256"
        },
        {
          "name": "_reference",
          "type": "string"
        }
      ],
      "name": "newImmediatePayment",
      "outputs": [],
      "payable": false,
      "stateMutability": "nonpayable",
      "type": "function"
    },
    {
      "constant": true,
      "inputs": [],
      "name": "vault",
      "outputs": [
        {
          "name": "",
          "type": "address"
        }
      ],
      "payable": false,
      "stateMutability": "view",
      "type": "function"
    },
    {
      "payable": true,
      "stateMutability": "payable",
      "type": "fallback"
    },
    {
      "anonymous": false,
      "inputs": [
        {
          "indexed": true,
          "name": "periodId",
          "type": "uint64"
        },
        {
          "indexed": false,
          "name": "periodStarts",
          "type": "uint64"
        },
        {
          "indexed": false,
          "name": "periodEnds",
          "type": "uint64"
        }
      ],
      "name": "NewPeriod",
      "type": "event"
    },
    {
      "anonymous": false,
      "inputs": [
        {
          "indexed": true,
          "name": "token",
          "type": "address"
        },
        {
          "indexed": false,
          "name": "amount",
          "type": "uint256"
        },
        {
          "indexed": false,
          "name": "hasBudget",
          "type": "bool"
        }
      ],
      "name": "SetBudget",
      "type": "event"
    },
    {
      "anonymous": false,
      "inputs": [
        {
          "indexed": true,
          "name": "paymentId",
          "type": "uint256"
        },
        {
          "indexed": true,
          "name": "recipient",
          "type": "address"
        },
        {
          "indexed": false,
          "name": "maxExecutions",
          "type": "uint64"
        },
        {
          "indexed": false,
          "name": "reference",
          "type": "string"
        }
      ],
      "name": "NewPayment",
      "type": "event"
    },
    {
      "anonymous": false,
      "inputs": [
        {
          "indexed": true,
          "name": "transactionId",
          "type": "uint256"
        },
        {
          "indexed": false,
          "name": "incoming",
          "type": "bool"
        },
        {
          "indexed": true,
          "name": "entity",
          "type": "address"
        },
        {
          "indexed": false,
          "name": "amount",
          "type": "uint256"
        },
        {
          "indexed": false,
          "name": "reference",
          "type": "string"
        }
      ],
      "name": "NewTransaction",
      "type": "event"
    },
    {
      "anonymous": false,
      "inputs": [
        {
          "indexed": true,
          "name": "paymentId",
          "type": "uint256"
        },
        {
          "indexed": false,
          "name": "active",
          "type": "bool"
        }
      ],
      "name": "ChangePaymentState",
      "type": "event"
    },
    {
      "anonymous": false,
      "inputs": [
        {
          "indexed": false,
          "name": "newDuration",
          "type": "uint64"
        }
      ],
      "name": "ChangePeriodDuration",
      "type": "event"
    },
    {
      "anonymous": false,
      "inputs": [
        {
          "indexed": false,
          "name": "paymentId",
          "type": "uint256"
        }
      ],
      "name": "PaymentFailure",
      "type": "event"
    },
    {
      "anonymous": false,
      "inputs": [
        {
          "indexed": true,
          "name": "executor",
          "type": "address"
        },
        {
          "indexed": false,
          "name": "script",
          "type": "bytes"
        },
        {
          "indexed": false,
          "name": "input",
          "type": "bytes"
        },
        {
          "indexed": false,
          "name": "returnData",
          "type": "bytes"
        }
      ],
      "name": "ScriptResult",
      "type": "event"
    },
    {
      "anonymous": false,
      "inputs": [
        {
          "indexed": true,
          "name": "vault",
          "type": "address"
        },
        {
          "indexed": true,
          "name": "token",
          "type": "address"
        },
        {
          "indexed": false,
          "name": "amount",
          "type": "uint256"
        }
      ],
      "name": "RecoverToVault",
      "type": "event"
    }
  ],
  "bytecode": {
    "object": "0x6080604052620000146200001a60201b60201c565b62000231565b6200002a6200011c60201b60201c565b60408051808201909152601881527f494e49545f414c52454144595f494e495449414c495a454400000000000000006020820152901562000106576040517f08c379a00000000000000000000000000000000000000000000000000000000081526004018080602001828103825283818151815260200191508051906020019080838360005b83811015620000ca578181015183820152602001620000b0565b50505050905090810190601f168015620000f85780820380516001836020036101000a031916815260200191505b509250505060405180910390fd5b506200011a6000196200014f60201b60201c565b565b60006200014a60008051602062004f5e83398151915260001b600019166200022960201b620042001760201c565b905090565b6200015f6200011c60201b60201c565b60408051808201909152601881527f494e49545f414c52454144595f494e495449414c495a4544000000000000000060208201529015620001fe576040517f08c379a000000000000000000000000000000000000000000000000000000000815260040180806020018281038252838181518152602001915080519060200190808383600083811015620000ca578181015183820152602001620000b0565b506200022660008051602062004f5e833981519152826200022d602090811b62004a7517901c565b50565b5490565b9055565b614d1d80620002416000396000f3006080604052600436106101e75760003560e01c63ffffffff1680630803fac0146103f95780630842ace4146104225780631492043814610449578063162a0cf81461049e5780631798de81146104b857806318f053da146104e657806319b7d7bd146105075780632914b9bd146105415780632d00cad3146105b65780633280a836146105d357806332f0a3b51461065157806333ea3dc8146106665780635985feec146106da5780635b14dbc8146106ef5780636436f1891461070457806367047c4a1461071c578063671273f4146107785780636abe602d1461079a57806374bfb426146107cc5780637e7db6e1146107f057806380afdea8146108115780638b3dd749146108265780639297d8601461083b578063981cc3421461085c578063988e6595146108715780639d4941d814610886578063a1658fad146108a7578063a479e5081461090e578063a662944114610923578063b36fec5714610945578063bfe07da61461095a578063cb045a961461097e578063d2d27b4114610996578063d4aae0c4146109dd578063de048a7b146109f2578063de4796ed14610a07578063e90a1b6e14610a1c578063e94ebac514610a40578063eaa7ec6814610a55578063eca8181714610a6a578063f636484614610a8b578063fbfa77cf14610ac4575b6101ef610ad9565b6040805180820190915260148152600080516020614cd2833981519152602082015290151561029f5760405160e560020a62461bcd0281526004018080602001828103825283818151815260200191508051906020019080838360005b8381101561026457818101518382015260200161024c565b50505050905090810190601f1680156102915780820380516001836020036101000a031916815260200191505b509250505060405180910390fd5b5060006102b26102ad610b02565b610b08565b60408051808201909152601b8152600080516020614cb283398151915260208201529091508115156103295760405160e560020a62461bcd0281526004018080602001828103825283818151815260200191508051906020019080838360008381101561026457818101518382015260200161024c565b5060408051808201909152601b81527f46494e414e43455f4445504f5349545f414d4f554e545f5a45524f00000000006020820152600034116103b15760405160e560020a62461bcd0281526004018080602001828103825283818151815260200191508051906020019080838360008381101561026457818101518382015260200161024c565b506103f66000346040805190810160405280601d81526020017f4574686572207472616e7366657220746f2046696e616e636520617070000000815250336001610bef565b50005b34801561040557600080fd5b5061040e610ad9565b604080519115158252519081900360200190f35b34801561042e57600080fd5b50610437610e72565b60408051918252519081900360200190f35b34801561045557600080fd5b50610437600160a060020a036004803582169160248035909116916044359167ffffffffffffffff60643581169260843582169260a4359092169160c435908101910135610ea7565b3480156104aa57600080fd5b506104b66004356114e6565b005b3480156104c457600080fd5b506104b6600160a060020a036004351667ffffffffffffffff602435166116ca565b3480156104f257600080fd5b506104b6600160a060020a0360043516611930565b34801561051357600080fd5b50610528600160a060020a0360043516611b19565b6040805192835290151560208301528051918290030190f35b34801561054d57600080fd5b506040805160206004803580820135601f810184900484028501840190955284845261059a943694929360249392840191908190840183828082843750949750611bc99650505050505050565b60408051600160a060020a039092168252519081900360200190f35b3480156105c257600080fd5b506104b66004356024351515611cac565b3480156105df57600080fd5b506105eb600435611e79565b60408051600160a060020a039a8b168152988a1660208a01528881019790975267ffffffffffffffff9586166060890152938516608088015291841660a0870152151560c086015290911660e08401529092166101008201529051908190036101200190f35b34801561065d57600080fd5b5061059a611fa1565b34801561067257600080fd5b5061067e600435612016565b6040805167ffffffffffffffff998a1681526020810198909852878101969096529387166060870152600160a060020a039283166080870152911660a0850152151560c084015290921660e08201529051908190036101000190f35b3480156106e657600080fd5b50610437612142565b3480156106fb57600080fd5b50610437612177565b34801561071057600080fd5b506104b66004356121ac565b34801561072857600080fd5b5061073e67ffffffffffffffff60043516612366565b60408051951515865267ffffffffffffffff9485166020870152929093168483015260608401526080830191909152519081900360a00190f35b34801561078457600080fd5b506104b667ffffffffffffffff60043516612470565b3480156107a657600080fd5b506107af6126af565b6040805167ffffffffffffffff9092168252519081900360200190f35b3480156107d857600080fd5b506104b6600160a060020a03600435166024356126bf565b3480156107fc57600080fd5b5061040e600160a060020a03600435166128ce565b34801561081d57600080fd5b506104376128df565b34801561083257600080fd5b5061043761290f565b34801561084757600080fd5b506104b6600160a060020a036004351661293a565b34801561086857600080fd5b50610437612b3c565b34801561087d57600080fd5b506107af612b71565b34801561089257600080fd5b506104b6600160a060020a0360043516612bf8565b3480156108b357600080fd5b50604080516020600460443581810135838102808601850190965280855261040e958335600160a060020a0316956024803596369695606495939492019291829185019084908082843750949750612e879650505050505050565b34801561091a57600080fd5b5061059a612fd4565b34801561092f57600080fd5b5061040e67ffffffffffffffff60043516613089565b34801561095157600080fd5b506107af613117565b6104b660048035600160a060020a03169060248035916044359182019101356131a7565b34801561098a57600080fd5b506107af600435613409565b3480156109a257600080fd5b506109c467ffffffffffffffff60043516600160a060020a03602435166134a4565b6040805192835260208301919091528051918290030190f35b3480156109e957600080fd5b5061059a61358b565b3480156109fe57600080fd5b506104376135b6565b348015610a1357600080fd5b5061040e6135bc565b348015610a2857600080fd5b5061040e600160a060020a03600435166024356135cf565b348015610a4c57600080fd5b5061043761365f565b348015610a6157600080fd5b50610437613694565b348015610a7657600080fd5b50610437600160a060020a036004351661369a565b348015610a9757600080fd5b506104b6600160a060020a0360048035821691602480359091169160443591606435908101910135613722565b348015610ad057600080fd5b5061059a613942565b600080610ae461290f565b90508015801590610afc575080610af9613951565b10155b91505090565b60001990565b600080600060086000610b19613955565b67ffffffffffffffff1667ffffffffffffffff1681526020019081526020016000209150610b45613969565b90505b815467ffffffffffffffff6801000000000000000090910481169082161115610be35767ffffffffffffffff84161515610b855760009250610be8565b60018201546000199094019315610bb057600754610baa90600163ffffffff61397b16565b60028301555b8154610bdc90610bd79068010000000000000000900467ffffffffffffffff166001613a0f565b613aaa565b9150610b48565b600192505b5050919050565b610bfb85838686613b92565b600160a060020a0385161515610c955760008054604080517f47e7ef2400000000000000000000000000000000000000000000000000000000815260048101849052602481018890529051600160a060020a03909216926347e7ef24928892604480820193929182900301818588803b158015610c7757600080fd5b505af1158015610c8b573d6000803e3d6000fd5b5050505050610e6b565b8015610d4057610cb6600160a060020a03861633308763ffffffff613ba916565b6040805190810160405280602081526020017f46494e414e43455f544b4e5f5452414e534645525f46524f4d5f524556455254815250901515610d3e5760405160e560020a62461bcd0281526004018080602001828103825283818151815260200191508051906020019080838360008381101561026457818101518382015260200161024c565b505b600054610d6090600160a060020a0387811691168663ffffffff613c2816565b60408051808201909152601a81527f46494e414e43455f544b4e5f415050524f56455f4641494c45440000000000006020820152901515610de65760405160e560020a62461bcd0281526004018080602001828103825283818151815260200191508051906020019080838360008381101561026457818101518382015260200161024c565b5060008054604080517f47e7ef24000000000000000000000000000000000000000000000000000000008152600160a060020a03898116600483015260248201899052915191909216926347e7ef24926044808201939182900301818387803b158015610e5257600080fd5b505af1158015610e66573d6000803e3d6000fd5b505050505b5050505050565b604080517f4352454154455f5041594d454e54535f524f4c450000000000000000000000008152905190819003601401902081565b60008060405180807f4352454154455f5041594d454e54535f524f4c4500000000000000000000000081525060140190506040518091039020610f0c8b8b8b8a67ffffffffffffffff168a67ffffffffffffffff168d67ffffffffffffffff16613c9e565b610f17338383612e87565b60408051808201909152600f8152600080516020614c728339815191526020820152901515610f8b5760405160e560020a62461bcd0281526004018080602001828103825283818151815260200191508051906020019080838360008381101561026457818101518382015260200161024c565b506000610f996102ad610b02565b60408051808201909152601b8152600080516020614cb283398151915260208201529091508115156110105760405160e560020a62461bcd0281526004018080602001828103825283818151815260200191508051906020019080838360008381101561026457818101518382015260200161024c565b5060408051808201909152601f81527f46494e414e43455f4e45575f5041594d454e545f414d4f554e545f5a45524f00602082015260008c116110985760405160e560020a62461bcd0281526004018080602001828103825283818151815260200191508051906020019080838360008381101561026457818101518382015260200161024c565b5060408051808201909152601f81527f46494e414e43455f4e45575f5041594d454e545f494e5452564c5f5a45524f006020820152600067ffffffffffffffff8b161161112a5760405160e560020a62461bcd0281526004018080602001828103825283818151815260200191508051906020019080838360008381101561026457818101518382015260200161024c565b5060408051808201909152601e81527f46494e414e43455f4e45575f5041594d454e545f45584543535f5a45524f00006020820152600067ffffffffffffffff8a16116111bc5760405160e560020a62461bcd0281526004018080602001828103825283818151815260200191508051906020019080838360008381101561026457818101518382015260200161024c565b50600160a060020a038d1660009081526003602052604090205460ff1615806111fd5750600160a060020a038d166000908152600260205260409020548b11155b60408051808201909152600e81527f46494e414e43455f42554447455400000000000000000000000000000000000060208201529015156112835760405160e560020a62461bcd0281526004018080602001828103825283818151815260200191508051906020019080838360008381101561026457818101518382015260200161024c565b508767ffffffffffffffff16600114156113355761129f613969565b60408051808201909152601d81527f46494e414e43455f4e45575f5041594d454e545f494d4d45444941544500000060208201529067ffffffffffffffff908116908c16116113335760405160e560020a62461bcd0281526004018080602001828103825283818151815260200191508051906020019080838360008381101561026457818101518382015260200161024c565b505b60058054600181019091556040805167ffffffffffffffff8b16815260208101828152918101899052919650600160a060020a038e169187917f41e8c14bdf2b044354d788d944b364e1de0b64aeddeba755b8ef69ab68bd9083918c918c918c91606082018484808284376040519201829003965090945050505050a36004600086815260200190815260200160002093508c8460000160006101000a815481600160a060020a030219169083600160a060020a031602179055508b8460010160006101000a815481600160a060020a030219169083600160a060020a031602179055508a8460030181905550898460040160006101000a81548167ffffffffffffffff021916908367ffffffffffffffff160217905550888460040160086101000a81548167ffffffffffffffff021916908367ffffffffffffffff160217905550878460040160106101000a81548167ffffffffffffffff021916908367ffffffffffffffff160217905550338460020160006101000a815481600160a060020a030219169083600160a060020a031602179055506114d585613d7e565b505050505098975050505050505050565b604080517f455845435554455f5041594d454e54535f524f4c45000000000000000000000081528151908190036015019020600083815260046020529190912060030154611535908390613f64565b611540338383612e87565b60408051808201909152600f8152600080516020614c7283398151915260208201529015156115b45760405160e560020a62461bcd0281526004018080602001828103825283818151815260200191508051906020019080838360008381101561026457818101518382015260200161024c565b50826000811180156115c7575060055481105b60408051808201909152601c8152600080516020614c92833981519152602082015290151561163b5760405160e560020a62461bcd0281526004018080602001828103825283818151815260200191508051906020019080838360008381101561026457818101518382015260200161024c565b5060006116496102ad610b02565b60408051808201909152601b8152600080516020614cb283398151915260208201529091508115156116c05760405160e560020a62461bcd0281526004018080602001828103825283818151815260200191508051906020019080838360008381101561026457818101518382015260200161024c565b50610e6b85613fbf565b6116d261290f565b60408051808201909152601881527f494e49545f414c52454144595f494e495449414c495a45440000000000000000602082015290156117575760405160e560020a62461bcd0281526004018080602001828103825283818151815260200191508051906020019080838360008381101561026457818101518382015260200161024c565b506117606140fb565b611769826141c3565b60408051808201909152601a81527f46494e414e43455f5641554c545f4e4f545f434f4e545241435400000000000060208201529015156117ef5760405160e560020a62461bcd0281526004018080602001828103825283818151815260200191508051906020019080838360008381101561026457818101518382015260200161024c565b506000805473ffffffffffffffffffffffffffffffffffffffff1916600160a060020a03841617905560408051808201909152601c81527f46494e414e43455f5345545f504552494f445f544f4f5f53484f52540000000060208201526201518067ffffffffffffffff831610156118ac5760405160e560020a62461bcd0281526004018080602001828103825283818151815260200191508051906020019080838360008381101561026457818101518382015260200161024c565b506001805467ffffffffffffffff831667ffffffffffffffff199091161781556000805260046020527f17ef568e3e12ab5b9c7254a8d58478811de00f9e6eb34345acd53bf8fd09d3ee805474ff0000000000000000000000000000000000000000191660a060020a179055600581905560075561192b610bd7613969565b505050565b604080517f4348414e47455f425544474554535f524f4c450000000000000000000000000081528151908190036013019020600160a060020a0383166000908152600260209081528382205460039091529281205491926119a8928592919060ff1661199d5760006119a0565b60015b60ff166141e9565b6119b3338383612e87565b60408051808201909152600f8152600080516020614c728339815191526020820152901515611a275760405160e560020a62461bcd0281526004018080602001828103825283818151815260200191508051906020019080838360008381101561026457818101518382015260200161024c565b506000611a356102ad610b02565b60408051808201909152601b8152600080516020614cb28339815191526020820152909150811515611aac5760405160e560020a62461bcd0281526004018080602001828103825283818151815260200191508051906020019080838360008381101561026457818101518382015260200161024c565b50600160a060020a038416600081815260026020908152604080832083905560038252808320805460ff1916905580518381529182019290925281517f6e768d8fe4a1460cae6d5af9382c3e9abbc41f66f2ec91fda24b12e3c2796f03929181900390910190a250505050565b600080611b24610ad9565b6040805180820190915260148152600080516020614cd28339815191526020820152901515611b985760405160e560020a62461bcd0281526004018080602001828103825283818151815260200191508051906020019080838360008381101561026457818101518382015260200161024c565b505050600160a060020a0316600090815260026020908152604080832054600390925290912054909160ff90911690565b6000611bd3612fd4565b600160a060020a03166304bf2a7f836040518263ffffffff1660e01b81526004018080602001828103825283818151815260200191508051906020019080838360005b83811015611c2e578181015183820152602001611c16565b50505050905090810190601f168015611c5b5780820380516001836020036101000a031916815260200191505b5092505050602060405180830381600087803b158015611c7a57600080fd5b505af1158015611c8e573d6000803e3d6000fd5b505050506040513d6020811015611ca457600080fd5b505192915050565b604080517f4d414e4147455f5041594d454e54535f524f4c4500000000000000000000000081529051908190036014019020611cf98383611cee576000611cf1565b60015b60ff16613f64565b611d04338383612e87565b60408051808201909152600f8152600080516020614c728339815191526020820152901515611d785760405160e560020a62461bcd0281526004018080602001828103825283818151815260200191508051906020019080838360008381101561026457818101518382015260200161024c565b5083600081118015611d8b575060055481105b60408051808201909152601c8152600080516020614c928339815191526020820152901515611dff5760405160e560020a62461bcd0281526004018080602001828103825283818151815260200191508051906020019080838360008381101561026457818101518382015260200161024c565b50600085815260046020908152604091829020600201805474ff00000000000000000000000000000000000000001916871560a060020a810291909117909155825190158152915187927faca91836ee6e44bf1c422f7ee89afb243a4fb775d9fe87150ff5f8e566dc161292908290030190a25050505050565b6000806000806000806000806000808a600081118015611e9a575060055481105b60408051808201909152601c8152600080516020614c928339815191526020820152901515611f0e5760405160e560020a62461bcd0281526004018080602001828103825283818151815260200191508051906020019080838360008381101561026457818101518382015260200161024c565b5050506000998a5250506004602081905260409098208054600182015460038301549a830154600290930154600160a060020a039283169c9183169b9a5067ffffffffffffffff8085169a506801000000000000000085048116995070010000000000000000000000000000000085048116985060ff60a060020a830416975060c060020a909404909316945091169150565b6000611fab61358b565b600160a060020a03166332f0a3b56040518163ffffffff1660e01b8152600401602060405180830381600087803b158015611fe557600080fd5b505af1158015611ff9573d6000803e3d6000fd5b505050506040513d602081101561200f57600080fd5b5051905090565b600080600080600080600080600089600081118015612036575060075481105b60408051808201909152601681527f46494e414e43455f4e4f5f5452414e53414354494f4e0000000000000000000060208201529015156120bc5760405160e560020a62461bcd0281526004018080602001828103825283818151815260200191508051906020019080838360008381101561026457818101518382015260200161024c565b50505060009889525050600660205250506040909420805460018201546004830154600284015460039094015467ffffffffffffffff700100000000000000000000000000000000830481169a9599509097508082169650600160a060020a0393841695509282169360a060020a90920460ff1692680100000000000000009091041690565b604080517f4348414e47455f504552494f445f524f4c4500000000000000000000000000008152905190819003601201902081565b604080517f4348414e47455f425544474554535f524f4c45000000000000000000000000008152905190819003601301902081565b806000811180156121be575060055481105b60408051808201909152601c8152600080516020614c9283398151915260208201529015156122325760405160e560020a62461bcd0281526004018080602001828103825283818151815260200191508051906020019080838360008381101561026457818101518382015260200161024c565b5060006122406102ad610b02565b60408051808201909152601b8152600080516020614cb283398151915260208201529091508115156122b75760405160e560020a62461bcd0281526004018080602001828103825283818151815260200191508051906020019080838360008381101561026457818101518382015260200161024c565b50600083815260046020908152604091829020600101548251808401909352601883527f46494e414e43455f5041594d454e545f5245434549564552000000000000000091830191909152600160a060020a0316331461235c5760405160e560020a62461bcd0281526004018080602001828103825283818151815260200191508051906020019080838360008381101561026457818101518382015260200161024c565b5061192b83613fbf565b60095460408051808201909152601181527f46494e414e43455f4e4f5f504552494f44000000000000000000000000000000602082015260009182918291829182918291889167ffffffffffffffff9081169083161061240b5760405160e560020a62461bcd0281526004018080602001828103825283818151815260200191508051906020019080838360008381101561026457818101518382015260200161024c565b5067ffffffffffffffff88166000818152600860205260409020925061242f613955565b8354600185015460029095015467ffffffffffffffff928316939093149b8183169b5068010000000000000000909104909116985092965094509092505050565b604080517f4348414e47455f504552494f445f524f4c450000000000000000000000000000815290519081900360120190206001546124bc9067ffffffffffffffff8085169116613f64565b6124c7338383612e87565b60408051808201909152600f8152600080516020614c72833981519152602082015290151561253b5760405160e560020a62461bcd0281526004018080602001828103825283818151815260200191508051906020019080838360008381101561026457818101518382015260200161024c565b5060006125496102ad610b02565b60408051808201909152601b8152600080516020614cb283398151915260208201529091508115156125c05760405160e560020a62461bcd0281526004018080602001828103825283818151815260200191508051906020019080838360008381101561026457818101518382015260200161024c565b5060408051808201909152601c81527f46494e414e43455f5345545f504552494f445f544f4f5f53484f52540000000060208201526201518067ffffffffffffffff861610156126555760405160e560020a62461bcd0281526004018080602001828103825283818151815260200191508051906020019080838360008381101561026457818101518382015260200161024c565b506001805467ffffffffffffffff861667ffffffffffffffff19909116811790915560408051918252517fa32389dd0d5a3bf7cc635f8c30fee3b70d06a6c547d6dbf31628378ee267bfc99181900360200190a150505050565b60095467ffffffffffffffff1681565b604080517f4348414e47455f425544474554535f524f4c450000000000000000000000000081528151908190036013019020600160a060020a03841660009081526002602090815283822054600390915292902054909161272c918591859160ff1661199d5760006119a0565b612737338383612e87565b60408051808201909152600f8152600080516020614c7283398151915260208201529015156127ab5760405160e560020a62461bcd0281526004018080602001828103825283818151815260200191508051906020019080838360008381101561026457818101518382015260200161024c565b5060006127b96102ad610b02565b60408051808201909152601b8152600080516020614cb283398151915260208201529091508115156128305760405160e560020a62461bcd0281526004018080602001828103825283818151815260200191508051906020019080838360008381101561026457818101518382015260200161024c565b50600160a060020a0385166000908152600260209081526040808320879055600390915290205460ff16151561288457600160a060020a0385166000908152600360205260409020805460ff191660011790555b60408051858152600160208201528151600160a060020a038816927f6e768d8fe4a1460cae6d5af9382c3e9abbc41f66f2ec91fda24b12e3c2796f03928290030190a25050505050565b60006128d8610ad9565b1592915050565b600061290a7fd625496217aa6a3453eecb9c3489dc5a53e6c67b444329ea2b2cbc9ff547639b614200565b905090565b600061290a7febb05b386a8d34882b8711d156f463690983dc47815980fb82aeeff1aa43579e614200565b6000612944610ad9565b6040805180820190915260148152600080516020614cd283398151915260208201529015156129b85760405160e560020a62461bcd0281526004018080602001828103825283818151815260200191508051906020019080838360008381101561026457818101518382015260200161024c565b5060006129c66102ad610b02565b60408051808201909152601b8152600080516020614cb28339815191526020820152909150811515612a3d5760405160e560020a62461bcd0281526004018080602001828103825283818151815260200191508051906020019080838360008381101561026457818101518382015260200161024c565b50600160a060020a03831615612a6b57612a66600160a060020a0384163063ffffffff61420816565b612a6e565b30315b60408051808201909152601b81527f46494e414e43455f5245434f5645525f414d4f554e545f5a45524f0000000000602082015290925060008311612af85760405160e560020a62461bcd0281526004018080602001828103825283818151815260200191508051906020019080838360008381101561026457818101518382015260200161024c565b5061192b83836040805190810160405280601081526020017f5265636f76657220746f205661756c7400000000000000000000000000000000815250306000610bef565b604080517f455845435554455f5041594d454e54535f524f4c4500000000000000000000008152905190819003601501902081565b6000612b7b610ad9565b6040805180820190915260148152600080516020614cd28339815191526020820152901515612bef5760405160e560020a62461bcd0281526004018080602001828103825283818151815260200191508051906020019080838360008381101561026457818101518382015260200161024c565b5061290a613955565b6000806000612c06846128ce565b60408051808201909152601281527f5245434f5645525f444953414c4c4f57454400000000000000000000000000006020820152901515612c8c5760405160e560020a62461bcd0281526004018080602001828103825283818151815260200191508051906020019080838360008381101561026457818101518382015260200161024c565b50612c95611fa1565b9250612ca0836141c3565b60408051808201909152601a81527f5245434f5645525f5641554c545f4e4f545f434f4e54524143540000000000006020820152901515612d265760405160e560020a62461bcd0281526004018080602001828103825283818151815260200191508051906020019080838360008381101561026457818101518382015260200161024c565b50600160a060020a0384161515612d775760405130319250600160a060020a0384169083156108fc029084906000818181858888f19350505050158015612d71573d6000803e3d6000fd5b50612e36565b5082612d92600160a060020a0382163063ffffffff61420816565b9150612dae600160a060020a038216848463ffffffff61430816565b60408051808201909152601d81527f5245434f5645525f544f4b454e5f5452414e534645525f4641494c45440000006020820152901515612e345760405160e560020a62461bcd0281526004018080602001828103825283818151815260200191508051906020019080838360008381101561026457818101518382015260200161024c565b505b83600160a060020a031683600160a060020a03167f596caf56044b55fb8c4ca640089bbc2b63cae3e978b851f5745cbb7c5b288e02846040518082815260200191505060405180910390a350505050565b600080612e92610ad9565b1515612ea15760009150612fcc565b612ea961358b565b9050600160a060020a0381161515612ec45760009150612fcc565b80600160a060020a031663fdef9106863087612edf88614375565b60405163ffffffff861660e01b8152600160a060020a03808616600483019081529085166024830152604482018490526080606483019081528351608484015283519192909160a490910190602085019080838360005b83811015612f4e578181015183820152602001612f36565b50505050905090810190601f168015612f7b5780820380516001836020036101000a031916815260200191505b5095505050505050602060405180830381600087803b158015612f9d57600080fd5b505af1158015612fb1573d6000803e3d6000fd5b505050506040513d6020811015612fc757600080fd5b505191505b509392505050565b600080612fdf61358b565b604080517fbe00bbd80000000000000000000000000000000000000000000000000000000081527fd6f028ca0e8edb4a8c9757ca4fdccab25fa1e0317da1188108f7d2dee14902fb60048201527fddbcfd564f642ab5627cf68b9b7d374fb4f8a36e941a75d89c87998cef03bd6160248201529051600160a060020a03929092169163be00bbd8916044808201926020929091908290030181600087803b158015611c7a57600080fd5b6000613093610ad9565b6040805180820190915260148152600080516020614cd283398151915260208201529015156131075760405160e560020a62461bcd0281526004018080602001828103825283818151815260200191508051906020019080838360008381101561026457818101518382015260200161024c565b5061311182610b08565b92915050565b6000613121610ad9565b6040805180820190915260148152600080516020614cd283398151915260208201529015156131955760405160e560020a62461bcd0281526004018080602001828103825283818151815260200191508051906020019080838360008381101561026457818101518382015260200161024c565b505060015467ffffffffffffffff1690565b6131af610ad9565b6040805180820190915260148152600080516020614cd283398151915260208201529015156132235760405160e560020a62461bcd0281526004018080602001828103825283818151815260200191508051906020019080838360008381101561026457818101518382015260200161024c565b5060006132316102ad610b02565b60408051808201909152601b8152600080516020614cb283398151915260208201529091508115156132a85760405160e560020a62461bcd0281526004018080602001828103825283818151815260200191508051906020019080838360008381101561026457818101518382015260200161024c565b5060408051808201909152601b81527f46494e414e43455f4445504f5349545f414d4f554e545f5a45524f00000000006020820152600085116133305760405160e560020a62461bcd0281526004018080602001828103825283818151815260200191508051906020019080838360008381101561026457818101518382015260200161024c565b50600160a060020a03851615156133c95760408051808201909152601a81527f46494e414e43455f4554485f56414c55455f4d49534d4154434800000000000060208201523485146133c75760405160e560020a62461bcd0281526004018080602001828103825283818151815260200191508051906020019080838360008381101561026457818101518382015260200161024c565b505b610e6b858585858080601f016020809104026020016040519081016040528093929190818152602001838380828437820191505050505050336001610bef565b60008160008111801561341d575060055481105b60408051808201909152601c8152600080516020614c9283398151915260208201529015156134915760405160e560020a62461bcd0281526004018080602001828103825283818151815260200191508051906020019080838360008381101561026457818101518382015260200161024c565b5061349b8361437f565b91505b50919050565b60095460408051808201909152601181527f46494e414e43455f4e4f5f504552494f4400000000000000000000000000000060208201526000918291829186919067ffffffffffffffff908116908316106135445760405160e560020a62461bcd0281526004018080602001828103825283818151815260200191508051906020019080838360008381101561026457818101518382015260200161024c565b5050505067ffffffffffffffff929092166000908152600860209081526040808320600160a060020a03949094168352600390930190522080546001909101549092909150565b600061290a7f4172f0f7d2289153072b0a6ca36959e0cbe2efc3afe50fc81636caa96338137b614200565b60055481565b60006000196135c961290f565b14905090565b60006135d9610ad9565b6040805180820190915260148152600080516020614cd2833981519152602082015290151561364d5760405160e560020a62461bcd0281526004018080602001828103825283818151815260200191508051906020019080838360008381101561026457818101518382015260200161024c565b50613658838361441e565b9392505050565b604080517f4d414e4147455f5041594d454e54535f524f4c450000000000000000000000008152905190819003601401902081565b60075481565b60006136a4610ad9565b6040805180820190915260148152600080516020614cd283398151915260208201529015156137185760405160e560020a62461bcd0281526004018080602001828103825283818151815260200191508051906020019080838360008381101561026457818101518382015260200161024c565b50613111826144d5565b604080517f4352454154455f5041594d454e54535f524f4c450000000000000000000000008152905190819003601401902061376c8686866000196001613767614579565b613c9e565b613777338383612e87565b60408051808201909152600f8152600080516020614c7283398151915260208201529015156137eb5760405160e560020a62461bcd0281526004018080602001828103825283818151815260200191508051906020019080838360008381101561026457818101518382015260200161024c565b5060006137f96102ad610b02565b60408051808201909152601b8152600080516020614cb283398151915260208201529091508115156138705760405160e560020a62461bcd0281526004018080602001828103825283818151815260200191508051906020019080838360008381101561026457818101518382015260200161024c565b5060408051808201909152601f81527f46494e414e43455f4e45575f5041594d454e545f414d4f554e545f5a45524f006020820152600087116138f85760405160e560020a62461bcd0281526004018080602001828103825283818151815260200191508051906020019080838360008381101561026457818101518382015260200161024c565b506139388888886000808a8a8080601f0160208091040260200160405190810160405280939291908181526020018383808284375061457d945050505050565b5050505050505050565b600054600160a060020a031681565b4390565b60095467ffffffffffffffff166000190190565b600061290a613976614579565b614624565b60408051808201909152601281527f4d4154485f5355425f554e444552464c4f5700000000000000000000000000006020820152600090819084841115613a075760405160e560020a62461bcd0281526004018080602001828103825283818151815260200191508051906020019080838360008381101561026457818101518382015260200161024c565b505050900390565b60408051808201909152601381527f4d41544836345f4144445f4f564552464c4f570000000000000000000000000060208201526000908383019067ffffffffffffffff8086169083161015612fcc5760405160e560020a62461bcd0281526004018080602001828103825283818151815260200191508051906020019080838360008381101561026457818101518382015260200161024c565b6009805467ffffffffffffffff8082166001818101831667ffffffffffffffff1994851617909455600081815260086020526040812080548785169516851781559454909491939192600019918116870191909101919082161015613b0e57506000195b81546fffffffffffffffff000000000000000019166801000000000000000067ffffffffffffffff83811682029290921780855560408051828516815292909104831660208301528051928616927fe183df4530c4b573af76d47f020d4b86e418cef40ed4c9ce924b563e791b832c9281900390910190a28193505b505050919050565b613ba36001858585600080876146bd565b50505050565b60408051600160a060020a038581166024830152841660448201526064808201849052825180830390910181526084909101909152602081018051600160e060020a03167f23b872dd00000000000000000000000000000000000000000000000000000000179052600090613c1e8682614984565b9695505050505050565b60408051600160a060020a03841660248201526044808201849052825180830390910181526064909101909152602081018051600160e060020a03167f095ea7b300000000000000000000000000000000000000000000000000000000179052600090613c958582614984565b95945050505050565b60408051600680825260e082019092526060916020820160c08038833901905050905086600160a060020a0316816000815181101515613cda57fe5b602090810290910101528051600160a060020a0387169082906001908110613cfe57fe5b602090810290910101528051859082906002908110613d1957fe5b602090810290910101528051849082906003908110613d3457fe5b602090810290910101528051839082906004908110613d4f57fe5b602090810290910101528051829082906005908110613d6a57fe5b602090810290910101529695505050505050565b600081815260046020908152604080832060028101548251808401909352601883527f46494e414e43455f5041594d454e545f494e4143544956450000000000000000938301939093529183919060a060020a900460ff1615613e265760405160e560020a62461bcd0281526004018080602001828103825283818151815260200191508051906020019080838360008381101561026457818101518382015260200161024c565b50600090505b613e34613969565b67ffffffffffffffff16613e478561437f565b67ffffffffffffffff1611158015613e69575060148167ffffffffffffffff16105b15613f535781546003830154613e8891600160a060020a03169061441e565b1515613ec6576040805185815290517f5f352e4123f4620cacbb8eb0dd683705aaa3e1f9384adbbd85b665b205097f519181900360200190a1613f53565b60048201805467ffffffffffffffff60c060020a808304821660019081018316820277ffffffffffffffffffffffffffffffffffffffffffffffff909416939093179384905585548684015460038801546040805160208101909152600081529790950196613f4e96600160a060020a0393841696929093169491938b9304909116906149d2565b613e2c565b67ffffffffffffffff169392505050565b604080516002808252606080830184529260208301908038833901905050905082816000815181101515613f9457fe5b602090810290910101528051829082906001908110613faf57fe5b6020908102909101015292915050565b6000613fca82613d7e565b90508015156140f757613fdb613969565b67ffffffffffffffff16613fee8361437f565b67ffffffffffffffff161161407a57604080518082018252601b81527f46494e414e43455f455845435554455f5041594d454e545f4e554d00000000006020808301918252925160e560020a62461bcd0281526004810193845282516024820152825192939283926044909201919080838360008381101561026457818101518382015260200161024c565b604080518082018252601c81527f46494e414e43455f455845435554455f5041594d454e545f54494d45000000006020808301918252925160e560020a62461bcd0281526004810193845282516024820152825192939283926044909201919080838360008381101561026457818101518382015260200161024c565b5050565b61410361290f565b60408051808201909152601881527f494e49545f414c52454144595f494e495449414c495a45440000000000000000602082015290156141885760405160e560020a62461bcd0281526004018080602001828103825283818151815260200191508051906020019080838360008381101561026457818101518382015260200161024c565b506141c1614194613951565b7febb05b386a8d34882b8711d156f463690983dc47815980fb82aeeff1aa43579e9063ffffffff614a7516565b565b600080600160a060020a03831615156141df576000915061349e565b50506000903b1190565b6060613c9585600160a060020a0316858585614a79565b5490565b5490565b60408051600160a060020a038316602480830191909152825180830390910181526044909101909152602081018051600160e060020a03167f70a082310000000000000000000000000000000000000000000000000000000017905260009081806142738684614b0f565b60408051808201909152601c81527f534146455f4552435f32305f42414c414e43455f524556455254454400000000602082015291935091508215156142fe5760405160e560020a62461bcd0281526004018080602001828103825283818151815260200191508051906020019080838360008381101561026457818101518382015260200161024c565b5095945050505050565b60408051600160a060020a03841660248201526044808201849052825180830390910181526064909101909152602081018051600160e060020a03167fa9059cbb00000000000000000000000000000000000000000000000000000000179052600090613c958582614984565b8051602002815290565b60008181526004602081905260408220908101548290819067ffffffffffffffff7001000000000000000000000000000000008204811660c060020a90920416106143ce576000199350613b8a565b60048301546143fc9067ffffffffffffffff60c060020a820481169168010000000000000000900416614b40565b6004840154909250613c959067ffffffffffffffff168363ffffffff613a0f16565b60008161442a846144d5565b10158015613658575060008054604080517fe3d670d7000000000000000000000000000000000000000000000000000000008152600160a060020a03878116600483015291518694929093169263e3d670d792602480840193602093929083900390910190829087803b1580156144a057600080fd5b505af11580156144b4573d6000803e3d6000fd5b505050506040513d60208110156144ca57600080fd5b505110159392505050565b600160a060020a0381166000908152600360205260408120548190819060ff161515614505576000199250610be8565b600160a060020a038416600090815260026020526040812054925060089061452b613955565b67ffffffffffffffff16815260208082019290925260409081016000908120600160a060020a038816825260030190925290205490508181106145715760009250610be8565b900392915050565b4290565b83614587876144d5565b60408051808201909152601881527f46494e414e43455f52454d41494e494e475f4255444745540000000000000000602082015291111561460d5760405160e560020a62461bcd0281526004018080602001828103825283818151815260200191508051906020019080838360008381101561026457818101518382015260200161024c565b5061461c8686868686866149d2565b505050505050565b60408051808201909152601581527f55494e5436345f4e554d4245525f544f4f5f4249470000000000000000000000602082015260009067ffffffffffffffff8311156146b65760405160e560020a62461bcd0281526004018080602001828103825283818151815260200191508051906020019080838360008381101561026457818101518382015260200161024c565b5090919050565b60008060008060006146cd613955565b9450600860008667ffffffffffffffff1667ffffffffffffffff16815260200190815260200160002060030160008c600160a060020a0316600160a060020a0316815260200190815260200160002093508b15614743576001840154614739908a63ffffffff614be316565b6001850155614758565b8354614755908a63ffffffff614be316565b84555b600760008154809291906001019190505592506006600084815260200190815260200160002091508a8260000160006101000a815481600160a060020a030219169083600160a060020a03160217905550898260010160006101000a815481600160a060020a030219169083600160a060020a031602179055508b8260010160146101000a81548160ff021916908315150217905550888260020181905550878260030181905550868260040160006101000a81548167ffffffffffffffff021916908367ffffffffffffffff160217905550614833613969565b6004830180546fffffffffffffffff000000000000000019166801000000000000000067ffffffffffffffff938416021777ffffffffffffffff0000000000000000000000000000000019167001000000000000000000000000000000009288169283021790556000908152600860205260409020600181015490915015156148be57600181018390555b89600160a060020a0316837f5b2c6f4cb53711ae51d600df17fa68f8239b4a704f766c99642f667d1d7bd40e8e8c8a604051808415151515815260200183815260200180602001828103825283818151815260200191508051906020019080838360005b8381101561493a578181015183820152602001614922565b50505050905090810190601f1680156149675780820380516001836020036101000a031916815260200191505b5094505050505060405180910390a3505050505050505050505050565b6000806040516020818551602087016000895af160008111156149c8573d80156149b557602081146149be576149c6565b600193506149c6565b600183511493505b505b5090949350505050565b6149e260008787878787876146bd565b60008054604080517fbeabacc8000000000000000000000000000000000000000000000000000000008152600160a060020a038a811660048301528981166024830152604482018990529151919092169263beabacc8926064808201939182900301818387803b158015614a5557600080fd5b505af1158015614a69573d6000803e3d6000fd5b50505050505050505050565b9055565b60408051600480825260a082019092526060916020820160808038833901905050905084816000815181101515614aac57fe5b602090810290910101528051849082906001908110614ac757fe5b602090810290910101528051839082906002908110614ae257fe5b602090810290910101528051829082906003908110614afd57fe5b60209081029091010152949350505050565b6000806000806040516020818751602089018a5afa92506000831115614b3457805191505b50909590945092505050565b60408051808201909152601381527f4d41544836345f4d554c5f4f564552464c4f5700000000000000000000000000602082015260009067ffffffffffffffff8481169084160290680100000000000000008210612fcc5760405160e560020a62461bcd0281526004018080602001828103825283818151815260200191508051906020019080838360008381101561026457818101518382015260200161024c565b60408051808201909152601181527f4d4154485f4144445f4f564552464c4f5700000000000000000000000000000060208201526000908383019084821015612fcc5760405160e560020a62461bcd0281526004018080602001828103825283818151815260200191508051906020019080838360008381101561026457818101518382015260200161024c56004150505f415554485f4641494c4544000000000000000000000000000000000046494e414e43455f4e4f5f5343484544554c45445f5041594d454e540000000046494e414e43455f434f4d504c4554455f5452414e534954494f4e0000000000494e49545f4e4f545f494e495449414c495a4544000000000000000000000000a165627a7a72305820fd2fd2abfe1267d980c2fb0c514d5d9451b769f33d635becd17716d2e1c25c100029ebb05b386a8d34882b8711d156f463690983dc47815980fb82aeeff1aa43579e",
    "linkReferences": {}
  },
  "methodIdentifiers": {
    "CHANGE_BUDGETS_ROLE()": "5b14dbc8",
    "CHANGE_PERIOD_ROLE()": "5985feec",
    "CREATE_PAYMENTS_ROLE()": "0842ace4",
    "EXECUTE_PAYMENTS_ROLE()": "981cc342",
    "MANAGE_PAYMENTS_ROLE()": "e94ebac5",
    "allowRecoverability(address)": "7e7db6e1",
    "appId()": "80afdea8",
    "canMakePayment(address,uint256)": "e90a1b6e",
    "canPerform(address,bytes32,uint256[])": "a1658fad",
    "currentPeriodId()": "988e6595",
    "deposit(address,uint256,string)": "bfe07da6",
    "executePayment(uint256)": "162a0cf8",
    "getBudget(address)": "19b7d7bd",
    "getEVMScriptExecutor(bytes)": "2914b9bd",
    "getEVMScriptRegistry()": "a479e508",
    "getInitializationBlock()": "8b3dd749",
    "getPayment(uint256)": "3280a836",
    "getPeriod(uint64)": "67047c4a",
    "getPeriodDuration()": "b36fec57",
    "getPeriodTokenStatement(uint64,address)": "d2d27b41",
    "getRecoveryVault()": "32f0a3b5",
    "getRemainingBudget(address)": "eca81817",
    "getTransaction(uint256)": "33ea3dc8",
    "hasInitialized()": "0803fac0",
    "initialize(address,uint64)": "1798de81",
    "isPetrified()": "de4796ed",
    "kernel()": "d4aae0c4",
    "newImmediatePayment(address,address,uint256,string)": "f6364846",
    "newScheduledPayment(address,address,uint256,uint64,uint64,uint64,string)": "14920438",
    "nextPaymentTime(uint256)": "cb045a96",
    "paymentsNextIndex()": "de048a7b",
    "periodsLength()": "6abe602d",
    "receiverExecutePayment(uint256)": "6436f189",
    "recoverToVault(address)": "9297d860",
    "removeBudget(address)": "18f053da",
    "setBudget(address,uint256)": "74bfb426",
    "setPaymentStatus(uint256,bool)": "2d00cad3",
    "setPeriodDuration(uint64)": "671273f4",
    "transactionsNextIndex()": "eaa7ec68",
    "transferToVault(address)": "9d4941d8",
    "tryTransitionAccountingPeriod(uint64)": "a6629441",
    "vault()": "fbfa77cf"
  },
  "storageLayout": {
    "storage": [],
    "types": {}
  },
  "id": 39
}