{
  "abi": [
    {
      "inputs": [
        {
          "internalType": "address",
          "name": "_voting",
          "type": "address"
        },
        {
          "internalType": "address",
          "name": "_oracle",
          "type": "address"
        }
      ],
      "stateMutability": "nonpayable",
      "type": "constructor"
    },
    {
      "anonymous": false,
      "inputs": [
        {
          "indexed": true,
          "internalType": "address",
          "name": "callback",
          "type": "address"
        },
        {
          "indexed": false,
          "internalType": "uint256",
          "name": "atIndex",
          "type": "uint256"
        }
      ],
      "name": "CallbackAdded",
      "type": "event"
    },
    {
      "anonymous": false,
      "inputs": [
        {
          "indexed": true,
          "internalType": "address",
          "name": "callback",
          "type": "address"
        },
        {
          "indexed": false,
          "internalType": "uint256",
          "name": "atIndex",
          "type": "uint256"
        }
      ],
      "name": "CallbackRemoved",
      "type": "event"
    },
    {
      "inputs": [],
      "name": "MAX_CALLBACKS_COUNT",
      "outputs": [
        {
          "internalType": "uint256",
          "name": "",
          "type": "uint256"
        }
      ],
      "stateMutability": "view",
      "type": "function"
    },
    {
      "inputs": [],
      "name": "ORACLE",
      "outputs": [
        {
          "internalType": "address",
          "name": "",
          "type": "address"
        }
      ],
      "stateMutability": "view",
      "type": "function"
    },
    {
      "inputs": [],
      "name": "REQUIRED_INTERFACE",
      "outputs": [
        {
          "internalType": "bytes4",
          "name": "",
          "type": "bytes4"
        }
      ],
      "stateMutability": "view",
      "type": "function"
    },
    {
      "inputs": [],
      "name": "VOTING",
      "outputs": [
        {
          "internalType": "address",
          "name": "",
          "type": "address"
        }
      ],
      "stateMutability": "view",
      "type": "function"
    },
    {
      "inputs": [
        {
          "internalType": "address",
          "name": "_callback",
          "type": "address"
        }
      ],
      "name": "addCallback",
      "outputs": [],
      "stateMutability": "nonpayable",
      "type": "function"
    },
    {
      "inputs": [
        {
          "internalType": "uint256",
          "name": "",
          "type": "uint256"
        }
      ],
      "name": "callbacks",
      "outputs": [
        {
          "internalType": "address",
          "name": "",
          "type": "address"
        }
      ],
      "stateMutability": "view",
      "type": "function"
    },
    {
      "inputs": [],
      "name": "callbacksLength",
      "outputs": [
        {
          "internalType": "uint256",
          "name": "",
          "type": "uint256"
        }
      ],
      "stateMutability": "view",
      "type": "function"
    },
    {
      "inputs": [
        {
          "internalType": "address",
          "name": "_callback",
          "type": "address"
        },
        {
          "internalType": "uint256",
          "name": "_atIndex",
          "type": "uint256"
        }
      ],
      "name": "insertCallback",
      "outputs": [],
      "stateMutability": "nonpayable",
      "type": "function"
    },
    {
      "inputs": [
        {
          "internalType": "uint256",
          "name": "_postTotalPooledEther",
          "type": "uint256"
        },
        {
          "internalType": "uint256",
          "name": "_preTotalPooledEther",
          "type": "uint256"
        },
        {
          "internalType": "uint256",
          "name": "_timeElapsed",
          "type": "uint256"
        }
      ],
      "name": "processLidoOracleReport",
      "outputs": [],
      "stateMutability": "nonpayable",
      "type": "function"
    },
    {
      "inputs": [
        {
          "internalType": "uint256",
          "name": "_atIndex",
          "type": "uint256"
        }
      ],
      "name": "removeCallback",
      "outputs": [],
      "stateMutability": "nonpayable",
      "type": "function"
    },
    {
      "inputs": [
        {
          "internalType": "bytes4",
          "name": "_interfaceId",
          "type": "bytes4"
        }
      ],
      "name": "supportsInterface",
      "outputs": [
        {
          "internalType": "bool",
          "name": "",
          "type": "bool"
        }
      ],
      "stateMutability": "view",
      "type": "function"
    }
  ],
  "bytecode": {
    "object": "0x60e060405234801561001057600080fd5b50604051610db6380380610db683398101604081905261002f91610133565b816334212e5f60e01b610046565b60405180910390fd5b6001600160a01b03821661009c5760405162461bcd60e51b815260206004820152601360248201527f564f54494e475f5a45524f5f4144445245535300000000000000000000000000604482015260640161003d565b6001600160a01b039182166080526001600160e01b03191660a05281166101055760405162461bcd60e51b815260206004820152601360248201527f4f5241434c455f5a45524f5f4144445245535300000000000000000000000000604482015260640161003d565b6001600160a01b031660c05250610166565b80516001600160a01b038116811461012e57600080fd5b919050565b6000806040838503121561014657600080fd5b61014f83610117565b915061015d60208401610117565b90509250929050565b60805160a05160c051610bfe6101b86000396000818161016a01526102c80152600081816101ac015261065501526000818161011b01528181610266015281816103f001526105ad0152610bfe6000f3fe608060405234801561001057600080fd5b50600436106100a85760003560e01c806334212e5f1161007157806334212e5f1461015257806338013f021461016557806391b336141461018c5780639fb56ad214610194578063d92f7c0f146101a7578063fd2f1a44146101e757600080fd5b8062e0d3b5146100ad57806301ffc9a7146100dd578063059c847914610100578063269e1d1a14610116578063336578361461013d575b600080fd5b6100c06100bb3660046109c1565b6101fa565b6040516001600160a01b0390911681526020015b60405180910390f35b6100f06100eb3660046109da565b610224565b60405190151581526020016100d4565b610108601081565b6040519081526020016100d4565b6100c07f000000000000000000000000000000000000000000000000000000000000000081565b61015061014b366004610a20565b61025b565b005b610150610160366004610a3b565b6102bd565b6100c07f000000000000000000000000000000000000000000000000000000000000000081565b600054610108565b6101506101a23660046109c1565b6103e5565b6101ce7f000000000000000000000000000000000000000000000000000000000000000081565b6040516001600160e01b031990911681526020016100d4565b6101506101f5366004610a67565b6105a2565b6000818154811061020a57600080fd5b6000918252602090912001546001600160a01b0316905081565b60006001600160e01b031982166334212e5f60e01b148061025557506301ffc9a760e01b6001600160e01b03198316145b92915050565b336001600160a01b037f000000000000000000000000000000000000000000000000000000000000000016146102ac5760405162461bcd60e51b81526004016102a390610a91565b60405180910390fd5b6000546102ba9082906105f8565b50565b336001600160a01b037f000000000000000000000000000000000000000000000000000000000000000016146103355760405162461bcd60e51b815260206004820152601960248201527f4d53475f53454e4445525f4d5553545f42455f4f5241434c450000000000000060448201526064016102a3565b60008054905b818110156103de576000818154811061035657610356610ac8565b6000918252602090912001546040516334212e5f60e01b81526004810187905260248101869052604481018590526001600160a01b03909116906334212e5f90606401600060405180830381600087803b1580156103b357600080fd5b505af11580156103c7573d6000803e3d6000fd5b5050505080806103d690610af4565b91505061033b565b5050505050565b336001600160a01b037f0000000000000000000000000000000000000000000000000000000000000000161461042d5760405162461bcd60e51b81526004016102a390610a91565b6000548082106104775760405162461bcd60e51b8152602060048201526015602482015274494e4445585f49535f4f55545f4f465f52414e474560581b60448201526064016102a3565b6000828154811061048a5761048a610ac8565b600091825260209182902001546040518481526001600160a01b03909116917f1771a9538e51986b1f6a9d0c43430167b63350a53ba61805133916334b548dcc910160405180910390a2815b6104e1600183610b0f565b81101561056a5760006104f5826001610b26565b8154811061050557610505610ac8565b600091825260208220015481546001600160a01b0390911691908390811061052f5761052f610ac8565b600091825260209091200180546001600160a01b0319166001600160a01b03929092169190911790558061056281610af4565b9150506104d6565b50600080548061057c5761057c610b3e565b600082815260209020810160001990810180546001600160a01b03191690550190555050565b336001600160a01b037f000000000000000000000000000000000000000000000000000000000000000016146105ea5760405162461bcd60e51b81526004016102a390610a91565b6105f482826105f8565b5050565b6001600160a01b0382166106465760405162461bcd60e51b815260206004820152601560248201527443414c4c4241434b5f5a45524f5f4144445245535360581b60448201526064016102a3565b6106796001600160a01b0383167f0000000000000000000000000000000000000000000000000000000000000000610882565b6106be5760405162461bcd60e51b81526020600482015260166024820152754241445f43414c4c4241434b5f494e5445524641434560501b60448201526064016102a3565b600054808211156107095760405162461bcd60e51b8152602060048201526015602482015274494e4445585f49535f4f55545f4f465f52414e474560581b60448201526064016102a3565b601081106107595760405162461bcd60e51b815260206004820152601c60248201527f4d41585f43414c4c4241434b535f434f554e545f45584345454445440000000060448201526064016102a3565b826001600160a01b03167f1bc6d1feb48e958f341d80c7de1a0cdff706f1d28c94b6b286302e4b7fa72a598360405161079491815260200190565b60405180910390a26000805460010181558052801561083b57805b828111156108395760006107c4600183610b0f565b815481106107d4576107d4610ac8565b600091825260208220015481546001600160a01b039091169190839081106107fe576107fe610ac8565b600091825260209091200180546001600160a01b0319166001600160a01b03929092169190911790558061083181610b54565b9150506107af565b505b826000838154811061084f5761084f610ac8565b9060005260206000200160006101000a8154816001600160a01b0302191690836001600160a01b03160217905550505050565b600061088d836108a5565b801561089e575061089e83836108d8565b9392505050565b60006108b8826301ffc9a760e01b6108d8565b801561025557506108d1826001600160e01b03196108d8565b1592915050565b604080516001600160e01b0319831660248083019190915282518083039091018152604490910182526020810180516001600160e01b03166301ffc9a760e01b179052905160009190829081906001600160a01b038716906175309061093f908690610b6b565b6000604051808303818686fa925050503d806000811461097b576040519150601f19603f3d011682016040523d82523d6000602084013e610980565b606091505b509150915060208151101561099b5760009350505050610255565b8180156109b75750808060200190518101906109b79190610ba6565b9695505050505050565b6000602082840312156109d357600080fd5b5035919050565b6000602082840312156109ec57600080fd5b81356001600160e01b03198116811461089e57600080fd5b80356001600160a01b0381168114610a1b57600080fd5b919050565b600060208284031215610a3257600080fd5b61089e82610a04565b600080600060608486031215610a5057600080fd5b505081359360208301359350604090920135919050565b60008060408385031215610a7a57600080fd5b610a8383610a04565b946020939093013593505050565b60208082526019908201527f4d53475f53454e4445525f4d5553545f42455f564f54494e4700000000000000604082015260600190565b634e487b7160e01b600052603260045260246000fd5b634e487b7160e01b600052601160045260246000fd5b6000600019821415610b0857610b08610ade565b5060010190565b600082821015610b2157610b21610ade565b500390565b60008219821115610b3957610b39610ade565b500190565b634e487b7160e01b600052603160045260246000fd5b600081610b6357610b63610ade565b506000190190565b6000825160005b81811015610b8c5760208186018101518583015201610b72565b81811115610b9b576000828501525b509190910192915050565b600060208284031215610bb857600080fd5b8151801515811461089e57600080fdfea2646970667358221220694aa64638f8479bad0d36b9621d0c9e57180fbba21dd96c690014c056388e2264736f6c63430008090033",
    "linkReferences": {}
  },
  "methodIdentifiers": {
    "MAX_CALLBACKS_COUNT()": "059c8479",
    "ORACLE()": "38013f02",
    "REQUIRED_INTERFACE()": "d92f7c0f",
    "VOTING()": "269e1d1a",
    "addCallback(address)": "33657836",
    "callbacks(uint256)": "00e0d3b5",
    "callbacksLength()": "91b33614",
    "insertCallback(address,uint256)": "fd2f1a44",
    "processLidoOracleReport(uint256,uint256,uint256)": "34212e5f",
    "removeCallback(uint256)": "9fb56ad2",
    "supportsInterface(bytes4)": "01ffc9a7"
  },
  "storageLayout": {
    "storage": [
      {
        "astId": 1376,
        "contract": "contracts/0.8.9/CompositePostRebaseBeaconReceiver.sol:CompositePostRebaseBeaconReceiver",
        "label": "callbacks",
        "offset": 0,
        "slot": "0",
        "type": "t_array(t_address)dyn_storage"
      }
    ],
    "types": {
      "t_address": {
        "encoding": "inplace",
        "label": "address",
        "numberOfBytes": "20"
      },
      "t_array(t_address)dyn_storage": {
        "encoding": "dynamic_array",
        "label": "address[]",
        "numberOfBytes": "32",
        "base": "t_address"
      }
    }
  },
  "id": 0
}