{
  "abi": [
    {
      "constant": true,
      "inputs": [],
      "name": "ADD_PROTECTED_TOKEN_ROLE",
      "outputs": [
        {
          "name": "",
          "type": "bytes32"
        }
      ],
      "payable": false,
      "stateMutability": "view",
      "type": "function"
    },
    {
      "constant": true,
      "inputs": [
        {
          "name": "_interfaceId",
          "type": "bytes4"
        }
      ],
      "name": "supportsInterface",
      "outputs": [
        {
          "name": "",
          "type": "bool"
        }
      ],
      "payable": false,
      "stateMutability": "pure",
      "type": "function"
    },
    {
      "constant": true,
      "inputs": [],
      "name": "hasInitialized",
      "outputs": [
        {
          "name": "",
          "type": "bool"
        }
      ],
      "payable": false,
      "stateMutability": "view",
      "type": "function"
    },
    {
      "constant": true,
      "inputs": [],
      "name": "ERC1271_INTERFACE_ID",
      "outputs": [
        {
          "name": "",
          "type": "bytes4"
        }
      ],
      "payable": false,
      "stateMutability": "view",
      "type": "function"
    },
    {
      "constant": false,
      "inputs": [
        {
          "name": "_operator",
          "type": "address"
        },
        {
          "name": "_from",
          "type": "address"
        },
        {
          "name": "_tokenId",
          "type": "uint256"
        },
        {
          "name": "_data",
          "type": "bytes"
        }
      ],
      "name": "onERC721Received",
      "outputs": [
        {
          "name": "",
          "type": "bytes4"
        }
      ],
      "payable": false,
      "stateMutability": "nonpayable",
      "type": "function"
    },
    {
      "constant": true,
      "inputs": [
        {
          "name": "_hash",
          "type": "bytes32"
        },
        {
          "name": "_signature",
          "type": "bytes"
        }
      ],
      "name": "isValidSignature",
      "outputs": [
        {
          "name": "",
          "type": "bytes4"
        }
      ],
      "payable": false,
      "stateMutability": "view",
      "type": "function"
    },
    {
      "constant": true,
      "inputs": [],
      "name": "ERC1271_RETURN_INVALID_SIGNATURE",
      "outputs": [
        {
          "name": "",
          "type": "bytes4"
        }
      ],
      "payable": false,
      "stateMutability": "view",
      "type": "function"
    },
    {
      "constant": true,
      "inputs": [],
      "name": "TRANSFER_ROLE",
      "outputs": [
        {
          "name": "",
          "type": "bytes32"
        }
      ],
      "payable": false,
      "stateMutability": "view",
      "type": "function"
    },
    {
      "constant": true,
      "inputs": [
        {
          "name": "_data",
          "type": "bytes"
        },
        {
          "name": "_signature",
          "type": "bytes"
        }
      ],
      "name": "isValidSignature",
      "outputs": [
        {
          "name": "",
          "type": "bytes4"
        }
      ],
      "payable": false,
      "stateMutability": "view",
      "type": "function"
    },
    {
      "constant": true,
      "inputs": [],
      "name": "getProtectedTokensLength",
      "outputs": [
        {
          "name": "",
          "type": "uint256"
        }
      ],
      "payable": false,
      "stateMutability": "view",
      "type": "function"
    },
    {
      "constant": true,
      "inputs": [
        {
          "name": "_script",
          "type": "bytes"
        }
      ],
      "name": "getEVMScriptExecutor",
      "outputs": [
        {
          "name": "",
          "type": "address"
        }
      ],
      "payable": false,
      "stateMutability": "view",
      "type": "function"
    },
    {
      "constant": true,
      "inputs": [],
      "name": "getRecoveryVault",
      "outputs": [
        {
          "name": "",
          "type": "address"
        }
      ],
      "payable": false,
      "stateMutability": "view",
      "type": "function"
    },
    {
      "constant": true,
      "inputs": [],
      "name": "RUN_SCRIPT_ROLE",
      "outputs": [
        {
          "name": "",
          "type": "bytes32"
        }
      ],
      "payable": false,
      "stateMutability": "view",
      "type": "function"
    },
    {
      "constant": true,
      "inputs": [],
      "name": "SAFE_EXECUTE_ROLE",
      "outputs": [
        {
          "name": "",
          "type": "bytes32"
        }
      ],
      "payable": false,
      "stateMutability": "view",
      "type": "function"
    },
    {
      "constant": true,
      "inputs": [],
      "name": "REMOVE_PROTECTED_TOKEN_ROLE",
      "outputs": [
        {
          "name": "",
          "type": "bytes32"
        }
      ],
      "payable": false,
      "stateMutability": "view",
      "type": "function"
    },
    {
      "constant": false,
      "inputs": [
        {
          "name": "_token",
          "type": "address"
        },
        {
          "name": "_value",
          "type": "uint256"
        }
      ],
      "name": "deposit",
      "outputs": [],
      "payable": true,
      "stateMutability": "payable",
      "type": "function"
    },
    {
      "constant": true,
      "inputs": [],
      "name": "isDepositable",
      "outputs": [
        {
          "name": "",
          "type": "bool"
        }
      ],
      "payable": false,
      "stateMutability": "view",
      "type": "function"
    },
    {
      "constant": false,
      "inputs": [
        {
          "name": "_hash",
          "type": "bytes32"
        }
      ],
      "name": "presignHash",
      "outputs": [],
      "payable": false,
      "stateMutability": "nonpayable",
      "type": "function"
    },
    {
      "constant": true,
      "inputs": [],
      "name": "DESIGNATE_SIGNER_ROLE",
      "outputs": [
        {
          "name": "",
          "type": "bytes32"
        }
      ],
      "payable": false,
      "stateMutability": "view",
      "type": "function"
    },
    {
      "constant": false,
      "inputs": [
        {
          "name": "_token",
          "type": "address"
        }
      ],
      "name": "removeProtectedToken",
      "outputs": [],
      "payable": false,
      "stateMutability": "nonpayable",
      "type": "function"
    },
    {
      "constant": true,
      "inputs": [],
      "name": "EXECUTE_ROLE",
      "outputs": [
        {
          "name": "",
          "type": "bytes32"
        }
      ],
      "payable": false,
      "stateMutability": "view",
      "type": "function"
    },
    {
      "constant": false,
      "inputs": [
        {
          "name": "_token",
          "type": "address"
        }
      ],
      "name": "addProtectedToken",
      "outputs": [],
      "payable": false,
      "stateMutability": "nonpayable",
      "type": "function"
    },
    {
      "constant": true,
      "inputs": [
        {
          "name": "",
          "type": "address"
        }
      ],
      "name": "allowRecoverability",
      "outputs": [
        {
          "name": "",
          "type": "bool"
        }
      ],
      "payable": false,
      "stateMutability": "view",
      "type": "function"
    },
    {
      "constant": true,
      "inputs": [],
      "name": "appId",
      "outputs": [
        {
          "name": "",
          "type": "bytes32"
        }
      ],
      "payable": false,
      "stateMutability": "view",
      "type": "function"
    },
    {
      "constant": false,
      "inputs": [],
      "name": "initialize",
      "outputs": [],
      "payable": false,
      "stateMutability": "nonpayable",
      "type": "function"
    },
    {
      "constant": true,
      "inputs": [
        {
          "name": "",
          "type": "uint256"
        }
      ],
      "name": "protectedTokens",
      "outputs": [
        {
          "name": "",
          "type": "address"
        }
      ],
      "payable": false,
      "stateMutability": "view",
      "type": "function"
    },
    {
      "constant": true,
      "inputs": [],
      "name": "getInitializationBlock",
      "outputs": [
        {
          "name": "",
          "type": "uint256"
        }
      ],
      "payable": false,
      "stateMutability": "view",
      "type": "function"
    },
    {
      "constant": true,
      "inputs": [],
      "name": "ERC1271_RETURN_VALID_SIGNATURE",
      "outputs": [
        {
          "name": "",
          "type": "bytes4"
        }
      ],
      "payable": false,
      "stateMutability": "view",
      "type": "function"
    },
    {
      "constant": false,
      "inputs": [
        {
          "name": "_token",
          "type": "address"
        }
      ],
      "name": "transferToVault",
      "outputs": [],
      "payable": false,
      "stateMutability": "nonpayable",
      "type": "function"
    },
    {
      "constant": true,
      "inputs": [
        {
          "name": "_sender",
          "type": "address"
        },
        {
          "name": "_role",
          "type": "bytes32"
        },
        {
          "name": "_params",
          "type": "uint256[]"
        }
      ],
      "name": "canPerform",
      "outputs": [
        {
          "name": "",
          "type": "bool"
        }
      ],
      "payable": false,
      "stateMutability": "view",
      "type": "function"
    },
    {
      "constant": true,
      "inputs": [],
      "name": "getEVMScriptRegistry",
      "outputs": [
        {
          "name": "",
          "type": "address"
        }
      ],
      "payable": false,
      "stateMutability": "view",
      "type": "function"
    },
    {
      "constant": false,
      "inputs": [
        {
          "name": "_designatedSigner",
          "type": "address"
        }
      ],
      "name": "setDesignatedSigner",
      "outputs": [],
      "payable": false,
      "stateMutability": "nonpayable",
      "type": "function"
    },
    {
      "constant": true,
      "inputs": [],
      "name": "designatedSigner",
      "outputs": [
        {
          "name": "",
          "type": "address"
        }
      ],
      "payable": false,
      "stateMutability": "view",
      "type": "function"
    },
    {
      "constant": false,
      "inputs": [
        {
          "name": "_target",
          "type": "address"
        },
        {
          "name": "_data",
          "type": "bytes"
        }
      ],
      "name": "safeExecute",
      "outputs": [],
      "payable": false,
      "stateMutability": "nonpayable",
      "type": "function"
    },
    {
      "constant": true,
      "inputs": [],
      "name": "PROTECTED_TOKENS_CAP",
      "outputs": [
        {
          "name": "",
          "type": "uint256"
        }
      ],
      "payable": false,
      "stateMutability": "view",
      "type": "function"
    },
    {
      "constant": true,
      "inputs": [],
      "name": "ADD_PRESIGNED_HASH_ROLE",
      "outputs": [
        {
          "name": "",
          "type": "bytes32"
        }
      ],
      "payable": false,
      "stateMutability": "view",
      "type": "function"
    },
    {
      "constant": true,
      "inputs": [
        {
          "name": "",
          "type": "bytes32"
        }
      ],
      "name": "isPresigned",
      "outputs": [
        {
          "name": "",
          "type": "bool"
        }
      ],
      "payable": false,
      "stateMutability": "view",
      "type": "function"
    },
    {
      "constant": false,
      "inputs": [
        {
          "name": "_target",
          "type": "address"
        },
        {
          "name": "_ethValue",
          "type": "uint256"
        },
        {
          "name": "_data",
          "type": "bytes"
        }
      ],
      "name": "execute",
      "outputs": [],
      "payable": false,
      "stateMutability": "nonpayable",
      "type": "function"
    },
    {
      "constant": false,
      "inputs": [
        {
          "name": "_token",
          "type": "address"
        },
        {
          "name": "_to",
          "type": "address"
        },
        {
          "name": "_value",
          "type": "uint256"
        }
      ],
      "name": "transfer",
      "outputs": [],
      "payable": false,
      "stateMutability": "nonpayable",
      "type": "function"
    },
    {
      "constant": true,
      "inputs": [
        {
          "name": "_sender",
          "type": "address"
        },
        {
          "name": "_evmScript",
          "type": "bytes"
        }
      ],
      "name": "canForward",
      "outputs": [
        {
          "name": "",
          "type": "bool"
        }
      ],
      "payable": false,
      "stateMutability": "view",
      "type": "function"
    },
    {
      "constant": true,
      "inputs": [],
      "name": "kernel",
      "outputs": [
        {
          "name": "",
          "type": "address"
        }
      ],
      "payable": false,
      "stateMutability": "view",
      "type": "function"
    },
    {
      "constant": false,
      "inputs": [
        {
          "name": "_evmScript",
          "type": "bytes"
        }
      ],
      "name": "forward",
      "outputs": [],
      "payable": false,
      "stateMutability": "nonpayable",
      "type": "function"
    },
    {
      "constant": true,
      "inputs": [],
      "name": "isPetrified",
      "outputs": [
        {
          "name": "",
          "type": "bool"
        }
      ],
      "payable": false,
      "stateMutability": "view",
      "type": "function"
    },
    {
      "constant": true,
      "inputs": [
        {
          "name": "_token",
          "type": "address"
        }
      ],
      "name": "balance",
      "outputs": [
        {
          "name": "",
          "type": "uint256"
        }
      ],
      "payable": false,
      "stateMutability": "view",
      "type": "function"
    },
    {
      "constant": true,
      "inputs": [],
      "name": "isForwarder",
      "outputs": [
        {
          "name": "",
          "type": "bool"
        }
      ],
      "payable": false,
      "stateMutability": "pure",
      "type": "function"
    },
    {
      "payable": true,
      "stateMutability": "payable",
      "type": "fallback"
    },
    {
      "anonymous": false,
      "inputs": [
        {
          "indexed": true,
          "name": "sender",
          "type": "address"
        },
        {
          "indexed": true,
          "name": "target",
          "type": "address"
        },
        {
          "indexed": false,
          "name": "data",
          "type": "bytes"
        }
      ],
      "name": "SafeExecute",
      "type": "event"
    },
    {
      "anonymous": false,
      "inputs": [
        {
          "indexed": true,
          "name": "sender",
          "type": "address"
        },
        {
          "indexed": true,
          "name": "target",
          "type": "address"
        },
        {
          "indexed": false,
          "name": "ethValue",
          "type": "uint256"
        },
        {
          "indexed": false,
          "name": "data",
          "type": "bytes"
        }
      ],
      "name": "Execute",
      "type": "event"
    },
    {
      "anonymous": false,
      "inputs": [
        {
          "indexed": true,
          "name": "token",
          "type": "address"
        }
      ],
      "name": "AddProtectedToken",
      "type": "event"
    },
    {
      "anonymous": false,
      "inputs": [
        {
          "indexed": true,
          "name": "token",
          "type": "address"
        }
      ],
      "name": "RemoveProtectedToken",
      "type": "event"
    },
    {
      "anonymous": false,
      "inputs": [
        {
          "indexed": true,
          "name": "sender",
          "type": "address"
        },
        {
          "indexed": true,
          "name": "hash",
          "type": "bytes32"
        }
      ],
      "name": "PresignHash",
      "type": "event"
    },
    {
      "anonymous": false,
      "inputs": [
        {
          "indexed": true,
          "name": "sender",
          "type": "address"
        },
        {
          "indexed": true,
          "name": "oldSigner",
          "type": "address"
        },
        {
          "indexed": true,
          "name": "newSigner",
          "type": "address"
        }
      ],
      "name": "SetDesignatedSigner",
      "type": "event"
    },
    {
      "anonymous": false,
      "inputs": [
        {
          "indexed": true,
          "name": "token",
          "type": "address"
        },
        {
          "indexed": true,
          "name": "operator",
          "type": "address"
        },
        {
          "indexed": true,
          "name": "from",
          "type": "address"
        },
        {
          "indexed": false,
          "name": "tokenId",
          "type": "uint256"
        },
        {
          "indexed": false,
          "name": "data",
          "type": "bytes"
        }
      ],
      "name": "ReceiveERC721",
      "type": "event"
    },
    {
      "anonymous": false,
      "inputs": [
        {
          "indexed": true,
          "name": "token",
          "type": "address"
        },
        {
          "indexed": true,
          "name": "to",
          "type": "address"
        },
        {
          "indexed": false,
          "name": "amount",
          "type": "uint256"
        }
      ],
      "name": "VaultTransfer",
      "type": "event"
    },
    {
      "anonymous": false,
      "inputs": [
        {
          "indexed": true,
          "name": "token",
          "type": "address"
        },
        {
          "indexed": true,
          "name": "sender",
          "type": "address"
        },
        {
          "indexed": false,
          "name": "amount",
          "type": "uint256"
        }
      ],
      "name": "VaultDeposit",
      "type": "event"
    },
    {
      "anonymous": false,
      "inputs": [
        {
          "indexed": true,
          "name": "executor",
          "type": "address"
        },
        {
          "indexed": false,
          "name": "script",
          "type": "bytes"
        },
        {
          "indexed": false,
          "name": "input",
          "type": "bytes"
        },
        {
          "indexed": false,
          "name": "returnData",
          "type": "bytes"
        }
      ],
      "name": "ScriptResult",
      "type": "event"
    },
    {
      "anonymous": false,
      "inputs": [
        {
          "indexed": true,
          "name": "vault",
          "type": "address"
        },
        {
          "indexed": true,
          "name": "token",
          "type": "address"
        },
        {
          "indexed": false,
          "name": "amount",
          "type": "uint256"
        }
      ],
      "name": "RecoverToVault",
      "type": "event"
    }
  ],
  "bytecode": {
    "object": "0x6080604052620000146200001a60201b60201c565b62000231565b6200002a6200011c60201b60201c565b60408051808201909152601881527f494e49545f414c52454144595f494e495449414c495a454400000000000000006020820152901562000106576040517f08c379a00000000000000000000000000000000000000000000000000000000081526004018080602001828103825283818151815260200191508051906020019080838360005b83811015620000ca578181015183820152602001620000b0565b50505050905090810190601f168015620000f85780820380516001836020036101000a031916815260200191505b509250505060405180910390fd5b506200011a6000196200014f60201b60201c565b565b60006200014a600080516020620041db83398151915260001b600019166200022960201b62002cee1760201c565b905090565b6200015f6200011c60201b60201c565b60408051808201909152601881527f494e49545f414c52454144595f494e495449414c495a4544000000000000000060208201529015620001fe576040517f08c379a000000000000000000000000000000000000000000000000000000000815260040180806020018281038252838181518152602001915080519060200190808383600083811015620000ca578181015183820152602001620000b0565b5062000226600080516020620041db833981519152826200022d602090811b62003ccd17901c565b50565b5490565b9055565b613f9a80620002416000396000f3006080604052600436106102075760003560e01c63ffffffff1680627bb0031461035357806301ffc9a71461037a5780630803fac0146103b057806311a5e409146103c5578063150b7a02146103f75780631626ba7e146104305780631ce301811461048e578063206b60f9146104a357806320c13b0b146104b857806326f06d241461054f5780632914b9bd1461056457806332f0a3b5146105d9578063368c3c34146105ee5780633e4eb7561461060357806342b2d0661461061857806347e7ef241461062d57806348a0c8dd146106445780634c7ec0b01461065957806354842f1414610671578063578eb50b146106865780635fa5e4e6146106a75780636298e902146106bc5780637e7db6e1146106dd57806380afdea8146106fe5780638129fc1c14610713578063851a3790146107285780638b3dd749146107405780639890cdca146107555780639d4941d81461076a578063a1658fad1461078b578063a479e508146107f2578063a83e52b414610807578063aae2505114610828578063ab23c3451461083d578063b03bdb041461086a578063b06c42441461087f578063b4fa653c14610894578063b61d27f6146108ac578063beabacc8146108dd578063c0774df314610907578063d4aae0c41461096e578063d948d46814610983578063de4796ed146109dc578063e3d670d7146109f1578063fd64eccb14610a12575b61020f610a27565b6040805180820190915260148152600080516020613f4f83398151915260208201529015156102bf5760405160e560020a62461bcd0281526004018080602001828103825283818151815260200191508051906020019080838360005b8381101561028457818101518382015260200161026c565b50505050905090810190601f1680156102b15780820380516001836020036101000a031916815260200191505b509250505060405180910390fd5b5060408051808201909152601381527f5641554c545f444154415f4e4f4e5f5a45524f00000000000000000000000000602082015236156103455760405160e560020a62461bcd0281526004018080602001828103825283818151815260200191508051906020019080838360008381101561028457818101518382015260200161026c565b50610351600034610a51565b005b34801561035f57600080fd5b50610368610ced565b60408051918252519081900360200190f35b34801561038657600080fd5b5061039c600160e060020a031960043516610d11565b604080519115158252519081900360200190f35b3480156103bc57600080fd5b5061039c610a27565b3480156103d157600080fd5b506103da610db0565b60408051600160e060020a03199092168252519081900360200190f35b34801561040357600080fd5b506103da600160a060020a0360048035821691602480359091169160443591606435908101910135610dd4565b34801561043c57600080fd5b5060408051602060046024803582810135601f81018590048502860185019096528585526103da958335953695604494919390910191908190840183828082843750949750610e779650505050505050565b34801561049a57600080fd5b506103da610ee9565b3480156104af57600080fd5b50610368610eee565b3480156104c457600080fd5b506040805160206004803580820135601f81018490048402850184019095528484526103da94369492936024939284019190819084018382808284375050604080516020601f89358b018035918201839004830284018301909452808352979a999881019791965091820194509250829150840183828082843750949750610f239650505050505050565b34801561055b57600080fd5b50610368610f92565b34801561057057600080fd5b506040805160206004803580820135601f81018490048402850184019095528484526105bd9436949293602493928401919081908401838280828437509497506110199650505050505050565b60408051600160a060020a039092168252519081900360200190f35b3480156105e557600080fd5b506105bd6110fc565b3480156105fa57600080fd5b50610368611171565b34801561060f57600080fd5b50610368611195565b34801561062457600080fd5b506103686111b9565b610351600160a060020a03600435166024356111dd565b34801561065057600080fd5b5061039c611268565b34801561066557600080fd5b50610351600435611298565b34801561067d57600080fd5b5061036861138a565b34801561069257600080fd5b50610351600160a060020a03600435166113ae565b3480156106b357600080fd5b506103686114f6565b3480156106c857600080fd5b50610351600160a060020a036004351661151a565b3480156106e957600080fd5b5061039c600160a060020a0360043516611777565b34801561070a57600080fd5b5061036861177d565b34801561071f57600080fd5b506103516117a8565b34801561073457600080fd5b506105bd60043561184a565b34801561074c57600080fd5b50610368611872565b34801561076157600080fd5b506103da61189d565b34801561077657600080fd5b50610351600160a060020a03600435166118c1565b34801561079757600080fd5b50604080516020600460443581810135838102808601850190965280855261039c958335600160a060020a0316956024803596369695606495939492019291829185019084908082843750949750611b509650505050505050565b3480156107fe57600080fd5b506105bd611c9d565b34801561081357600080fd5b50610351600160a060020a0360043516611d52565b34801561083457600080fd5b506105bd611ef2565b34801561084957600080fd5b5061035160048035600160a060020a03169060248035908101910135611f01565b34801561087657600080fd5b5061036861245e565b34801561088b57600080fd5b50610368612463565b3480156108a057600080fd5b5061039c600435612487565b3480156108b857600080fd5b5061035160048035600160a060020a031690602480359160443591820191013561249c565b3480156108e957600080fd5b50610351600160a060020a0360043581169060243516604435612645565b34801561091357600080fd5b5060408051602060046024803582810135601f810185900485028601850190965285855261039c958335600160a060020a03169536956044949193909101919081908401838280828437509497506129419650505050505050565b34801561097a57600080fd5b506105bd61297e565b34801561098f57600080fd5b506040805160206004803580820135601f81018490048402850184019095528484526103519436949293602493928401919081908401838280828437509497506129a99650505050505050565b3480156109e857600080fd5b5061039c612a6c565b3480156109fd57600080fd5b50610368600160a060020a0360043516612a7f565b348015610a1e57600080fd5b5061039c612ab9565b600080610a32611872565b90508015801590610a4a575080610a47612abe565b10155b91505b5090565b610a59611268565b60408051808201909152601581527f5641554c545f4e4f545f4445504f53495441424c4500000000000000000000006020820152901515610adf5760405160e560020a62461bcd0281526004018080602001828103825283818151815260200191508051906020019080838360008381101561028457818101518382015260200161026c565b5060408051808201909152601881527f5641554c545f4445504f5349545f56414c55455f5a45524f0000000000000000602082015260008211610b675760405160e560020a62461bcd0281526004018080602001828103825283818151815260200191508051906020019080838360008381101561028457818101518382015260200161026c565b50600160a060020a0382161515610c045760408051808201909152601481527f5641554c545f56414c55455f4d49534d415443480000000000000000000000006020820152348214610bfe5760405160e560020a62461bcd0281526004018080602001828103825283818151815260200191508051906020019080838360008381101561028457818101518382015260200161026c565b50610ca9565b610c1f600160a060020a03831633308463ffffffff612ac216565b6040805190810160405280602081526020017f5641554c545f544f4b454e5f5452414e534645525f46524f4d5f524556455254815250901515610ca75760405160e560020a62461bcd0281526004018080602001828103825283818151815260200191508051906020019080838360008381101561028457818101518382015260200161026c565b505b6040805182815290513391600160a060020a038516917f2790b90165fd3973ad7edde4eca71b4f8808dd4857a2a3a3e8ae5642a5cb196e9181900360200190a35050565b7f6eb2a499556bfa2872f5aa15812b956cc4a71b4d64eb3553f7073c7e41415aaa81565b6000600160e060020a031982167ffb855dc9000000000000000000000000000000000000000000000000000000001480610d745750600160e060020a031982167f150b7a0200000000000000000000000000000000000000000000000000000000145b80610da85750600160e060020a031982167f01ffc9a700000000000000000000000000000000000000000000000000000000145b90505b919050565b7ffb855dc90000000000000000000000000000000000000000000000000000000081565b600084600160a060020a031686600160a060020a031633600160a060020a03167fe0d2ab3bf6896c073bb33b920a9b60f3c8207b3cc3b7561c3101cb081a8f0883878787604051808481526020018060200182810382528484828181526020019250808284376040519201829003965090945050505050a4507f150b7a020000000000000000000000000000000000000000000000000000000095945050505050565b600082815260208190526040812054819060ff1615610ea157610e9a6001612b41565b9150610ee2565b600154600160a060020a03161515610ebb57506000610ed6565b600154610ed3908590600160a060020a031685612b76565b90505b610edf81612b41565b91505b5092915050565b600081565b604080517f5452414e534645525f524f4c45000000000000000000000000000000000000008152905190819003600d01902081565b6000610f8b836040518082805190602001908083835b60208310610f585780518252601f199092019160209182019101610f39565b6001836020036101000a038019825116818451168082178552505050505050905001915050604051809103902083610e77565b9392505050565b6000610f9c610a27565b6040805180820190915260148152600080516020613f4f83398151915260208201529015156110105760405160e560020a62461bcd0281526004018080602001828103825283818151815260200191508051906020019080838360008381101561028457818101518382015260200161026c565b50506002545b90565b6000611023611c9d565b600160a060020a03166304bf2a7f836040518263ffffffff1660e01b81526004018080602001828103825283818151815260200191508051906020019080838360005b8381101561107e578181015183820152602001611066565b50505050905090810190601f1680156110ab5780820380516001836020036101000a031916815260200191505b5092505050602060405180830381600087803b1580156110ca57600080fd5b505af11580156110de573d6000803e3d6000fd5b505050506040513d60208110156110f457600080fd5b505192915050565b600061110661297e565b600160a060020a03166332f0a3b56040518163ffffffff1660e01b8152600401602060405180830381600087803b15801561114057600080fd5b505af1158015611154573d6000803e3d6000fd5b505050506040513d602081101561116a57600080fd5b5051905090565b7fb421f7ad7646747f3051c50c0b8e2377839296cd4973e27f63821d73e390338f81565b7f0a1ad7b87f5846153c6d5a1f761d71c7d0cfd122384f56066cd33239b793369481565b7f71eee93d500f6f065e38b27d242a756466a00a52a1dbcd6b4260f01a8640402a81565b6111e5610a27565b6040805180820190915260148152600080516020613f4f83398151915260208201529015156112595760405160e560020a62461bcd0281526004018080602001828103825283818151815260200191508051906020019080838360008381101561028457818101518382015260200161026c565b506112648282610a51565b5050565b60006112937f665fd576fbbe6f247aff98f5c94a561e3f71ec2d3c988d56f12d342396c50cea612cee565b905090565b7f0b29780bb523a130b3b01f231ef49ed2fa2781645591a0b0a44ca98f15a5994c6112c282612cf2565b6112cd338383611b50565b60408051808201909152600f8152600080516020613f2f83398151915260208201529015156113415760405160e560020a62461bcd0281526004018080602001828103825283818151815260200191508051906020019080838360008381101561028457818101518382015260200161026c565b50600083815260208190526040808220805460ff1916600117905551849133917fb150212e573caa2a0216cf8f273ef996af143fd7b2d35abd92c8105536cac1609190a3505050565b7f23ce341656c3f14df6692eebd4757791e33662b7dcf9970c8308303da5472b7c81565b7f71eee93d500f6f065e38b27d242a756466a00a52a1dbcd6b4260f01a8640402a6113d882612d00565b6113e3338383611b50565b60408051808201909152600f8152600080516020613f2f83398151915260208201529015156114575760405160e560020a62461bcd0281526004018080602001828103825283818151815260200191508051906020019080838360008381101561028457818101518382015260200161026c565b5061146183612d14565b60408051808201909152601981527f4147454e545f544f4b454e5f4e4f545f50524f5445435445440000000000000060208201529015156114e75760405160e560020a62461bcd0281526004018080602001828103825283818151815260200191508051906020019080838360008381101561028457818101518382015260200161026c565b506114f183612d72565b505050565b7fcebf517aa4440d1d125e0355aae64401211d0848a23c02cc5d29a14822580ba481565b7f6eb2a499556bfa2872f5aa15812b956cc4a71b4d64eb3553f7073c7e41415aaa61154482612d00565b61154f338383611b50565b60408051808201909152600f8152600080516020613f2f83398151915260208201529015156115c35760405160e560020a62461bcd0281526004018080602001828103825283818151815260200191508051906020019080838360008381101561028457818101518382015260200161026c565b5060025460408051808201909152601881527f4147454e545f544f4b454e535f4341505f524541434845440000000000000000602082015290600a1161164e5760405160e560020a62461bcd0281526004018080602001828103825283818151815260200191508051906020019080838360008381101561028457818101518382015260200161026c565b5061165883612e2f565b60408051808201909152601581527f4147454e545f544f4b454e5f4e4f545f4552433230000000000000000000000060208201529015156116de5760405160e560020a62461bcd0281526004018080602001828103825283818151815260200191508051906020019080838360008381101561028457818101518382015260200161026c565b506116e883612d14565b60408051808201909152601d81527f4147454e545f544f4b454e5f414c52454144595f50524f5445435445440000006020820152901561176d5760405160e560020a62461bcd0281526004018080602001828103825283818151815260200191508051906020019080838360008381101561028457818101518382015260200161026c565b506114f183612e5a565b50600090565b60006112937fd625496217aa6a3453eecb9c3489dc5a53e6c67b444329ea2b2cbc9ff547639b612cee565b6117b0611872565b60408051808201909152601881527f494e49545f414c52454144595f494e495449414c495a45440000000000000000602082015290156118355760405160e560020a62461bcd0281526004018080602001828103825283818151815260200191508051906020019080838360008381101561028457818101518382015260200161026c565b5061183e612edf565b6118486001612fa5565b565b600280548290811061185857fe5b600091825260209091200154600160a060020a0316905081565b60006112937febb05b386a8d34882b8711d156f463690983dc47815980fb82aeeff1aa43579e612cee565b7f20c13b0b0000000000000000000000000000000000000000000000000000000081565b60008060006118cf84611777565b60408051808201909152601281527f5245434f5645525f444953414c4c4f574544000000000000000000000000000060208201529015156119555760405160e560020a62461bcd0281526004018080602001828103825283818151815260200191508051906020019080838360008381101561028457818101518382015260200161026c565b5061195e6110fc565b925061196983612fdc565b60408051808201909152601a81527f5245434f5645525f5641554c545f4e4f545f434f4e545241435400000000000060208201529015156119ef5760405160e560020a62461bcd0281526004018080602001828103825283818151815260200191508051906020019080838360008381101561028457818101518382015260200161026c565b50600160a060020a0384161515611a405760405130319250600160a060020a0384169083156108fc029084906000818181858888f19350505050158015611a3a573d6000803e3d6000fd5b50611aff565b5082611a5b600160a060020a0382163063ffffffff61300216565b9150611a77600160a060020a038216848463ffffffff61310216565b60408051808201909152601d81527f5245434f5645525f544f4b454e5f5452414e534645525f4641494c45440000006020820152901515611afd5760405160e560020a62461bcd0281526004018080602001828103825283818151815260200191508051906020019080838360008381101561028457818101518382015260200161026c565b505b83600160a060020a031683600160a060020a03167f596caf56044b55fb8c4ca640089bbc2b63cae3e978b851f5745cbb7c5b288e02846040518082815260200191505060405180910390a350505050565b600080611b5b610a27565b1515611b6a5760009150611c95565b611b7261297e565b9050600160a060020a0381161515611b8d5760009150611c95565b80600160a060020a031663fdef9106863087611ba888613178565b60405163ffffffff861660e01b8152600160a060020a03808616600483019081529085166024830152604482018490526080606483019081528351608484015283519192909160a490910190602085019080838360005b83811015611c17578181015183820152602001611bff565b50505050905090810190601f168015611c445780820380516001836020036101000a031916815260200191505b5095505050505050602060405180830381600087803b158015611c6657600080fd5b505af1158015611c7a573d6000803e3d6000fd5b505050506040513d6020811015611c9057600080fd5b505191505b509392505050565b600080611ca861297e565b604080517fbe00bbd80000000000000000000000000000000000000000000000000000000081527fd6f028ca0e8edb4a8c9757ca4fdccab25fa1e0317da1188108f7d2dee14902fb60048201527fddbcfd564f642ab5627cf68b9b7d374fb4f8a36e941a75d89c87998cef03bd6160248201529051600160a060020a03929092169163be00bbd8916044808201926020929091908290030181600087803b1580156110ca57600080fd5b60007f23ce341656c3f14df6692eebd4757791e33662b7dcf9970c8308303da5472b7c611d7e83612d00565b611d89338383611b50565b60408051808201909152600f8152600080516020613f2f8339815191526020820152901515611dfd5760405160e560020a62461bcd0281526004018080602001828103825283818151815260200191508051906020019080838360008381101561028457818101518382015260200161026c565b5060408051808201909152601881527f4147454e545f44455349474e415445445f544f5f53454c4600000000000000006020820152600160a060020a038516301415611e8e5760405160e560020a62461bcd0281526004018080602001828103825283818151815260200191508051906020019080838360008381101561028457818101518382015260200161026c565b5060018054600160a060020a0386811673ffffffffffffffffffffffffffffffffffffffff198316811790935560405191169450849033907f3ecf54ed9acd859c5ee7f080794267b8f08b65d2446d816cef1efccd6d00d73590600090a450505050565b600154600160a060020a031681565b60006060806000806000806000807f0a1ad7b87f5846153c6d5a1f761d71c7d0cfd122384f56066cd33239b793369460001b611f788d611f708e8e8080601f01602080910402602001604051908101604052809392919081815260200183838082843750613182945050505050565b60e01c61319b565b611f83338383611b50565b60408051808201909152600f8152600080516020613f2f8339815191526020820152901515611ff75760405160e560020a62461bcd0281526004018080602001828103825283818151815260200191508051906020019080838360008381101561028457818101518382015260200161026c565b50600254604080518281526020808402820101909152909b508b8015612027578160200160208202803883390190505b5099508a604051908082528060200260200182016040528015612054578160200160208202803883390190505b509850600097505b8a88101561216957600280548990811061207257fe5b6000918252602091829020015460408051808201909152601681527f4147454e545f5441524745545f50524f5445435445440000000000000000000092810192909252600160a060020a0390811698508f168814156121165760405160e560020a62461bcd0281526004018080602001828103825283818151815260200191508051906020019080838360008381101561028457818101518382015260200161026c565b50868a8981518110151561212657fe5b600160a060020a0390921660209283029091019091015261214687612a7f565b898981518110151561215457fe5b6020908102909101015260019097019661205c565b8d600160a060020a03168d8d604051808383808284378201915050925050506000604051808303816000865af191505095503d935060405194503d85016040523d6000863e851561245a5760025460408051808201909152601f81527f4147454e545f50524f5445435445445f544f4b454e535f4d4f444946494544006020820152908c1461223d5760405160e560020a62461bcd0281526004018080602001828103825283818151815260200191508051906020019080838360008381101561028457818101518382015260200161026c565b50600092505b8a8310156123f257898381518110151561225957fe5b90602001906020020151600160a060020a031660028481548110151561227b57fe5b6000918252602091829020015460408051808201909152601f81527f4147454e545f50524f5445435445445f544f4b454e535f4d4f44494649454400928101929092529091600160a060020a039091161461231b5760405160e560020a62461bcd0281526004018080602001828103825283818151815260200191508051906020019080838360008381101561028457818101518382015260200161026c565b50888381518110151561232a57fe5b9060200190602002015161236060028581548110151561234657fe5b600091825260209091200154600160a060020a0316612a7f565b60408051808201909152601f81527f4147454e545f50524f5445435445445f42414c414e43455f4c4f57455245440060208201529111156123e65760405160e560020a62461bcd0281526004018080602001828103825283818151815260200191508051906020019080838360008381101561028457818101518382015260200161026c565b50600190920191612243565b8d600160a060020a031633600160a060020a03167f47f4287d5285559a03d8affeadc53ef3fca238a63c256c08a22bfd30fd5d33ce8f8f6040518080602001828103825284848281815260200192508082843760405192018290039550909350505050a38385f35b8385fd5b600a81565b7f0b29780bb523a130b3b01f231ef49ed2fa2781645591a0b0a44ca98f15a5994c81565b60006020819052908152604090205460ff1681565b60007fcebf517aa4440d1d125e0355aae64401211d0848a23c02cc5d29a14822580ba460001b612508868661250087878080601f01602080910402602001604051908101604052809392919081815260200183838082843750613182945050505050565b60e01c6131b0565b612513338383611b50565b60408051808201909152600f8152600080516020613f2f83398151915260208201529015156125875760405160e560020a62461bcd0281526004018080602001828103825283818151815260200191508051906020019080838360008381101561028457818101518382015260200161026c565b5086600160a060020a03168686866040518083838082843782019150509250505060006040518083038185875af1925050509250821561262e5786600160a060020a031633600160a060020a03167fc25cfed0b22da6a56f0e5ff784979a0b8623eddf2aee4acd33c2adefb09cbab6888888604051808481526020018060200182810382528484828181526020019250808284376040519201829003965090945050505050a35b6040513d6000823e838015612641573d82f35b3d82fd5b604080517f5452414e534645525f524f4c45000000000000000000000000000000000000008152905190819003600d0190206126828484846131ce565b61268d338383611b50565b60408051808201909152600f8152600080516020613f2f83398151915260208201529015156127015760405160e560020a62461bcd0281526004018080602001828103825283818151815260200191508051906020019080838360008381101561028457818101518382015260200161026c565b5060408051808201909152601981527f5641554c545f5452414e534645525f56414c55455f5a45524f000000000000006020820152600084116127895760405160e560020a62461bcd0281526004018080602001828103825283818151815260200191508051906020019080838360008381101561028457818101518382015260200161026c565b50600160a060020a038516151561284d57604051600160a060020a0385169084156108fc029085906000818181858888f193505050506040805190810160405280601381526020017f5641554c545f53454e445f5245564552544544000000000000000000000000008152509015156128475760405160e560020a62461bcd0281526004018080602001828103825283818151815260200191508051906020019080838360008381101561028457818101518382015260200161026c565b506128ef565b612867600160a060020a038616858563ffffffff61310216565b60408051808201909152601d81527f5641554c545f544f4b454e5f5452414e534645525f524556455254454400000060208201529015156128ed5760405160e560020a62461bcd0281526004018080602001828103825283818151815260200191508051906020019080838360008381101561028457818101518382015260200161026c565b505b83600160a060020a031685600160a060020a03167f239e7f6cdac8fb35a788a46b431b54da87de90b82448a2c294be5e92a6e579af856040518082815260200191505060405180910390a35050505050565b6000610f8b837fb421f7ad7646747f3051c50c0b8e2377839296cd4973e27f63821d73e390338f612979612974866131ed565b6132ba565b611b50565b60006112937f4172f0f7d2289153072b0a6ca36959e0cbe2efc3afe50fc81636caa96338137b612cee565b6060806129b63384612941565b60408051808201909152601581527f4147454e545f43414e5f4e4f545f464f525741524400000000000000000000006020820152901515612a3c5760405160e560020a62461bcd0281526004018080602001828103825283818151815260200191508051906020019080838360008381101561028457818101518382015260200161026c565b50506040805160208082018352600080835283519081529081019092529150612a668383836132fb565b50505050565b6000600019612a79611872565b14905090565b6000600160a060020a0382161515612a9957503031610dab565b612ab2600160a060020a0383163063ffffffff61300216565b9050610dab565b600190565b4390565b60408051600160a060020a038581166024830152841660448201526064808201849052825180830390910181526084909101909152602081018051600160e060020a03167f23b872dd00000000000000000000000000000000000000000000000000000000179052600090612b3786826138ee565b9695505050505050565b600081612b4f576000610da8565b507f20c13b0b00000000000000000000000000000000000000000000000000000000919050565b6000806000835160001415612b8e5760009250612ce5565b836000815181101515612b9d57fe5b016020015160f890811c811b901c9150600460ff831610612bc15760009250612ce5565b8160ff166004811115612bd057fe5b90506001816004811115612be057fe5b1415612bf857612bf186868661393c565b9250612ce5565b6002816004811115612c0657fe5b1415612cb957604080517f19457468657265756d205369676e6564204d6573736167653a0a333200000000602080830191909152603c8083018a905283518084039091018152605c909201928390528151612bf193918291908401908083835b60208310612c855780518252601f199092019160209182019101612c66565b6001836020036101000a0380198251168184511680821785525050505050509050019150506040518091039020868661393c565b6003816004811115612cc757fe5b1415612ce057612bf18587612cdb876139ea565b613adf565b600092505b50509392505050565b5490565b6060610da88260001c6132ba565b6060610da882600160a060020a03166132ba565b6000805b600254811015612d675782600160a060020a0316600282815481101515612d3b57fe5b600091825260209091200154600160a060020a03161415612d5f5760019150612d6c565b600101612d18565b600091505b50919050565b600280546000198101908110612d8457fe5b600091825260209091200154600160a060020a03166002612da483613bfe565b81548110612dae57fe5b6000918252602090912001805473ffffffffffffffffffffffffffffffffffffffff1916600160a060020a03929092169190911790556002805490612df7906000198301613ef5565b50604051600160a060020a038216907f3da25279c93c5b22b359bebff8b5ddbfd9b0506be8344b93c9a7dc999459fe0490600090a250565b6000612e3a82612fdc565b1515612e4857506000610dab565b612e5182612a7f565b50600192915050565b6002805460018101825560009182527f405787fa12a823e0f2b7631cc41b3ba8828b3321ca811111fa75cd3aa3bb5ace01805473ffffffffffffffffffffffffffffffffffffffff1916600160a060020a03841690811790915560405190917ff70a5123a7f334e5dac1d9aa3a6aafbc316712bf2519ffe0d3aa4f7cba52767e91a250565b612ee7611872565b60408051808201909152601881527f494e49545f414c52454144595f494e495449414c495a4544000000000000000060208201529015612f6c5760405160e560020a62461bcd0281526004018080602001828103825283818151815260200191508051906020019080838360008381101561028457818101518382015260200161026c565b50611848612f78612abe565b7febb05b386a8d34882b8711d156f463690983dc47815980fb82aeeff1aa43579e9063ffffffff613ccd16565b612fd57f665fd576fbbe6f247aff98f5c94a561e3f71ec2d3c988d56f12d342396c50cea8263ffffffff613ccd16565b50565b5490565b600080600160a060020a0383161515612ff85760009150612d6c565b50506000903b1190565b60408051600160a060020a038316602480830191909152825180830390910181526044909101909152602081018051600160e060020a03167f70a0823100000000000000000000000000000000000000000000000000000000179052600090818061306d8684613cd1565b60408051808201909152601c81527f534146455f4552435f32305f42414c414e43455f524556455254454400000000602082015291935091508215156130f85760405160e560020a62461bcd0281526004018080602001828103825283818151815260200191508051906020019080838360008381101561028457818101518382015260200161026c565b5095945050505050565b60408051600160a060020a03841660248201526044808201849052825180830390910181526064909101909152602081018051600160e060020a03167fa9059cbb0000000000000000000000000000000000000000000000000000000017905260009061316f85826138ee565b95945050505050565b8051602002815290565b600060048251101561319357610dab565b506020015190565b6060610f8b83600160a060020a031683613d02565b60606131c684600160a060020a03168484613d5d565b949350505050565b60606131c684600160a060020a031684600160a060020a031684613d5d565b6000816040516020018082805190602001908083835b602083106132225780518252601f199092019160209182019101613203565b6001836020036101000a0380198251168184511680821785525050505050509050019150506040516020818303038152906040526040518082805190602001908083835b602083106132855780518252601f199092019160209182019101613266565b5181516020939093036101000a6000190180199091169216919091179052604051920182900390912060001c95945050505050565b60408051600180825281830190925260609160208083019080388339019050509050818160008151811015156132ec57fe5b60209081029091010152919050565b606060008060608061330b610a27565b6040805180820190915260148152600080516020613f4f833981519152602082015290151561337f5760405160e560020a62461bcd0281526004018080602001828103825283818151815260200191508051906020019080838360008381101561028457818101518382015260200161026c565b5060008061338b61297e565b915061339561177d565b90506133a08a611019565b60408051808201909152601b81527f45564d52554e5f4558454355544f525f554e415641494c41424c4500000000006020820152909650600160a060020a03871615156134325760405160e560020a62461bcd0281526004018080602001828103825283818151815260200191508051906020019080838360008381101561028457818101518382015260200161026c565b506040516060602482019081528b5160848301528b517f279cea3500000000000000000000000000000000000000000000000000000000975087928d928d928d9282916044820191606481019160a490910190602089019080838360005b838110156134a8578181015183820152602001613490565b50505050905090810190601f1680156134d55780820380516001836020036101000a031916815260200191505b50848103835286518152865160209182019188019080838360005b838110156135085781810151838201526020016134f0565b50505050905090810190601f1680156135355780820380516001836020036101000a031916815260200191505b508481038252855181528551602091820191808801910280838360005b8381101561356a578181015183820152602001613552565b50505050905001965050505050505060405160208183030381529060405290600160e060020a031916602082018051600160e060020a0383818316178352505050509350600080855160208701895af4604051935080801561362e57603f3d1180156135e35760203d03806020883e8601604052613628565b60e560020a62461bcd02865260206004870152601e60248701527f45564d52554e5f4558454355544f525f494e56414c49445f52455455524e00006044870152606486fd5b50613637565b3d6000863e3d85fd5b505085600160a060020a03167f5229a5dba83a54ae8cb5b51bdd6de9474cacbe9dd332f5185f3a4f4f2e3f4ad98b8b8660405180806020018060200180602001848103845287818151815260200191508051906020019080838360005b838110156136ac578181015183820152602001613694565b50505050905090810190601f1680156136d95780820380516001836020036101000a031916815260200191505b50848103835286518152865160209182019188019080838360005b8381101561370c5781810151838201526020016136f4565b50505050905090810190601f1680156137395780820380516001836020036101000a031916815260200191505b50848103825285518152855160209182019187019080838360005b8381101561376c578181015183820152602001613754565b50505050905090810190601f1680156137995780820380516001836020036101000a031916815260200191505b50965050505050505060405180910390a282965081600160a060020a03166137bf61297e565b600160a060020a0316146040805190810160405280601f81526020017f45564d52554e5f50524f5445435445445f53544154455f4d4f444946494544008152509015156138515760405160e560020a62461bcd0281526004018080602001828103825283818151815260200191508051906020019080838360008381101561028457818101518382015260200161026c565b508061385b61177d565b60408051808201909152601f81527f45564d52554e5f50524f5445435445445f53544154455f4d4f44494649454400602082015291146138e05760405160e560020a62461bcd0281526004018080602001828103825283818151815260200191508051906020019080838360008381101561028457818101518382015260200161026c565b505050505050509392505050565b6000806040516020818551602087016000895af16000811115613932573d801561391f576020811461392857613930565b60019350613930565b600183511493505b505b5090949350505050565b600080600080600061394d86613dd6565b9350935093509350831561396457600094506139df565b60408051600080825260208083018085528c905260ff8516838501526060830187905260808301869052925160019360a0808501949193601f19840193928390039091019190865af11580156139be573d6000803e3d6000fd5b50505060206040510351600160a060020a031687600160a060020a03161494505b505050509392505050565b805160408051808201909152601e81527f53494756414c5f494e56414c49445f4c454e4754485f504f505f4259544500006020820152606091906000908190818411613a7b5760405160e560020a62461bcd0281526004018080602001828103825283818151815260200191508051906020019080838360008381101561028457818101518382015260200161026c565b50600183036040519080825280601f01601f191660200182016040528015613aad578160200160208202803883390190505b509350835160001415613abf57613ad7565b602185019150602084019050613ad781838651613e57565b505050919050565b60408051602481018481526044820192835283516064830152835160009360609385937f1626ba7e000000000000000000000000000000000000000000000000000000009389938993909160849091019060208501908083838b5b83811015613b52578181015183820152602001613b3a565b50505050905090810190601f168015613b7f5780820380516001836020036101000a031916815260200191505b50935050505060405160208183030381529060405290600160e060020a031916602082018051600160e060020a0383818316178352505050509150613bc886836203d090613e9b565b600160e060020a0319167f20c13b0b00000000000000000000000000000000000000000000000000000000149695505050505050565b6000805b600254811015613c505782600160a060020a0316600282815481101515613c2557fe5b600091825260209091200154600160a060020a03161415613c4857809150612d6c565b600101613c02565b604080518082018252601981527f4147454e545f544f4b454e5f4e4f545f50524f544543544544000000000000006020808301918252925160e560020a62461bcd0281526004810193845282516024820152825192939283926044909201919080838360008381101561028457818101518382015260200161026c565b9055565b6000806000806040516020818751602089018a5afa92506000831115613cf657805191505b50909590945092505050565b604080516002808252606080830184529260208301908038833901905050905082816000815181101515613d3257fe5b602090810290910101528051829082906001908110613d4d57fe5b6020908102909101015292915050565b6040805160038082526080820190925260609160208201838038833901905050905083816000815181101515613d8f57fe5b602090810290910101528051839082906001908110613daa57fe5b602090810290910101528051829082906002908110613dc557fe5b602090810290910101529392505050565b60008060008084516042141515613df05760019350613e50565b846041815181101515613dff57fe5b90602001015160f81c60f81b60f81c90506021850151925060418501519150601b8160ff161015613e2e57601b015b8060ff16601b14158015613e4657508060ff16601c14155b15613e5057600193505b9193509193565b60005b60208210613e7c578251845260209384019390920191601f1990910190613e5a565b50905182516020929092036101000a6000190180199091169116179052565b60008060008060005a9350858411613eb35783613eb5565b855b9250600080885160208a018b87fa9150811515613ed1576139df565b503d60208114613ee0576139df565b604051816000823e5198975050505050505050565b8154818355818111156114f1576000838152602090206114f191810190830161101691905b80821115610a4d5760008155600101613f1a56004150505f415554485f4641494c45440000000000000000000000000000000000494e49545f4e4f545f494e495449414c495a4544000000000000000000000000a165627a7a72305820ae2d0fb9d274a15606cd7ae81b46dc393c6740a9c2ef71188d4e59e84bc91e4f0029ebb05b386a8d34882b8711d156f463690983dc47815980fb82aeeff1aa43579e",
    "linkReferences": {}
  },
  "methodIdentifiers": {
    "ADD_PRESIGNED_HASH_ROLE()": "b06c4244",
    "ADD_PROTECTED_TOKEN_ROLE()": "007bb003",
    "DESIGNATE_SIGNER_ROLE()": "54842f14",
    "ERC1271_INTERFACE_ID()": "11a5e409",
    "ERC1271_RETURN_INVALID_SIGNATURE()": "1ce30181",
    "ERC1271_RETURN_VALID_SIGNATURE()": "9890cdca",
    "EXECUTE_ROLE()": "5fa5e4e6",
    "PROTECTED_TOKENS_CAP()": "b03bdb04",
    "REMOVE_PROTECTED_TOKEN_ROLE()": "42b2d066",
    "RUN_SCRIPT_ROLE()": "368c3c34",
    "SAFE_EXECUTE_ROLE()": "3e4eb756",
    "TRANSFER_ROLE()": "206b60f9",
    "addProtectedToken(address)": "6298e902",
    "allowRecoverability(address)": "7e7db6e1",
    "appId()": "80afdea8",
    "balance(address)": "e3d670d7",
    "canForward(address,bytes)": "c0774df3",
    "canPerform(address,bytes32,uint256[])": "a1658fad",
    "deposit(address,uint256)": "47e7ef24",
    "designatedSigner()": "aae25051",
    "execute(address,uint256,bytes)": "b61d27f6",
    "forward(bytes)": "d948d468",
    "getEVMScriptExecutor(bytes)": "2914b9bd",
    "getEVMScriptRegistry()": "a479e508",
    "getInitializationBlock()": "8b3dd749",
    "getProtectedTokensLength()": "26f06d24",
    "getRecoveryVault()": "32f0a3b5",
    "hasInitialized()": "0803fac0",
    "initialize()": "8129fc1c",
    "isDepositable()": "48a0c8dd",
    "isForwarder()": "fd64eccb",
    "isPetrified()": "de4796ed",
    "isPresigned(bytes32)": "b4fa653c",
    "isValidSignature(bytes,bytes)": "20c13b0b",
    "isValidSignature(bytes32,bytes)": "1626ba7e",
    "kernel()": "d4aae0c4",
    "onERC721Received(address,address,uint256,bytes)": "150b7a02",
    "presignHash(bytes32)": "4c7ec0b0",
    "protectedTokens(uint256)": "851a3790",
    "removeProtectedToken(address)": "578eb50b",
    "safeExecute(address,bytes)": "ab23c345",
    "setDesignatedSigner(address)": "a83e52b4",
    "supportsInterface(bytes4)": "01ffc9a7",
    "transfer(address,address,uint256)": "beabacc8",
    "transferToVault(address)": "9d4941d8"
  },
  "storageLayout": {
    "storage": [],
    "types": {}
  },
  "id": 34
}