{
  "abi": [
    {
      "constant": true,
      "inputs": [],
      "name": "appId",
      "outputs": [
        {
          "name": "",
          "type": "bytes32"
        }
      ],
      "payable": false,
      "stateMutability": "view",
      "type": "function"
    },
    {
      "constant": true,
      "inputs": [],
      "name": "kernel",
      "outputs": [
        {
          "name": "",
          "type": "address"
        }
      ],
      "payable": false,
      "stateMutability": "view",
      "type": "function"
    }
  ],
  "bytecode": {
    "object": "0x608060405234801561001057600080fd5b50610114806100206000396000f300608060405260043610602c5760003560e01c63ffffffff16806380afdea8146031578063d4aae0c4146055575b600080fd5b348015603c57600080fd5b5060436090565b60408051918252519081900360200190f35b348015606057600080fd5b50606760be565b6040805173ffffffffffffffffffffffffffffffffffffffff9092168252519081900360200190f35b600060b97fd625496217aa6a3453eecb9c3489dc5a53e6c67b444329ea2b2cbc9ff547639b60e4565b905090565b600060b97f4172f0f7d2289153072b0a6ca36959e0cbe2efc3afe50fc81636caa96338137b5b54905600a165627a7a72305820358938d8c26f3c6b9ca7bda39f885f0244a8bea5f79b22c989982a102e27e6cd0029",
    "linkReferences": {}
  },
  "methodIdentifiers": {
    "appId()": "80afdea8",
    "kernel()": "d4aae0c4"
  },
  "storageLayout": {
    "storage": [],
    "types": {}
  },
  "id": 57
}