{
  "abi": [
    {
      "inputs": [
        {
          "internalType": "address",
          "name": "_target",
          "type": "address"
        }
      ],
      "stateMutability": "nonpayable",
      "type": "constructor"
    },
    {
      "anonymous": false,
      "inputs": [
        {
          "indexed": false,
          "internalType": "address",
          "name": "target",
          "type": "address"
        },
        {
          "indexed": false,
          "internalType": "uint256",
          "name": "amount",
          "type": "uint256"
        }
      ],
      "name": "Rewarded",
      "type": "event"
    },
    {
      "inputs": [],
      "name": "reward",
      "outputs": [],
      "stateMutability": "payable",
      "type": "function"
    }
  ],
  "bytecode": {
    "object": "0x608060405234801561001057600080fd5b5060405161035038038061035083398101604081905261002f91610054565b600080546001600160a01b0319166001600160a01b0392909216919091179055610084565b60006020828403121561006657600080fd5b81516001600160a01b038116811461007d57600080fd5b9392505050565b6102bd806100936000396000f3fe60806040526004361061001e5760003560e01c8063228cb73314610023575b600080fd5b61002b61002d565b005b6000546001600160a01b03166100765760405162461bcd60e51b81526020600482015260096024820152681b9bc81d185c99d95d60ba1b60448201526064015b60405180910390fd5b600080543491906100929083906001600160a01b0316316101b0565b90506000604051806020016100a6906101a4565b601f1982820381018352601f9091011660408181526000546001600160a01b031660208301520160408051601f19818403018152908290526100eb9291602001610211565b604051602081830303815290604052905060008082516020840186f56000549091506001600160a01b03163183146101595760405162461bcd60e51b8152602060048201526011602482015270696e636f72726563742062616c616e636560781b604482015260640161006d565b600054604080516001600160a01b0390921682523460208301527fb3b7a071186534c03b40695710096f289fd4ed6c1a374aff0bb648955e4fe563910160405180910390a150505050565b60598061022f83390190565b600082198211156101d157634e487b7160e01b600052601160045260246000fd5b500190565b6000815160005b818110156101f757602081850181015186830152016101dd565b81811115610206576000828601525b509290920192915050565b600061022661022083866101d6565b846101d6565b94935050505056fe608060405260405160593803806059833981016040819052601e91602a565b806001600160a01b0316ff5b600060208284031215603b57600080fd5b81516001600160a01b0381168114605157600080fd5b939250505056fea26469706673582212204f086fb84313ed54bef741887834fcb0876c199ab506e0c3949a18bc8fea0ba164736f6c63430008090033",
    "linkReferences": {}
  },
  "methodIdentifiers": {
    "reward()": "228cb733"
  },
  "storageLayout": {
    "storage": [
      {
        "astId": 2736,
        "contract": "contracts/0.8.9/test_helpers/RewardEmulatorMock.sol:RewardEmulatorMock",
        "label": "target",
        "offset": 0,
        "slot": "0",
        "type": "t_address_payable"
      }
    ],
    "types": {
      "t_address_payable": {
        "encoding": "inplace",
        "label": "address payable",
        "numberOfBytes": "20"
      }
    }
  },
  "id": 16
}