{
  "abi": [
    {
      "anonymous": false,
      "inputs": [
        {
          "indexed": false,
          "internalType": "uint256",
          "name": "maxDeposits",
          "type": "uint256"
        }
      ],
      "name": "Deposited",
      "type": "event"
    },
    {
      "inputs": [
        {
          "internalType": "uint256",
          "name": "maxDeposits",
          "type": "uint256"
        }
      ],
      "name": "depositBufferedEther",
      "outputs": [],
      "stateMutability": "nonpayable",
      "type": "function"
    }
  ],
  "bytecode": {
    "object": "0x608060405234801561001057600080fd5b5060c28061001f6000396000f3fe6080604052348015600f57600080fd5b506004361060285760003560e01c806390adc83b14602d575b600080fd5b603c60383660046074565b603e565b005b6040518181527f2a89b2e3d580398d6dc2db5e0f336b52602bbaa51afa9bb5cdf59239cf0d2bea9060200160405180910390a150565b600060208284031215608557600080fd5b503591905056fea264697066735822122038b09dca6c65aecc06d079a2ae49539ea9c22383486adf47098fbbfbcad283f564736f6c63430008090033",
    "linkReferences": {}
  },
  "methodIdentifiers": {
    "depositBufferedEther(uint256)": "90adc83b"
  },
  "storageLayout": {
    "storage": [],
    "types": {}
  },
  "id": 14
}