{
  "abi": [
    {
      "constant": true,
      "inputs": [],
      "name": "hasInitialized",
      "outputs": [
        {
          "name": "",
          "type": "bool"
        }
      ],
      "payable": false,
      "stateMutability": "view",
      "type": "function"
    },
    {
      "constant": true,
      "inputs": [],
      "name": "getInitializationBlock",
      "outputs": [
        {
          "name": "",
          "type": "uint256"
        }
      ],
      "payable": false,
      "stateMutability": "view",
      "type": "function"
    },
    {
      "constant": true,
      "inputs": [],
      "name": "isPetrified",
      "outputs": [
        {
          "name": "",
          "type": "bool"
        }
      ],
      "payable": false,
      "stateMutability": "view",
      "type": "function"
    },
    {
      "inputs": [],
      "payable": false,
      "stateMutability": "nonpayable",
      "type": "constructor"
    }
  ],
  "bytecode": {
    "object": "0x608060405234801561001057600080fd5b5061001f61002460201b60201c565b610226565b61003261011e60201b60201c565b60408051808201909152601881527f494e49545f414c52454144595f494e495449414c495a454400000000000000006020820152901561010a576040517f08c379a00000000000000000000000000000000000000000000000000000000081526004018080602001828103825283818151815260200191508051906020019080838360005b838110156100cf5781810151838201526020016100b7565b50505050905090810190601f1680156100fc5780820380516001836020036101000a031916815260200191505b509250505060405180910390fd5b5061011c60001961014d60201b60201c565b565b600061014860008051602061037d83398151915260001b6000191661021e60201b6101141760201c565b905090565b61015b61011e60201b60201c565b60408051808201909152601881527f494e49545f414c52454144595f494e495449414c495a45440000000000000000602082015290156101f7576040517f08c379a0000000000000000000000000000000000000000000000000000000008152600401808060200182810382528381815181526020019150805190602001908083836000838110156100cf5781810151838201526020016100b7565b5061021b60008051602061037d83398151915282610222602090811b61011817901c565b50565b5490565b9055565b610148806102356000396000f30060806040526004361061003a5760003560e01c63ffffffff1680630803fac01461003f5780638b3dd74914610068578063de4796ed1461008f575b600080fd5b34801561004b57600080fd5b506100546100a4565b604080519115158252519081900360200190f35b34801561007457600080fd5b5061007d6100cd565b60408051918252519081900360200190f35b34801561009b57600080fd5b506100546100fd565b6000806100af6100cd565b905080158015906100c75750806100c4610110565b10155b91505090565b60006100f87febb05b386a8d34882b8711d156f463690983dc47815980fb82aeeff1aa43579e610114565b905090565b600060001961010a6100cd565b14905090565b4390565b5490565b90555600a165627a7a72305820a6a5c8ab6995cd1ca3d18db4617ea7e1d63be4b659ed1f4a13b668ded6e70deb0029ebb05b386a8d34882b8711d156f463690983dc47815980fb82aeeff1aa43579e",
    "linkReferences": {}
  },
  "methodIdentifiers": {
    "getInitializationBlock()": "8b3dd749",
    "hasInitialized()": "0803fac0",
    "isPetrified()": "de4796ed"
  },
  "storageLayout": {
    "storage": [],
    "types": {}
  },
  "id": 60
}