{
  "abi": [
    {
      "constant": true,
      "inputs": [],
      "name": "hasInitialized",
      "outputs": [
        {
          "name": "",
          "type": "bool"
        }
      ],
      "payable": false,
      "stateMutability": "view",
      "type": "function"
    },
    {
      "constant": true,
      "inputs": [],
      "name": "getInitializationBlock",
      "outputs": [
        {
          "name": "",
          "type": "uint256"
        }
      ],
      "payable": false,
      "stateMutability": "view",
      "type": "function"
    },
    {
      "constant": true,
      "inputs": [],
      "name": "isPetrified",
      "outputs": [
        {
          "name": "",
          "type": "bool"
        }
      ],
      "payable": false,
      "stateMutability": "view",
      "type": "function"
    }
  ],
  "bytecode": {
    "object": "0x608060405234801561001057600080fd5b50610144806100206000396000f30060806040526004361061003a5760003560e01c63ffffffff1680630803fac01461003f5780638b3dd74914610068578063de4796ed1461008f575b600080fd5b34801561004b57600080fd5b506100546100a4565b604080519115158252519081900360200190f35b34801561007457600080fd5b5061007d6100cd565b60408051918252519081900360200190f35b34801561009b57600080fd5b506100546100fd565b6000806100af6100cd565b905080158015906100c75750806100c4610110565b10155b91505090565b60006100f87febb05b386a8d34882b8711d156f463690983dc47815980fb82aeeff1aa43579e610114565b905090565b600060001961010a6100cd565b14905090565b4390565b54905600a165627a7a72305820152ac9f1d8320b30f131146939aa69298d04a50659645b0208639abf98f52a410029",
    "linkReferences": {}
  },
  "methodIdentifiers": {
    "getInitializationBlock()": "8b3dd749",
    "hasInitialized()": "0803fac0",
    "isPetrified()": "de4796ed"
  },
  "storageLayout": {
    "storage": [],
    "types": {}
  },
  "id": 70
}