{
  "abi": [
    {
      "constant": true,
      "inputs": [],
      "name": "getCurrentOraclesReportStatus",
      "outputs": [
        {
          "name": "",
          "type": "uint256"
        }
      ],
      "payable": false,
      "stateMutability": "view",
      "type": "function"
    },
    {
      "constant": false,
      "inputs": [
        {
          "name": "_value",
          "type": "uint256"
        }
      ],
      "name": "setAllowedBeaconBalanceAnnualRelativeIncrease",
      "outputs": [],
      "payable": false,
      "stateMutability": "nonpayable",
      "type": "function"
    },
    {
      "constant": true,
      "inputs": [],
      "name": "hasInitialized",
      "outputs": [
        {
          "name": "",
          "type": "bool"
        }
      ],
      "payable": false,
      "stateMutability": "view",
      "type": "function"
    },
    {
      "constant": true,
      "inputs": [],
      "name": "getVersion",
      "outputs": [
        {
          "name": "",
          "type": "uint256"
        }
      ],
      "payable": false,
      "stateMutability": "view",
      "type": "function"
    },
    {
      "constant": true,
      "inputs": [
        {
          "name": "_script",
          "type": "bytes"
        }
      ],
      "name": "getEVMScriptExecutor",
      "outputs": [
        {
          "name": "",
          "type": "address"
        }
      ],
      "payable": false,
      "stateMutability": "view",
      "type": "function"
    },
    {
      "constant": true,
      "inputs": [],
      "name": "MANAGE_QUORUM",
      "outputs": [
        {
          "name": "",
          "type": "bytes32"
        }
      ],
      "payable": false,
      "stateMutability": "view",
      "type": "function"
    },
    {
      "constant": false,
      "inputs": [
        {
          "name": "_epochId",
          "type": "uint256"
        },
        {
          "name": "_beaconBalance",
          "type": "uint64"
        },
        {
          "name": "_beaconValidators",
          "type": "uint32"
        }
      ],
      "name": "reportBeacon",
      "outputs": [],
      "payable": false,
      "stateMutability": "nonpayable",
      "type": "function"
    },
    {
      "constant": true,
      "inputs": [],
      "name": "getRecoveryVault",
      "outputs": [
        {
          "name": "",
          "type": "address"
        }
      ],
      "payable": false,
      "stateMutability": "view",
      "type": "function"
    },
    {
      "constant": false,
      "inputs": [
        {
          "name": "_time",
          "type": "uint256"
        }
      ],
      "name": "setTime",
      "outputs": [],
      "payable": false,
      "stateMutability": "nonpayable",
      "type": "function"
    },
    {
      "constant": false,
      "inputs": [
        {
          "name": "_version",
          "type": "uint256"
        }
      ],
      "name": "setVersion",
      "outputs": [],
      "payable": false,
      "stateMutability": "nonpayable",
      "type": "function"
    },
    {
      "constant": true,
      "inputs": [],
      "name": "getAllowedBeaconBalanceAnnualRelativeIncrease",
      "outputs": [
        {
          "name": "",
          "type": "uint256"
        }
      ],
      "payable": false,
      "stateMutability": "view",
      "type": "function"
    },
    {
      "constant": true,
      "inputs": [],
      "name": "getAllowedBeaconBalanceRelativeDecrease",
      "outputs": [
        {
          "name": "",
          "type": "uint256"
        }
      ],
      "payable": false,
      "stateMutability": "view",
      "type": "function"
    },
    {
      "constant": true,
      "inputs": [],
      "name": "getExpectedEpochId",
      "outputs": [
        {
          "name": "",
          "type": "uint256"
        }
      ],
      "payable": false,
      "stateMutability": "view",
      "type": "function"
    },
    {
      "constant": true,
      "inputs": [],
      "name": "getLastCompletedReportDelta",
      "outputs": [
        {
          "name": "postTotalPooledEther",
          "type": "uint256"
        },
        {
          "name": "preTotalPooledEther",
          "type": "uint256"
        },
        {
          "name": "timeElapsed",
          "type": "uint256"
        }
      ],
      "payable": false,
      "stateMutability": "view",
      "type": "function"
    },
    {
      "constant": false,
      "inputs": [
        {
          "name": "_lido",
          "type": "address"
        },
        {
          "name": "_epochsPerFrame",
          "type": "uint64"
        },
        {
          "name": "_slotsPerEpoch",
          "type": "uint64"
        },
        {
          "name": "_secondsPerSlot",
          "type": "uint64"
        },
        {
          "name": "_genesisTime",
          "type": "uint64"
        },
        {
          "name": "_allowedBeaconBalanceAnnualRelativeIncrease",
          "type": "uint256"
        },
        {
          "name": "_allowedBeaconBalanceRelativeDecrease",
          "type": "uint256"
        }
      ],
      "name": "initialize",
      "outputs": [],
      "payable": false,
      "stateMutability": "nonpayable",
      "type": "function"
    },
    {
      "constant": true,
      "inputs": [],
      "name": "getTimeOriginal",
      "outputs": [
        {
          "name": "",
          "type": "uint256"
        }
      ],
      "payable": false,
      "stateMutability": "view",
      "type": "function"
    },
    {
      "constant": true,
      "inputs": [],
      "name": "getLido",
      "outputs": [
        {
          "name": "",
          "type": "address"
        }
      ],
      "payable": false,
      "stateMutability": "view",
      "type": "function"
    },
    {
      "constant": true,
      "inputs": [],
      "name": "SET_BEACON_REPORT_RECEIVER",
      "outputs": [
        {
          "name": "",
          "type": "bytes32"
        }
      ],
      "payable": false,
      "stateMutability": "view",
      "type": "function"
    },
    {
      "constant": false,
      "inputs": [],
      "name": "finalizeUpgrade_v3",
      "outputs": [],
      "payable": false,
      "stateMutability": "nonpayable",
      "type": "function"
    },
    {
      "constant": true,
      "inputs": [],
      "name": "MANAGE_MEMBERS",
      "outputs": [
        {
          "name": "",
          "type": "bytes32"
        }
      ],
      "payable": false,
      "stateMutability": "view",
      "type": "function"
    },
    {
      "constant": true,
      "inputs": [],
      "name": "getCurrentFrame",
      "outputs": [
        {
          "name": "frameEpochId",
          "type": "uint256"
        },
        {
          "name": "frameStartTime",
          "type": "uint256"
        },
        {
          "name": "frameEndTime",
          "type": "uint256"
        }
      ],
      "payable": false,
      "stateMutability": "view",
      "type": "function"
    },
    {
      "constant": true,
      "inputs": [
        {
          "name": "token",
          "type": "address"
        }
      ],
      "name": "allowRecoverability",
      "outputs": [
        {
          "name": "",
          "type": "bool"
        }
      ],
      "payable": false,
      "stateMutability": "view",
      "type": "function"
    },
    {
      "constant": true,
      "inputs": [
        {
          "name": "_index",
          "type": "uint256"
        }
      ],
      "name": "getCurrentReportVariant",
      "outputs": [
        {
          "name": "beaconBalance",
          "type": "uint64"
        },
        {
          "name": "beaconValidators",
          "type": "uint32"
        },
        {
          "name": "count",
          "type": "uint16"
        }
      ],
      "payable": false,
      "stateMutability": "view",
      "type": "function"
    },
    {
      "constant": true,
      "inputs": [],
      "name": "appId",
      "outputs": [
        {
          "name": "",
          "type": "bytes32"
        }
      ],
      "payable": false,
      "stateMutability": "view",
      "type": "function"
    },
    {
      "constant": true,
      "inputs": [],
      "name": "getLastCompletedEpochId",
      "outputs": [
        {
          "name": "",
          "type": "uint256"
        }
      ],
      "payable": false,
      "stateMutability": "view",
      "type": "function"
    },
    {
      "constant": true,
      "inputs": [],
      "name": "getInitializationBlock",
      "outputs": [
        {
          "name": "",
          "type": "uint256"
        }
      ],
      "payable": false,
      "stateMutability": "view",
      "type": "function"
    },
    {
      "constant": false,
      "inputs": [
        {
          "name": "_addr",
          "type": "address"
        }
      ],
      "name": "setBeaconReportReceiver",
      "outputs": [],
      "payable": false,
      "stateMutability": "nonpayable",
      "type": "function"
    },
    {
      "constant": false,
      "inputs": [
        {
          "name": "_token",
          "type": "address"
        }
      ],
      "name": "transferToVault",
      "outputs": [],
      "payable": false,
      "stateMutability": "nonpayable",
      "type": "function"
    },
    {
      "constant": true,
      "inputs": [],
      "name": "SET_BEACON_SPEC",
      "outputs": [
        {
          "name": "",
          "type": "bytes32"
        }
      ],
      "payable": false,
      "stateMutability": "view",
      "type": "function"
    },
    {
      "constant": true,
      "inputs": [
        {
          "name": "_sender",
          "type": "address"
        },
        {
          "name": "_role",
          "type": "bytes32"
        },
        {
          "name": "_params",
          "type": "uint256[]"
        }
      ],
      "name": "canPerform",
      "outputs": [
        {
          "name": "",
          "type": "bool"
        }
      ],
      "payable": false,
      "stateMutability": "view",
      "type": "function"
    },
    {
      "constant": true,
      "inputs": [],
      "name": "getCurrentEpochId",
      "outputs": [
        {
          "name": "",
          "type": "uint256"
        }
      ],
      "payable": false,
      "stateMutability": "view",
      "type": "function"
    },
    {
      "constant": true,
      "inputs": [],
      "name": "getEVMScriptRegistry",
      "outputs": [
        {
          "name": "",
          "type": "address"
        }
      ],
      "payable": false,
      "stateMutability": "view",
      "type": "function"
    },
    {
      "constant": false,
      "inputs": [
        {
          "name": "_member",
          "type": "address"
        }
      ],
      "name": "addOracleMember",
      "outputs": [],
      "payable": false,
      "stateMutability": "nonpayable",
      "type": "function"
    },
    {
      "constant": true,
      "inputs": [],
      "name": "getBeaconReportReceiver",
      "outputs": [
        {
          "name": "",
          "type": "address"
        }
      ],
      "payable": false,
      "stateMutability": "view",
      "type": "function"
    },
    {
      "constant": true,
      "inputs": [],
      "name": "SET_REPORT_BOUNDARIES",
      "outputs": [
        {
          "name": "",
          "type": "bytes32"
        }
      ],
      "payable": false,
      "stateMutability": "view",
      "type": "function"
    },
    {
      "constant": false,
      "inputs": [
        {
          "name": "_quorum",
          "type": "uint256"
        }
      ],
      "name": "setQuorum",
      "outputs": [],
      "payable": false,
      "stateMutability": "nonpayable",
      "type": "function"
    },
    {
      "constant": true,
      "inputs": [],
      "name": "getQuorum",
      "outputs": [
        {
          "name": "",
          "type": "uint256"
        }
      ],
      "payable": false,
      "stateMutability": "view",
      "type": "function"
    },
    {
      "constant": true,
      "inputs": [],
      "name": "kernel",
      "outputs": [
        {
          "name": "",
          "type": "address"
        }
      ],
      "payable": false,
      "stateMutability": "view",
      "type": "function"
    },
    {
      "constant": true,
      "inputs": [],
      "name": "getOracleMembers",
      "outputs": [
        {
          "name": "",
          "type": "address[]"
        }
      ],
      "payable": false,
      "stateMutability": "view",
      "type": "function"
    },
    {
      "constant": true,
      "inputs": [],
      "name": "isPetrified",
      "outputs": [
        {
          "name": "",
          "type": "bool"
        }
      ],
      "payable": false,
      "stateMutability": "view",
      "type": "function"
    },
    {
      "constant": false,
      "inputs": [
        {
          "name": "_value",
          "type": "uint256"
        }
      ],
      "name": "setAllowedBeaconBalanceRelativeDecrease",
      "outputs": [],
      "payable": false,
      "stateMutability": "nonpayable",
      "type": "function"
    },
    {
      "constant": true,
      "inputs": [],
      "name": "getBeaconSpec",
      "outputs": [
        {
          "name": "epochsPerFrame",
          "type": "uint64"
        },
        {
          "name": "slotsPerEpoch",
          "type": "uint64"
        },
        {
          "name": "secondsPerSlot",
          "type": "uint64"
        },
        {
          "name": "genesisTime",
          "type": "uint64"
        }
      ],
      "payable": false,
      "stateMutability": "view",
      "type": "function"
    },
    {
      "constant": false,
      "inputs": [
        {
          "name": "_epochsPerFrame",
          "type": "uint64"
        },
        {
          "name": "_slotsPerEpoch",
          "type": "uint64"
        },
        {
          "name": "_secondsPerSlot",
          "type": "uint64"
        },
        {
          "name": "_genesisTime",
          "type": "uint64"
        }
      ],
      "name": "setBeaconSpec",
      "outputs": [],
      "payable": false,
      "stateMutability": "nonpayable",
      "type": "function"
    },
    {
      "constant": true,
      "inputs": [],
      "name": "MAX_MEMBERS",
      "outputs": [
        {
          "name": "",
          "type": "uint256"
        }
      ],
      "payable": false,
      "stateMutability": "view",
      "type": "function"
    },
    {
      "constant": true,
      "inputs": [],
      "name": "getCurrentReportVariantsSize",
      "outputs": [
        {
          "name": "",
          "type": "uint256"
        }
      ],
      "payable": false,
      "stateMutability": "view",
      "type": "function"
    },
    {
      "constant": false,
      "inputs": [
        {
          "name": "_epoch",
          "type": "uint256"
        }
      ],
      "name": "setV1LastReportedEpochForTest",
      "outputs": [],
      "payable": false,
      "stateMutability": "nonpayable",
      "type": "function"
    },
    {
      "constant": false,
      "inputs": [
        {
          "name": "_member",
          "type": "address"
        }
      ],
      "name": "removeOracleMember",
      "outputs": [],
      "payable": false,
      "stateMutability": "nonpayable",
      "type": "function"
    },
    {
      "anonymous": false,
      "inputs": [
        {
          "indexed": true,
          "name": "executor",
          "type": "address"
        },
        {
          "indexed": false,
          "name": "script",
          "type": "bytes"
        },
        {
          "indexed": false,
          "name": "input",
          "type": "bytes"
        },
        {
          "indexed": false,
          "name": "returnData",
          "type": "bytes"
        }
      ],
      "name": "ScriptResult",
      "type": "event"
    },
    {
      "anonymous": false,
      "inputs": [
        {
          "indexed": true,
          "name": "vault",
          "type": "address"
        },
        {
          "indexed": true,
          "name": "token",
          "type": "address"
        },
        {
          "indexed": false,
          "name": "amount",
          "type": "uint256"
        }
      ],
      "name": "RecoverToVault",
      "type": "event"
    },
    {
      "anonymous": false,
      "inputs": [
        {
          "indexed": false,
          "name": "value",
          "type": "uint256"
        }
      ],
      "name": "AllowedBeaconBalanceAnnualRelativeIncreaseSet",
      "type": "event"
    },
    {
      "anonymous": false,
      "inputs": [
        {
          "indexed": false,
          "name": "value",
          "type": "uint256"
        }
      ],
      "name": "AllowedBeaconBalanceRelativeDecreaseSet",
      "type": "event"
    },
    {
      "anonymous": false,
      "inputs": [
        {
          "indexed": false,
          "name": "callback",
          "type": "address"
        }
      ],
      "name": "BeaconReportReceiverSet",
      "type": "event"
    },
    {
      "anonymous": false,
      "inputs": [
        {
          "indexed": false,
          "name": "member",
          "type": "address"
        }
      ],
      "name": "MemberAdded",
      "type": "event"
    },
    {
      "anonymous": false,
      "inputs": [
        {
          "indexed": false,
          "name": "member",
          "type": "address"
        }
      ],
      "name": "MemberRemoved",
      "type": "event"
    },
    {
      "anonymous": false,
      "inputs": [
        {
          "indexed": false,
          "name": "quorum",
          "type": "uint256"
        }
      ],
      "name": "QuorumChanged",
      "type": "event"
    },
    {
      "anonymous": false,
      "inputs": [
        {
          "indexed": false,
          "name": "epochId",
          "type": "uint256"
        }
      ],
      "name": "ExpectedEpochIdUpdated",
      "type": "event"
    },
    {
      "anonymous": false,
      "inputs": [
        {
          "indexed": false,
          "name": "epochsPerFrame",
          "type": "uint64"
        },
        {
          "indexed": false,
          "name": "slotsPerEpoch",
          "type": "uint64"
        },
        {
          "indexed": false,
          "name": "secondsPerSlot",
          "type": "uint64"
        },
        {
          "indexed": false,
          "name": "genesisTime",
          "type": "uint64"
        }
      ],
      "name": "BeaconSpecSet",
      "type": "event"
    },
    {
      "anonymous": false,
      "inputs": [
        {
          "indexed": false,
          "name": "epochId",
          "type": "uint256"
        },
        {
          "indexed": false,
          "name": "beaconBalance",
          "type": "uint128"
        },
        {
          "indexed": false,
          "name": "beaconValidators",
          "type": "uint128"
        },
        {
          "indexed": false,
          "name": "caller",
          "type": "address"
        }
      ],
      "name": "BeaconReported",
      "type": "event"
    },
    {
      "anonymous": false,
      "inputs": [
        {
          "indexed": false,
          "name": "epochId",
          "type": "uint256"
        },
        {
          "indexed": false,
          "name": "beaconBalance",
          "type": "uint128"
        },
        {
          "indexed": false,
          "name": "beaconValidators",
          "type": "uint128"
        }
      ],
      "name": "Completed",
      "type": "event"
    },
    {
      "anonymous": false,
      "inputs": [
        {
          "indexed": false,
          "name": "postTotalPooledEther",
          "type": "uint256"
        },
        {
          "indexed": false,
          "name": "preTotalPooledEther",
          "type": "uint256"
        },
        {
          "indexed": false,
          "name": "timeElapsed",
          "type": "uint256"
        },
        {
          "indexed": false,
          "name": "totalShares",
          "type": "uint256"
        }
      ],
      "name": "PostTotalShares",
      "type": "event"
    },
    {
      "anonymous": false,
      "inputs": [
        {
          "indexed": false,
          "name": "version",
          "type": "uint256"
        }
      ],
      "name": "ContractVersionSet",
      "type": "event"
    }
  ],
  "bytecode": {
    "object": "0x6080604052620000146200001a60201b60201c565b62000231565b6200002a6200011c60201b60201c565b60408051808201909152601881527f494e49545f414c52454144595f494e495449414c495a454400000000000000006020820152901562000106576040517f08c379a00000000000000000000000000000000000000000000000000000000081526004018080602001828103825283818151815260200191508051906020019080838360005b83811015620000ca578181015183820152602001620000b0565b50505050905090810190601f168015620000f85780820380516001836020036101000a031916815260200191505b509250505060405180910390fd5b506200011a6000196200014f60201b60201c565b565b60006200014a600080516020620039df83398151915260001b600019166200022960201b620025a11760201c565b905090565b6200015f6200011c60201b60201c565b60408051808201909152601881527f494e49545f414c52454144595f494e495449414c495a4544000000000000000060208201529015620001fe576040517f08c379a000000000000000000000000000000000000000000000000000000000815260040180806020018281038252838181518152602001915080519060200190808383600083811015620000ca578181015183820152602001620000b0565b5062000226600080516020620039df833981519152826200022d602090811b620025a517901c565b50565b5490565b9055565b61379e80620002416000396000f30060806040526004361061021e5760003560e01c63ffffffff16806303cda963146102235780630719d5311461024a5780630803fac0146102645780630d8e6e2c1461028d5780632914b9bd146102a25780632fa689bb1461031757806331f208b31461032c57806332f0a3b51461035a5780633beb26c41461036f578063408def1e1461038757806343125b021461039f57806343d21789146103b45780634b47b74f146103c9578063534649c4146103de57806359ae8e9e146104115780636120d8a2146104575780636a516b471461046c5780636b788573146104815780636d395b7e146104965780636e93beb8146104ab57806372f79b13146104c05780637e7db6e1146104d55780637ffb1472146104f657806380afdea81461054057806389896aef146105555780638b3dd7491461056a5780639a3cb2ca1461057f5780639d4941d8146105a0578063a01f0486146105c1578063a1658fad146105d6578063a29a839f1461063d578063a479e50814610652578063b164e43714610667578063b248060314610688578063b97d55961461069d578063c1ba4e59146106b2578063c26c12eb146106ca578063d4aae0c4146106df578063dabb5757146106f4578063de4796ed14610759578063de50700f1461076e578063e547c77c14610786578063e90b2da1146107d0578063ea0e35b114610804578063ed9767d914610819578063f30ae58a1461082e578063f98fae8114610846575b600080fd5b34801561022f57600080fd5b50610238610867565b60408051918252519081900360200190f35b34801561025657600080fd5b50610262600435610886565b005b34801561027057600080fd5b506102796109ce565b604080519115158252519081900360200190f35b34801561029957600080fd5b506102386109f8565b3480156102ae57600080fd5b506040805160206004803580820135601f81018490048402850184019095528484526102fb943694929360249392840191908190840183828082843750949750610a119650505050505050565b60408051600160a060020a039092168252519081900360200190f35b34801561032357600080fd5b50610238610af4565b34801561033857600080fd5b5061026260043567ffffffffffffffff6024351663ffffffff60443516610b18565b34801561036657600080fd5b506102fb610ec6565b34801561037b57600080fd5b50610262600435610f3b565b34801561039357600080fd5b50610262600435610f40565b3480156103ab57600080fd5b50610238610f61565b3480156103c057600080fd5b50610238610f7a565b3480156103d557600080fd5b50610238610f93565b3480156103ea57600080fd5b506103f3610fac565b60408051938452602084019290925282820152519081900360600190f35b34801561041d57600080fd5b50610262600160a060020a036004351667ffffffffffffffff6024358116906044358116906064358116906084351660a43560c435611036565b34801561046357600080fd5b506102386112fc565b34801561047857600080fd5b506102fb611306565b34801561048d57600080fd5b50610238611331565b3480156104a257600080fd5b50610262611355565b3480156104b757600080fd5b506102386113cd565b3480156104cc57600080fd5b506103f36113f1565b3480156104e157600080fd5b50610279600160a060020a0360043516611484565b34801561050257600080fd5b5061050e60043561148a565b6040805167ffffffffffffffff909416845263ffffffff909216602084015261ffff1682820152519081900360600190f35b34801561054c57600080fd5b506102386114be565b34801561056157600080fd5b506102386114e9565b34801561057657600080fd5b50610238611514565b34801561058b57600080fd5b50610262600160a060020a036004351661153f565b3480156105ac57600080fd5b50610262600160a060020a036004351661170c565b3480156105cd57600080fd5b5061023861199b565b3480156105e257600080fd5b506040805160206004604435818101358381028086018501909652808552610279958335600160a060020a03169560248035963696956064959394920192918291850190849080828437509497506119bf9650505050505050565b34801561064957600080fd5b50610238611b0c565b34801561065e57600080fd5b506102fb611b29565b34801561067357600080fd5b50610262600160a060020a0360043516611bde565b34801561069457600080fd5b506102fb611e3e565b3480156106a957600080fd5b50610238611e69565b3480156106be57600080fd5b50610262600435611e8d565b3480156106d657600080fd5b50610238612095565b3480156106eb57600080fd5b506102fb6120ae565b34801561070057600080fd5b506107096120d9565b60408051602080825283518183015283519192839290830191858101910280838360005b8381101561074557818101518382015260200161072d565b505050509050019250505060405180910390f35b34801561076557600080fd5b5061027961213b565b34801561077a57600080fd5b5061026260043561214e565b34801561079257600080fd5b5061079b612258565b6040805167ffffffffffffffff9586168152938516602085015291841683830152909216606082015290519081900360800190f35b3480156107dc57600080fd5b5061026267ffffffffffffffff6004358116906024358116906044358116906064351661228f565b34801561081057600080fd5b50610238612357565b34801561082557600080fd5b5061023861235d565b34801561083a57600080fd5b50610262600435612363565b34801561085257600080fd5b50610262600160a060020a0360043516612393565b60006108806000805160206137138339815191526125a1565b90505b90565b604080516000808252602082019092527f44adaee26c92733e57241cb0b26ffaa2d182ed7120ba3ecd7e0dce3635c01dc1916108c89133918491905b506119bf565b60408051808201909152600f815260008051602061369383398151915260208201529015156109785760405160e560020a62461bcd0281526004018080602001828103825283818151815260200191508051906020019080838360005b8381101561093d578181015183820152602001610925565b50505050905090810190601f16801561096a5780820380516001836020036101000a031916815260200191505b509250505060405180910390fd5b506109976000805160206136d38339815191528363ffffffff6125a516565b6040805183815290517f15befe448b41dd28cf3e1b9db42dbb489e7bd480093345e3dbb132ab2993b5379181900360200190a15050565b6000806109d9611514565b905080158015906109f15750806109ee6125a9565b10155b91505b5090565b60006108806000805160206136b38339815191526125a1565b6000610a1b611b29565b600160a060020a03166304bf2a7f836040518263ffffffff1660e01b81526004018080602001828103825283818151815260200191508051906020019080838360005b83811015610a76578181015183820152602001610a5e565b50505050905090810190601f168015610aa35780820380516001836020036101000a031916815260200191505b5092505050602060405180830381600087803b158015610ac257600080fd5b505af1158015610ad6573d6000803e3d6000fd5b505050506040513d6020811015610aec57600080fd5b505192915050565b7fa5ffa9f45fa52c446078e834e1914561bd9c2ab1e833572d62af775da092ccbc81565b610b2061360e565b600080600080600080600080610b346125ad565b9850610b4d6000805160206137538339815191526125a1565b9750878c1015610ba7576040805160e560020a62461bcd02815260206004820152601060248201527f45504f43485f49535f544f4f5f4f4c4400000000000000000000000000000000604482015290519081900360640190fd5b878c1115610c2057610bc1610bbb8a612613565b8a612652565b8c14610c17576040805160e560020a62461bcd02815260206004820152601060248201527f554e45585045435445445f45504f434800000000000000000000000000000000604482015290519081900360640190fd5b610c208c612675565b604080518d81526fffffffffffffffffffffffffffffffff633b9aca0067ffffffffffffffff8f1602908116602083015263ffffffff8d168284015233606083015291519198507f23285eb039d2d2881abbf7503a6d39ac5d3113701031b3e69abcb1d2cc24266f919081900360800190a1610c9b336126f4565b9550600019861415610cf7576040805160e560020a62461bcd02815260206004820152601060248201527f4d454d4245525f4e4f545f464f554e4400000000000000000000000000000000604482015290519081900360640190fd5b610d0e6000805160206137138339815191526125a1565b94506001861b935083851615610d6e576040805160e560020a62461bcd02815260206004820152601160248201527f414c52454144595f5355424d4954544544000000000000000000000000000000604482015290519081900360640190fd5b610d8e60008051602061371383398151915286861763ffffffff6125a516565b610d988b8b612753565b9250610da2612095565b9150600090505b60015481108015610de15750610de183600183815481101515610dc857fe5b906000526020600020015461277090919063ffffffff16565b15610dee57600101610da9565b600154811015610e665781610e1b600183815481101515610e0b57fe5b9060005260206000200154610883565b60010161ffff16101515610e4057610e3b8c888c63ffffffff168c612788565b610e61565b6001805482908110610e4e57fe5b6000918252602090912001805460010190555b610eb8565b8160011415610e8157610e618c888c63ffffffff168c612788565b60018054808201825560008290529084017fb10e2d527612073b26eecdfd717e6a320cf44b4afac2b0732d9fcbe2b7fa0cf6909101555b505050505050505050505050565b6000610ed06120ae565b600160a060020a03166332f0a3b56040518163ffffffff1660e01b8152600401602060405180830381600087803b158015610f0a57600080fd5b505af1158015610f1e573d6000803e3d6000fd5b505050506040513d6020811015610f3457600080fd5b5051905090565b600255565b610f5e6000805160206136b38339815191528263ffffffff6125a516565b50565b60006108806000805160206136d38339815191526125a1565b60006108806000805160206136f38339815191526125a1565b60006108806000805160206137538339815191526125a1565b60008080610fd97faa8433b13d2b111d4f84f6f374bc7acbe20794944308876aa250fa9a73dc7f536125a1565b92506110047f1043177539af09a67d747435df3ff1155a64cd93a347daaac9132a591442d43e6125a1565b915061102f7f8fe323f4ecd3bf0497252a90142003855cc5125cee76a5b5ba5d508c7ec28c3a6125a1565b9050909192565b61103e61360e565b6000611048611514565b60408051808201909152601881527f494e49545f414c52454144595f494e495449414c495a45440000000000000000602082015290156110cd5760405160e560020a62461bcd0281526004018080602001828103825283818151815260200191508051906020019080838360008381101561093d578181015183820152602001610925565b506110e56000805160206136b38339815191526125a1565b1561113a576040805160e560020a62461bcd02815260206004820152601960248201527f424153455f56455253494f4e5f4d5553545f42455f5a45524f00000000000000604482015290519081900360640190fd5b61114688888888612be2565b6111767ff6978a4f7e200f6d3a24d82d44c48bddabce399a3b8ec42a480ea8a2d5fe6ec58a63ffffffff6125a516565b611195600080516020613733833981519152600163ffffffff6125a516565b604080516001815290517f027863d12a407097e086a48e36475bfc859d0b200b7e6f65b5fd3b218e46632e9181900360200190a16111e76000805160206136d38339815191528563ffffffff6125a516565b6040805185815290517f15befe448b41dd28cf3e1b9db42dbb489e7bd480093345e3dbb132ab2993b5379181900360200190a16112386000805160206136f38339815191528463ffffffff6125a516565b6040805184815290517f0116349092cceaec6172fcd61b2b801a45663783c9dca24919105b66a62da84a9181900360200190a16112736125ad565b805190925067ffffffffffffffff1661128d600084612652565b0190506112ae6000805160206137538339815191528263ffffffff6125a516565b6040805182815290517fcdcd275f4d96ed683d684f3610a92beacdebcf1ee4d37e2df526fb9001e1ea639181900360200190a16112e9612e18565b6112f1612e6d565b505050505050505050565b6000610880612f33565b60006108807ff6978a4f7e200f6d3a24d82d44c48bddabce399a3b8ec42a480ea8a2d5fe6ec56125a1565b7fe22a455f1bfbaf705ac3e891a64e156da92cb0b42cfc389158e6e82bd57f37be81565b61136c6000805160206136b38339815191526125a1565b6001146113c3576040805160e560020a62461bcd02815260206004820152601260248201527f57524f4e475f424153455f56455253494f4e0000000000000000000000000000604482015290519081900360640190fd5b6113cb612e18565b565b7fbf6336045918ae0015f4cdb3441a2fdbfaa4bcde6558c8692aac7f56c69fb06781565b60008060006113fe61360e565b6000806114096125ad565b9250826060015191508260200151836040015102905061143161142b84612613565b84612652565b95508167ffffffffffffffff168167ffffffffffffffff16870201945060018267ffffffffffffffff168267ffffffffffffffff16856000015167ffffffffffffffff1689010201039350505050909192565b50600190565b60008060006114b16001858154811015156114a157fe5b9060005260206000200154612f37565b9250925092509193909250565b60006108807fd625496217aa6a3453eecb9c3489dc5a53e6c67b444329ea2b2cbc9ff547639b6125a1565b60006108807fdad15c0beecd15610092d84427258e369d2582df22869138b4c5265f049f574c6125a1565b60006108807febb05b386a8d34882b8711d156f463690983dc47815980fb82aeeff1aa43579e6125a1565b604080516000808252602082019092527fe22a455f1bfbaf705ac3e891a64e156da92cb0b42cfc389158e6e82bd57f37be9061157f9033908390856108c2565b60408051808201909152600f815260008051602061369383398151915260208201529015156115f35760405160e560020a62461bcd0281526004018080602001828103825283818151815260200191508051906020019080838360008381101561093d578181015183820152602001610925565b50600160a060020a038316156116925761163c600160a060020a0384167f34212e5f0000000000000000000000000000000000000000000000000000000063ffffffff612f4616565b1515611692576040805160e560020a62461bcd02815260206004820152601a60248201527f4241445f424541434f4e5f5245504f52545f5245434549564552000000000000604482015290519081900360640190fd5b6116cb7fb59039ed37776bc23c5d272e10b525a957a1dfad97f5006c84394b6b512c1564600160a060020a03851663ffffffff6125a516565b60408051600160a060020a038516815290517f10bdb8bba3913c9e1b7ffbf8759dfcf1c355d9796d58906b147ff0b4c3e314489181900360200190a1505050565b600080600061171a84611484565b60408051808201909152601281527f5245434f5645525f444953414c4c4f574544000000000000000000000000000060208201529015156117a05760405160e560020a62461bcd0281526004018080602001828103825283818151815260200191508051906020019080838360008381101561093d578181015183820152602001610925565b506117a9610ec6565b92506117b483612f69565b60408051808201909152601a81527f5245434f5645525f5641554c545f4e4f545f434f4e5452414354000000000000602082015290151561183a5760405160e560020a62461bcd0281526004018080602001828103825283818151815260200191508051906020019080838360008381101561093d578181015183820152602001610925565b50600160a060020a038416151561188b5760405130319250600160a060020a0384169083156108fc029084906000818181858888f19350505050158015611885573d6000803e3d6000fd5b5061194a565b50826118a6600160a060020a0382163063ffffffff612f9616565b91506118c2600160a060020a038216848463ffffffff6130ab16565b60408051808201909152601d81527f5245434f5645525f544f4b454e5f5452414e534645525f4641494c454400000060208201529015156119485760405160e560020a62461bcd0281526004018080602001828103825283818151815260200191508051906020019080838360008381101561093d578181015183820152602001610925565b505b83600160a060020a031683600160a060020a03167f596caf56044b55fb8c4ca640089bbc2b63cae3e978b851f5745cbb7c5b288e02846040518082815260200191505060405180910390a350505050565b7f16a273d48baf8111397316e6d961e6836913acb23b181e6c5fb35ec0bd2648fc81565b6000806119ca6109ce565b15156119d95760009150611b04565b6119e16120ae565b9050600160a060020a03811615156119fc5760009150611b04565b80600160a060020a031663fdef9106863087611a1788613136565b60405163ffffffff861660e01b8152600160a060020a03808616600483019081529085166024830152604482018490526080606483019081528351608484015283519192909160a490910190602085019080838360005b83811015611a86578181015183820152602001611a6e565b50505050905090810190601f168015611ab35780820380516001836020036101000a031916815260200191505b5095505050505050602060405180830381600087803b158015611ad557600080fd5b505af1158015611ae9573d6000803e3d6000fd5b505050506040513d6020811015611aff57600080fd5b505191505b509392505050565b6000611b1661360e565b611b1e6125ad565b90506109f181612613565b600080611b346120ae565b604080517fbe00bbd80000000000000000000000000000000000000000000000000000000081527fd6f028ca0e8edb4a8c9757ca4fdccab25fa1e0317da1188108f7d2dee14902fb60048201527fddbcfd564f642ab5627cf68b9b7d374fb4f8a36e941a75d89c87998cef03bd6160248201529051600160a060020a03929092169163be00bbd8916044808201926020929091908290030181600087803b158015610ac257600080fd5b604080516000808252602082019092527fbf6336045918ae0015f4cdb3441a2fdbfaa4bcde6558c8692aac7f56c69fb06791611c1e9133918491906108c2565b60408051808201909152600f81526000805160206136938339815191526020820152901515611c925760405160e560020a62461bcd0281526004018080602001828103825283818151815260200191508051906020019080838360008381101561093d578181015183820152602001610925565b50600160a060020a0382161515611cf3576040805160e560020a62461bcd02815260206004820152600c60248201527f4241445f415247554d454e540000000000000000000000000000000000000000604482015290519081900360640190fd5b611cfc826126f4565b60001914611d54576040805160e560020a62461bcd02815260206004820152600d60248201527f4d454d4245525f45584953545300000000000000000000000000000000000000604482015290519081900360640190fd5b60005461010011611daf576040805160e560020a62461bcd02815260206004820152601060248201527f544f4f5f4d414e595f4d454d4245525300000000000000000000000000000000604482015290519081900360640190fd5b600080546001810182559080527f290decd9548b62a8d60345a988386fc84ba6bc95484008f6362f93160ef3e563018054600160a060020a03841673ffffffffffffffffffffffffffffffffffffffff19909116811790915560408051918252517fb251eb052afc73ffd02ffe85ad79990a8b3fed60d76dbc2fa2fdd7123dffd9149181900360200190a15050565b60006108807fb59039ed37776bc23c5d272e10b525a957a1dfad97f5006c84394b6b512c15646125a1565b7f44adaee26c92733e57241cb0b26ffaa2d182ed7120ba3ecd7e0dce3635c01dc181565b60008060008060007fa5ffa9f45fa52c446078e834e1914561bd9c2ab1e833572d62af775da092ccbc60001b611eee338260006040519080825280602002602001820160405280156108c257816020016020820280388339019050506119bf565b60408051808201909152600f81526000805160206136938339815191526020820152901515611f625760405160e560020a62461bcd0281526004018080602001828103825283818151815260200191508051906020019080838360008381101561093d578181015183820152602001610925565b50861515611fba576040805160e560020a62461bcd02815260206004820152601360248201527f51554f52554d5f574f4e545f42455f4d41444500000000000000000000000000604482015290519081900360640190fd5b611fd16000805160206137338339815191526125a1565b9550611ff16000805160206137338339815191528863ffffffff6125a516565b6040805188815290517f027863d12a407097e086a48e36475bfc859d0b200b7e6f65b5fd3b218e46632e9181900360200190a18686111561208c5761203587613140565b94509450841561208c5761204884613250565b909350915061208c6120676000805160206137538339815191526125a1565b8467ffffffffffffffff16633b9aca00028463ffffffff166120876125ad565b612788565b50505050505050565b60006108806000805160206137338339815191526125a1565b60006108807f4172f0f7d2289153072b0a6ca36959e0cbe2efc3afe50fc81636caa96338137b6125a1565b6060600080548060200260200160405190810160405280929190818152602001828054801561213157602002820191906000526020600020905b8154600160a060020a03168152600190910190602001808311612113575b5050505050905090565b6000600019612148611514565b14905090565b604080516000808252602082019092527f44adaee26c92733e57241cb0b26ffaa2d182ed7120ba3ecd7e0dce3635c01dc19161218e9133918491906108c2565b60408051808201909152600f815260008051602061369383398151915260208201529015156122025760405160e560020a62461bcd0281526004018080602001828103825283818151815260200191508051906020019080838360008381101561093d578181015183820152602001610925565b506122216000805160206136f38339815191528363ffffffff6125a516565b6040805183815290517f0116349092cceaec6172fcd61b2b801a45663783c9dca24919105b66a62da84a9181900360200190a15050565b60008060008061226661360e565b61226e6125ad565b80516020820151604083015160609093015191989097509195509350915050565b604080516000808252602082019092527f16a273d48baf8111397316e6d961e6836913acb23b181e6c5fb35ec0bd2648fc916122cf9133918491906108c2565b60408051808201909152600f815260008051602061369383398151915260208201529015156123435760405160e560020a62461bcd0281526004018080602001828103825283818151815260200191508051906020019080838360008381101561093d578181015183820152602001610925565b5061235085858585612be2565b5050505050565b61010081565b60015490565b610f5e7ffe0250ed0c5d8af6526c6d133fccb8e5a55dd6b1aa6696ed0c327f8e517b5a948263ffffffff6125a516565b6040805160008082526020820190925281907fbf6336045918ae0015f4cdb3441a2fdbfaa4bcde6558c8692aac7f56c69fb067906123d59033908390856108c2565b60408051808201909152600f815260008051602061369383398151915260208201529015156124495760405160e560020a62461bcd0281526004018080602001828103825283818151815260200191508051906020019080838360008381101561093d578181015183820152602001610925565b50612453846126f4565b92506000198314156124af576040805160e560020a62461bcd02815260206004820152601060248201527f4d454d4245525f4e4f545f464f554e4400000000000000000000000000000000604482015290519081900360640190fd5b6000546000190191508282146125205760008054839081106124cd57fe5b60009182526020822001548154600160a060020a039091169190859081106124f157fe5b9060005260206000200160006101000a815481600160a060020a030219169083600160a060020a031602179055505b6000805490612533906000198301613635565b5060408051600160a060020a038616815290517f6e76fb4c77256006d9c38ec7d82b45a8c8f3c27b1d6766fffc42dfb8de6844929181900360200190a161258f600080516020613713833981519152600063ffffffff6125a516565b61259b6001600061365e565b50505050565b5490565b9055565b4390565b6125b561360e565b60006125e07f805e82d53a51be3dfde7cfed901f1f96f5dad18e874708b082adb8841e8ca9096125a1565b67ffffffffffffffff60c082901c81168452608082901c81166020850152604082811c8216908501521660608301525090565b6000816040015182602001510267ffffffffffffffff16826060015167ffffffffffffffff1661264161325f565b0381151561264b57fe5b0492915050565b805160009067ffffffffffffffff16808481151561266c57fe5b04029392505050565b612694600080516020613713833981519152600063ffffffff6125a516565b6126b26000805160206137538339815191528263ffffffff6125a516565b6126be6001600061365e565b6040805182815290517fcdcd275f4d96ed683d684f3610a92beacdebcf1ee4d37e2df526fb9001e1ea639181900360200190a150565b60008054815b818110156127465783600160a060020a031660008281548110151561271b57fe5b600091825260209091200154600160a060020a0316141561273e5780925061274c565b6001016126fa565b60001992505b5050919050565b63ffffffff1660101b67ffffffffffffffff9190911660301b1790565b6dffffffffffffffffffffffff000091909116141590565b604080518581526fffffffffffffffffffffffffffffffff8086166020830152841681830152905160009182918291829182917f95423529aa0b2867e02676b0bb4766cde576fb31ea77056f683bc236c7c15f9d919081900360600190a185516127fd9067ffffffffffffffff168a01612675565b612805611306565b945084600160a060020a03166318160ddd6040518163ffffffff1660e01b8152600401602060405180830381600087803b15801561284257600080fd5b505af1158015612856573d6000803e3d6000fd5b505050506040513d602081101561286c57600080fd5b5051604080517f64f9991a0000000000000000000000000000000000000000000000000000000081526fffffffffffffffffffffffffffffffff808b1660048301528b1660248201529051919550600160a060020a038716916364f9991a9160448082019260009290919082900301818387803b1580156128ec57600080fd5b505af1158015612900573d6000803e3d6000fd5b5050505084600160a060020a03166318160ddd6040518163ffffffff1660e01b8152600401602060405180830381600087803b15801561293f57600080fd5b505af1158015612953573d6000803e3d6000fd5b505050506040513d602081101561296957600080fd5b5051925061299d7f1043177539af09a67d747435df3ff1155a64cd93a347daaac9132a591442d43e8563ffffffff6125a516565b6129cd7faa8433b13d2b111d4f84f6f374bc7acbe20794944308876aa250fa9a73dc7f538463ffffffff6125a516565b6040860151602087015167ffffffffffffffff9182169116612a0e7fdad15c0beecd15610092d84427258e369d2582df22869138b4c5265f049f574c6125a1565b8b0302029150612a447f8fe323f4ecd3bf0497252a90142003855cc5125cee76a5b5ba5d508c7ec28c3a8363ffffffff6125a516565b612a747fdad15c0beecd15610092d84427258e369d2582df22869138b4c5265f049f574c8a63ffffffff6125a516565b612a7f838584613265565b7fdafd48d1eba2a416b2aca45e9ead3ad18b84e868fa6d2e1a3048bfd37ed10a3283858488600160a060020a031663d5002f2e6040518163ffffffff1660e01b8152600401602060405180830381600087803b158015612ade57600080fd5b505af1158015612af2573d6000803e3d6000fd5b505050506040513d6020811015612b0857600080fd5b5051604080519485526020850193909352838301919091526060830152519081900360800190a1612b587fb59039ed37776bc23c5d272e10b525a957a1dfad97f5006c84394b6b512c15646125a1565b9050600160a060020a038116156112f15780600160a060020a03166334212e5f8486856040518463ffffffff1660e01b8152600401808481526020018381526020018281526020019350505050600060405180830381600087803b158015612bbf57600080fd5b505af1158015612bd3573d6000803e3d6000fd5b50505050505050505050505050565b600067ffffffffffffffff85168110612c45576040805160e560020a62461bcd02815260206004820152601460248201527f4241445f45504f4348535f5045525f4652414d45000000000000000000000000604482015290519081900360640190fd5b600067ffffffffffffffff851611612ca7576040805160e560020a62461bcd02815260206004820152601360248201527f4241445f534c4f54535f5045525f45504f434800000000000000000000000000604482015290519081900360640190fd5b600067ffffffffffffffff841611612d09576040805160e560020a62461bcd02815260206004820152601460248201527f4241445f5345434f4e44535f5045525f534c4f54000000000000000000000000604482015290519081900360640190fd5b600067ffffffffffffffff831611612d6b576040805160e560020a62461bcd02815260206004820152601060248201527f4241445f47454e455349535f54494d4500000000000000000000000000000000604482015290519081900360640190fd5b5067ffffffffffffffff84811660c01b84821660801b1783821660401b1790821617612dbd7f805e82d53a51be3dfde7cfed901f1f96f5dad18e874708b082adb8841e8ca9098263ffffffff6125a516565b6040805167ffffffffffffffff80881682528087166020830152808616828401528416606082015290517fa15de8f88515e04da45ad2303c04e9f126945fd99e173d3d93ff6351e1f335ee9181900360800190a15050505050565b612e376000805160206136b3833981519152600363ffffffff6125a516565b604080516003815290517ffddcded6b4f4730c226821172046b48372d3cd963c159701ae1b7c3bcac541bb9181900360200190a1565b612e75611514565b60408051808201909152601881527f494e49545f414c52454144595f494e495449414c495a4544000000000000000060208201529015612efa5760405160e560020a62461bcd0281526004018080602001828103825283818151815260200191508051906020019080838360008381101561093d578181015183820152602001610925565b506113cb612f066125a9565b7febb05b386a8d34882b8711d156f463690983dc47815980fb82aeeff1aa43579e9063ffffffff6125a516565b4290565b603081901c91601082901c9190565b6000612f51836133ad565b8015612f625750612f62838361340f565b9392505050565b600080600160a060020a0383161515612f855760009150612f90565b823b90506000811191505b50919050565b60408051600160a060020a0383166024808301919091528251808303909101815260449091019091526020810180517bffffffffffffffffffffffffffffffffffffffffffffffffffffffff167f70a082310000000000000000000000000000000000000000000000000000000017905260009081806130168684613432565b60408051808201909152601c81527f534146455f4552435f32305f42414c414e43455f524556455254454400000000602082015291935091508215156130a15760405160e560020a62461bcd0281526004018080602001828103825283818151815260200191508051906020019080838360008381101561093d578181015183820152602001610925565b5095945050505050565b60408051600160a060020a038416602482015260448082018490528251808303909101815260649091019091526020810180517bffffffffffffffffffffffffffffffffffffffffffffffffffffffff167fa9059cbb0000000000000000000000000000000000000000000000000000000017905260009061312d8582613463565b95945050505050565b8051602002815290565b600080600080600080600060018054905060011415613197578761316d60016000815481101515610e0b57fe5b61ffff1610156001600081548110151561318357fe5b906000526020600020015496509650613246565b60015415156131ac5760009650869550613246565b5060009350839250829150819050805b600154811015613216576131d8600182815481101515610e0b57fe5b915061ffff8084169083161061320e578261ffff168261ffff1614156132035783600101935061320e565b809450819250600093505b6001016131bc565b878361ffff1610158015613228575083155b600180548790811061323657fe5b9060005260206000200154965096505b5050505050915091565b603081901c9160109190911c90565b60025490565b60008083851061331a576132866000805160206136d38339815191526125a1565b91506132a88361329c848763ffffffff6134b416565b9063ffffffff6134b416565b6132bf64496cebb80086880363ffffffff6134b416565b1115613315576040805160e560020a62461bcd02815260206004820152601f60248201527f414c4c4f5745445f424541434f4e5f42414c414e43455f494e43524541534500604482015290519081900360640190fd5b612350565b6133316000805160206136f38339815191526125a1565b9050613343818563ffffffff6134b416565b61335761271087870363ffffffff6134b416565b1115612350576040805160e560020a62461bcd02815260206004820152601f60248201527f414c4c4f5745445f424541434f4e5f42414c414e43455f444543524541534500604482015290519081900360640190fd5b60006133d9827f01ffc9a70000000000000000000000000000000000000000000000000000000061340f565b80156134095750613407827bffffffffffffffffffffffffffffffffffffffffffffffffffffffff1961340f565b155b92915050565b600080600061341e858561355f565b9150915081801561312d5750949350505050565b6000806000806040516020818751602089018a5afa9250600083111561345757805191505b50909590945092505050565b6000806040516020818551602087016000895af160008111156134a7573d8015613494576020811461349d576134a5565b600193506134a5565b600183511493505b505b50508091505b5092915050565b6000808315156134c757600091506134ad565b508282028284828115156134d757fe5b60408051808201909152601181527f4d4154485f4d554c5f4f564552464c4f5700000000000000000000000000000060208201529291900414611b045760405160e560020a62461bcd0281526004018080602001828103825283818151815260200191508051906020019080838360008381101561093d578181015183820152602001610925565b604080517bffffffffffffffffffffffffffffffffffffffffffffffffffffffff1983166024808301919091528251808303909101815260449091018252602081810180517bffffffffffffffffffffffffffffffffffffffffffffffffffffffff167f01ffc9a700000000000000000000000000000000000000000000000000000000178152825193516000808252948594939091908183858b617530fa9051909890975095505050505050565b60408051608081018252600080825260208201819052918101829052606081019190915290565b81548183558181111561365957600083815260209020613659918101908301613678565b505050565b5080546000825590600052602060002090810190610f5e91905b61088391905b808211156109f4576000815560010161367e56004150505f415554485f4641494c4544000000000000000000000000000000000075be19a3f314d89bd1f84d30a6c84e2f1cd7afc7b6ca21876564c265113bb7e4613075ab597bed8ce2e18342385ce127d3e5298bc7a84e3db68dc64abd4811ac92ba7776ed6c5d13cf023555a94e70b823a4aebd56ed522a77345ff5cd8a9109ea6fa022365e4737a3bb52facb00ddc693a656fb51ffb2b4bd24fb85bdc888bed43b42c1ba05a1ab3c178623a49b2cdb55f000ec70b9ccdba5740b3339a7589e65f1a0ee358a8a4000a59c2815dc768eb87d24146ca1ac5555cb6eb871aee915a165627a7a7230582095d9f059e00d18bd913662cfff2fa30ea4e4a93d12a923fd960eeace0be582c60029ebb05b386a8d34882b8711d156f463690983dc47815980fb82aeeff1aa43579e",
    "linkReferences": {}
  },
  "methodIdentifiers": {
    "MANAGE_MEMBERS()": "6e93beb8",
    "MANAGE_QUORUM()": "2fa689bb",
    "MAX_MEMBERS()": "ea0e35b1",
    "SET_BEACON_REPORT_RECEIVER()": "6b788573",
    "SET_BEACON_SPEC()": "a01f0486",
    "SET_REPORT_BOUNDARIES()": "b97d5596",
    "addOracleMember(address)": "b164e437",
    "allowRecoverability(address)": "7e7db6e1",
    "appId()": "80afdea8",
    "canPerform(address,bytes32,uint256[])": "a1658fad",
    "finalizeUpgrade_v3()": "6d395b7e",
    "getAllowedBeaconBalanceAnnualRelativeIncrease()": "43125b02",
    "getAllowedBeaconBalanceRelativeDecrease()": "43d21789",
    "getBeaconReportReceiver()": "b2480603",
    "getBeaconSpec()": "e547c77c",
    "getCurrentEpochId()": "a29a839f",
    "getCurrentFrame()": "72f79b13",
    "getCurrentOraclesReportStatus()": "03cda963",
    "getCurrentReportVariant(uint256)": "7ffb1472",
    "getCurrentReportVariantsSize()": "ed9767d9",
    "getEVMScriptExecutor(bytes)": "2914b9bd",
    "getEVMScriptRegistry()": "a479e508",
    "getExpectedEpochId()": "4b47b74f",
    "getInitializationBlock()": "8b3dd749",
    "getLastCompletedEpochId()": "89896aef",
    "getLastCompletedReportDelta()": "534649c4",
    "getLido()": "6a516b47",
    "getOracleMembers()": "dabb5757",
    "getQuorum()": "c26c12eb",
    "getRecoveryVault()": "32f0a3b5",
    "getTimeOriginal()": "6120d8a2",
    "getVersion()": "0d8e6e2c",
    "hasInitialized()": "0803fac0",
    "initialize(address,uint64,uint64,uint64,uint64,uint256,uint256)": "59ae8e9e",
    "isPetrified()": "de4796ed",
    "kernel()": "d4aae0c4",
    "removeOracleMember(address)": "f98fae81",
    "reportBeacon(uint256,uint64,uint32)": "31f208b3",
    "setAllowedBeaconBalanceAnnualRelativeIncrease(uint256)": "0719d531",
    "setAllowedBeaconBalanceRelativeDecrease(uint256)": "de50700f",
    "setBeaconReportReceiver(address)": "9a3cb2ca",
    "setBeaconSpec(uint64,uint64,uint64,uint64)": "e90b2da1",
    "setQuorum(uint256)": "c1ba4e59",
    "setTime(uint256)": "3beb26c4",
    "setV1LastReportedEpochForTest(uint256)": "f30ae58a",
    "setVersion(uint256)": "408def1e",
    "transferToVault(address)": "9d4941d8"
  },
  "storageLayout": {
    "storage": [],
    "types": {}
  },
  "id": 27
}