{
  "abi": [
    {
      "constant": true,
      "inputs": [
        {
          "name": "_slotValue",
          "type": "uint256"
        },
        {
          "name": "_newPrevLimit",
          "type": "uint256"
        }
      ],
      "name": "updatePrevStakeLimit",
      "outputs": [
        {
          "name": "",
          "type": "uint256"
        }
      ],
      "payable": false,
      "stateMutability": "view",
      "type": "function"
    },
    {
      "constant": true,
      "inputs": [
        {
          "name": "_slotValue",
          "type": "uint256"
        },
        {
          "name": "_maxStakeLimit",
          "type": "uint256"
        },
        {
          "name": "_stakeLimitIncreasePerBlock",
          "type": "uint256"
        }
      ],
      "name": "setStakingLimit",
      "outputs": [],
      "payable": false,
      "stateMutability": "view",
      "type": "function"
    },
    {
      "constant": true,
      "inputs": [
        {
          "name": "_prevStakeBlockNumber",
          "type": "uint32"
        },
        {
          "name": "_prevStakeLimit",
          "type": "uint96"
        },
        {
          "name": "_maxStakeLimitGrowthBlocks",
          "type": "uint32"
        },
        {
          "name": "_maxStakeLimit",
          "type": "uint96"
        }
      ],
      "name": "setStorageStakeLimitStruct",
      "outputs": [
        {
          "name": "ret",
          "type": "uint256"
        }
      ],
      "payable": false,
      "stateMutability": "view",
      "type": "function"
    },
    {
      "constant": true,
      "inputs": [
        {
          "name": "_slotValue",
          "type": "uint256"
        }
      ],
      "name": "getStorageStakeLimit",
      "outputs": [
        {
          "name": "prevStakeBlockNumber",
          "type": "uint32"
        },
        {
          "name": "prevStakeLimit",
          "type": "uint96"
        },
        {
          "name": "maxStakeLimitGrowthBlocks",
          "type": "uint32"
        },
        {
          "name": "maxStakeLimit",
          "type": "uint96"
        }
      ],
      "payable": false,
      "stateMutability": "view",
      "type": "function"
    },
    {
      "constant": true,
      "inputs": [
        {
          "name": "_slotValue",
          "type": "uint256"
        }
      ],
      "name": "isStakingPaused",
      "outputs": [
        {
          "name": "",
          "type": "bool"
        }
      ],
      "payable": false,
      "stateMutability": "view",
      "type": "function"
    },
    {
      "constant": true,
      "inputs": [
        {
          "name": "_slotValue",
          "type": "uint256"
        }
      ],
      "name": "calculateCurrentStakeLimit",
      "outputs": [
        {
          "name": "limit",
          "type": "uint256"
        }
      ],
      "payable": false,
      "stateMutability": "view",
      "type": "function"
    },
    {
      "constant": true,
      "inputs": [
        {
          "name": "_slotValue",
          "type": "uint256"
        }
      ],
      "name": "isStakingLimitSet",
      "outputs": [
        {
          "name": "",
          "type": "bool"
        }
      ],
      "payable": false,
      "stateMutability": "view",
      "type": "function"
    },
    {
      "constant": true,
      "inputs": [
        {
          "name": "_slotValue",
          "type": "uint256"
        },
        {
          "name": "_isPaused",
          "type": "bool"
        }
      ],
      "name": "setStakeLimitPauseState",
      "outputs": [
        {
          "name": "",
          "type": "uint256"
        }
      ],
      "payable": false,
      "stateMutability": "view",
      "type": "function"
    },
    {
      "constant": true,
      "inputs": [
        {
          "name": "_slotValue",
          "type": "uint256"
        }
      ],
      "name": "removeStakingLimit",
      "outputs": [
        {
          "name": "",
          "type": "uint256"
        }
      ],
      "payable": false,
      "stateMutability": "view",
      "type": "function"
    }
  ],
  "bytecode": {
    "object": "0x608060405234801561001057600080fd5b50610aa4806100206000396000f30060806040526004361061007c5760003560e01c63ffffffff16806319e9612414610081578063311a4c8c146100ae5780633d6d31ab146100ce5780634251ebef146101055780635b76954214610157578063874b5c1014610183578063912b38bc1461019b578063edc2c657146101b3578063f0e21ae7146101d0575b600080fd5b34801561008d57600080fd5b5061009c6004356024356101e8565b60408051918252519081900360200190f35b3480156100ba57600080fd5b506100cc6004356024356044356102ae565b005b3480156100da57600080fd5b5061009c63ffffffff6004358116906001606060020a03602435811691604435169060643516610321565b34801561011157600080fd5b5061011d6004356103b2565b6040805163ffffffff95861681526001606060020a0394851660208201529290941682850152909116606082015290519081900360800190f35b34801561016357600080fd5b5061016f600435610437565b604080519115158252519081900360200190f35b34801561018f57600080fd5b5061009c60043561049e565b3480156101a757600080fd5b5061016f6004356104ff565b3480156101bf57600080fd5b5061009c6004356024351515610560565b3480156101dc57600080fd5b5061009c6004356105ce565b6040805160d160020a6530b131b232b30281529051908190036006019020600090610219908463ffffffff61065a16565b6040805160d160020a6530b131b232b302815290519081900360060190206102809061025690849061024a9061065e565b9063ffffffff6106b116565b6040805160d160020a6530b131b232b302815290519081900360060190209063ffffffff6106f516565b6040805160d160020a6530b131b232b302815290519081900360060190206102a790610754565b9392505050565b6040805160d160020a6530b131b232b302815290519081900360060190206102dc908463ffffffff61065a16565b6040805160d160020a6530b131b232b3028152905190819003600601902061031c90610256908490849061030f9061065e565b919063ffffffff61075816565b505050565b600061032b610a51565b63ffffffff80871682526001606060020a0380871660208401528582166040808501919091529085166060840152805160d160020a6530b131b232b302815290519081900360060190206103819183906106f516565b6040805160d160020a6530b131b232b302815290519081900360060190206103a890610754565b9695505050505050565b6000806000806103c0610a51565b6040805160d160020a6530b131b232b302815290519081900360060190206103ee908763ffffffff61065a16565b6040805160d160020a6530b131b232b302815290519081900360060190206104159061065e565b8051602082015160408301516060909301519199909850919650945092505050565b6040805160d160020a6530b131b232b30281529051908190036006019020600090610468908363ffffffff61065a16565b6040805160d160020a6530b131b232b30281529051908190036006019020610498906104939061065e565b61096c565b92915050565b6040805160d160020a6530b131b232b302815290519081900360060190206000906104cf908363ffffffff61065a16565b6040805160d160020a6530b131b232b30281529051908190036006019020610498906104fa9061065e565b610977565b6040805160d160020a6530b131b232b30281529051908190036006019020600090610530908363ffffffff61065a16565b6040805160d160020a6530b131b232b302815290519081900360060190206104989061055b9061065e565b610a07565b6040805160d160020a6530b131b232b30281529051908190036006019020600090610591908463ffffffff61065a16565b6040805160d160020a6530b131b232b30281529051908190036006019020610280906102569084906105c29061065e565b9063ffffffff610a1916565b6040805160d160020a6530b131b232b302815290519081900360060190206000906105ff908363ffffffff61065a16565b6040805160d160020a6530b131b232b30281529051908190036006019020610633906102569061062e9061065e565b610a3e565b6040805160d160020a6530b131b232b3028152905190819003600601902061049890610754565b9055565b610666610a51565b600061067183610754565b63ffffffff600082901c811684526001606060020a03602083811c821690860152608083901c909116604085015260a09190911c16606083015250919050565b6106b9610a51565b6001606060020a038211156106ca57fe5b825163ffffffff1615156106da57fe5b506001606060020a031660208201524363ffffffff16815290565b61075060a082606001516001606060020a0316901b6080836040015163ffffffff16901b602084602001516001606060020a0316901b6000856000015163ffffffff16901b171717836000191661065a90919063ffffffff16565b5050565b5490565b610760610a51565b8215156107b7576040805160e560020a62461bcd02815260206004820152601460248201527f5a45524f5f4d41585f5354414b455f4c494d4954000000000000000000000000604482015290519081900360640190fd5b6001606060020a03831115610816576040805160e560020a62461bcd02815260206004820152601960248201527f544f4f5f4c415247455f4d41585f5354414b455f4c494d495400000000000000604482015290519081900360640190fd5b8183101561086e576040805160e560020a62461bcd02815260206004820152601860248201527f544f4f5f4c415247455f4c494d49545f494e4352454153450000000000000000604482015290519081900360640190fd5b81158061088a575063ffffffff828481151561088657fe5b0411155b15156108e0576040805160e560020a62461bcd02815260206004820152601860248201527f544f4f5f534d414c4c5f4c494d49545f494e4352454153450000000000000000604482015290519081900360640190fd5b60608401516001606060020a03161580610906575083602001516001606060020a031683105b1561091b576001606060020a03831660208501525b811515610929576000610936565b818381151561093457fe5b045b63ffffffff90811660408601526001606060020a0384166060860152845116156109645763ffffffff431684525b509192915050565b5163ffffffff161590565b6040810151600090819063ffffffff16156109bb57826040015163ffffffff1683606001516001606060020a03168115156109ae57fe5b046001606060020a031690505b80836000015163ffffffff1643030283602001516001606060020a031601915082606001516001606060020a0316821115610a015782606001516001606060020a031691505b50919050565b606001516001606060020a0316151590565b610a21610a51565b81610a2c5743610a2f565b60005b63ffffffff1683525090919050565b610a46610a51565b506000606082015290565b604080516080810182526000808252602082018190529181018290526060810191909152905600a165627a7a723058202b043a0504cd99e086251487c8471beeba0a3a0c1135be9c20e7cf757495afe20029",
    "linkReferences": {}
  },
  "methodIdentifiers": {
    "calculateCurrentStakeLimit(uint256)": "874b5c10",
    "getStorageStakeLimit(uint256)": "4251ebef",
    "isStakingLimitSet(uint256)": "912b38bc",
    "isStakingPaused(uint256)": "5b769542",
    "removeStakingLimit(uint256)": "f0e21ae7",
    "setStakeLimitPauseState(uint256,bool)": "edc2c657",
    "setStakingLimit(uint256,uint256,uint256)": "311a4c8c",
    "setStorageStakeLimitStruct(uint32,uint96,uint32,uint96)": "3d6d31ab",
    "updatePrevStakeLimit(uint256,uint256)": "19e96124"
  },
  "storageLayout": {
    "storage": [],
    "types": {}
  },
  "id": 32
}