{
  "abi": [
    {
      "constant": true,
      "inputs": [],
      "name": "hasInitialized",
      "outputs": [
        {
          "name": "",
          "type": "bool"
        }
      ],
      "payable": false,
      "stateMutability": "view",
      "type": "function"
    },
    {
      "constant": false,
      "inputs": [
        {
          "name": "_operator_id",
          "type": "uint256"
        },
        {
          "name": "_quantity",
          "type": "uint256"
        },
        {
          "name": "_pubkeys",
          "type": "bytes"
        },
        {
          "name": "_signatures",
          "type": "bytes"
        }
      ],
      "name": "addSigningKeys",
      "outputs": [],
      "payable": false,
      "stateMutability": "nonpayable",
      "type": "function"
    },
    {
      "constant": true,
      "inputs": [
        {
          "name": "_script",
          "type": "bytes"
        }
      ],
      "name": "getEVMScriptExecutor",
      "outputs": [
        {
          "name": "",
          "type": "address"
        }
      ],
      "payable": false,
      "stateMutability": "view",
      "type": "function"
    },
    {
      "constant": true,
      "inputs": [],
      "name": "getRecoveryVault",
      "outputs": [
        {
          "name": "",
          "type": "address"
        }
      ],
      "payable": false,
      "stateMutability": "view",
      "type": "function"
    },
    {
      "constant": false,
      "inputs": [
        {
          "name": "_numKeys",
          "type": "uint256"
        }
      ],
      "name": "assignNextSigningKeys",
      "outputs": [
        {
          "name": "pubkeys",
          "type": "bytes"
        },
        {
          "name": "signatures",
          "type": "bytes"
        }
      ],
      "payable": false,
      "stateMutability": "nonpayable",
      "type": "function"
    },
    {
      "constant": true,
      "inputs": [],
      "name": "SIGNATURE_LENGTH",
      "outputs": [
        {
          "name": "",
          "type": "uint256"
        }
      ],
      "payable": false,
      "stateMutability": "view",
      "type": "function"
    },
    {
      "constant": true,
      "inputs": [],
      "name": "SET_NODE_OPERATOR_ADDRESS_ROLE",
      "outputs": [
        {
          "name": "",
          "type": "bytes32"
        }
      ],
      "payable": false,
      "stateMutability": "view",
      "type": "function"
    },
    {
      "constant": false,
      "inputs": [
        {
          "name": "_operator_id",
          "type": "uint256"
        },
        {
          "name": "_index",
          "type": "uint256"
        },
        {
          "name": "_amount",
          "type": "uint256"
        }
      ],
      "name": "removeSigningKeysOperatorBH",
      "outputs": [],
      "payable": false,
      "stateMutability": "nonpayable",
      "type": "function"
    },
    {
      "constant": false,
      "inputs": [
        {
          "name": "_id",
          "type": "uint256"
        },
        {
          "name": "_name",
          "type": "string"
        }
      ],
      "name": "setNodeOperatorName",
      "outputs": [],
      "payable": false,
      "stateMutability": "nonpayable",
      "type": "function"
    },
    {
      "constant": true,
      "inputs": [
        {
          "name": "_totalRewardShares",
          "type": "uint256"
        }
      ],
      "name": "getRewardsDistribution",
      "outputs": [
        {
          "name": "recipients",
          "type": "address[]"
        },
        {
          "name": "shares",
          "type": "uint256[]"
        }
      ],
      "payable": false,
      "stateMutability": "view",
      "type": "function"
    },
    {
      "constant": false,
      "inputs": [
        {
          "name": "_id",
          "type": "uint256"
        },
        {
          "name": "_active",
          "type": "bool"
        }
      ],
      "name": "setNodeOperatorActive",
      "outputs": [],
      "payable": false,
      "stateMutability": "nonpayable",
      "type": "function"
    },
    {
      "constant": true,
      "inputs": [],
      "name": "SET_NODE_OPERATOR_NAME_ROLE",
      "outputs": [
        {
          "name": "",
          "type": "bytes32"
        }
      ],
      "payable": false,
      "stateMutability": "view",
      "type": "function"
    },
    {
      "constant": false,
      "inputs": [
        {
          "name": "_operator_id",
          "type": "uint256"
        },
        {
          "name": "_index",
          "type": "uint256"
        }
      ],
      "name": "removeSigningKey",
      "outputs": [],
      "payable": false,
      "stateMutability": "nonpayable",
      "type": "function"
    },
    {
      "constant": false,
      "inputs": [
        {
          "name": "_operator_id",
          "type": "uint256"
        },
        {
          "name": "_index",
          "type": "uint256"
        },
        {
          "name": "_amount",
          "type": "uint256"
        }
      ],
      "name": "removeSigningKeys",
      "outputs": [],
      "payable": false,
      "stateMutability": "nonpayable",
      "type": "function"
    },
    {
      "constant": true,
      "inputs": [],
      "name": "ADD_NODE_OPERATOR_ROLE",
      "outputs": [
        {
          "name": "",
          "type": "bytes32"
        }
      ],
      "payable": false,
      "stateMutability": "view",
      "type": "function"
    },
    {
      "constant": true,
      "inputs": [
        {
          "name": "token",
          "type": "address"
        }
      ],
      "name": "allowRecoverability",
      "outputs": [
        {
          "name": "",
          "type": "bool"
        }
      ],
      "payable": false,
      "stateMutability": "view",
      "type": "function"
    },
    {
      "constant": false,
      "inputs": [
        {
          "name": "_operator_id",
          "type": "uint256"
        },
        {
          "name": "_quantity",
          "type": "uint256"
        },
        {
          "name": "_pubkeys",
          "type": "bytes"
        },
        {
          "name": "_signatures",
          "type": "bytes"
        }
      ],
      "name": "addSigningKeysOperatorBH",
      "outputs": [],
      "payable": false,
      "stateMutability": "nonpayable",
      "type": "function"
    },
    {
      "constant": true,
      "inputs": [],
      "name": "appId",
      "outputs": [
        {
          "name": "",
          "type": "bytes32"
        }
      ],
      "payable": false,
      "stateMutability": "view",
      "type": "function"
    },
    {
      "constant": true,
      "inputs": [],
      "name": "getActiveNodeOperatorsCount",
      "outputs": [
        {
          "name": "",
          "type": "uint256"
        }
      ],
      "payable": false,
      "stateMutability": "view",
      "type": "function"
    },
    {
      "constant": false,
      "inputs": [
        {
          "name": "_name",
          "type": "string"
        },
        {
          "name": "_rewardAddress",
          "type": "address"
        }
      ],
      "name": "addNodeOperator",
      "outputs": [
        {
          "name": "id",
          "type": "uint256"
        }
      ],
      "payable": false,
      "stateMutability": "nonpayable",
      "type": "function"
    },
    {
      "constant": true,
      "inputs": [],
      "name": "getInitializationBlock",
      "outputs": [
        {
          "name": "",
          "type": "uint256"
        }
      ],
      "payable": false,
      "stateMutability": "view",
      "type": "function"
    },
    {
      "constant": true,
      "inputs": [
        {
          "name": "_operator_id",
          "type": "uint256"
        }
      ],
      "name": "getUnusedSigningKeyCount",
      "outputs": [
        {
          "name": "",
          "type": "uint256"
        }
      ],
      "payable": false,
      "stateMutability": "view",
      "type": "function"
    },
    {
      "constant": false,
      "inputs": [
        {
          "name": "_id",
          "type": "uint256"
        },
        {
          "name": "_rewardAddress",
          "type": "address"
        }
      ],
      "name": "setNodeOperatorRewardAddress",
      "outputs": [],
      "payable": false,
      "stateMutability": "nonpayable",
      "type": "function"
    },
    {
      "constant": true,
      "inputs": [
        {
          "name": "_id",
          "type": "uint256"
        },
        {
          "name": "_fullInfo",
          "type": "bool"
        }
      ],
      "name": "getNodeOperator",
      "outputs": [
        {
          "name": "active",
          "type": "bool"
        },
        {
          "name": "name",
          "type": "string"
        },
        {
          "name": "rewardAddress",
          "type": "address"
        },
        {
          "name": "stakingLimit",
          "type": "uint64"
        },
        {
          "name": "stoppedValidators",
          "type": "uint64"
        },
        {
          "name": "totalSigningKeys",
          "type": "uint64"
        },
        {
          "name": "usedSigningKeys",
          "type": "uint64"
        }
      ],
      "payable": false,
      "stateMutability": "view",
      "type": "function"
    },
    {
      "constant": false,
      "inputs": [
        {
          "name": "_token",
          "type": "address"
        }
      ],
      "name": "transferToVault",
      "outputs": [],
      "payable": false,
      "stateMutability": "nonpayable",
      "type": "function"
    },
    {
      "constant": true,
      "inputs": [
        {
          "name": "_sender",
          "type": "address"
        },
        {
          "name": "_role",
          "type": "bytes32"
        },
        {
          "name": "_params",
          "type": "uint256[]"
        }
      ],
      "name": "canPerform",
      "outputs": [
        {
          "name": "",
          "type": "bool"
        }
      ],
      "payable": false,
      "stateMutability": "view",
      "type": "function"
    },
    {
      "constant": true,
      "inputs": [],
      "name": "getEVMScriptRegistry",
      "outputs": [
        {
          "name": "",
          "type": "address"
        }
      ],
      "payable": false,
      "stateMutability": "view",
      "type": "function"
    },
    {
      "constant": true,
      "inputs": [],
      "name": "PUBKEY_LENGTH",
      "outputs": [
        {
          "name": "",
          "type": "uint256"
        }
      ],
      "payable": false,
      "stateMutability": "view",
      "type": "function"
    },
    {
      "constant": true,
      "inputs": [],
      "name": "getNodeOperatorsCount",
      "outputs": [
        {
          "name": "",
          "type": "uint256"
        }
      ],
      "payable": false,
      "stateMutability": "view",
      "type": "function"
    },
    {
      "constant": false,
      "inputs": [
        {
          "name": "_id",
          "type": "uint256"
        },
        {
          "name": "_stakingLimit",
          "type": "uint64"
        }
      ],
      "name": "setNodeOperatorStakingLimit",
      "outputs": [],
      "payable": false,
      "stateMutability": "nonpayable",
      "type": "function"
    },
    {
      "constant": true,
      "inputs": [
        {
          "name": "_operator_id",
          "type": "uint256"
        },
        {
          "name": "_index",
          "type": "uint256"
        }
      ],
      "name": "getSigningKey",
      "outputs": [
        {
          "name": "key",
          "type": "bytes"
        },
        {
          "name": "depositSignature",
          "type": "bytes"
        },
        {
          "name": "used",
          "type": "bool"
        }
      ],
      "payable": false,
      "stateMutability": "view",
      "type": "function"
    },
    {
      "constant": false,
      "inputs": [
        {
          "name": "_id",
          "type": "uint256"
        },
        {
          "name": "_stoppedIncrement",
          "type": "uint64"
        }
      ],
      "name": "reportStoppedValidators",
      "outputs": [],
      "payable": false,
      "stateMutability": "nonpayable",
      "type": "function"
    },
    {
      "constant": false,
      "inputs": [
        {
          "name": "_lido",
          "type": "address"
        }
      ],
      "name": "initialize",
      "outputs": [],
      "payable": false,
      "stateMutability": "nonpayable",
      "type": "function"
    },
    {
      "constant": true,
      "inputs": [],
      "name": "REPORT_STOPPED_VALIDATORS_ROLE",
      "outputs": [
        {
          "name": "",
          "type": "bytes32"
        }
      ],
      "payable": false,
      "stateMutability": "view",
      "type": "function"
    },
    {
      "constant": true,
      "inputs": [],
      "name": "getKeysOpIndex",
      "outputs": [
        {
          "name": "",
          "type": "uint256"
        }
      ],
      "payable": false,
      "stateMutability": "view",
      "type": "function"
    },
    {
      "constant": true,
      "inputs": [],
      "name": "kernel",
      "outputs": [
        {
          "name": "",
          "type": "address"
        }
      ],
      "payable": false,
      "stateMutability": "view",
      "type": "function"
    },
    {
      "constant": true,
      "inputs": [],
      "name": "SET_NODE_OPERATOR_ACTIVE_ROLE",
      "outputs": [
        {
          "name": "",
          "type": "bytes32"
        }
      ],
      "payable": false,
      "stateMutability": "view",
      "type": "function"
    },
    {
      "constant": true,
      "inputs": [],
      "name": "SET_NODE_OPERATOR_LIMIT_ROLE",
      "outputs": [
        {
          "name": "",
          "type": "bytes32"
        }
      ],
      "payable": false,
      "stateMutability": "view",
      "type": "function"
    },
    {
      "constant": true,
      "inputs": [
        {
          "name": "_operator_id",
          "type": "uint256"
        }
      ],
      "name": "getTotalSigningKeyCount",
      "outputs": [
        {
          "name": "",
          "type": "uint256"
        }
      ],
      "payable": false,
      "stateMutability": "view",
      "type": "function"
    },
    {
      "constant": true,
      "inputs": [],
      "name": "isPetrified",
      "outputs": [
        {
          "name": "",
          "type": "bool"
        }
      ],
      "payable": false,
      "stateMutability": "view",
      "type": "function"
    },
    {
      "constant": true,
      "inputs": [],
      "name": "MAX_NODE_OPERATORS_COUNT",
      "outputs": [
        {
          "name": "",
          "type": "uint256"
        }
      ],
      "payable": false,
      "stateMutability": "view",
      "type": "function"
    },
    {
      "constant": false,
      "inputs": [
        {
          "name": "_operator_id",
          "type": "uint256"
        },
        {
          "name": "_index",
          "type": "uint256"
        }
      ],
      "name": "removeSigningKeyOperatorBH",
      "outputs": [],
      "payable": false,
      "stateMutability": "nonpayable",
      "type": "function"
    },
    {
      "constant": true,
      "inputs": [],
      "name": "MANAGE_SIGNING_KEYS",
      "outputs": [
        {
          "name": "",
          "type": "bytes32"
        }
      ],
      "payable": false,
      "stateMutability": "view",
      "type": "function"
    },
    {
      "constant": false,
      "inputs": [],
      "name": "trimUnusedKeys",
      "outputs": [],
      "payable": false,
      "stateMutability": "nonpayable",
      "type": "function"
    },
    {
      "anonymous": false,
      "inputs": [
        {
          "indexed": true,
          "name": "executor",
          "type": "address"
        },
        {
          "indexed": false,
          "name": "script",
          "type": "bytes"
        },
        {
          "indexed": false,
          "name": "input",
          "type": "bytes"
        },
        {
          "indexed": false,
          "name": "returnData",
          "type": "bytes"
        }
      ],
      "name": "ScriptResult",
      "type": "event"
    },
    {
      "anonymous": false,
      "inputs": [
        {
          "indexed": true,
          "name": "vault",
          "type": "address"
        },
        {
          "indexed": true,
          "name": "token",
          "type": "address"
        },
        {
          "indexed": false,
          "name": "amount",
          "type": "uint256"
        }
      ],
      "name": "RecoverToVault",
      "type": "event"
    },
    {
      "anonymous": false,
      "inputs": [
        {
          "indexed": false,
          "name": "id",
          "type": "uint256"
        },
        {
          "indexed": false,
          "name": "name",
          "type": "string"
        },
        {
          "indexed": false,
          "name": "rewardAddress",
          "type": "address"
        },
        {
          "indexed": false,
          "name": "stakingLimit",
          "type": "uint64"
        }
      ],
      "name": "NodeOperatorAdded",
      "type": "event"
    },
    {
      "anonymous": false,
      "inputs": [
        {
          "indexed": true,
          "name": "id",
          "type": "uint256"
        },
        {
          "indexed": false,
          "name": "active",
          "type": "bool"
        }
      ],
      "name": "NodeOperatorActiveSet",
      "type": "event"
    },
    {
      "anonymous": false,
      "inputs": [
        {
          "indexed": true,
          "name": "id",
          "type": "uint256"
        },
        {
          "indexed": false,
          "name": "name",
          "type": "string"
        }
      ],
      "name": "NodeOperatorNameSet",
      "type": "event"
    },
    {
      "anonymous": false,
      "inputs": [
        {
          "indexed": true,
          "name": "id",
          "type": "uint256"
        },
        {
          "indexed": false,
          "name": "rewardAddress",
          "type": "address"
        }
      ],
      "name": "NodeOperatorRewardAddressSet",
      "type": "event"
    },
    {
      "anonymous": false,
      "inputs": [
        {
          "indexed": true,
          "name": "id",
          "type": "uint256"
        },
        {
          "indexed": false,
          "name": "stakingLimit",
          "type": "uint64"
        }
      ],
      "name": "NodeOperatorStakingLimitSet",
      "type": "event"
    },
    {
      "anonymous": false,
      "inputs": [
        {
          "indexed": true,
          "name": "id",
          "type": "uint256"
        },
        {
          "indexed": false,
          "name": "totalStopped",
          "type": "uint64"
        }
      ],
      "name": "NodeOperatorTotalStoppedValidatorsReported",
      "type": "event"
    },
    {
      "anonymous": false,
      "inputs": [
        {
          "indexed": true,
          "name": "id",
          "type": "uint256"
        },
        {
          "indexed": false,
          "name": "totalKeysTrimmed",
          "type": "uint64"
        }
      ],
      "name": "NodeOperatorTotalKeysTrimmed",
      "type": "event"
    },
    {
      "anonymous": false,
      "inputs": [
        {
          "indexed": true,
          "name": "operatorId",
          "type": "uint256"
        },
        {
          "indexed": false,
          "name": "pubkey",
          "type": "bytes"
        }
      ],
      "name": "SigningKeyAdded",
      "type": "event"
    },
    {
      "anonymous": false,
      "inputs": [
        {
          "indexed": true,
          "name": "operatorId",
          "type": "uint256"
        },
        {
          "indexed": false,
          "name": "pubkey",
          "type": "bytes"
        }
      ],
      "name": "SigningKeyRemoved",
      "type": "event"
    },
    {
      "anonymous": false,
      "inputs": [
        {
          "indexed": false,
          "name": "keysOpIndex",
          "type": "uint256"
        }
      ],
      "name": "KeysOpIndexSet",
      "type": "event"
    }
  ],
  "bytecode": {
    "object": "0x6080604052620000146200001a60201b60201c565b62000231565b6200002a6200011c60201b60201c565b60408051808201909152601881527f494e49545f414c52454144595f494e495449414c495a454400000000000000006020820152901562000106576040517f08c379a00000000000000000000000000000000000000000000000000000000081526004018080602001828103825283818151815260200191508051906020019080838360005b83811015620000ca578181015183820152602001620000b0565b50505050905090810190601f168015620000f85780820380516001836020036101000a031916815260200191505b509250505060405180910390fd5b506200011a6000196200014f60201b60201c565b565b60006200014a60008051602062004c3b83398151915260001b600019166200022960201b6200386a1760201c565b905090565b6200015f6200011c60201b60201c565b60408051808201909152601881527f494e49545f414c52454144595f494e495449414c495a4544000000000000000060208201529015620001fe576040517f08c379a000000000000000000000000000000000000000000000000000000000815260040180806020018281038252838181518152602001915080519060200190808383600083811015620000ca578181015183820152602001620000b0565b506200022660008051602062004c3b833981519152826200022d602090811b6200425017901c565b50565b5490565b9055565b6149fa80620002416000396000f3006080604052600436106101fd5760003560e01c63ffffffff1680630803fac014610202578063096b7b351461022b5780632914b9bd1461026157806332f0a3b5146102d657806341bc716f146102eb578063540bc5ea146103e15780635a9fc07e146104085780635ddde8101461041d5780635e57d7421461043b57806362dcfda11461045f578063687ca33714610510578063696026071461052d5780636ef355f1146105425780637038b1411461055d5780637294d6851461057b5780637e7db6e114610590578063805911ae146105b157806380afdea8146105e55780638469cbd3146105fa57806385fa63d71461060f5780638b3dd7491461063d5780638ca7c05214610652578063973e93281461066a5780639a56983c1461068e5780639d4941d81461076a578063a1658fad1461078b578063a479e508146107f2578063a4d55d1d14610807578063a70c70e41461081c578063ae962acf14610831578063b449402a14610856578063be726da21461095a578063c4d66de81461097f578063cb10af07146109a0578063d07442f1146109b5578063d4aae0c4146109ca578063d6e1c2cc146109df578063d8e71cd1146109f4578063db9887ea14610a09578063de4796ed14610a21578063ec5af3a414610a36578063ed5cfa4114610a4b578063f31bd9c114610a66578063f778021e14610a7b575b600080fd5b34801561020e57600080fd5b50610217610a90565b604080519115158252519081900360200190f35b34801561023757600080fd5b5061025f60048035906024803591604435808301929082013591606435918201910135610aba565b005b34801561026d57600080fd5b506040805160206004803580820135601f81018490048402850184019095528484526102ba943694929360249392840191908190840183828082843750949750610c129650505050505050565b60408051600160a060020a039092168252519081900360200190f35b3480156102e257600080fd5b506102ba610cf5565b3480156102f757600080fd5b50610303600435610d6b565b604051808060200180602001838103835285818151815260200191508051906020019080838360005b8381101561034457818101518382015260200161032c565b50505050905090810190601f1680156103715780820380516001836020036101000a031916815260200191505b50838103825284518152845160209182019186019080838360005b838110156103a457818101518382015260200161038c565b50505050905090810190601f1680156103d15780820380516001836020036101000a031916815260200191505b5094505050505060405180910390f35b3480156103ed57600080fd5b506103f66110dc565b60408051918252519081900360200190f35b34801561041457600080fd5b506103f66110e1565b34801561042957600080fd5b5061025f600435602435604435611116565b34801561044757600080fd5b5061025f6004803590602480359081019101356111ae565b34801561046b57600080fd5b50610477600435611426565b604051808060200180602001838103835285818151815260200191508051906020019060200280838360005b838110156104bb5781810151838201526020016104a3565b50505050905001838103825284818151815260200191508051906020019060200280838360005b838110156104fa5781810151838201526020016104e2565b5050505090500194505050505060405180910390f35b34801561051c57600080fd5b5061025f600435602435151561160b565b34801561053957600080fd5b506103f66118ba565b34801561054e57600080fd5b5061025f6004356024356118ef565b34801561056957600080fd5b5061025f6004356024356044356119a2565b34801561058757600080fd5b506103f6611a8a565b34801561059c57600080fd5b50610217600160a060020a0360043516611abf565b3480156105bd57600080fd5b5061025f60048035906024803591604435808301929082013591606435918201910135611ac5565b3480156105f157600080fd5b506103f6611b8f565b34801561060657600080fd5b506103f6611bbf565b34801561061b57600080fd5b506103f66024600480358281019291013590600160a060020a03903516611c23565b34801561064957600080fd5b506103f6611f4f565b34801561065e57600080fd5b506103f6600435611f7a565b34801561067657600080fd5b5061025f600435600160a060020a0360243516612012565b34801561069a57600080fd5b506106ab600435602435151561229d565b604080518815158152600160a060020a0387169181019190915267ffffffffffffffff8086166060830152848116608083015283811660a0830152821660c082015260e0602080830182815289519284019290925288516101008401918a019080838360005b83811015610729578181015183820152602001610711565b50505050905090810190601f1680156107565780820380516001836020036101000a031916815260200191505b509850505050505050505060405180910390f35b34801561077657600080fd5b5061025f600160a060020a036004351661240b565b34801561079757600080fd5b506040805160206004604435818101358381028086018501909652808552610217958335600160a060020a031695602480359636969560649593949201929182918501908490808284375094975061269a9650505050505050565b3480156107fe57600080fd5b506102ba6127e7565b34801561081357600080fd5b506103f661289c565b34801561082857600080fd5b506103f66128a1565b34801561083d57600080fd5b5061025f60043567ffffffffffffffff60243516612905565b34801561086257600080fd5b50610871600435602435612b26565b60405180806020018060200184151515158152602001838103835286818151815260200191508051906020019080838360005b838110156108bc5781810151838201526020016108a4565b50505050905090810190601f1680156108e95780820380516001836020036101000a031916815260200191505b50838103825285518152855160209182019187019080838360005b8381101561091c578181015183820152602001610904565b50505050905090810190601f1680156109495780820380516001836020036101000a031916815260200191505b509550505050505060405180910390f35b34801561096657600080fd5b5061025f60043567ffffffffffffffff60243516612c32565b34801561098b57600080fd5b5061025f600160a060020a0360043516612ee5565b3480156109ac57600080fd5b506103f66130fb565b3480156109c157600080fd5b506103f6613130565b3480156109d657600080fd5b506102ba613194565b3480156109eb57600080fd5b506103f66131bf565b348015610a0057600080fd5b506103f66131f4565b348015610a1557600080fd5b506103f6600435613229565b348015610a2d57600080fd5b506102176132a0565b348015610a4257600080fd5b506103f66132b3565b348015610a5757600080fd5b5061025f6004356024356132b8565b348015610a7257600080fd5b506103f6613327565b348015610a8757600080fd5b5061025f61334a565b600080610a9b611f4f565b90508015801590610ab3575080610ab06134b6565b10155b91505b5090565b604080516000805160206149af83398151915281529051908190036013019020610ae3876134ba565b610aee33838361269a565b60408051808201909152600f815260008051602061496f8339815191526020820152901515610b9e5760405160e560020a62461bcd0281526004018080602001828103825283818151815260200191508051906020019080838360005b83811015610b63578181015183820152602001610b4b565b50505050905090810190601f168015610b905780820380516001836020036101000a031916815260200191505b509250505060405180910390fd5b50610c08888888888080601f0160208091040260200160405190810160405280939291908181526020018383808284375050604080516020601f8e018190048102820181019092528c815294508c93508b92508291508401838280828437506134fb945050505050565b5050505050505050565b6000610c1c6127e7565b600160a060020a03166304bf2a7f836040518263ffffffff1660e01b81526004018080602001828103825283818151815260200191508051906020019080838360005b83811015610c77578181015183820152602001610c5f565b50505050905090810190601f168015610ca45780820380516001836020036101000a031916815260200191505b5092505050602060405180830381600087803b158015610cc357600080fd5b505af1158015610cd7573d6000803e3d6000fd5b505050506040513d6020811015610ced57600080fd5b505192915050565b6000610cff613194565b600160a060020a03166332f0a3b56040518163ffffffff1660e01b8152600401602060405180830381600087803b158015610d3957600080fd5b505af1158015610d4d573d6000803e3d6000fd5b505050506040513d6020811015610d6357600080fd5b505190505b90565b60608060606000610d7a6148a9565b6000806000806000806000606080610dca60405180807f6c69646f2e4e6f64654f70657261746f727352656769737472792e6c69646f00815250601f01905060405180910390206000191661386a565b600160a060020a03163314610e17576040805160e560020a62461bcd02815260206004820152600f602482015260008051602061496f833981519152604482015290519081900360640190fd5b610e1f61386e565b9b508b5160001415610e575760408051600080825260208201909252905b50604080516000815260208101909152909e509c506110cb565b60009a505b8e8b1015610f63578b519850600096505b8b51871015610f0d578b87815181101515610e8457fe5b90602001906020020151995089606001518a6080015111151515610ea457fe5b89606001518a608001511415610eb957610f02565b60408a015160808b0151610ed29163ffffffff6139e916565b95508960200151866001011115610ee857610f02565b8b51891480610ef657508786105b15610f02578698508597505b866001019650610e6d565b8b51891415610f1b57610f63565b8b89815181101515610f2957fe5b602090810290910101516080810151909a5067ffffffffffffffff11610f4b57fe5b60808a01805160019081019091529a909a0199610e5c565b8a1515610f80576040805160008082526020820190925290610e3d565b60018b1115610fa657610f9560308c02613a84565b9d50610fa360608c02613a84565b9c505b60009450600093505b8b518410156110ba578b84815181101515610fc657fe5b9060200190602002015199508960a001518a608001511415610fe7576110af565b60808a01518a516000908152602081905260409020600201805467ffffffffffffffff90921660c060020a0277ffffffffffffffffffffffffffffffffffffffffffffffff90921691909117905560a08a015192505b89608001518310156110a25789516110559084613a96565b915091508a600114156110755761106a613b42565b81819d509d506110cb565b611083828f60308802613bf3565b611091818e60608802613bf3565b84600101945082600101925061103d565b8a8514156110af576110ba565b836001019350610faf565b6110c2613b42565b848b146110cb57fe5b505050505050505050505050915091565b606081565b604080517f5345545f4e4f44455f4f50455241544f525f414444524553535f524f4c4500008152905190819003601e01902081565b6000838152602081905260408120546101009004600160a060020a03163314611177576040805160e560020a62461bcd02815260206004820152600f602482015260008051602061496f833981519152604482015290519081900360640190fd5b611187838363ffffffff613c7516565b90505b828111156111a85761119f8460018303613d03565b6000190161118a565b50505050565b604080517f5345545f4e4f44455f4f50455241544f525f4e414d455f524f4c4500000000008152905190819003601b0190206111e9846134ba565b6111f433838361269a565b60408051808201909152600f815260008051602061496f83398151915260208201529015156112685760405160e560020a62461bcd02815260040180806020018281038252838181518152602001915080519060200190808383600083811015610b63578181015183820152602001610b4b565b50846112726128a1565b81106112b6576040805160e560020a62461bcd028152602060048201526017602482015260008051602061498f833981519152604482015290519081900360640190fd5b84846040518083838082843782019150509250505060405180910390206000191660008088815260200190815260200160002060010160405180828054600181600116156101000203166002900480156113475780601f10611325576101008083540402835291820191611347565b820191906000526020600020905b815481529060010190602001808311611333575b5050915050604051809103902060001916141515156113b0576040805160e560020a62461bcd02815260206004820152601e60248201527f4e4f44455f4f50455241544f525f4e414d455f49535f5448455f53414d450000604482015290519081900360640190fd5b60008681526020819052604090206113cc9060010186866148e0565b50857fcb16868f4831cc58a28d413f658752a2958bd1f50e94ed6391716b936c48093b86866040518080602001828103825284848281815260200192508082843760405192018290039550909350505050a2505050505050565b60608060008060008060008060008061143d6128a1565b9750611447611bbf565b965086604051908082528060200260200182016040528015611473578160200160208202803883390190505b509950866040519080825280602002602001820160405280156114a0578160200160208202803883390190505b5098506000955060009450600093505b87841015611588576000848152602081905260409020805490935060ff1615156114d95761157d565b60028301546115079067ffffffffffffffff60c060020a820481169168010000000000000000900416614011565b67ffffffffffffffff169150611523858363ffffffff613c7516565b83548b519196506101009004600160a060020a0316908b908890811061154557fe5b600160a060020a03909216602092830290910190910152885182908a908890811061156c57fe5b602090810290910101526001909501945b8360010193506114b0565b841515611594576115fe565b6115a48b8663ffffffff6140aa16565b9050600095505b868610156115fe576115db818a888151811015156115c557fe5b602090810290910101519063ffffffff61414a16565b89878151811015156115e957fe5b602090810290910101526001909501946115ab565b5050505050505050915091565b604080517f5345545f4e4f44455f4f50455241544f525f4143544956455f524f4c450000008152905190819003601d0190206000906116588484611650576000611653565b60015b6141f5565b61166333838361269a565b60408051808201909152600f815260008051602061496f83398151915260208201529015156116d75760405160e560020a62461bcd02815260040180806020018281038252838181518152602001915080519060200190808383600083811015610b63578181015183820152602001610b4b565b50846116e16128a1565b8110611725576040805160e560020a62461bcd028152602060048201526017602482015260008051602061498f833981519152604482015290519081900360640190fd5b60008681526020819052604090205460ff16151585151514156117b8576040805160e560020a62461bcd02815260206004820152602260248201527f4e4f44455f4f50455241544f525f41435449564954595f414c52454144595f5360448201527f4554000000000000000000000000000000000000000000000000000000000000606482015290519081900360840190fd5b6117c0613b42565b6117c8611bbf565b9350841561184d576118486117e485600163ffffffff613c7516565b604080517f6c69646f2e4e6f64654f70657261746f727352656769737472792e616374697681527f654f70657261746f7273436f756e7400000000000000000000000000000000006020820152905190819003602f0190209063ffffffff61425016565b611861565b6118616117e485600163ffffffff6139e916565b60008681526020818152604091829020805460ff19168815159081179091558251908152915188927fecdf08e8a6c4493efb460f6abc7d14532074fa339c3a6410623a1d3ee0fb2cac92908290030190a2505050505050565b604080517f5345545f4e4f44455f4f50455241544f525f4e414d455f524f4c4500000000008152905190819003601b01902081565b604080516000805160206149af83398151915281529051908190036013019020611918836134ba565b61192333838361269a565b60408051808201909152600f815260008051602061496f83398151915260208201529015156119975760405160e560020a62461bcd02815260040180806020018281038252838181518152602001915080519060200190808383600083811015610b63578181015183820152602001610b4b565b506111a88484613d03565b604080516000805160206149af833981519152815290519081900360130190206000906119ce856134ba565b6119d933838361269a565b60408051808201909152600f815260008051602061496f8339815191526020820152901515611a4d5760405160e560020a62461bcd02815260040180806020018281038252838181518152602001915080519060200190808383600083811015610b63578181015183820152602001610b4b565b50611a5e858563ffffffff613c7516565b92505b84831115611a8257611a768660018503613d03565b60001990920191611a61565b505050505050565b604080517f4144445f4e4f44455f4f50455241544f525f524f4c45000000000000000000008152905190819003601601902081565b50600190565b6000868152602081905260409020546101009004600160a060020a03163314611b26576040805160e560020a62461bcd02815260206004820152600f602482015260008051602061496f833981519152604482015290519081900360640190fd5b611a82868686868080601f0160208091040260200160405190810160405280939291908181526020018383808284375050604080516020601f8c018190048102820181019092528a815294508a93508992508291508401838280828437506134fb945050505050565b6000611bba7fd625496217aa6a3453eecb9c3489dc5a53e6c67b444329ea2b2cbc9ff547639b61386a565b905090565b604080517f6c69646f2e4e6f64654f70657261746f727352656769737472792e616374697681527f654f70657261746f7273436f756e7400000000000000000000000000000000006020820152905190819003602f019020600090611bba9061386a565b604080517f4144445f4e4f44455f4f50455241544f525f524f4c4500000000000000000000815281519081900360160181206000808352602083019093528291829190611c73903390839061269a565b60408051808201909152600f815260008051602061496f8339815191526020820152901515611ce75760405160e560020a62461bcd02815260040180806020018281038252838181518152602001915080519060200190808383600083811015610b63578181015183820152602001610b4b565b5084600160a060020a0381161515611d49576040805160e560020a62461bcd02815260206004820152600d60248201527f454d5054595f4144445245535300000000000000000000000000000000000000604482015290519081900360640190fd5b611d516128a1565b945060c88510611dd1576040805160e560020a62461bcd02815260206004820152602160248201527f4d41585f4e4f44455f4f50455241544f52535f434f554e545f4558434545444560448201527f4400000000000000000000000000000000000000000000000000000000000000606482015290519081900360840190fd5b611e49611de586600163ffffffff613c7516565b604080517f6c69646f2e4e6f64654f70657261746f727352656769737472792e746f74616c81527f4f70657261746f7273436f756e740000000000000000000000000000000000006020820152905190819003602e0190209063ffffffff61425016565b60008581526020819052604090209350611e61611bbf565b9250611e776117e484600163ffffffff613c7516565b835460ff191660019081178555611e9190850189896148e0565b50835474ffffffffffffffffffffffffffffffffffffffff001916610100600160a060020a03881690810291909117855560028501805467ffffffffffffffff1916905560408051878152908101919091526000606082018190526080602083018181529083018a90527fc52ec0ad7872dae440d886040390c13677df7bf3cca136d8d81e5e5e7dd62ff19288928c928c928c929160a0820186868082843760405192018290039850909650505050505050a1505050509392505050565b6000611bba7febb05b386a8d34882b8711d156f463690983dc47815980fb82aeeff1aa43579e61386a565b600081611f856128a1565b8110611fc9576040805160e560020a62461bcd028152602060048201526017602482015260008051602061498f833981519152604482015290519081900360640190fd5b600083815260208190526040902060020154611fff9067ffffffffffffffff608060020a820481169160c060020a900416614011565b67ffffffffffffffff1691505b50919050565b604080517f5345545f4e4f44455f4f50455241544f525f414444524553535f524f4c4500008152905190819003601e01902061205783600160a060020a0384166141f5565b61206233838361269a565b60408051808201909152600f815260008051602061496f83398151915260208201529015156120d65760405160e560020a62461bcd02815260040180806020018281038252838181518152602001915080519060200190808383600083811015610b63578181015183820152602001610b4b565b50836120e06128a1565b8110612124576040805160e560020a62461bcd028152602060048201526017602482015260008051602061498f833981519152604482015290519081900360640190fd5b83600160a060020a0381161515612185576040805160e560020a62461bcd02815260206004820152600d60248201527f454d5054595f4144445245535300000000000000000000000000000000000000604482015290519081900360640190fd5b600086815260208190526040902054600160a060020a03868116610100909204161415612222576040805160e560020a62461bcd02815260206004820152602160248201527f4e4f44455f4f50455241544f525f414444524553535f49535f5448455f53414d60448201527f4500000000000000000000000000000000000000000000000000000000000000606482015290519081900360840190fd5b60008681526020818152604091829020805474ffffffffffffffffffffffffffffffffffffffff001916610100600160a060020a038a16908102919091179091558251908152915188927f9a52205165d510fc1e428886d52108725dc01ed544da1702dc7bd3fdb3f243b292908290030190a2505050505050565b60006060600080600080600080896122b36128a1565b81106122f7576040805160e560020a62461bcd028152602060048201526017602482015260008051602061498f833981519152604482015290519081900360640190fd5b60008b8152602081905260409020805460ff169950915089612327576040805160208101909152600081526123b4565b60018281018054604080516020600295841615610100026000190190931694909404601f8101839004830285018301909152808452908301828280156123ae5780601f10612383576101008083540402835291602001916123ae565b820191906000526020600020905b81548152906001019060200180831161239157829003601f168201915b50505050505b8254600290930154999c909b50610100909204600160a060020a031699505067ffffffffffffffff8089169868010000000000000000810482169850608060020a81048216975060c060020a900416945092505050565b600080600061241984611abf565b60408051808201909152601281527f5245434f5645525f444953414c4c4f5745440000000000000000000000000000602082015290151561249f5760405160e560020a62461bcd02815260040180806020018281038252838181518152602001915080519060200190808383600083811015610b63578181015183820152602001610b4b565b506124a8610cf5565b92506124b383614258565b60408051808201909152601a81527f5245434f5645525f5641554c545f4e4f545f434f4e545241435400000000000060208201529015156125395760405160e560020a62461bcd02815260040180806020018281038252838181518152602001915080519060200190808383600083811015610b63578181015183820152602001610b4b565b50600160a060020a038416151561258a5760405130319250600160a060020a0384169083156108fc029084906000818181858888f19350505050158015612584573d6000803e3d6000fd5b50612649565b50826125a5600160a060020a0382163063ffffffff61427e16565b91506125c1600160a060020a038216848463ffffffff61439316565b60408051808201909152601d81527f5245434f5645525f544f4b454e5f5452414e534645525f4641494c454400000060208201529015156126475760405160e560020a62461bcd02815260040180806020018281038252838181518152602001915080519060200190808383600083811015610b63578181015183820152602001610b4b565b505b83600160a060020a031683600160a060020a03167f596caf56044b55fb8c4ca640089bbc2b63cae3e978b851f5745cbb7c5b288e02846040518082815260200191505060405180910390a350505050565b6000806126a5610a90565b15156126b457600091506127df565b6126bc613194565b9050600160a060020a03811615156126d757600091506127df565b80600160a060020a031663fdef91068630876126f28861441e565b60405163ffffffff861660e01b8152600160a060020a03808616600483019081529085166024830152604482018490526080606483019081528351608484015283519192909160a490910190602085019080838360005b83811015612761578181015183820152602001612749565b50505050905090810190601f16801561278e5780820380516001836020036101000a031916815260200191505b5095505050505050602060405180830381600087803b1580156127b057600080fd5b505af11580156127c4573d6000803e3d6000fd5b505050506040513d60208110156127da57600080fd5b505191505b509392505050565b6000806127f2613194565b604080517fbe00bbd80000000000000000000000000000000000000000000000000000000081527fd6f028ca0e8edb4a8c9757ca4fdccab25fa1e0317da1188108f7d2dee14902fb60048201527fddbcfd564f642ab5627cf68b9b7d374fb4f8a36e941a75d89c87998cef03bd6160248201529051600160a060020a03929092169163be00bbd8916044808201926020929091908290030181600087803b158015610cc357600080fd5b603081565b604080517f6c69646f2e4e6f64654f70657261746f727352656769737472792e746f74616c81527f4f70657261746f7273436f756e740000000000000000000000000000000000006020820152905190819003602e019020600090611bba9061386a565b604080517f5345545f4e4f44455f4f50455241544f525f4c494d49545f524f4c45000000008152905190819003601c01902061294b8367ffffffffffffffff84166141f5565b61295633838361269a565b60408051808201909152600f815260008051602061496f83398151915260208201529015156129ca5760405160e560020a62461bcd02815260040180806020018281038252838181518152602001915080519060200190808383600083811015610b63578181015183820152602001610b4b565b50836129d46128a1565b8110612a18576040805160e560020a62461bcd028152602060048201526017602482015260008051602061498f833981519152604482015290519081900360640190fd5b60008581526020819052604090206002015467ffffffffffffffff85811691161415612ab4576040805160e560020a62461bcd02815260206004820152602760248201527f4e4f44455f4f50455241544f525f5354414b494e475f4c494d49545f49535f5460448201527f48455f53414d4500000000000000000000000000000000000000000000000000606482015290519081900360840190fd5b612abc613b42565b60008581526020818152604091829020600201805467ffffffffffffffff191667ffffffffffffffff88169081179091558251908152915187927f59d11713a8801e3ba782d59e757fbcef75ca2ecabce8ccd06a0827941230b9f292908290030190a25050505050565b606080600060608086612b376128a1565b8110612b7b576040805160e560020a62461bcd028152602060048201526017602482015260008051602061498f833981519152604482015290519081900360640190fd5b600088815260208190526040902060020154608060020a900467ffffffffffffffff168710612bf4576040805160e560020a62461bcd02815260206004820152600d60248201527f4b45595f4e4f545f464f554e4400000000000000000000000000000000000000604482015290519081900360640190fd5b612bfe8888613a96565b6000998a5260208a9052604090992060020154909960c060020a90910467ffffffffffffffff169097109695505050505050565b604080517f5245504f52545f53544f505045445f56414c494441544f52535f524f4c4500008152905190819003601e019020612c788367ffffffffffffffff84166141f5565b612c8333838361269a565b60408051808201909152600f815260008051602061496f8339815191526020820152901515612cf75760405160e560020a62461bcd02815260040180806020018281038252838181518152602001915080519060200190808383600083811015610b63578181015183820152602001610b4b565b5083612d016128a1565b8110612d45576040805160e560020a62461bcd028152602060048201526017602482015260008051602061498f833981519152604482015290519081900360640190fd5b67ffffffffffffffff84161515612da6576040805160e560020a62461bcd02815260206004820152600b60248201527f454d5054595f56414c5545000000000000000000000000000000000000000000604482015290519081900360640190fd5b600085815260208190526040902060020154612dd89068010000000000000000900467ffffffffffffffff1685614428565b600086815260208190526040902060020180546fffffffffffffffff000000000000000019166801000000000000000067ffffffffffffffff9384168102919091179182905560c060020a8204831691049091161115612e82576040805160e560020a62461bcd02815260206004820152601a60248201527f53544f505045445f4d4f52455f5448414e5f4c41554e43484544000000000000604482015290519081900360640190fd5b600085815260208181526040918290206002015482516801000000000000000090910467ffffffffffffffff168152915187927fe6452c223b953d8ab5cb26c014095615322891268537911ba6fe1c939689703d92908290030190a25050505050565b612eed611f4f565b60408051808201909152601881527f494e49545f414c52454144595f494e495449414c495a4544000000000000000060208201529015612f725760405160e560020a62461bcd02815260040180806020018281038252838181518152602001915080519060200190808383600083811015610b63578181015183820152602001610b4b565b50604080517f6c69646f2e4e6f64654f70657261746f727352656769737472792e746f74616c81527f4f70657261746f7273436f756e740000000000000000000000000000000000006020820152905190819003602e019020612fdc90600063ffffffff61425016565b604080517f6c69646f2e4e6f64654f70657261746f727352656769737472792e616374697681527f654f70657261746f7273436f756e7400000000000000000000000000000000006020820152905190819003602f01902061304590600063ffffffff61425016565b604080517f6c69646f2e4e6f64654f70657261746f727352656769737472792e6b6579734f81527f70496e6465780000000000000000000000000000000000000000000000000000602082015290519081900360260190206130ae90600063ffffffff61425016565b604080517f6c69646f2e4e6f64654f70657261746f727352656769737472792e6c69646f008152905190819003601f0190206130f0908263ffffffff61425016565b6130f86144c3565b50565b604080517f5245504f52545f53544f505045445f56414c494441544f52535f524f4c4500008152905190819003601e01902081565b604080517f6c69646f2e4e6f64654f70657261746f727352656769737472792e6b6579734f81527f70496e646578000000000000000000000000000000000000000000000000000060208201529051908190036026019020600090611bba9061386a565b6000611bba7f4172f0f7d2289153072b0a6ca36959e0cbe2efc3afe50fc81636caa96338137b61386a565b604080517f5345545f4e4f44455f4f50455241544f525f4143544956455f524f4c450000008152905190819003601d01902081565b604080517f5345545f4e4f44455f4f50455241544f525f4c494d49545f524f4c45000000008152905190819003601c01902081565b6000816132346128a1565b8110613278576040805160e560020a62461bcd028152602060048201526017602482015260008051602061498f833981519152604482015290519081900360640190fd5b5050600090815260208190526040902060020154608060020a900467ffffffffffffffff1690565b60006000196132ad611f4f565b14905090565b60c881565b6000828152602081905260409020546101009004600160a060020a03163314613319576040805160e560020a62461bcd02815260206004820152600f602482015260008051602061496f833981519152604482015290519081900360640190fd5b6133238282613d03565b5050565b604080516000805160206149af8339815191528152905190819003601301902081565b604080517f6c69646f2e4e6f64654f70657261746f727352656769737472792e6c69646f008152905190819003601f01902060009081908190819061338e9061386a565b600160a060020a031633146133db576040805160e560020a62461bcd02815260206004820152600f602482015260008051602061496f833981519152604482015290519081900360640190fd5b6133e36128a1565b9350600092505b838310156111a857505060008181526020819052604090206002015467ffffffffffffffff608060020a820481169160c060020a9004168082146134ab5760008381526020818152604091829020600201805467ffffffffffffffff808616608060020a0277ffffffffffffffff00000000000000000000000000000000199092169190911790915582518486039091168152915185927f9824694569ba758f8872bb150515caaf8f1e2cc27e6805679c4ac8c3b9b83d8792908290030190a25b8260010192506133ea565b4390565b60408051600180825281830190925260609160208083019080388339019050509050818160008151811015156134ec57fe5b60209081029091010152919050565b6000606080866135096128a1565b811061354d576040805160e560020a62461bcd028152602060048201526017602482015260008051602061498f833981519152604482015290519081900360640190fd5b8615156135a4576040805160e560020a62461bcd02815260206004820152600760248201527f4e4f5f4b45595300000000000000000000000000000000000000000000000000604482015290519081900360640190fd5b6135b587603063ffffffff61414a16565b86511461360c576040805160e560020a62461bcd02815260206004820152600e60248201527f494e56414c49445f4c454e475448000000000000000000000000000000000000604482015290519081900360640190fd5b61361d87606063ffffffff61414a16565b855114613674576040805160e560020a62461bcd02815260206004820152600e60248201527f494e56414c49445f4c454e475448000000000000000000000000000000000000604482015290519081900360640190fd5b61367c613b42565b600093505b868410156137e1576136988660308602603061458b565b92506136a38361460c565b156136f8576040805160e560020a62461bcd02815260206004820152600960248201527f454d5054595f4b45590000000000000000000000000000000000000000000000604482015290519081900360640190fd5b6137078560608602606061458b565b60008981526020819052604090206002015490925061373c908990608060020a900467ffffffffffffffff1686018585614642565b877fc77a17d6b857abe6d6e6c37301621bc72c4dd52fa8830fb54dfa715c04911a89846040518080602001828103825283818151815260200191508051906020019080838360005b8381101561379c578181015183820152602001613784565b50505050905090810190601f1680156137c95780820380516001836020036101000a031916815260200191505b509250505060405180910390a2836001019350613681565b6138166137ed886146b7565b60008a815260208190526040902060020154608060020a900467ffffffffffffffff1690614428565b600098895260208990526040909820600201805467ffffffffffffffff99909916608060020a0277ffffffffffffffff00000000000000000000000000000000199099169890981790975550505050505050565b5490565b606060008060008061387e6148a9565b613886611bbf565b6040519080825280602002602001820160405280156138bf57816020015b6138ac6148a9565b8152602001906001900390816138a45790505b5095508551600014156138d1576139e1565b6138d96128a1565b945060009350600092505b84831015613989576000838152602081905260409020805490925060ff16151561390d5761397e565b855160018501948791811061391e57fe5b6020908102909101810151848152600284015467ffffffffffffffff8082169383019390935268010000000000000000810483166040830152608060020a81048316606083015260c060020a90049091166080820181905260a082015290505b8260010192506138e4565b855184146139e1576040805160e560020a62461bcd02815260206004820152601860248201527f494e434f53495354454e545f4143544956455f434f554e540000000000000000604482015290519081900360640190fd5b505050505090565b60408051808201909152601281527f4d4154485f5355425f554e444552464c4f5700000000000000000000000000006020820152600090819084841115613a755760405160e560020a62461bcd02815260040180806020018281038252838181518152602001915080519060200190808383600083811015610b63578181015183820152602001610b4b565b505050808203805b5092915050565b60408051828152918201602001905290565b606080600060606000613aa987876146cb565b60408051818152606081018252919450602082016108008038833950508454602083015250600184015460408201526002909301929150613aed826000603061458b565b6040805160608082526080820190925291965060208201610c0080388339019050509350600090505b6060811015613b38578254602082860181019190915260019093019201613b16565b5050509250929050565b6000613b4c613130565b604080517f6c69646f2e4e6f64654f70657261746f727352656769737472792e6b6579734f81527f70496e646578000000000000000000000000000000000000000000000000000060208201529051908190036026019020909150613bba906001830163ffffffff61425016565b6040805160018301815290517ffb992daec9d46d64898e3a9336d02811349df6cbea8b95d4deb2fa6c7b454f0d9181900360200190a150565b60008083518551840111151515613c54576040805160e560020a62461bcd02815260206004820152601960248201527f42595445535f41525241595f4f55545f4f465f424f554e445300000000000000604482015290519081900360640190fd5b6020850191508260208501019050613c6e828287516147b1565b5050505050565b60408051808201909152601181527f4d4154485f4144445f4f564552464c4f57000000000000000000000000000000602082015260009083830190848210156127df5760405160e560020a62461bcd02815260040180806020018281038252838181518152602001915080519060200190808383600083811015610b63578181015183820152602001610b4b565b6060600060608085613d136128a1565b8110613d57576040805160e560020a62461bcd028152602060048201526017602482015260008051602061498f833981519152604482015290519081900360640190fd5b600087815260208190526040902060020154608060020a900467ffffffffffffffff168610613dd0576040805160e560020a62461bcd02815260206004820152600d60248201527f4b45595f4e4f545f464f554e4400000000000000000000000000000000000000604482015290519081900360640190fd5b60008781526020819052604090206002015460c060020a900467ffffffffffffffff16861015613e4a576040805160e560020a62461bcd02815260206004820152600c60248201527f4b45595f5741535f555345440000000000000000000000000000000000000000604482015290519081900360640190fd5b613e52613b42565b613e5c8787613a96565b50600088815260208190526040902060020154909550613e8e90608060020a900467ffffffffffffffff166001614011565b67ffffffffffffffff16935083861015613ebc57613eac8785613a96565b92509250613ebc87878585614642565b613ec687856147ff565b600087815260208190526040902060020154613ef490608060020a900467ffffffffffffffff166001614011565b6000888152602081905260409020600201805477ffffffffffffffff000000000000000000000000000000001916608060020a67ffffffffffffffff93841602179081905516861015613f6e576000878152602081905260409020600201805467ffffffffffffffff191667ffffffffffffffff88161790555b867fea4b75aaf57196f73d338cadf79ecd0a437902e2dd0d2c4c2cf3ea71b8ab27b9866040518080602001828103825283818151815260200191508051906020019080838360005b83811015613fce578181015183820152602001613fb6565b50505050905090810190601f168015613ffb5780820380516001836020036101000a031916815260200191505b509250505060405180910390a250505050505050565b60408051808201909152601481527f4d41544836345f5355425f554e444552464c4f570000000000000000000000006020820152600090819067ffffffffffffffff8086169085161115613a755760405160e560020a62461bcd02815260040180806020018281038252838181518152602001915080519060200190808383600083811015610b63578181015183820152602001610b4b565b60408051808201909152600d81527f4d4154485f4449565f5a45524f00000000000000000000000000000000000000602082015260009081908184116141355760405160e560020a62461bcd02815260040180806020018281038252838181518152602001915080519060200190808383600083811015610b63578181015183820152602001610b4b565b50828481151561414157fe5b04949350505050565b60008083151561415d5760009150613a7d565b5082820282848281151561416d57fe5b60408051808201909152601181527f4d4154485f4d554c5f4f564552464c4f57000000000000000000000000000000602082015292919004146127df5760405160e560020a62461bcd02815260040180806020018281038252838181518152602001915080519060200190808383600083811015610b63578181015183820152602001610b4b565b60408051600280825260608083018452926020830190803883390190505090508281600081518110151561422557fe5b60209081029091010152805182908290600190811061424057fe5b6020908102909101015292915050565b9055565b5490565b600080600160a060020a0383161515614274576000915061200c565b50506000903b1190565b60408051600160a060020a0383166024808301919091528251808303909101815260449091019091526020810180517bffffffffffffffffffffffffffffffffffffffffffffffffffffffff167f70a082310000000000000000000000000000000000000000000000000000000017905260009081806142fe868461482a565b60408051808201909152601c81527f534146455f4552435f32305f42414c414e43455f524556455254454400000000602082015291935091508215156143895760405160e560020a62461bcd02815260040180806020018281038252838181518152602001915080519060200190808383600083811015610b63578181015183820152602001610b4b565b5095945050505050565b60408051600160a060020a038416602482015260448082018490528251808303909101815260649091019091526020810180517bffffffffffffffffffffffffffffffffffffffffffffffffffffffff167fa9059cbb00000000000000000000000000000000000000000000000000000000179052600090614415858261485b565b95945050505050565b8051602002815290565b60408051808201909152601381527f4d41544836345f4144445f4f564552464c4f570000000000000000000000000060208201526000908383019067ffffffffffffffff80861690831610156127df5760405160e560020a62461bcd02815260040180806020018281038252838181518152602001915080519060200190808383600083811015610b63578181015183820152602001610b4b565b6144cb611f4f565b60408051808201909152601881527f494e49545f414c52454144595f494e495449414c495a45440000000000000000602082015290156145505760405160e560020a62461bcd02815260040180806020018281038252838181518152602001915080519060200190808383600083811015610b63578181015183820152602001610b4b565b5061458961455c6134b6565b7febb05b386a8d34882b8711d156f463690983dc47815980fb82aeeff1aa43579e9063ffffffff61425016565b565b6060808284018551101515156145a057600080fd5b821580156145b957604051915060208201604052614603565b6040519150601f8416801560200281840101858101878315602002848b0101015b818310156145f25780518352602092830192016145da565b5050858452601f01601f1916604052505b50949350505050565b60008060006030845114151561461e57fe5b5050602082015160408301518115801561463a5750608081901c155b949350505050565b60008060006030855114151561465457fe5b835160601461465f57fe5b61466987876146cb565b602086015181556040860151608090811c811b6001830155600290910193509150600090505b60608110156146ae57602081850181015184556001909301920161468f565b50505050505050565b600067ffffffffffffffff821115610ab657fe5b604080517f6c69646f2e4e6f64654f70657261746f727352656769737472792e7369676e6981527f6e674b6579734d617070696e674e616d650000000000000000000000000000006020808301919091528251918290036031018220828201528183018590526060808301859052835180840390910181526080909201928390528151600093918291908401908083835b6020831061477b5780518252601f19909201916020918201910161475c565b5181516020939093036101000a6000190180199091169216919091179052604051920182900390912060001c9695505050505050565b5b601f8111156147d2578251825260209283019290910190601f19016147b2565b60008111156147fa5760018160200360080260011b0380198451168184511681811785525050505b505050565b60008061480c84846146cb565b9150600090505b60058110156111a857600082820155600101614813565b6000806000806040516020818751602089018a5afa9250600083111561484f57805191505b50909590945092505050565b6000806040516020818551602087016000895af1600081111561489f573d801561488c57602081146148955761489d565b6001935061489d565b600183511493505b505b5090949350505050565b60c0604051908101604052806000815260200160008152602001600081526020016000815260200160008152602001600081525090565b828054600181600116156101000203166002900490600052602060002090601f016020900481019282601f106149215782800160ff1982351617855561494e565b8280016001018555821561494e579182015b8281111561494e578235825591602001919060010190614933565b50610ab692610d689250905b80821115610ab6576000815560010161495a56004150505f415554485f4641494c454400000000000000000000000000000000004e4f44455f4f50455241544f525f4e4f545f464f554e440000000000000000004d414e4147455f5349474e494e475f4b45595300000000000000000000000000a165627a7a723058204c13289b0000d71203e5ae1e0b0b75a52733672d6c77bbb9d50b52acfb6f498f0029ebb05b386a8d34882b8711d156f463690983dc47815980fb82aeeff1aa43579e",
    "linkReferences": {}
  },
  "methodIdentifiers": {
    "ADD_NODE_OPERATOR_ROLE()": "7294d685",
    "MANAGE_SIGNING_KEYS()": "f31bd9c1",
    "MAX_NODE_OPERATORS_COUNT()": "ec5af3a4",
    "PUBKEY_LENGTH()": "a4d55d1d",
    "REPORT_STOPPED_VALIDATORS_ROLE()": "cb10af07",
    "SET_NODE_OPERATOR_ACTIVE_ROLE()": "d6e1c2cc",
    "SET_NODE_OPERATOR_ADDRESS_ROLE()": "5a9fc07e",
    "SET_NODE_OPERATOR_LIMIT_ROLE()": "d8e71cd1",
    "SET_NODE_OPERATOR_NAME_ROLE()": "69602607",
    "SIGNATURE_LENGTH()": "540bc5ea",
    "addNodeOperator(string,address)": "85fa63d7",
    "addSigningKeys(uint256,uint256,bytes,bytes)": "096b7b35",
    "addSigningKeysOperatorBH(uint256,uint256,bytes,bytes)": "805911ae",
    "allowRecoverability(address)": "7e7db6e1",
    "appId()": "80afdea8",
    "assignNextSigningKeys(uint256)": "41bc716f",
    "canPerform(address,bytes32,uint256[])": "a1658fad",
    "getActiveNodeOperatorsCount()": "8469cbd3",
    "getEVMScriptExecutor(bytes)": "2914b9bd",
    "getEVMScriptRegistry()": "a479e508",
    "getInitializationBlock()": "8b3dd749",
    "getKeysOpIndex()": "d07442f1",
    "getNodeOperator(uint256,bool)": "9a56983c",
    "getNodeOperatorsCount()": "a70c70e4",
    "getRecoveryVault()": "32f0a3b5",
    "getRewardsDistribution(uint256)": "62dcfda1",
    "getSigningKey(uint256,uint256)": "b449402a",
    "getTotalSigningKeyCount(uint256)": "db9887ea",
    "getUnusedSigningKeyCount(uint256)": "8ca7c052",
    "hasInitialized()": "0803fac0",
    "initialize(address)": "c4d66de8",
    "isPetrified()": "de4796ed",
    "kernel()": "d4aae0c4",
    "removeSigningKey(uint256,uint256)": "6ef355f1",
    "removeSigningKeyOperatorBH(uint256,uint256)": "ed5cfa41",
    "removeSigningKeys(uint256,uint256,uint256)": "7038b141",
    "removeSigningKeysOperatorBH(uint256,uint256,uint256)": "5ddde810",
    "reportStoppedValidators(uint256,uint64)": "be726da2",
    "setNodeOperatorActive(uint256,bool)": "687ca337",
    "setNodeOperatorName(uint256,string)": "5e57d742",
    "setNodeOperatorRewardAddress(uint256,address)": "973e9328",
    "setNodeOperatorStakingLimit(uint256,uint64)": "ae962acf",
    "transferToVault(address)": "9d4941d8",
    "trimUnusedKeys()": "f778021e"
  },
  "storageLayout": {
    "storage": [],
    "types": {}
  },
  "id": 12
}