{
  "abi": [
    {
      "constant": false,
      "inputs": [
        {
          "name": "_pool",
          "type": "address"
        }
      ],
      "name": "setPool",
      "outputs": [],
      "payable": false,
      "stateMutability": "nonpayable",
      "type": "function"
    },
    {
      "constant": false,
      "inputs": [
        {
          "name": "_epochId",
          "type": "uint256"
        },
        {
          "name": "_beaconValidators",
          "type": "uint128"
        },
        {
          "name": "_beaconBalance",
          "type": "uint128"
        }
      ],
      "name": "reportBeacon",
      "outputs": [],
      "payable": false,
      "stateMutability": "nonpayable",
      "type": "function"
    },
    {
      "constant": false,
      "inputs": [
        {
          "name": "_receiver",
          "type": "address"
        }
      ],
      "name": "setBeaconReportReceiver",
      "outputs": [],
      "payable": false,
      "stateMutability": "nonpayable",
      "type": "function"
    },
    {
      "constant": true,
      "inputs": [],
      "name": "getBeaconReportReceiver",
      "outputs": [
        {
          "name": "",
          "type": "address"
        }
      ],
      "payable": false,
      "stateMutability": "view",
      "type": "function"
    }
  ],
  "bytecode": {
    "object": "0x608060405234801561001057600080fd5b50610222806100206000396000f3006080604052600436106100455760003560e01c63ffffffff1680634437152a1461004a57806362eeb7321461006d5780639a3cb2ca146100a0578063b2480603146100c1575b600080fd5b34801561005657600080fd5b5061006b600160a060020a03600435166100f2565b005b34801561007957600080fd5b5061006b6004356fffffffffffffffffffffffffffffffff60243581169060443516610121565b3480156100ac57600080fd5b5061006b600160a060020a03600435166101b8565b3480156100cd57600080fd5b506100d66101e7565b60408051600160a060020a039092168252519081900360200190f35b6000805473ffffffffffffffffffffffffffffffffffffffff1916600160a060020a0392909216919091179055565b60008054604080517f64f9991a0000000000000000000000000000000000000000000000000000000081526fffffffffffffffffffffffffffffffff8087166004830152851660248201529051600160a060020a03909216926364f9991a9260448084019382900301818387803b15801561019b57600080fd5b505af11580156101af573d6000803e3d6000fd5b50505050505050565b6001805473ffffffffffffffffffffffffffffffffffffffff1916600160a060020a0392909216919091179055565b600154600160a060020a0316905600a165627a7a72305820d8eb2cad0a4d6fbd555ffe361b596d765db41f72b18cd20d7fa80e84eced7f060029",
    "linkReferences": {}
  },
  "methodIdentifiers": {
    "getBeaconReportReceiver()": "b2480603",
    "reportBeacon(uint256,uint128,uint128)": "62eeb732",
    "setBeaconReportReceiver(address)": "9a3cb2ca",
    "setPool(address)": "4437152a"
  },
  "storageLayout": {
    "storage": [],
    "types": {}
  },
  "id": 29
}