{
  "abi": [
    {
      "inputs": [
        {
          "internalType": "uint256",
          "name": "_id",
          "type": "uint256"
        }
      ],
      "stateMutability": "nonpayable",
      "type": "constructor"
    },
    {
      "inputs": [],
      "name": "id",
      "outputs": [
        {
          "internalType": "uint256",
          "name": "",
          "type": "uint256"
        }
      ],
      "stateMutability": "view",
      "type": "function"
    },
    {
      "inputs": [
        {
          "internalType": "uint256",
          "name": "",
          "type": "uint256"
        },
        {
          "internalType": "uint256",
          "name": "",
          "type": "uint256"
        },
        {
          "internalType": "uint256",
          "name": "",
          "type": "uint256"
        }
      ],
      "name": "processLidoOracleReport",
      "outputs": [],
      "stateMutability": "nonpayable",
      "type": "function"
    },
    {
      "inputs": [],
      "name": "processedCounter",
      "outputs": [
        {
          "internalType": "uint256",
          "name": "",
          "type": "uint256"
        }
      ],
      "stateMutability": "view",
      "type": "function"
    },
    {
      "inputs": [
        {
          "internalType": "bytes4",
          "name": "_interfaceId",
          "type": "bytes4"
        }
      ],
      "name": "supportsInterface",
      "outputs": [
        {
          "internalType": "bool",
          "name": "",
          "type": "bool"
        }
      ],
      "stateMutability": "view",
      "type": "function"
    }
  ],
  "bytecode": {
    "object": "0x60a060405234801561001057600080fd5b5060405161024238038061024283398101604081905261002f91610037565b608052610050565b60006020828403121561004957600080fd5b5051919050565b6080516101d861006a600039600060aa01526101d86000f3fe608060405234801561001057600080fd5b506004361061004c5760003560e01c806301ffc9a71461005157806334212e5f1461007957806366f7696f1461008e578063af640d0f146100a5575b600080fd5b61006461005f36600461011c565b6100cc565b60405190151581526020015b60405180910390f35b61008c61008736600461014d565b610103565b005b61009760005481565b604051908152602001610070565b6100977f000000000000000000000000000000000000000000000000000000000000000081565b60006001600160e01b031982166334212e5f60e01b14806100fd57506301ffc9a760e01b6001600160e01b03198316145b92915050565b60008054908061011283610179565b9190505550505050565b60006020828403121561012e57600080fd5b81356001600160e01b03198116811461014657600080fd5b9392505050565b60008060006060848603121561016257600080fd5b505081359360208301359350604090920135919050565b600060001982141561019b57634e487b7160e01b600052601160045260246000fd5b506001019056fea2646970667358221220b8aa70eb1feed0e4800cbb0288b408462b1cc30c4216fc27e800d2a460b3ed9164736f6c63430008090033",
    "linkReferences": {}
  },
  "methodIdentifiers": {
    "id()": "af640d0f",
    "processLidoOracleReport(uint256,uint256,uint256)": "34212e5f",
    "processedCounter()": "66f7696f",
    "supportsInterface(bytes4)": "01ffc9a7"
  },
  "storageLayout": {
    "storage": [
      {
        "astId": 2544,
        "contract": "contracts/0.8.9/test_helpers/BeaconReceiverMock.sol:BeaconReceiverMock",
        "label": "processedCounter",
        "offset": 0,
        "slot": "0",
        "type": "t_uint256"
      }
    ],
    "types": {
      "t_uint256": {
        "encoding": "inplace",
        "label": "uint256",
        "numberOfBytes": "32"
      }
    }
  },
  "id": 9
}