{
  "abi": [
    {
      "inputs": [
        {
          "internalType": "uint256",
          "name": "",
          "type": "uint256"
        },
        {
          "internalType": "uint256",
          "name": "",
          "type": "uint256"
        },
        {
          "internalType": "uint256",
          "name": "",
          "type": "uint256"
        }
      ],
      "name": "processLidoOracleReport",
      "outputs": [],
      "stateMutability": "nonpayable",
      "type": "function"
    }
  ],
  "bytecode": {
    "object": "0x6080604052348015600f57600080fd5b5060a08061001e6000396000f3fe6080604052348015600f57600080fd5b506004361060285760003560e01c806334212e5f14602d575b600080fd5b603d6038366004603f565b505050565b005b600080600060608486031215605357600080fd5b50508135936020830135935060409092013591905056fea26469706673582212202494cdf2f6b242c7e2cf586680b1c69d89b4efe3543bb0bfc21b6b2858bf157864736f6c63430008090033",
    "linkReferences": {}
  },
  "methodIdentifiers": {
    "processLidoOracleReport(uint256,uint256,uint256)": "34212e5f"
  },
  "storageLayout": {
    "storage": [],
    "types": {}
  },
  "id": 9
}