{
  "abi": [
    {
      "constant": true,
      "inputs": [],
      "name": "hasInitialized",
      "outputs": [
        {
          "name": "",
          "type": "bool"
        }
      ],
      "payable": false,
      "stateMutability": "view",
      "type": "function"
    },
    {
      "constant": true,
      "inputs": [
        {
          "name": "_script",
          "type": "bytes"
        }
      ],
      "name": "getEVMScriptExecutor",
      "outputs": [
        {
          "name": "",
          "type": "address"
        }
      ],
      "payable": false,
      "stateMutability": "view",
      "type": "function"
    },
    {
      "constant": true,
      "inputs": [],
      "name": "getRecoveryVault",
      "outputs": [
        {
          "name": "",
          "type": "address"
        }
      ],
      "payable": false,
      "stateMutability": "view",
      "type": "function"
    },
    {
      "constant": true,
      "inputs": [
        {
          "name": "_semanticVersion",
          "type": "uint16[3]"
        }
      ],
      "name": "getBySemanticVersion",
      "outputs": [
        {
          "name": "semanticVersion",
          "type": "uint16[3]"
        },
        {
          "name": "contractAddress",
          "type": "address"
        },
        {
          "name": "contentURI",
          "type": "bytes"
        }
      ],
      "payable": false,
      "stateMutability": "view",
      "type": "function"
    },
    {
      "constant": false,
      "inputs": [
        {
          "name": "_newSemanticVersion",
          "type": "uint16[3]"
        },
        {
          "name": "_contractAddress",
          "type": "address"
        },
        {
          "name": "_contentURI",
          "type": "bytes"
        }
      ],
      "name": "newVersion",
      "outputs": [],
      "payable": false,
      "stateMutability": "nonpayable",
      "type": "function"
    },
    {
      "constant": true,
      "inputs": [
        {
          "name": "_versionId",
          "type": "uint256"
        }
      ],
      "name": "getByVersionId",
      "outputs": [
        {
          "name": "semanticVersion",
          "type": "uint16[3]"
        },
        {
          "name": "contractAddress",
          "type": "address"
        },
        {
          "name": "contentURI",
          "type": "bytes"
        }
      ],
      "payable": false,
      "stateMutability": "view",
      "type": "function"
    },
    {
      "constant": true,
      "inputs": [
        {
          "name": "token",
          "type": "address"
        }
      ],
      "name": "allowRecoverability",
      "outputs": [
        {
          "name": "",
          "type": "bool"
        }
      ],
      "payable": false,
      "stateMutability": "view",
      "type": "function"
    },
    {
      "constant": true,
      "inputs": [],
      "name": "appId",
      "outputs": [
        {
          "name": "",
          "type": "bytes32"
        }
      ],
      "payable": false,
      "stateMutability": "view",
      "type": "function"
    },
    {
      "constant": false,
      "inputs": [],
      "name": "initialize",
      "outputs": [],
      "payable": false,
      "stateMutability": "nonpayable",
      "type": "function"
    },
    {
      "constant": true,
      "inputs": [],
      "name": "getInitializationBlock",
      "outputs": [
        {
          "name": "",
          "type": "uint256"
        }
      ],
      "payable": false,
      "stateMutability": "view",
      "type": "function"
    },
    {
      "constant": true,
      "inputs": [
        {
          "name": "_contractAddress",
          "type": "address"
        }
      ],
      "name": "getLatestForContractAddress",
      "outputs": [
        {
          "name": "semanticVersion",
          "type": "uint16[3]"
        },
        {
          "name": "contractAddress",
          "type": "address"
        },
        {
          "name": "contentURI",
          "type": "bytes"
        }
      ],
      "payable": false,
      "stateMutability": "view",
      "type": "function"
    },
    {
      "constant": false,
      "inputs": [
        {
          "name": "_token",
          "type": "address"
        }
      ],
      "name": "transferToVault",
      "outputs": [],
      "payable": false,
      "stateMutability": "nonpayable",
      "type": "function"
    },
    {
      "constant": true,
      "inputs": [
        {
          "name": "_sender",
          "type": "address"
        },
        {
          "name": "_role",
          "type": "bytes32"
        },
        {
          "name": "_params",
          "type": "uint256[]"
        }
      ],
      "name": "canPerform",
      "outputs": [
        {
          "name": "",
          "type": "bool"
        }
      ],
      "payable": false,
      "stateMutability": "view",
      "type": "function"
    },
    {
      "constant": true,
      "inputs": [],
      "name": "getEVMScriptRegistry",
      "outputs": [
        {
          "name": "",
          "type": "address"
        }
      ],
      "payable": false,
      "stateMutability": "view",
      "type": "function"
    },
    {
      "constant": true,
      "inputs": [
        {
          "name": "_oldVersion",
          "type": "uint16[3]"
        },
        {
          "name": "_newVersion",
          "type": "uint16[3]"
        }
      ],
      "name": "isValidBump",
      "outputs": [
        {
          "name": "",
          "type": "bool"
        }
      ],
      "payable": false,
      "stateMutability": "pure",
      "type": "function"
    },
    {
      "constant": true,
      "inputs": [],
      "name": "CREATE_VERSION_ROLE",
      "outputs": [
        {
          "name": "",
          "type": "bytes32"
        }
      ],
      "payable": false,
      "stateMutability": "view",
      "type": "function"
    },
    {
      "constant": true,
      "inputs": [],
      "name": "getLatest",
      "outputs": [
        {
          "name": "semanticVersion",
          "type": "uint16[3]"
        },
        {
          "name": "contractAddress",
          "type": "address"
        },
        {
          "name": "contentURI",
          "type": "bytes"
        }
      ],
      "payable": false,
      "stateMutability": "view",
      "type": "function"
    },
    {
      "constant": true,
      "inputs": [],
      "name": "getVersionsCount",
      "outputs": [
        {
          "name": "",
          "type": "uint256"
        }
      ],
      "payable": false,
      "stateMutability": "view",
      "type": "function"
    },
    {
      "constant": true,
      "inputs": [],
      "name": "kernel",
      "outputs": [
        {
          "name": "",
          "type": "address"
        }
      ],
      "payable": false,
      "stateMutability": "view",
      "type": "function"
    },
    {
      "constant": true,
      "inputs": [],
      "name": "isPetrified",
      "outputs": [
        {
          "name": "",
          "type": "bool"
        }
      ],
      "payable": false,
      "stateMutability": "view",
      "type": "function"
    },
    {
      "anonymous": false,
      "inputs": [
        {
          "indexed": false,
          "name": "versionId",
          "type": "uint256"
        },
        {
          "indexed": false,
          "name": "semanticVersion",
          "type": "uint16[3]"
        }
      ],
      "name": "NewVersion",
      "type": "event"
    },
    {
      "anonymous": false,
      "inputs": [
        {
          "indexed": true,
          "name": "executor",
          "type": "address"
        },
        {
          "indexed": false,
          "name": "script",
          "type": "bytes"
        },
        {
          "indexed": false,
          "name": "input",
          "type": "bytes"
        },
        {
          "indexed": false,
          "name": "returnData",
          "type": "bytes"
        }
      ],
      "name": "ScriptResult",
      "type": "event"
    },
    {
      "anonymous": false,
      "inputs": [
        {
          "indexed": true,
          "name": "vault",
          "type": "address"
        },
        {
          "indexed": true,
          "name": "token",
          "type": "address"
        },
        {
          "indexed": false,
          "name": "amount",
          "type": "uint256"
        }
      ],
      "name": "RecoverToVault",
      "type": "event"
    }
  ],
  "bytecode": {
    "object": "0x6080604052620000146200001a60201b60201c565b62000231565b6200002a6200011c60201b60201c565b60408051808201909152601881527f494e49545f414c52454144595f494e495449414c495a454400000000000000006020820152901562000106576040517f08c379a00000000000000000000000000000000000000000000000000000000081526004018080602001828103825283818151815260200191508051906020019080838360005b83811015620000ca578181015183820152602001620000b0565b50505050905090810190601f168015620000f85780820380516001836020036101000a031916815260200191505b509250505060405180910390fd5b506200011a6000196200014f60201b60201c565b565b60006200014a60008051602062001bec83398151915260001b600019166200022960201b620014f11760201c565b905090565b6200015f6200011c60201b60201c565b60408051808201909152601881527f494e49545f414c52454144595f494e495449414c495a4544000000000000000060208201529015620001fe576040517f08c379a000000000000000000000000000000000000000000000000000000000815260040180806020018281038252838181518152602001915080519060200190808383600083811015620000ca578181015183820152602001620000b0565b506200022660008051602062001bec833981519152826200022d602090811b6200179817901c565b50565b5490565b9055565b6119ab80620002416000396000f3006080604052600436106100f55760003560e01c63ffffffff1680630803fac0146100fa5780632914b9bd1461012357806332f0a3b5146101985780634c3ba268146101ad57806373053410146102aa578063737e7d4f1461033a5780637e7db6e11461035257806380afdea8146103735780638129fc1c1461039a5780638b3dd749146103af5780639a6fe50c146103c45780639d4941d8146103e5578063a1658fad14610406578063a479e5081461046d578063a7bdf16e14610482578063aa61924a146104eb578063c36af46014610500578063c6d48e0d14610515578063d4aae0c41461052a578063de4796ed1461053f575b600080fd5b34801561010657600080fd5b5061010f610554565b604080519115158252519081900360200190f35b34801561012f57600080fd5b506040805160206004803580820135601f810184900484028501840190955284845261017c94369492936024939284019190819084018382808284375094975061057e9650505050505050565b60408051600160a060020a039092168252519081900360200190f35b3480156101a457600080fd5b5061017c610661565b3480156101b957600080fd5b506040805160608181019092526101f09136916004916064919083906003908390839080828437509396506106d795505050505050565b6040518084606080838360005b838110156102155781810151838201526020016101fd565b5050505090500183600160a060020a0316600160a060020a0316815260200180602001828103825283818151815260200191508051906020019080838360005b8381101561026d578181015183820152602001610255565b50505050905090810190601f16801561029a5780820380516001836020036101000a031916815260200191505b5094505050505060405180910390f35b3480156102b657600080fd5b50604080516060818101909252610338913691600491606491908390600390839083908082843750506040805160208781013589018035601f81018390048302840183018552808452979a8935600160a060020a03169a9099909894019650919450908101925081908401838280828437509497506107169650505050505050565b005b34801561034657600080fd5b506101f0600435610b4b565b34801561035e57600080fd5b5061010f600160a060020a0360043516610d0a565b34801561037f57600080fd5b50610388610d10565b60408051918252519081900360200190f35b3480156103a657600080fd5b50610338610d40565b3480156103bb57600080fd5b50610388610ddd565b3480156103d057600080fd5b506101f0600160a060020a0360043516610e08565b3480156103f157600080fd5b50610338600160a060020a0360043516610e35565b34801561041257600080fd5b50604080516020600460443581810135838102808601850190965280855261010f958335600160a060020a03169560248035963696956064959394920192918291850190849080828437509497506110c49650505050505050565b34801561047957600080fd5b5061017c611211565b34801561048e57600080fd5b5060408051606081810190925261010f91369160049160649190839060039083908390808284375050604080516060818101909252949796958181019594509250600391508390839080828437509396506112c695505050505050565b3480156104f757600080fd5b506103886113b5565b34801561050c57600080fd5b506101f06113d9565b34801561052157600080fd5b506103886113fe565b34801561053657600080fd5b5061017c611408565b34801561054b57600080fd5b5061010f611433565b60008061055f610ddd565b90508015801590610577575080610574611446565b10155b91505b5090565b6000610588611211565b600160a060020a03166304bf2a7f836040518263ffffffff1660e01b81526004018080602001828103825283818151815260200191508051906020019080838360005b838110156105e35781810151838201526020016105cb565b50505050905090810190601f1680156106105780820380516001836020036101000a031916815260200191505b5092505050602060405180830381600087803b15801561062f57600080fd5b505af1158015610643573d6000803e3d6000fd5b505050506040513d602081101561065957600080fd5b505192915050565b600061066b611408565b600160a060020a03166332f0a3b56040518163ffffffff1660e01b8152600401602060405180830381600087803b1580156106a557600080fd5b505af11580156106b9573d6000803e3d6000fd5b505050506040513d60208110156106cf57600080fd5b505190505b90565b6106df61181b565b60006060610709600260006106f38761144a565b8152602081019190915260400160002054610b4b565b9250925092509193909250565b60008061072161181b565b6040805160008082526020820190925281907f1f56cfecd3595a2e6cc1a7e6cb0b20df84cdbd92eff2fee554e70e4e45a9a7d89061076290339083906110c4565b60408051808201909152600f81527f4150505f415554485f4641494c4544000000000000000000000000000000000060208201529015156108245760405160e560020a62461bcd0281526004018080602001828103825283818151815260200191508051906020019080838360005b838110156107e95781810151838201526020016107d1565b50505050905090810190601f1680156108165780820380516001836020036101000a031916815260200191505b509250505060405180910390fd5b508795506001600054039450600085111561096f57600085815260016020526040808220815160608101928390529095509185916003918390855b82829054906101000a900461ffff1661ffff168152602001906002019060208260010104928301926001038202915080841161085f5790505093975050505050600160a060020a03861615156108c0576001830154600160a060020a031695505b6001830154600160a060020a03878116911614806108e757508254895161ffff9182169116115b60408051808201909152601481527f5245504f5f494e56414c49445f56455253494f4e000000000000000000000000602082015290151561096d5760405160e560020a62461bcd028152600401808060200182810382528381815181526020019150805190602001908083836000838110156107e95781810151838201526020016107d1565b505b610979848a6112c6565b60408051808201909152601181527f5245504f5f494e56414c49445f42554d5000000000000000000000000000000060208201529015156109ff5760405160e560020a62461bcd028152600401808060200182810382528381815181526020019150805190602001908083836000838110156107e95781810151838201526020016107d1565b506000805460018082018355604080516060810182528d8152600160a060020a038b166020808301919091528183018d905284865292909252909220825191945090610a4e908290600361183a565b5060208281015160018301805473ffffffffffffffffffffffffffffffffffffffff1916600160a060020a0390921691909117905560408301518051610a9a92600285019201906118cc565b509050508160026000610aac8c61144a565b81526020808201929092526040908101600090812093909355600160a060020a038916835260038252808320859055518481527e3aea8189d1a0aa3ebdb05219cd4c2a663166706e949e9d6e8aa63718ca43fd9285928d92919082019083906060908190849084905b83811015610b2d578181015183820152602001610b15565b505050509050019250505060405180910390a1505050505050505050565b610b5361181b565b6000606060008085118015610b69575060005485105b60408051808201909152601781527f5245504f5f494e4558495354454e545f56455253494f4e0000000000000000006020820152901515610bef5760405160e560020a62461bcd028152600401808060200182810382528381815181526020019150805190602001908083836000838110156107e95781810151838201526020016107d1565b50506000848152600160208190526040808320918201548151606081019283905292938493600160a060020a039092169260028501929185916003918390855b82829054906101000a900461ffff1661ffff1681526020019060020190602082600101049283019260010382029150808411610c2f575050855460408051602060026001851615610100026000190190941693909304601f8101849004840282018401909252818152969950879550935085019150839050828015610cf55780601f10610cca57610100808354040283529160200191610cf5565b820191906000526020600020905b815481529060010190602001808311610cd857829003601f168201915b50505050509050935093509350509193909250565b50600190565b6000610d3b7fd625496217aa6a3453eecb9c3489dc5a53e6c67b444329ea2b2cbc9ff547639b6114f1565b905090565b610d48610ddd565b60408051808201909152601881527f494e49545f414c52454144595f494e495449414c495a4544000000000000000060208201529015610dcd5760405160e560020a62461bcd028152600401808060200182810382528381815181526020019150805190602001908083836000838110156107e95781810151838201526020016107d1565b50610dd66114f5565b6001600055565b6000610d3b7febb05b386a8d34882b8711d156f463690983dc47815980fb82aeeff1aa43579e6114f1565b610e1061181b565b600160a060020a03821660009081526003602052604081205460609061070990610b4b565b6000806000610e4384610d0a565b60408051808201909152601281527f5245434f5645525f444953414c4c4f57454400000000000000000000000000006020820152901515610ec95760405160e560020a62461bcd028152600401808060200182810382528381815181526020019150805190602001908083836000838110156107e95781810151838201526020016107d1565b50610ed2610661565b9250610edd836115c1565b60408051808201909152601a81527f5245434f5645525f5641554c545f4e4f545f434f4e54524143540000000000006020820152901515610f635760405160e560020a62461bcd028152600401808060200182810382528381815181526020019150805190602001908083836000838110156107e95781810151838201526020016107d1565b50600160a060020a0384161515610fb45760405130319250600160a060020a0384169083156108fc029084906000818181858888f19350505050158015610fae573d6000803e3d6000fd5b50611073565b5082610fcf600160a060020a0382163063ffffffff6115ee16565b9150610feb600160a060020a038216848463ffffffff61170316565b60408051808201909152601d81527f5245434f5645525f544f4b454e5f5452414e534645525f4641494c454400000060208201529015156110715760405160e560020a62461bcd028152600401808060200182810382528381815181526020019150805190602001908083836000838110156107e95781810151838201526020016107d1565b505b83600160a060020a031683600160a060020a03167f596caf56044b55fb8c4ca640089bbc2b63cae3e978b851f5745cbb7c5b288e02846040518082815260200191505060405180910390a350505050565b6000806110cf610554565b15156110de5760009150611209565b6110e6611408565b9050600160a060020a03811615156111015760009150611209565b80600160a060020a031663fdef910686308761111c8861178e565b60405163ffffffff861660e01b8152600160a060020a03808616600483019081529085166024830152604482018490526080606483019081528351608484015283519192909160a490910190602085019080838360005b8381101561118b578181015183820152602001611173565b50505050905090810190601f1680156111b85780820380516001836020036101000a031916815260200191505b5095505050505050602060405180830381600087803b1580156111da57600080fd5b505af11580156111ee573d6000803e3d6000fd5b505050506040513d602081101561120457600080fd5b505191505b509392505050565b60008061121c611408565b604080517fbe00bbd80000000000000000000000000000000000000000000000000000000081527fd6f028ca0e8edb4a8c9757ca4fdccab25fa1e0317da1188108f7d2dee14902fb60048201527fddbcfd564f642ab5627cf68b9b7d374fb4f8a36e941a75d89c87998cef03bd6160248201529051600160a060020a03929092169163be00bbd8916044808201926020929091908290030181600087803b15801561062f57600080fd5b600080805b60038110156113a9578115611302578381600381106112e657fe5b602002015161ffff16156112fd57600092506113ad565b6113a1565b84816003811061130e57fe5b602002015161ffff1684826003811061132357fe5b602002015161ffff16146113a15783816003811061133d57fe5b602002015161ffff1685826003811061135257fe5b602002015161ffff16118061138e575084816003811061136e57fe5b602002015184826003811061137f57fe5b60200201510361ffff16600114155b1561139c57600092506113ad565b600191505b6001016112cb565b8192505b505092915050565b7f1f56cfecd3595a2e6cc1a7e6cb0b20df84cdbd92eff2fee554e70e4e45a9a7d881565b6113e161181b565b600060606113f3600160005403610b4b565b925092509250909192565b6000546000190190565b6000610d3b7f4172f0f7d2289153072b0a6ca36959e0cbe2efc3afe50fc81636caa96338137b6114f1565b6000600019611440610ddd565b14905090565b4390565b8051602080830151604080850151815161ffff95861660f090811b82870152938616841b6022820152941690911b6024840152805180840360060181526026909301908190528251600093928291908401908083835b602083106114bf5780518252601f1990920191602091820191016114a0565b5181516020939093036101000a6000190180199091169216919091179052604051920182900390912095945050505050565b5490565b6114fd610ddd565b60408051808201909152601881527f494e49545f414c52454144595f494e495449414c495a45440000000000000000602082015290156115825760405160e560020a62461bcd028152600401808060200182810382528381815181526020019150805190602001908083836000838110156107e95781810151838201526020016107d1565b506115bb61158e611446565b7febb05b386a8d34882b8711d156f463690983dc47815980fb82aeeff1aa43579e9063ffffffff61179816565b565b5490565b600080600160a060020a03831615156115dd57600091506115e8565b823b90506000811191505b50919050565b60408051600160a060020a0383166024808301919091528251808303909101815260449091019091526020810180517bffffffffffffffffffffffffffffffffffffffffffffffffffffffff167f70a0823100000000000000000000000000000000000000000000000000000000179052600090818061166e868461179c565b60408051808201909152601c81527f534146455f4552435f32305f42414c414e43455f524556455254454400000000602082015291935091508215156116f95760405160e560020a62461bcd028152600401808060200182810382528381815181526020019150805190602001908083836000838110156107e95781810151838201526020016107d1565b5095945050505050565b60408051600160a060020a038416602482015260448082018490528251808303909101815260649091019091526020810180517bffffffffffffffffffffffffffffffffffffffffffffffffffffffff167fa9059cbb0000000000000000000000000000000000000000000000000000000017905260009061178585826117cd565b95945050505050565b8051602002815290565b9055565b6000806000806040516020818751602089018a5afa925060008311156117c157805191505b50909590945092505050565b6000806040516020818551602087016000895af16000811115611811573d80156117fe57602081146118075761180f565b6001935061180f565b600183511493505b505b5090949350505050565b6060604051908101604052806003906020820280388339509192915050565b6001830191839082156118c05791602002820160005b8382111561189057835183826101000a81548161ffff021916908361ffff1602179055509260200192600201602081600101049283019260010302611850565b80156118be5782816101000a81549061ffff0219169055600201602081600101049283019260010302611890565b505b5061057a929150611946565b828054600181600116156101000203166002900490600052602060002090601f016020900481019282601f1061190d57805160ff191683800117855561193a565b8280016001018555821561193a579182015b8281111561193a57825182559160200191906001019061191f565b5061057a929150611965565b6106d491905b8082111561057a57805461ffff1916815560010161194c565b6106d491905b8082111561057a576000815560010161196b5600a165627a7a72305820660f1abc9a952d336dad4c1c571979c31be7ed3a312146b2164d1fd65ae99e660029ebb05b386a8d34882b8711d156f463690983dc47815980fb82aeeff1aa43579e",
    "linkReferences": {}
  },
  "methodIdentifiers": {
    "CREATE_VERSION_ROLE()": "aa61924a",
    "allowRecoverability(address)": "7e7db6e1",
    "appId()": "80afdea8",
    "canPerform(address,bytes32,uint256[])": "a1658fad",
    "getBySemanticVersion(uint16[3])": "4c3ba268",
    "getByVersionId(uint256)": "737e7d4f",
    "getEVMScriptExecutor(bytes)": "2914b9bd",
    "getEVMScriptRegistry()": "a479e508",
    "getInitializationBlock()": "8b3dd749",
    "getLatest()": "c36af460",
    "getLatestForContractAddress(address)": "9a6fe50c",
    "getRecoveryVault()": "32f0a3b5",
    "getVersionsCount()": "c6d48e0d",
    "hasInitialized()": "0803fac0",
    "initialize()": "8129fc1c",
    "isPetrified()": "de4796ed",
    "isValidBump(uint16[3],uint16[3])": "a7bdf16e",
    "kernel()": "d4aae0c4",
    "newVersion(uint16[3],address,bytes)": "73053410",
    "transferToVault(address)": "9d4941d8"
  },
  "storageLayout": {
    "storage": [],
    "types": {}
  },
  "id": 53
}