{
  "abi": [
    {
      "constant": true,
      "inputs": [],
      "name": "hasInitialized",
      "outputs": [
        {
          "name": "",
          "type": "bool"
        }
      ],
      "payable": false,
      "stateMutability": "view",
      "type": "function"
    },
    {
      "constant": true,
      "inputs": [
        {
          "name": "_script",
          "type": "bytes"
        }
      ],
      "name": "getEVMScriptExecutor",
      "outputs": [
        {
          "name": "",
          "type": "address"
        }
      ],
      "payable": false,
      "stateMutability": "view",
      "type": "function"
    },
    {
      "constant": true,
      "inputs": [],
      "name": "getRecoveryVault",
      "outputs": [
        {
          "name": "",
          "type": "address"
        }
      ],
      "payable": false,
      "stateMutability": "view",
      "type": "function"
    },
    {
      "constant": true,
      "inputs": [
        {
          "name": "token",
          "type": "address"
        }
      ],
      "name": "allowRecoverability",
      "outputs": [
        {
          "name": "",
          "type": "bool"
        }
      ],
      "payable": false,
      "stateMutability": "view",
      "type": "function"
    },
    {
      "constant": true,
      "inputs": [],
      "name": "appId",
      "outputs": [
        {
          "name": "",
          "type": "bytes32"
        }
      ],
      "payable": false,
      "stateMutability": "view",
      "type": "function"
    },
    {
      "constant": true,
      "inputs": [],
      "name": "getInitializationBlock",
      "outputs": [
        {
          "name": "",
          "type": "uint256"
        }
      ],
      "payable": false,
      "stateMutability": "view",
      "type": "function"
    },
    {
      "constant": false,
      "inputs": [
        {
          "name": "_token",
          "type": "address"
        }
      ],
      "name": "transferToVault",
      "outputs": [],
      "payable": false,
      "stateMutability": "nonpayable",
      "type": "function"
    },
    {
      "constant": true,
      "inputs": [
        {
          "name": "_sender",
          "type": "address"
        },
        {
          "name": "_role",
          "type": "bytes32"
        },
        {
          "name": "_params",
          "type": "uint256[]"
        }
      ],
      "name": "canPerform",
      "outputs": [
        {
          "name": "",
          "type": "bool"
        }
      ],
      "payable": false,
      "stateMutability": "view",
      "type": "function"
    },
    {
      "constant": true,
      "inputs": [],
      "name": "getEVMScriptRegistry",
      "outputs": [
        {
          "name": "",
          "type": "address"
        }
      ],
      "payable": false,
      "stateMutability": "view",
      "type": "function"
    },
    {
      "constant": true,
      "inputs": [],
      "name": "kernel",
      "outputs": [
        {
          "name": "",
          "type": "address"
        }
      ],
      "payable": false,
      "stateMutability": "view",
      "type": "function"
    },
    {
      "constant": true,
      "inputs": [],
      "name": "isPetrified",
      "outputs": [
        {
          "name": "",
          "type": "bool"
        }
      ],
      "payable": false,
      "stateMutability": "view",
      "type": "function"
    },
    {
      "anonymous": false,
      "inputs": [
        {
          "indexed": true,
          "name": "executor",
          "type": "address"
        },
        {
          "indexed": false,
          "name": "script",
          "type": "bytes"
        },
        {
          "indexed": false,
          "name": "input",
          "type": "bytes"
        },
        {
          "indexed": false,
          "name": "returnData",
          "type": "bytes"
        }
      ],
      "name": "ScriptResult",
      "type": "event"
    },
    {
      "anonymous": false,
      "inputs": [
        {
          "indexed": true,
          "name": "vault",
          "type": "address"
        },
        {
          "indexed": true,
          "name": "token",
          "type": "address"
        },
        {
          "indexed": false,
          "name": "amount",
          "type": "uint256"
        }
      ],
      "name": "RecoverToVault",
      "type": "event"
    }
  ],
  "bytecode": {
    "object": "0x6080604052620000146200001a60201b60201c565b62000231565b6200002a6200011c60201b60201c565b60408051808201909152601881527f494e49545f414c52454144595f494e495449414c495a454400000000000000006020820152901562000106576040517f08c379a00000000000000000000000000000000000000000000000000000000081526004018080602001828103825283818151815260200191508051906020019080838360005b83811015620000ca578181015183820152602001620000b0565b50505050905090810190601f168015620000f85780820380516001836020036101000a031916815260200191505b509250505060405180910390fd5b506200011a6000196200014f60201b60201c565b565b60006200014a60008051602062000e3083398151915260001b600019166200022960201b620009611760201c565b905090565b6200015f6200011c60201b60201c565b60408051808201909152601881527f494e49545f414c52454144595f494e495449414c495a4544000000000000000060208201529015620001fe576040517f08c379a000000000000000000000000000000000000000000000000000000000815260040180806020018281038252838181518152602001915080519060200190808383600083811015620000ca578181015183820152602001620000b0565b506200022660008051602062000e30833981519152826200022d602090811b62000bbf17901c565b50565b5490565b9055565b610bef80620002416000396000f3006080604052600436106100925760003560e01c63ffffffff1680630803fac0146100975780632914b9bd146100c057806332f0a3b5146101355780637e7db6e11461014a57806380afdea81461016b5780638b3dd749146101925780639d4941d8146101a7578063a1658fad146101ca578063a479e50814610231578063d4aae0c414610246578063de4796ed1461025b575b600080fd5b3480156100a357600080fd5b506100ac610270565b604080519115158252519081900360200190f35b3480156100cc57600080fd5b506040805160206004803580820135601f81018490048402850184019095528484526101199436949293602493928401919081908401838280828437509497506102999650505050505050565b60408051600160a060020a039092168252519081900360200190f35b34801561014157600080fd5b5061011961037c565b34801561015657600080fd5b506100ac600160a060020a03600435166103f1565b34801561017757600080fd5b506101806103f7565b60408051918252519081900360200190f35b34801561019e57600080fd5b50610180610427565b3480156101b357600080fd5b506101c8600160a060020a0360043516610452565b005b3480156101d657600080fd5b5060408051602060046044358181013583810280860185019096528085526100ac958335600160a060020a031695602480359636969560649593949201929182918501908490808284375094975061071d9650505050505050565b34801561023d57600080fd5b5061011961086a565b34801561025257600080fd5b5061011961091f565b34801561026757600080fd5b506100ac61094a565b60008061027b610427565b9050801580159061029357508061029061095d565b10155b91505090565b60006102a361086a565b600160a060020a03166304bf2a7f836040518263ffffffff1660e01b81526004018080602001828103825283818151815260200191508051906020019080838360005b838110156102fe5781810151838201526020016102e6565b50505050905090810190601f16801561032b5780820380516001836020036101000a031916815260200191505b5092505050602060405180830381600087803b15801561034a57600080fd5b505af115801561035e573d6000803e3d6000fd5b505050506040513d602081101561037457600080fd5b505192915050565b600061038661091f565b600160a060020a03166332f0a3b56040518163ffffffff1660e01b8152600401602060405180830381600087803b1580156103c057600080fd5b505af11580156103d4573d6000803e3d6000fd5b505050506040513d60208110156103ea57600080fd5b5051905090565b50600190565b60006104227fd625496217aa6a3453eecb9c3489dc5a53e6c67b444329ea2b2cbc9ff547639b610961565b905090565b60006104227febb05b386a8d34882b8711d156f463690983dc47815980fb82aeeff1aa43579e610961565b6000806000610460846103f1565b60408051808201909152601281527f5245434f5645525f444953414c4c4f574544000000000000000000000000000060208201529015156105225760405160e560020a62461bcd0281526004018080602001828103825283818151815260200191508051906020019080838360005b838110156104e75781810151838201526020016104cf565b50505050905090810190601f1680156105145780820380516001836020036101000a031916815260200191505b509250505060405180910390fd5b5061052b61037c565b925061053683610969565b60408051808201909152601a81527f5245434f5645525f5641554c545f4e4f545f434f4e545241435400000000000060208201529015156105bc5760405160e560020a62461bcd028152600401808060200182810382528381815181526020019150805190602001908083836000838110156104e75781810151838201526020016104cf565b50600160a060020a038416151561060d5760405130319250600160a060020a0384169083156108fc029084906000818181858888f19350505050158015610607573d6000803e3d6000fd5b506106cc565b5082610628600160a060020a0382163063ffffffff61099616565b9150610644600160a060020a038216848463ffffffff610aab16565b60408051808201909152601d81527f5245434f5645525f544f4b454e5f5452414e534645525f4641494c454400000060208201529015156106ca5760405160e560020a62461bcd028152600401808060200182810382528381815181526020019150805190602001908083836000838110156104e75781810151838201526020016104cf565b505b83600160a060020a031683600160a060020a03167f596caf56044b55fb8c4ca640089bbc2b63cae3e978b851f5745cbb7c5b288e02846040518082815260200191505060405180910390a350505050565b600080610728610270565b15156107375760009150610862565b61073f61091f565b9050600160a060020a038116151561075a5760009150610862565b80600160a060020a031663fdef910686308761077588610b36565b60405163ffffffff861660e01b8152600160a060020a03808616600483019081529085166024830152604482018490526080606483019081528351608484015283519192909160a490910190602085019080838360005b838110156107e45781810151838201526020016107cc565b50505050905090810190601f1680156108115780820380516001836020036101000a031916815260200191505b5095505050505050602060405180830381600087803b15801561083357600080fd5b505af1158015610847573d6000803e3d6000fd5b505050506040513d602081101561085d57600080fd5b505191505b509392505050565b60008061087561091f565b604080517fbe00bbd80000000000000000000000000000000000000000000000000000000081527fd6f028ca0e8edb4a8c9757ca4fdccab25fa1e0317da1188108f7d2dee14902fb60048201527fddbcfd564f642ab5627cf68b9b7d374fb4f8a36e941a75d89c87998cef03bd6160248201529051600160a060020a03929092169163be00bbd8916044808201926020929091908290030181600087803b15801561034a57600080fd5b60006104227f4172f0f7d2289153072b0a6ca36959e0cbe2efc3afe50fc81636caa96338137b610961565b6000600019610957610427565b14905090565b4390565b5490565b5490565b600080600160a060020a03831615156109855760009150610990565b823b90506000811191505b50919050565b60408051600160a060020a0383166024808301919091528251808303909101815260449091019091526020810180517bffffffffffffffffffffffffffffffffffffffffffffffffffffffff167f70a08231000000000000000000000000000000000000000000000000000000001790526000908180610a168684610b40565b60408051808201909152601c81527f534146455f4552435f32305f42414c414e43455f52455645525445440000000060208201529193509150821515610aa15760405160e560020a62461bcd028152600401808060200182810382528381815181526020019150805190602001908083836000838110156104e75781810151838201526020016104cf565b5095945050505050565b60408051600160a060020a038416602482015260448082018490528251808303909101815260649091019091526020810180517bffffffffffffffffffffffffffffffffffffffffffffffffffffffff167fa9059cbb00000000000000000000000000000000000000000000000000000000179052600090610b2d8582610b71565b95945050505050565b8051602002815290565b6000806000806040516020818751602089018a5afa92506000831115610b6557805191505b50909590945092505050565b6000806040516020818551602087016000895af16000811115610bb5573d8015610ba25760208114610bab57610bb3565b60019350610bb3565b600183511493505b505b5090949350505050565b90555600a165627a7a72305820d324ef397f01d0c3b88967bc9a1570e51f8af9bb991abf4ad7682ad0b39ec8b60029ebb05b386a8d34882b8711d156f463690983dc47815980fb82aeeff1aa43579e",
    "linkReferences": {}
  },
  "methodIdentifiers": {
    "allowRecoverability(address)": "7e7db6e1",
    "appId()": "80afdea8",
    "canPerform(address,bytes32,uint256[])": "a1658fad",
    "getEVMScriptExecutor(bytes)": "2914b9bd",
    "getEVMScriptRegistry()": "a479e508",
    "getInitializationBlock()": "8b3dd749",
    "getRecoveryVault()": "32f0a3b5",
    "hasInitialized()": "0803fac0",
    "isPetrified()": "de4796ed",
    "kernel()": "d4aae0c4",
    "transferToVault(address)": "9d4941d8"
  },
  "storageLayout": {
    "storage": [],
    "types": {}
  },
  "id": 58
}