{
  "abi": [
    {
      "constant": false,
      "inputs": [
        {
          "name": "_postTotalPooledEther",
          "type": "uint256"
        },
        {
          "name": "_preTotalPooledEther",
          "type": "uint256"
        },
        {
          "name": "_timeElapsed",
          "type": "uint256"
        }
      ],
      "name": "processLidoOracleReport",
      "outputs": [],
      "payable": false,
      "stateMutability": "nonpayable",
      "type": "function"
    }
  ],
  "bytecode": {
    "object": "0x6080604052348015600f57600080fd5b5060758061001e6000396000f30060806040526004361060225760003560e01c63ffffffff16806334212e5f146027575b600080fd5b348015603257600080fd5b5060426004356024356044356044565b005b5050505600a165627a7a723058204ff18440a9fa1e7b4cdf0136057639f43f06cf24d9f22aaa24943fee61cb974f0029",
    "linkReferences": {}
  },
  "methodIdentifiers": {
    "processLidoOracleReport(uint256,uint256,uint256)": "34212e5f"
  },
  "storageLayout": {
    "storage": [],
    "types": {}
  },
  "id": 23
}