{
  "abi": [
    {
      "constant": true,
      "inputs": [
        {
          "name": "interfaceId",
          "type": "bytes4"
        }
      ],
      "name": "supportsInterface",
      "outputs": [
        {
          "name": "",
          "type": "bool"
        }
      ],
      "payable": false,
      "stateMutability": "view",
      "type": "function"
    },
    {
      "constant": false,
      "inputs": [
        {
          "name": "_postTotalPooledEther",
          "type": "uint256"
        },
        {
          "name": "_preTotalPooledEther",
          "type": "uint256"
        },
        {
          "name": "_timeElapsed",
          "type": "uint256"
        }
      ],
      "name": "processLidoOracleReport",
      "outputs": [],
      "payable": false,
      "stateMutability": "nonpayable",
      "type": "function"
    },
    {
      "constant": true,
      "inputs": [],
      "name": "preTotalPooledEther",
      "outputs": [
        {
          "name": "",
          "type": "uint256"
        }
      ],
      "payable": false,
      "stateMutability": "view",
      "type": "function"
    },
    {
      "constant": true,
      "inputs": [],
      "name": "gas",
      "outputs": [
        {
          "name": "",
          "type": "uint256"
        }
      ],
      "payable": false,
      "stateMutability": "view",
      "type": "function"
    },
    {
      "constant": true,
      "inputs": [],
      "name": "postTotalPooledEther",
      "outputs": [
        {
          "name": "",
          "type": "uint256"
        }
      ],
      "payable": false,
      "stateMutability": "view",
      "type": "function"
    },
    {
      "constant": true,
      "inputs": [],
      "name": "timeElapsed",
      "outputs": [
        {
          "name": "",
          "type": "uint256"
        }
      ],
      "payable": false,
      "stateMutability": "view",
      "type": "function"
    },
    {
      "inputs": [],
      "payable": false,
      "stateMutability": "nonpayable",
      "type": "constructor"
    }
  ],
  "bytecode": {
    "object": "0x608060405234801561001057600080fd5b5060006100296301ffc9a760e01b61005f60201b60201c565b6100597f34212e5f0000000000000000000000000000000000000000000000000000000061005f602090811b901c565b506100cb565b7fffffffff00000000000000000000000000000000000000000000000000000000808216141561008e57600080fd5b7fffffffff00000000000000000000000000000000000000000000000000000000166000908152602081905260409020805460ff19166001179055565b6101bb806100da6000396000f30060806040526004361061005b5760003560e01c63ffffffff16806301ffc9a71461006057806334212e5f146100ab57806352703c25146100cb5780636ca7c216146100f2578063976538dc14610107578063dc2cf3f51461011c575b600080fd5b34801561006c57600080fd5b506100977bffffffffffffffffffffffffffffffffffffffffffffffffffffffff1960043516610131565b604080519115158252519081900360200190f35b3480156100b757600080fd5b506100c9600435602435604435610165565b005b3480156100d757600080fd5b506100e0610177565b60408051918252519081900360200190f35b3480156100fe57600080fd5b506100e061017d565b34801561011357600080fd5b506100e0610183565b34801561012857600080fd5b506100e0610189565b7bffffffffffffffffffffffffffffffffffffffffffffffffffffffff191660009081526020819052604090205460ff1690565b5a600455600192909255600255600355565b60025481565b60045481565b60015481565b600354815600a165627a7a72305820d1fa38d33e9e285d8bf618bb3d9417bec147b30d19b4e0283a4d9475a03e1fb80029",
    "linkReferences": {}
  },
  "methodIdentifiers": {
    "gas()": "6ca7c216",
    "postTotalPooledEther()": "976538dc",
    "preTotalPooledEther()": "52703c25",
    "processLidoOracleReport(uint256,uint256,uint256)": "34212e5f",
    "supportsInterface(bytes4)": "01ffc9a7",
    "timeElapsed()": "dc2cf3f5"
  },
  "storageLayout": {
    "storage": [],
    "types": {}
  },
  "id": 23
}