{
  "abi": [
    {
      "constant": true,
      "inputs": [],
      "name": "registryBase",
      "outputs": [
        {
          "name": "",
          "type": "address"
        }
      ],
      "payable": false,
      "stateMutability": "view",
      "type": "function"
    },
    {
      "constant": true,
      "inputs": [],
      "name": "ensSubdomainRegistrarBase",
      "outputs": [
        {
          "name": "",
          "type": "address"
        }
      ],
      "payable": false,
      "stateMutability": "view",
      "type": "function"
    },
    {
      "constant": true,
      "inputs": [],
      "name": "ens",
      "outputs": [
        {
          "name": "",
          "type": "address"
        }
      ],
      "payable": false,
      "stateMutability": "view",
      "type": "function"
    },
    {
      "constant": true,
      "inputs": [],
      "name": "daoFactory",
      "outputs": [
        {
          "name": "",
          "type": "address"
        }
      ],
      "payable": false,
      "stateMutability": "view",
      "type": "function"
    },
    {
      "constant": false,
      "inputs": [
        {
          "name": "_tld",
          "type": "bytes32"
        },
        {
          "name": "_label",
          "type": "bytes32"
        },
        {
          "name": "_root",
          "type": "address"
        }
      ],
      "name": "newAPM",
      "outputs": [
        {
          "name": "",
          "type": "address"
        }
      ],
      "payable": false,
      "stateMutability": "nonpayable",
      "type": "function"
    },
    {
      "constant": true,
      "inputs": [],
      "name": "repoBase",
      "outputs": [
        {
          "name": "",
          "type": "address"
        }
      ],
      "payable": false,
      "stateMutability": "view",
      "type": "function"
    },
    {
      "inputs": [
        {
          "name": "_daoFactory",
          "type": "address"
        },
        {
          "name": "_registryBase",
          "type": "address"
        },
        {
          "name": "_repoBase",
          "type": "address"
        },
        {
          "name": "_ensSubBase",
          "type": "address"
        },
        {
          "name": "_ens",
          "type": "address"
        },
        {
          "name": "_ensFactory",
          "type": "address"
        }
      ],
      "payable": false,
      "stateMutability": "nonpayable",
      "type": "constructor"
    },
    {
      "anonymous": false,
      "inputs": [
        {
          "indexed": true,
          "name": "node",
          "type": "bytes32"
        },
        {
          "indexed": false,
          "name": "apm",
          "type": "address"
        }
      ],
      "name": "DeployAPM",
      "type": "event"
    }
  ],
  "bytecode": {
    "object": "0x608060405234801561001057600080fd5b5060405160c080611fab83398101604090815281516020830151918301516060840151608085015160a09095015160008054600160a060020a0319908116600160a060020a038088169190911790925560018054821683891617905560028054821683871617905560038054909116828516179055939592939192918216151561012657604080517fe9358b010000000000000000000000000000000000000000000000000000000081523060048201529051600160a060020a0383169163e9358b019160248083019260209291908290030181600087803b1580156100f557600080fd5b505af1158015610109573d6000803e3d6000fd5b505050506040513d602081101561011f57600080fd5b5051610128565b815b60048054600160a060020a0392909216600160a060020a0319909216919091179055505050505050611e4c8061015f6000396000f30060806040526004361061005b5760003560e01c63ffffffff16806339ca6e86146100605780633cfb35aa146100915780633f15457f146100a657806348f7f2a3146100bb578063aac57b3a146100d0578063caf1bb7c146100f7575b600080fd5b34801561006c57600080fd5b5061007561010c565b60408051600160a060020a039092168252519081900360200190f35b34801561009d57600080fd5b5061007561011b565b3480156100b257600080fd5b5061007561012a565b3480156100c757600080fd5b50610075610139565b3480156100dc57600080fd5b50610075600435602435600160a060020a0360443516610148565b34801561010357600080fd5b50610075611c2a565b600154600160a060020a031681565b600354600160a060020a031681565b600454600160a060020a031681565b600054600160a060020a031681565b600080600080606060008060008061015e611e01565b8c8c6040516020018083600019166000191681526020018260001916600019168152602001925050506040516020818303038152906040526040518082805190602001908083835b602083106101c55780518252601f1990920191602091820191016101a6565b51815160209384036101000a600019018019909216911617905260408051929094018290038220600480547f02571be30000000000000000000000000000000000000000000000000000000085529084018290529451909f50309650600160a060020a0390941694506302571be3936024808401945091929091908290030181600087803b15801561025657600080fd5b505af115801561026a573d6000803e3d6000fd5b505050506040513d602081101561028057600080fd5b5051600160a060020a0316146103e25730600160a060020a0316600460009054906101000a9004600160a060020a0316600160a060020a03166302571be38f6040518263ffffffff1660e01b8152600401808260001916600019168152602001915050602060405180830381600087803b1580156102fd57600080fd5b505af1158015610311573d6000803e3d6000fd5b505050506040513d602081101561032757600080fd5b5051600160a060020a03161461033c57600080fd5b600460009054906101000a9004600160a060020a0316600160a060020a03166306ab59238e8e306040518463ffffffff1660e01b8152600401808460001916600019168152602001836000191660001916815260200182600160a060020a0316600160a060020a031681526020019350505050600060405180830381600087803b1580156103c957600080fd5b505af11580156103dd573d6000803e3d6000fd5b505050505b60008054604080517f216874440000000000000000000000000000000000000000000000000000000081523060048201529051600160a060020a03909216926321687444926024808401936020939083900390910190829087803b15801561044957600080fd5b505af115801561045d573d6000803e3d6000fd5b505050506040513d602081101561047357600080fd5b5051604080517fde2873590000000000000000000000000000000000000000000000000000000081529051919950600160a060020a038a169163de287359916004808201926020929091908290030181600087803b1580156104d457600080fd5b505af11580156104e8573d6000803e3d6000fd5b505050506040513d60208110156104fe57600080fd5b5051604080517f8ea8dc9d0000000000000000000000000000000000000000000000000000000081529051919850600160a060020a03808a169263be0384789230928d9290831691638ea8dc9d9160048083019260209291908290030181600087803b15801561056d57600080fd5b505af1158015610581573d6000803e3d6000fd5b505050506040513d602081101561059757600080fd5b50516040805163ffffffff861660e01b8152600160a060020a03948516600482015292909316602483015260448201523060648201529051608480830192600092919082900301818387803b1580156105ef57600080fd5b505af1158015610603573d6000803e3d6000fd5b50506040805160008152606081018252600a60208083018281527f61706d2d656e73737562000000000000000000000000000000000000000000008486019081529451939c50600160a060020a038f16965063397edd4195508f949093909101918291908083835b6020831061068a5780518252601f19909201916020918201910161066b565b6001836020036101000a0380198251168184511680821785525050505050509050019150506040516020818303038152906040526040518082805190602001908083835b602083106106ed5780518252601f1990920191602091820191016106ce565b51815160209384036101000a6000190180199092169116179052604080519290940182900382208282019790975281840196909652825180820384018152606090910192839052805190959294508493509185019190508083835b602083106107675780518252601f199092019160209182019101610748565b6001836020036101000a0380198251168184511680821785525050505050509050019150506040518091039020600360009054906101000a9004600160a060020a03168960006040518563ffffffff1660e01b815260040180856000191660001916815260200184600160a060020a0316600160a060020a031681526020018060200183151515158152602001828103825284818151815260200191508051906020019080838360005b83811015610829578181015183820152602001610811565b50505050905090810190601f1680156108565780820380516001836020036101000a031916815260200191505b5095505050505050602060405180830381600087803b15801561087857600080fd5b505af115801561088c573d6000803e3d6000fd5b505050506040513d60208110156108a257600080fd5b5051604080518082018252600c8082527f61706d2d7265676973747279000000000000000000000000000000000000000060208381019182529351949950600160a060020a038d169463397edd41948f949391019182918083835b6020831061091c5780518252601f1990920191602091820191016108fd565b6001836020036101000a0380198251168184511680821785525050505050509050019150506040516020818303038152906040526040518082805190602001908083835b6020831061097f5780518252601f199092019160209182019101610960565b51815160209384036101000a6000190180199092169116179052604080519290940182900382208282019790975281840196909652825180820384018152606090910192839052805190959294508493509185019190508083835b602083106109f95780518252601f1990920191602091820191016109da565b6001836020036101000a0380198251168184511680821785525050505050509050019150506040518091039020600160009054906101000a9004600160a060020a03168960006040518563ffffffff1660e01b815260040180856000191660001916815260200184600160a060020a0316600160a060020a031681526020018060200183151515158152602001828103825284818151815260200191508051906020019080838360005b83811015610abb578181015183820152602001610aa3565b50505050905090810190601f168015610ae85780820380516001836020036101000a031916815260200191505b5095505050505050602060405180830381600087803b158015610b0a57600080fd5b505af1158015610b1e573d6000803e3d6000fd5b505050506040513d6020811015610b3457600080fd5b505160408051808201825260088082527f61706d2d7265706f000000000000000000000000000000000000000000000000602083810191825293519498508d949293929092019182918083835b60208310610ba05780518252601f199092019160209182019101610b81565b6001836020036101000a0380198251168184511680821785525050505050509050019150506040516020818303038152906040526040518082805190602001908083835b60208310610c035780518252601f199092019160209182019101610be4565b51815160209384036101000a6000190180199092169116179052604080519290940182900382208282019790975281840196909652825180820384018152606090910192839052805190959294508493509185019190508083835b60208310610c7d5780518252601f199092019160209182019101610c5e565b51815160209384036101000a6000190180199092169116179052604080519290940182900382207fdb8a61d40000000000000000000000000000000000000000000000000000000083529351939850600160a060020a038e16955063ae5b25409450859363db8a61d493506004808401938290030181600087803b158015610d0457600080fd5b505af1158015610d18573d6000803e3d6000fd5b505050506040513d6020811015610d2e57600080fd5b50516002546040805163ffffffff851660e01b8152600481019390935260248301889052600160a060020a03909116604483015251606480830192600092919082900301818387803b158015610d8357600080fd5b505af1158015610d97573d6000803e3d6000fd5b505060408051600160a060020a038816815290518c93507f5dd941cb8701bb50205e5aef88c8532b8d6e75b7b65e2c458e9acdf261f0f29292509081900360200190a286600160a060020a031663be038478858788600160a060020a031663fef47e386040518163ffffffff1660e01b8152600401602060405180830381600087803b158015610e2657600080fd5b505af1158015610e3a573d6000803e3d6000fd5b505050506040513d6020811015610e5057600080fd5b50516040805163ffffffff861660e01b8152600160a060020a03948516600482015292841660248401526044830191909152918f1660648201529051608480830192600092919082900301818387803b158015610eac57600080fd5b505af1158015610ec0573d6000803e3d6000fd5b5050505086600160a060020a031663be038478858788600160a060020a031663307482cf6040518163ffffffff1660e01b8152600401602060405180830381600087803b158015610f1057600080fd5b505af1158015610f24573d6000803e3d6000fd5b505050506040513d6020811015610f3a57600080fd5b50516040805163ffffffff861660e01b8152600160a060020a03948516600482015292841660248401526044830191909152918f1660648201529051608480830192600092919082900301818387803b158015610f9657600080fd5b505af1158015610faa573d6000803e3d6000fd5b5050505086600160a060020a0316633d6ab68f6040518163ffffffff1660e01b8152600401602060405180830381600087803b158015610fe957600080fd5b505af1158015610ffd573d6000803e3d6000fd5b505050506040513d602081101561101357600080fd5b5051604080517f0a8ed3db000000000000000000000000000000000000000000000000000000008152600160a060020a0387811660048301528a16602482018190526044820184905291519294509091630a8ed3db9160648082019260009290919082900301818387803b15801561108a57600080fd5b505af115801561109e573d6000803e3d6000fd5b505060048054604080517f5b0fc9c30000000000000000000000000000000000000000000000000000000081529283018e9052600160a060020a038a81166024850152905191169350635b0fc9c39250604480830192600092919082900301818387803b15801561110e57600080fd5b505af1158015611122573d6000803e3d6000fd5b505060048054604080517fbe13f47c000000000000000000000000000000000000000000000000000000008152600160a060020a0392831693810193909352602483018e905251908916935063be13f47c9250604480830192600092919082900301818387803b15801561119557600080fd5b505af11580156111a9573d6000803e3d6000fd5b5050505083600160a060020a031663c4d66de8866040518263ffffffff1660e01b81526004018082600160a060020a0316600160a060020a03168152602001915050600060405180830381600087803b15801561120557600080fd5b505af1158015611219573d6000803e3d6000fd5b5050600183525050604080517f5e1f3fa80000000000000000000000000000000000000000000000000000000081529051600160a060020a03808a169263be038478923092899290831691635e1f3fa8916004808201926020929091908290030181600087803b15801561128c57600080fd5b505af11580156112a0573d6000803e3d6000fd5b505050506040513d60208110156112b657600080fd5b50516040805163ffffffff861660e01b8152600160a060020a03948516600482015292909316602483015260448201523060648201529051608480830192600092919082900301818387803b15801561130e57600080fd5b505af1158015611322573d6000803e3d6000fd5b5050505083600160a060020a03166332ab6af06040805190810160405280600c81526020017f61706d2d726567697374727900000000000000000000000000000000000000008152508d84600160009054906101000a9004600160a060020a03166113c16040805190810160405280600881526020017f697066733a61706d000000000000000000000000000000000000000000000000815250611c39565b60405163ffffffff871660e01b8152600160a060020a03851660248201526004810190819060440185606080838360005b8381101561140a5781810151838201526020016113f2565b5050505090500184600160a060020a0316600160a060020a0316815260200180602001838103835288818151815260200191508051906020019080838360005b8381101561146257818101518382015260200161144a565b50505050905090810190601f16801561148f5780820380516001836020036101000a031916815260200191505b50838103825284518152845160209182019186019080838360005b838110156114c25781810151838201526020016114aa565b50505050905090810190601f1680156114ef5780820380516001836020036101000a031916815260200191505b50975050505050505050602060405180830381600087803b15801561151357600080fd5b505af1158015611527573d6000803e3d6000fd5b505050506040513d602081101561153d57600080fd5b81019080805190602001909291905050505083600160a060020a03166332ab6af06040805190810160405280600a81526020017f61706d2d656e73737562000000000000000000000000000000000000000000008152508d84600360009054906101000a9004600160a060020a03166115ea6040805190810160405280600b81526020017f697066733a656e73737562000000000000000000000000000000000000000000815250611c39565b60405163ffffffff871660e01b8152600160a060020a03851660248201526004810190819060440185606080838360005b8381101561163357818101518382015260200161161b565b5050505090500184600160a060020a0316600160a060020a0316815260200180602001838103835288818151815260200191508051906020019080838360005b8381101561168b578181015183820152602001611673565b50505050905090810190601f1680156116b85780820380516001836020036101000a031916815260200191505b50838103825284518152845160209182019186019080838360005b838110156116eb5781810151838201526020016116d3565b50505050905090810190601f1680156117185780820380516001836020036101000a031916815260200191505b50975050505050505050602060405180830381600087803b15801561173c57600080fd5b505af1158015611750573d6000803e3d6000fd5b505050506040513d602081101561176657600080fd5b81019080805190602001909291905050505083600160a060020a03166332ab6af06040805190810160405280600881526020017f61706d2d7265706f0000000000000000000000000000000000000000000000008152508d84600260009054906101000a9004600160a060020a03166118136040805190810160405280600981526020017f697066733a7265706f0000000000000000000000000000000000000000000000815250611c39565b60405163ffffffff871660e01b8152600160a060020a03851660248201526004810190819060440185606080838360005b8381101561185c578181015183820152602001611844565b5050505090500184600160a060020a0316600160a060020a0316815260200180602001838103835288818151815260200191508051906020019080838360005b838110156118b457818101518382015260200161189c565b50505050905090810190601f1680156118e15780820380516001836020036101000a031916815260200191505b50838103825284518152845160209182019186019080838360005b838110156119145781810151838201526020016118fc565b50505050905090810190601f1680156119415780820380516001836020036101000a031916815260200191505b50975050505050505050602060405180830381600087803b15801561196557600080fd5b505af1158015611979573d6000803e3d6000fd5b505050506040513d602081101561198f57600080fd5b5061199d905087858d611c3c565b86600160a060020a031663afd925df8c8a8b600160a060020a0316638ea8dc9d6040518163ffffffff1660e01b8152600401602060405180830381600087803b1580156119e957600080fd5b505af11580156119fd573d6000803e3d6000fd5b505050506040513d6020811015611a1357600080fd5b50516040805163ffffffff861660e01b8152600160a060020a03948516600482015292909316602483015260448201529051606480830192600092919082900301818387803b158015611a6557600080fd5b505af1158015611a79573d6000803e3d6000fd5b5050604080517f9d0effdb000000000000000000000000000000000000000000000000000000008152306004820152600160a060020a038b1660248201819052604482018790529151919350639d0effdb925060648082019260009290919082900301818387803b158015611aed57600080fd5b505af1158015611b01573d6000803e3d6000fd5b5050604080517f0a8ed3db000000000000000000000000000000000000000000000000000000008152600160a060020a038f811660048301528b1660248201819052604482018790529151919350630a8ed3db925060648082019260009290919082900301818387803b158015611b7757600080fd5b505af1158015611b8b573d6000803e3d6000fd5b5050604080517fafd925df000000000000000000000000000000000000000000000000000000008152600160a060020a038f811660048301528b166024820181905260448201879052915191935063afd925df925060648082019260009290919082900301818387803b158015611c0157600080fd5b505af1158015611c15573d6000803e3d6000fd5b50959f9e505050505050505050505050505050565b600254600160a060020a031681565b90565b82600160a060020a0316630a8ed3db828485600160a060020a0316635e1f3fa86040518163ffffffff1660e01b8152600401602060405180830381600087803b158015611c8857600080fd5b505af1158015611c9c573d6000803e3d6000fd5b505050506040513d6020811015611cb257600080fd5b50516040805163ffffffff861660e01b8152600160a060020a03948516600482015292909316602483015260448201529051606480830192600092919082900301818387803b158015611d0457600080fd5b505af1158015611d18573d6000803e3d6000fd5b5050505082600160a060020a031663afd925df828485600160a060020a0316635e1f3fa86040518163ffffffff1660e01b8152600401602060405180830381600087803b158015611d6857600080fd5b505af1158015611d7c573d6000803e3d6000fd5b505050506040513d6020811015611d9257600080fd5b50516040805163ffffffff861660e01b8152600160a060020a03948516600482015292909316602483015260448201529051606480830192600092919082900301818387803b158015611de457600080fd5b505af1158015611df8573d6000803e3d6000fd5b50505050505050565b60606040519081016040528060039060208202803883395091929150505600a165627a7a723058203b4abcbe5feb8b67a0416fc3527bffb6d6f139d404204ee3d671b4b13b41b1850029",
    "linkReferences": {}
  },
  "methodIdentifiers": {
    "daoFactory()": "48f7f2a3",
    "ens()": "3f15457f",
    "ensSubdomainRegistrarBase()": "3cfb35aa",
    "newAPM(bytes32,bytes32,address)": "aac57b3a",
    "registryBase()": "39ca6e86",
    "repoBase()": "caf1bb7c"
  },
  "storageLayout": {
    "storage": [],
    "types": {}
  },
  "id": 86
}