{
  "abi": [
    {
      "constant": true,
      "inputs": [],
      "name": "hasInitialized",
      "outputs": [
        {
          "name": "",
          "type": "bool"
        }
      ],
      "payable": false,
      "stateMutability": "view",
      "type": "function"
    },
    {
      "constant": true,
      "inputs": [
        {
          "name": "_script",
          "type": "bytes"
        }
      ],
      "name": "getEVMScriptExecutor",
      "outputs": [
        {
          "name": "",
          "type": "address"
        }
      ],
      "payable": false,
      "stateMutability": "view",
      "type": "function"
    },
    {
      "constant": true,
      "inputs": [],
      "name": "registrar",
      "outputs": [
        {
          "name": "",
          "type": "address"
        }
      ],
      "payable": false,
      "stateMutability": "view",
      "type": "function"
    },
    {
      "constant": false,
      "inputs": [
        {
          "name": "_name",
          "type": "string"
        },
        {
          "name": "_dev",
          "type": "address"
        },
        {
          "name": "_initialSemanticVersion",
          "type": "uint16[3]"
        },
        {
          "name": "_contractAddress",
          "type": "address"
        },
        {
          "name": "_contentURI",
          "type": "bytes"
        }
      ],
      "name": "newRepoWithVersion",
      "outputs": [
        {
          "name": "",
          "type": "address"
        }
      ],
      "payable": false,
      "stateMutability": "nonpayable",
      "type": "function"
    },
    {
      "constant": true,
      "inputs": [],
      "name": "getRecoveryVault",
      "outputs": [
        {
          "name": "",
          "type": "address"
        }
      ],
      "payable": false,
      "stateMutability": "view",
      "type": "function"
    },
    {
      "constant": true,
      "inputs": [],
      "name": "ens",
      "outputs": [
        {
          "name": "",
          "type": "address"
        }
      ],
      "payable": false,
      "stateMutability": "view",
      "type": "function"
    },
    {
      "constant": true,
      "inputs": [],
      "name": "CREATE_REPO_ROLE",
      "outputs": [
        {
          "name": "",
          "type": "bytes32"
        }
      ],
      "payable": false,
      "stateMutability": "view",
      "type": "function"
    },
    {
      "constant": true,
      "inputs": [
        {
          "name": "token",
          "type": "address"
        }
      ],
      "name": "allowRecoverability",
      "outputs": [
        {
          "name": "",
          "type": "bool"
        }
      ],
      "payable": false,
      "stateMutability": "view",
      "type": "function"
    },
    {
      "constant": true,
      "inputs": [],
      "name": "appId",
      "outputs": [
        {
          "name": "",
          "type": "bytes32"
        }
      ],
      "payable": false,
      "stateMutability": "view",
      "type": "function"
    },
    {
      "constant": true,
      "inputs": [],
      "name": "getInitializationBlock",
      "outputs": [
        {
          "name": "",
          "type": "uint256"
        }
      ],
      "payable": false,
      "stateMutability": "view",
      "type": "function"
    },
    {
      "constant": false,
      "inputs": [
        {
          "name": "_token",
          "type": "address"
        }
      ],
      "name": "transferToVault",
      "outputs": [],
      "payable": false,
      "stateMutability": "nonpayable",
      "type": "function"
    },
    {
      "constant": true,
      "inputs": [
        {
          "name": "_sender",
          "type": "address"
        },
        {
          "name": "_role",
          "type": "bytes32"
        },
        {
          "name": "_params",
          "type": "uint256[]"
        }
      ],
      "name": "canPerform",
      "outputs": [
        {
          "name": "",
          "type": "bool"
        }
      ],
      "payable": false,
      "stateMutability": "view",
      "type": "function"
    },
    {
      "constant": true,
      "inputs": [],
      "name": "getEVMScriptRegistry",
      "outputs": [
        {
          "name": "",
          "type": "address"
        }
      ],
      "payable": false,
      "stateMutability": "view",
      "type": "function"
    },
    {
      "constant": false,
      "inputs": [
        {
          "name": "_name",
          "type": "string"
        },
        {
          "name": "_dev",
          "type": "address"
        }
      ],
      "name": "newRepo",
      "outputs": [
        {
          "name": "",
          "type": "address"
        }
      ],
      "payable": false,
      "stateMutability": "nonpayable",
      "type": "function"
    },
    {
      "constant": false,
      "inputs": [
        {
          "name": "_registrar",
          "type": "address"
        }
      ],
      "name": "initialize",
      "outputs": [],
      "payable": false,
      "stateMutability": "nonpayable",
      "type": "function"
    },
    {
      "constant": false,
      "inputs": [
        {
          "name": "_kernel",
          "type": "address"
        },
        {
          "name": "_appId",
          "type": "bytes32"
        },
        {
          "name": "_initializePayload",
          "type": "bytes"
        }
      ],
      "name": "newAppProxyPinned",
      "outputs": [
        {
          "name": "",
          "type": "address"
        }
      ],
      "payable": false,
      "stateMutability": "nonpayable",
      "type": "function"
    },
    {
      "constant": true,
      "inputs": [],
      "name": "kernel",
      "outputs": [
        {
          "name": "",
          "type": "address"
        }
      ],
      "payable": false,
      "stateMutability": "view",
      "type": "function"
    },
    {
      "constant": true,
      "inputs": [],
      "name": "isPetrified",
      "outputs": [
        {
          "name": "",
          "type": "bool"
        }
      ],
      "payable": false,
      "stateMutability": "view",
      "type": "function"
    },
    {
      "constant": false,
      "inputs": [
        {
          "name": "_kernel",
          "type": "address"
        },
        {
          "name": "_appId",
          "type": "bytes32"
        }
      ],
      "name": "newAppProxy",
      "outputs": [
        {
          "name": "",
          "type": "address"
        }
      ],
      "payable": false,
      "stateMutability": "nonpayable",
      "type": "function"
    },
    {
      "constant": false,
      "inputs": [
        {
          "name": "_kernel",
          "type": "address"
        },
        {
          "name": "_appId",
          "type": "bytes32"
        },
        {
          "name": "_initializePayload",
          "type": "bytes"
        }
      ],
      "name": "newAppProxy",
      "outputs": [
        {
          "name": "",
          "type": "address"
        }
      ],
      "payable": false,
      "stateMutability": "nonpayable",
      "type": "function"
    },
    {
      "constant": false,
      "inputs": [
        {
          "name": "_kernel",
          "type": "address"
        },
        {
          "name": "_appId",
          "type": "bytes32"
        }
      ],
      "name": "newAppProxyPinned",
      "outputs": [
        {
          "name": "",
          "type": "address"
        }
      ],
      "payable": false,
      "stateMutability": "nonpayable",
      "type": "function"
    },
    {
      "anonymous": false,
      "inputs": [
        {
          "indexed": false,
          "name": "id",
          "type": "bytes32"
        },
        {
          "indexed": false,
          "name": "name",
          "type": "string"
        },
        {
          "indexed": false,
          "name": "repo",
          "type": "address"
        }
      ],
      "name": "NewRepo",
      "type": "event"
    },
    {
      "anonymous": false,
      "inputs": [
        {
          "indexed": false,
          "name": "proxy",
          "type": "address"
        },
        {
          "indexed": false,
          "name": "isUpgradeable",
          "type": "bool"
        },
        {
          "indexed": false,
          "name": "appId",
          "type": "bytes32"
        }
      ],
      "name": "NewAppProxy",
      "type": "event"
    },
    {
      "anonymous": false,
      "inputs": [
        {
          "indexed": true,
          "name": "executor",
          "type": "address"
        },
        {
          "indexed": false,
          "name": "script",
          "type": "bytes"
        },
        {
          "indexed": false,
          "name": "input",
          "type": "bytes"
        },
        {
          "indexed": false,
          "name": "returnData",
          "type": "bytes"
        }
      ],
      "name": "ScriptResult",
      "type": "event"
    },
    {
      "anonymous": false,
      "inputs": [
        {
          "indexed": true,
          "name": "vault",
          "type": "address"
        },
        {
          "indexed": true,
          "name": "token",
          "type": "address"
        },
        {
          "indexed": false,
          "name": "amount",
          "type": "uint256"
        }
      ],
      "name": "RecoverToVault",
      "type": "event"
    }
  ],
  "bytecode": {
    "object": "0x6080604052620000146200001a60201b60201c565b62000231565b6200002a6200011c60201b60201c565b60408051808201909152601881527f494e49545f414c52454144595f494e495449414c495a454400000000000000006020820152901562000106576040517f08c379a00000000000000000000000000000000000000000000000000000000081526004018080602001828103825283818151815260200191508051906020019080838360005b83811015620000ca578181015183820152602001620000b0565b50505050905090810190601f168015620000f85780820380516001836020036101000a031916815260200191505b509250505060405180910390fd5b506200011a6000196200014f60201b60201c565b565b60006200014a6000805160206200359283398151915260001b600019166200022960201b62001fa91760201c565b905090565b6200015f6200011c60201b60201c565b60408051808201909152601881527f494e49545f414c52454144595f494e495449414c495a4544000000000000000060208201529015620001fe576040517f08c379a000000000000000000000000000000000000000000000000000000000815260040180806020018281038252838181518152602001915080519060200190808383600083811015620000ca578181015183820152602001620000b0565b506200022660008051602062003592833981519152826200022d602090811b6200236117901c565b50565b5490565b9055565b61335180620002416000396000f300608060405260043610620001165760003560e01c63ffffffff1680630803fac0146200011b5780632914b9bd14620001475780632b20e39714620001bf57806332ab6af014620001d757806332f0a3b514620002b65780633f15457f14620002ce5780635e1f3fa814620002e65780637e7db6e1146200031057806380afdea814620003345780638b3dd749146200034c5780639d4941d81462000364578063a1658fad146200038a578063a479e50814620003f4578063b0927de7146200040c578063c4d66de81462000473578063d162f8b01462000497578063d4aae0c41462000503578063de4796ed146200051b578063e156a8f31462000533578063ede658b0146200055a578063ff289fc514620005c6575b600080fd5b3480156200012857600080fd5b5062000133620005ed565b604080519115158252519081900360200190f35b3480156200015457600080fd5b506040805160206004803580820135601f8101849004840285018401909552848452620001a39436949293602493928401919081908401838280828437509497506200061b9650505050505050565b60408051600160a060020a039092168252519081900360200190f35b348015620001cc57600080fd5b50620001a362000706565b348015620001e457600080fd5b506040805160206004803580820135601f8101849004840285018401909552848452620001a3943694929360249392840191908190840183828082843750506040805160608181019092529598600160a060020a0388351698909790966080820196509450602001925060039150839083908082843750506040805160208781013589018035601f81018390048302840183018552808452979a8935600160a060020a03169a909990989401965091945090810192508190840183828082843750949750620007159650505050505050565b348015620002c357600080fd5b50620001a362000c90565b348015620002db57600080fd5b50620001a362000d0a565b348015620002f357600080fd5b50620002fe62000d19565b60408051918252519081900360200190f35b3480156200031d57600080fd5b5062000133600160a060020a036004351662000d3d565b3480156200034157600080fd5b50620002fe62000d43565b3480156200035957600080fd5b50620002fe62000d75565b3480156200037157600080fd5b5062000388600160a060020a036004351662000da2565b005b3480156200039757600080fd5b50604080516020600460443581810135838102808601850190965280855262000133958335600160a060020a0316956024803596369695606495939492019291829185019084908082843750949750620010479650505050505050565b3480156200040157600080fd5b50620001a3620011a4565b3480156200041957600080fd5b506040805160206004803580820135601f8101849004840285018401909552848452620001a394369492936024939284019190819084018382808284375094975050509235600160a060020a031693506200125c92505050565b3480156200048057600080fd5b5062000388600160a060020a03600435166200133c565b348015620004a457600080fd5b50604080516020600460443581810135601f8101849004840285018401909552848452620001a3948235600160a060020a0316946024803595369594606494920191908190840183828082843750949750620018d09650505050505050565b3480156200051057600080fd5b50620001a3620019db565b3480156200052857600080fd5b506200013362001a08565b3480156200054057600080fd5b50620001a3600160a060020a036004351660243562001a1d565b3480156200056757600080fd5b50604080516020600460443581810135601f8101849004840285018401909552848452620001a3948235600160a060020a031694602480359536959460649492019190819084018382808284375094975062001a439650505050505050565b348015620005d357600080fd5b50620001a3600160a060020a036004351660243562001b4e565b600080620005fa62000d75565b90508015801590620006155750806200061262001b6d565b10155b91505090565b600062000627620011a4565b600160a060020a03166304bf2a7f836040518263ffffffff1660e01b81526004018080602001828103825283818151815260200191508051906020019080838360005b83811015620006845781810151838201526020016200066a565b50505050905090810190601f168015620006b25780820380516001836020036101000a031916815260200191505b5092505050602060405180830381600087803b158015620006d257600080fd5b505af1158015620006e7573d6000803e3d6000fd5b505050506040513d6020811015620006fe57600080fd5b505192915050565b600154600160a060020a031681565b60408051600080825260208201909252819081907f2a9494d64846c9fdbf0158785aa330d8bc9caf45af27fa0e8898eb4d55adcea6906200075d9033908390855b5062001047565b60408051808201909152600f81527f4150505f415554485f4641494c454400000000000000000000000000000000006020820152901515620008235760405160e560020a62461bcd0281526004018080602001828103825283818151815260200191508051906020019080838360005b83811015620007e7578181015183820152602001620007cd565b50505050905090810190601f168015620008155780820380516001836020036101000a031916815260200191505b509250505060405180910390fd5b5062000830893062001b71565b925082600160a060020a031663730534108888886040518463ffffffff1660e01b81526004018084600360200280838360005b838110156200087d57818101518382015260200162000863565b5050505090500183600160a060020a0316600160a060020a0316815260200180602001828103825283818151815260200191508051906020019080838360005b83811015620008d7578181015183820152602001620008bd565b50505050905090810190601f168015620009055780820380516001836020036101000a031916815260200191505b50945050505050600060405180830381600087803b1580156200092757600080fd5b505af11580156200093c573d6000803e3d6000fd5b505050506200094a620019db565b600160a060020a031663de2873596040518163ffffffff1660e01b8152600401602060405180830381600087803b1580156200098557600080fd5b505af11580156200099a573d6000803e3d6000fd5b505050506040513d6020811015620009b157600080fd5b5051604080517faa61924a0000000000000000000000000000000000000000000000000000000081529051919350600160a060020a0380851692639d0effdb92309288929083169163aa61924a9160048083019260209291908290030181600087803b15801562000a2157600080fd5b505af115801562000a36573d6000803e3d6000fd5b505050506040513d602081101562000a4d57600080fd5b50516040805163ffffffff861660e01b8152600160a060020a03948516600482015292909316602483015260448201529051606480830192600092919082900301818387803b15801562000aa057600080fd5b505af115801562000ab5573d6000803e3d6000fd5b5050505081600160a060020a0316630a8ed3db898586600160a060020a031663aa61924a6040518163ffffffff1660e01b8152600401602060405180830381600087803b15801562000b0657600080fd5b505af115801562000b1b573d6000803e3d6000fd5b505050506040513d602081101562000b3257600080fd5b50516040805163ffffffff861660e01b8152600160a060020a03948516600482015292909316602483015260448201529051606480830192600092919082900301818387803b15801562000b8557600080fd5b505af115801562000b9a573d6000803e3d6000fd5b5050505081600160a060020a031663afd925df898586600160a060020a031663aa61924a6040518163ffffffff1660e01b8152600401602060405180830381600087803b15801562000beb57600080fd5b505af115801562000c00573d6000803e3d6000fd5b505050506040513d602081101562000c1757600080fd5b50516040805163ffffffff861660e01b8152600160a060020a03948516600482015292909316602483015260448201529051606480830192600092919082900301818387803b15801562000c6a57600080fd5b505af115801562000c7f573d6000803e3d6000fd5b50949b9a5050505050505050505050565b600062000c9c620019db565b600160a060020a03166332f0a3b56040518163ffffffff1660e01b8152600401602060405180830381600087803b15801562000cd757600080fd5b505af115801562000cec573d6000803e3d6000fd5b505050506040513d602081101562000d0357600080fd5b5051905090565b600054600160a060020a031681565b7f2a9494d64846c9fdbf0158785aa330d8bc9caf45af27fa0e8898eb4d55adcea681565b50600190565b600062000d707fd625496217aa6a3453eecb9c3489dc5a53e6c67b444329ea2b2cbc9ff547639b62001fa9565b905090565b600062000d707febb05b386a8d34882b8711d156f463690983dc47815980fb82aeeff1aa43579e62001fa9565b600080600062000db28462000d3d565b60408051808201909152601281527f5245434f5645525f444953414c4c4f5745440000000000000000000000000000602082015290151562000e3b5760405160e560020a62461bcd02815260040180806020018281038252838181518152602001915080519060200190808383600083811015620007e7578181015183820152602001620007cd565b5062000e4662000c90565b925062000e538362001fb1565b60408051808201909152601a81527f5245434f5645525f5641554c545f4e4f545f434f4e5452414354000000000000602082015290151562000edc5760405160e560020a62461bcd02815260040180806020018281038252838181518152602001915080519060200190808383600083811015620007e7578181015183820152602001620007cd565b50600160a060020a038416151562000f305760405130319250600160a060020a0384169083156108fc029084906000818181858888f1935050505015801562000f29573d6000803e3d6000fd5b5062000ff6565b508262000f4d600160a060020a0382163063ffffffff62001fe016565b915062000f6b600160a060020a038216848463ffffffff620020fa16565b60408051808201909152601d81527f5245434f5645525f544f4b454e5f5452414e534645525f4641494c4544000000602082015290151562000ff45760405160e560020a62461bcd02815260040180806020018281038252838181518152602001915080519060200190808383600083811015620007e7578181015183820152602001620007cd565b505b83600160a060020a031683600160a060020a03167f596caf56044b55fb8c4ca640089bbc2b63cae3e978b851f5745cbb7c5b288e02846040518082815260200191505060405180910390a350505050565b60008062001054620005ed565b15156200106557600091506200119c565b6200106f620019db565b9050600160a060020a03811615156200108c57600091506200119c565b80600160a060020a031663fdef9106863087620010a98862002187565b60405163ffffffff861660e01b8152600160a060020a03808616600483019081529085166024830152604482018490526080606483019081528351608484015283519192909160a490910190602085019080838360005b838110156200111a57818101518382015260200162001100565b50505050905090810190601f168015620011485780820380516001836020036101000a031916815260200191505b5095505050505050602060405180830381600087803b1580156200116b57600080fd5b505af115801562001180573d6000803e3d6000fd5b505050506040513d60208110156200119757600080fd5b505191505b509392505050565b600080620011b1620019db565b604080517fbe00bbd80000000000000000000000000000000000000000000000000000000081527fd6f028ca0e8edb4a8c9757ca4fdccab25fa1e0317da1188108f7d2dee14902fb60048201527fddbcfd564f642ab5627cf68b9b7d374fb4f8a36e941a75d89c87998cef03bd6160248201529051600160a060020a03929092169163be00bbd8916044808201926020929091908290030181600087803b158015620006d257600080fd5b604080516000808252602082019092527f2a9494d64846c9fdbf0158785aa330d8bc9caf45af27fa0e8898eb4d55adcea6906200129e90339083908562000756565b60408051808201909152600f81527f4150505f415554485f4641494c454400000000000000000000000000000000006020820152901515620013275760405160e560020a62461bcd02815260040180806020018281038252838181518152602001915080519060200190808383600083811015620007e7578181015183820152602001620007cd565b5062001334848462001b71565b949350505050565b60006200134862000d75565b60408051808201909152601881527f494e49545f414c52454144595f494e495449414c495a4544000000000000000060208201529015620013d05760405160e560020a62461bcd02815260040180806020018281038252838181518152602001915080519060200190808383600083811015620007e7578181015183820152602001620007cd565b50620013db62002191565b6001805473ffffffffffffffffffffffffffffffffffffffff1916600160a060020a038481169190911791829055604080517f3f15457f00000000000000000000000000000000000000000000000000000000815290519290911691633f15457f916004808201926020929091908290030181600087803b1580156200146057600080fd5b505af115801562001475573d6000803e3d6000fd5b505050506040513d60208110156200148c57600080fd5b50516000805473ffffffffffffffffffffffffffffffffffffffff1916600160a060020a03928316178155600154604080517fdb6069310000000000000000000000000000000000000000000000000000000081523060048201529051919093169263db60693192602480830193919282900301818387803b1580156200151257600080fd5b505af115801562001527573d6000803e3d6000fd5b5050505062001535620019db565b600160a060020a031663de2873596040518163ffffffff1660e01b8152600401602060405180830381600087803b1580156200157057600080fd5b505af115801562001585573d6000803e3d6000fd5b505050506040513d60208110156200159c57600080fd5b5051600154604080517ffef47e380000000000000000000000000000000000000000000000000000000081529051929350600160a060020a0380851693636d6712d8933093921691829163fef47e38916004808201926020929091908290030181600087803b1580156200160f57600080fd5b505af115801562001624573d6000803e3d6000fd5b505050506040513d60208110156200163b57600080fd5b50516040805163ffffffff861660e01b8152600160a060020a0394851660048201529290931660248301526044820152905160648083019260209291908290030181600087803b1580156200168f57600080fd5b505af1158015620016a4573d6000803e3d6000fd5b505050506040513d6020811015620016bb57600080fd5b505160408051808201909152601781527f41504d5245475f494e49545f5045524d495353494f4e530000000000000000006020820152901515620017465760405160e560020a62461bcd02815260040180806020018281038252838181518152602001915080519060200190808383600083811015620007e7578181015183820152602001620007cd565b5080600160a060020a0316636d6712d8308384600160a060020a0316633d6ab68f6040518163ffffffff1660e01b8152600401602060405180830381600087803b1580156200179457600080fd5b505af1158015620017a9573d6000803e3d6000fd5b505050506040513d6020811015620017c057600080fd5b50516040805163ffffffff861660e01b8152600160a060020a0394851660048201529290931660248301526044820152905160648083019260209291908290030181600087803b1580156200181457600080fd5b505af115801562001829573d6000803e3d6000fd5b505050506040513d60208110156200184057600080fd5b505160408051808201909152601781527f41504d5245475f494e49545f5045524d495353494f4e530000000000000000006020820152901515620018cb5760405160e560020a62461bcd02815260040180806020018281038252838181518152602001915080519060200190808383600083811015620007e7578181015183820152602001620007cd565b505050565b600080848484620018e06200256d565b600160a060020a038416815260208082018490526060604083018181528451918401919091528351909160808401919085019080838360005b838110156200193357818101518382015260200162001919565b50505050905090810190601f168015620019615780820380516001836020036101000a031916815260200191505b50945050505050604051809103906000f08015801562001985573d6000803e3d6000fd5b5060408051600160a060020a03831681526000602082015280820187905290519192507fd880e726dced8808d727f02dd0e6fdd3a945b24bfee77e13367bcbe61ddbaf47919081900360600190a1949350505050565b600062000d707f4172f0f7d2289153072b0a6ca36959e0cbe2efc3afe50fc81636caa96338137b62001fa9565b600060001962001a1762000d75565b14905090565b6040805160008082526020820190925262001a3c908490849062001a43565b9392505050565b60008084848462001a536200257e565b600160a060020a038416815260208082018490526060604083018181528451918401919091528351909160808401919085019080838360005b8381101562001aa657818101518382015260200162001a8c565b50505050905090810190601f16801562001ad45780820380516001836020036101000a031916815260200191505b50945050505050604051809103906000f08015801562001af8573d6000803e3d6000fd5b5060408051600160a060020a03831681526001602082015280820187905290519192507fd880e726dced8808d727f02dd0e6fdd3a945b24bfee77e13367bcbe61ddbaf47919081900360600190a1949350505050565b6040805160008082526020820190925262001a3c9084908490620018d0565b4390565b6000806000808551116040805190810160405280601181526020017f41504d5245475f454d5054595f4e414d4500000000000000000000000000000081525090151562001c055760405160e560020a62461bcd02815260040180806020018281038252838181518152602001915080519060200190808383600083811015620007e7578181015183820152602001620007cd565b5062001c1062002262565b915062001c1c620019db565b600160a060020a031663de2873596040518163ffffffff1660e01b8152600401602060405180830381600087803b15801562001c5757600080fd5b505af115801562001c6c573d6000803e3d6000fd5b505050506040513d602081101562001c8357600080fd5b5051604080517faa61924a0000000000000000000000000000000000000000000000000000000081529051600160a060020a039283169263be038478928892879283169163aa61924a9160048083019260209291908290030181600087803b15801562001cef57600080fd5b505af115801562001d04573d6000803e3d6000fd5b505050506040513d602081101562001d1b57600080fd5b50516040805163ffffffff861660e01b8152600160a060020a0394851660048201529284166024840152604483019190915291881660648201529051608480830192600092919082900301818387803b15801562001d7857600080fd5b505af115801562001d8d573d6000803e3d6000fd5b50506001546040518851600160a060020a0390921693506365b0bc85925088916020918201918291908401908083835b6020831062001dde5780518252601f19909201916020918201910162001dbd565b6001836020036101000a0380198251168184511680821785525050505050509050019150506040516020818303038152906040526040518082805190602001908083835b6020831062001e435780518252601f19909201916020918201910162001e22565b51815160209384036101000a60001901801990921691161790526040805192909401829003822063ffffffff881660e01b83526004830152600160a060020a038a166024830152925160448083019650939450929083900301905081600087803b15801562001eb157600080fd5b505af115801562001ec6573d6000803e3d6000fd5b505050506040513d602081101562001edd57600080fd5b505160408051828152600160a060020a038516918101919091526060602082810182815289519284019290925288519394507f526d4ccf8c3d7b6f0b6d4cc0de526d515c87d1ea3bd264ace0b5c2e70d1b22089385938a9388939192909160808401919086019080838360005b8381101562001f6457818101518382015260200162001f4a565b50505050905090810190601f16801562001f925780820380516001836020036101000a031916815260200191505b5094505050505060405180910390a1509392505050565b5490565b5490565b600080600160a060020a038316151562001fcf576000915062001fda565b823b90506000811191505b50919050565b60408051600160a060020a0383166024808301919091528251808303909101815260449091019091526020810180517bffffffffffffffffffffffffffffffffffffffffffffffffffffffff167f70a08231000000000000000000000000000000000000000000000000000000001790526000908180620020628684620022dc565b60408051808201909152601c81527f534146455f4552435f32305f42414c414e43455f52455645525445440000000060208201529193509150821515620020f05760405160e560020a62461bcd02815260040180806020018281038252838181518152602001915080519060200190808383600083811015620007e7578181015183820152602001620007cd565b5095945050505050565b60408051600160a060020a038416602482015260448082018490528251808303909101815260649091019091526020810180517bffffffffffffffffffffffffffffffffffffffffffffffffffffffff167fa9059cbb000000000000000000000000000000000000000000000000000000001790526000906200217e85826200230e565b95945050505050565b8051602002815290565b6200219b62000d75565b60408051808201909152601881527f494e49545f414c52454144595f494e495449414c495a4544000000000000000060208201529015620022235760405160e560020a62461bcd02815260040180806020018281038252838181518152602001915080519060200190808383600083811015620007e7578181015183820152602001620007cd565b50620022606200223262001b6d565b7febb05b386a8d34882b8711d156f463690983dc47815980fb82aeeff1aa43579e9063ffffffff6200236116565b565b60006200228262002272620019db565b6200227c62002365565b62001a1d565b905080600160a060020a0316638129fc1c6040518163ffffffff1660e01b8152600401600060405180830381600087803b158015620022c057600080fd5b505af1158015620022d5573d6000803e3d6000fd5b5050505090565b6000806000806040516020818751602089018a5afa925060008311156200230257805191505b50909590945092505050565b6000806040516020818551602087016000895af1600081111562002357573d80156200234357602081146200234d5762002355565b6001935062002355565b600183511493505b505b5090949350505050565b9055565b600154604080517ffaff50a80000000000000000000000000000000000000000000000000000000081529051600092600160a060020a03169163faff50a891600480830192602092919082900301818787803b158015620023c557600080fd5b505af1158015620023da573d6000803e3d6000fd5b505050506040513d6020811015620023f157600080fd5b505160408051808201825260088082527f61706d2d7265706f000000000000000000000000000000000000000000000000602083810191825293519293929092019182918083835b602083106200245a5780518252601f19909201916020918201910162002439565b6001836020036101000a0380198251168184511680821785525050505050509050019150506040516020818303038152906040526040518082805190602001908083835b60208310620024bf5780518252601f1990920191602091820191016200249e565b51815160209384036101000a6000190180199092169116179052604080519290940182900382208282019790975281840196909652825180820384018152606090910192839052805190959294508493509185019190508083835b602083106200253b5780518252601f1990920191602091820191016200251a565b6001836020036101000a0380198251168184511680821785525050505050509050019150506040518091039020905090565b6040516106cb806200259083390190565b6040516106cb8062002c5b833901905600608060405234801561001057600080fd5b506040516106cb3803806106cb83398101604090815281516020808401519284015191939190910190839083908390600090610051908590610165811b901c565b6100608361018b60201b60201c565b61006f836101c060201b60201c565b90506000825111156101155761008a8161028d60201b60201c565b151561009557600080fd5b80600160a060020a03168260405180828051906020019080838360005b838110156100ca5781810151838201526020016100b2565b50505050905090810190601f1680156100f75780820380516001836020036101000a031916815260200191505b50915050600060405180830381855af4915050151561011557600080fd5b5050505061013661012b836101c060201b60201c565b6102ba60201b60201c565b6101526101476102dd60201b60201c565b61028d60201b60201c565b151561015d57600080fd5b50505061033e565b61018860008051602061068b8339815191528261030c602090811b61030a17901c565b50565b6101887fd625496217aa6a3453eecb9c3489dc5a53e6c67b444329ea2b2cbc9ff547639b8261030c602090811b61030a17901c565b60006101d061031060201b60201c565b604080517fbe00bbd80000000000000000000000000000000000000000000000000000000081527ff1f3eb40f5bc1ad1344716ced8b8a0431d840b5783aea1fd01786bc26f35ac0f6004820152602481018590529051600160a060020a03929092169163be00bbd8916044808201926020929091908290030181600087803b15801561025b57600080fd5b505af115801561026f573d6000803e3d6000fd5b505050506040513d602081101561028557600080fd5b505192915050565b600080600160a060020a03831615156102a957600091506102b4565b823b90506000811191505b50919050565b6101886000805160206106ab8339815191528261030c602090811b61030a17901c565b60006103076000805160206106ab83398151915260001b6000191661033a60201b6103021760201c565b905090565b9055565b600061030760008051602061068b83398151915260001b6000191661033a60201b6103021760201c565b5490565b61033e8061034d6000396000f3006080604052600436106100505760003560e01c63ffffffff1680634555d5c91461010f57806348a0c8dd146101365780635c60da1b1461015f57806380afdea81461019d578063d4aae0c4146101b2575b6127107f665fd576fbbe6f247aff98f5c94a561e3f71ec2d3c988d56f12d342396c50cea6000825a10156100c55760003411361583541616156100c0576040513381523460208201527f15eeaa57c7bd188c1388020bcadc2c436ec60d647d36ef5b9eb3c742217ddee1604082a1005b600080fd5b6100cd6101c7565b905061010a816000368080601f016020809104026020016040519081016040528093929190818152602001838380828437506101d6945050505050565b505050005b34801561011b57600080fd5b50610124610217565b60408051918252519081900360200190f35b34801561014257600080fd5b5061014b61021c565b604080519115158252519081900360200190f35b34801561016b57600080fd5b506101746101c7565b6040805173ffffffffffffffffffffffffffffffffffffffff9092168252519081900360200190f35b3480156101a957600080fd5b50610124610247565b3480156101be57600080fd5b50610174610272565b60006101d161029d565b905090565b60006101e1836102c8565b15156101ec57600080fd5b612710905060008083516020850186855a03f43d604051816000823e828015610213578282f35b8282fd5b600190565b60006101d17f665fd576fbbe6f247aff98f5c94a561e3f71ec2d3c988d56f12d342396c50cea610302565b60006101d17fd625496217aa6a3453eecb9c3489dc5a53e6c67b444329ea2b2cbc9ff547639b610302565b60006101d17f4172f0f7d2289153072b0a6ca36959e0cbe2efc3afe50fc81636caa96338137b610302565b60006101d17fdee64df20d65e53d7f51cb6ab6d921a0a6a638a91e942e1d8d02df28e31c038e610302565b60008073ffffffffffffffffffffffffffffffffffffffff831615156102f157600091506102fc565b823b90506000811191505b50919050565b5490565b5490565b9055565b90555600a165627a7a7230582026b6880b8c77f7d6b5c9de6fdcc4352b9f3851c867fafe5c0a19fe5a3515810e00294172f0f7d2289153072b0a6ca36959e0cbe2efc3afe50fc81636caa96338137bdee64df20d65e53d7f51cb6ab6d921a0a6a638a91e942e1d8d02df28e31c038e608060405234801561001057600080fd5b506040516106cb3803806106cb83398101604090815281516020808401519284015191939190910190839083908390600090610051908590610121811b901c565b6100608361014760201b60201c565b61006f8361017c60201b60201c565b90506000825111156101155761008a8161024960201b60201c565b151561009557600080fd5b80600160a060020a03168260405180828051906020019080838360005b838110156100ca5781810151838201526020016100b2565b50505050905090810190601f1680156100f75780820380516001836020036101000a031916815260200191505b50915050600060405180830381855af4915050151561011557600080fd5b505050505050506102ad565b6101446000805160206106ab83398151915282610276602090811b6103bb17901c565b50565b6101447fd625496217aa6a3453eecb9c3489dc5a53e6c67b444329ea2b2cbc9ff547639b82610276602090811b6103bb17901c565b600061018c61027a60201b60201c565b604080517fbe00bbd80000000000000000000000000000000000000000000000000000000081527ff1f3eb40f5bc1ad1344716ced8b8a0431d840b5783aea1fd01786bc26f35ac0f6004820152602481018590529051600160a060020a03929092169163be00bbd8916044808201926020929091908290030181600087803b15801561021757600080fd5b505af115801561022b573d6000803e3d6000fd5b505050506040513d602081101561024157600080fd5b505192915050565b600080600160a060020a03831615156102655760009150610270565b823b90506000811191505b50919050565b9055565b60006102a46000805160206106ab83398151915260001b600019166102a960201b6103b31760201c565b905090565b5490565b6103ef806102bc6000396000f3006080604052600436106100505760003560e01c63ffffffff1680634555d5c91461010f57806348a0c8dd146101365780635c60da1b1461015f57806380afdea81461019d578063d4aae0c4146101b2575b6127107f665fd576fbbe6f247aff98f5c94a561e3f71ec2d3c988d56f12d342396c50cea6000825a10156100c55760003411361583541616156100c0576040513381523460208201527f15eeaa57c7bd188c1388020bcadc2c436ec60d647d36ef5b9eb3c742217ddee1604082a1005b600080fd5b6100cd6101c7565b905061010a816000368080601f016020809104026020016040519081016040528093929190818152602001838380828437506101de945050505050565b505050005b34801561011b57600080fd5b5061012461021f565b60408051918252519081900360200190f35b34801561014257600080fd5b5061014b610224565b604080519115158252519081900360200190f35b34801561016b57600080fd5b506101746101c7565b6040805173ffffffffffffffffffffffffffffffffffffffff9092168252519081900360200190f35b3480156101a957600080fd5b5061012461024f565b3480156101be57600080fd5b5061017461027a565b60006101d96101d461024f565b6102a5565b905090565b60006101e983610379565b15156101f457600080fd5b612710905060008083516020850186855a03f43d604051816000823e82801561021b578282f35b8282fd5b600290565b60006101d97f665fd576fbbe6f247aff98f5c94a561e3f71ec2d3c988d56f12d342396c50cea6103b3565b60006101d97fd625496217aa6a3453eecb9c3489dc5a53e6c67b444329ea2b2cbc9ff547639b6103b3565b60006101d97f4172f0f7d2289153072b0a6ca36959e0cbe2efc3afe50fc81636caa96338137b6103b3565b60006102af61027a565b604080517fbe00bbd80000000000000000000000000000000000000000000000000000000081527ff1f3eb40f5bc1ad1344716ced8b8a0431d840b5783aea1fd01786bc26f35ac0f600482015260248101859052905173ffffffffffffffffffffffffffffffffffffffff929092169163be00bbd8916044808201926020929091908290030181600087803b15801561034757600080fd5b505af115801561035b573d6000803e3d6000fd5b505050506040513d602081101561037157600080fd5b505192915050565b60008073ffffffffffffffffffffffffffffffffffffffff831615156103a257600091506103ad565b823b90506000811191505b50919050565b5490565b5490565b9055565b90555600a165627a7a7230582072089b916c21843279b5ed52f0afa746a6b4b9b2e42624e5f826a68fdd47c0d000294172f0f7d2289153072b0a6ca36959e0cbe2efc3afe50fc81636caa96338137ba165627a7a723058205d83da6a4dc21052ab16d636fa1a265f490dc728713469632e6222f6276e01110029ebb05b386a8d34882b8711d156f463690983dc47815980fb82aeeff1aa43579e",
    "linkReferences": {}
  },
  "methodIdentifiers": {
    "CREATE_REPO_ROLE()": "5e1f3fa8",
    "allowRecoverability(address)": "7e7db6e1",
    "appId()": "80afdea8",
    "canPerform(address,bytes32,uint256[])": "a1658fad",
    "ens()": "3f15457f",
    "getEVMScriptExecutor(bytes)": "2914b9bd",
    "getEVMScriptRegistry()": "a479e508",
    "getInitializationBlock()": "8b3dd749",
    "getRecoveryVault()": "32f0a3b5",
    "hasInitialized()": "0803fac0",
    "initialize(address)": "c4d66de8",
    "isPetrified()": "de4796ed",
    "kernel()": "d4aae0c4",
    "newAppProxy(address,bytes32)": "e156a8f3",
    "newAppProxy(address,bytes32,bytes)": "ede658b0",
    "newAppProxyPinned(address,bytes32)": "ff289fc5",
    "newAppProxyPinned(address,bytes32,bytes)": "d162f8b0",
    "newRepo(string,address)": "b0927de7",
    "newRepoWithVersion(string,address,uint16[3],address,bytes)": "32ab6af0",
    "registrar()": "2b20e397",
    "transferToVault(address)": "9d4941d8"
  },
  "storageLayout": {
    "storage": [],
    "types": {}
  },
  "id": 52
}