{
  "abi": [
    {
      "constant": false,
      "inputs": [
        {
          "name": "_newOwner",
          "type": "address"
        }
      ],
      "name": "setOwner",
      "outputs": [],
      "payable": false,
      "stateMutability": "nonpayable",
      "type": "function"
    },
    {
      "constant": false,
      "inputs": [
        {
          "name": "_daoName",
          "type": "string"
        },
        {
          "name": "_totalFeeBP",
          "type": "uint16"
        },
        {
          "name": "_treasuryFeeBP",
          "type": "uint16"
        },
        {
          "name": "_insuranceFeeBP",
          "type": "uint16"
        },
        {
          "name": "_operatorsFeeBP",
          "type": "uint16"
        },
        {
          "name": "_unvestedTokensAmount",
          "type": "uint256"
        }
      ],
      "name": "finalizeDAO",
      "outputs": [],
      "payable": false,
      "stateMutability": "nonpayable",
      "type": "function"
    },
    {
      "constant": false,
      "inputs": [
        {
          "name": "_tld",
          "type": "bytes32"
        },
        {
          "name": "_label",
          "type": "bytes32"
        }
      ],
      "name": "deployLidoAPM",
      "outputs": [],
      "payable": false,
      "stateMutability": "nonpayable",
      "type": "function"
    },
    {
      "constant": false,
      "inputs": [
        {
          "name": "_holders",
          "type": "address[]"
        },
        {
          "name": "_amounts",
          "type": "uint256[]"
        },
        {
          "name": "_vestingStart",
          "type": "uint64"
        },
        {
          "name": "_vestingCliff",
          "type": "uint64"
        },
        {
          "name": "_vestingEnd",
          "type": "uint64"
        },
        {
          "name": "_vestingRevokable",
          "type": "bool"
        },
        {
          "name": "_expectedFinalTotalSupply",
          "type": "uint256"
        }
      ],
      "name": "issueTokens",
      "outputs": [],
      "payable": false,
      "stateMutability": "nonpayable",
      "type": "function"
    },
    {
      "constant": false,
      "inputs": [
        {
          "name": "node",
          "type": "bytes32"
        },
        {
          "name": "_to",
          "type": "address"
        }
      ],
      "name": "cancelAndTransferDomain",
      "outputs": [],
      "payable": false,
      "stateMutability": "nonpayable",
      "type": "function"
    },
    {
      "constant": false,
      "inputs": [
        {
          "name": "_initialSemanticVersion",
          "type": "uint16[3]"
        },
        {
          "name": "_lidoImplAddress",
          "type": "address"
        },
        {
          "name": "_lidoContentURI",
          "type": "bytes"
        },
        {
          "name": "_nodeOperatorsRegistryImplAddress",
          "type": "address"
        },
        {
          "name": "_nodeOperatorsRegistryContentURI",
          "type": "bytes"
        },
        {
          "name": "_oracleImplAddress",
          "type": "address"
        },
        {
          "name": "_oracleContentURI",
          "type": "bytes"
        }
      ],
      "name": "createRepos",
      "outputs": [],
      "payable": false,
      "stateMutability": "nonpayable",
      "type": "function"
    },
    {
      "constant": true,
      "inputs": [],
      "name": "getConfig",
      "outputs": [
        {
          "name": "_owner",
          "type": "address"
        },
        {
          "name": "_daoFactory",
          "type": "address"
        },
        {
          "name": "_ens",
          "type": "address"
        },
        {
          "name": "_miniMeFactory",
          "type": "address"
        },
        {
          "name": "_aragonID",
          "type": "address"
        },
        {
          "name": "_apmRegistryFactory",
          "type": "address"
        }
      ],
      "payable": false,
      "stateMutability": "view",
      "type": "function"
    },
    {
      "constant": false,
      "inputs": [
        {
          "name": "_tokenName",
          "type": "string"
        },
        {
          "name": "_tokenSymbol",
          "type": "string"
        },
        {
          "name": "_votingSettings",
          "type": "uint64[3]"
        },
        {
          "name": "_beaconDepositContract",
          "type": "address"
        },
        {
          "name": "_beaconSpec",
          "type": "uint32[4]"
        }
      ],
      "name": "newDAO",
      "outputs": [],
      "payable": false,
      "stateMutability": "nonpayable",
      "type": "function"
    },
    {
      "inputs": [
        {
          "name": "_owner",
          "type": "address"
        },
        {
          "name": "_daoFactory",
          "type": "address"
        },
        {
          "name": "_ens",
          "type": "address"
        },
        {
          "name": "_miniMeFactory",
          "type": "address"
        },
        {
          "name": "_aragonID",
          "type": "address"
        },
        {
          "name": "_apmRegistryFactory",
          "type": "address"
        }
      ],
      "payable": false,
      "stateMutability": "nonpayable",
      "type": "constructor"
    },
    {
      "anonymous": false,
      "inputs": [
        {
          "indexed": false,
          "name": "apm",
          "type": "address"
        }
      ],
      "name": "TmplAPMDeployed",
      "type": "event"
    },
    {
      "anonymous": false,
      "inputs": [],
      "name": "TmplReposCreated",
      "type": "event"
    },
    {
      "anonymous": false,
      "inputs": [
        {
          "indexed": false,
          "name": "appProxy",
          "type": "address"
        },
        {
          "indexed": false,
          "name": "appId",
          "type": "bytes32"
        }
      ],
      "name": "TmplAppInstalled",
      "type": "event"
    },
    {
      "anonymous": false,
      "inputs": [
        {
          "indexed": false,
          "name": "dao",
          "type": "address"
        },
        {
          "indexed": false,
          "name": "token",
          "type": "address"
        }
      ],
      "name": "TmplDAOAndTokenDeployed",
      "type": "event"
    },
    {
      "anonymous": false,
      "inputs": [
        {
          "indexed": false,
          "name": "totalAmount",
          "type": "uint256"
        }
      ],
      "name": "TmplTokensIssued",
      "type": "event"
    },
    {
      "anonymous": false,
      "inputs": [],
      "name": "TmplDaoFinalized",
      "type": "event"
    }
  ],
  "bytecode": {
    "object": "0x60806040523480156200001157600080fd5b5060405160c080620062fc8339810160408181528251602080850151838601516060870151608088015160a090980151868801909652600f87527f544d504c5f5a45524f5f4f574e45520000000000000000000000000000000000938701939093529295909492939192909190600160a060020a038716151562000130576040517f08c379a00000000000000000000000000000000000000000000000000000000081526004018080602001828103825283818151815260200191508051906020019080838360005b83811015620000f4578181015183820152602001620000da565b50505050905090810190601f168015620001225780820380516001836020036101000a031916815260200191505b509250505060405180910390fd5b5062000142856200054760201b60201c565b60408051808201909152601981527f544d504c5f44414f5f4641435f4e4f545f434f4e5452414354000000000000006020820152901515620001e2576040517f08c379a000000000000000000000000000000000000000000000000000000000815260040180806020018281038252838181518152602001915080519060200190808383600083811015620000f4578181015183820152602001620000da565b50620001f4846200054760201b60201c565b60408051808201909152601581527f544d504c5f454e535f4e4f545f434f4e54524143540000000000000000000000602082015290151562000294576040517f08c379a000000000000000000000000000000000000000000000000000000000815260040180806020018281038252838181518152602001915080519060200190808383600083811015620000f4578181015183820152602001620000da565b50620002a6836200054760201b60201c565b60408051808201909152601c81527f544d504c5f4d494e494d455f4641435f4e4f545f434f4e545241435400000000602082015290151562000346576040517f08c379a000000000000000000000000000000000000000000000000000000000815260040180806020018281038252838181518152602001915080519060200190808383600083811015620000f4578181015183820152602001620000da565b5062000358826200054760201b60201c565b60408051808201909152601b81527f544d504c5f415241474f4e5f49445f4e4f545f434f4e545241435400000000006020820152901515620003f8576040517f08c379a000000000000000000000000000000000000000000000000000000000815260040180806020018281038252838181518152602001915080519060200190808383600083811015620000f4578181015183820152602001620000da565b506200040a816200054760201b60201c565b606060405190810160405280602281526020017f544d504c5f41504d5f52454749535452595f4641435f4e4f545f434f4e54524181526020017f4354000000000000000000000000000000000000000000000000000000000000815250901515620004d3576040517f08c379a000000000000000000000000000000000000000000000000000000000815260040180806020018281038252838181518152602001915080519060200190808383600083811015620000f4578181015183820152602001620000da565b5060008054600160a060020a0319908116600160a060020a039889161790915560028054821696881696909617909555600180548616948716949094179093556003805485169286169290921790915560048054841691851691909117905560058054909216921691909117905562000576565b600080600160a060020a038316151562000565576000915062000570565b823b90506000811191505b50919050565b615d7680620005866000396000f3006080604052600436106100715760003560e01c63ffffffff16806313af4035146100765780633e25181c146100995780636953776c146100d75780636e9de8e7146100f2578063923a4a071461013f578063a2e68b2414610163578063c3f909d4146101b8578063c97d713714610210575b600080fd5b34801561008257600080fd5b50610097600160a060020a036004351661024c565b005b3480156100a557600080fd5b50610097602460048035828101929101359061ffff90358116906044358116906064358116906084351660a43561032b565b3480156100e357600080fd5b506100976004356024356109ce565b3480156100fe57600080fd5b50610097602460048035828101929082013591813591820191013567ffffffffffffffff6044358116906064358116906084351660a435151560c435611045565b34801561014b57600080fd5b50610097600435600160a060020a0360243516611339565b34801561016f57600080fd5b506100976004600160a060020a03606435811690602460843581810192908501359160a43582169160c43580830192908801359160e4351690610104359081019089013561158f565b3480156101c457600080fd5b506101cd6123f1565b60408051600160a060020a03978816815295871660208701529386168585015291851660608501528416608084015290921660a082015290519081900360c00190f35b34801561021c57600080fd5b5061009760246004803582810192908201359181359182019101356044600160a060020a0360a4351660c4612424565b6000546040805180820190915260168152600080516020615d2b833981519152602082015290600160a060020a031633146103085760405160e560020a62461bcd0281526004018080602001828103825283818151815260200191508051906020019080838360005b838110156102cd5781810151838201526020016102b5565b50505050905090810190601f1680156102fa5780820380516001836020036101000a031916815260200191505b509250505060405180910390fd5b5060008054600160a060020a031916600160a060020a0392909216919091179055565b610333615c52565b61033b615cb6565b600080546040805180820190915260168152600080516020615d2b833981519152602082015290600160a060020a031633146103bc5760405160e560020a62461bcd028152600401808060200182810382528381815181526020019150805190602001908083836000838110156102cd5781810151838201526020016102b5565b5060408051610180810182526006548152600754600160a060020a0390811660208084019190915260085482168385019081526009548316606080860191909152600a548416608080870191909152600b54851660a080880191909152600c54861660c080890191909152600d54871660e0808a0191909152600e5488166101008a0152600f5488166101208a015260105488166101408a015260115488166101608a015289519081018a52601254881681526013548816818801526014548816818b015260158054891695820195909552601654881693810193909352601754871691830191909152601854861690820152915186518088019097529086527f544d504c5f44414f5f4e4f545f4445504c4f59454400000000000000000000009286019290925292965091945016151561053c5760405160e560020a62461bcd028152600401808060200182810382528381815181526020019150805190602001908083836000838110156102cd5781810151838201526020016102b5565b5060408051808201909152600f81527f544d504c5f494e56414c49445f49440000000000000000000000000000000000602082015260008a116105c45760405160e560020a62461bcd028152600401808060200182810382528381815181526020019150805190602001908083836000838110156102cd5781810151838201526020016102b5565b50826101200151600160a060020a0316639aaa2d156040518163ffffffff1660e01b8152600401602060405180830381600087803b15801561060557600080fd5b505af1158015610619573d6000803e3d6000fd5b505050506040513d602081101561062f57600080fd5b505160608401516101208501519192506106499183612c01565b826101200151600160a060020a0316638e005553896040518263ffffffff1660e01b8152600401808261ffff1661ffff168152602001915050600060405180830381600087803b15801561069c57600080fd5b505af11580156106b0573d6000803e3d6000fd5b505050610120840151604080517f8cef361200000000000000000000000000000000000000000000000000000000815261ffff808c166004830152808b166024830152891660448201529051600160a060020a039092169250638cef361291606480830192600092919082900301818387803b15801561072f57600080fd5b505af1158015610743573d6000803e3d6000fd5b5050505061075b836060015184610120015183612c99565b8315610878578260e00151600160a060020a031663cc872b66856040518263ffffffff1660e01b815260040180828152602001915050600060405180830381600087803b1580156107ab57600080fd5b505af11580156107bf573d6000803e3d6000fd5b505050508260e00151600160a060020a031663be7604888460a00151866040518363ffffffff1660e01b81526004018083600160a060020a0316600160a060020a0316815260200182815260200192505050600060405180830381600087803b15801561082b57600080fd5b505af115801561083f573d6000803e3d6000fd5b50506040805187815290517f605c644abd488435cbc3ddd66f0621e885d845503cadeca595f01b25a75b5e4c9350908190036020019150a15b6108828383612d8d565b6108958360400151846101000151614288565b61089d6143d2565b600454604051600160a060020a039091169063d22057a9908c908c90602001808383808284378201915050925050506040516020818303038152906040526040518082805190602001908083835b6020831061090a5780518252601f1990920191602091820191016108eb565b5181516020939093036101000a6000190180199091169216919091179052604080519190930181900381208a84015163ffffffff881660e01b83526004830191909152600160a060020a03166024820152915160448084019550600094509092839003019050818387803b15801561098157600080fd5b505af1158015610995573d6000803e3d6000fd5b50506040517fb0a82556d18155ca00015815564cf825c477e4d1a5c8e8a148d2d995d491a78b925060009150a150505050505050505050565b600080546040805180820190915260168152600080516020615d2b83398151915260208201528291829190600160a060020a03163314610a535760405160e560020a62461bcd028152600401808060200182810382528381815181526020019150805190602001908083836000838110156102cd5781810151838201526020016102b5565b5060075460408051808201909152601e81527f544d504c5f52454749535452595f414c52454144595f4445504c4f5945440000602082015290600160a060020a031615610ae55760405160e560020a62461bcd028152600401808060200182810382528381815181526020019150805190602001908083836000838110156102cd5781810151838201526020016102b5565b50604080516020808201889052818301879052825180830384018152606090920192839052815191929182918401908083835b60208310610b375780518252601f199092019160209182019101610b18565b51815160209384036101000a6000190180199092169116179052604080519290940182900382206001547f02571be3000000000000000000000000000000000000000000000000000000008452600484018290529451909950309650600160a060020a0390941694506302571be3936024808401945091929091908290030181600087803b158015610bc857600080fd5b505af1158015610bdc573d6000803e3d6000fd5b505050506040513d6020811015610bf257600080fd5b505160408051606081018252602381527f544d504c5f454e535f4e4f44455f4e4f545f4f574e45445f42595f54454d504c60208201527f41544500000000000000000000000000000000000000000000000000000000009181019190915291600160a060020a0390911614610cac5760405160e560020a62461bcd028152600401808060200182810382528381815181526020019150805190602001908083836000838110156102cd5781810151838201526020016102b5565b506006839055600554600154604080517f5b0fc9c300000000000000000000000000000000000000000000000000000000815260048101879052600160a060020a039384166024820181905291519195509290911691635b0fc9c391604480830192600092919082900301818387803b158015610d2857600080fd5b505af1158015610d3c573d6000803e3d6000fd5b5050604080517faac57b3a00000000000000000000000000000000000000000000000000000000815260048101899052602481018890523060448201529051600160a060020a038616935063aac57b3a925060648083019260209291908290030181600087803b158015610daf57600080fd5b505af1158015610dc3573d6000803e3d6000fd5b505050506040513d6020811015610dd957600080fd5b5051604080517fd4aae0c40000000000000000000000000000000000000000000000000000000081529051919250600160a060020a0383169163d4aae0c4916004808201926020929091908290030181600087803b158015610e3a57600080fd5b505af1158015610e4e573d6000803e3d6000fd5b505050506040513d6020811015610e6457600080fd5b5051604080517fde2873590000000000000000000000000000000000000000000000000000000081529051600160a060020a039092169163de287359916004808201926020929091908290030181600087803b158015610ec357600080fd5b505af1158015610ed7573d6000803e3d6000fd5b505050506040513d6020811015610eed57600080fd5b5051604080517f5e1f3fa80000000000000000000000000000000000000000000000000000000081529051600160a060020a0392831692639d0effdb9286928692831691635e1f3fa89160048083019260209291908290030181600087803b158015610f5857600080fd5b505af1158015610f6c573d6000803e3d6000fd5b505050506040513d6020811015610f8257600080fd5b50516040805163ffffffff861660e01b8152600160a060020a03948516600482015292909316602483015260448201529051606480830192600092919082900301818387803b158015610fd457600080fd5b505af1158015610fe8573d6000803e3d6000fd5b505060078054600160a060020a038516600160a060020a0319909116811790915560408051918252517fd47e2e00c155fdff14662cb91e9c39bbb29d8bba51f3e09bc956c6b00e07d32c9350908190036020019150a15050505050565b600080546040805180820190915260168152600080516020615d2b83398151915260208201528291600160a060020a031633146110c75760405160e560020a62461bcd028152600401808060200182810382528381815181526020019150805190602001908083836000838110156102cd5781810151838201526020016102b5565b5060408051808201909152601281527f544d504c5f454d5054595f484f4c444552530000000000000000000000000000602082015260008b1161114f5760405160e560020a62461bcd028152600401808060200182810382528381815181526020019150805190602001908083836000838110156102cd5781810151838201526020016102b5565b5060408051808201909152601481527f544d504c5f4241445f414d4f554e54535f4c454e00000000000000000000000060208201528a89146111d65760405160e560020a62461bcd028152600401808060200182810382528381815181526020019150805190602001908083836000838110156102cd5781810151838201526020016102b5565b50600d5460408051808201909152601581527f544d504c5f44414f5f4e4f545f4445504c4f59454400000000000000000000006020820152600160a060020a03909116925082151561126d5760405160e560020a62461bcd028152600401808060200182810382528381815181526020019150805190602001908083836000838110156102cd5781810151838201526020016102b5565b506112f582600660040160009054906101000a9004600160a060020a03168d8d808060200260200160405190810160405280939291908181526020018383602002808284378201915050505050508c8c808060200260200160405190810160405280939291908181526020018383602002808284378201915050505050508b8b8b8b8b614475565b6040805182815290519192507f605c644abd488435cbc3ddd66f0621e885d845503cadeca595f01b25a75b5e4c919081900360200190a15050505050505050505050565b6000546040805180820190915260168152600080516020615d2b833981519152602082015290600160a060020a031633146113b95760405160e560020a62461bcd028152600401808060200182810382528381815181526020019150805190602001908083836000838110156102cd5781810151838201526020016102b5565b50600154604080517f02571be30000000000000000000000000000000000000000000000000000000081526004810185905290513092600160a060020a0316916302571be39160248083019260209291908290030181600087803b15801561142057600080fd5b505af1158015611434573d6000803e3d6000fd5b505050506040513d602081101561144a57600080fd5b505160408051606081018252602381527f544d504c5f454e535f4e4f44455f4e4f545f4f574e45445f42595f54454d504c60208201527f41544500000000000000000000000000000000000000000000000000000000009181019190915291600160a060020a03909116146115045760405160e560020a62461bcd028152600401808060200182810382528381815181526020019150805190602001908083836000838110156102cd5781810151838201526020016102b5565b50600154604080517f5b0fc9c300000000000000000000000000000000000000000000000000000000815260048101859052600160a060020a03848116602483015291519190921691635b0fc9c391604480830192600092919082900301818387803b15801561157357600080fd5b505af1158015611587573d6000803e3d6000fd5b505050505050565b6000611599615cf2565b6000546040805180820190915260168152600080516020615d2b833981519152602082015290600160a060020a031633146116195760405160e560020a62461bcd028152600401808060200182810382528381815181526020019150805190602001908083836000838110156102cd5781810151838201526020016102b5565b5060075460408051808201909152601a81527f544d504c5f52454749535452595f4e4f545f4445504c4f594544000000000000602082015290600160a060020a031615156116ac5760405160e560020a62461bcd028152600401808060200182810382528381815181526020019150805190602001908083836000838110156102cd5781810151838201526020016102b5565b50600660010160009054906101000a9004600160a060020a0316915081600160a060020a03166332ab6af06040805190810160405280600481526020017f6c69646f00000000000000000000000000000000000000000000000000000000815250308f8f8f8f6040518763ffffffff1660e01b8152600401808060200187600160a060020a0316600160a060020a0316815260200186600360200280828437820191505085600160a060020a0316600160a060020a0316815260200180602001838103835289818151815260200191508051906020019080838360005b838110156117a1578181015183820152602001611789565b50505050905090810190601f1680156117ce5780820380516001836020036101000a031916815260200191505b508381038252848152602001858580828437820191505098505050505050505050602060405180830381600087803b15801561180957600080fd5b505af115801561181d573d6000803e3d6000fd5b505050506040513d602081101561183357600080fd5b8101908080519060200190929190505050601260000160006101000a815481600160a060020a030219169083600160a060020a0316021790555081600160a060020a03166332ab6af06040805190810160405280601781526020017f6e6f64652d6f70657261746f72732d7265676973747279000000000000000000815250308f8c8c8c6040518763ffffffff1660e01b8152600401808060200187600160a060020a0316600160a060020a0316815260200186600360200280828437820191505085600160a060020a0316600160a060020a0316815260200180602001838103835289818151815260200191508051906020019080838360005b8381101561194657818101518382015260200161192e565b50505050905090810190601f1680156119735780820380516001836020036101000a031916815260200191505b508381038252848152602001858580828437820191505098505050505050505050602060405180830381600087803b1580156119ae57600080fd5b505af11580156119c2573d6000803e3d6000fd5b505050506040513d60208110156119d857600080fd5b8101908080519060200190929190505050601260020160006101000a815481600160a060020a030219169083600160a060020a0316021790555081600160a060020a03166332ab6af06040805190810160405280600681526020017f6f7261636c650000000000000000000000000000000000000000000000000000815250308f8989896040518763ffffffff1660e01b8152600401808060200187600160a060020a0316600160a060020a0316815260200186600360200280828437820191505085600160a060020a0316600160a060020a0316815260200180602001838103835289818151815260200191508051906020019080838360005b83811015611aeb578181015183820152602001611ad3565b50505050905090810190601f168015611b185780820380516001836020036101000a031916815260200191505b508381038252848152602001858580828437820191505098505050505050505050602060405180830381600087803b158015611b5357600080fd5b505af1158015611b67573d6000803e3d6000fd5b505050506040513d6020811015611b7d57600080fd5b505160138054600160a060020a031916600160a060020a03909216919091179055611bc77f9ac98dc5f995bf0211ed589ef022719d1487e5cb2bab505676f0d084c07cf89a6146f0565b905081600160a060020a03166332ab6af06040805190810160405280600c81526020017f617261676f6e2d6167656e740000000000000000000000000000000000000000815250308f856000015186602001516040518663ffffffff1660e01b8152600401808060200186600160a060020a0316600160a060020a0316815260200185600360200280828437820191505084600160a060020a0316600160a060020a0316815260200180602001838103835288818151815260200191508051906020019080838360005b83811015611ca9578181015183820152602001611c91565b50505050905090810190601f168015611cd65780820380516001836020036101000a031916815260200191505b50838103825284518152845160209182019186019080838360005b83811015611d09578181015183820152602001611cf1565b50505050905090810190601f168015611d365780820380516001836020036101000a031916815260200191505b50975050505050505050602060405180830381600087803b158015611d5a57600080fd5b505af1158015611d6e573d6000803e3d6000fd5b505050506040513d6020811015611d8457600080fd5b505160158054600160a060020a031916600160a060020a03909216919091179055611dce7fbf8491150dafc5dcaee5b861414dca922de09ccffa344964ae167212e8c673ae6146f0565b905081600160a060020a03166332ab6af06040805190810160405280600e81526020017f617261676f6e2d66696e616e6365000000000000000000000000000000000000815250308f856000015186602001516040518663ffffffff1660e01b8152600401808060200186600160a060020a0316600160a060020a0316815260200185600360200280828437820191505084600160a060020a0316600160a060020a0316815260200180602001838103835288818151815260200191508051906020019080838360005b83811015611eb0578181015183820152602001611e98565b50505050905090810190601f168015611edd5780820380516001836020036101000a031916815260200191505b50838103825284518152845160209182019186019080838360005b83811015611f10578181015183820152602001611ef8565b50505050905090810190601f168015611f3d5780820380516001836020036101000a031916815260200191505b50975050505050505050602060405180830381600087803b158015611f6157600080fd5b505af1158015611f75573d6000803e3d6000fd5b505050506040513d6020811015611f8b57600080fd5b505160168054600160a060020a031916600160a060020a03909216919091179055611fd57f6b20a3010614eeebf2138ccec99f028a61c811b3b1a3343b6ff635985c75c91f6146f0565b905081600160a060020a03166332ab6af06040805190810160405280601481526020017f617261676f6e2d746f6b656e2d6d616e61676572000000000000000000000000815250308f856000015186602001516040518663ffffffff1660e01b8152600401808060200186600160a060020a0316600160a060020a0316815260200185600360200280828437820191505084600160a060020a0316600160a060020a0316815260200180602001838103835288818151815260200191508051906020019080838360005b838110156120b757818101518382015260200161209f565b50505050905090810190601f1680156120e45780820380516001836020036101000a031916815260200191505b50838103825284518152845160209182019186019080838360005b838110156121175781810151838201526020016120ff565b50505050905090810190601f1680156121445780820380516001836020036101000a031916815260200191505b50975050505050505050602060405180830381600087803b15801561216857600080fd5b505af115801561217c573d6000803e3d6000fd5b505050506040513d602081101561219257600080fd5b505160178054600160a060020a031916600160a060020a039092169190911790556121dc7f9fa3927f639745e587912d4b0fea7ef9013bf93fb907d29faeab57417ba6e1d46146f0565b905081600160a060020a03166332ab6af06040805190810160405280600d81526020017f617261676f6e2d766f74696e6700000000000000000000000000000000000000815250308f856000015186602001516040518663ffffffff1660e01b8152600401808060200186600160a060020a0316600160a060020a0316815260200185600360200280828437820191505084600160a060020a0316600160a060020a0316815260200180602001838103835288818151815260200191508051906020019080838360005b838110156122be5781810151838201526020016122a6565b50505050905090810190601f1680156122eb5780820380516001836020036101000a031916815260200191505b50838103825284518152845160209182019186019080838360005b8381101561231e578181015183820152602001612306565b50505050905090810190601f16801561234b5780820380516001836020036101000a031916815260200191505b50975050505050505050602060405180830381600087803b15801561236f57600080fd5b505af1158015612383573d6000803e3d6000fd5b505050506040513d602081101561239957600080fd5b505160188054600160a060020a031916600160a060020a039092169190911790556040517ff3b59e90e5cdf1aaf6448e0f5614fcc90be9ac608bc56bf7ff0e7ca4e9aedcec90600090a1505050505050505050505050565b600054600254600154600354600454600554600160a060020a039586169694861695938416949284169391821692911690565b61242c615c52565b6000546040805180820190915260168152600080516020615d2b8339815191526020820152606091600160a060020a031633146124ae5760405160e560020a62461bcd028152600401808060200182810382528381815181526020019150805190602001908083836000838110156102cd5781810151838201526020016102b5565b5060408051610180810182526006548152600754600160a060020a03908116602080840182905260085483168486015260095483166060850152600a5483166080850152600b54831660a0850152600c54831660c0850152600d54831660e0850152600e548316610100850152600f54831661012085015260105483166101408501526011549092166101608401528351808501909452601a84527f544d504c5f52454749535452595f4e4f545f4445504c4f5945440000000000009184019190915290935015156125c55760405160e560020a62461bcd028152600401808060200182810382528381815181526020019150805190602001908083836000838110156102cd5781810151838201526020016102b5565b506040808301518151808301909252601982527f544d504c5f44414f5f414c52454144595f4445504c4f594544000000000000006020830152600160a060020a0316156126575760405160e560020a62461bcd028152600401808060200182810382528381815181526020019150805190602001908083836000838110156102cd5781810151838201526020016102b5565b506126c289898080601f0160208091040260200160405190810160405280939291908181526020018383808284375050604080516020601f8f018190048102820181019092528d815294508d93508c9250829150840183828082843750601294506147ff9350505050565b600160a060020a031660808301526126d8614992565b600160a060020a039081166060850152166040830181905282516126fb91614b4e565b600160a060020a031660a083018190528251604084015161271f9262278d00614c84565b600160a060020a031660c083015281516040830151608084015161274892919060016000614d64565b600160a060020a031660e083015281516040830151608084015161279392919067ffffffffffffffff893581169060208b0135168a6002602002013567ffffffffffffffff16614ed0565b600160a060020a03166101008301525060408051600081526020810180835282840151606083018452600482527f6c69646f0000000000000000000000000000000000000000000000000000000093830193909352835191926128019290916127fb91614fc2565b83615108565b600160a060020a03166101208301526040808301518151808301909252601782527f6e6f64652d6f70657261746f72732d726567697374727900000000000000000060208301528351612857926127fb91614fc2565b600160a060020a03166101608301526040808301518151808301909252600682527f6f7261636c650000000000000000000000000000000000000000000000000000602083015283516128ad926127fb91614fc2565b600160a060020a039081166101408401819052610120840151604080517f59ae8e9e00000000000000000000000000000000000000000000000000000000815291909316600482015263ffffffff86358116602483015260208701358116604483015286840135811660648301526060870135166084820152620186a060a482015261c35060c4820152915190916359ae8e9e9160e480830192600092919082900301818387803b15801561296157600080fd5b505af1158015612975573d6000803e3d6000fd5b50505050816101600151600160a060020a031663c4d66de88361012001516040518263ffffffff1660e01b81526004018082600160a060020a0316600160a060020a03168152602001915050600060405180830381600087803b1580156129db57600080fd5b505af11580156129ef573d6000803e3d6000fd5b5050505061012082015161014083015161016084015160a0850151604080517f1459457a000000000000000000000000000000000000000000000000000000008152600160a060020a038a8116600483015294851660248201529284166044840152908316606483018190526084830152519190921691631459457a9160a480830192600092919082900301818387803b158015612a8c57600080fd5b505af1158015612aa0573d6000803e3d6000fd5b50505050612ab682606001518360e0015161511f565b60408083015160808401518251600160a060020a0392831681529116602082015281517f734ec4fafebdb76c8524b574bff42be73ca27012f63d2a888e2269350746b8c2929181900390910190a1508051600655602081015160078054600160a060020a0319908116600160a060020a0393841617909155604083015160088054831691841691909117905560608301516009805483169184169190911790556080830151600a8054831691841691909117905560a0830151600b8054831691841691909117905560c0830151600c8054831691841691909117905560e0830151600d80548316918416919091179055610100830151600e80548316918416919091179055610120830151600f805483169184169190911790556101408301516010805483169184169190911790556101609092015160118054909316911617905550505050505050565b604080517fbe0384780000000000000000000000000000000000000000000000000000000081523060048201819052600160a060020a03858116602484015260448301859052606483019190915291519185169163be0384789160848082019260009290919082900301818387803b158015612c7c57600080fd5b505af1158015612c90573d6000803e3d6000fd5b50505050505050565b604080517f9d0effdb000000000000000000000000000000000000000000000000000000008152306004820152600160a060020a03848116602483015260448201849052915191851691639d0effdb9160648082019260009290919082900301818387803b158015612d0a57600080fd5b505af1158015612d1e573d6000803e3d6000fd5b5050604080517fa885508a000000000000000000000000000000000000000000000000000000008152600160a060020a038681166004830152602482018690529151918716935063a885508a925060448082019260009290919082900301818387803b158015612c7c57600080fd5b600080600080600080612d9e615d0a565b6000612da8615d0a565b8a6060015198508a61010001519750612dc6898c60a001518a6151a3565b612dda898c60a001518d60c001518b615255565b612de9898c60c001518a615345565b612df38989615405565b612e0289898d60e00151615546565b612e11898c60e001518a615698565b8a60200151600160a060020a031663d4aae0c46040518163ffffffff1660e01b8152600401602060405180830381600087803b158015612e5057600080fd5b505af1158015612e64573d6000803e3d6000fd5b505050506040513d6020811015612e7a57600080fd5b5051604080517fde2873590000000000000000000000000000000000000000000000000000000081529051919850600160a060020a0389169163de287359916004808201926020929091908290030181600087803b158015612edb57600080fd5b505af1158015612eef573d6000803e3d6000fd5b505050506040513d6020811015612f0557600080fd5b50518a51604080517faa61924a0000000000000000000000000000000000000000000000000000000081529051929850600160a060020a039091169163aa61924a916004808201926020929091908290030181600087803b158015612f6957600080fd5b505af1158015612f7d573d6000803e3d6000fd5b505050506040513d6020811015612f9357600080fd5b505160208c810151604080517f2b20e3970000000000000000000000000000000000000000000000000000000081529051939850600160a060020a0390911692632b20e397926004808401939192918290030181600087803b158015612ff857600080fd5b505af115801561300c573d6000803e3d6000fd5b505050506040513d602081101561302257600080fd5b505160208c810151604080517f5e1f3fa800000000000000000000000000000000000000000000000000000000815290519397506130bf938a938d92600160a060020a03851692635e1f3fa8926004808401939192918290030181600087803b15801561308e57600080fd5b505af11580156130a2573d6000803e3d6000fd5b505050506040513d60208110156130b857600080fd5b5051615789565b85600160a060020a031663afd925df89898a600160a060020a0316638ea8dc9d6040518163ffffffff1660e01b8152600401602060405180830381600087803b15801561310b57600080fd5b505af115801561311f573d6000803e3d6000fd5b505050506040513d602081101561313557600080fd5b50516040805163ffffffff861660e01b8152600160a060020a03948516600482015292909316602483015260448201529051606480830192600092919082900301818387803b15801561318757600080fd5b505af115801561319b573d6000803e3d6000fd5b505050506131e086878a89600160a060020a0316633d6ab68f6040518163ffffffff1660e01b8152600401602060405180830381600087803b15801561308e57600080fd5b85600160a060020a031663afd925df898687600160a060020a031663fef47e386040518163ffffffff1660e01b8152600401602060405180830381600087803b15801561322c57600080fd5b505af1158015613240573d6000803e3d6000fd5b505050506040513d602081101561325657600080fd5b50516040805163ffffffff861660e01b8152600160a060020a03948516600482015292909316602483015260448201529051606480830192600092919082900301818387803b1580156132a857600080fd5b505af11580156132bc573d6000803e3d6000fd5b5050505085600160a060020a031663afd925df898687600160a060020a031663307482cf6040518163ffffffff1660e01b8152600401602060405180830381600087803b15801561330c57600080fd5b505af1158015613320573d6000803e3d6000fd5b505050506040513d602081101561333657600080fd5b50516040805163ffffffff861660e01b8152600160a060020a03948516600482015292909316602483015260448201529051606480830192600092919082900301818387803b15801561338857600080fd5b505af115801561339c573d6000803e3d6000fd5b50508b5191508490506000600160a060020a03909216602092830291909101528a0151836001600160a060020a03909216602092909202015260408a0151836002600160a060020a03909216602092909202015260608a0151836003600160a060020a03909216602092909202015260808a0151836004600160a060020a03909216602092909202015260a08a0151836005600160a060020a03909216602092909202015260c08a01518360066020020190600160a060020a03169081600160a060020a0316815250506134b16134ac6040805190810160405280600c81526020017f61706d2d726567697374727900000000000000000000000000000000000000008152508d60000151614fc2565b61579c565b600160a060020a031660e084015260408051808201909152600881527f61706d2d7265706f00000000000000000000000000000000000000000000000060208201528b51613502916134ac91614fc2565b600160a060020a031661010084015260408051808201909152600a81527f61706d2d656e737375620000000000000000000000000000000000000000000060208201528b51613554916134ac91614fc2565b600160a060020a0316610120840152600091505b600a8210156135985761358d868484600a811061358157fe5b60200201518a88615789565b816001019150613568565b8a6101400151600160a060020a0316636e93beb86040518163ffffffff1660e01b8152600401602060405180830381600087803b1580156135d857600080fd5b505af11580156135ec573d6000803e3d6000fd5b505050506040513d602081101561360257600080fd5b505181526101408b0151604080517f2fa689bb0000000000000000000000000000000000000000000000000000000081529051600160a060020a0390921691632fa689bb916004808201926020929091908290030181600087803b15801561366957600080fd5b505af115801561367d573d6000803e3d6000fd5b505050506040513d602081101561369357600080fd5b50516020808301919091526101408c0151604080517fa01f04860000000000000000000000000000000000000000000000000000000081529051600160a060020a039092169263a01f0486926004808401938290030181600087803b1580156136fb57600080fd5b505af115801561370f573d6000803e3d6000fd5b505050506040513d602081101561372557600080fd5b50516040808301919091526101408c015181517fb97d55960000000000000000000000000000000000000000000000000000000081529151600160a060020a039091169163b97d55969160048083019260209291908290030181600087803b15801561379057600080fd5b505af11580156137a4573d6000803e3d6000fd5b505050506040513d60208110156137ba57600080fd5b505160608201526101408b0151604080517f6b7885730000000000000000000000000000000000000000000000000000000081529051600160a060020a0390921691636b788573916004808201926020929091908290030181600087803b15801561382457600080fd5b505af1158015613838573d6000803e3d6000fd5b505050506040513d602081101561384e57600080fd5b50516080820152600091505b600582101561389157613886898c61014001518385600a8110151561387b57fe5b60200201518b6158c4565b81600101915061385a565b8a6101600151600160a060020a031663f31bd9c16040518163ffffffff1660e01b8152600401602060405180830381600087803b1580156138d157600080fd5b505af11580156138e5573d6000803e3d6000fd5b505050506040513d60208110156138fb57600080fd5b505181526101608b0151604080517f7294d6850000000000000000000000000000000000000000000000000000000081529051600160a060020a0390921691637294d685916004808201926020929091908290030181600087803b15801561396257600080fd5b505af1158015613976573d6000803e3d6000fd5b505050506040513d602081101561398c57600080fd5b50516020808301919091526101608c0151604080517fd6e1c2cc0000000000000000000000000000000000000000000000000000000081529051600160a060020a039092169263d6e1c2cc926004808401938290030181600087803b1580156139f457600080fd5b505af1158015613a08573d6000803e3d6000fd5b505050506040513d6020811015613a1e57600080fd5b50516040808301919091526101608c015181517f696026070000000000000000000000000000000000000000000000000000000081529151600160a060020a039091169163696026079160048083019260209291908290030181600087803b158015613a8957600080fd5b505af1158015613a9d573d6000803e3d6000fd5b505050506040513d6020811015613ab357600080fd5b505160608201526101608b0151604080517f5a9fc07e0000000000000000000000000000000000000000000000000000000081529051600160a060020a0390921691635a9fc07e916004808201926020929091908290030181600087803b158015613b1d57600080fd5b505af1158015613b31573d6000803e3d6000fd5b505050506040513d6020811015613b4757600080fd5b505160808201526101608b0151604080517fd8e71cd10000000000000000000000000000000000000000000000000000000081529051600160a060020a039092169163d8e71cd1916004818101926020929091908290030181600087803b158015613bb157600080fd5b505af1158015613bc5573d6000803e3d6000fd5b505050506040513d6020811015613bdb57600080fd5b505160a08201526101608b0151604080517fcb10af070000000000000000000000000000000000000000000000000000000081529051600160a060020a039092169163cb10af07916004808201926020929091908290030181600087803b158015613c4557600080fd5b505af1158015613c59573d6000803e3d6000fd5b505050506040513d6020811015613c6f57600080fd5b505160c0820152600091505b6007821015613ca757613c9c898c61016001518385600a8110151561387b57fe5b816001019150613c7b565b8a6101200151600160a060020a031663389ed2676040518163ffffffff1660e01b8152600401602060405180830381600087803b158015613ce757600080fd5b505af1158015613cfb573d6000803e3d6000fd5b505050506040513d6020811015613d1157600080fd5b505181526101208b0151604080517f9aaa2d150000000000000000000000000000000000000000000000000000000081529051600160a060020a0390921691639aaa2d15916004808201926020929091908290030181600087803b158015613d7857600080fd5b505af1158015613d8c573d6000803e3d6000fd5b505050506040513d6020811015613da257600080fd5b50516020808301919091526101208c0151604080517f435721da0000000000000000000000000000000000000000000000000000000081529051600160a060020a039092169263435721da926004808401938290030181600087803b158015613e0a57600080fd5b505af1158015613e1e573d6000803e3d6000fd5b505050506040513d6020811015613e3457600080fd5b50516040808301919091526101208c015181517f7f6fdac70000000000000000000000000000000000000000000000000000000081529151600160a060020a0390911691637f6fdac79160048083019260209291908290030181600087803b158015613e9f57600080fd5b505af1158015613eb3573d6000803e3d6000fd5b505050506040513d6020811015613ec957600080fd5b505160608201526101208b0151604080517fb930908f0000000000000000000000000000000000000000000000000000000081529051600160a060020a039092169163b930908f916004808201926020929091908290030181600087803b158015613f3357600080fd5b505af1158015613f47573d6000803e3d6000fd5b505050506040513d6020811015613f5d57600080fd5b505160808201526101208b0151604080517f2de03aa10000000000000000000000000000000000000000000000000000000081529051600160a060020a0390921691632de03aa1916004818101926020929091908290030181600087803b158015613fc757600080fd5b505af1158015613fdb573d6000803e3d6000fd5b505050506040513d6020811015613ff157600080fd5b505160a08201526101208b0151604080517feb85262f0000000000000000000000000000000000000000000000000000000081529051600160a060020a039092169163eb85262f916004808201926020929091908290030181600087803b15801561405b57600080fd5b505af115801561406f573d6000803e3d6000fd5b505050506040513d602081101561408557600080fd5b505160c08201526101208b0151604080517f136dd43c0000000000000000000000000000000000000000000000000000000081529051600160a060020a039092169163136dd43c916004808201926020929091908290030181600087803b1580156140ef57600080fd5b505af1158015614103573d6000803e3d6000fd5b505050506040513d602081101561411957600080fd5b505160e08201526101208b0151604080517fa6426f5f0000000000000000000000000000000000000000000000000000000081529051600160a060020a039092169163a6426f5f916004808201926020929091908290030181600087803b15801561418357600080fd5b505af1158015614197573d6000803e3d6000fd5b505050506040513d60208110156141ad57600080fd5b50516101008201526101208b0151604080517f6bb98ad30000000000000000000000000000000000000000000000000000000081529051600160a060020a0390921691636bb98ad3916004808201926020929091908290030181600087803b15801561421857600080fd5b505af115801561422c573d6000803e3d6000fd5b505050506040513d602081101561424257600080fd5b5051610120820152600091505b600a82101561427b57614270898c61012001518385600a8110151561387b57fe5b81600101915061424f565b5050505050505050505050565b600082600160a060020a031663de2873596040518163ffffffff1660e01b8152600401602060405180830381600087803b1580156142c557600080fd5b505af11580156142d9573d6000803e3d6000fd5b505050506040513d60208110156142ef57600080fd5b5051604080517f8ea8dc9d000000000000000000000000000000000000000000000000000000008152905191925061438c91839186918691600160a060020a03841691638ea8dc9d916004808201926020929091908290030181600087803b15801561435a57600080fd5b505af115801561436e573d6000803e3d6000fd5b505050506040513d602081101561438457600080fd5b50518661593e565b6143cd81828484600160a060020a0316633d6ab68f6040518163ffffffff1660e01b8152600401602060405180830381600087803b15801561435a57600080fd5b505050565b600060065560078054600160a060020a031990811690915560088054821690556009805482169055600a805482169055600b805482169055600c805482169055600d805482169055600e805482169055600f80548216905560108054821690556011805482169055601280548216905560138054821690556014805482169055601580548216905560168054821690556017805482169055601880549091169055565b6000805b88518110156144a757878181518110151561449057fe5b602090810290910101519190910190600101614479565b8a600160a060020a031663cc872b66836040518263ffffffff1660e01b815260040180828152602001915050600060405180830381600087803b1580156144ed57600080fd5b505af1158015614501573d6000803e3d6000fd5b50505050828a600160a060020a03166318160ddd6040518163ffffffff1660e01b8152600401602060405180830381600087803b15801561454157600080fd5b505af1158015614555573d6000803e3d6000fd5b505050506040513d602081101561456b57600080fd5b505160408051808201909152601c81527f544d504c5f554e45585045435445445f544f54414c5f535550504c5900000000602082015291146145f25760405160e560020a62461bcd028152600401808060200182810382528381815181526020019150805190602001908083836000838110156102cd5781810151838201526020016102b5565b50600090505b88518110156146e2578a600160a060020a03166321cb18cd8a8381518110151561461e57fe5b906020019060200201518a8481518110151561463657fe5b60209081029091018101516040805163ffffffff861660e01b8152600160a060020a039094166004850152602484019190915267ffffffffffffffff808d166044850152808c1660648501528a16608484015288151560a48401525160c4808401938290030181600087803b1580156146ae57600080fd5b505af11580156146c2573d6000803e3d6000fd5b505050506040513d60208110156146d857600080fd5b50506001016145f8565b509998505050505050505050565b6146f8615cf2565b60008060606147068561579c565b925082600160a060020a031663c36af4606040518163ffffffff1660e01b8152600401600060405180830381600087803b15801561474357600080fd5b505af1158015614757573d6000803e3d6000fd5b505050506040513d6000823e601f3d908101601f1916820160405260a081101561478057600080fd5b606082015160808301805191928401918491906401000000008111156147a557600080fd5b820160208101848111156147b857600080fd5b81516401000000008111828201871017156147d257600080fd5b505060408051808201909152600160a060020a039590951685526020850152509198975050505050505050565b6003546040517f5b7b72c10000000000000000000000000000000000000000000000000000000081526000600482018181526024830182905260ff85166064840152600160a4840181905260c060448501908152885160c4860152885193958695600160a060020a0390911694635b7b72c194879485948d948c948e949291608481019160e49091019060208901908083838d5b838110156148ab578181015183820152602001614893565b50505050905090810190601f1680156148d85780820380516001836020036101000a031916815260200191505b50838103825285518152855160209182019187019080838360005b8381101561490b5781810151838201526020016148f3565b50505050905090810190601f1680156149385780820380516001836020036101000a031916815260200191505b5098505050505050505050602060405180830381600087803b15801561495d57600080fd5b505af1158015614971573d6000803e3d6000fd5b505050506040513d602081101561498757600080fd5b505195945050505050565b600254604080517f2168744400000000000000000000000000000000000000000000000000000000815230600482015290516000928392600160a060020a039091169163216874449160248082019260209290919082900301818787803b1580156149fc57600080fd5b505af1158015614a10573d6000803e3d6000fd5b505050506040513d6020811015614a2657600080fd5b5051604080517fde2873590000000000000000000000000000000000000000000000000000000081529051919350600160a060020a0384169163de287359916004808201926020929091908290030181600087803b158015614a8757600080fd5b505af1158015614a9b573d6000803e3d6000fd5b505050506040513d6020811015614ab157600080fd5b5051604080517f8ea8dc9d0000000000000000000000000000000000000000000000000000000081529051919250614b4a9183918591600160a060020a03831691638ea8dc9d9160048083019260209291908290030181600087803b158015614b1957600080fd5b505af1158015614b2d573d6000803e3d6000fd5b505050506040513d6020811015614b4357600080fd5b5051612c01565b9091565b60008060606000614b946040805190810160405280600c81526020017f617261676f6e2d6167656e74000000000000000000000000000000000000000081525087614fc2565b6040805160048152602481019091526020810180517bffffffffffffffffffffffffffffffffffffffffffffffffffffffff167f8129fc1c000000000000000000000000000000000000000000000000000000001790529093509150614bfd8584846001615ae4565b604080517f8c61757d000000000000000000000000000000000000000000000000000000008152600481018690529051919250600160a060020a03871691638c61757d9160248082019260009290919082900301818387803b158015614c6257600080fd5b505af1158015614c76573d6000803e3d6000fd5b509298975050505050505050565b6000806060614cc86040805190810160405280600e81526020017f617261676f6e2d66696e616e636500000000000000000000000000000000000081525088614fc2565b60408051600160a060020a038816602482015267ffffffffffffffff87166044808301919091528251808303909101815260649091019091526020810180517bffffffffffffffffffffffffffffffffffffffffffffffffffffffff167f1798de81000000000000000000000000000000000000000000000000000000001790529092509050614d59868383615108565b979650505050505050565b6000806000614da86040805190810160405280601481526020017f617261676f6e2d746f6b656e2d6d616e6167657200000000000000000000000081525089614fc2565b604080516000815260208101909152909250614dc79088908490615108565b905085600160a060020a0316633cebb823826040518263ffffffff1660e01b81526004018082600160a060020a0316600160a060020a03168152602001915050600060405180830381600087803b158015614e2157600080fd5b505af1158015614e35573d6000803e3d6000fd5b5050604080517fe37ff29f000000000000000000000000000000000000000000000000000000008152600160a060020a038a811660048301528915156024830152604482018990529151918516935063e37ff29f925060648082019260009290919082900301818387803b158015614eac57600080fd5b505af1158015614ec0573d6000803e3d6000fd5b50929a9950505050505050505050565b6000806060614f146040805190810160405280600d81526020017f617261676f6e2d766f74696e67000000000000000000000000000000000000008152508a614fc2565b60408051600160a060020a038a16602482015267ffffffffffffffff808a166044830152808916606483015287166084808301919091528251808303909101815260a49091019091526020810180517bffffffffffffffffffffffffffffffffffffffffffffffffffffffff167fdf3d3305000000000000000000000000000000000000000000000000000000001790529092509050614fb5888383615108565b9998505050505050505050565b600081836040516020018082805190602001908083835b60208310614ff85780518252601f199092019160209182019101614fd9565b6001836020036101000a0380198251168184511680821785525050505050509050019150506040516020818303038152906040526040518082805190602001908083835b6020831061505b5780518252601f19909201916020918201910161503c565b51815160209384036101000a6000190180199092169116179052604080519290940182900382208282019790975281840196909652825180820384018152606090910192839052805190959294508493509185019190508083835b602083106150d55780518252601f1990920191602091820191016150b6565b5181516020939093036101000a600019018019909116921691909117905260405192018290039091209695505050505050565b60006151178484846000615ae4565b949350505050565b61515f828283600160a060020a031663856222f16040518163ffffffff1660e01b8152600401602060405180830381600087803b158015614b1957600080fd5b61519f828283600160a060020a031663a51d9a8e6040518163ffffffff1660e01b8152600401602060405180830381600087803b158015614b1957600080fd5b5050565b615215838384600160a060020a0316635fa5e4e66040518163ffffffff1660e01b8152600401602060405180830381600087803b1580156151e357600080fd5b505af11580156151f7573d6000803e3d6000fd5b505050506040513d602081101561520d57600080fd5b5051846158c4565b6143cd838384600160a060020a031663368c3c346040518163ffffffff1660e01b8152600401602060405180830381600087803b1580156151e357600080fd5b83600160a060020a031663be038478838586600160a060020a031663206b60f96040518163ffffffff1660e01b8152600401602060405180830381600087803b1580156152a157600080fd5b505af11580156152b5573d6000803e3d6000fd5b505050506040513d60208110156152cb57600080fd5b50516040805163ffffffff861660e01b8152600160a060020a0394851660048201529284166024840152604483019190915291851660648201529051608480830192600092919082900301818387803b15801561532757600080fd5b505af115801561533b573d6000803e3d6000fd5b5050505050505050565b615385838384600160a060020a031663981cc3426040518163ffffffff1660e01b8152600401602060405180830381600087803b1580156151e357600080fd5b6153c5838384600160a060020a031663e94ebac56040518163ffffffff1660e01b8152600401602060405180830381600087803b1580156151e357600080fd5b6143cd838384600160a060020a0316630842ace46040518163ffffffff1660e01b8152600401602060405180830381600087803b1580156151e357600080fd5b600082600160a060020a031663a479e5086040518163ffffffff1660e01b8152600401602060405180830381600087803b15801561544257600080fd5b505af1158015615456573d6000803e3d6000fd5b505050506040513d602081101561546c57600080fd5b5051604080517fbd8fde1c00000000000000000000000000000000000000000000000000000000815290519192506155069185918491600160a060020a0383169163bd8fde1c9160048083019260209291908290030181600087803b1580156154d457600080fd5b505af11580156154e8573d6000803e3d6000fd5b505050506040513d60208110156154fe57600080fd5b5051856158c4565b6143cd838283600160a060020a03166319f3d10f6040518163ffffffff1660e01b8152600401602060405180830381600087803b1580156154d457600080fd5b615586838384600160a060020a0316633c624c756040518163ffffffff1660e01b8152600401602060405180830381600087803b1580156154d457600080fd5b6155c6838384600160a060020a03166362de7e5a6040518163ffffffff1660e01b8152600401602060405180830381600087803b1580156154d457600080fd5b82600160a060020a031663be038478828485600160a060020a031663be2c64d46040518163ffffffff1660e01b8152600401602060405180830381600087803b15801561561257600080fd5b505af1158015615626573d6000803e3d6000fd5b505050506040513d602081101561563c57600080fd5b50516040805163ffffffff861660e01b8152600160a060020a0394851660048201529284166024840152604483019190915291861660648201529051608480830192600092919082900301818387803b158015612c7c57600080fd5b615709838384600160a060020a031663856222f16040518163ffffffff1660e01b8152600401602060405180830381600087803b1580156156d857600080fd5b505af11580156156ec573d6000803e3d6000fd5b505050506040513d602081101561570257600080fd5b5051612c99565b615749838384600160a060020a031663a51d9a8e6040518163ffffffff1660e01b8152600401602060405180830381600087803b1580156156d857600080fd5b6143cd838384600160a060020a031663a51d9a8e6040518163ffffffff1660e01b8152600401602060405180830381600087803b1580156151e357600080fd5b615796848484848661593e565b50505050565b600154604080517f0178b8bf000000000000000000000000000000000000000000000000000000008152600481018490529051600092600160a060020a031691630178b8bf91602480830192602092919082900301818787803b15801561580257600080fd5b505af1158015615816573d6000803e3d6000fd5b505050506040513d602081101561582c57600080fd5b5051604080517f3b3b57de000000000000000000000000000000000000000000000000000000008152600481018590529051600160a060020a0390921691633b3b57de916024808201926020929091908290030181600087803b15801561589257600080fd5b505af11580156158a6573d6000803e3d6000fd5b505050506040513d60208110156158bc57600080fd5b505192915050565b604080517fbe038478000000000000000000000000000000000000000000000000000000008152600160a060020a0383811660048301819052868216602484015260448301869052606483015291519186169163be0384789160848082019260009290919082900301818387803b15801561532757600080fd5b604080517f0a8ed3db000000000000000000000000000000000000000000000000000000008152600160a060020a038581166004830152868116602483015260448201859052915191871691630a8ed3db9160648082019260009290919082900301818387803b1580156159b157600080fd5b505af11580156159c5573d6000803e3d6000fd5b5050604080517f9d0effdb000000000000000000000000000000000000000000000000000000008152306004820152600160a060020a0388811660248301526044820187905291519189169350639d0effdb925060648082019260009290919082900301818387803b158015615a3a57600080fd5b505af1158015615a4e573d6000803e3d6000fd5b5050604080517fafd925df000000000000000000000000000000000000000000000000000000008152600160a060020a0385811660048301528881166024830152604482018790529151918916935063afd925df925060648082019260009290919082900301818387803b158015615ac557600080fd5b505af1158015615ad9573d6000803e3d6000fd5b505050505050505050565b6000806000615af2866146f0565b516040517f397edd4100000000000000000000000000000000000000000000000000000000815260048101888152600160a060020a0380841660248401528715156064840152608060448401908152895160848501528951949650908b169363397edd41938b9388938c938c9360a40190602086019080838360005b83811015615b86578181015183820152602001615b6e565b50505050905090810190601f168015615bb35780820380516001836020036101000a031916815260200191505b5095505050505050602060405180830381600087803b158015615bd557600080fd5b505af1158015615be9573d6000803e3d6000fd5b505050506040513d6020811015615bff57600080fd5b505160408051600160a060020a03831681526020810189905281519293507fafba0b40de8e9799e48ddcd835d7e3f902476425682aa774bb7b44b3f457d3b3929081900390910190a19695505050505050565b6040805161018081018252600080825260208201819052918101829052606081018290526080810182905260a0810182905260c0810182905260e0810182905261010081018290526101208101829052610140810182905261016081019190915290565b6040805160e081018252600080825260208201819052918101829052606081018290526080810182905260a0810182905260c081019190915290565b60408051808201909152600081526060602082015290565b61014060405190810160405280600a9060208202803883395091929150505600544d504c5f5045524d495353494f4e5f44454e49454400000000000000000000a165627a7a723058201cfe4ce872a030c8312272144dc3660b547a667e62e22533324a231e3b0a0f7c0029",
    "linkReferences": {}
  },
  "methodIdentifiers": {
    "cancelAndTransferDomain(bytes32,address)": "923a4a07",
    "createRepos(uint16[3],address,bytes,address,bytes,address,bytes)": "a2e68b24",
    "deployLidoAPM(bytes32,bytes32)": "6953776c",
    "finalizeDAO(string,uint16,uint16,uint16,uint16,uint256)": "3e25181c",
    "getConfig()": "c3f909d4",
    "issueTokens(address[],uint256[],uint64,uint64,uint64,bool,uint256)": "6e9de8e7",
    "newDAO(string,string,uint64[3],address,uint32[4])": "c97d7137",
    "setOwner(address)": "13af4035"
  },
  "storageLayout": {
    "storage": [],
    "types": {}
  },
  "id": 21
}