{
  "abi": [
    {
      "constant": true,
      "inputs": [],
      "name": "isDepositable",
      "outputs": [
        {
          "name": "",
          "type": "bool"
        }
      ],
      "payable": false,
      "stateMutability": "view",
      "type": "function"
    }
  ],
  "bytecode": {
    "object": "0x608060405234801561001057600080fd5b5060ab8061001f6000396000f30060806040526004361060225760003560e01c63ffffffff16806348a0c8dd146027575b600080fd5b348015603257600080fd5b506039604d565b604080519115158252519081900360200190f35b600060767f665fd576fbbe6f247aff98f5c94a561e3f71ec2d3c988d56f12d342396c50cea607b565b905090565b54905600a165627a7a72305820f24b67c914f13515ca627dbfc5f19a75f63c5eb5a74e170d1d80ddffa7f1f99b0029",
    "linkReferences": {}
  },
  "methodIdentifiers": {
    "isDepositable()": "48a0c8dd"
  },
  "storageLayout": {
    "storage": [],
    "types": {}
  },
  "id": 64
}