{
  "abi": [
    {
      "constant": true,
      "inputs": [],
      "name": "hasInitialized",
      "outputs": [
        {
          "name": "",
          "type": "bool"
        }
      ],
      "payable": false,
      "stateMutability": "view",
      "type": "function"
    },
    {
      "constant": true,
      "inputs": [
        {
          "name": "_script",
          "type": "bytes"
        }
      ],
      "name": "getEVMScriptExecutor",
      "outputs": [
        {
          "name": "",
          "type": "address"
        }
      ],
      "payable": false,
      "stateMutability": "view",
      "type": "function"
    },
    {
      "constant": true,
      "inputs": [],
      "name": "getRecoveryVault",
      "outputs": [
        {
          "name": "",
          "type": "address"
        }
      ],
      "payable": false,
      "stateMutability": "view",
      "type": "function"
    },
    {
      "constant": true,
      "inputs": [],
      "name": "MODIFY_QUORUM_ROLE",
      "outputs": [
        {
          "name": "",
          "type": "bytes32"
        }
      ],
      "payable": false,
      "stateMutability": "view",
      "type": "function"
    },
    {
      "constant": true,
      "inputs": [
        {
          "name": "_voteId",
          "type": "uint256"
        },
        {
          "name": "_voter",
          "type": "address"
        }
      ],
      "name": "getVoterState",
      "outputs": [
        {
          "name": "",
          "type": "uint8"
        }
      ],
      "payable": false,
      "stateMutability": "view",
      "type": "function"
    },
    {
      "constant": true,
      "inputs": [
        {
          "name": "_voteId",
          "type": "uint256"
        }
      ],
      "name": "getVote",
      "outputs": [
        {
          "name": "open",
          "type": "bool"
        },
        {
          "name": "executed",
          "type": "bool"
        },
        {
          "name": "startDate",
          "type": "uint64"
        },
        {
          "name": "snapshotBlock",
          "type": "uint64"
        },
        {
          "name": "supportRequired",
          "type": "uint64"
        },
        {
          "name": "minAcceptQuorum",
          "type": "uint64"
        },
        {
          "name": "yea",
          "type": "uint256"
        },
        {
          "name": "nay",
          "type": "uint256"
        },
        {
          "name": "votingPower",
          "type": "uint256"
        },
        {
          "name": "script",
          "type": "bytes"
        }
      ],
      "payable": false,
      "stateMutability": "view",
      "type": "function"
    },
    {
      "constant": false,
      "inputs": [
        {
          "name": "_minAcceptQuorumPct",
          "type": "uint64"
        }
      ],
      "name": "changeMinAcceptQuorumPct",
      "outputs": [],
      "payable": false,
      "stateMutability": "nonpayable",
      "type": "function"
    },
    {
      "constant": true,
      "inputs": [],
      "name": "MODIFY_SUPPORT_ROLE",
      "outputs": [
        {
          "name": "",
          "type": "bytes32"
        }
      ],
      "payable": false,
      "stateMutability": "view",
      "type": "function"
    },
    {
      "constant": false,
      "inputs": [
        {
          "name": "_supportRequiredPct",
          "type": "uint64"
        }
      ],
      "name": "changeSupportRequiredPct",
      "outputs": [],
      "payable": false,
      "stateMutability": "nonpayable",
      "type": "function"
    },
    {
      "constant": true,
      "inputs": [
        {
          "name": "token",
          "type": "address"
        }
      ],
      "name": "allowRecoverability",
      "outputs": [
        {
          "name": "",
          "type": "bool"
        }
      ],
      "payable": false,
      "stateMutability": "view",
      "type": "function"
    },
    {
      "constant": true,
      "inputs": [],
      "name": "appId",
      "outputs": [
        {
          "name": "",
          "type": "bytes32"
        }
      ],
      "payable": false,
      "stateMutability": "view",
      "type": "function"
    },
    {
      "constant": true,
      "inputs": [],
      "name": "getInitializationBlock",
      "outputs": [
        {
          "name": "",
          "type": "uint256"
        }
      ],
      "payable": false,
      "stateMutability": "view",
      "type": "function"
    },
    {
      "constant": false,
      "inputs": [
        {
          "name": "_token",
          "type": "address"
        }
      ],
      "name": "transferToVault",
      "outputs": [],
      "payable": false,
      "stateMutability": "nonpayable",
      "type": "function"
    },
    {
      "constant": true,
      "inputs": [
        {
          "name": "_sender",
          "type": "address"
        },
        {
          "name": "_role",
          "type": "bytes32"
        },
        {
          "name": "_params",
          "type": "uint256[]"
        }
      ],
      "name": "canPerform",
      "outputs": [
        {
          "name": "",
          "type": "bool"
        }
      ],
      "payable": false,
      "stateMutability": "view",
      "type": "function"
    },
    {
      "constant": true,
      "inputs": [],
      "name": "getEVMScriptRegistry",
      "outputs": [
        {
          "name": "",
          "type": "address"
        }
      ],
      "payable": false,
      "stateMutability": "view",
      "type": "function"
    },
    {
      "constant": true,
      "inputs": [],
      "name": "voteTime",
      "outputs": [
        {
          "name": "",
          "type": "uint64"
        }
      ],
      "payable": false,
      "stateMutability": "view",
      "type": "function"
    },
    {
      "constant": true,
      "inputs": [],
      "name": "CREATE_VOTES_ROLE",
      "outputs": [
        {
          "name": "",
          "type": "bytes32"
        }
      ],
      "payable": false,
      "stateMutability": "view",
      "type": "function"
    },
    {
      "constant": true,
      "inputs": [
        {
          "name": "_sender",
          "type": "address"
        },
        {
          "name": "",
          "type": "bytes"
        }
      ],
      "name": "canForward",
      "outputs": [
        {
          "name": "",
          "type": "bool"
        }
      ],
      "payable": false,
      "stateMutability": "view",
      "type": "function"
    },
    {
      "constant": true,
      "inputs": [
        {
          "name": "_voteId",
          "type": "uint256"
        }
      ],
      "name": "canExecute",
      "outputs": [
        {
          "name": "",
          "type": "bool"
        }
      ],
      "payable": false,
      "stateMutability": "view",
      "type": "function"
    },
    {
      "constant": true,
      "inputs": [
        {
          "name": "_voteId",
          "type": "uint256"
        },
        {
          "name": "_voter",
          "type": "address"
        }
      ],
      "name": "canVote",
      "outputs": [
        {
          "name": "",
          "type": "bool"
        }
      ],
      "payable": false,
      "stateMutability": "view",
      "type": "function"
    },
    {
      "constant": true,
      "inputs": [],
      "name": "kernel",
      "outputs": [
        {
          "name": "",
          "type": "address"
        }
      ],
      "payable": false,
      "stateMutability": "view",
      "type": "function"
    },
    {
      "constant": false,
      "inputs": [
        {
          "name": "_executionScript",
          "type": "bytes"
        },
        {
          "name": "_metadata",
          "type": "string"
        }
      ],
      "name": "newVote",
      "outputs": [
        {
          "name": "voteId",
          "type": "uint256"
        }
      ],
      "payable": false,
      "stateMutability": "nonpayable",
      "type": "function"
    },
    {
      "constant": false,
      "inputs": [
        {
          "name": "_evmScript",
          "type": "bytes"
        }
      ],
      "name": "forward",
      "outputs": [],
      "payable": false,
      "stateMutability": "nonpayable",
      "type": "function"
    },
    {
      "constant": true,
      "inputs": [],
      "name": "minAcceptQuorumPct",
      "outputs": [
        {
          "name": "",
          "type": "uint64"
        }
      ],
      "payable": false,
      "stateMutability": "view",
      "type": "function"
    },
    {
      "constant": true,
      "inputs": [],
      "name": "isPetrified",
      "outputs": [
        {
          "name": "",
          "type": "bool"
        }
      ],
      "payable": false,
      "stateMutability": "view",
      "type": "function"
    },
    {
      "constant": true,
      "inputs": [],
      "name": "votesLength",
      "outputs": [
        {
          "name": "",
          "type": "uint256"
        }
      ],
      "payable": false,
      "stateMutability": "view",
      "type": "function"
    },
    {
      "constant": false,
      "inputs": [
        {
          "name": "_voteId",
          "type": "uint256"
        },
        {
          "name": "_supports",
          "type": "bool"
        },
        {
          "name": "_executesIfDecided",
          "type": "bool"
        }
      ],
      "name": "vote",
      "outputs": [],
      "payable": false,
      "stateMutability": "nonpayable",
      "type": "function"
    },
    {
      "constant": false,
      "inputs": [
        {
          "name": "_token",
          "type": "address"
        },
        {
          "name": "_supportRequiredPct",
          "type": "uint64"
        },
        {
          "name": "_minAcceptQuorumPct",
          "type": "uint64"
        },
        {
          "name": "_voteTime",
          "type": "uint64"
        }
      ],
      "name": "initialize",
      "outputs": [],
      "payable": false,
      "stateMutability": "nonpayable",
      "type": "function"
    },
    {
      "constant": false,
      "inputs": [
        {
          "name": "_executionScript",
          "type": "bytes"
        },
        {
          "name": "_metadata",
          "type": "string"
        },
        {
          "name": "_castVote",
          "type": "bool"
        },
        {
          "name": "_executesIfDecided",
          "type": "bool"
        }
      ],
      "name": "newVote",
      "outputs": [
        {
          "name": "voteId",
          "type": "uint256"
        }
      ],
      "payable": false,
      "stateMutability": "nonpayable",
      "type": "function"
    },
    {
      "constant": false,
      "inputs": [
        {
          "name": "_voteId",
          "type": "uint256"
        }
      ],
      "name": "executeVote",
      "outputs": [],
      "payable": false,
      "stateMutability": "nonpayable",
      "type": "function"
    },
    {
      "constant": true,
      "inputs": [],
      "name": "supportRequiredPct",
      "outputs": [
        {
          "name": "",
          "type": "uint64"
        }
      ],
      "payable": false,
      "stateMutability": "view",
      "type": "function"
    },
    {
      "constant": true,
      "inputs": [],
      "name": "token",
      "outputs": [
        {
          "name": "",
          "type": "address"
        }
      ],
      "payable": false,
      "stateMutability": "view",
      "type": "function"
    },
    {
      "constant": true,
      "inputs": [],
      "name": "PCT_BASE",
      "outputs": [
        {
          "name": "",
          "type": "uint64"
        }
      ],
      "payable": false,
      "stateMutability": "view",
      "type": "function"
    },
    {
      "constant": true,
      "inputs": [],
      "name": "isForwarder",
      "outputs": [
        {
          "name": "",
          "type": "bool"
        }
      ],
      "payable": false,
      "stateMutability": "pure",
      "type": "function"
    },
    {
      "anonymous": false,
      "inputs": [
        {
          "indexed": true,
          "name": "voteId",
          "type": "uint256"
        },
        {
          "indexed": true,
          "name": "creator",
          "type": "address"
        },
        {
          "indexed": false,
          "name": "metadata",
          "type": "string"
        }
      ],
      "name": "StartVote",
      "type": "event"
    },
    {
      "anonymous": false,
      "inputs": [
        {
          "indexed": true,
          "name": "voteId",
          "type": "uint256"
        },
        {
          "indexed": true,
          "name": "voter",
          "type": "address"
        },
        {
          "indexed": false,
          "name": "supports",
          "type": "bool"
        },
        {
          "indexed": false,
          "name": "stake",
          "type": "uint256"
        }
      ],
      "name": "CastVote",
      "type": "event"
    },
    {
      "anonymous": false,
      "inputs": [
        {
          "indexed": true,
          "name": "voteId",
          "type": "uint256"
        }
      ],
      "name": "ExecuteVote",
      "type": "event"
    },
    {
      "anonymous": false,
      "inputs": [
        {
          "indexed": false,
          "name": "supportRequiredPct",
          "type": "uint64"
        }
      ],
      "name": "ChangeSupportRequired",
      "type": "event"
    },
    {
      "anonymous": false,
      "inputs": [
        {
          "indexed": false,
          "name": "minAcceptQuorumPct",
          "type": "uint64"
        }
      ],
      "name": "ChangeMinQuorum",
      "type": "event"
    },
    {
      "anonymous": false,
      "inputs": [
        {
          "indexed": true,
          "name": "executor",
          "type": "address"
        },
        {
          "indexed": false,
          "name": "script",
          "type": "bytes"
        },
        {
          "indexed": false,
          "name": "input",
          "type": "bytes"
        },
        {
          "indexed": false,
          "name": "returnData",
          "type": "bytes"
        }
      ],
      "name": "ScriptResult",
      "type": "event"
    },
    {
      "anonymous": false,
      "inputs": [
        {
          "indexed": true,
          "name": "vault",
          "type": "address"
        },
        {
          "indexed": true,
          "name": "token",
          "type": "address"
        },
        {
          "indexed": false,
          "name": "amount",
          "type": "uint256"
        }
      ],
      "name": "RecoverToVault",
      "type": "event"
    }
  ],
  "bytecode": {
    "object": "0x6080604052620000146200001a60201b60201c565b62000231565b6200002a6200011c60201b60201c565b60408051808201909152601881527f494e49545f414c52454144595f494e495449414c495a454400000000000000006020820152901562000106576040517f08c379a00000000000000000000000000000000000000000000000000000000081526004018080602001828103825283818151815260200191508051906020019080838360005b83811015620000ca578181015183820152602001620000b0565b50505050905090810190601f168015620000f85780820380516001836020036101000a031916815260200191505b509250505060405180910390fd5b506200011a6000196200014f60201b60201c565b565b60006200014a6000805160206200385383398151915260001b600019166200022960201b62001fc51760201c565b905090565b6200015f6200011c60201b60201c565b60408051808201909152601881527f494e49545f414c52454144595f494e495449414c495a4544000000000000000060208201529015620001fe576040517f08c379a000000000000000000000000000000000000000000000000000000000815260040180806020018281038252838181518152602001915080519060200190808383600083811015620000ca578181015183820152602001620000b0565b506200022660008051602062003853833981519152826200022d602090811b62002da717901c565b50565b5490565b9055565b61361280620002416000396000f30060806040526004361061018f5760003560e01c63ffffffff1680630803fac0146101945780632914b9bd146101bd57806332f0a3b5146102325780633c624c75146102475780634b12311c1461026e5780635a55c1f0146102b65780635eb24332146103dd57806362de7e5a146104015780637c1d0b87146104165780637e7db6e11461043857806380afdea8146104595780638b3dd7491461046e5780639d4941d814610483578063a1658fad146104a4578063a479e5081461050b578063bcf93dd614610520578063be2c64d414610552578063c0774df314610567578063cc63604a146105ce578063cdb2867b146105e6578063d4aae0c41461060a578063d5db2c801461061f578063d948d4681461064b578063dc474b1a146106a4578063de4796ed146106b9578063de4f6347146106ce578063df133bca146106e3578063df3d330514610705578063f4b005131461073f578063f98a4eca14610775578063fad167ab1461078d578063fc0c546a146107a2578063fc157cb4146107b7578063fd64eccb146107cc575b600080fd5b3480156101a057600080fd5b506101a96107e1565b604080519115158252519081900360200190f35b3480156101c957600080fd5b506040805160206004803580820135601f810184900484028501840190955284845261021694369492936024939284019190819084018382808284375094975061080b9650505050505050565b60408051600160a060020a039092168252519081900360200190f35b34801561023e57600080fd5b506102166108ee565b34801561025357600080fd5b5061025c610964565b60408051918252519081900360200190f35b34801561027a57600080fd5b50610292600435600160a060020a0360243516610999565b604051808260028111156102a257fe5b60ff16815260200191505060405180910390f35b3480156102c257600080fd5b506102ce600435610a85565b604051808b1515151581526020018a1515151581526020018967ffffffffffffffff1667ffffffffffffffff1681526020018867ffffffffffffffff1667ffffffffffffffff1681526020018767ffffffffffffffff1667ffffffffffffffff1681526020018667ffffffffffffffff1667ffffffffffffffff16815260200185815260200184815260200183815260200180602001828103825283818151815260200191508051906020019080838360005b83811015610399578181015183820152602001610381565b50505050905090810190601f1680156103c65780820380516001836020036101000a031916815260200191505b509b50505050505050505050505060405180910390f35b3480156103e957600080fd5b506103ff67ffffffffffffffff60043516610c72565b005b34801561040d57600080fd5b5061025c610e36565b34801561042257600080fd5b506103ff67ffffffffffffffff60043516610e6b565b34801561044457600080fd5b506101a9600160a060020a03600435166110e4565b34801561046557600080fd5b5061025c6110ea565b34801561047a57600080fd5b5061025c61111a565b34801561048f57600080fd5b506103ff600160a060020a0360043516611145565b3480156104b057600080fd5b5060408051602060046044358181013583810280860185019096528085526101a9958335600160a060020a03169560248035963696956064959394920192918291850190849080828437509497506113d49650505050505050565b34801561051757600080fd5b50610216611521565b34801561052c57600080fd5b506105356115d6565b6040805167ffffffffffffffff9092168252519081900360200190f35b34801561055e57600080fd5b5061025c6115f2565b34801561057357600080fd5b5060408051602060046024803582810135601f81018590048502860185019096528585526101a9958335600160a060020a03169536956044949193909101919081908401838280828437509497506116159650505050505050565b3480156105da57600080fd5b506101a9600435611653565b3480156105f257600080fd5b506101a9600435600160a060020a03602435166116e2565b34801561061657600080fd5b50610216611771565b34801561062b57600080fd5b5061025c602460048035828101929082013591813591820191013561179c565b34801561065757600080fd5b506040805160206004803580820135601f81018490048402850184019095528484526103ff9436949293602493928401919081908401838280828437509497506118c49650505050505050565b3480156106b057600080fd5b50610535611976565b3480156106c557600080fd5b506101a9611986565b3480156106da57600080fd5b5061025c611999565b3480156106ef57600080fd5b506103ff6004356024351515604435151561199f565b34801561071157600080fd5b506103ff600160a060020a036004351667ffffffffffffffff60243581169060443581169060643516611abb565b34801561074b57600080fd5b5061025c602460048035828101929082013591813591820191013560443515156064351515611d1f565b34801561078157600080fd5b506103ff600435611e46565b34801561079957600080fd5b50610535611ec8565b3480156107ae57600080fd5b50610216611edf565b3480156107c357600080fd5b50610535611eee565b3480156107d857600080fd5b506101a9611efa565b6000806107ec61111a565b90508015801590610804575080610801611eff565b10155b91505b5090565b6000610815611521565b600160a060020a03166304bf2a7f836040518263ffffffff1660e01b81526004018080602001828103825283818151815260200191508051906020019080838360005b83811015610870578181015183820152602001610858565b50505050905090810190601f16801561089d5780820380516001836020036101000a031916815260200191505b5092505050602060405180830381600087803b1580156108bc57600080fd5b505af11580156108d0573d6000803e3d6000fd5b505050506040513d60208110156108e657600080fd5b505192915050565b60006108f8611771565b600160a060020a03166332f0a3b56040518163ffffffff1660e01b8152600401602060405180830381600087803b15801561093257600080fd5b505af1158015610946573d6000803e3d6000fd5b505050506040513d602081101561095c57600080fd5b505190505b90565b604080517f4d4f444946595f51554f52554d5f524f4c4500000000000000000000000000008152905190819003601201902081565b60035460408051808201909152600e81526000805160206135a783398151915260208201526000918491908210610a515760405160e560020a62461bcd0281526004018080602001828103825283818151815260200191508051906020019080838360005b83811015610a165781810151838201526020016109fe565b50505050905090810190601f168015610a435780820380516001836020036101000a031916815260200191505b509250505060405180910390fd5b506000848152600260209081526040808320600160a060020a038716845260060190915290205460ff1691505b5092915050565b6000806000806000806000806000606060008b60035481106040805190810160405280600e81526020016000805160206135a7833981519152815250901515610b135760405160e560020a62461bcd02815260040180806020018281038252838181518152602001915080519060200190808383600083811015610a165781810151838201526020016109fe565b5060008d81526002602052604090209150610b2d82611f03565b9b508160000160009054906101000a900460ff169a508160000160019054906101000a900467ffffffffffffffff1699508160000160099054906101000a900467ffffffffffffffff1698508160000160119054906101000a900467ffffffffffffffff1697508160010160009054906101000a900467ffffffffffffffff169650816002015495508160030154945081600401549350816005018054600181600116156101000203166002900480601f016020809104026020016040519081016040528092919081815260200182805460018160011615610100020316600290048015610c5c5780601f10610c3157610100808354040283529160200191610c5c565b820191906000526020600020905b815481529060010190602001808311610c3f57829003601f168201915b5050505050925050509193959799509193959799565b604080517f4d4f444946595f51554f52554d5f524f4c45000000000000000000000000000081529051908190036012019020600154610cbe9067ffffffffffffffff8085169116611f6a565b610cc93383836113d4565b60408051808201909152600f81526000805160206135878339815191526020820152901515610d3d5760405160e560020a62461bcd02815260040180806020018281038252838181518152602001915080519060200190808383600083811015610a165781810151838201526020016109fe565b5060005460408051808201909152601981527f564f54494e475f4348414e47455f51554f52554d5f504354530000000000000060208201529067ffffffffffffffff60a060020a90910481169085161115610ddd5760405160e560020a62461bcd02815260040180806020018281038252838181518152602001915080519060200190808383600083811015610a165781810151838201526020016109fe565b506001805467ffffffffffffffff851667ffffffffffffffff19909116811790915560408051918252517f3172f2e9273c729c2a47cc8bf7e7f18506e3e3035126d562602bd2155bc78a509181900360200190a1505050565b604080517f4d4f444946595f535550504f52545f524f4c45000000000000000000000000008152905190819003601301902081565b604080517f4d4f444946595f535550504f52545f524f4c450000000000000000000000000081529051908190036013019020600054610ebe9067ffffffffffffffff8085169160a060020a900416611f6a565b610ec93383836113d4565b60408051808201909152600f81526000805160206135878339815191526020820152901515610f3d5760405160e560020a62461bcd02815260040180806020018281038252838181518152602001915080519060200190808383600083811015610a165781810151838201526020016109fe565b5060015460408051808201909152601a81527f564f54494e475f4348414e47455f535550504f52545f5043545300000000000060208201529067ffffffffffffffff80861691161115610fd55760405160e560020a62461bcd02815260040180806020018281038252838181518152602001915080519060200190808383600083811015610a165781810151838201526020016109fe565b5060408051808201909152601a81527f564f54494e475f4348414e47455f535550505f544f4f5f4249470000000000006020820152670de0b6b3a764000067ffffffffffffffff85161061106e5760405160e560020a62461bcd02815260040180806020018281038252838181518152602001915080519060200190808383600083811015610a165781810151838201526020016109fe565b506000805467ffffffffffffffff851660a060020a81027bffffffffffffffff0000000000000000000000000000000000000000199092169190911790915560408051918252517f903b617f7f36eb047a29b89d1bf7885fdae31d250c3320fccf11d045c11b396e9181900360200190a1505050565b50600190565b60006111157fd625496217aa6a3453eecb9c3489dc5a53e6c67b444329ea2b2cbc9ff547639b611fc5565b905090565b60006111157febb05b386a8d34882b8711d156f463690983dc47815980fb82aeeff1aa43579e611fc5565b6000806000611153846110e4565b60408051808201909152601281527f5245434f5645525f444953414c4c4f574544000000000000000000000000000060208201529015156111d95760405160e560020a62461bcd02815260040180806020018281038252838181518152602001915080519060200190808383600083811015610a165781810151838201526020016109fe565b506111e26108ee565b92506111ed83611fcd565b60408051808201909152601a81527f5245434f5645525f5641554c545f4e4f545f434f4e545241435400000000000060208201529015156112735760405160e560020a62461bcd02815260040180806020018281038252838181518152602001915080519060200190808383600083811015610a165781810151838201526020016109fe565b50600160a060020a03841615156112c45760405130319250600160a060020a0384169083156108fc029084906000818181858888f193505050501580156112be573d6000803e3d6000fd5b50611383565b50826112df600160a060020a0382163063ffffffff611ff316565b91506112fb600160a060020a038216848463ffffffff6120f316565b60408051808201909152601d81527f5245434f5645525f544f4b454e5f5452414e534645525f4641494c454400000060208201529015156113815760405160e560020a62461bcd02815260040180806020018281038252838181518152602001915080519060200190808383600083811015610a165781810151838201526020016109fe565b505b83600160a060020a031683600160a060020a03167f596caf56044b55fb8c4ca640089bbc2b63cae3e978b851f5745cbb7c5b288e02846040518082815260200191505060405180910390a350505050565b6000806113df6107e1565b15156113ee5760009150611519565b6113f6611771565b9050600160a060020a03811615156114115760009150611519565b80600160a060020a031663fdef910686308761142c88612169565b60405163ffffffff861660e01b8152600160a060020a03808616600483019081529085166024830152604482018490526080606483019081528351608484015283519192909160a490910190602085019080838360005b8381101561149b578181015183820152602001611483565b50505050905090810190601f1680156114c85780820380516001836020036101000a031916815260200191505b5095505050505050602060405180830381600087803b1580156114ea57600080fd5b505af11580156114fe573d6000803e3d6000fd5b505050506040513d602081101561151457600080fd5b505191505b509392505050565b60008061152c611771565b604080517fbe00bbd80000000000000000000000000000000000000000000000000000000081527fd6f028ca0e8edb4a8c9757ca4fdccab25fa1e0317da1188108f7d2dee14902fb60048201527fddbcfd564f642ab5627cf68b9b7d374fb4f8a36e941a75d89c87998cef03bd6160248201529051600160a060020a03929092169163be00bbd8916044808201926020929091908290030181600087803b1580156108bc57600080fd5b60015468010000000000000000900467ffffffffffffffff1681565b604080516000805160206135c78339815191528152905190819003601101902081565b600061164c8360405180806000805160206135c783398151915281525060110190506040518091039020611647612173565b6113d4565b9392505050565b60035460408051808201909152600e81526000805160206135a7833981519152602082015260009183919082106116cf5760405160e560020a62461bcd02815260040180806020018281038252838181518152602001915080519060200190808383600083811015610a165781810151838201526020016109fe565b506116d983612185565b91505b50919050565b60035460408051808201909152600e81526000805160206135a78339815191526020820152600091849190821061175e5760405160e560020a62461bcd02815260040180806020018281038252838181518152602001915080519060200190808383600083811015610a165781810151838201526020016109fe565b50611769848461229e565b949350505050565b60006111157f4172f0f7d2289153072b0a6ca36959e0cbe2efc3afe50fc81636caa96338137b611fc5565b604080516000805160206135c783398151915281528151908190036011018120600080835260208301909352906117d99033908390855b506113d4565b60408051808201909152600f8152600080516020613587833981519152602082015290151561184d5760405160e560020a62461bcd02815260040180806020018281038252838181518152602001915080519060200190808383600083811015610a165781810151838201526020016109fe565b506118ba86868080601f0160208091040260200160405190810160405280939291908181526020018383808284375050604080516020601f8c018190048102820181019092528a815294508a93508992508291508401838280828437820191505050505050600180612378565b9695505050505050565b6118ce3382611615565b60408051808201909152601681527f564f54494e475f43414e5f4e4f545f464f52574152440000000000000000000060208201529015156119545760405160e560020a62461bcd02815260040180806020018281038252838181518152602001915080519060200190808383600083811015610a165781810151838201526020016109fe565b50611972816020604051908101604052806000815250600180612378565b5050565b60015467ffffffffffffffff1681565b600060001961199361111a565b14905090565b60035481565b60035460408051808201909152600e81526000805160206135a7833981519152602082015284918210611a175760405160e560020a62461bcd02815260040180806020018281038252838181518152602001915080519060200190808383600083811015610a165781810151838201526020016109fe565b50611a22843361229e565b60408051808201909152601381527f564f54494e475f43414e5f4e4f545f564f5445000000000000000000000000006020820152901515611aa85760405160e560020a62461bcd02815260040180806020018281038252838181518152602001915080519060200190808383600083811015610a165781810151838201526020016109fe565b50611ab58484338561266e565b50505050565b611ac361111a565b60408051808201909152601881527f494e49545f414c52454144595f494e495449414c495a4544000000000000000060208201529015611b485760405160e560020a62461bcd02815260040180806020018281038252838181518152602001915080519060200190808383600083811015610a165781810151838201526020016109fe565b50611b516128aa565b60408051808201909152601081527f564f54494e475f494e49545f5043545300000000000000000000000000000000602082015267ffffffffffffffff8085169084161115611be55760405160e560020a62461bcd02815260040180806020018281038252838181518152602001915080519060200190808383600083811015610a165781810151838201526020016109fe565b5060408051808201909152601b81527f564f54494e475f494e49545f535550504f52545f544f4f5f42494700000000006020820152670de0b6b3a764000067ffffffffffffffff851610611c7e5760405160e560020a62461bcd02815260040180806020018281038252838181518152602001915080519060200190808383600083811015610a165781810151838201526020016109fe565b506000805473ffffffffffffffffffffffffffffffffffffffff1916600160a060020a0395909516949094177bffffffffffffffff0000000000000000000000000000000000000000191660a060020a67ffffffffffffffff94851602179093556001805467ffffffffffffffff1916918316919091176fffffffffffffffff00000000000000001916680100000000000000009390921692909202179055565b604080516000805160206135c78339815191528152815190819003601101812060008083526020830190935290611d5a9033908390856117d3565b60408051808201909152600f81526000805160206135878339815191526020820152901515611dce5760405160e560020a62461bcd02815260040180806020018281038252838181518152602001915080519060200190808383600083811015610a165781810151838201526020016109fe565b50611e3a88888080601f0160208091040260200160405190810160405280939291908181526020018383808284375050604080516020601f8e018190048102820181019092528c815294508c93508b925082915084018382808284378201915050505050508686612378565b98975050505050505050565b60035460408051808201909152600e81526000805160206135a7833981519152602082015282918210611ebe5760405160e560020a62461bcd02815260040180806020018281038252838181518152602001915080519060200190808383600083811015610a165781810151838201526020016109fe565b5061197282612972565b60005460a060020a900467ffffffffffffffff1681565b600054600160a060020a031681565b670de0b6b3a764000081565b600190565b4390565b6001548154600091611f3991610100900467ffffffffffffffff908116916801000000000000000090041663ffffffff612a0e16565b67ffffffffffffffff16611f4b612aa9565b67ffffffffffffffff16108015611f645750815460ff16155b92915050565b604080516002808252606080830184529260208301908038833901905050905082816000815181101515611f9a57fe5b602090810290910101528051829082906001908110611fb557fe5b6020908102909101015292915050565b5490565b5490565b600080600160a060020a0383161515611fe957600091506116dc565b50506000903b1190565b60408051600160a060020a038316602480830191909152825180830390910181526044909101909152602081018051600160e060020a03167f70a0823100000000000000000000000000000000000000000000000000000000179052600090818061205e8684612abb565b60408051808201909152601c81527f534146455f4552435f32305f42414c414e43455f524556455254454400000000602082015291935091508215156120e95760405160e560020a62461bcd02815260040180806020018281038252838181518152602001915080519060200190808383600083811015610a165781810151838201526020016109fe565b5095945050505050565b60408051600160a060020a03841660248201526044808201849052825180830390910181526064909101909152602081018051600160e060020a03167fa9059cbb000000000000000000000000000000000000000000000000000000001790526000906121608582612aec565b95945050505050565b8051602002815290565b60408051600081526020810190915290565b60008181526002602052604081208054829060ff16156121a85760009250612297565b6002820154600483015483546121de92919071010000000000000000000000000000000000900467ffffffffffffffff16612b3a565b156121ec5760019250612297565b6121f582611f03565b156122035760009250612297565b6003820154600283015461221c9163ffffffff612b7c16565b6002830154835491925061225091839071010000000000000000000000000000000000900467ffffffffffffffff16612b3a565b151561225f5760009250612297565b60028201546004830154600184015461228392919067ffffffffffffffff16612b3a565b15156122925760009250612297565b600192505b5050919050565b60008281526002602052604081206122b581611f03565b80156117695750600080548254604080517f4ee2cd7e000000000000000000000000000000000000000000000000000000008152600160a060020a038881166004830152690100000000000000000090930467ffffffffffffffff16602482015290519190921691634ee2cd7e91604480830192602092919082900301818787803b15801561234357600080fd5b505af1158015612357573d6000803e3d6000fd5b505050506040513d602081101561236d57600080fd5b505111949350505050565b6000806000806001612388612c0a565b60008054604080517f981b24d00000000000000000000000000000000000000000000000000000000081529490930367ffffffffffffffff811660048601529251929650600160a060020a03169263981b24d09260248083019360209383900390910190829087803b1580156123fd57600080fd5b505af1158015612411573d6000803e3d6000fd5b505050506040513d602081101561242757600080fd5b505160408051808201909152601681527f564f54494e475f4e4f5f564f54494e475f504f574552000000000000000000006020820152909250600083116124b35760405160e560020a62461bcd02815260040180806020018281038252838181518152602001915080519060200190808383600083811015610a165781810151838201526020016109fe565b5050600380546001810190915560008181526002602052604090209093506124d9612aa9565b815468ffffffffffffffff00191661010067ffffffffffffffff928316021770ffffffffffffffff00000000000000000019166901000000000000000000858316021780835560005478ffffffffffffffff00000000000000000000000000000000001990911660a060020a909104821671010000000000000000000000000000000000021782556001805490830180549190921667ffffffffffffffff1990911617905560048101829055875161259a90600583019060208b01906134f8565b5033600160a060020a0316847f4d72fe0577a3a3f7da968d7b892779dde102519c25527b29cf7054f245c791b9896040518080602001828103825283818151815260200191508051906020019080838360005b838110156126055781810151838201526020016125ed565b50505050905090810190601f1680156126325780820380516001836020036101000a031916815260200191505b509250505060405180910390a38580156126515750612651843361229e565b1561266357612663846001338861266e565b505050949350505050565b60008481526002602090815260408083208354815483517f4ee2cd7e000000000000000000000000000000000000000000000000000000008152600160a060020a038981166004830152690100000000000000000090920467ffffffffffffffff166024820152935192959485949190921692634ee2cd7e9260448084019391929182900301818787803b15801561270557600080fd5b505af1158015612719573d6000803e3d6000fd5b505050506040513d602081101561272f57600080fd5b5051600160a060020a038616600090815260068501602052604090205490925060ff169050600181600281111561276257fe5b141561278757600283015461277d908363ffffffff612c1716565b60028401556127b6565b600281600281111561279557fe5b14156127b65760038301546127b0908363ffffffff612c1716565b60038401555b85156127db5760028301546127d1908363ffffffff612b7c16565b60028401556127f6565b60038301546127f0908363ffffffff612b7c16565b60038401555b85612802576002612805565b60015b600160a060020a03861660009081526006850160205260409020805460ff1916600183600281111561283357fe5b0217905550604080518715158152602081018490528151600160a060020a038816928a927fb34ee265e3d4f5ec4e8b52d59b2a9be8fceca2f274ebc080d8fba797fea9391f929081900390910190a3838015612893575061289387612185565b156128a1576128a187612cab565b50505050505050565b6128b261111a565b60408051808201909152601881527f494e49545f414c52454144595f494e495449414c495a45440000000000000000602082015290156129375760405160e560020a62461bcd02815260040180806020018281038252838181518152602001915080519060200190808383600083811015610a165781810151838201526020016109fe565b50612970612943611eff565b7febb05b386a8d34882b8711d156f463690983dc47815980fb82aeeff1aa43579e9063ffffffff612da716565b565b61297b81612185565b60408051808201909152601681527f564f54494e475f43414e5f4e4f545f45584543555445000000000000000000006020820152901515612a015760405160e560020a62461bcd02815260040180806020018281038252838181518152602001915080519060200190808383600083811015610a165781810151838201526020016109fe565b50612a0b81612cab565b50565b60408051808201909152601381527f4d41544836345f4144445f4f564552464c4f570000000000000000000000000060208201526000908383019067ffffffffffffffff80861690831610156115195760405160e560020a62461bcd02815260040180806020018281038252838181518152602001915080519060200190808383600083811015610a165781810151838201526020016109fe565b6000611115612ab6612dab565b612daf565b6000806000806040516020818751602089018a5afa92506000831115612ae057805191505b50909590945092505050565b6000806040516020818551602087016000895af16000811115612b30573d8015612b1d5760208114612b2657612b2e565b60019350612b2e565b600183511493505b505b5090949350505050565b600080831515612b4d5760009150611519565b83612b6686670de0b6b3a764000063ffffffff612e4816565b811515612b6f57fe5b0492909211949350505050565b60408051808201909152601181527f4d4154485f4144445f4f564552464c4f57000000000000000000000000000000602082015260009083830190848210156115195760405160e560020a62461bcd02815260040180806020018281038252838181518152602001915080519060200190808383600083811015610a165781810151838201526020016109fe565b6000611115612ab6611eff565b60408051808201909152601281527f4d4154485f5355425f554e444552464c4f5700000000000000000000000000006020820152600090819084841115612ca35760405160e560020a62461bcd02815260040180806020018281038252838181518152602001915080519060200190808383600083811015610a165781810151838201526020016109fe565b505050900390565b6000818152600260208181526040808420805460ff191660019081178255825195865260058201805491821615610100026000190190911694909404601f81018490048402860183018352928501838152909493612d76939192909190850182828015612d595780601f10612d2e57610100808354040283529160200191612d59565b820191906000526020600020905b815481529060010190602001808311612d3c57829003601f168201915b50506040805160008152602081019091528693509150612ef39050565b5060405183907fbf8e2b108bb7c980e08903a8a46527699d5e84905a082d56dacb4150725c8cab90600090a2505050565b9055565b4290565b60408051808201909152601581527f55494e5436345f4e554d4245525f544f4f5f4249470000000000000000000000602082015260009067ffffffffffffffff831115612e415760405160e560020a62461bcd02815260040180806020018281038252838181518152602001915080519060200190808383600083811015610a165781810151838201526020016109fe565b5090919050565b600080831515612e5b5760009150610a7e565b50828202828482811515612e6b57fe5b60408051808201909152601181527f4d4154485f4d554c5f4f564552464c4f57000000000000000000000000000000602082015292919004146115195760405160e560020a62461bcd02815260040180806020018281038252838181518152602001915080519060200190808383600083811015610a165781810151838201526020016109fe565b6060600080606080612f036107e1565b60408051808201909152601481527f494e49545f4e4f545f494e495449414c495a45440000000000000000000000006020820152901515612f895760405160e560020a62461bcd02815260040180806020018281038252838181518152602001915080519060200190808383600083811015610a165781810151838201526020016109fe565b50600080612f95611771565b9150612f9f6110ea565b9050612faa8a61080b565b60408051808201909152601b81527f45564d52554e5f4558454355544f525f554e415641494c41424c4500000000006020820152909650600160a060020a038716151561303c5760405160e560020a62461bcd02815260040180806020018281038252838181518152602001915080519060200190808383600083811015610a165781810151838201526020016109fe565b506040516060602482019081528b5160848301528b517f279cea3500000000000000000000000000000000000000000000000000000000975087928d928d928d9282916044820191606481019160a490910190602089019080838360005b838110156130b257818101518382015260200161309a565b50505050905090810190601f1680156130df5780820380516001836020036101000a031916815260200191505b50848103835286518152865160209182019188019080838360005b838110156131125781810151838201526020016130fa565b50505050905090810190601f16801561313f5780820380516001836020036101000a031916815260200191505b508481038252855181528551602091820191808801910280838360005b8381101561317457818101518382015260200161315c565b50505050905001965050505050505060405160208183030381529060405290600160e060020a031916602082018051600160e060020a0383818316178352505050509350600080855160208701895af4604051935080801561323857603f3d1180156131ed5760203d03806020883e8601604052613232565b60e560020a62461bcd02865260206004870152601e60248701527f45564d52554e5f4558454355544f525f494e56414c49445f52455455524e00006044870152606486fd5b50613241565b3d6000863e3d85fd5b505085600160a060020a03167f5229a5dba83a54ae8cb5b51bdd6de9474cacbe9dd332f5185f3a4f4f2e3f4ad98b8b8660405180806020018060200180602001848103845287818151815260200191508051906020019080838360005b838110156132b657818101518382015260200161329e565b50505050905090810190601f1680156132e35780820380516001836020036101000a031916815260200191505b50848103835286518152865160209182019188019080838360005b838110156133165781810151838201526020016132fe565b50505050905090810190601f1680156133435780820380516001836020036101000a031916815260200191505b50848103825285518152855160209182019187019080838360005b8381101561337657818101518382015260200161335e565b50505050905090810190601f1680156133a35780820380516001836020036101000a031916815260200191505b50965050505050505060405180910390a282965081600160a060020a03166133c9611771565b600160a060020a0316146040805190810160405280601f81526020017f45564d52554e5f50524f5445435445445f53544154455f4d4f4449464945440081525090151561345b5760405160e560020a62461bcd02815260040180806020018281038252838181518152602001915080519060200190808383600083811015610a165781810151838201526020016109fe565b50806134656110ea565b60408051808201909152601f81527f45564d52554e5f50524f5445435445445f53544154455f4d4f44494649454400602082015291146134ea5760405160e560020a62461bcd02815260040180806020018281038252838181518152602001915080519060200190808383600083811015610a165781810151838201526020016109fe565b505050505050509392505050565b828054600181600116156101000203166002900490600052602060002090601f016020900481019282601f1061353957805160ff1916838001178555613566565b82800160010185558215613566579182015b8281111561356657825182559160200191906001019061354b565b50610807926109619250905b80821115610807576000815560010161357256004150505f415554485f4641494c45440000000000000000000000000000000000564f54494e475f4e4f5f564f54450000000000000000000000000000000000004352454154455f564f5445535f524f4c45000000000000000000000000000000a165627a7a7230582007c8fdca7c2f25598ee10f0093e85403d21d5b90c56b1de4776f2c173d131cb30029ebb05b386a8d34882b8711d156f463690983dc47815980fb82aeeff1aa43579e",
    "linkReferences": {}
  },
  "methodIdentifiers": {
    "CREATE_VOTES_ROLE()": "be2c64d4",
    "MODIFY_QUORUM_ROLE()": "3c624c75",
    "MODIFY_SUPPORT_ROLE()": "62de7e5a",
    "PCT_BASE()": "fc157cb4",
    "allowRecoverability(address)": "7e7db6e1",
    "appId()": "80afdea8",
    "canExecute(uint256)": "cc63604a",
    "canForward(address,bytes)": "c0774df3",
    "canPerform(address,bytes32,uint256[])": "a1658fad",
    "canVote(uint256,address)": "cdb2867b",
    "changeMinAcceptQuorumPct(uint64)": "5eb24332",
    "changeSupportRequiredPct(uint64)": "7c1d0b87",
    "executeVote(uint256)": "f98a4eca",
    "forward(bytes)": "d948d468",
    "getEVMScriptExecutor(bytes)": "2914b9bd",
    "getEVMScriptRegistry()": "a479e508",
    "getInitializationBlock()": "8b3dd749",
    "getRecoveryVault()": "32f0a3b5",
    "getVote(uint256)": "5a55c1f0",
    "getVoterState(uint256,address)": "4b12311c",
    "hasInitialized()": "0803fac0",
    "initialize(address,uint64,uint64,uint64)": "df3d3305",
    "isForwarder()": "fd64eccb",
    "isPetrified()": "de4796ed",
    "kernel()": "d4aae0c4",
    "minAcceptQuorumPct()": "dc474b1a",
    "newVote(bytes,string)": "d5db2c80",
    "newVote(bytes,string,bool,bool)": "f4b00513",
    "supportRequiredPct()": "fad167ab",
    "token()": "fc0c546a",
    "transferToVault(address)": "9d4941d8",
    "vote(uint256,bool,bool)": "df133bca",
    "voteTime()": "bcf93dd6",
    "votesLength()": "de4f6347"
  },
  "storageLayout": {
    "storage": [],
    "types": {}
  },
  "id": 44
}