{
  "abi": [
    {
      "constant": true,
      "inputs": [],
      "name": "ERC1271_RETURN_VALID_SIGNATURE",
      "outputs": [
        {
          "name": "",
          "type": "bytes4"
        }
      ],
      "payable": false,
      "stateMutability": "view",
      "type": "function"
    }
  ],
  "bytecode": {
    "object": "0x60c961002f600b82828239805160001a6073146000811461001f57610021565bfe5b5030600052607381538281f300730000000000000000000000000000000000000000301460806040526004361060395760003560e01c63ffffffff1680639890cdca14603e575b600080fd5b60446079565b604080517fffffffff000000000000000000000000000000000000000000000000000000009092168252519081900360200190f35b7f20c13b0b00000000000000000000000000000000000000000000000000000000815600a165627a7a72305820ea44e68d6f8912c7bc65a4f94499fdcfdcfef2b501ce30489455fef7dfc4c1410029",
    "linkReferences": {}
  },
  "methodIdentifiers": {
    "ERC1271_RETURN_VALID_SIGNATURE()": "9890cdca"
  },
  "storageLayout": {
    "storage": [],
    "types": {}
  },
  "id": 35
}