{
  "abi": [
    {
      "constant": false,
      "inputs": [
        {
          "name": "_kernel",
          "type": "address"
        },
        {
          "name": "_appId",
          "type": "bytes32"
        },
        {
          "name": "_initializePayload",
          "type": "bytes"
        }
      ],
      "name": "newAppProxyPinned",
      "outputs": [
        {
          "name": "",
          "type": "address"
        }
      ],
      "payable": false,
      "stateMutability": "nonpayable",
      "type": "function"
    },
    {
      "constant": false,
      "inputs": [
        {
          "name": "_kernel",
          "type": "address"
        },
        {
          "name": "_appId",
          "type": "bytes32"
        }
      ],
      "name": "newAppProxy",
      "outputs": [
        {
          "name": "",
          "type": "address"
        }
      ],
      "payable": false,
      "stateMutability": "nonpayable",
      "type": "function"
    },
    {
      "constant": false,
      "inputs": [
        {
          "name": "_kernel",
          "type": "address"
        },
        {
          "name": "_appId",
          "type": "bytes32"
        },
        {
          "name": "_initializePayload",
          "type": "bytes"
        }
      ],
      "name": "newAppProxy",
      "outputs": [
        {
          "name": "",
          "type": "address"
        }
      ],
      "payable": false,
      "stateMutability": "nonpayable",
      "type": "function"
    },
    {
      "constant": false,
      "inputs": [
        {
          "name": "_kernel",
          "type": "address"
        },
        {
          "name": "_appId",
          "type": "bytes32"
        }
      ],
      "name": "newAppProxyPinned",
      "outputs": [
        {
          "name": "",
          "type": "address"
        }
      ],
      "payable": false,
      "stateMutability": "nonpayable",
      "type": "function"
    },
    {
      "anonymous": false,
      "inputs": [
        {
          "indexed": false,
          "name": "proxy",
          "type": "address"
        },
        {
          "indexed": false,
          "name": "isUpgradeable",
          "type": "bool"
        },
        {
          "indexed": false,
          "name": "appId",
          "type": "bytes32"
        }
      ],
      "name": "NewAppProxy",
      "type": "event"
    }
  ],
  "bytecode": {
    "object": "0x608060405234801561001057600080fd5b506111ad806100206000396000f3006080604052600436106100455760003560e01c63ffffffff168063d162f8b01461004a578063e156a8f3146100cf578063ede658b0146100f3578063ff289fc51461015c575b600080fd5b34801561005657600080fd5b50604080516020600460443581810135601f81018490048402850184019095528484526100b3948235600160a060020a03169460248035953695946064949201919081908401838280828437509497506101809650505050505050565b60408051600160a060020a039092168252519081900360200190f35b3480156100db57600080fd5b506100b3600160a060020a0360043516602435610285565b3480156100ff57600080fd5b50604080516020600460443581810135601f81018490048402850184019095528484526100b3948235600160a060020a03169460248035953695946064949201919081908401838280828437509497506102a99650505050505050565b34801561016857600080fd5b506100b3600160a060020a03600435166024356103ae565b60008084848461018e6103cb565b600160a060020a038416815260208082018490526060604083018181528451918401919091528351909160808401919085019080838360005b838110156101df5781810151838201526020016101c7565b50505050905090810190601f16801561020c5780820380516001836020036101000a031916815260200191505b50945050505050604051809103906000f08015801561022f573d6000803e3d6000fd5b5060408051600160a060020a03831681526000602082015280820187905290519192507fd880e726dced8808d727f02dd0e6fdd3a945b24bfee77e13367bcbe61ddbaf47919081900360600190a1949350505050565b604080516000808252602082019092526102a290849084906102a9565b9392505050565b6000808484846102b76103db565b600160a060020a038416815260208082018490526060604083018181528451918401919091528351909160808401919085019080838360005b838110156103085781810151838201526020016102f0565b50505050905090810190601f1680156103355780820380516001836020036101000a031916815260200191505b50945050505050604051809103906000f080158015610358573d6000803e3d6000fd5b5060408051600160a060020a03831681526001602082015280820187905290519192507fd880e726dced8808d727f02dd0e6fdd3a945b24bfee77e13367bcbe61ddbaf47919081900360600190a1949350505050565b604080516000808252602082019092526102a29084908490610180565b6040516106cb806103ec83390190565b6040516106cb80610ab7833901905600608060405234801561001057600080fd5b506040516106cb3803806106cb83398101604090815281516020808401519284015191939190910190839083908390600090610051908590610165811b901c565b6100608361018b60201b60201c565b61006f836101c060201b60201c565b90506000825111156101155761008a8161028d60201b60201c565b151561009557600080fd5b80600160a060020a03168260405180828051906020019080838360005b838110156100ca5781810151838201526020016100b2565b50505050905090810190601f1680156100f75780820380516001836020036101000a031916815260200191505b50915050600060405180830381855af4915050151561011557600080fd5b5050505061013661012b836101c060201b60201c565b6102ba60201b60201c565b6101526101476102dd60201b60201c565b61028d60201b60201c565b151561015d57600080fd5b50505061033e565b61018860008051602061068b8339815191528261030c602090811b61030a17901c565b50565b6101887fd625496217aa6a3453eecb9c3489dc5a53e6c67b444329ea2b2cbc9ff547639b8261030c602090811b61030a17901c565b60006101d061031060201b60201c565b604080517fbe00bbd80000000000000000000000000000000000000000000000000000000081527ff1f3eb40f5bc1ad1344716ced8b8a0431d840b5783aea1fd01786bc26f35ac0f6004820152602481018590529051600160a060020a03929092169163be00bbd8916044808201926020929091908290030181600087803b15801561025b57600080fd5b505af115801561026f573d6000803e3d6000fd5b505050506040513d602081101561028557600080fd5b505192915050565b600080600160a060020a03831615156102a957600091506102b4565b823b90506000811191505b50919050565b6101886000805160206106ab8339815191528261030c602090811b61030a17901c565b60006103076000805160206106ab83398151915260001b6000191661033a60201b6103021760201c565b905090565b9055565b600061030760008051602061068b83398151915260001b6000191661033a60201b6103021760201c565b5490565b61033e8061034d6000396000f3006080604052600436106100505760003560e01c63ffffffff1680634555d5c91461010f57806348a0c8dd146101365780635c60da1b1461015f57806380afdea81461019d578063d4aae0c4146101b2575b6127107f665fd576fbbe6f247aff98f5c94a561e3f71ec2d3c988d56f12d342396c50cea6000825a10156100c55760003411361583541616156100c0576040513381523460208201527f15eeaa57c7bd188c1388020bcadc2c436ec60d647d36ef5b9eb3c742217ddee1604082a1005b600080fd5b6100cd6101c7565b905061010a816000368080601f016020809104026020016040519081016040528093929190818152602001838380828437506101d6945050505050565b505050005b34801561011b57600080fd5b50610124610217565b60408051918252519081900360200190f35b34801561014257600080fd5b5061014b61021c565b604080519115158252519081900360200190f35b34801561016b57600080fd5b506101746101c7565b6040805173ffffffffffffffffffffffffffffffffffffffff9092168252519081900360200190f35b3480156101a957600080fd5b50610124610247565b3480156101be57600080fd5b50610174610272565b60006101d161029d565b905090565b60006101e1836102c8565b15156101ec57600080fd5b612710905060008083516020850186855a03f43d604051816000823e828015610213578282f35b8282fd5b600190565b60006101d17f665fd576fbbe6f247aff98f5c94a561e3f71ec2d3c988d56f12d342396c50cea610302565b60006101d17fd625496217aa6a3453eecb9c3489dc5a53e6c67b444329ea2b2cbc9ff547639b610302565b60006101d17f4172f0f7d2289153072b0a6ca36959e0cbe2efc3afe50fc81636caa96338137b610302565b60006101d17fdee64df20d65e53d7f51cb6ab6d921a0a6a638a91e942e1d8d02df28e31c038e610302565b60008073ffffffffffffffffffffffffffffffffffffffff831615156102f157600091506102fc565b823b90506000811191505b50919050565b5490565b5490565b9055565b90555600a165627a7a7230582026b6880b8c77f7d6b5c9de6fdcc4352b9f3851c867fafe5c0a19fe5a3515810e00294172f0f7d2289153072b0a6ca36959e0cbe2efc3afe50fc81636caa96338137bdee64df20d65e53d7f51cb6ab6d921a0a6a638a91e942e1d8d02df28e31c038e608060405234801561001057600080fd5b506040516106cb3803806106cb83398101604090815281516020808401519284015191939190910190839083908390600090610051908590610121811b901c565b6100608361014760201b60201c565b61006f8361017c60201b60201c565b90506000825111156101155761008a8161024960201b60201c565b151561009557600080fd5b80600160a060020a03168260405180828051906020019080838360005b838110156100ca5781810151838201526020016100b2565b50505050905090810190601f1680156100f75780820380516001836020036101000a031916815260200191505b50915050600060405180830381855af4915050151561011557600080fd5b505050505050506102ad565b6101446000805160206106ab83398151915282610276602090811b6103bb17901c565b50565b6101447fd625496217aa6a3453eecb9c3489dc5a53e6c67b444329ea2b2cbc9ff547639b82610276602090811b6103bb17901c565b600061018c61027a60201b60201c565b604080517fbe00bbd80000000000000000000000000000000000000000000000000000000081527ff1f3eb40f5bc1ad1344716ced8b8a0431d840b5783aea1fd01786bc26f35ac0f6004820152602481018590529051600160a060020a03929092169163be00bbd8916044808201926020929091908290030181600087803b15801561021757600080fd5b505af115801561022b573d6000803e3d6000fd5b505050506040513d602081101561024157600080fd5b505192915050565b600080600160a060020a03831615156102655760009150610270565b823b90506000811191505b50919050565b9055565b60006102a46000805160206106ab83398151915260001b600019166102a960201b6103b31760201c565b905090565b5490565b6103ef806102bc6000396000f3006080604052600436106100505760003560e01c63ffffffff1680634555d5c91461010f57806348a0c8dd146101365780635c60da1b1461015f57806380afdea81461019d578063d4aae0c4146101b2575b6127107f665fd576fbbe6f247aff98f5c94a561e3f71ec2d3c988d56f12d342396c50cea6000825a10156100c55760003411361583541616156100c0576040513381523460208201527f15eeaa57c7bd188c1388020bcadc2c436ec60d647d36ef5b9eb3c742217ddee1604082a1005b600080fd5b6100cd6101c7565b905061010a816000368080601f016020809104026020016040519081016040528093929190818152602001838380828437506101de945050505050565b505050005b34801561011b57600080fd5b5061012461021f565b60408051918252519081900360200190f35b34801561014257600080fd5b5061014b610224565b604080519115158252519081900360200190f35b34801561016b57600080fd5b506101746101c7565b6040805173ffffffffffffffffffffffffffffffffffffffff9092168252519081900360200190f35b3480156101a957600080fd5b5061012461024f565b3480156101be57600080fd5b5061017461027a565b60006101d96101d461024f565b6102a5565b905090565b60006101e983610379565b15156101f457600080fd5b612710905060008083516020850186855a03f43d604051816000823e82801561021b578282f35b8282fd5b600290565b60006101d97f665fd576fbbe6f247aff98f5c94a561e3f71ec2d3c988d56f12d342396c50cea6103b3565b60006101d97fd625496217aa6a3453eecb9c3489dc5a53e6c67b444329ea2b2cbc9ff547639b6103b3565b60006101d97f4172f0f7d2289153072b0a6ca36959e0cbe2efc3afe50fc81636caa96338137b6103b3565b60006102af61027a565b604080517fbe00bbd80000000000000000000000000000000000000000000000000000000081527ff1f3eb40f5bc1ad1344716ced8b8a0431d840b5783aea1fd01786bc26f35ac0f600482015260248101859052905173ffffffffffffffffffffffffffffffffffffffff929092169163be00bbd8916044808201926020929091908290030181600087803b15801561034757600080fd5b505af115801561035b573d6000803e3d6000fd5b505050506040513d602081101561037157600080fd5b505192915050565b60008073ffffffffffffffffffffffffffffffffffffffff831615156103a257600091506103ad565b823b90506000811191505b50919050565b5490565b5490565b9055565b90555600a165627a7a7230582072089b916c21843279b5ed52f0afa746a6b4b9b2e42624e5f826a68fdd47c0d000294172f0f7d2289153072b0a6ca36959e0cbe2efc3afe50fc81636caa96338137ba165627a7a723058206c088f8b7e63b489a9baedd4e155d879454e356d3028f6cd9d4f9b4cfcbd34ff0029",
    "linkReferences": {}
  },
  "methodIdentifiers": {
    "newAppProxy(address,bytes32)": "e156a8f3",
    "newAppProxy(address,bytes32,bytes)": "ede658b0",
    "newAppProxyPinned(address,bytes32)": "ff289fc5",
    "newAppProxyPinned(address,bytes32,bytes)": "d162f8b0"
  },
  "storageLayout": {
    "storage": [],
    "types": {}
  },
  "id": 87
}