{
  "abi": [
    {
      "inputs": [],
      "name": "getKeysOpIndex",
      "outputs": [
        {
          "internalType": "uint256",
          "name": "index",
          "type": "uint256"
        }
      ],
      "stateMutability": "view",
      "type": "function"
    },
    {
      "inputs": [
        {
          "internalType": "uint256",
          "name": "_newKeysOpIndex",
          "type": "uint256"
        }
      ],
      "name": "setKeysOpIndex",
      "outputs": [],
      "stateMutability": "nonpayable",
      "type": "function"
    }
  ],
  "bytecode": {
    "object": "0x6080604052348015600f57600080fd5b5060ac8061001e6000396000f3fe6080604052348015600f57600080fd5b506004361060325760003560e01c80638a1b1801146037578063d07442f1146049575b600080fd5b60476042366004605e565b600055565b005b60005460405190815260200160405180910390f35b600060208284031215606f57600080fd5b503591905056fea264697066735822122028ebff3c84aca78e37c0798ca5fea749b12f6cd2c0aa90704e84f4a4d62bed0f64736f6c63430008090033",
    "linkReferences": {}
  },
  "methodIdentifiers": {
    "getKeysOpIndex()": "d07442f1",
    "setKeysOpIndex(uint256)": "8a1b1801"
  },
  "storageLayout": {
    "storage": [
      {
        "astId": 2712,
        "contract": "contracts/0.8.9/test_helpers/NodeOperatorsRegistryMockForSecurityModule.sol:NodeOperatorsRegistryMockForSecurityModule",
        "label": "keysOpIndex",
        "offset": 0,
        "slot": "0",
        "type": "t_uint256"
      }
    ],
    "types": {
      "t_uint256": {
        "encoding": "inplace",
        "label": "uint256",
        "numberOfBytes": "32"
      }
    }
  },
  "id": 15
}