{
  "abi": [
    {
      "constant": false,
      "inputs": [],
      "name": "resume",
      "outputs": [],
      "payable": false,
      "stateMutability": "nonpayable",
      "type": "function"
    },
    {
      "constant": true,
      "inputs": [],
      "name": "name",
      "outputs": [
        {
          "name": "",
          "type": "string"
        }
      ],
      "payable": false,
      "stateMutability": "pure",
      "type": "function"
    },
    {
      "constant": false,
      "inputs": [],
      "name": "stop",
      "outputs": [],
      "payable": false,
      "stateMutability": "nonpayable",
      "type": "function"
    },
    {
      "constant": false,
      "inputs": [
        {
          "name": "_spender",
          "type": "address"
        },
        {
          "name": "_amount",
          "type": "uint256"
        }
      ],
      "name": "approve",
      "outputs": [
        {
          "name": "",
          "type": "bool"
        }
      ],
      "payable": false,
      "stateMutability": "nonpayable",
      "type": "function"
    },
    {
      "constant": true,
      "inputs": [],
      "name": "totalSupply",
      "outputs": [
        {
          "name": "",
          "type": "uint256"
        }
      ],
      "payable": false,
      "stateMutability": "view",
      "type": "function"
    },
    {
      "constant": true,
      "inputs": [
        {
          "name": "_ethAmount",
          "type": "uint256"
        }
      ],
      "name": "getSharesByPooledEth",
      "outputs": [
        {
          "name": "",
          "type": "uint256"
        }
      ],
      "payable": false,
      "stateMutability": "view",
      "type": "function"
    },
    {
      "constant": false,
      "inputs": [
        {
          "name": "_sender",
          "type": "address"
        },
        {
          "name": "_recipient",
          "type": "address"
        },
        {
          "name": "_amount",
          "type": "uint256"
        }
      ],
      "name": "transferFrom",
      "outputs": [
        {
          "name": "",
          "type": "bool"
        }
      ],
      "payable": false,
      "stateMutability": "nonpayable",
      "type": "function"
    },
    {
      "constant": true,
      "inputs": [],
      "name": "decimals",
      "outputs": [
        {
          "name": "",
          "type": "uint8"
        }
      ],
      "payable": false,
      "stateMutability": "pure",
      "type": "function"
    },
    {
      "constant": true,
      "inputs": [],
      "name": "getTotalPooledEther",
      "outputs": [
        {
          "name": "",
          "type": "uint256"
        }
      ],
      "payable": false,
      "stateMutability": "view",
      "type": "function"
    },
    {
      "constant": false,
      "inputs": [
        {
          "name": "_spender",
          "type": "address"
        },
        {
          "name": "_addedValue",
          "type": "uint256"
        }
      ],
      "name": "increaseAllowance",
      "outputs": [
        {
          "name": "",
          "type": "bool"
        }
      ],
      "payable": false,
      "stateMutability": "nonpayable",
      "type": "function"
    },
    {
      "constant": true,
      "inputs": [],
      "name": "isStopped",
      "outputs": [
        {
          "name": "",
          "type": "bool"
        }
      ],
      "payable": false,
      "stateMutability": "view",
      "type": "function"
    },
    {
      "constant": false,
      "inputs": [
        {
          "name": "_to",
          "type": "address"
        },
        {
          "name": "_sharesAmount",
          "type": "uint256"
        }
      ],
      "name": "mintShares",
      "outputs": [
        {
          "name": "newTotalShares",
          "type": "uint256"
        }
      ],
      "payable": false,
      "stateMutability": "nonpayable",
      "type": "function"
    },
    {
      "constant": true,
      "inputs": [
        {
          "name": "_account",
          "type": "address"
        }
      ],
      "name": "balanceOf",
      "outputs": [
        {
          "name": "",
          "type": "uint256"
        }
      ],
      "payable": false,
      "stateMutability": "view",
      "type": "function"
    },
    {
      "constant": true,
      "inputs": [
        {
          "name": "_sharesAmount",
          "type": "uint256"
        }
      ],
      "name": "getPooledEthByShares",
      "outputs": [
        {
          "name": "",
          "type": "uint256"
        }
      ],
      "payable": false,
      "stateMutability": "view",
      "type": "function"
    },
    {
      "constant": false,
      "inputs": [
        {
          "name": "_totalPooledEther",
          "type": "uint256"
        }
      ],
      "name": "setTotalPooledEther",
      "outputs": [],
      "payable": false,
      "stateMutability": "nonpayable",
      "type": "function"
    },
    {
      "constant": false,
      "inputs": [
        {
          "name": "_recipient",
          "type": "address"
        },
        {
          "name": "_sharesAmount",
          "type": "uint256"
        }
      ],
      "name": "transferShares",
      "outputs": [
        {
          "name": "",
          "type": "uint256"
        }
      ],
      "payable": false,
      "stateMutability": "nonpayable",
      "type": "function"
    },
    {
      "constant": true,
      "inputs": [],
      "name": "symbol",
      "outputs": [
        {
          "name": "",
          "type": "string"
        }
      ],
      "payable": false,
      "stateMutability": "pure",
      "type": "function"
    },
    {
      "constant": false,
      "inputs": [
        {
          "name": "_spender",
          "type": "address"
        },
        {
          "name": "_subtractedValue",
          "type": "uint256"
        }
      ],
      "name": "decreaseAllowance",
      "outputs": [
        {
          "name": "",
          "type": "bool"
        }
      ],
      "payable": false,
      "stateMutability": "nonpayable",
      "type": "function"
    },
    {
      "constant": false,
      "inputs": [
        {
          "name": "_recipient",
          "type": "address"
        },
        {
          "name": "_amount",
          "type": "uint256"
        }
      ],
      "name": "transfer",
      "outputs": [
        {
          "name": "",
          "type": "bool"
        }
      ],
      "payable": false,
      "stateMutability": "nonpayable",
      "type": "function"
    },
    {
      "constant": true,
      "inputs": [],
      "name": "getTotalShares",
      "outputs": [
        {
          "name": "",
          "type": "uint256"
        }
      ],
      "payable": false,
      "stateMutability": "view",
      "type": "function"
    },
    {
      "constant": true,
      "inputs": [
        {
          "name": "_owner",
          "type": "address"
        },
        {
          "name": "_spender",
          "type": "address"
        }
      ],
      "name": "allowance",
      "outputs": [
        {
          "name": "",
          "type": "uint256"
        }
      ],
      "payable": false,
      "stateMutability": "view",
      "type": "function"
    },
    {
      "constant": false,
      "inputs": [
        {
          "name": "_account",
          "type": "address"
        },
        {
          "name": "_sharesAmount",
          "type": "uint256"
        }
      ],
      "name": "burnShares",
      "outputs": [
        {
          "name": "newTotalShares",
          "type": "uint256"
        }
      ],
      "payable": false,
      "stateMutability": "nonpayable",
      "type": "function"
    },
    {
      "constant": true,
      "inputs": [
        {
          "name": "_account",
          "type": "address"
        }
      ],
      "name": "sharesOf",
      "outputs": [
        {
          "name": "",
          "type": "uint256"
        }
      ],
      "payable": false,
      "stateMutability": "view",
      "type": "function"
    },
    {
      "inputs": [],
      "payable": false,
      "stateMutability": "nonpayable",
      "type": "constructor"
    },
    {
      "anonymous": false,
      "inputs": [
        {
          "indexed": true,
          "name": "from",
          "type": "address"
        },
        {
          "indexed": true,
          "name": "to",
          "type": "address"
        },
        {
          "indexed": false,
          "name": "sharesValue",
          "type": "uint256"
        }
      ],
      "name": "TransferShares",
      "type": "event"
    },
    {
      "anonymous": false,
      "inputs": [
        {
          "indexed": true,
          "name": "account",
          "type": "address"
        },
        {
          "indexed": false,
          "name": "preRebaseTokenAmount",
          "type": "uint256"
        },
        {
          "indexed": false,
          "name": "postRebaseTokenAmount",
          "type": "uint256"
        },
        {
          "indexed": false,
          "name": "sharesAmount",
          "type": "uint256"
        }
      ],
      "name": "SharesBurnt",
      "type": "event"
    },
    {
      "anonymous": false,
      "inputs": [],
      "name": "Stopped",
      "type": "event"
    },
    {
      "anonymous": false,
      "inputs": [],
      "name": "Resumed",
      "type": "event"
    },
    {
      "anonymous": false,
      "inputs": [
        {
          "indexed": true,
          "name": "from",
          "type": "address"
        },
        {
          "indexed": true,
          "name": "to",
          "type": "address"
        },
        {
          "indexed": false,
          "name": "value",
          "type": "uint256"
        }
      ],
      "name": "Transfer",
      "type": "event"
    },
    {
      "anonymous": false,
      "inputs": [
        {
          "indexed": true,
          "name": "owner",
          "type": "address"
        },
        {
          "indexed": true,
          "name": "spender",
          "type": "address"
        },
        {
          "indexed": false,
          "name": "value",
          "type": "uint256"
        }
      ],
      "name": "Approval",
      "type": "event"
    }
  ],
  "bytecode": {
    "object": "0x60806040523480156200001157600080fd5b50620000226200002860201b60201c565b62000165565b6200007760405180807f6c69646f2e5061757361626c652e616374697665466c6167000000000000000081525060180190506040518091039020600019166200015d60201b62000f591760201c565b15620000e457604080517f08c379a000000000000000000000000000000000000000000000000000000000815260206004820152601260248201527f434f4e54524143545f49535f4143544956450000000000000000000000000000604482015290519081900360640190fd5b604080517f6c69646f2e5061757361626c652e616374697665466c616700000000000000008152905190819003601801902062000132906001620015be62000161602090811b91909117901c565b6040517f62451d457bc659158be6e6247f56ec1df424a5c7597f71c20c2bc44e0965c8f990600090a1565b5490565b9055565b61162e80620001756000396000f3006080604052600436106101165760003560e01c63ffffffff168063046f7da21461011b57806306fdde031461013257806307da68f5146101bc578063095ea7b3146101d157806318160ddd14610209578063192084511461023057806323b872dd14610248578063313ce5671461027257806337cfdaca14610209578063395093511461029d5780633f683b6a146102c1578063528c198a146102d657806370a08231146102fa5780637a28fb881461031b57806384041a58146103335780638fcb4e5b1461034b57806395d89b411461036f578063a457c2d714610384578063a9059cbb146103a8578063d5002f2e146103cc578063dd62ed3e146103e1578063ee7a7c0414610408578063f5eb42dc1461042c575b600080fd5b34801561012757600080fd5b5061013061044d565b005b34801561013e57600080fd5b50610147610457565b6040805160208082528351818301528351919283929083019185019080838360005b83811015610181578181015183820152602001610169565b50505050905090810190601f1680156101ae5780820380516001836020036101000a031916815260200191505b509250505060405180910390f35b3480156101c857600080fd5b5061013061048e565b3480156101dd57600080fd5b506101f5600160a060020a0360043516602435610496565b604080519115158252519081900360200190f35b34801561021557600080fd5b5061021e6104ad565b60408051918252519081900360200190f35b34801561023c57600080fd5b5061021e6004356104bc565b34801561025457600080fd5b506101f5600160a060020a036004358116906024351660443561050a565b34801561027e57600080fd5b506102876105dc565b6040805160ff9092168252519081900360200190f35b3480156102a957600080fd5b506101f5600160a060020a03600435166024356105e1565b3480156102cd57600080fd5b506101f561061d565b3480156102e257600080fd5b5061021e600160a060020a036004351660243561064f565b34801561030657600080fd5b5061021e600160a060020a0360043516610667565b34801561032757600080fd5b5061021e600435610675565b34801561033f57600080fd5b506101306004356106a1565b34801561035757600080fd5b5061021e600160a060020a03600435166024356106a6565b34801561037b57600080fd5b5061014761074c565b34801561039057600080fd5b506101f5600160a060020a0360043516602435610783565b3480156103b457600080fd5b506101f5600160a060020a036004351660243561081e565b3480156103d857600080fd5b5061021e61082b565b3480156103ed57600080fd5b5061021e600160a060020a0360043581169060243516610835565b34801561041457600080fd5b5061021e600160a060020a0360043516602435610860565b34801561043857600080fd5b5061021e600160a060020a0360043516610873565b61045561087e565b565b60408051808201909152601781527f4c6971756964207374616b656420457468657220322e30000000000000000000602082015290565b610455610958565b60006104a3338484610a21565b5060015b92915050565b60006104b7610bb0565b905090565b6000806104c7610bb0565b90508015156104d95760009150610504565b610501816104f56104e8610bb6565b869063ffffffff610bf416565b9063ffffffff610ce316565b91505b50919050565b600160a060020a0383166000908152600160209081526040808320338452909152812054828110156105ac576040805160e560020a62461bcd02815260206004820152602160248201527f5452414e534645525f414d4f554e545f455843454544535f414c4c4f57414e4360448201527f4500000000000000000000000000000000000000000000000000000000000000606482015290519081900360840190fd5b6105b7858585610d83565b6105d185336105cc848763ffffffff610e3716565b610a21565b506001949350505050565b601290565b336000818152600160209081526040808320600160a060020a038716845290915281205490916104a39185906105cc908663ffffffff610ecb16565b604080516000805160206115c38339815191528152905190819003601801902060009061064990610f59565b15905090565b600061065b8383610f5d565b90506104a783836110d4565b60006104a761067583611160565b600080610680610bb6565b90508015156106925760009150610504565b610501816104f56104e8610bb0565b600255565b6000806106b433858561117b565b604080518481529051600160a060020a0386169133917f9d9c909296d9c674451c0c24f02cb64981eb3b727f99865939192f880a755dcb9181900360200190a36106fd83610675565b604080518281529051919250600160a060020a0386169133917fddf252ad1be2c89b69c2b068fc378daa952ba7f163c4a11628f55a4df523b3ef919081900360200190a38091505b5092915050565b60408051808201909152600581527f7374455448000000000000000000000000000000000000000000000000000000602082015290565b336000908152600160209081526040808320600160a060020a0386168452909152812054828110156107ff576040805160e560020a62461bcd02815260206004820152601e60248201527f4445435245415345445f414c4c4f57414e43455f42454c4f575f5a45524f0000604482015290519081900360640190fd5b61081433856105cc848763ffffffff610e3716565b5060019392505050565b60006104a3338484610d83565b60006104b7610bb6565b600160a060020a03918216600090815260016020908152604080832093909416825291909152205490565b600061086c8383611384565b9392505050565b60006104a782611160565b604080516000805160206115c3833981519152815290519081900360180190206108a790610f59565b156108fc576040805160e560020a62461bcd02815260206004820152601260248201527f434f4e54524143545f49535f4143544956450000000000000000000000000000604482015290519081900360640190fd5b604080516000805160206115c38339815191528152905190819003601801902061092d90600163ffffffff6115be16565b6040517f62451d457bc659158be6e6247f56ec1df424a5c7597f71c20c2bc44e0965c8f990600090a1565b604080516000805160206115c38339815191528152905190819003601801902061098190610f59565b15156109c5576040805160e560020a62461bcd02815260206004820152601360248201526000805160206115e3833981519152604482015290519081900360640190fd5b604080516000805160206115c3833981519152815290519081900360180190206109f690600063ffffffff6115be16565b6040517f7acc84e34091ae817647a4c49116f5cc07f319078ba80f8f5fde37ea7e25cbd690600090a1565b604080516000805160206115c383398151915281529051908190036018019020610a4a90610f59565b1515610a8e576040805160e560020a62461bcd02815260206004820152601360248201526000805160206115e3833981519152604482015290519081900360640190fd5b600160a060020a0383161515610aee576040805160e560020a62461bcd02815260206004820152601960248201527f415050524f56455f46524f4d5f5a45524f5f4144445245535300000000000000604482015290519081900360640190fd5b600160a060020a0382161515610b4e576040805160e560020a62461bcd02815260206004820152601760248201527f415050524f56455f544f5f5a45524f5f41444452455353000000000000000000604482015290519081900360640190fd5b600160a060020a03808416600081815260016020908152604080832094871680845294825291829020859055815185815291517f8c5be1e5ebec7d5bd14f71427d1e84f3dd0314c0f7b2291e5b200ac8c7c3b9259281900390910190a3505050565b60025490565b604080517f6c69646f2e53744554482e746f74616c53686172657300000000000000000000815290519081900360160190206000906104b790610f59565b600080831515610c075760009150610745565b50828202828482811515610c1757fe5b60408051808201909152601181527f4d4154485f4d554c5f4f564552464c4f5700000000000000000000000000000060208201529291900414610cdb5760405160e560020a62461bcd0281526004018080602001828103825283818151815260200191508051906020019080838360005b83811015610ca0578181015183820152602001610c88565b50505050905090810190601f168015610ccd5780820380516001836020036101000a031916815260200191505b509250505060405180910390fd5b509392505050565b60408051808201909152600d81527f4d4154485f4449565f5a45524f0000000000000000000000000000000000000060208201526000908190818411610d6e5760405160e560020a62461bcd02815260040180806020018281038252838181518152602001915080519060200190808383600083811015610ca0578181015183820152602001610c88565b508284811515610d7a57fe5b04949350505050565b6000610d8e826104bc565b9050610d9b84848361117b565b82600160a060020a031684600160a060020a03167fddf252ad1be2c89b69c2b068fc378daa952ba7f163c4a11628f55a4df523b3ef846040518082815260200191505060405180910390a382600160a060020a031684600160a060020a03167f9d9c909296d9c674451c0c24f02cb64981eb3b727f99865939192f880a755dcb836040518082815260200191505060405180910390a350505050565b60408051808201909152601281527f4d4154485f5355425f554e444552464c4f5700000000000000000000000000006020820152600090819084841115610ec35760405160e560020a62461bcd02815260040180806020018281038252838181518152602001915080519060200190808383600083811015610ca0578181015183820152602001610c88565b505050900390565b60408051808201909152601181527f4d4154485f4144445f4f564552464c4f5700000000000000000000000000000060208201526000908383019084821015610cdb5760405160e560020a62461bcd02815260040180806020018281038252838181518152602001915080519060200190808383600083811015610ca0578181015183820152602001610c88565b5490565b604080516000805160206115c383398151915281529051908190036018019020600090610f8990610f59565b1515610fcd576040805160e560020a62461bcd02815260206004820152601360248201526000805160206115e3833981519152604482015290519081900360640190fd5b600160a060020a038316151561102d576040805160e560020a62461bcd02815260206004820152601860248201527f4d494e545f544f5f5448455f5a45524f5f414444524553530000000000000000604482015290519081900360640190fd5b61104582611039610bb6565b9063ffffffff610ecb16565b604080517f6c69646f2e53744554482e746f74616c536861726573000000000000000000008152905190819003601601902090915061108a908263ffffffff6115be16565b600160a060020a0383166000908152602081905260409020546110b3908363ffffffff610ecb16565b600160a060020a039093166000908152602081905260409020929092555090565b600160a060020a03821660007fddf252ad1be2c89b69c2b068fc378daa952ba7f163c4a11628f55a4df523b3ef61110a84610675565b60408051918252519081900360200190a3604080518281529051600160a060020a038416916000917f9d9c909296d9c674451c0c24f02cb64981eb3b727f99865939192f880a755dcb9181900360200190a35050565b600160a060020a031660009081526020819052604090205490565b604080516000805160206115c3833981519152815290519081900360180190206000906111a790610f59565b15156111eb576040805160e560020a62461bcd02815260206004820152601360248201526000805160206115e3833981519152604482015290519081900360640190fd5b600160a060020a038416151561124b576040805160e560020a62461bcd02815260206004820152601e60248201527f5452414e534645525f46524f4d5f5448455f5a45524f5f414444524553530000604482015290519081900360640190fd5b600160a060020a03831615156112ab576040805160e560020a62461bcd02815260206004820152601c60248201527f5452414e534645525f544f5f5448455f5a45524f5f4144445245535300000000604482015290519081900360640190fd5b50600160a060020a0383166000908152602081905260409020548082111561131d576040805160e560020a62461bcd02815260206004820152601f60248201527f5452414e534645525f414d4f554e545f455843454544535f42414c414e434500604482015290519081900360640190fd5b61132d818363ffffffff610e3716565b600160a060020a038086166000908152602081905260408082209390935590851681522054611362908363ffffffff610ecb16565b600160a060020a03909316600090815260208190526040902092909255505050565b604080516000805160206115c3833981519152815290519081900360180190206000908190819081906113b690610f59565b15156113fa576040805160e560020a62461bcd02815260206004820152601360248201526000805160206115e3833981519152604482015290519081900360640190fd5b600160a060020a038616151561145a576040805160e560020a62461bcd02815260206004820152601a60248201527f4255524e5f46524f4d5f5448455f5a45524f5f41444452455353000000000000604482015290519081900360640190fd5b600160a060020a0386166000908152602081905260409020549250828511156114cd576040805160e560020a62461bcd02815260206004820152601b60248201527f4255524e5f414d4f554e545f455843454544535f42414c414e43450000000000604482015290519081900360640190fd5b6114d685610675565b91506114f0856114e4610bb6565b9063ffffffff610e3716565b604080517f6c69646f2e53744554482e746f74616c5368617265730000000000000000000081529051908190036016019020909450611535908563ffffffff6115be16565b611545838663ffffffff610e3716565b600160a060020a03871660009081526020819052604090205561156785610675565b60408051848152602081018390528082018890529051919250600160a060020a038816917f8b2a1e1ad5e0578c3dd82494156e985dade827a87c573b5c1c7716a32162ad649181900360600190a250505092915050565b905556006c69646f2e5061757361626c652e616374697665466c61670000000000000000434f4e54524143545f49535f53544f5050454400000000000000000000000000a165627a7a72305820db533df2b2f302590ffdc0768d5685dd9dd8637cee450149552ff22737ebb0ac0029",
    "linkReferences": {}
  },
  "methodIdentifiers": {
    "allowance(address,address)": "dd62ed3e",
    "approve(address,uint256)": "095ea7b3",
    "balanceOf(address)": "70a08231",
    "burnShares(address,uint256)": "ee7a7c04",
    "decimals()": "313ce567",
    "decreaseAllowance(address,uint256)": "a457c2d7",
    "getPooledEthByShares(uint256)": "7a28fb88",
    "getSharesByPooledEth(uint256)": "19208451",
    "getTotalPooledEther()": "37cfdaca",
    "getTotalShares()": "d5002f2e",
    "increaseAllowance(address,uint256)": "39509351",
    "isStopped()": "3f683b6a",
    "mintShares(address,uint256)": "528c198a",
    "name()": "06fdde03",
    "resume()": "046f7da2",
    "setTotalPooledEther(uint256)": "84041a58",
    "sharesOf(address)": "f5eb42dc",
    "stop()": "07da68f5",
    "symbol()": "95d89b41",
    "totalSupply()": "18160ddd",
    "transfer(address,uint256)": "a9059cbb",
    "transferFrom(address,address,uint256)": "23b872dd",
    "transferShares(address,uint256)": "8fcb4e5b"
  },
  "storageLayout": {
    "storage": [],
    "types": {}
  },
  "id": 31
}