{
  "abi": [
    {
      "constant": false,
      "inputs": [],
      "name": "resume",
      "outputs": [],
      "payable": false,
      "stateMutability": "nonpayable",
      "type": "function"
    },
    {
      "constant": true,
      "inputs": [],
      "name": "name",
      "outputs": [
        {
          "name": "",
          "type": "string"
        }
      ],
      "payable": false,
      "stateMutability": "pure",
      "type": "function"
    },
    {
      "constant": false,
      "inputs": [],
      "name": "stop",
      "outputs": [],
      "payable": false,
      "stateMutability": "nonpayable",
      "type": "function"
    },
    {
      "constant": true,
      "inputs": [],
      "name": "hasInitialized",
      "outputs": [
        {
          "name": "",
          "type": "bool"
        }
      ],
      "payable": false,
      "stateMutability": "view",
      "type": "function"
    },
    {
      "constant": false,
      "inputs": [
        {
          "name": "_spender",
          "type": "address"
        },
        {
          "name": "_amount",
          "type": "uint256"
        }
      ],
      "name": "approve",
      "outputs": [
        {
          "name": "",
          "type": "bool"
        }
      ],
      "payable": false,
      "stateMutability": "nonpayable",
      "type": "function"
    },
    {
      "constant": true,
      "inputs": [],
      "name": "STAKING_CONTROL_ROLE",
      "outputs": [
        {
          "name": "",
          "type": "bytes32"
        }
      ],
      "payable": false,
      "stateMutability": "view",
      "type": "function"
    },
    {
      "constant": false,
      "inputs": [
        {
          "name": "_depositContract",
          "type": "address"
        },
        {
          "name": "_oracle",
          "type": "address"
        },
        {
          "name": "_operators",
          "type": "address"
        },
        {
          "name": "_treasury",
          "type": "address"
        },
        {
          "name": "_insuranceFund",
          "type": "address"
        }
      ],
      "name": "initialize",
      "outputs": [],
      "payable": false,
      "stateMutability": "nonpayable",
      "type": "function"
    },
    {
      "constant": true,
      "inputs": [],
      "name": "getInsuranceFund",
      "outputs": [
        {
          "name": "",
          "type": "address"
        }
      ],
      "payable": false,
      "stateMutability": "view",
      "type": "function"
    },
    {
      "constant": true,
      "inputs": [],
      "name": "totalSupply",
      "outputs": [
        {
          "name": "",
          "type": "uint256"
        }
      ],
      "payable": false,
      "stateMutability": "view",
      "type": "function"
    },
    {
      "constant": true,
      "inputs": [
        {
          "name": "_ethAmount",
          "type": "uint256"
        }
      ],
      "name": "getSharesByPooledEth",
      "outputs": [
        {
          "name": "",
          "type": "uint256"
        }
      ],
      "payable": false,
      "stateMutability": "view",
      "type": "function"
    },
    {
      "constant": true,
      "inputs": [],
      "name": "isStakingPaused",
      "outputs": [
        {
          "name": "",
          "type": "bool"
        }
      ],
      "payable": false,
      "stateMutability": "view",
      "type": "function"
    },
    {
      "constant": false,
      "inputs": [
        {
          "name": "_sender",
          "type": "address"
        },
        {
          "name": "_recipient",
          "type": "address"
        },
        {
          "name": "_amount",
          "type": "uint256"
        }
      ],
      "name": "transferFrom",
      "outputs": [
        {
          "name": "",
          "type": "bool"
        }
      ],
      "payable": false,
      "stateMutability": "nonpayable",
      "type": "function"
    },
    {
      "constant": true,
      "inputs": [],
      "name": "getOperators",
      "outputs": [
        {
          "name": "",
          "type": "address"
        }
      ],
      "payable": false,
      "stateMutability": "view",
      "type": "function"
    },
    {
      "constant": true,
      "inputs": [
        {
          "name": "_script",
          "type": "bytes"
        }
      ],
      "name": "getEVMScriptExecutor",
      "outputs": [
        {
          "name": "",
          "type": "address"
        }
      ],
      "payable": false,
      "stateMutability": "view",
      "type": "function"
    },
    {
      "constant": false,
      "inputs": [
        {
          "name": "_maxStakeLimit",
          "type": "uint256"
        },
        {
          "name": "_stakeLimitIncreasePerBlock",
          "type": "uint256"
        }
      ],
      "name": "setStakingLimit",
      "outputs": [],
      "payable": false,
      "stateMutability": "nonpayable",
      "type": "function"
    },
    {
      "constant": true,
      "inputs": [],
      "name": "RESUME_ROLE",
      "outputs": [
        {
          "name": "",
          "type": "bytes32"
        }
      ],
      "payable": false,
      "stateMutability": "view",
      "type": "function"
    },
    {
      "constant": true,
      "inputs": [],
      "name": "decimals",
      "outputs": [
        {
          "name": "",
          "type": "uint8"
        }
      ],
      "payable": false,
      "stateMutability": "pure",
      "type": "function"
    },
    {
      "constant": true,
      "inputs": [],
      "name": "getRecoveryVault",
      "outputs": [
        {
          "name": "",
          "type": "address"
        }
      ],
      "payable": false,
      "stateMutability": "view",
      "type": "function"
    },
    {
      "constant": true,
      "inputs": [],
      "name": "DEPOSIT_ROLE",
      "outputs": [
        {
          "name": "",
          "type": "bytes32"
        }
      ],
      "payable": false,
      "stateMutability": "view",
      "type": "function"
    },
    {
      "constant": true,
      "inputs": [],
      "name": "DEPOSIT_SIZE",
      "outputs": [
        {
          "name": "",
          "type": "uint256"
        }
      ],
      "payable": false,
      "stateMutability": "view",
      "type": "function"
    },
    {
      "constant": true,
      "inputs": [],
      "name": "getTotalPooledEther",
      "outputs": [
        {
          "name": "",
          "type": "uint256"
        }
      ],
      "payable": false,
      "stateMutability": "view",
      "type": "function"
    },
    {
      "constant": true,
      "inputs": [],
      "name": "PAUSE_ROLE",
      "outputs": [
        {
          "name": "",
          "type": "bytes32"
        }
      ],
      "payable": false,
      "stateMutability": "view",
      "type": "function"
    },
    {
      "constant": false,
      "inputs": [
        {
          "name": "_spender",
          "type": "address"
        },
        {
          "name": "_addedValue",
          "type": "uint256"
        }
      ],
      "name": "increaseAllowance",
      "outputs": [
        {
          "name": "",
          "type": "bool"
        }
      ],
      "payable": false,
      "stateMutability": "nonpayable",
      "type": "function"
    },
    {
      "constant": true,
      "inputs": [],
      "name": "getTreasury",
      "outputs": [
        {
          "name": "",
          "type": "address"
        }
      ],
      "payable": false,
      "stateMutability": "view",
      "type": "function"
    },
    {
      "constant": true,
      "inputs": [],
      "name": "isStopped",
      "outputs": [
        {
          "name": "",
          "type": "bool"
        }
      ],
      "payable": false,
      "stateMutability": "view",
      "type": "function"
    },
    {
      "constant": true,
      "inputs": [],
      "name": "MANAGE_WITHDRAWAL_KEY",
      "outputs": [
        {
          "name": "",
          "type": "bytes32"
        }
      ],
      "payable": false,
      "stateMutability": "view",
      "type": "function"
    },
    {
      "constant": true,
      "inputs": [],
      "name": "getBufferedEther",
      "outputs": [
        {
          "name": "",
          "type": "uint256"
        }
      ],
      "payable": false,
      "stateMutability": "view",
      "type": "function"
    },
    {
      "constant": false,
      "inputs": [],
      "name": "receiveELRewards",
      "outputs": [],
      "payable": true,
      "stateMutability": "payable",
      "type": "function"
    },
    {
      "constant": true,
      "inputs": [],
      "name": "getELRewardsWithdrawalLimit",
      "outputs": [
        {
          "name": "",
          "type": "uint256"
        }
      ],
      "payable": false,
      "stateMutability": "view",
      "type": "function"
    },
    {
      "constant": true,
      "inputs": [],
      "name": "SIGNATURE_LENGTH",
      "outputs": [
        {
          "name": "",
          "type": "uint256"
        }
      ],
      "payable": false,
      "stateMutability": "view",
      "type": "function"
    },
    {
      "constant": true,
      "inputs": [],
      "name": "getWithdrawalCredentials",
      "outputs": [
        {
          "name": "",
          "type": "bytes32"
        }
      ],
      "payable": false,
      "stateMutability": "view",
      "type": "function"
    },
    {
      "constant": true,
      "inputs": [],
      "name": "getCurrentStakeLimit",
      "outputs": [
        {
          "name": "",
          "type": "uint256"
        }
      ],
      "payable": false,
      "stateMutability": "view",
      "type": "function"
    },
    {
      "constant": false,
      "inputs": [
        {
          "name": "_limitPoints",
          "type": "uint16"
        }
      ],
      "name": "setELRewardsWithdrawalLimit",
      "outputs": [],
      "payable": false,
      "stateMutability": "nonpayable",
      "type": "function"
    },
    {
      "constant": false,
      "inputs": [
        {
          "name": "_beaconValidators",
          "type": "uint256"
        },
        {
          "name": "_beaconBalance",
          "type": "uint256"
        }
      ],
      "name": "handleOracleReport",
      "outputs": [],
      "payable": false,
      "stateMutability": "nonpayable",
      "type": "function"
    },
    {
      "constant": true,
      "inputs": [],
      "name": "getStakeLimitFullInfo",
      "outputs": [
        {
          "name": "isStakingPaused",
          "type": "bool"
        },
        {
          "name": "isStakingLimitSet",
          "type": "bool"
        },
        {
          "name": "currentStakeLimit",
          "type": "uint256"
        },
        {
          "name": "maxStakeLimit",
          "type": "uint256"
        },
        {
          "name": "maxStakeLimitGrowthBlocks",
          "type": "uint256"
        },
        {
          "name": "prevStakeLimit",
          "type": "uint256"
        },
        {
          "name": "prevStakeBlockNumber",
          "type": "uint256"
        }
      ],
      "payable": false,
      "stateMutability": "view",
      "type": "function"
    },
    {
      "constant": true,
      "inputs": [],
      "name": "SET_EL_REWARDS_WITHDRAWAL_LIMIT_ROLE",
      "outputs": [
        {
          "name": "",
          "type": "bytes32"
        }
      ],
      "payable": false,
      "stateMutability": "view",
      "type": "function"
    },
    {
      "constant": true,
      "inputs": [],
      "name": "getELRewardsVault",
      "outputs": [
        {
          "name": "",
          "type": "address"
        }
      ],
      "payable": false,
      "stateMutability": "view",
      "type": "function"
    },
    {
      "constant": true,
      "inputs": [
        {
          "name": "_account",
          "type": "address"
        }
      ],
      "name": "balanceOf",
      "outputs": [
        {
          "name": "",
          "type": "uint256"
        }
      ],
      "payable": false,
      "stateMutability": "view",
      "type": "function"
    },
    {
      "constant": false,
      "inputs": [],
      "name": "resumeStaking",
      "outputs": [],
      "payable": false,
      "stateMutability": "nonpayable",
      "type": "function"
    },
    {
      "constant": true,
      "inputs": [],
      "name": "getFeeDistribution",
      "outputs": [
        {
          "name": "treasuryFeeBasisPoints",
          "type": "uint16"
        },
        {
          "name": "insuranceFeeBasisPoints",
          "type": "uint16"
        },
        {
          "name": "operatorsFeeBasisPoints",
          "type": "uint16"
        }
      ],
      "payable": false,
      "stateMutability": "view",
      "type": "function"
    },
    {
      "constant": true,
      "inputs": [
        {
          "name": "_sharesAmount",
          "type": "uint256"
        }
      ],
      "name": "getPooledEthByShares",
      "outputs": [
        {
          "name": "",
          "type": "uint256"
        }
      ],
      "payable": false,
      "stateMutability": "view",
      "type": "function"
    },
    {
      "constant": false,
      "inputs": [
        {
          "name": "_executionLayerRewardsVault",
          "type": "address"
        }
      ],
      "name": "setELRewardsVault",
      "outputs": [],
      "payable": false,
      "stateMutability": "nonpayable",
      "type": "function"
    },
    {
      "constant": true,
      "inputs": [
        {
          "name": "token",
          "type": "address"
        }
      ],
      "name": "allowRecoverability",
      "outputs": [
        {
          "name": "",
          "type": "bool"
        }
      ],
      "payable": false,
      "stateMutability": "view",
      "type": "function"
    },
    {
      "constant": true,
      "inputs": [],
      "name": "MANAGE_PROTOCOL_CONTRACTS_ROLE",
      "outputs": [
        {
          "name": "",
          "type": "bytes32"
        }
      ],
      "payable": false,
      "stateMutability": "view",
      "type": "function"
    },
    {
      "constant": true,
      "inputs": [],
      "name": "appId",
      "outputs": [
        {
          "name": "",
          "type": "bytes32"
        }
      ],
      "payable": false,
      "stateMutability": "view",
      "type": "function"
    },
    {
      "constant": true,
      "inputs": [],
      "name": "getOracle",
      "outputs": [
        {
          "name": "",
          "type": "address"
        }
      ],
      "payable": false,
      "stateMutability": "view",
      "type": "function"
    },
    {
      "constant": true,
      "inputs": [],
      "name": "getInitializationBlock",
      "outputs": [
        {
          "name": "",
          "type": "uint256"
        }
      ],
      "payable": false,
      "stateMutability": "view",
      "type": "function"
    },
    {
      "constant": false,
      "inputs": [
        {
          "name": "_treasuryFeeBasisPoints",
          "type": "uint16"
        },
        {
          "name": "_insuranceFeeBasisPoints",
          "type": "uint16"
        },
        {
          "name": "_operatorsFeeBasisPoints",
          "type": "uint16"
        }
      ],
      "name": "setFeeDistribution",
      "outputs": [],
      "payable": false,
      "stateMutability": "nonpayable",
      "type": "function"
    },
    {
      "constant": false,
      "inputs": [
        {
          "name": "_feeBasisPoints",
          "type": "uint16"
        }
      ],
      "name": "setFee",
      "outputs": [],
      "payable": false,
      "stateMutability": "nonpayable",
      "type": "function"
    },
    {
      "constant": false,
      "inputs": [
        {
          "name": "_recipient",
          "type": "address"
        },
        {
          "name": "_sharesAmount",
          "type": "uint256"
        }
      ],
      "name": "transferShares",
      "outputs": [
        {
          "name": "",
          "type": "uint256"
        }
      ],
      "payable": false,
      "stateMutability": "nonpayable",
      "type": "function"
    },
    {
      "constant": false,
      "inputs": [
        {
          "name": "_maxDeposits",
          "type": "uint256"
        }
      ],
      "name": "depositBufferedEther",
      "outputs": [],
      "payable": false,
      "stateMutability": "nonpayable",
      "type": "function"
    },
    {
      "constant": true,
      "inputs": [],
      "name": "symbol",
      "outputs": [
        {
          "name": "",
          "type": "string"
        }
      ],
      "payable": false,
      "stateMutability": "pure",
      "type": "function"
    },
    {
      "constant": true,
      "inputs": [],
      "name": "MANAGE_FEE",
      "outputs": [
        {
          "name": "",
          "type": "bytes32"
        }
      ],
      "payable": false,
      "stateMutability": "view",
      "type": "function"
    },
    {
      "constant": false,
      "inputs": [
        {
          "name": "_token",
          "type": "address"
        }
      ],
      "name": "transferToVault",
      "outputs": [],
      "payable": false,
      "stateMutability": "nonpayable",
      "type": "function"
    },
    {
      "constant": true,
      "inputs": [
        {
          "name": "_sender",
          "type": "address"
        },
        {
          "name": "_role",
          "type": "bytes32"
        },
        {
          "name": "_params",
          "type": "uint256[]"
        }
      ],
      "name": "canPerform",
      "outputs": [
        {
          "name": "",
          "type": "bool"
        }
      ],
      "payable": false,
      "stateMutability": "view",
      "type": "function"
    },
    {
      "constant": false,
      "inputs": [
        {
          "name": "_referral",
          "type": "address"
        }
      ],
      "name": "submit",
      "outputs": [
        {
          "name": "",
          "type": "uint256"
        }
      ],
      "payable": true,
      "stateMutability": "payable",
      "type": "function"
    },
    {
      "constant": true,
      "inputs": [],
      "name": "WITHDRAWAL_CREDENTIALS_LENGTH",
      "outputs": [
        {
          "name": "",
          "type": "uint256"
        }
      ],
      "payable": false,
      "stateMutability": "view",
      "type": "function"
    },
    {
      "constant": false,
      "inputs": [
        {
          "name": "_spender",
          "type": "address"
        },
        {
          "name": "_subtractedValue",
          "type": "uint256"
        }
      ],
      "name": "decreaseAllowance",
      "outputs": [
        {
          "name": "",
          "type": "bool"
        }
      ],
      "payable": false,
      "stateMutability": "nonpayable",
      "type": "function"
    },
    {
      "constant": true,
      "inputs": [],
      "name": "getEVMScriptRegistry",
      "outputs": [
        {
          "name": "",
          "type": "address"
        }
      ],
      "payable": false,
      "stateMutability": "view",
      "type": "function"
    },
    {
      "constant": true,
      "inputs": [],
      "name": "PUBKEY_LENGTH",
      "outputs": [
        {
          "name": "",
          "type": "uint256"
        }
      ],
      "payable": false,
      "stateMutability": "view",
      "type": "function"
    },
    {
      "constant": true,
      "inputs": [],
      "name": "SET_EL_REWARDS_VAULT_ROLE",
      "outputs": [
        {
          "name": "",
          "type": "bytes32"
        }
      ],
      "payable": false,
      "stateMutability": "view",
      "type": "function"
    },
    {
      "constant": false,
      "inputs": [
        {
          "name": "_recipient",
          "type": "address"
        },
        {
          "name": "_amount",
          "type": "uint256"
        }
      ],
      "name": "transfer",
      "outputs": [
        {
          "name": "",
          "type": "bool"
        }
      ],
      "payable": false,
      "stateMutability": "nonpayable",
      "type": "function"
    },
    {
      "constant": true,
      "inputs": [],
      "name": "getDepositContract",
      "outputs": [
        {
          "name": "",
          "type": "address"
        }
      ],
      "payable": false,
      "stateMutability": "view",
      "type": "function"
    },
    {
      "constant": true,
      "inputs": [],
      "name": "getBeaconStat",
      "outputs": [
        {
          "name": "depositedValidators",
          "type": "uint256"
        },
        {
          "name": "beaconValidators",
          "type": "uint256"
        },
        {
          "name": "beaconBalance",
          "type": "uint256"
        }
      ],
      "payable": false,
      "stateMutability": "view",
      "type": "function"
    },
    {
      "constant": false,
      "inputs": [],
      "name": "removeStakingLimit",
      "outputs": [],
      "payable": false,
      "stateMutability": "nonpayable",
      "type": "function"
    },
    {
      "constant": true,
      "inputs": [],
      "name": "BURN_ROLE",
      "outputs": [
        {
          "name": "",
          "type": "bytes32"
        }
      ],
      "payable": false,
      "stateMutability": "view",
      "type": "function"
    },
    {
      "constant": true,
      "inputs": [],
      "name": "getFee",
      "outputs": [
        {
          "name": "feeBasisPoints",
          "type": "uint16"
        }
      ],
      "payable": false,
      "stateMutability": "view",
      "type": "function"
    },
    {
      "constant": true,
      "inputs": [],
      "name": "kernel",
      "outputs": [
        {
          "name": "",
          "type": "address"
        }
      ],
      "payable": false,
      "stateMutability": "view",
      "type": "function"
    },
    {
      "constant": true,
      "inputs": [],
      "name": "getTotalShares",
      "outputs": [
        {
          "name": "",
          "type": "uint256"
        }
      ],
      "payable": false,
      "stateMutability": "view",
      "type": "function"
    },
    {
      "constant": true,
      "inputs": [
        {
          "name": "_owner",
          "type": "address"
        },
        {
          "name": "_spender",
          "type": "address"
        }
      ],
      "name": "allowance",
      "outputs": [
        {
          "name": "",
          "type": "uint256"
        }
      ],
      "payable": false,
      "stateMutability": "view",
      "type": "function"
    },
    {
      "constant": true,
      "inputs": [],
      "name": "isPetrified",
      "outputs": [
        {
          "name": "",
          "type": "bool"
        }
      ],
      "payable": false,
      "stateMutability": "view",
      "type": "function"
    },
    {
      "constant": false,
      "inputs": [
        {
          "name": "_oracle",
          "type": "address"
        },
        {
          "name": "_treasury",
          "type": "address"
        },
        {
          "name": "_insuranceFund",
          "type": "address"
        }
      ],
      "name": "setProtocolContracts",
      "outputs": [],
      "payable": false,
      "stateMutability": "nonpayable",
      "type": "function"
    },
    {
      "constant": false,
      "inputs": [
        {
          "name": "_withdrawalCredentials",
          "type": "bytes32"
        }
      ],
      "name": "setWithdrawalCredentials",
      "outputs": [],
      "payable": false,
      "stateMutability": "nonpayable",
      "type": "function"
    },
    {
      "constant": true,
      "inputs": [],
      "name": "STAKING_PAUSE_ROLE",
      "outputs": [
        {
          "name": "",
          "type": "bytes32"
        }
      ],
      "payable": false,
      "stateMutability": "view",
      "type": "function"
    },
    {
      "constant": false,
      "inputs": [],
      "name": "depositBufferedEther",
      "outputs": [],
      "payable": false,
      "stateMutability": "nonpayable",
      "type": "function"
    },
    {
      "constant": false,
      "inputs": [
        {
          "name": "_account",
          "type": "address"
        },
        {
          "name": "_sharesAmount",
          "type": "uint256"
        }
      ],
      "name": "burnShares",
      "outputs": [
        {
          "name": "newTotalShares",
          "type": "uint256"
        }
      ],
      "payable": false,
      "stateMutability": "nonpayable",
      "type": "function"
    },
    {
      "constant": true,
      "inputs": [
        {
          "name": "_account",
          "type": "address"
        }
      ],
      "name": "sharesOf",
      "outputs": [
        {
          "name": "",
          "type": "uint256"
        }
      ],
      "payable": false,
      "stateMutability": "view",
      "type": "function"
    },
    {
      "constant": false,
      "inputs": [],
      "name": "pauseStaking",
      "outputs": [],
      "payable": false,
      "stateMutability": "nonpayable",
      "type": "function"
    },
    {
      "constant": true,
      "inputs": [],
      "name": "getTotalELRewardsCollected",
      "outputs": [
        {
          "name": "",
          "type": "uint256"
        }
      ],
      "payable": false,
      "stateMutability": "view",
      "type": "function"
    },
    {
      "payable": true,
      "stateMutability": "payable",
      "type": "fallback"
    },
    {
      "anonymous": false,
      "inputs": [
        {
          "indexed": true,
          "name": "executor",
          "type": "address"
        },
        {
          "indexed": false,
          "name": "script",
          "type": "bytes"
        },
        {
          "indexed": false,
          "name": "input",
          "type": "bytes"
        },
        {
          "indexed": false,
          "name": "returnData",
          "type": "bytes"
        }
      ],
      "name": "ScriptResult",
      "type": "event"
    },
    {
      "anonymous": false,
      "inputs": [
        {
          "indexed": true,
          "name": "vault",
          "type": "address"
        },
        {
          "indexed": true,
          "name": "token",
          "type": "address"
        },
        {
          "indexed": false,
          "name": "amount",
          "type": "uint256"
        }
      ],
      "name": "RecoverToVault",
      "type": "event"
    },
    {
      "anonymous": false,
      "inputs": [
        {
          "indexed": true,
          "name": "from",
          "type": "address"
        },
        {
          "indexed": true,
          "name": "to",
          "type": "address"
        },
        {
          "indexed": false,
          "name": "sharesValue",
          "type": "uint256"
        }
      ],
      "name": "TransferShares",
      "type": "event"
    },
    {
      "anonymous": false,
      "inputs": [
        {
          "indexed": true,
          "name": "account",
          "type": "address"
        },
        {
          "indexed": false,
          "name": "preRebaseTokenAmount",
          "type": "uint256"
        },
        {
          "indexed": false,
          "name": "postRebaseTokenAmount",
          "type": "uint256"
        },
        {
          "indexed": false,
          "name": "sharesAmount",
          "type": "uint256"
        }
      ],
      "name": "SharesBurnt",
      "type": "event"
    },
    {
      "anonymous": false,
      "inputs": [],
      "name": "Stopped",
      "type": "event"
    },
    {
      "anonymous": false,
      "inputs": [],
      "name": "Resumed",
      "type": "event"
    },
    {
      "anonymous": false,
      "inputs": [
        {
          "indexed": true,
          "name": "from",
          "type": "address"
        },
        {
          "indexed": true,
          "name": "to",
          "type": "address"
        },
        {
          "indexed": false,
          "name": "value",
          "type": "uint256"
        }
      ],
      "name": "Transfer",
      "type": "event"
    },
    {
      "anonymous": false,
      "inputs": [
        {
          "indexed": true,
          "name": "owner",
          "type": "address"
        },
        {
          "indexed": true,
          "name": "spender",
          "type": "address"
        },
        {
          "indexed": false,
          "name": "value",
          "type": "uint256"
        }
      ],
      "name": "Approval",
      "type": "event"
    },
    {
      "anonymous": false,
      "inputs": [],
      "name": "StakingPaused",
      "type": "event"
    },
    {
      "anonymous": false,
      "inputs": [],
      "name": "StakingResumed",
      "type": "event"
    },
    {
      "anonymous": false,
      "inputs": [
        {
          "indexed": false,
          "name": "maxStakeLimit",
          "type": "uint256"
        },
        {
          "indexed": false,
          "name": "stakeLimitIncreasePerBlock",
          "type": "uint256"
        }
      ],
      "name": "StakingLimitSet",
      "type": "event"
    },
    {
      "anonymous": false,
      "inputs": [],
      "name": "StakingLimitRemoved",
      "type": "event"
    },
    {
      "anonymous": false,
      "inputs": [
        {
          "indexed": false,
          "name": "oracle",
          "type": "address"
        },
        {
          "indexed": false,
          "name": "treasury",
          "type": "address"
        },
        {
          "indexed": false,
          "name": "insuranceFund",
          "type": "address"
        }
      ],
      "name": "ProtocolContactsSet",
      "type": "event"
    },
    {
      "anonymous": false,
      "inputs": [
        {
          "indexed": false,
          "name": "feeBasisPoints",
          "type": "uint16"
        }
      ],
      "name": "FeeSet",
      "type": "event"
    },
    {
      "anonymous": false,
      "inputs": [
        {
          "indexed": false,
          "name": "treasuryFeeBasisPoints",
          "type": "uint16"
        },
        {
          "indexed": false,
          "name": "insuranceFeeBasisPoints",
          "type": "uint16"
        },
        {
          "indexed": false,
          "name": "operatorsFeeBasisPoints",
          "type": "uint16"
        }
      ],
      "name": "FeeDistributionSet",
      "type": "event"
    },
    {
      "anonymous": false,
      "inputs": [
        {
          "indexed": false,
          "name": "amount",
          "type": "uint256"
        }
      ],
      "name": "ELRewardsReceived",
      "type": "event"
    },
    {
      "anonymous": false,
      "inputs": [
        {
          "indexed": false,
          "name": "limitPoints",
          "type": "uint256"
        }
      ],
      "name": "ELRewardsWithdrawalLimitSet",
      "type": "event"
    },
    {
      "anonymous": false,
      "inputs": [
        {
          "indexed": false,
          "name": "withdrawalCredentials",
          "type": "bytes32"
        }
      ],
      "name": "WithdrawalCredentialsSet",
      "type": "event"
    },
    {
      "anonymous": false,
      "inputs": [
        {
          "indexed": false,
          "name": "executionLayerRewardsVault",
          "type": "address"
        }
      ],
      "name": "ELRewardsVaultSet",
      "type": "event"
    },
    {
      "anonymous": false,
      "inputs": [
        {
          "indexed": true,
          "name": "sender",
          "type": "address"
        },
        {
          "indexed": false,
          "name": "amount",
          "type": "uint256"
        },
        {
          "indexed": false,
          "name": "referral",
          "type": "address"
        }
      ],
      "name": "Submitted",
      "type": "event"
    },
    {
      "anonymous": false,
      "inputs": [
        {
          "indexed": false,
          "name": "amount",
          "type": "uint256"
        }
      ],
      "name": "Unbuffered",
      "type": "event"
    },
    {
      "anonymous": false,
      "inputs": [
        {
          "indexed": true,
          "name": "sender",
          "type": "address"
        },
        {
          "indexed": false,
          "name": "tokenAmount",
          "type": "uint256"
        },
        {
          "indexed": false,
          "name": "sentFromBuffer",
          "type": "uint256"
        },
        {
          "indexed": true,
          "name": "pubkeyHash",
          "type": "bytes32"
        },
        {
          "indexed": false,
          "name": "etherAmount",
          "type": "uint256"
        }
      ],
      "name": "Withdrawal",
      "type": "event"
    }
  ],
  "bytecode": {
    "object": "0x6080604052620000146200001a60201b60201c565b62000231565b6200002a6200011c60201b60201c565b60408051808201909152601881527f494e49545f414c52454144595f494e495449414c495a454400000000000000006020820152901562000106576040517f08c379a00000000000000000000000000000000000000000000000000000000081526004018080602001828103825283818151815260200191508051906020019080838360005b83811015620000ca578181015183820152602001620000b0565b50505050905090810190601f168015620000f85780820380516001836020036101000a031916815260200191505b509250505060405180910390fd5b506200011a6000196200014f60201b60201c565b565b60006200014a6000805160206200616283398151915260001b600019166200022960201b62003e6f1760201c565b905090565b6200015f6200011c60201b60201c565b60408051808201909152601881527f494e49545f414c52454144595f494e495449414c495a4544000000000000000060208201529015620001fe576040517f08c379a000000000000000000000000000000000000000000000000000000000815260040180806020018281038252838181518152602001915080519060200190808383600083811015620000ca578181015183820152602001620000b0565b506200022660008051602062006162833981519152826200022d602090811b6200362617901c565b50565b5490565b9055565b615f2180620002416000396000f30060806040526004361061037e5760003560e01c63ffffffff168063046f7da2146103e157806306fdde03146103f857806307da68f5146104825780630803fac014610497578063095ea7b3146104c0578063136dd43c146104e45780631459457a1461050b578063158626f71461054457806318160ddd14610575578063192084511461058a5780631ea7ca89146105a257806323b872dd146105b757806327a099d8146105e15780632914b9bd146105f65780632cb5f7841461064f5780632de03aa11461066a578063313ce5671461067f57806332f0a3b5146106aa578063353efdcf146106bf57806336bf3325146106d457806337cfdaca14610575578063389ed267146106e957806339509351146106fe5780633b19e84a146107225780633f683b6a14610737578063435721da1461074c57806347b714e0146107615780634ad509b21461077657806352b3af931461077e578063540bc5ea1461079357806356396715146107a8578063609c4c6c146107bd57806363c2eb53146107d257806364f9991a146107ee578063665b4b0b146108095780636bb98ad314610858578063706aa30d1461086d57806370a08231146108825780637475f913146108a3578063752f77f1146108b85780637a28fb88146108f35780637e4193c61461090b5780637e7db6e11461092c5780637f6fdac71461094d57806380afdea814610962578063833b1fce146109775780638b3dd7491461098c5780638cef3612146109a15780638e005553146109c95780638fcb4e5b146109e557806390adc83b14610a0957806395d89b4114610a215780639aaa2d1514610a365780639d4941d814610a4b578063a1658fad14610a6c578063a1903eab14610ad3578063a30448c014610ae7578063a457c2d714610afc578063a479e50814610b20578063a4d55d1d14610b35578063a6426f5f14610b4a578063a9059cbb14610b5f578063ab94276a14610b83578063ae2e353814610b98578063b3320d9a14610bcb578063b930908f14610be0578063ced72f8714610bf5578063d4aae0c414610c21578063d5002f2e14610c36578063dd62ed3e14610c4b578063de4796ed14610c72578063e73f452914610c87578063e97ee8cc14610cb4578063eb85262f14610ccc578063ecc1dcfb14610ce1578063ee7a7c0414610cf6578063f5eb42dc14610d1a578063f999c50614610d3b578063fa64ebac14610d50575b36156103d4576040805160e560020a62461bcd02815260206004820152600e60248201527f4e4f4e5f454d5054595f44415441000000000000000000000000000000000000604482015290519081900360640190fd5b6103de6000610d65565b50005b3480156103ed57600080fd5b506103f6610fd5565b005b34801561040457600080fd5b5061040d611022565b6040805160208082528351818301528351919283929083019185019080838360005b8381101561044757818101518382015260200161042f565b50505050905090810190601f1680156104745780820380516001836020036101000a031916815260200191505b509250505060405180910390f35b34801561048e57600080fd5b506103f6611059565b3480156104a357600080fd5b506104ac6110a4565b604080519115158252519081900360200190f35b3480156104cc57600080fd5b506104ac600160a060020a03600435166024356110cd565b3480156104f057600080fd5b506104f96110e3565b60408051918252519081900360200190f35b34801561051757600080fd5b506103f6600160a060020a0360043581169060243581169060443581169060643581169060843516611106565b34801561055057600080fd5b5061055961126e565b60408051600160a060020a039092168252519081900360200190f35b34801561058157600080fd5b506104f96112b1565b34801561059657600080fd5b506104f96004356112bb565b3480156105ae57600080fd5b506104ac611309565b3480156105c357600080fd5b506104ac600160a060020a036004358116906024351660443561133e565b3480156105ed57600080fd5b50610559611412565b34801561060257600080fd5b506040805160206004803580820135601f81018490048402850184019095528484526105599436949293602493928401919081908401838280828437509497506114509650505050505050565b34801561065b57600080fd5b506103f6600435602435611535565b34801561067657600080fd5b506104f96115df565b34801561068b57600080fd5b50610694611614565b6040805160ff9092168252519081900360200190f35b3480156106b657600080fd5b50610559611619565b3480156106cb57600080fd5b506104f961168e565b3480156106e057600080fd5b506104f96116c3565b3480156106f557600080fd5b506104f96116d0565b34801561070a57600080fd5b506104ac600160a060020a0360043516602435611705565b34801561072e57600080fd5b50610559611741565b34801561074357600080fd5b506104ac61177f565b34801561075857600080fd5b506104f96117b1565b34801561076d57600080fd5b506104f96117e6565b6103f66117f0565b34801561078a57600080fd5b506104f9611969565b34801561079f57600080fd5b506104f96119cd565b3480156107b457600080fd5b506104f96119d2565b3480156107c957600080fd5b506104f9611a10565b3480156107de57600080fd5b506103f661ffff60043516611a45565b3480156107fa57600080fd5b506103f6600435602435611b42565b34801561081557600080fd5b5061081e611f42565b6040805197151588529515156020880152868601949094526060860192909252608085015260a084015260c0830152519081900360e00190f35b34801561086457600080fd5b506104f9611fe5565b34801561087957600080fd5b50610559612040565b34801561088e57600080fd5b506104f9600160a060020a03600435166120a4565b3480156108af57600080fd5b506103f66120bd565b3480156108c457600080fd5b506108cd6120e6565b6040805161ffff9485168152928416602084015292168183015290519081900360600190f35b3480156108ff57600080fd5b506104f96004356121ab565b34801561091757600080fd5b506103f6600160a060020a03600435166121d7565b34801561093857600080fd5b506104ac600160a060020a03600435166122b9565b34801561095957600080fd5b506104f96122bf565b34801561096e57600080fd5b506104f96122f4565b34801561098357600080fd5b5061055961231f565b34801561099857600080fd5b506104f961235d565b3480156109ad57600080fd5b506103f661ffff60043581169060243581169060443516612388565b3480156109d557600080fd5b506103f661ffff6004351661253d565b3480156109f157600080fd5b506104f9600160a060020a03600435166024356125ee565b348015610a1557600080fd5b506103f6600435612694565b348015610a2d57600080fd5b5061040d6126db565b348015610a4257600080fd5b506104f9612712565b348015610a5757600080fd5b506103f6600160a060020a0360043516612747565b348015610a7857600080fd5b5060408051602060046044358181013583810280860185019096528085526104ac958335600160a060020a03169560248035963696956064959394920192918291850190849080828437509497506129879650505050505050565b6104f9600160a060020a0360043516612ad2565b348015610af357600080fd5b506104f9612add565b348015610b0857600080fd5b506104ac600160a060020a0360043516602435612ae2565b348015610b2c57600080fd5b50610559612b7d565b348015610b4157600080fd5b506104f9612c64565b348015610b5657600080fd5b506104f9612c69565b348015610b6b57600080fd5b506104ac600160a060020a0360043516602435612c9e565b348015610b8f57600080fd5b50610559612cab565b348015610ba457600080fd5b50610bad612ce9565b60408051938452602084019290925282820152519081900360600190f35b348015610bd757600080fd5b506103f6612d71565b348015610bec57600080fd5b506104f9612dfb565b348015610c0157600080fd5b50610c0a612e30565b6040805161ffff9092168252519081900360200190f35b348015610c2d57600080fd5b50610559612e6e565b348015610c4257600080fd5b506104f9612e99565b348015610c5757600080fd5b506104f9600160a060020a0360043581169060243516612ea3565b348015610c7e57600080fd5b506104ac612ece565b348015610c9357600080fd5b506103f6600160a060020a0360043581169060243581169060443516612ee1565b348015610cc057600080fd5b506103f6600435612f2c565b348015610cd857600080fd5b506104f961303a565b348015610ced57600080fd5b506103f661306f565b348015610d0257600080fd5b506104f9600160a060020a03600435166024356130b4565b348015610d2657600080fd5b506104f9600160a060020a0360043516613198565b348015610d4757600080fd5b506103f66131a3565b348015610d5c57600080fd5b506104f96131de565b6000610d6f615dee565b600080341515610dc9576040805160e560020a62461bcd02815260206004820152600c60248201527f5a45524f5f4445504f5349540000000000000000000000000000000000000000604482015290519081900360640190fd5b60408051600080516020615e1683398151915281529051908190036014019020610df290613242565b9250610dfd83613295565b15610e52576040805160e560020a62461bcd02815260206004820152600e60248201527f5354414b494e475f504155534544000000000000000000000000000000000000604482015290519081900360640190fd5b610e5b836132a0565b15610f0457610e69836132b2565b915034821015610ec3576040805160e560020a62461bcd02815260206004820152600b60248201527f5354414b455f4c494d4954000000000000000000000000000000000000000000604482015290519081900360640190fd5b610f04610ed88434850363ffffffff61333d16565b60408051600080516020615e16833981519152815290519081900360140190209063ffffffff61338116565b610f0d346112bb565b9050801515610f195750345b610f2333826133e0565b50610f7d610f3f34610f3361354b565b9063ffffffff61359816565b604080517f6c69646f2e4c69646f2e62756666657265644574686572000000000000000000815290519081900360170190209063ffffffff61362616565b60408051348152600160a060020a0387166020820152815133927f96a25c8ce0baabc1fdefd93e9ed25d8e092a3332f3aa9a41722b5697231d1d1a928290030190a2610fc9338261362a565b8093505b505050919050565b604080517f524553554d455f524f4c450000000000000000000000000000000000000000008152905190819003600b019020611010906136b6565b611018613773565b61102061384d565b565b60408051808201909152601781527f4c6971756964207374616b656420457468657220322e30000000000000000000602082015290565b604080517f50415553455f524f4c45000000000000000000000000000000000000000000008152905190819003600a019020611094906136b6565b61109c6138b8565b611020613981565b6000806110af61235d565b905080158015906110c75750806110c46139e0565b10155b91505090565b60006110da3384846139e4565b50600192915050565b60408051600080516020615eb68339815191528152905190819003601401902081565b61110e61235d565b60408051808201909152601881527f494e49545f414c52454144595f494e495449414c495a45440000000000000000602082015290156111cf5760405160e560020a62461bcd0281526004018080602001828103825283818151815260200191508051906020019080838360005b8381101561119457818101518382015260200161117c565b50505050905090810190601f1680156111c15780820380516001836020036101000a031916815260200191505b509250505060405180910390fd5b50604080517f6c69646f2e4c69646f2e6e6f64654f70657261746f72735265676973747279008152905190819003601f019020611212908463ffffffff61362616565b604080517f6c69646f2e4c69646f2e6465706f736974436f6e74726163740000000000000081529051908190036019019020611254908663ffffffff61362616565b61125f848383613b73565b611267613da9565b5050505050565b604080517f6c69646f2e4c69646f2e696e737572616e636546756e64000000000000000000815290519081900360170190206000906112ac90613e6f565b905090565b60006112ac613e73565b6000806112c6613e73565b90508015156112d85760009150611303565b611300816112f46112e7613eb5565b869063ffffffff613ef316565b9063ffffffff613f9e16565b91505b50919050565b60408051600080516020615e16833981519152815290519081900360140190206000906112ac9061133990613242565b613295565b600160a060020a0383166000908152600160209081526040808320338452909152812054828110156113e0576040805160e560020a62461bcd02815260206004820152602160248201527f5452414e534645525f414d4f554e545f455843454544535f414c4c4f57414e4360448201527f4500000000000000000000000000000000000000000000000000000000000000606482015290519081900360840190fd5b6113eb85858561403e565b6114058533611400848763ffffffff6140f216565b6139e4565b600191505b509392505050565b604080517f6c69646f2e4c69646f2e6e6f64654f70657261746f72735265676973747279008152905190819003601f0190206000906112ac90613e6f565b600061145a612b7d565b600160a060020a03166304bf2a7f836040518263ffffffff1660e01b81526004018080602001828103825283818151815260200191508051906020019080838360005b838110156114b557818101518382015260200161149d565b50505050905090810190601f1680156114e25780820380516001836020036101000a031916815260200191505b5092505050602060405180830381600087803b15801561150157600080fd5b505af1158015611515573d6000803e3d6000fd5b505050506040513d602081101561152b57600080fd5b505190505b919050565b60408051600080516020615eb68339815191528152905190819003601401902061155e906136b6565b60408051600080516020615e16833981519152815290519081900360140190206115a090610ed8908490849061159390613242565b919063ffffffff61418616565b604080518381526020810183905281517fce9fddf6179affa1ea7bf36d80a6bf0284e0f3b91f4b2fa6eea2af923e7fac2d929181900390910190a15050565b604080517f524553554d455f524f4c450000000000000000000000000000000000000000008152905190819003600b01902081565b601290565b6000611623612e6e565b600160a060020a03166332f0a3b56040518163ffffffff1660e01b8152600401602060405180830381600087803b15801561165d57600080fd5b505af1158015611671573d6000803e3d6000fd5b505050506040513d602081101561168757600080fd5b5051905090565b604080517f4445504f5349545f524f4c4500000000000000000000000000000000000000008152905190819003600c01902081565b6801bc16d674ec80000081565b604080517f50415553455f524f4c45000000000000000000000000000000000000000000008152905190819003600a01902081565b336000818152600160209081526040808320600160a060020a038716845290915281205490916110da918590611400908663ffffffff61359816565b604080517f6c69646f2e4c69646f2e74726561737572790000000000000000000000000000815290519081900360120190206000906112ac90613e6f565b60408051600080516020615e56833981519152815290519081900360180190206000906117ab90613e6f565b15905090565b604080517f4d414e4147455f5749544844524157414c5f4b455900000000000000000000008152905190819003601501902081565b60006112ac61354b565b604080517f6c69646f2e4c69646f2e657865637574696f6e4c61796572526577617264735681527f61756c74000000000000000000000000000000000000000000000000000000006020820152905190819003602401902061185190613e6f565b600160a060020a0316331461186557600080fd5b604080517f6c69646f2e4c69646f2e746f74616c454c52657761726473436f6c6c6563746581527f640000000000000000000000000000000000000000000000000000000000000060208201529051908190036021019020611934906118d0903490610f3390613e6f565b604080517f6c69646f2e4c69646f2e746f74616c454c52657761726473436f6c6c6563746581527f6400000000000000000000000000000000000000000000000000000000000000602082015290519081900360210190209063ffffffff61362616565b6040805134815290517fd27f9b0c98bdee27044afa149eadcd2047d6399cb6613a45c5b87e6aca76e6b59181900360200190a1565b604080517f6c69646f2e4c69646f2e454c526577617264735769746864726177616c4c696d81527f6974000000000000000000000000000000000000000000000000000000000000602082015290519081900360220190206000906112ac90613e6f565b606081565b604080517f6c69646f2e4c69646f2e7769746864726177616c43726564656e7469616c73008152905190819003601f0190206000906112ac90613e6f565b60408051600080516020615e16833981519152815290519081900360140190206000906112ac90611a4090613242565b61439e565b604080517f5345545f454c5f524557415244535f5749544844524157414c5f4c494d49545f81527f524f4c450000000000000000000000000000000000000000000000000000000060208201529051908190036024019020611aa6906136b6565b604080517f6c69646f2e4c69646f2e454c526577617264735769746864726177616c4c696d81527f697400000000000000000000000000000000000000000000000000000000000060208201529051908190036022019020611b0890826143d7565b6040805161ffff8316815290517f166eb213129ab51688433b859b5a206403ee174774a1430f8ffb83af316161f69181900360200190a150565b6000806000806000806000611b7d6040518080600080516020615e568339815191528152506018019050604051809103902060001916613e6f565b1515611bc1576040805160e560020a62461bcd0281526020600482015260136024820152600080516020615e96833981519152604482015290519081900360640190fd5b611bc961231f565b600160a060020a03163314611c28576040805160e560020a62461bcd02815260206004820152600f60248201527f4150505f415554485f4641494c45440000000000000000000000000000000000604482015290519081900360640190fd5b60408051600080516020615e768339815191528152905190819003601d019020611c5190613e6f565b965086891115611cab576040805160e560020a62461bcd02815260206004820152601760248201527f5245504f525445445f4d4f52455f4445504f5349544544000000000000000000604482015290519081900360640190fd5b60408051600080516020615ed68339815191528152905190819003601a019020611cd490613e6f565b955085891015611d2e576040805160e560020a62461bcd02815260206004820152601860248201527f5245504f525445445f4c4553535f56414c494441544f52530000000000000000604482015290519081900360640190fd5b611d3e898763ffffffff6140f216565b60408051600080516020615e3683398151915281529051908190036017019020909550611d8790611d6e90613e6f565b610f33876801bc16d674ec80000063ffffffff613ef316565b60408051600080516020615e3683398151915281529051908190036017019020909450611dba908963ffffffff61362616565b60408051600080516020615ed68339815191528152905190819003601a019020611dea908a63ffffffff61362616565b611df2612040565b9150600160a060020a03821615611f0557604080517f6c69646f2e4c69646f2e454c526577617264735769746864726177616c4c696d81527f697400000000000000000000000000000000000000000000000000000000000060208201529051908190036022019020600160a060020a03831690639342c8f49061271090611e7990613e6f565b611e81613e73565b02811515611e8b57fe5b046040518263ffffffff1660e01b815260040180828152602001915050602060405180830381600087803b158015611ec257600080fd5b505af1158015611ed6573d6000803e3d6000fd5b505050506040513d6020811015611eec57600080fd5b505192508215611f0557611f05610f3f84610f3361354b565b83881115611f3757611f1d888563ffffffff6140f216565b9050611f37611f32828563ffffffff61359816565b614449565b505050505050505050565b6000806000806000806000611f55615dee565b60408051600080516020615e1683398151915281529051908190036014019020611f7e90613242565b9050611f8981613295565b9750611f94816132a0565b9650611f9f8161439e565b955080606001516001606060020a03169450806040015163ffffffff16935080602001516001606060020a03169250806000015163ffffffff1691505090919293949596565b604080517f5345545f454c5f524557415244535f5749544844524157414c5f4c494d49545f81527f524f4c45000000000000000000000000000000000000000000000000000000006020820152905190819003602401902081565b604080517f6c69646f2e4c69646f2e657865637574696f6e4c61796572526577617264735681527f61756c7400000000000000000000000000000000000000000000000000000000602082015290519081900360240190206000906112ac90613e6f565b60006120b76120b283614578565b6121ab565b92915050565b60408051600080516020615eb683398151915281529051908190036014019020611018906136b6565b604080517f6c69646f2e4c69646f2e74726561737572794665650000000000000000000000815290519081900360150190206000908190819061212890613e6f565b604080517f6c69646f2e4c69646f2e696e737572616e6365466565000000000000000000008152905190819003601601902090935061216690613e6f565b604080517f6c69646f2e4c69646f2e6e6f64654f70657261746f72734665650000000000008152905190819003601a0190209092506121a490613e6f565b9050909192565b6000806121b6613eb5565b90508015156121c85760009150611303565b611300816112f46112e7613e73565b604080517f5345545f454c5f524557415244535f5641554c545f524f4c450000000000000081529051908190036019019020612212906136b6565b604080517f6c69646f2e4c69646f2e657865637574696f6e4c61796572526577617264735681527f61756c74000000000000000000000000000000000000000000000000000000006020820152905190819003602401902061227a908263ffffffff61362616565b60408051600160a060020a038316815290517f8e2d01c4cfaa88fa4d772d37e4d068deda4342bf4ef6dc4b0cf3e868be5ebb409181900360200190a150565b50600190565b604080517f4d414e4147455f50524f544f434f4c5f434f4e5452414354535f524f4c4500008152905190819003601e01902081565b60006112ac7fd625496217aa6a3453eecb9c3489dc5a53e6c67b444329ea2b2cbc9ff547639b613e6f565b604080517f6c69646f2e4c69646f2e6f7261636c6500000000000000000000000000000000815290519081900360100190206000906112ac90613e6f565b60006112ac7febb05b386a8d34882b8711d156f463690983dc47815980fb82aeeff1aa43579e613e6f565b604080517f4d414e4147455f464545000000000000000000000000000000000000000000008152905190819003600a0190206123c3906136b6565b6123e68161ffff16610f338461ffff168661ffff1661359890919063ffffffff16565b6127101461243e576040805160e560020a62461bcd02815260206004820152601060248201527f464545535f444f4e545f4144445f555000000000000000000000000000000000604482015290519081900360640190fd5b604080517f6c69646f2e4c69646f2e747265617375727946656500000000000000000000008152905190819003601501902061247a90846143d7565b604080517f6c69646f2e4c69646f2e696e737572616e636546656500000000000000000000815290519081900360160190206124b690836143d7565b604080517f6c69646f2e4c69646f2e6e6f64654f70657261746f72734665650000000000008152905190819003601a0190206124f290826143d7565b6040805161ffff8086168252808516602083015283168183015290517f034529db1bba3830b8877e116871f19c5b96ef86c739f2a05668c860c84668989181900360600190a1505050565b604080517f4d414e4147455f464545000000000000000000000000000000000000000000008152905190819003600a019020612578906136b6565b604080517f6c69646f2e4c69646f2e666565000000000000000000000000000000000000008152905190819003600d0190206125b490826143d7565b6040805161ffff8316815290517faab062e3faf62b6c9a0f8e62af66e0310e27127a8c871a67be7dd4d93de6da539181900360200190a150565b6000806125fc338585614593565b604080518481529051600160a060020a0386169133917f9d9c909296d9c674451c0c24f02cb64981eb3b727f99865939192f880a755dcb9181900360200190a3612645836121ab565b604080518281529051919250600160a060020a0386169133917fddf252ad1be2c89b69c2b068fc378daa952ba7f163c4a11628f55a4df523b3ef919081900360200190a38091505b5092915050565b604080517f4445504f5349545f524f4c4500000000000000000000000000000000000000008152905190819003600c0190206126cf906136b6565b6126d88161479c565b50565b60408051808201909152600581527f7374455448000000000000000000000000000000000000000000000000000000602082015290565b604080517f4d414e4147455f464545000000000000000000000000000000000000000000008152905190819003600a01902081565b6000806000612755846122b9565b15156127ab576040805160e560020a62461bcd02815260206004820152601260248201527f5245434f5645525f444953414c4c4f5745440000000000000000000000000000604482015290519081900360640190fd5b6127b3611619565b9250600160a060020a0383161515612815576040805160e560020a62461bcd02815260206004820152601260248201527f5245434f5645525f5641554c545f5a45524f0000000000000000000000000000604482015290519081900360640190fd5b600160a060020a03841615156128a95761282d614884565b915082600160a060020a03168260405160006040518083038185875af19250505015156128a4576040805160e560020a62461bcd02815260206004820152601760248201527f5245434f5645525f5452414e534645525f4641494c4544000000000000000000604482015290519081900360640190fd5b612936565b50826128c4600160a060020a0382163063ffffffff61489f16565b91506128e0600160a060020a038216848463ffffffff6149b416565b1515612936576040805160e560020a62461bcd02815260206004820152601d60248201527f5245434f5645525f544f4b454e5f5452414e534645525f4641494c4544000000604482015290519081900360640190fd5b83600160a060020a031683600160a060020a03167f596caf56044b55fb8c4ca640089bbc2b63cae3e978b851f5745cbb7c5b288e02846040518082815260200191505060405180910390a350505050565b6000806129926110a4565b15156129a1576000915061140a565b6129a9612e6e565b9050600160a060020a03811615156129c4576000915061140a565b80600160a060020a031663fdef91068630876129df88614a36565b60405163ffffffff861660e01b8152600160a060020a03808616600483019081529085166024830152604482018490526080606483019081528351608484015283519192909160a490910190602085019080838360005b83811015612a4e578181015183820152602001612a36565b50505050905090810190601f168015612a7b5780820380516001836020036101000a031916815260200191505b5095505050505050602060405180830381600087803b158015612a9d57600080fd5b505af1158015612ab1573d6000803e3d6000fd5b505050506040513d6020811015612ac757600080fd5b505195945050505050565b60006120b782610d65565b602081565b336000908152600160209081526040808320600160a060020a038616845290915281205482811015612b5e576040805160e560020a62461bcd02815260206004820152601e60248201527f4445435245415345445f414c4c4f57414e43455f42454c4f575f5a45524f0000604482015290519081900360640190fd5b612b733385611400848763ffffffff6140f216565b5060019392505050565b600080612b88612e6e565b604080517fbe00bbd80000000000000000000000000000000000000000000000000000000081527fd6f028ca0e8edb4a8c9757ca4fdccab25fa1e0317da1188108f7d2dee14902fb60048201527fddbcfd564f642ab5627cf68b9b7d374fb4f8a36e941a75d89c87998cef03bd6160248201529051600160a060020a03929092169163be00bbd8916044808201926020929091908290030181600087803b158015612c3257600080fd5b505af1158015612c46573d6000803e3d6000fd5b505050506040513d6020811015612c5c57600080fd5b505192915050565b603081565b604080517f5345545f454c5f524557415244535f5641554c545f524f4c45000000000000008152905190819003601901902081565b60006110da33848461403e565b604080517f6c69646f2e4c69646f2e6465706f736974436f6e747261637400000000000000815290519081900360190190206000906112ac90613e6f565b60408051600080516020615e768339815191528152905190819003601d01902060009081908190612d1990613e6f565b60408051600080516020615ed68339815191528152905190819003601a019020909350612d4590613e6f565b60408051600080516020615e36833981519152815290519081900360170190209092506121a490613e6f565b60408051600080516020615eb683398151915281529051908190036014019020612d9a906136b6565b60408051600080516020615e1683398151915281529051908190036014019020612dd090610ed890612dcb90613242565b614a40565b6040517f9b2a687c198898fcc32a33bbc610d478f177a73ab7352023e6cc1de5bf12a3df90600090a1565b604080517f4255524e5f524f4c4500000000000000000000000000000000000000000000008152905190819003600901902081565b604080517f6c69646f2e4c69646f2e666565000000000000000000000000000000000000008152905190819003600d0190206000906112ac90613e6f565b60006112ac7f4172f0f7d2289153072b0a6ca36959e0cbe2efc3afe50fc81636caa96338137b613e6f565b60006112ac613eb5565b600160a060020a03918216600090815260016020908152604080832093909416825291909152205490565b6000600019612edb61235d565b14905090565b604080517f4d414e4147455f50524f544f434f4c5f434f4e5452414354535f524f4c4500008152905190819003601e019020612f1c906136b6565b612f27838383613b73565b505050565b604080517f4d414e4147455f5749544844524157414c5f4b4559000000000000000000000081529051908190036015019020612f67906136b6565b604080517f6c69646f2e4c69646f2e7769746864726177616c43726564656e7469616c73008152905190819003601f019020612fa9908263ffffffff61362616565b612fb1611412565b600160a060020a031663f778021e6040518163ffffffff1660e01b8152600401600060405180830381600087803b158015612feb57600080fd5b505af1158015612fff573d6000803e3d6000fd5b50506040805184815290517f13eb80e900aa05a2696d50d5de33ef631c73493c4921da233b17335ff6b7b1149350908190036020019150a150565b604080517f5354414b494e475f50415553455f524f4c4500000000000000000000000000008152905190819003601201902081565b604080517f4445504f5349545f524f4c4500000000000000000000000000000000000000008152905190819003600c0190206130aa906136b6565b611020609661479c565b604080517f4255524e5f524f4c450000000000000000000000000000000000000000000000815290519081900360090190206000906130f38484614a53565b6130fe338383612987565b60408051808201909152600f81527f4150505f415554485f4641494c4544000000000000000000000000000000000060208201529015156131845760405160e560020a62461bcd0281526004018080602001828103825283818151815260200191508051906020019080838360008381101561119457818101518382015260200161117c565b5061318f8585614a6f565b95945050505050565b60006120b782614578565b604080517f5354414b494e475f50415553455f524f4c4500000000000000000000000000008152905190819003601201902061109c906136b6565b604080517f6c69646f2e4c69646f2e746f74616c454c52657761726473436f6c6c6563746581527f6400000000000000000000000000000000000000000000000000000000000000602082015290519081900360210190206000906112ac90613e6f565b61324a615dee565b600061325583613e6f565b63ffffffff600082901c811684526001606060020a03602083811c821690860152608083901c909116604085015260a09190911c16606083015250919050565b5163ffffffff161590565b606001516001606060020a0316151590565b6040810151600090819063ffffffff16156132f657826040015163ffffffff1683606001516001606060020a03168115156132e957fe5b046001606060020a031690505b80836000015163ffffffff1643030283602001516001606060020a031601915082606001516001606060020a0316821115611303575050606001516001606060020a031690565b613345615dee565b6001606060020a0382111561335657fe5b825163ffffffff16151561336657fe5b506001606060020a031660208201524363ffffffff16815290565b6133dc60a082606001516001606060020a0316901b6080836040015163ffffffff16901b602084602001516001606060020a0316901b6000856000015163ffffffff16901b171717836000191661362690919063ffffffff16565b5050565b60408051600080516020615e568339815191528152905190819003601801902060009061340c90613e6f565b1515613450576040805160e560020a62461bcd0281526020600482015260136024820152600080516020615e96833981519152604482015290519081900360640190fd5b600160a060020a03831615156134b0576040805160e560020a62461bcd02815260206004820152601860248201527f4d494e545f544f5f5448455f5a45524f5f414444524553530000000000000000604482015290519081900360640190fd5b6134bc82610f33613eb5565b604080517f6c69646f2e53744554482e746f74616c5368617265730000000000000000000081529051908190036016019020909150613501908263ffffffff61362616565b600160a060020a03831660009081526020819052604090205461352a908363ffffffff61359816565b600160a060020a039093166000908152602081905260409020929092555090565b604080517f6c69646f2e4c69646f2e6275666665726564457468657200000000000000000081529051908190036017019020600090819061358b90613e6f565b9050303181111561153057fe5b60408051808201909152601181527f4d4154485f4144445f4f564552464c4f570000000000000000000000000000006020820152600090838301908482101561140a5760405160e560020a62461bcd0281526004018080602001828103825283818151815260200191508051906020019080838360008381101561119457818101518382015260200161117c565b9055565b600160a060020a03821660007fddf252ad1be2c89b69c2b068fc378daa952ba7f163c4a11628f55a4df523b3ef613660846121ab565b60408051918252519081900360200190a3604080518281529051600160a060020a038416916000917f9d9c909296d9c674451c0c24f02cb64981eb3b727f99865939192f880a755dcb9181900360200190a35050565b806136ed338260006040519080825280602002602001820160405280156136e7578160200160208202803883390190505b50612987565b60408051808201909152600f81527f4150505f415554485f4641494c454400000000000000000000000000000000006020820152901515612f275760405160e560020a62461bcd0281526004018080602001828103825283818151815260200191508051906020019080838360008381101561119457818101518382015260200161117c565b60408051600080516020615e568339815191528152905190819003601801902061379c90613e6f565b156137f1576040805160e560020a62461bcd02815260206004820152601260248201527f434f4e54524143545f49535f4143544956450000000000000000000000000000604482015290519081900360640190fd5b60408051600080516020615e568339815191528152905190819003601801902061382290600163ffffffff61362616565b6040517f62451d457bc659158be6e6247f56ec1df424a5c7597f71c20c2bc44e0965c8f990600090a1565b60408051600080516020615e168339815191528152905190819003601401902061388d90610ed89060009061388190613242565b9063ffffffff614c9d16565b6040517fedaeeae9aed70c4545d3ab0065713261c9cee8d6cf5c8b07f52f0a65fd91efda90600090a1565b60408051600080516020615e56833981519152815290519081900360180190206138e190613e6f565b1515613925576040805160e560020a62461bcd0281526020600482015260136024820152600080516020615e96833981519152604482015290519081900360640190fd5b60408051600080516020615e568339815191528152905190819003601801902061395690600063ffffffff61362616565b6040517f7acc84e34091ae817647a4c49116f5cc07f319078ba80f8f5fde37ea7e25cbd690600090a1565b60408051600080516020615e16833981519152815290519081900360140190206139b590610ed89060019061388190613242565b6040517f26d1807b479eaba249c1214b82e4b65bbb0cc73ee8a17901324b1ef1b5904e4990600090a1565b4390565b60408051600080516020615e5683398151915281529051908190036018019020613a0d90613e6f565b1515613a51576040805160e560020a62461bcd0281526020600482015260136024820152600080516020615e96833981519152604482015290519081900360640190fd5b600160a060020a0383161515613ab1576040805160e560020a62461bcd02815260206004820152601960248201527f415050524f56455f46524f4d5f5a45524f5f4144445245535300000000000000604482015290519081900360640190fd5b600160a060020a0382161515613b11576040805160e560020a62461bcd02815260206004820152601760248201527f415050524f56455f544f5f5a45524f5f41444452455353000000000000000000604482015290519081900360640190fd5b600160a060020a03808416600081815260016020908152604080832094871680845294825291829020859055815185815291517f8c5be1e5ebec7d5bd14f71427d1e84f3dd0314c0f7b2291e5b200ac8c7c3b9259281900390910190a3505050565b600160a060020a0383161515613bd3576040805160e560020a62461bcd02815260206004820152601360248201527f4f5241434c455f5a45524f5f4144445245535300000000000000000000000000604482015290519081900360640190fd5b600160a060020a0382161515613c33576040805160e560020a62461bcd02815260206004820152601560248201527f54524541535552595f5a45524f5f414444524553530000000000000000000000604482015290519081900360640190fd5b600160a060020a0381161515613c93576040805160e560020a62461bcd02815260206004820152601b60248201527f494e535552414e43455f46554e445f5a45524f5f414444524553530000000000604482015290519081900360640190fd5b604080517f6c69646f2e4c69646f2e6f7261636c650000000000000000000000000000000081529051908190036010019020613cd5908463ffffffff61362616565b604080517f6c69646f2e4c69646f2e7472656173757279000000000000000000000000000081529051908190036012019020613d17908363ffffffff61362616565b604080517f6c69646f2e4c69646f2e696e737572616e636546756e6400000000000000000081529051908190036017019020613d59908263ffffffff61362616565b60408051600160a060020a038086168252808516602083015283168183015290517f7df55cbe17c0cf85c9c23753c046f686eeb4c6b2ce13182943d215e92afc565a9181900360600190a1505050565b613db161235d565b60408051808201909152601881527f494e49545f414c52454144595f494e495449414c495a4544000000000000000060208201529015613e365760405160e560020a62461bcd0281526004018080602001828103825283818151815260200191508051906020019080838360008381101561119457818101518382015260200161117c565b50611020613e426139e0565b7febb05b386a8d34882b8711d156f463690983dc47815980fb82aeeff1aa43579e9063ffffffff61362616565b5490565b60006112ac613e80614cc2565b60408051600080516020615e3683398151915281529051908190036017019020610f3390613ead90613e6f565b610f3361354b565b604080517f6c69646f2e53744554482e746f74616c53686172657300000000000000000000815290519081900360160190206000906112ac90613e6f565b600080831515613f06576000915061268d565b50828202828482811515613f1657fe5b60408051808201909152601181527f4d4154485f4d554c5f4f564552464c4f570000000000000000000000000000006020820152929190041461140a5760405160e560020a62461bcd0281526004018080602001828103825283818151815260200191508051906020019080838360008381101561119457818101518382015260200161117c565b60408051808201909152600d81527f4d4154485f4449565f5a45524f00000000000000000000000000000000000000602082015260009081908184116140295760405160e560020a62461bcd0281526004018080602001828103825283818151815260200191508051906020019080838360008381101561119457818101518382015260200161117c565b50828481151561403557fe5b04949350505050565b6000614049826112bb565b9050614056848483614593565b82600160a060020a031684600160a060020a03167fddf252ad1be2c89b69c2b068fc378daa952ba7f163c4a11628f55a4df523b3ef846040518082815260200191505060405180910390a382600160a060020a031684600160a060020a03167f9d9c909296d9c674451c0c24f02cb64981eb3b727f99865939192f880a755dcb836040518082815260200191505060405180910390a350505050565b60408051808201909152601281527f4d4154485f5355425f554e444552464c4f570000000000000000000000000000602082015260009081908484111561417e5760405160e560020a62461bcd0281526004018080602001828103825283818151815260200191508051906020019080838360008381101561119457818101518382015260200161117c565b505050900390565b61418e615dee565b8215156141e5576040805160e560020a62461bcd02815260206004820152601460248201527f5a45524f5f4d41585f5354414b455f4c494d4954000000000000000000000000604482015290519081900360640190fd5b6001606060020a03831115614244576040805160e560020a62461bcd02815260206004820152601960248201527f544f4f5f4c415247455f4d41585f5354414b455f4c494d495400000000000000604482015290519081900360640190fd5b8183101561429c576040805160e560020a62461bcd02815260206004820152601860248201527f544f4f5f4c415247455f4c494d49545f494e4352454153450000000000000000604482015290519081900360640190fd5b8115806142b8575063ffffffff82848115156142b457fe5b0411155b151561430e576040805160e560020a62461bcd02815260206004820152601860248201527f544f4f5f534d414c4c5f4c494d49545f494e4352454153450000000000000000604482015290519081900360640190fd5b60608401516001606060020a03161580614334575083602001516001606060020a031683105b15614349576001606060020a03831660208501525b811515614357576000614364565b818381151561436257fe5b045b63ffffffff90811660408601526001606060020a0384166060860152845116156143925763ffffffff431684525b509192915050565b5490565b60006143a982613295565b156143b657506000611530565b6143bf826132a0565b15156143ce5750600019611530565b6120b7826132b2565b61271061ffff82161115614435576040805160e560020a62461bcd02815260206004820152601660248201527f56414c55455f4f5645525f3130305f50455243454e5400000000000000000000604482015290519081900360640190fd5b6133dc8261ffff831663ffffffff61362616565b600080600080600080600080600061445f612e30565b61ffff1698506144bc6144a161447b8b8d63ffffffff613ef316565b614495612710614489613e73565b9063ffffffff613ef316565b9063ffffffff6140f216565b6112f46144ac613eb5565b6144898e8e63ffffffff613ef316565b97506144c830896133e0565b506144d16120e6565b90985096506144f290506127106112f48a61ffff8b1663ffffffff613ef316565b94506144fc61126e565b9350614509308587614593565b614513848661362a565b6145356145306127106112f48b61ffff8b1663ffffffff613ef316565b614d4e565b925061454b836144958a8863ffffffff6140f216565b9150614555611741565b9050614562308284614593565b61456c818361362a565b50505050505050505050565b600160a060020a031660009081526020819052604090205490565b60408051600080516020615e56833981519152815290519081900360180190206000906145bf90613e6f565b1515614603576040805160e560020a62461bcd0281526020600482015260136024820152600080516020615e96833981519152604482015290519081900360640190fd5b600160a060020a0384161515614663576040805160e560020a62461bcd02815260206004820152601e60248201527f5452414e534645525f46524f4d5f5448455f5a45524f5f414444524553530000604482015290519081900360640190fd5b600160a060020a03831615156146c3576040805160e560020a62461bcd02815260206004820152601c60248201527f5452414e534645525f544f5f5448455f5a45524f5f4144445245535300000000604482015290519081900360640190fd5b50600160a060020a03831660009081526020819052604090205480821115614735576040805160e560020a62461bcd02815260206004820152601f60248201527f5452414e534645525f414d4f554e545f455843454544535f42414c414e434500604482015290519081900360640190fd5b614745818363ffffffff6140f216565b600160a060020a03808616600090815260208190526040808220939093559085168152205461477a908363ffffffff61359816565b600160a060020a03909316600090815260208190526040902092909255505050565b60408051600080516020615e5683398151915281529051908190036018019020600090819081906147cc90613e6f565b1515614810576040805160e560020a62461bcd0281526020600482015260136024820152600080516020615e96833981519152604482015290519081900360640190fd5b61481861354b565b92506801bc16d674ec800000831061487e57614832614884565b915061484d836801bc16d674ec80000063ffffffff613f9e16565b905061486e6148698583106148625785614864565b825b614f3f565b6152be565b81614877614884565b1461487e57fe5b50505050565b60006112ac61489161354b565b30319063ffffffff6140f216565b60408051600160a060020a0383166024808301919091528251808303909101815260449091019091526020810180517bffffffffffffffffffffffffffffffffffffffffffffffffffffffff167f70a0823100000000000000000000000000000000000000000000000000000000179052600090818061491f8684615339565b60408051808201909152601c81527f534146455f4552435f32305f42414c414e43455f524556455254454400000000602082015291935091508215156149aa5760405160e560020a62461bcd0281526004018080602001828103825283818151815260200191508051906020019080838360008381101561119457818101518382015260200161117c565b5095945050505050565b60408051600160a060020a038416602482015260448082018490528251808303909101815260649091019091526020810180517bffffffffffffffffffffffffffffffffffffffffffffffffffffffff167fa9059cbb0000000000000000000000000000000000000000000000000000000017905260009061318f858261536a565b8051602002815290565b614a48615dee565b506000606082015290565b6060614a6883600160a060020a0316836153b8565b9392505050565b60408051600080516020615e5683398151915281529051908190036018019020600090819081908190614aa190613e6f565b1515614ae5576040805160e560020a62461bcd0281526020600482015260136024820152600080516020615e96833981519152604482015290519081900360640190fd5b600160a060020a0386161515614b45576040805160e560020a62461bcd02815260206004820152601a60248201527f4255524e5f46524f4d5f5448455f5a45524f5f41444452455353000000000000604482015290519081900360640190fd5b600160a060020a038616600090815260208190526040902054925082851115614bb8576040805160e560020a62461bcd02815260206004820152601b60248201527f4255524e5f414d4f554e545f455843454544535f42414c414e43450000000000604482015290519081900360640190fd5b614bc1856121ab565b9150614bcf85614495613eb5565b604080517f6c69646f2e53744554482e746f74616c5368617265730000000000000000000081529051908190036016019020909450614c14908563ffffffff61362616565b614c24838663ffffffff6140f216565b600160a060020a038716600090815260208190526040902055614c46856121ab565b60408051848152602081018390528082018890529051919250600160a060020a038816917f8b2a1e1ad5e0578c3dd82494156e985dade827a87c573b5c1c7716a32162ad649181900360600190a250505092915050565b614ca5615dee565b81614cb05743614cb3565b60005b63ffffffff1683525090919050565b60408051600080516020615e768339815191528152905190819003601d01902060009081908190614cf290613e6f565b60408051600080516020615ed68339815191528152905190819003601a019020909250614d1e90613e6f565b905080821015614d2a57fe5b614d476801bc16d674ec800000614489848463ffffffff6140f216565b9250505090565b60006060806000614d5d611412565b600160a060020a03166362dcfda1866040518263ffffffff1660e01b815260040180828152602001915050600060405180830381600087803b158015614da257600080fd5b505af1158015614db6573d6000803e3d6000fd5b505050506040513d6000823e601f3d908101601f191682016040908152811015614ddf57600080fd5b810190808051640100000000811115614df757600080fd5b82016020810184811115614e0a57600080fd5b8151856020820283011164010000000082111715614e2757600080fd5b50509291906020018051640100000000811115614e4357600080fd5b82016020810184811115614e5657600080fd5b8151856020820283011164010000000082111715614e7357600080fd5b50509291905050509250925081518351141515614e8c57fe5b5060009250825b8251811015610fcd57614ed5308483815181101515614eae57fe5b906020019060200201518484815181101515614ec657fe5b90602001906020020151614593565b614f0d8382815181101515614ee657fe5b906020019060200201518383815181101515614efe57fe5b9060200190602002015161362a565b614f358282815181101515614f1e57fe5b60209081029091010151859063ffffffff61359816565b9350600101614e93565b6000606080600080606080614f52611412565b600160a060020a03166341bc716f896040518263ffffffff1660e01b815260040180828152602001915050600060405180830381600087803b158015614f9757600080fd5b505af1158015614fab573d6000803e3d6000fd5b505050506040513d6000823e601f3d908101601f191682016040908152811015614fd457600080fd5b810190808051640100000000811115614fec57600080fd5b82016020810184811115614fff57600080fd5b815164010000000081118282018710171561501957600080fd5b5050929190602001805164010000000081111561503557600080fd5b8201602081018481111561504857600080fd5b815164010000000081118282018710171561506257600080fd5b50508451949a5098505050901515905061507f57600096506152b3565b855161509290603063ffffffff61541316565b1561510d576040805160e560020a62461bcd02815260206004820152602160248201527f52454749535452595f494e434f4e53495354454e545f5055424b4559535f4c4560448201527f4e00000000000000000000000000000000000000000000000000000000000000606482015290519081900360840190fd5b845161512090606063ffffffff61541316565b15615175576040805160e560020a62461bcd02815260206004820152601d60248201527f52454749535452595f494e434f4e53495354454e545f5349475f4c454e000000604482015290519081900360640190fd5b855161518890603063ffffffff613f9e16565b855190945061519e90606063ffffffff613f9e16565b84146151f4576040805160e560020a62461bcd02815260206004820152601f60248201527f52454749535452595f494e434f4e53495354454e545f5349475f434f554e5400604482015290519081900360640190fd5b600092505b8383101561523857615210866030850260306154b0565b9150615221856060850260606154b0565b905061522d8282615531565b8260010192506151f9565b60408051600080516020615e768339815191528152905190819003601d0190206152979061526b908690610f3390613e6f565b60408051600080516020615e768339815191528152905190819003601d0190209063ffffffff61362616565b6152b0846801bc16d674ec80000063ffffffff613ef316565b96505b505050505050919050565b604080517f6c69646f2e4c69646f2e627566666572656445746865720000000000000000008152905190819003601701902061530390610f3f90839061449590613e6f565b6040805182815290517f76a397bea5768d4fca97ef47792796e35f98dc81b16c1de84e28a818e1f971089181900360200190a150565b6000806000806040516020818751602089018a5afa9250600083111561535e57805191505b50909590945092505050565b6000806040516020818551602087016000895af160008111156153ae573d801561539b57602081146153a4576153ac565b600193506153ac565b600183511493505b505b5090949350505050565b6040805160028082526060808301845292602083019080388339019050509050828160008151811015156153e857fe5b60209081029091010152805182908290600190811061540357fe5b6020908102909101015292915050565b60408051808201909152600d81527f4d4154485f4449565f5a45524f00000000000000000000000000000000000000602082015260009082151561549c5760405160e560020a62461bcd0281526004018080602001828103825283818151815260200191508051906020019080838360008381101561119457818101518382015260200161117c565b5081838115156154a857fe5b069392505050565b6060808284018551101515156154c557600080fd5b821580156154de57604051915060208201604052615528565b6040519150601f8416801560200281840101858101878315602002848b0101015b818310156155175780518352602092830192016154ff565b5050858452601f01601f1916604052505b50949350505050565b60008060008060008060006155446119d2565b965086151561559d576040805160e560020a62461bcd02815260206004820152601c60248201527f454d5054595f5749544844524157414c5f43524544454e5449414c5300000000604482015290519081900360640190fd5b6801bc16d674ec80000095506155bd86633b9aca0063ffffffff613f9e16565b9450856155d486633b9aca0063ffffffff613ef316565b146155db57fe5b60026155e68a615cab565b6040518082805190602001908083835b602083106156155780518252601f1990920191602091820191016155f6565b51815160209384036101000a600019018019909216911617905260405191909301945091925050808303816000865af1158015615656573d6000803e3d6000fd5b5050506040513d602081101561566b57600080fd5b5051935060028061567f8a600060406154b0565b6040518082805190602001908083835b602083106156ae5780518252601f19909201916020918201910161568f565b51815160209384036101000a600019018019909216911617905260405191909301945091925050808303816000865af11580156156ef573d6000803e3d6000fd5b5050506040513d602081101561570457600080fd5b5051600261572c6157278c604061572260608263ffffffff6140f216565b6154b0565b615cab565b6040518082805190602001908083835b6020831061575b5780518252601f19909201916020918201910161573c565b51815160209384036101000a600019018019909216911617905260405191909301945091925050808303816000865af115801561579c573d6000803e3d6000fd5b5050506040513d60208110156157b157600080fd5b5051604080516020818101949094528082019290925280518083038201815260609092019081905281519192909182918401908083835b602083106158075780518252601f1990920191602091820191016157e8565b51815160209384036101000a600019018019909216911617905260405191909301945091925050808303816000865af1158015615848573d6000803e3d6000fd5b5050506040513d602081101561585d57600080fd5b50516040805160208181018890528183018b905282518083038401815260609092019283905281519396506002938493918291908401908083835b602083106158b75780518252601f199092019160209182019101615898565b51815160209384036101000a600019018019909216911617905260405191909301945091925050808303816000865af11580156158f8573d6000803e3d6000fd5b5050506040513d602081101561590d57600080fd5b5051600261591a88615d3b565b60408051602080820193909352808201899052815180820383018152606090910191829052805190928291908401908083835b6020831061596c5780518252601f19909201916020918201910161594d565b51815160209384036101000a600019018019909216911617905260405191909301945091925050808303816000865af11580156159ad573d6000803e3d6000fd5b5050506040513d60208110156159c257600080fd5b5051604080516020818101949094528082019290925280518083038201815260609092019081905281519192909182918401908083835b60208310615a185780518252601f1990920191602091820191016159f9565b51815160209384036101000a600019018019909216911617905260405191909301945091925050808303816000865af1158015615a59573d6000803e3d6000fd5b5050506040513d6020811015615a6e57600080fd5b50519150615a8330318763ffffffff6140f216565b9050615a8d612cab565b600160a060020a03166322895118878b8a6040516020018082600019166000191681526020019150506040516020818303038152906040528c876040518663ffffffff1660e01b8152600401808060200180602001806020018560001916600019168152602001848103845288818151815260200191508051906020019080838360005b83811015615b29578181015183820152602001615b11565b50505050905090810190601f168015615b565780820380516001836020036101000a031916815260200191505b50848103835287518152875160209182019189019080838360005b83811015615b89578181015183820152602001615b71565b50505050905090810190601f168015615bb65780820380516001836020036101000a031916815260200191505b50848103825286518152865160209182019188019080838360005b83811015615be9578181015183820152602001615bd1565b50505050905090810190601f168015615c165780820380516001836020036101000a031916815260200191505b509750505050505050506000604051808303818588803b158015615c3957600080fd5b505af1158015615c4d573d6000803e3d6000fd5b50505050303182149050611f37576040805160e560020a62461bcd02815260206004820152601b60248201527f455850454354494e475f4445504f5349545f544f5f48415050454e0000000000604482015290519081900360640190fd5b6060806020835110158015615cc257506040835111155b1515615cca57fe5b825160401415615cdc57829150611303565b604080516020808252818301909252908082016104008038833901905050905060006020820152825160201415615d17576113008382615d73565b61130083615d36836000615722885160406140f290919063ffffffff16565b615d73565b600081815b6008811015615d6157600892831b60ff831617929190911c90600101615d40565b8115615d6957fe5b505060c01b919050565b6060806040519050835180825260208201818101602087015b81831015615da4578051835260209283019201615d8c565b50855184518101855292509050808201602086015b81831015615dd1578051835260209283019201615db9565b509551919091011594909401601f01601f19166040529392505050565b6040805160808101825260008082526020820181905291810182905260608101919091529056006c69646f2e4c69646f2e7374616b654c696d69740000000000000000000000006c69646f2e4c69646f2e626561636f6e42616c616e63650000000000000000006c69646f2e5061757361626c652e616374697665466c616700000000000000006c69646f2e4c69646f2e6465706f736974656456616c696461746f7273000000434f4e54524143545f49535f53544f50504544000000000000000000000000005354414b494e475f434f4e54524f4c5f524f4c450000000000000000000000006c69646f2e4c69646f2e626561636f6e56616c696461746f7273000000000000a165627a7a72305820e2fed7bebaa5a0333fdb3ad6f1aa813bbca36dcc85bb0b0d5b9482510c5c5ff00029ebb05b386a8d34882b8711d156f463690983dc47815980fb82aeeff1aa43579e",
    "linkReferences": {}
  },
  "methodIdentifiers": {
    "BURN_ROLE()": "b930908f",
    "DEPOSIT_ROLE()": "353efdcf",
    "DEPOSIT_SIZE()": "36bf3325",
    "MANAGE_FEE()": "9aaa2d15",
    "MANAGE_PROTOCOL_CONTRACTS_ROLE()": "7f6fdac7",
    "MANAGE_WITHDRAWAL_KEY()": "435721da",
    "PAUSE_ROLE()": "389ed267",
    "PUBKEY_LENGTH()": "a4d55d1d",
    "RESUME_ROLE()": "2de03aa1",
    "SET_EL_REWARDS_VAULT_ROLE()": "a6426f5f",
    "SET_EL_REWARDS_WITHDRAWAL_LIMIT_ROLE()": "6bb98ad3",
    "SIGNATURE_LENGTH()": "540bc5ea",
    "STAKING_CONTROL_ROLE()": "136dd43c",
    "STAKING_PAUSE_ROLE()": "eb85262f",
    "WITHDRAWAL_CREDENTIALS_LENGTH()": "a30448c0",
    "allowRecoverability(address)": "7e7db6e1",
    "allowance(address,address)": "dd62ed3e",
    "appId()": "80afdea8",
    "approve(address,uint256)": "095ea7b3",
    "balanceOf(address)": "70a08231",
    "burnShares(address,uint256)": "ee7a7c04",
    "canPerform(address,bytes32,uint256[])": "a1658fad",
    "decimals()": "313ce567",
    "decreaseAllowance(address,uint256)": "a457c2d7",
    "depositBufferedEther()": "ecc1dcfb",
    "depositBufferedEther(uint256)": "90adc83b",
    "getBeaconStat()": "ae2e3538",
    "getBufferedEther()": "47b714e0",
    "getCurrentStakeLimit()": "609c4c6c",
    "getDepositContract()": "ab94276a",
    "getELRewardsVault()": "706aa30d",
    "getELRewardsWithdrawalLimit()": "52b3af93",
    "getEVMScriptExecutor(bytes)": "2914b9bd",
    "getEVMScriptRegistry()": "a479e508",
    "getFee()": "ced72f87",
    "getFeeDistribution()": "752f77f1",
    "getInitializationBlock()": "8b3dd749",
    "getInsuranceFund()": "158626f7",
    "getOperators()": "27a099d8",
    "getOracle()": "833b1fce",
    "getPooledEthByShares(uint256)": "7a28fb88",
    "getRecoveryVault()": "32f0a3b5",
    "getSharesByPooledEth(uint256)": "19208451",
    "getStakeLimitFullInfo()": "665b4b0b",
    "getTotalELRewardsCollected()": "fa64ebac",
    "getTotalPooledEther()": "37cfdaca",
    "getTotalShares()": "d5002f2e",
    "getTreasury()": "3b19e84a",
    "getWithdrawalCredentials()": "56396715",
    "handleOracleReport(uint256,uint256)": "64f9991a",
    "hasInitialized()": "0803fac0",
    "increaseAllowance(address,uint256)": "39509351",
    "initialize(address,address,address,address,address)": "1459457a",
    "isPetrified()": "de4796ed",
    "isStakingPaused()": "1ea7ca89",
    "isStopped()": "3f683b6a",
    "kernel()": "d4aae0c4",
    "name()": "06fdde03",
    "pauseStaking()": "f999c506",
    "receiveELRewards()": "4ad509b2",
    "removeStakingLimit()": "b3320d9a",
    "resume()": "046f7da2",
    "resumeStaking()": "7475f913",
    "setELRewardsVault(address)": "7e4193c6",
    "setELRewardsWithdrawalLimit(uint16)": "63c2eb53",
    "setFee(uint16)": "8e005553",
    "setFeeDistribution(uint16,uint16,uint16)": "8cef3612",
    "setProtocolContracts(address,address,address)": "e73f4529",
    "setStakingLimit(uint256,uint256)": "2cb5f784",
    "setWithdrawalCredentials(bytes32)": "e97ee8cc",
    "sharesOf(address)": "f5eb42dc",
    "stop()": "07da68f5",
    "submit(address)": "a1903eab",
    "symbol()": "95d89b41",
    "totalSupply()": "18160ddd",
    "transfer(address,uint256)": "a9059cbb",
    "transferFrom(address,address,uint256)": "23b872dd",
    "transferShares(address,uint256)": "8fcb4e5b",
    "transferToVault(address)": "9d4941d8"
  },
  "storageLayout": {
    "storage": [],
    "types": {}
  },
  "id": 0
}