{
  "abi": [
    {
      "inputs": [],
      "name": "get_deposit_root",
      "outputs": [
        {
          "internalType": "bytes32",
          "name": "",
          "type": "bytes32"
        }
      ],
      "stateMutability": "view",
      "type": "function"
    },
    {
      "inputs": [
        {
          "internalType": "bytes32",
          "name": "_newRoot",
          "type": "bytes32"
        }
      ],
      "name": "set_deposit_root",
      "outputs": [],
      "stateMutability": "nonpayable",
      "type": "function"
    }
  ],
  "bytecode": {
    "object": "0x6080604052348015600f57600080fd5b5060ac8061001e6000396000f3fe6080604052348015600f57600080fd5b506004361060325760003560e01c8063651bb8fb146037578063c5f2892f146049575b600080fd5b60476042366004605e565b600055565b005b60005460405190815260200160405180910390f35b600060208284031215606f57600080fd5b503591905056fea26469706673582212207da9a32715042963a57664f88a803032251a92ff7ce4024f8c9889b46373c13864736f6c63430008090033",
    "linkReferences": {}
  },
  "methodIdentifiers": {
    "get_deposit_root()": "c5f2892f",
    "set_deposit_root(bytes32)": "651bb8fb"
  },
  "storageLayout": {
    "storage": [
      {
        "astId": 2610,
        "contract": "contracts/0.8.9/test_helpers/DepositContractMockForDepositSecurityModule.sol:DepositContractMockForDepositSecurityModule",
        "label": "depositRoot",
        "offset": 0,
        "slot": "0",
        "type": "t_bytes32"
      }
    ],
    "types": {
      "t_bytes32": {
        "encoding": "inplace",
        "label": "bytes32",
        "numberOfBytes": "32"
      }
    }
  },
  "id": 10
}