{
  "abi": [
    {
      "constant": true,
      "inputs": [],
      "name": "hasInitialized",
      "outputs": [
        {
          "name": "",
          "type": "bool"
        }
      ],
      "payable": false,
      "stateMutability": "view",
      "type": "function"
    },
    {
      "constant": true,
      "inputs": [
        {
          "name": "_script",
          "type": "bytes"
        }
      ],
      "name": "getEVMScriptExecutor",
      "outputs": [
        {
          "name": "",
          "type": "address"
        }
      ],
      "payable": false,
      "stateMutability": "view",
      "type": "function"
    },
    {
      "constant": true,
      "inputs": [],
      "name": "getRecoveryVault",
      "outputs": [
        {
          "name": "",
          "type": "address"
        }
      ],
      "payable": false,
      "stateMutability": "view",
      "type": "function"
    },
    {
      "constant": true,
      "inputs": [],
      "name": "isDepositable",
      "outputs": [
        {
          "name": "",
          "type": "bool"
        }
      ],
      "payable": false,
      "stateMutability": "view",
      "type": "function"
    },
    {
      "constant": true,
      "inputs": [
        {
          "name": "token",
          "type": "address"
        }
      ],
      "name": "allowRecoverability",
      "outputs": [
        {
          "name": "",
          "type": "bool"
        }
      ],
      "payable": false,
      "stateMutability": "view",
      "type": "function"
    },
    {
      "constant": true,
      "inputs": [],
      "name": "appId",
      "outputs": [
        {
          "name": "",
          "type": "bytes32"
        }
      ],
      "payable": false,
      "stateMutability": "view",
      "type": "function"
    },
    {
      "constant": false,
      "inputs": [],
      "name": "initialize",
      "outputs": [],
      "payable": false,
      "stateMutability": "nonpayable",
      "type": "function"
    },
    {
      "constant": true,
      "inputs": [],
      "name": "getInitializationBlock",
      "outputs": [
        {
          "name": "",
          "type": "uint256"
        }
      ],
      "payable": false,
      "stateMutability": "view",
      "type": "function"
    },
    {
      "constant": false,
      "inputs": [
        {
          "name": "_token",
          "type": "address"
        }
      ],
      "name": "transferToVault",
      "outputs": [],
      "payable": false,
      "stateMutability": "nonpayable",
      "type": "function"
    },
    {
      "constant": true,
      "inputs": [
        {
          "name": "_sender",
          "type": "address"
        },
        {
          "name": "_role",
          "type": "bytes32"
        },
        {
          "name": "_params",
          "type": "uint256[]"
        }
      ],
      "name": "canPerform",
      "outputs": [
        {
          "name": "",
          "type": "bool"
        }
      ],
      "payable": false,
      "stateMutability": "view",
      "type": "function"
    },
    {
      "constant": true,
      "inputs": [],
      "name": "getEVMScriptRegistry",
      "outputs": [
        {
          "name": "",
          "type": "address"
        }
      ],
      "payable": false,
      "stateMutability": "view",
      "type": "function"
    },
    {
      "constant": true,
      "inputs": [],
      "name": "kernel",
      "outputs": [
        {
          "name": "",
          "type": "address"
        }
      ],
      "payable": false,
      "stateMutability": "view",
      "type": "function"
    },
    {
      "constant": true,
      "inputs": [],
      "name": "isPetrified",
      "outputs": [
        {
          "name": "",
          "type": "bool"
        }
      ],
      "payable": false,
      "stateMutability": "view",
      "type": "function"
    },
    {
      "payable": true,
      "stateMutability": "payable",
      "type": "fallback"
    },
    {
      "anonymous": false,
      "inputs": [
        {
          "indexed": false,
          "name": "sender",
          "type": "address"
        },
        {
          "indexed": false,
          "name": "amount",
          "type": "uint256"
        }
      ],
      "name": "LogFund",
      "type": "event"
    },
    {
      "anonymous": false,
      "inputs": [
        {
          "indexed": true,
          "name": "executor",
          "type": "address"
        },
        {
          "indexed": false,
          "name": "script",
          "type": "bytes"
        },
        {
          "indexed": false,
          "name": "input",
          "type": "bytes"
        },
        {
          "indexed": false,
          "name": "returnData",
          "type": "bytes"
        }
      ],
      "name": "ScriptResult",
      "type": "event"
    },
    {
      "anonymous": false,
      "inputs": [
        {
          "indexed": true,
          "name": "vault",
          "type": "address"
        },
        {
          "indexed": true,
          "name": "token",
          "type": "address"
        },
        {
          "indexed": false,
          "name": "amount",
          "type": "uint256"
        }
      ],
      "name": "RecoverToVault",
      "type": "event"
    }
  ],
  "bytecode": {
    "object": "0x6080604052620000146200004260201b60201c565b6200003c60008051602062001007833981519152600062000144602090811b62000cef17901c565b62000259565b620000526200014860201b60201c565b60408051808201909152601881527f494e49545f414c52454144595f494e495449414c495a45440000000000000000602082015290156200012e576040517f08c379a00000000000000000000000000000000000000000000000000000000081526004018080602001828103825283818151815260200191508051906020019080838360005b83811015620000f2578181015183820152602001620000d8565b50505050905090810190601f168015620001205780820380516001836020036101000a031916815260200191505b509250505060405180910390fd5b50620001426000196200017b60201b60201c565b565b9055565b6000620001766000805160206200100783398151915260001b600019166200025560201b62000a171760201c565b905090565b6200018b6200014860201b60201c565b60408051808201909152601881527f494e49545f414c52454144595f494e495449414c495a45440000000000000000602082015290156200022a576040517f08c379a000000000000000000000000000000000000000000000000000000000815260040180806020018281038252838181518152602001915080519060200190808383600083811015620000f2578181015183820152602001620000d8565b5062000252600080516020620010078339815191528262000144602090811b62000cef17901c565b50565b5490565b610d9e80620002696000396000f3006080604052600436106100a85760003560e01c63ffffffff1680630803fac0146100e45780632914b9bd1461010d57806332f0a3b51461018257806348a0c8dd146101975780637e7db6e1146101ac57806380afdea8146101cd5780638129fc1c146101f45780638b3dd7491461020b5780639d4941d814610220578063a1658fad14610241578063a479e508146102a8578063d4aae0c4146102bd578063de4796ed146102d2575b6040805133815234602082015281517f527b059b2c1f34c287da42c15a6cb163dc09fd8b048e89a6a92f568c6a808d4a929181900390910190a1005b3480156100f057600080fd5b506100f96102e7565b604080519115158252519081900360200190f35b34801561011957600080fd5b506040805160206004803580820135601f81018490048402850184019095528484526101669436949293602493928401919081908401838280828437509497506103109650505050505050565b60408051600160a060020a039092168252519081900360200190f35b34801561018e57600080fd5b506101666103f3565b3480156101a357600080fd5b506100f9610468565b3480156101b857600080fd5b506100f9600160a060020a0360043516610498565b3480156101d957600080fd5b506101e261049e565b60408051918252519081900360200190f35b34801561020057600080fd5b506102096104c9565b005b34801561021757600080fd5b506101e26104dd565b34801561022c57600080fd5b50610209600160a060020a0360043516610508565b34801561024d57600080fd5b5060408051602060046044358181013583810280860185019096528085526100f9958335600160a060020a03169560248035963696956064959394920192918291850190849080828437509497506107d39650505050505050565b3480156102b457600080fd5b50610166610920565b3480156102c957600080fd5b506101666109d5565b3480156102de57600080fd5b506100f9610a00565b6000806102f26104dd565b9050801580159061030a575080610307610a13565b10155b91505090565b600061031a610920565b600160a060020a03166304bf2a7f836040518263ffffffff1660e01b81526004018080602001828103825283818151815260200191508051906020019080838360005b8381101561037557818101518382015260200161035d565b50505050905090810190601f1680156103a25780820380516001836020036101000a031916815260200191505b5092505050602060405180830381600087803b1580156103c157600080fd5b505af11580156103d5573d6000803e3d6000fd5b505050506040513d60208110156103eb57600080fd5b505192915050565b60006103fd6109d5565b600160a060020a03166332f0a3b56040518163ffffffff1660e01b8152600401602060405180830381600087803b15801561043757600080fd5b505af115801561044b573d6000803e3d6000fd5b505050506040513d602081101561046157600080fd5b5051905090565b60006104937f665fd576fbbe6f247aff98f5c94a561e3f71ec2d3c988d56f12d342396c50cea610a17565b905090565b50600190565b60006104937fd625496217aa6a3453eecb9c3489dc5a53e6c67b444329ea2b2cbc9ff547639b610a17565b6104d1610a1b565b6104db6001610ae1565b565b60006104937febb05b386a8d34882b8711d156f463690983dc47815980fb82aeeff1aa43579e610a17565b600080600061051684610498565b60408051808201909152601281527f5245434f5645525f444953414c4c4f574544000000000000000000000000000060208201529015156105d85760405160e560020a62461bcd0281526004018080602001828103825283818151815260200191508051906020019080838360005b8381101561059d578181015183820152602001610585565b50505050905090810190601f1680156105ca5780820380516001836020036101000a031916815260200191505b509250505060405180910390fd5b506105e16103f3565b92506105ec83610b18565b60408051808201909152601a81527f5245434f5645525f5641554c545f4e4f545f434f4e545241435400000000000060208201529015156106725760405160e560020a62461bcd0281526004018080602001828103825283818151815260200191508051906020019080838360008381101561059d578181015183820152602001610585565b50600160a060020a03841615156106c35760405130319250600160a060020a0384169083156108fc029084906000818181858888f193505050501580156106bd573d6000803e3d6000fd5b50610782565b50826106de600160a060020a0382163063ffffffff610b4516565b91506106fa600160a060020a038216848463ffffffff610c5a16565b60408051808201909152601d81527f5245434f5645525f544f4b454e5f5452414e534645525f4641494c454400000060208201529015156107805760405160e560020a62461bcd0281526004018080602001828103825283818151815260200191508051906020019080838360008381101561059d578181015183820152602001610585565b505b83600160a060020a031683600160a060020a03167f596caf56044b55fb8c4ca640089bbc2b63cae3e978b851f5745cbb7c5b288e02846040518082815260200191505060405180910390a350505050565b6000806107de6102e7565b15156107ed5760009150610918565b6107f56109d5565b9050600160a060020a03811615156108105760009150610918565b80600160a060020a031663fdef910686308761082b88610ce5565b60405163ffffffff861660e01b8152600160a060020a03808616600483019081529085166024830152604482018490526080606483019081528351608484015283519192909160a490910190602085019080838360005b8381101561089a578181015183820152602001610882565b50505050905090810190601f1680156108c75780820380516001836020036101000a031916815260200191505b5095505050505050602060405180830381600087803b1580156108e957600080fd5b505af11580156108fd573d6000803e3d6000fd5b505050506040513d602081101561091357600080fd5b505191505b509392505050565b60008061092b6109d5565b604080517fbe00bbd80000000000000000000000000000000000000000000000000000000081527fd6f028ca0e8edb4a8c9757ca4fdccab25fa1e0317da1188108f7d2dee14902fb60048201527fddbcfd564f642ab5627cf68b9b7d374fb4f8a36e941a75d89c87998cef03bd6160248201529051600160a060020a03929092169163be00bbd8916044808201926020929091908290030181600087803b1580156103c157600080fd5b60006104937f4172f0f7d2289153072b0a6ca36959e0cbe2efc3afe50fc81636caa96338137b610a17565b6000600019610a0d6104dd565b14905090565b4390565b5490565b610a236104dd565b60408051808201909152601881527f494e49545f414c52454144595f494e495449414c495a4544000000000000000060208201529015610aa85760405160e560020a62461bcd0281526004018080602001828103825283818151815260200191508051906020019080838360008381101561059d578181015183820152602001610585565b506104db610ab4610a13565b7febb05b386a8d34882b8711d156f463690983dc47815980fb82aeeff1aa43579e9063ffffffff610cef16565b610b117f665fd576fbbe6f247aff98f5c94a561e3f71ec2d3c988d56f12d342396c50cea8263ffffffff610cef16565b50565b5490565b600080600160a060020a0383161515610b345760009150610b3f565b823b90506000811191505b50919050565b60408051600160a060020a0383166024808301919091528251808303909101815260449091019091526020810180517bffffffffffffffffffffffffffffffffffffffffffffffffffffffff167f70a08231000000000000000000000000000000000000000000000000000000001790526000908180610bc58684610cf3565b60408051808201909152601c81527f534146455f4552435f32305f42414c414e43455f52455645525445440000000060208201529193509150821515610c505760405160e560020a62461bcd0281526004018080602001828103825283818151815260200191508051906020019080838360008381101561059d578181015183820152602001610585565b5095945050505050565b60408051600160a060020a038416602482015260448082018490528251808303909101815260649091019091526020810180517bffffffffffffffffffffffffffffffffffffffffffffffffffffffff167fa9059cbb00000000000000000000000000000000000000000000000000000000179052600090610cdc8582610d24565b95945050505050565b8051602002815290565b9055565b6000806000806040516020818751602089018a5afa92506000831115610d1857805191505b50909590945092505050565b6000806040516020818551602087016000895af16000811115610d68573d8015610d555760208114610d5e57610d66565b60019350610d66565b600183511493505b505b50909493505050505600a165627a7a72305820d9ad6881d06b4dbde8a3d6911a3f6e8a2da66d6355821f778ee43d658b36ef880029ebb05b386a8d34882b8711d156f463690983dc47815980fb82aeeff1aa43579e",
    "linkReferences": {}
  },
  "methodIdentifiers": {
    "allowRecoverability(address)": "7e7db6e1",
    "appId()": "80afdea8",
    "canPerform(address,bytes32,uint256[])": "a1658fad",
    "getEVMScriptExecutor(bytes)": "2914b9bd",
    "getEVMScriptRegistry()": "a479e508",
    "getInitializationBlock()": "8b3dd749",
    "getRecoveryVault()": "32f0a3b5",
    "hasInitialized()": "0803fac0",
    "initialize()": "8129fc1c",
    "isDepositable()": "48a0c8dd",
    "isPetrified()": "de4796ed",
    "kernel()": "d4aae0c4",
    "transferToVault(address)": "9d4941d8"
  },
  "storageLayout": {
    "storage": [],
    "types": {}
  },
  "id": 22
}