{
  "abi": [
    {
      "constant": false,
      "inputs": [],
      "name": "resume",
      "outputs": [],
      "payable": false,
      "stateMutability": "nonpayable",
      "type": "function"
    },
    {
      "constant": true,
      "inputs": [],
      "name": "name",
      "outputs": [
        {
          "name": "",
          "type": "string"
        }
      ],
      "payable": false,
      "stateMutability": "pure",
      "type": "function"
    },
    {
      "constant": false,
      "inputs": [],
      "name": "stop",
      "outputs": [],
      "payable": false,
      "stateMutability": "nonpayable",
      "type": "function"
    },
    {
      "constant": true,
      "inputs": [],
      "name": "hasInitialized",
      "outputs": [
        {
          "name": "",
          "type": "bool"
        }
      ],
      "payable": false,
      "stateMutability": "view",
      "type": "function"
    },
    {
      "constant": false,
      "inputs": [
        {
          "name": "_spender",
          "type": "address"
        },
        {
          "name": "_amount",
          "type": "uint256"
        }
      ],
      "name": "approve",
      "outputs": [
        {
          "name": "",
          "type": "bool"
        }
      ],
      "payable": false,
      "stateMutability": "nonpayable",
      "type": "function"
    },
    {
      "constant": true,
      "inputs": [],
      "name": "totalRewards",
      "outputs": [
        {
          "name": "",
          "type": "uint256"
        }
      ],
      "payable": false,
      "stateMutability": "view",
      "type": "function"
    },
    {
      "constant": true,
      "inputs": [],
      "name": "STAKING_CONTROL_ROLE",
      "outputs": [
        {
          "name": "",
          "type": "bytes32"
        }
      ],
      "payable": false,
      "stateMutability": "view",
      "type": "function"
    },
    {
      "constant": false,
      "inputs": [
        {
          "name": "_depositContract",
          "type": "address"
        },
        {
          "name": "_oracle",
          "type": "address"
        },
        {
          "name": "_operators",
          "type": "address"
        },
        {
          "name": "_treasury",
          "type": "address"
        },
        {
          "name": "_insuranceFund",
          "type": "address"
        }
      ],
      "name": "initialize",
      "outputs": [],
      "payable": false,
      "stateMutability": "nonpayable",
      "type": "function"
    },
    {
      "constant": true,
      "inputs": [],
      "name": "getInsuranceFund",
      "outputs": [
        {
          "name": "",
          "type": "address"
        }
      ],
      "payable": false,
      "stateMutability": "view",
      "type": "function"
    },
    {
      "constant": true,
      "inputs": [],
      "name": "totalSupply",
      "outputs": [
        {
          "name": "",
          "type": "uint256"
        }
      ],
      "payable": false,
      "stateMutability": "view",
      "type": "function"
    },
    {
      "constant": true,
      "inputs": [
        {
          "name": "_ethAmount",
          "type": "uint256"
        }
      ],
      "name": "getSharesByPooledEth",
      "outputs": [
        {
          "name": "",
          "type": "uint256"
        }
      ],
      "payable": false,
      "stateMutability": "view",
      "type": "function"
    },
    {
      "constant": true,
      "inputs": [],
      "name": "isStakingPaused",
      "outputs": [
        {
          "name": "",
          "type": "bool"
        }
      ],
      "payable": false,
      "stateMutability": "view",
      "type": "function"
    },
    {
      "constant": false,
      "inputs": [
        {
          "name": "_sender",
          "type": "address"
        },
        {
          "name": "_recipient",
          "type": "address"
        },
        {
          "name": "_amount",
          "type": "uint256"
        }
      ],
      "name": "transferFrom",
      "outputs": [
        {
          "name": "",
          "type": "bool"
        }
      ],
      "payable": false,
      "stateMutability": "nonpayable",
      "type": "function"
    },
    {
      "constant": true,
      "inputs": [],
      "name": "getOperators",
      "outputs": [
        {
          "name": "",
          "type": "address"
        }
      ],
      "payable": false,
      "stateMutability": "view",
      "type": "function"
    },
    {
      "constant": true,
      "inputs": [
        {
          "name": "_script",
          "type": "bytes"
        }
      ],
      "name": "getEVMScriptExecutor",
      "outputs": [
        {
          "name": "",
          "type": "address"
        }
      ],
      "payable": false,
      "stateMutability": "view",
      "type": "function"
    },
    {
      "constant": false,
      "inputs": [
        {
          "name": "_maxStakeLimit",
          "type": "uint256"
        },
        {
          "name": "_stakeLimitIncreasePerBlock",
          "type": "uint256"
        }
      ],
      "name": "setStakingLimit",
      "outputs": [],
      "payable": false,
      "stateMutability": "nonpayable",
      "type": "function"
    },
    {
      "constant": true,
      "inputs": [],
      "name": "RESUME_ROLE",
      "outputs": [
        {
          "name": "",
          "type": "bytes32"
        }
      ],
      "payable": false,
      "stateMutability": "view",
      "type": "function"
    },
    {
      "constant": true,
      "inputs": [],
      "name": "decimals",
      "outputs": [
        {
          "name": "",
          "type": "uint8"
        }
      ],
      "payable": false,
      "stateMutability": "pure",
      "type": "function"
    },
    {
      "constant": true,
      "inputs": [],
      "name": "getRecoveryVault",
      "outputs": [
        {
          "name": "",
          "type": "address"
        }
      ],
      "payable": false,
      "stateMutability": "view",
      "type": "function"
    },
    {
      "constant": true,
      "inputs": [],
      "name": "DEPOSIT_ROLE",
      "outputs": [
        {
          "name": "",
          "type": "bytes32"
        }
      ],
      "payable": false,
      "stateMutability": "view",
      "type": "function"
    },
    {
      "constant": true,
      "inputs": [],
      "name": "DEPOSIT_SIZE",
      "outputs": [
        {
          "name": "",
          "type": "uint256"
        }
      ],
      "payable": false,
      "stateMutability": "view",
      "type": "function"
    },
    {
      "constant": true,
      "inputs": [],
      "name": "getTotalPooledEther",
      "outputs": [
        {
          "name": "",
          "type": "uint256"
        }
      ],
      "payable": false,
      "stateMutability": "view",
      "type": "function"
    },
    {
      "constant": true,
      "inputs": [],
      "name": "PAUSE_ROLE",
      "outputs": [
        {
          "name": "",
          "type": "bytes32"
        }
      ],
      "payable": false,
      "stateMutability": "view",
      "type": "function"
    },
    {
      "constant": false,
      "inputs": [
        {
          "name": "_spender",
          "type": "address"
        },
        {
          "name": "_addedValue",
          "type": "uint256"
        }
      ],
      "name": "increaseAllowance",
      "outputs": [
        {
          "name": "",
          "type": "bool"
        }
      ],
      "payable": false,
      "stateMutability": "nonpayable",
      "type": "function"
    },
    {
      "constant": true,
      "inputs": [],
      "name": "getTreasury",
      "outputs": [
        {
          "name": "",
          "type": "address"
        }
      ],
      "payable": false,
      "stateMutability": "view",
      "type": "function"
    },
    {
      "constant": false,
      "inputs": [],
      "name": "resetDistributeFee",
      "outputs": [],
      "payable": false,
      "stateMutability": "nonpayable",
      "type": "function"
    },
    {
      "constant": true,
      "inputs": [],
      "name": "isStopped",
      "outputs": [
        {
          "name": "",
          "type": "bool"
        }
      ],
      "payable": false,
      "stateMutability": "view",
      "type": "function"
    },
    {
      "constant": true,
      "inputs": [],
      "name": "MANAGE_WITHDRAWAL_KEY",
      "outputs": [
        {
          "name": "",
          "type": "bytes32"
        }
      ],
      "payable": false,
      "stateMutability": "view",
      "type": "function"
    },
    {
      "constant": true,
      "inputs": [],
      "name": "getBufferedEther",
      "outputs": [
        {
          "name": "",
          "type": "uint256"
        }
      ],
      "payable": false,
      "stateMutability": "view",
      "type": "function"
    },
    {
      "constant": false,
      "inputs": [
        {
          "name": "_depositedValidators",
          "type": "uint256"
        }
      ],
      "name": "setDepositedValidators",
      "outputs": [],
      "payable": false,
      "stateMutability": "nonpayable",
      "type": "function"
    },
    {
      "constant": false,
      "inputs": [],
      "name": "receiveELRewards",
      "outputs": [],
      "payable": true,
      "stateMutability": "payable",
      "type": "function"
    },
    {
      "constant": true,
      "inputs": [],
      "name": "getELRewardsWithdrawalLimit",
      "outputs": [
        {
          "name": "",
          "type": "uint256"
        }
      ],
      "payable": false,
      "stateMutability": "view",
      "type": "function"
    },
    {
      "constant": true,
      "inputs": [],
      "name": "SIGNATURE_LENGTH",
      "outputs": [
        {
          "name": "",
          "type": "uint256"
        }
      ],
      "payable": false,
      "stateMutability": "view",
      "type": "function"
    },
    {
      "constant": true,
      "inputs": [],
      "name": "getWithdrawalCredentials",
      "outputs": [
        {
          "name": "",
          "type": "bytes32"
        }
      ],
      "payable": false,
      "stateMutability": "view",
      "type": "function"
    },
    {
      "constant": true,
      "inputs": [],
      "name": "getCurrentStakeLimit",
      "outputs": [
        {
          "name": "",
          "type": "uint256"
        }
      ],
      "payable": false,
      "stateMutability": "view",
      "type": "function"
    },
    {
      "constant": false,
      "inputs": [
        {
          "name": "_limitPoints",
          "type": "uint16"
        }
      ],
      "name": "setELRewardsWithdrawalLimit",
      "outputs": [],
      "payable": false,
      "stateMutability": "nonpayable",
      "type": "function"
    },
    {
      "constant": false,
      "inputs": [
        {
          "name": "_beaconValidators",
          "type": "uint256"
        },
        {
          "name": "_beaconBalance",
          "type": "uint256"
        }
      ],
      "name": "handleOracleReport",
      "outputs": [],
      "payable": false,
      "stateMutability": "nonpayable",
      "type": "function"
    },
    {
      "constant": true,
      "inputs": [],
      "name": "getStakeLimitFullInfo",
      "outputs": [
        {
          "name": "isStakingPaused",
          "type": "bool"
        },
        {
          "name": "isStakingLimitSet",
          "type": "bool"
        },
        {
          "name": "currentStakeLimit",
          "type": "uint256"
        },
        {
          "name": "maxStakeLimit",
          "type": "uint256"
        },
        {
          "name": "maxStakeLimitGrowthBlocks",
          "type": "uint256"
        },
        {
          "name": "prevStakeLimit",
          "type": "uint256"
        },
        {
          "name": "prevStakeBlockNumber",
          "type": "uint256"
        }
      ],
      "payable": false,
      "stateMutability": "view",
      "type": "function"
    },
    {
      "constant": false,
      "inputs": [],
      "name": "setBufferedEther",
      "outputs": [],
      "payable": true,
      "stateMutability": "payable",
      "type": "function"
    },
    {
      "constant": true,
      "inputs": [],
      "name": "SET_EL_REWARDS_WITHDRAWAL_LIMIT_ROLE",
      "outputs": [
        {
          "name": "",
          "type": "bytes32"
        }
      ],
      "payable": false,
      "stateMutability": "view",
      "type": "function"
    },
    {
      "constant": true,
      "inputs": [],
      "name": "getELRewardsVault",
      "outputs": [
        {
          "name": "",
          "type": "address"
        }
      ],
      "payable": false,
      "stateMutability": "view",
      "type": "function"
    },
    {
      "constant": true,
      "inputs": [
        {
          "name": "_account",
          "type": "address"
        }
      ],
      "name": "balanceOf",
      "outputs": [
        {
          "name": "",
          "type": "uint256"
        }
      ],
      "payable": false,
      "stateMutability": "view",
      "type": "function"
    },
    {
      "constant": false,
      "inputs": [],
      "name": "resumeStaking",
      "outputs": [],
      "payable": false,
      "stateMutability": "nonpayable",
      "type": "function"
    },
    {
      "constant": true,
      "inputs": [],
      "name": "getFeeDistribution",
      "outputs": [
        {
          "name": "treasuryFeeBasisPoints",
          "type": "uint16"
        },
        {
          "name": "insuranceFeeBasisPoints",
          "type": "uint16"
        },
        {
          "name": "operatorsFeeBasisPoints",
          "type": "uint16"
        }
      ],
      "payable": false,
      "stateMutability": "view",
      "type": "function"
    },
    {
      "constant": false,
      "inputs": [
        {
          "name": "_beaconBalance",
          "type": "uint256"
        }
      ],
      "name": "setBeaconBalance",
      "outputs": [],
      "payable": false,
      "stateMutability": "nonpayable",
      "type": "function"
    },
    {
      "constant": true,
      "inputs": [
        {
          "name": "_sharesAmount",
          "type": "uint256"
        }
      ],
      "name": "getPooledEthByShares",
      "outputs": [
        {
          "name": "",
          "type": "uint256"
        }
      ],
      "payable": false,
      "stateMutability": "view",
      "type": "function"
    },
    {
      "constant": false,
      "inputs": [
        {
          "name": "_executionLayerRewardsVault",
          "type": "address"
        }
      ],
      "name": "setELRewardsVault",
      "outputs": [],
      "payable": false,
      "stateMutability": "nonpayable",
      "type": "function"
    },
    {
      "constant": true,
      "inputs": [
        {
          "name": "token",
          "type": "address"
        }
      ],
      "name": "allowRecoverability",
      "outputs": [
        {
          "name": "",
          "type": "bool"
        }
      ],
      "payable": false,
      "stateMutability": "view",
      "type": "function"
    },
    {
      "constant": true,
      "inputs": [],
      "name": "MANAGE_PROTOCOL_CONTRACTS_ROLE",
      "outputs": [
        {
          "name": "",
          "type": "bytes32"
        }
      ],
      "payable": false,
      "stateMutability": "view",
      "type": "function"
    },
    {
      "constant": true,
      "inputs": [],
      "name": "appId",
      "outputs": [
        {
          "name": "",
          "type": "bytes32"
        }
      ],
      "payable": false,
      "stateMutability": "view",
      "type": "function"
    },
    {
      "constant": true,
      "inputs": [],
      "name": "getOracle",
      "outputs": [
        {
          "name": "",
          "type": "address"
        }
      ],
      "payable": false,
      "stateMutability": "view",
      "type": "function"
    },
    {
      "constant": true,
      "inputs": [],
      "name": "getInitializationBlock",
      "outputs": [
        {
          "name": "",
          "type": "uint256"
        }
      ],
      "payable": false,
      "stateMutability": "view",
      "type": "function"
    },
    {
      "constant": false,
      "inputs": [
        {
          "name": "_treasuryFeeBasisPoints",
          "type": "uint16"
        },
        {
          "name": "_insuranceFeeBasisPoints",
          "type": "uint16"
        },
        {
          "name": "_operatorsFeeBasisPoints",
          "type": "uint16"
        }
      ],
      "name": "setFeeDistribution",
      "outputs": [],
      "payable": false,
      "stateMutability": "nonpayable",
      "type": "function"
    },
    {
      "constant": false,
      "inputs": [
        {
          "name": "_feeBasisPoints",
          "type": "uint16"
        }
      ],
      "name": "setFee",
      "outputs": [],
      "payable": false,
      "stateMutability": "nonpayable",
      "type": "function"
    },
    {
      "constant": false,
      "inputs": [
        {
          "name": "_recipient",
          "type": "address"
        },
        {
          "name": "_sharesAmount",
          "type": "uint256"
        }
      ],
      "name": "transferShares",
      "outputs": [
        {
          "name": "",
          "type": "uint256"
        }
      ],
      "payable": false,
      "stateMutability": "nonpayable",
      "type": "function"
    },
    {
      "constant": false,
      "inputs": [
        {
          "name": "_maxDeposits",
          "type": "uint256"
        }
      ],
      "name": "depositBufferedEther",
      "outputs": [],
      "payable": false,
      "stateMutability": "nonpayable",
      "type": "function"
    },
    {
      "constant": true,
      "inputs": [],
      "name": "symbol",
      "outputs": [
        {
          "name": "",
          "type": "string"
        }
      ],
      "payable": false,
      "stateMutability": "pure",
      "type": "function"
    },
    {
      "constant": true,
      "inputs": [],
      "name": "MANAGE_FEE",
      "outputs": [
        {
          "name": "",
          "type": "bytes32"
        }
      ],
      "payable": false,
      "stateMutability": "view",
      "type": "function"
    },
    {
      "constant": false,
      "inputs": [
        {
          "name": "_token",
          "type": "address"
        }
      ],
      "name": "transferToVault",
      "outputs": [],
      "payable": false,
      "stateMutability": "nonpayable",
      "type": "function"
    },
    {
      "constant": true,
      "inputs": [
        {
          "name": "_sender",
          "type": "address"
        },
        {
          "name": "_role",
          "type": "bytes32"
        },
        {
          "name": "_params",
          "type": "uint256[]"
        }
      ],
      "name": "canPerform",
      "outputs": [
        {
          "name": "",
          "type": "bool"
        }
      ],
      "payable": false,
      "stateMutability": "view",
      "type": "function"
    },
    {
      "constant": false,
      "inputs": [
        {
          "name": "_referral",
          "type": "address"
        }
      ],
      "name": "submit",
      "outputs": [
        {
          "name": "",
          "type": "uint256"
        }
      ],
      "payable": true,
      "stateMutability": "payable",
      "type": "function"
    },
    {
      "constant": true,
      "inputs": [],
      "name": "WITHDRAWAL_CREDENTIALS_LENGTH",
      "outputs": [
        {
          "name": "",
          "type": "uint256"
        }
      ],
      "payable": false,
      "stateMutability": "view",
      "type": "function"
    },
    {
      "constant": false,
      "inputs": [
        {
          "name": "_spender",
          "type": "address"
        },
        {
          "name": "_subtractedValue",
          "type": "uint256"
        }
      ],
      "name": "decreaseAllowance",
      "outputs": [
        {
          "name": "",
          "type": "bool"
        }
      ],
      "payable": false,
      "stateMutability": "nonpayable",
      "type": "function"
    },
    {
      "constant": true,
      "inputs": [],
      "name": "getEVMScriptRegistry",
      "outputs": [
        {
          "name": "",
          "type": "address"
        }
      ],
      "payable": false,
      "stateMutability": "view",
      "type": "function"
    },
    {
      "constant": true,
      "inputs": [],
      "name": "PUBKEY_LENGTH",
      "outputs": [
        {
          "name": "",
          "type": "uint256"
        }
      ],
      "payable": false,
      "stateMutability": "view",
      "type": "function"
    },
    {
      "constant": true,
      "inputs": [],
      "name": "SET_EL_REWARDS_VAULT_ROLE",
      "outputs": [
        {
          "name": "",
          "type": "bytes32"
        }
      ],
      "payable": false,
      "stateMutability": "view",
      "type": "function"
    },
    {
      "constant": false,
      "inputs": [
        {
          "name": "_recipient",
          "type": "address"
        },
        {
          "name": "_amount",
          "type": "uint256"
        }
      ],
      "name": "transfer",
      "outputs": [
        {
          "name": "",
          "type": "bool"
        }
      ],
      "payable": false,
      "stateMutability": "nonpayable",
      "type": "function"
    },
    {
      "constant": true,
      "inputs": [],
      "name": "getDepositContract",
      "outputs": [
        {
          "name": "",
          "type": "address"
        }
      ],
      "payable": false,
      "stateMutability": "view",
      "type": "function"
    },
    {
      "constant": true,
      "inputs": [],
      "name": "getBeaconStat",
      "outputs": [
        {
          "name": "depositedValidators",
          "type": "uint256"
        },
        {
          "name": "beaconValidators",
          "type": "uint256"
        },
        {
          "name": "beaconBalance",
          "type": "uint256"
        }
      ],
      "payable": false,
      "stateMutability": "view",
      "type": "function"
    },
    {
      "constant": false,
      "inputs": [],
      "name": "removeStakingLimit",
      "outputs": [],
      "payable": false,
      "stateMutability": "nonpayable",
      "type": "function"
    },
    {
      "constant": true,
      "inputs": [],
      "name": "BURN_ROLE",
      "outputs": [
        {
          "name": "",
          "type": "bytes32"
        }
      ],
      "payable": false,
      "stateMutability": "view",
      "type": "function"
    },
    {
      "constant": false,
      "inputs": [
        {
          "name": "depositContract",
          "type": "address"
        },
        {
          "name": "_oracle",
          "type": "address"
        },
        {
          "name": "_operators",
          "type": "address"
        }
      ],
      "name": "initialize",
      "outputs": [],
      "payable": false,
      "stateMutability": "nonpayable",
      "type": "function"
    },
    {
      "constant": false,
      "inputs": [
        {
          "name": "_oracle",
          "type": "address"
        }
      ],
      "name": "initialize",
      "outputs": [],
      "payable": false,
      "stateMutability": "nonpayable",
      "type": "function"
    },
    {
      "constant": true,
      "inputs": [],
      "name": "getFee",
      "outputs": [
        {
          "name": "feeBasisPoints",
          "type": "uint16"
        }
      ],
      "payable": false,
      "stateMutability": "view",
      "type": "function"
    },
    {
      "constant": true,
      "inputs": [],
      "name": "kernel",
      "outputs": [
        {
          "name": "",
          "type": "address"
        }
      ],
      "payable": false,
      "stateMutability": "view",
      "type": "function"
    },
    {
      "constant": true,
      "inputs": [],
      "name": "getTotalShares",
      "outputs": [
        {
          "name": "",
          "type": "uint256"
        }
      ],
      "payable": false,
      "stateMutability": "view",
      "type": "function"
    },
    {
      "constant": true,
      "inputs": [],
      "name": "distributeFeeCalled",
      "outputs": [
        {
          "name": "",
          "type": "bool"
        }
      ],
      "payable": false,
      "stateMutability": "view",
      "type": "function"
    },
    {
      "constant": true,
      "inputs": [
        {
          "name": "_owner",
          "type": "address"
        },
        {
          "name": "_spender",
          "type": "address"
        }
      ],
      "name": "allowance",
      "outputs": [
        {
          "name": "",
          "type": "uint256"
        }
      ],
      "payable": false,
      "stateMutability": "view",
      "type": "function"
    },
    {
      "constant": true,
      "inputs": [],
      "name": "isPetrified",
      "outputs": [
        {
          "name": "",
          "type": "bool"
        }
      ],
      "payable": false,
      "stateMutability": "view",
      "type": "function"
    },
    {
      "constant": false,
      "inputs": [
        {
          "name": "_oracle",
          "type": "address"
        },
        {
          "name": "_treasury",
          "type": "address"
        },
        {
          "name": "_insuranceFund",
          "type": "address"
        }
      ],
      "name": "setProtocolContracts",
      "outputs": [],
      "payable": false,
      "stateMutability": "nonpayable",
      "type": "function"
    },
    {
      "constant": false,
      "inputs": [
        {
          "name": "_withdrawalCredentials",
          "type": "bytes32"
        }
      ],
      "name": "setWithdrawalCredentials",
      "outputs": [],
      "payable": false,
      "stateMutability": "nonpayable",
      "type": "function"
    },
    {
      "constant": true,
      "inputs": [],
      "name": "STAKING_PAUSE_ROLE",
      "outputs": [
        {
          "name": "",
          "type": "bytes32"
        }
      ],
      "payable": false,
      "stateMutability": "view",
      "type": "function"
    },
    {
      "constant": false,
      "inputs": [],
      "name": "depositBufferedEther",
      "outputs": [],
      "payable": false,
      "stateMutability": "nonpayable",
      "type": "function"
    },
    {
      "constant": false,
      "inputs": [
        {
          "name": "_account",
          "type": "address"
        },
        {
          "name": "_sharesAmount",
          "type": "uint256"
        }
      ],
      "name": "burnShares",
      "outputs": [
        {
          "name": "newTotalShares",
          "type": "uint256"
        }
      ],
      "payable": false,
      "stateMutability": "nonpayable",
      "type": "function"
    },
    {
      "constant": true,
      "inputs": [
        {
          "name": "_account",
          "type": "address"
        }
      ],
      "name": "sharesOf",
      "outputs": [
        {
          "name": "",
          "type": "uint256"
        }
      ],
      "payable": false,
      "stateMutability": "view",
      "type": "function"
    },
    {
      "constant": false,
      "inputs": [],
      "name": "pauseStaking",
      "outputs": [],
      "payable": false,
      "stateMutability": "nonpayable",
      "type": "function"
    },
    {
      "constant": true,
      "inputs": [],
      "name": "getTotalELRewardsCollected",
      "outputs": [
        {
          "name": "",
          "type": "uint256"
        }
      ],
      "payable": false,
      "stateMutability": "view",
      "type": "function"
    },
    {
      "constant": false,
      "inputs": [
        {
          "name": "_beaconValidators",
          "type": "uint256"
        }
      ],
      "name": "setBeaconValidators",
      "outputs": [],
      "payable": false,
      "stateMutability": "nonpayable",
      "type": "function"
    },
    {
      "payable": true,
      "stateMutability": "payable",
      "type": "fallback"
    },
    {
      "anonymous": false,
      "inputs": [
        {
          "indexed": true,
          "name": "executor",
          "type": "address"
        },
        {
          "indexed": false,
          "name": "script",
          "type": "bytes"
        },
        {
          "indexed": false,
          "name": "input",
          "type": "bytes"
        },
        {
          "indexed": false,
          "name": "returnData",
          "type": "bytes"
        }
      ],
      "name": "ScriptResult",
      "type": "event"
    },
    {
      "anonymous": false,
      "inputs": [
        {
          "indexed": true,
          "name": "vault",
          "type": "address"
        },
        {
          "indexed": true,
          "name": "token",
          "type": "address"
        },
        {
          "indexed": false,
          "name": "amount",
          "type": "uint256"
        }
      ],
      "name": "RecoverToVault",
      "type": "event"
    },
    {
      "anonymous": false,
      "inputs": [
        {
          "indexed": true,
          "name": "from",
          "type": "address"
        },
        {
          "indexed": true,
          "name": "to",
          "type": "address"
        },
        {
          "indexed": false,
          "name": "sharesValue",
          "type": "uint256"
        }
      ],
      "name": "TransferShares",
      "type": "event"
    },
    {
      "anonymous": false,
      "inputs": [
        {
          "indexed": true,
          "name": "account",
          "type": "address"
        },
        {
          "indexed": false,
          "name": "preRebaseTokenAmount",
          "type": "uint256"
        },
        {
          "indexed": false,
          "name": "postRebaseTokenAmount",
          "type": "uint256"
        },
        {
          "indexed": false,
          "name": "sharesAmount",
          "type": "uint256"
        }
      ],
      "name": "SharesBurnt",
      "type": "event"
    },
    {
      "anonymous": false,
      "inputs": [],
      "name": "Stopped",
      "type": "event"
    },
    {
      "anonymous": false,
      "inputs": [],
      "name": "Resumed",
      "type": "event"
    },
    {
      "anonymous": false,
      "inputs": [
        {
          "indexed": true,
          "name": "from",
          "type": "address"
        },
        {
          "indexed": true,
          "name": "to",
          "type": "address"
        },
        {
          "indexed": false,
          "name": "value",
          "type": "uint256"
        }
      ],
      "name": "Transfer",
      "type": "event"
    },
    {
      "anonymous": false,
      "inputs": [
        {
          "indexed": true,
          "name": "owner",
          "type": "address"
        },
        {
          "indexed": true,
          "name": "spender",
          "type": "address"
        },
        {
          "indexed": false,
          "name": "value",
          "type": "uint256"
        }
      ],
      "name": "Approval",
      "type": "event"
    },
    {
      "anonymous": false,
      "inputs": [],
      "name": "StakingPaused",
      "type": "event"
    },
    {
      "anonymous": false,
      "inputs": [],
      "name": "StakingResumed",
      "type": "event"
    },
    {
      "anonymous": false,
      "inputs": [
        {
          "indexed": false,
          "name": "maxStakeLimit",
          "type": "uint256"
        },
        {
          "indexed": false,
          "name": "stakeLimitIncreasePerBlock",
          "type": "uint256"
        }
      ],
      "name": "StakingLimitSet",
      "type": "event"
    },
    {
      "anonymous": false,
      "inputs": [],
      "name": "StakingLimitRemoved",
      "type": "event"
    },
    {
      "anonymous": false,
      "inputs": [
        {
          "indexed": false,
          "name": "oracle",
          "type": "address"
        },
        {
          "indexed": false,
          "name": "treasury",
          "type": "address"
        },
        {
          "indexed": false,
          "name": "insuranceFund",
          "type": "address"
        }
      ],
      "name": "ProtocolContactsSet",
      "type": "event"
    },
    {
      "anonymous": false,
      "inputs": [
        {
          "indexed": false,
          "name": "feeBasisPoints",
          "type": "uint16"
        }
      ],
      "name": "FeeSet",
      "type": "event"
    },
    {
      "anonymous": false,
      "inputs": [
        {
          "indexed": false,
          "name": "treasuryFeeBasisPoints",
          "type": "uint16"
        },
        {
          "indexed": false,
          "name": "insuranceFeeBasisPoints",
          "type": "uint16"
        },
        {
          "indexed": false,
          "name": "operatorsFeeBasisPoints",
          "type": "uint16"
        }
      ],
      "name": "FeeDistributionSet",
      "type": "event"
    },
    {
      "anonymous": false,
      "inputs": [
        {
          "indexed": false,
          "name": "amount",
          "type": "uint256"
        }
      ],
      "name": "ELRewardsReceived",
      "type": "event"
    },
    {
      "anonymous": false,
      "inputs": [
        {
          "indexed": false,
          "name": "limitPoints",
          "type": "uint256"
        }
      ],
      "name": "ELRewardsWithdrawalLimitSet",
      "type": "event"
    },
    {
      "anonymous": false,
      "inputs": [
        {
          "indexed": false,
          "name": "withdrawalCredentials",
          "type": "bytes32"
        }
      ],
      "name": "WithdrawalCredentialsSet",
      "type": "event"
    },
    {
      "anonymous": false,
      "inputs": [
        {
          "indexed": false,
          "name": "executionLayerRewardsVault",
          "type": "address"
        }
      ],
      "name": "ELRewardsVaultSet",
      "type": "event"
    },
    {
      "anonymous": false,
      "inputs": [
        {
          "indexed": true,
          "name": "sender",
          "type": "address"
        },
        {
          "indexed": false,
          "name": "amount",
          "type": "uint256"
        },
        {
          "indexed": false,
          "name": "referral",
          "type": "address"
        }
      ],
      "name": "Submitted",
      "type": "event"
    },
    {
      "anonymous": false,
      "inputs": [
        {
          "indexed": false,
          "name": "amount",
          "type": "uint256"
        }
      ],
      "name": "Unbuffered",
      "type": "event"
    },
    {
      "anonymous": false,
      "inputs": [
        {
          "indexed": true,
          "name": "sender",
          "type": "address"
        },
        {
          "indexed": false,
          "name": "tokenAmount",
          "type": "uint256"
        },
        {
          "indexed": false,
          "name": "sentFromBuffer",
          "type": "uint256"
        },
        {
          "indexed": true,
          "name": "pubkeyHash",
          "type": "bytes32"
        },
        {
          "indexed": false,
          "name": "etherAmount",
          "type": "uint256"
        }
      ],
      "name": "Withdrawal",
      "type": "event"
    }
  ],
  "bytecode": {
    "object": "0x6080604052620000146200001a60201b60201c565b62000231565b6200002a6200011c60201b60201c565b60408051808201909152601881527f494e49545f414c52454144595f494e495449414c495a454400000000000000006020820152901562000106576040517f08c379a00000000000000000000000000000000000000000000000000000000081526004018080602001828103825283818151815260200191508051906020019080838360005b83811015620000ca578181015183820152602001620000b0565b50505050905090810190601f168015620000f85780820380516001836020036101000a031916815260200191505b509250505060405180910390fd5b506200011a6000196200014f60201b60201c565b565b60006200014a600080516020620061d683398151915260001b600019166200022960201b6200416d1760201c565b905090565b6200015f6200011c60201b60201c565b60408051808201909152601881527f494e49545f414c52454144595f494e495449414c495a4544000000000000000060208201529015620001fe576040517f08c379a000000000000000000000000000000000000000000000000000000000815260040180806020018281038252838181518152602001915080519060200190808383600083811015620000ca578181015183820152602001620000b0565b5062000226600080516020620061d6833981519152826200022d602090811b6200392417901c565b50565b5490565b9055565b615f9580620002416000396000f3006080604052600436106103e15760003560e01c63ffffffff168063046f7da21461044457806306fdde031461045b57806307da68f5146104e55780630803fac0146104fa578063095ea7b3146105235780630e15561a14610547578063136dd43c1461056e5780631459457a14610583578063158626f7146105bc57806318160ddd146105ed57806319208451146106025780631ea7ca891461061a57806323b872dd1461062f57806327a099d8146106595780632914b9bd1461066e5780632cb5f784146106c75780632de03aa1146106e2578063313ce567146106f757806332f0a3b514610722578063353efdcf1461073757806336bf33251461074c57806337cfdaca146105ed578063389ed2671461076157806339509351146107765780633b19e84a1461079a5780633d7d1d60146107af5780633f683b6a146107c4578063435721da146107d957806347b714e0146107ee5780634a01b2a9146108035780634ad509b21461081b57806352b3af9314610823578063540bc5ea14610838578063563967151461084d578063609c4c6c1461086257806363c2eb531461087757806364f9991a14610893578063665b4b0b146108ae57806368de379e146108fd5780636bb98ad314610905578063706aa30d1461091a57806370a082311461092f5780637475f91314610950578063752f77f11461096557806378c09186146109a05780637a28fb88146109b85780637e4193c6146109d05780637e7db6e1146109f15780637f6fdac714610a1257806380afdea814610a27578063833b1fce14610a3c5780638b3dd74914610a515780638cef361214610a665780638e00555314610a8e5780638fcb4e5b14610aaa57806390adc83b14610ace57806395d89b4114610ae65780639aaa2d1514610afb5780639d4941d814610b10578063a1658fad14610b31578063a1903eab14610b98578063a30448c014610bac578063a457c2d714610bc1578063a479e50814610be5578063a4d55d1d14610bfa578063a6426f5f14610c0f578063a9059cbb14610c24578063ab94276a14610c48578063ae2e353814610c5d578063b3320d9a14610c90578063b930908f14610ca5578063c0c53b8b14610cba578063c4d66de814610ce7578063ced72f8714610d08578063d4aae0c414610d34578063d5002f2e14610d49578063d731014914610d5e578063dd62ed3e14610d73578063de4796ed14610d9a578063e73f452914610daf578063e97ee8cc14610ddc578063eb85262f14610df4578063ecc1dcfb14610e09578063ee7a7c0414610e1e578063f5eb42dc14610e42578063f999c50614610e63578063fa64ebac14610e78578063fdaff5ac14610e8d575b3615610437576040805160e560020a62461bcd02815260206004820152600e60248201527f4e4f4e5f454d5054595f44415441000000000000000000000000000000000000604482015290519081900360640190fd5b6104416000610ea5565b50005b34801561045057600080fd5b506104596110ff565b005b34801561046757600080fd5b5061047061114c565b6040805160208082528351818301528351919283929083019185019080838360005b838110156104aa578181015183820152602001610492565b50505050905090810190601f1680156104d75780820380516001836020036101000a031916815260200191505b509250505060405180910390f35b3480156104f157600080fd5b50610459611183565b34801561050657600080fd5b5061050f6111ce565b604080519115158252519081900360200190f35b34801561052f57600080fd5b5061050f600160a060020a03600435166024356111f7565b34801561055357600080fd5b5061055c61120d565b60408051918252519081900360200190f35b34801561057a57600080fd5b5061055c611213565b34801561058f57600080fd5b50610459600160a060020a0360043581169060243581169060443581169060643581169060843516611236565b3480156105c857600080fd5b506105d161139e565b60408051600160a060020a039092168252519081900360200190f35b3480156105f957600080fd5b5061055c6113e1565b34801561060e57600080fd5b5061055c6004356113eb565b34801561062657600080fd5b5061050f611439565b34801561063b57600080fd5b5061050f600160a060020a036004358116906024351660443561146e565b34801561066557600080fd5b506105d1611542565b34801561067a57600080fd5b506040805160206004803580820135601f81018490048402850184019095528484526105d19436949293602493928401919081908401838280828437509497506115809650505050505050565b3480156106d357600080fd5b50610459600435602435611665565b3480156106ee57600080fd5b5061055c61170f565b34801561070357600080fd5b5061070c611744565b6040805160ff9092168252519081900360200190f35b34801561072e57600080fd5b506105d1611749565b34801561074357600080fd5b5061055c6117be565b34801561075857600080fd5b5061055c6117f3565b34801561076d57600080fd5b5061055c611800565b34801561078257600080fd5b5061050f600160a060020a0360043516602435611835565b3480156107a657600080fd5b506105d1611871565b3480156107bb57600080fd5b506104596118af565b3480156107d057600080fd5b5061050f6118c0565b3480156107e557600080fd5b5061055c6118f2565b3480156107fa57600080fd5b5061055c611927565b34801561080f57600080fd5b50610459600435611931565b610459611964565b34801561082f57600080fd5b5061055c611add565b34801561084457600080fd5b5061055c611b41565b34801561085957600080fd5b5061055c611b46565b34801561086e57600080fd5b5061055c611b84565b34801561088357600080fd5b5061045961ffff60043516611bb9565b34801561089f57600080fd5b50610459600435602435611cb6565b3480156108ba57600080fd5b506108c36120b6565b6040805197151588529515156020880152868601949094526060860192909252608085015260a084015260c0830152519081900360e00190f35b610459612159565b34801561091157600080fd5b5061055c612189565b34801561092657600080fd5b506105d16121e4565b34801561093b57600080fd5b5061055c600160a060020a0360043516612248565b34801561095c57600080fd5b50610459612261565b34801561097157600080fd5b5061097a61228a565b6040805161ffff9485168152928416602084015292168183015290519081900360600190f35b3480156109ac57600080fd5b5061045960043561234f565b3480156109c457600080fd5b5061055c60043561237f565b3480156109dc57600080fd5b50610459600160a060020a03600435166123ab565b3480156109fd57600080fd5b5061050f600160a060020a036004351661248d565b348015610a1e57600080fd5b5061055c612493565b348015610a3357600080fd5b5061055c6124c8565b348015610a4857600080fd5b506105d16124f3565b348015610a5d57600080fd5b5061055c612531565b348015610a7257600080fd5b5061045961ffff6004358116906024358116906044351661255c565b348015610a9a57600080fd5b5061045961ffff60043516612711565b348015610ab657600080fd5b5061055c600160a060020a03600435166024356127c2565b348015610ada57600080fd5b50610459600435612868565b348015610af257600080fd5b506104706128ac565b348015610b0757600080fd5b5061055c6128e3565b348015610b1c57600080fd5b50610459600160a060020a0360043516612918565b348015610b3d57600080fd5b50604080516020600460443581810135838102808601850190965280855261050f958335600160a060020a0316956024803596369695606495939492019291829185019084908082843750949750612b589650505050505050565b61055c600160a060020a0360043516612ca3565b348015610bb857600080fd5b5061055c612cae565b348015610bcd57600080fd5b5061050f600160a060020a0360043516602435612cb3565b348015610bf157600080fd5b506105d1612d4e565b348015610c0657600080fd5b5061055c612e35565b348015610c1b57600080fd5b5061055c612e3a565b348015610c3057600080fd5b5061050f600160a060020a0360043516602435612e6f565b348015610c5457600080fd5b506105d1612e7c565b348015610c6957600080fd5b50610c72612eba565b60408051938452602084019290925282820152519081900360600190f35b348015610c9c57600080fd5b50610459612f42565b348015610cb157600080fd5b5061055c612fcc565b348015610cc657600080fd5b50610459600160a060020a0360043581169060243581169060443516613001565b348015610cf357600080fd5b50610459600160a060020a0360043516613063565b348015610d1457600080fd5b50610d1d61310c565b6040805161ffff9092168252519081900360200190f35b348015610d4057600080fd5b506105d161314a565b348015610d5557600080fd5b5061055c613175565b348015610d6a57600080fd5b5061050f61317f565b348015610d7f57600080fd5b5061055c600160a060020a0360043581169060243516613188565b348015610da657600080fd5b5061050f6131b3565b348015610dbb57600080fd5b50610459600160a060020a03600435811690602435811690604435166131c6565b348015610de857600080fd5b5061045960043561320c565b348015610e0057600080fd5b5061055c61331a565b348015610e1557600080fd5b5061045961334f565b348015610e2a57600080fd5b5061055c600160a060020a0360043516602435613394565b348015610e4e57600080fd5b5061055c600160a060020a0360043516613478565b348015610e6f57600080fd5b50610459613483565b348015610e8457600080fd5b5061055c6134be565b348015610e9957600080fd5b50610459600435613522565b6000610eaf615de4565b600080341515610f09576040805160e560020a62461bcd02815260206004820152600c60248201527f5a45524f5f4445504f5349540000000000000000000000000000000000000000604482015290519081900360640190fd5b60408051600080516020615e8a83398151915281529051908190036014019020610f3290613552565b9250610f3d836135a5565b15610f92576040805160e560020a62461bcd02815260206004820152600e60248201527f5354414b494e475f504155534544000000000000000000000000000000000000604482015290519081900360640190fd5b610f9b836135b0565b1561104457610fa9836135c2565b915034821015611003576040805160e560020a62461bcd02815260206004820152600b60248201527f5354414b455f4c494d4954000000000000000000000000000000000000000000604482015290519081900360640190fd5b6110446110188434850363ffffffff61364d16565b60408051600080516020615e8a833981519152815290519081900360140190209063ffffffff61369116565b61104d346113eb565b90508015156110595750345b61106333826136f0565b506110ab61107f3461107361385b565b9063ffffffff61389616565b60408051600080516020615e6a833981519152815290519081900360170190209063ffffffff61392416565b60408051348152600160a060020a0387166020820152815133927f96a25c8ce0baabc1fdefd93e9ed25d8e092a3332f3aa9a41722b5697231d1d1a928290030190a26110f73382613928565b949350505050565b604080517f524553554d455f524f4c450000000000000000000000000000000000000000008152905190819003600b01902061113a906139b4565b611142613a71565b61114a613b4b565b565b60408051808201909152601781527f4c6971756964207374616b656420457468657220322e30000000000000000000602082015290565b604080517f50415553455f524f4c45000000000000000000000000000000000000000000008152905190819003600a0190206111be906139b4565b6111c6613bb6565b61114a613c7f565b6000806111d9612531565b905080158015906111f15750806111ee613cde565b10155b91505090565b6000611204338484613ce2565b50600192915050565b60025481565b60408051600080516020615f2a8339815191528152905190819003601401902081565b61123e612531565b60408051808201909152601881527f494e49545f414c52454144595f494e495449414c495a45440000000000000000602082015290156112ff5760405160e560020a62461bcd0281526004018080602001828103825283818151815260200191508051906020019080838360005b838110156112c45781810151838201526020016112ac565b50505050905090810190601f1680156112f15780820380516001836020036101000a031916815260200191505b509250505060405180910390fd5b50604080517f6c69646f2e4c69646f2e6e6f64654f70657261746f72735265676973747279008152905190819003601f019020611342908463ffffffff61392416565b604080517f6c69646f2e4c69646f2e6465706f736974436f6e74726163740000000000000081529051908190036019019020611384908663ffffffff61392416565b61138f848383613e71565b6113976140a7565b5050505050565b604080517f6c69646f2e4c69646f2e696e737572616e636546756e64000000000000000000815290519081900360170190206000906113dc9061416d565b905090565b60006113dc614171565b6000806113f6614171565b90508015156114085760009150611433565b611430816114246114176141b3565b869063ffffffff6141f116565b9063ffffffff61429c16565b91505b50919050565b60408051600080516020615e8a833981519152815290519081900360140190206000906113dc9061146990613552565b6135a5565b600160a060020a038316600090815260016020908152604080832033845290915281205482811015611510576040805160e560020a62461bcd02815260206004820152602160248201527f5452414e534645525f414d4f554e545f455843454544535f414c4c4f57414e4360448201527f4500000000000000000000000000000000000000000000000000000000000000606482015290519081900360840190fd5b61151b85858561433c565b6115358533611530848763ffffffff6143f016565b613ce2565b600191505b509392505050565b604080517f6c69646f2e4c69646f2e6e6f64654f70657261746f72735265676973747279008152905190819003601f0190206000906113dc9061416d565b600061158a612d4e565b600160a060020a03166304bf2a7f836040518263ffffffff1660e01b81526004018080602001828103825283818151815260200191508051906020019080838360005b838110156115e55781810151838201526020016115cd565b50505050905090810190601f1680156116125780820380516001836020036101000a031916815260200191505b5092505050602060405180830381600087803b15801561163157600080fd5b505af1158015611645573d6000803e3d6000fd5b505050506040513d602081101561165b57600080fd5b505190505b919050565b60408051600080516020615f2a8339815191528152905190819003601401902061168e906139b4565b60408051600080516020615e8a833981519152815290519081900360140190206116d09061101890849084906116c390613552565b919063ffffffff61448416565b604080518381526020810183905281517fce9fddf6179affa1ea7bf36d80a6bf0284e0f3b91f4b2fa6eea2af923e7fac2d929181900390910190a15050565b604080517f524553554d455f524f4c450000000000000000000000000000000000000000008152905190819003600b01902081565b601290565b600061175361314a565b600160a060020a03166332f0a3b56040518163ffffffff1660e01b8152600401602060405180830381600087803b15801561178d57600080fd5b505af11580156117a1573d6000803e3d6000fd5b505050506040513d60208110156117b757600080fd5b5051905090565b604080517f4445504f5349545f524f4c4500000000000000000000000000000000000000008152905190819003600c01902081565b6801bc16d674ec80000081565b604080517f50415553455f524f4c45000000000000000000000000000000000000000000008152905190819003600a01902081565b336000818152600160209081526040808320600160a060020a03871684529091528120549091611204918590611530908663ffffffff61389616565b604080517f6c69646f2e4c69646f2e74726561737572790000000000000000000000000000815290519081900360120190206000906113dc9061416d565b60006002556003805460ff19169055565b60408051600080516020615eca833981519152815290519081900360180190206000906118ec9061416d565b15905090565b604080517f4d414e4147455f5749544844524157414c5f4b455900000000000000000000008152905190819003601501902081565b60006113dc61385b565b60408051600080516020615eea8339815191528152905190819003601d019020611961908263ffffffff61392416565b50565b604080517f6c69646f2e4c69646f2e657865637574696f6e4c61796572526577617264735681527f61756c7400000000000000000000000000000000000000000000000000000000602082015290519081900360240190206119c59061416d565b600160a060020a031633146119d957600080fd5b604080517f6c69646f2e4c69646f2e746f74616c454c52657761726473436f6c6c6563746581527f640000000000000000000000000000000000000000000000000000000000000060208201529051908190036021019020611aa890611a449034906110739061416d565b604080517f6c69646f2e4c69646f2e746f74616c454c52657761726473436f6c6c6563746581527f6400000000000000000000000000000000000000000000000000000000000000602082015290519081900360210190209063ffffffff61392416565b6040805134815290517fd27f9b0c98bdee27044afa149eadcd2047d6399cb6613a45c5b87e6aca76e6b59181900360200190a1565b604080517f6c69646f2e4c69646f2e454c526577617264735769746864726177616c4c696d81527f6974000000000000000000000000000000000000000000000000000000000000602082015290519081900360220190206000906113dc9061416d565b606081565b604080517f6c69646f2e4c69646f2e7769746864726177616c43726564656e7469616c73008152905190819003601f0190206000906113dc9061416d565b60408051600080516020615e8a833981519152815290519081900360140190206000906113dc90611bb490613552565b61469c565b604080517f5345545f454c5f524557415244535f5749544844524157414c5f4c494d49545f81527f524f4c450000000000000000000000000000000000000000000000000000000060208201529051908190036024019020611c1a906139b4565b604080517f6c69646f2e4c69646f2e454c526577617264735769746864726177616c4c696d81527f697400000000000000000000000000000000000000000000000000000000000060208201529051908190036022019020611c7c90826146d5565b6040805161ffff8316815290517f166eb213129ab51688433b859b5a206403ee174774a1430f8ffb83af316161f69181900360200190a150565b6000806000806000806000611cf16040518080600080516020615eca833981519152815250601801905060405180910390206000191661416d565b1515611d35576040805160e560020a62461bcd0281526020600482015260136024820152600080516020615f0a833981519152604482015290519081900360640190fd5b611d3d6124f3565b600160a060020a03163314611d9c576040805160e560020a62461bcd02815260206004820152600f60248201527f4150505f415554485f4641494c45440000000000000000000000000000000000604482015290519081900360640190fd5b60408051600080516020615eea8339815191528152905190819003601d019020611dc59061416d565b965086891115611e1f576040805160e560020a62461bcd02815260206004820152601760248201527f5245504f525445445f4d4f52455f4445504f5349544544000000000000000000604482015290519081900360640190fd5b60408051600080516020615f4a8339815191528152905190819003601a019020611e489061416d565b955085891015611ea2576040805160e560020a62461bcd02815260206004820152601860248201527f5245504f525445445f4c4553535f56414c494441544f52530000000000000000604482015290519081900360640190fd5b611eb2898763ffffffff6143f016565b60408051600080516020615eaa83398151915281529051908190036017019020909550611efb90611ee29061416d565b611073876801bc16d674ec80000063ffffffff6141f116565b60408051600080516020615eaa83398151915281529051908190036017019020909450611f2e908963ffffffff61392416565b60408051600080516020615f4a8339815191528152905190819003601a019020611f5e908a63ffffffff61392416565b611f666121e4565b9150600160a060020a0382161561207957604080517f6c69646f2e4c69646f2e454c526577617264735769746864726177616c4c696d81527f697400000000000000000000000000000000000000000000000000000000000060208201529051908190036022019020600160a060020a03831690639342c8f49061271090611fed9061416d565b611ff5614171565b02811515611fff57fe5b046040518263ffffffff1660e01b815260040180828152602001915050602060405180830381600087803b15801561203657600080fd5b505af115801561204a573d6000803e3d6000fd5b505050506040513d602081101561206057600080fd5b5051925082156120795761207961107f8461107361385b565b838811156120ab57612091888563ffffffff6143f016565b90506120ab6120a6828563ffffffff61389616565b614747565b505050505050505050565b60008060008060008060006120c9615de4565b60408051600080516020615e8a833981519152815290519081900360140190206120f290613552565b90506120fd816135a5565b9750612108816135b0565b96506121138161469c565b955080606001516001606060020a03169450806040015163ffffffff16935080602001516001606060020a03169250806000015163ffffffff1691505090919293949596565b60408051600080516020615e6a8339815191528152905190819003601701902061114a903463ffffffff61392416565b604080517f5345545f454c5f524557415244535f5749544844524157414c5f4c494d49545f81527f524f4c45000000000000000000000000000000000000000000000000000000006020820152905190819003602401902081565b604080517f6c69646f2e4c69646f2e657865637574696f6e4c61796572526577617264735681527f61756c7400000000000000000000000000000000000000000000000000000000602082015290519081900360240190206000906113dc9061416d565b600061225b61225683614759565b61237f565b92915050565b60408051600080516020615f2a83398151915281529051908190036014019020611142906139b4565b604080517f6c69646f2e4c69646f2e7472656173757279466565000000000000000000000081529051908190036015019020600090819081906122cc9061416d565b604080517f6c69646f2e4c69646f2e696e737572616e6365466565000000000000000000008152905190819003601601902090935061230a9061416d565b604080517f6c69646f2e4c69646f2e6e6f64654f70657261746f72734665650000000000008152905190819003601a0190209092506123489061416d565b9050909192565b60408051600080516020615eaa83398151915281529051908190036017019020611961908263ffffffff61392416565b60008061238a6141b3565b905080151561239c5760009150611433565b61143081611424611417614171565b604080517f5345545f454c5f524557415244535f5641554c545f524f4c4500000000000000815290519081900360190190206123e6906139b4565b604080517f6c69646f2e4c69646f2e657865637574696f6e4c61796572526577617264735681527f61756c74000000000000000000000000000000000000000000000000000000006020820152905190819003602401902061244e908263ffffffff61392416565b60408051600160a060020a038316815290517f8e2d01c4cfaa88fa4d772d37e4d068deda4342bf4ef6dc4b0cf3e868be5ebb409181900360200190a150565b50600190565b604080517f4d414e4147455f50524f544f434f4c5f434f4e5452414354535f524f4c4500008152905190819003601e01902081565b60006113dc7fd625496217aa6a3453eecb9c3489dc5a53e6c67b444329ea2b2cbc9ff547639b61416d565b604080517f6c69646f2e4c69646f2e6f7261636c6500000000000000000000000000000000815290519081900360100190206000906113dc9061416d565b60006113dc7febb05b386a8d34882b8711d156f463690983dc47815980fb82aeeff1aa43579e61416d565b604080517f4d414e4147455f464545000000000000000000000000000000000000000000008152905190819003600a019020612597906139b4565b6125ba8161ffff166110738461ffff168661ffff1661389690919063ffffffff16565b61271014612612576040805160e560020a62461bcd02815260206004820152601060248201527f464545535f444f4e545f4144445f555000000000000000000000000000000000604482015290519081900360640190fd5b604080517f6c69646f2e4c69646f2e747265617375727946656500000000000000000000008152905190819003601501902061264e90846146d5565b604080517f6c69646f2e4c69646f2e696e737572616e6365466565000000000000000000008152905190819003601601902061268a90836146d5565b604080517f6c69646f2e4c69646f2e6e6f64654f70657261746f72734665650000000000008152905190819003601a0190206126c690826146d5565b6040805161ffff8086168252808516602083015283168183015290517f034529db1bba3830b8877e116871f19c5b96ef86c739f2a05668c860c84668989181900360600190a1505050565b604080517f4d414e4147455f464545000000000000000000000000000000000000000000008152905190819003600a01902061274c906139b4565b604080517f6c69646f2e4c69646f2e666565000000000000000000000000000000000000008152905190819003600d01902061278890826146d5565b6040805161ffff8316815290517faab062e3faf62b6c9a0f8e62af66e0310e27127a8c871a67be7dd4d93de6da539181900360200190a150565b6000806127d0338585614774565b604080518481529051600160a060020a0386169133917f9d9c909296d9c674451c0c24f02cb64981eb3b727f99865939192f880a755dcb9181900360200190a36128198361237f565b604080518281529051919250600160a060020a0386169133917fddf252ad1be2c89b69c2b068fc378daa952ba7f163c4a11628f55a4df523b3ef919081900360200190a38091505b5092915050565b604080517f4445504f5349545f524f4c4500000000000000000000000000000000000000008152905190819003600c0190206128a3906139b4565b6119618161497d565b60408051808201909152600581527f7374455448000000000000000000000000000000000000000000000000000000602082015290565b604080517f4d414e4147455f464545000000000000000000000000000000000000000000008152905190819003600a01902081565b60008060006129268461248d565b151561297c576040805160e560020a62461bcd02815260206004820152601260248201527f5245434f5645525f444953414c4c4f5745440000000000000000000000000000604482015290519081900360640190fd5b612984611749565b9250600160a060020a03831615156129e6576040805160e560020a62461bcd02815260206004820152601260248201527f5245434f5645525f5641554c545f5a45524f0000000000000000000000000000604482015290519081900360640190fd5b600160a060020a0384161515612a7a576129fe614a65565b915082600160a060020a03168260405160006040518083038185875af1925050501515612a75576040805160e560020a62461bcd02815260206004820152601760248201527f5245434f5645525f5452414e534645525f4641494c4544000000000000000000604482015290519081900360640190fd5b612b07565b5082612a95600160a060020a0382163063ffffffff614a8016565b9150612ab1600160a060020a038216848463ffffffff614b9516565b1515612b07576040805160e560020a62461bcd02815260206004820152601d60248201527f5245434f5645525f544f4b454e5f5452414e534645525f4641494c4544000000604482015290519081900360640190fd5b83600160a060020a031683600160a060020a03167f596caf56044b55fb8c4ca640089bbc2b63cae3e978b851f5745cbb7c5b288e02846040518082815260200191505060405180910390a350505050565b600080612b636111ce565b1515612b72576000915061153a565b612b7a61314a565b9050600160a060020a0381161515612b95576000915061153a565b80600160a060020a031663fdef9106863087612bb088614c17565b60405163ffffffff861660e01b8152600160a060020a03808616600483019081529085166024830152604482018490526080606483019081528351608484015283519192909160a490910190602085019080838360005b83811015612c1f578181015183820152602001612c07565b50505050905090810190601f168015612c4c5780820380516001836020036101000a031916815260200191505b5095505050505050602060405180830381600087803b158015612c6e57600080fd5b505af1158015612c82573d6000803e3d6000fd5b505050506040513d6020811015612c9857600080fd5b505195945050505050565b600061225b82610ea5565b602081565b336000908152600160209081526040808320600160a060020a038616845290915281205482811015612d2f576040805160e560020a62461bcd02815260206004820152601e60248201527f4445435245415345445f414c4c4f57414e43455f42454c4f575f5a45524f0000604482015290519081900360640190fd5b612d443385611530848763ffffffff6143f016565b5060019392505050565b600080612d5961314a565b604080517fbe00bbd80000000000000000000000000000000000000000000000000000000081527fd6f028ca0e8edb4a8c9757ca4fdccab25fa1e0317da1188108f7d2dee14902fb60048201527fddbcfd564f642ab5627cf68b9b7d374fb4f8a36e941a75d89c87998cef03bd6160248201529051600160a060020a03929092169163be00bbd8916044808201926020929091908290030181600087803b158015612e0357600080fd5b505af1158015612e17573d6000803e3d6000fd5b505050506040513d6020811015612e2d57600080fd5b505192915050565b603081565b604080517f5345545f454c5f524557415244535f5641554c545f524f4c45000000000000008152905190819003601901902081565b600061120433848461433c565b604080517f6c69646f2e4c69646f2e6465706f736974436f6e747261637400000000000000815290519081900360190190206000906113dc9061416d565b60408051600080516020615eea8339815191528152905190819003601d01902060009081908190612eea9061416d565b60408051600080516020615f4a8339815191528152905190819003601a019020909350612f169061416d565b60408051600080516020615eaa833981519152815290519081900360170190209092506123489061416d565b60408051600080516020615f2a83398151915281529051908190036014019020612f6b906139b4565b60408051600080516020615e8a83398151915281529051908190036014019020612fa19061101890612f9c90613552565b614c21565b6040517f9b2a687c198898fcc32a33bbc610d478f177a73ab7352023e6cc1de5bf12a3df90600090a1565b604080517f4255524e5f524f4c4500000000000000000000000000000000000000000000008152905190819003600901902081565b61305683838361300f615e0b565b604051809103906000f08015801561302b573d6000803e3d6000fd5b50613034615e0b565b604051809103906000f080158015613050573d6000803e3d6000fd5b50611236565b61305e613a71565b505050565b61306b612531565b60408051808201909152601881527f494e49545f414c52454144595f494e495449414c495a45440000000000000000602082015290156130f05760405160e560020a62461bcd028152600401808060200182810382528381815181526020019150805190602001908083836000838110156112c45781810151838201526020016112ac565b506130fc818283613e71565b613104613a71565b6119616140a7565b604080517f6c69646f2e4c69646f2e666565000000000000000000000000000000000000008152905190819003600d0190206000906113dc9061416d565b60006113dc7f4172f0f7d2289153072b0a6ca36959e0cbe2efc3afe50fc81636caa96338137b61416d565b60006113dc6141b3565b60035460ff1681565b600160a060020a03918216600090815260016020908152604080832093909416825291909152205490565b60006000196131c0612531565b14905090565b604080517f4d414e4147455f50524f544f434f4c5f434f4e5452414354535f524f4c4500008152905190819003601e019020613201906139b4565b61305e838383613e71565b604080517f4d414e4147455f5749544844524157414c5f4b4559000000000000000000000081529051908190036015019020613247906139b4565b604080517f6c69646f2e4c69646f2e7769746864726177616c43726564656e7469616c73008152905190819003601f019020613289908263ffffffff61392416565b613291611542565b600160a060020a031663f778021e6040518163ffffffff1660e01b8152600401600060405180830381600087803b1580156132cb57600080fd5b505af11580156132df573d6000803e3d6000fd5b50506040805184815290517f13eb80e900aa05a2696d50d5de33ef631c73493c4921da233b17335ff6b7b1149350908190036020019150a150565b604080517f5354414b494e475f50415553455f524f4c4500000000000000000000000000008152905190819003601201902081565b604080517f4445504f5349545f524f4c4500000000000000000000000000000000000000008152905190819003600c01902061338a906139b4565b61114a609661497d565b604080517f4255524e5f524f4c450000000000000000000000000000000000000000000000815290519081900360090190206000906133d38484614c34565b6133de338383612b58565b60408051808201909152600f81527f4150505f415554485f4641494c4544000000000000000000000000000000000060208201529015156134645760405160e560020a62461bcd028152600401808060200182810382528381815181526020019150805190602001908083836000838110156112c45781810151838201526020016112ac565b5061346f8585614c50565b95945050505050565b600061225b82614759565b604080517f5354414b494e475f50415553455f524f4c450000000000000000000000000000815290519081900360120190206111c6906139b4565b604080517f6c69646f2e4c69646f2e746f74616c454c52657761726473436f6c6c6563746581527f6400000000000000000000000000000000000000000000000000000000000000602082015290519081900360210190206000906113dc9061416d565b60408051600080516020615f4a8339815191528152905190819003601a019020611961908263ffffffff61392416565b61355a615de4565b60006135658361416d565b63ffffffff600082901c811684526001606060020a03602083811c821690860152608083901c909116604085015260a09190911c16606083015250919050565b5163ffffffff161590565b606001516001606060020a0316151590565b6040810151600090819063ffffffff161561360657826040015163ffffffff1683606001516001606060020a03168115156135f957fe5b046001606060020a031690505b80836000015163ffffffff1643030283602001516001606060020a031601915082606001516001606060020a0316821115611433575050606001516001606060020a031690565b613655615de4565b6001606060020a0382111561366657fe5b825163ffffffff16151561367657fe5b506001606060020a031660208201524363ffffffff16815290565b6136ec60a082606001516001606060020a0316901b6080836040015163ffffffff16901b602084602001516001606060020a0316901b6000856000015163ffffffff16901b171717836000191661392490919063ffffffff16565b5050565b60408051600080516020615eca8339815191528152905190819003601801902060009061371c9061416d565b1515613760576040805160e560020a62461bcd0281526020600482015260136024820152600080516020615f0a833981519152604482015290519081900360640190fd5b600160a060020a03831615156137c0576040805160e560020a62461bcd02815260206004820152601860248201527f4d494e545f544f5f5448455f5a45524f5f414444524553530000000000000000604482015290519081900360640190fd5b6137cc826110736141b3565b604080517f6c69646f2e53744554482e746f74616c5368617265730000000000000000000081529051908190036016019020909150613811908263ffffffff61392416565b600160a060020a03831660009081526020819052604090205461383a908363ffffffff61389616565b600160a060020a039093166000908152602081905260409020929092555090565b60408051600080516020615e6a8339815191528152905190819003601701902060009081906138899061416d565b9050303181111561166057fe5b60408051808201909152601181527f4d4154485f4144445f4f564552464c4f570000000000000000000000000000006020820152600090838301908482101561153a5760405160e560020a62461bcd028152600401808060200182810382528381815181526020019150805190602001908083836000838110156112c45781810151838201526020016112ac565b9055565b600160a060020a03821660007fddf252ad1be2c89b69c2b068fc378daa952ba7f163c4a11628f55a4df523b3ef61395e8461237f565b60408051918252519081900360200190a3604080518281529051600160a060020a038416916000917f9d9c909296d9c674451c0c24f02cb64981eb3b727f99865939192f880a755dcb9181900360200190a35050565b806139eb338260006040519080825280602002602001820160405280156139e5578160200160208202803883390190505b50612b58565b60408051808201909152600f81527f4150505f415554485f4641494c45440000000000000000000000000000000000602082015290151561305e5760405160e560020a62461bcd028152600401808060200182810382528381815181526020019150805190602001908083836000838110156112c45781810151838201526020016112ac565b60408051600080516020615eca83398151915281529051908190036018019020613a9a9061416d565b15613aef576040805160e560020a62461bcd02815260206004820152601260248201527f434f4e54524143545f49535f4143544956450000000000000000000000000000604482015290519081900360640190fd5b60408051600080516020615eca83398151915281529051908190036018019020613b2090600163ffffffff61392416565b6040517f62451d457bc659158be6e6247f56ec1df424a5c7597f71c20c2bc44e0965c8f990600090a1565b60408051600080516020615e8a83398151915281529051908190036014019020613b8b9061101890600090613b7f90613552565b9063ffffffff614e8a16565b6040517fedaeeae9aed70c4545d3ab0065713261c9cee8d6cf5c8b07f52f0a65fd91efda90600090a1565b60408051600080516020615eca83398151915281529051908190036018019020613bdf9061416d565b1515613c23576040805160e560020a62461bcd0281526020600482015260136024820152600080516020615f0a833981519152604482015290519081900360640190fd5b60408051600080516020615eca83398151915281529051908190036018019020613c5490600063ffffffff61392416565b6040517f7acc84e34091ae817647a4c49116f5cc07f319078ba80f8f5fde37ea7e25cbd690600090a1565b60408051600080516020615e8a83398151915281529051908190036014019020613cb39061101890600190613b7f90613552565b6040517f26d1807b479eaba249c1214b82e4b65bbb0cc73ee8a17901324b1ef1b5904e4990600090a1565b4390565b60408051600080516020615eca83398151915281529051908190036018019020613d0b9061416d565b1515613d4f576040805160e560020a62461bcd0281526020600482015260136024820152600080516020615f0a833981519152604482015290519081900360640190fd5b600160a060020a0383161515613daf576040805160e560020a62461bcd02815260206004820152601960248201527f415050524f56455f46524f4d5f5a45524f5f4144445245535300000000000000604482015290519081900360640190fd5b600160a060020a0382161515613e0f576040805160e560020a62461bcd02815260206004820152601760248201527f415050524f56455f544f5f5a45524f5f41444452455353000000000000000000604482015290519081900360640190fd5b600160a060020a03808416600081815260016020908152604080832094871680845294825291829020859055815185815291517f8c5be1e5ebec7d5bd14f71427d1e84f3dd0314c0f7b2291e5b200ac8c7c3b9259281900390910190a3505050565b600160a060020a0383161515613ed1576040805160e560020a62461bcd02815260206004820152601360248201527f4f5241434c455f5a45524f5f4144445245535300000000000000000000000000604482015290519081900360640190fd5b600160a060020a0382161515613f31576040805160e560020a62461bcd02815260206004820152601560248201527f54524541535552595f5a45524f5f414444524553530000000000000000000000604482015290519081900360640190fd5b600160a060020a0381161515613f91576040805160e560020a62461bcd02815260206004820152601b60248201527f494e535552414e43455f46554e445f5a45524f5f414444524553530000000000604482015290519081900360640190fd5b604080517f6c69646f2e4c69646f2e6f7261636c650000000000000000000000000000000081529051908190036010019020613fd3908463ffffffff61392416565b604080517f6c69646f2e4c69646f2e7472656173757279000000000000000000000000000081529051908190036012019020614015908363ffffffff61392416565b604080517f6c69646f2e4c69646f2e696e737572616e636546756e6400000000000000000081529051908190036017019020614057908263ffffffff61392416565b60408051600160a060020a038086168252808516602083015283168183015290517f7df55cbe17c0cf85c9c23753c046f686eeb4c6b2ce13182943d215e92afc565a9181900360600190a1505050565b6140af612531565b60408051808201909152601881527f494e49545f414c52454144595f494e495449414c495a45440000000000000000602082015290156141345760405160e560020a62461bcd028152600401808060200182810382528381815181526020019150805190602001908083836000838110156112c45781810151838201526020016112ac565b5061114a614140613cde565b7febb05b386a8d34882b8711d156f463690983dc47815980fb82aeeff1aa43579e9063ffffffff61392416565b5490565b60006113dc61417e614eaf565b60408051600080516020615eaa83398151915281529051908190036017019020611073906141ab9061416d565b61107361385b565b604080517f6c69646f2e53744554482e746f74616c53686172657300000000000000000000815290519081900360160190206000906113dc9061416d565b6000808315156142045760009150612861565b5082820282848281151561421457fe5b60408051808201909152601181527f4d4154485f4d554c5f4f564552464c4f570000000000000000000000000000006020820152929190041461153a5760405160e560020a62461bcd028152600401808060200182810382528381815181526020019150805190602001908083836000838110156112c45781810151838201526020016112ac565b60408051808201909152600d81527f4d4154485f4449565f5a45524f00000000000000000000000000000000000000602082015260009081908184116143275760405160e560020a62461bcd028152600401808060200182810382528381815181526020019150805190602001908083836000838110156112c45781810151838201526020016112ac565b50828481151561433357fe5b04949350505050565b6000614347826113eb565b9050614354848483614774565b82600160a060020a031684600160a060020a03167fddf252ad1be2c89b69c2b068fc378daa952ba7f163c4a11628f55a4df523b3ef846040518082815260200191505060405180910390a382600160a060020a031684600160a060020a03167f9d9c909296d9c674451c0c24f02cb64981eb3b727f99865939192f880a755dcb836040518082815260200191505060405180910390a350505050565b60408051808201909152601281527f4d4154485f5355425f554e444552464c4f570000000000000000000000000000602082015260009081908484111561447c5760405160e560020a62461bcd028152600401808060200182810382528381815181526020019150805190602001908083836000838110156112c45781810151838201526020016112ac565b505050900390565b61448c615de4565b8215156144e3576040805160e560020a62461bcd02815260206004820152601460248201527f5a45524f5f4d41585f5354414b455f4c494d4954000000000000000000000000604482015290519081900360640190fd5b6001606060020a03831115614542576040805160e560020a62461bcd02815260206004820152601960248201527f544f4f5f4c415247455f4d41585f5354414b455f4c494d495400000000000000604482015290519081900360640190fd5b8183101561459a576040805160e560020a62461bcd02815260206004820152601860248201527f544f4f5f4c415247455f4c494d49545f494e4352454153450000000000000000604482015290519081900360640190fd5b8115806145b6575063ffffffff82848115156145b257fe5b0411155b151561460c576040805160e560020a62461bcd02815260206004820152601860248201527f544f4f5f534d414c4c5f4c494d49545f494e4352454153450000000000000000604482015290519081900360640190fd5b60608401516001606060020a03161580614632575083602001516001606060020a031683105b15614647576001606060020a03831660208501525b811515614655576000614662565b818381151561466057fe5b045b63ffffffff90811660408601526001606060020a0384166060860152845116156146905763ffffffff431684525b509192915050565b5490565b60006146a7826135a5565b156146b457506000611660565b6146bd826135b0565b15156146cc5750600019611660565b61225b826135c2565b61271061ffff82161115614733576040805160e560020a62461bcd02815260206004820152601660248201527f56414c55455f4f5645525f3130305f50455243454e5400000000000000000000604482015290519081900360640190fd5b6136ec8261ffff831663ffffffff61392416565b6002556003805460ff19166001179055565b600160a060020a031660009081526020819052604090205490565b60408051600080516020615eca833981519152815290519081900360180190206000906147a09061416d565b15156147e4576040805160e560020a62461bcd0281526020600482015260136024820152600080516020615f0a833981519152604482015290519081900360640190fd5b600160a060020a0384161515614844576040805160e560020a62461bcd02815260206004820152601e60248201527f5452414e534645525f46524f4d5f5448455f5a45524f5f414444524553530000604482015290519081900360640190fd5b600160a060020a03831615156148a4576040805160e560020a62461bcd02815260206004820152601c60248201527f5452414e534645525f544f5f5448455f5a45524f5f4144445245535300000000604482015290519081900360640190fd5b50600160a060020a03831660009081526020819052604090205480821115614916576040805160e560020a62461bcd02815260206004820152601f60248201527f5452414e534645525f414d4f554e545f455843454544535f42414c414e434500604482015290519081900360640190fd5b614926818363ffffffff6143f016565b600160a060020a03808616600090815260208190526040808220939093559085168152205461495b908363ffffffff61389616565b600160a060020a03909316600090815260208190526040902092909255505050565b60408051600080516020615eca83398151915281529051908190036018019020600090819081906149ad9061416d565b15156149f1576040805160e560020a62461bcd0281526020600482015260136024820152600080516020615f0a833981519152604482015290519081900360640190fd5b6149f961385b565b92506801bc16d674ec8000008310614a5f57614a13614a65565b9150614a2e836801bc16d674ec80000063ffffffff61429c16565b9050614a4f614a4a858310614a435785614a45565b825b614f47565b6152c6565b81614a58614a65565b14614a5f57fe5b50505050565b60006113dc614a7261385b565b30319063ffffffff6143f016565b60408051600160a060020a0383166024808301919091528251808303909101815260449091019091526020810180517bffffffffffffffffffffffffffffffffffffffffffffffffffffffff167f70a08231000000000000000000000000000000000000000000000000000000001790526000908180614b00868461532f565b60408051808201909152601c81527f534146455f4552435f32305f42414c414e43455f52455645525445440000000060208201529193509150821515614b8b5760405160e560020a62461bcd028152600401808060200182810382528381815181526020019150805190602001908083836000838110156112c45781810151838201526020016112ac565b5095945050505050565b60408051600160a060020a038416602482015260448082018490528251808303909101815260649091019091526020810180517bffffffffffffffffffffffffffffffffffffffffffffffffffffffff167fa9059cbb0000000000000000000000000000000000000000000000000000000017905260009061346f8582615360565b8051602002815290565b614c29615de4565b506000606082015290565b6060614c4983600160a060020a0316836153ae565b9392505050565b60408051600080516020615eca83398151915281529051908190036018019020600090819081908190614c829061416d565b1515614cc6576040805160e560020a62461bcd0281526020600482015260136024820152600080516020615f0a833981519152604482015290519081900360640190fd5b600160a060020a0386161515614d26576040805160e560020a62461bcd02815260206004820152601a60248201527f4255524e5f46524f4d5f5448455f5a45524f5f41444452455353000000000000604482015290519081900360640190fd5b600160a060020a038616600090815260208190526040902054925082851115614d99576040805160e560020a62461bcd02815260206004820152601b60248201527f4255524e5f414d4f554e545f455843454544535f42414c414e43450000000000604482015290519081900360640190fd5b614da28561237f565b9150614dbc85614db06141b3565b9063ffffffff6143f016565b604080517f6c69646f2e53744554482e746f74616c5368617265730000000000000000000081529051908190036016019020909450614e01908563ffffffff61392416565b614e11838663ffffffff6143f016565b600160a060020a038716600090815260208190526040902055614e338561237f565b60408051848152602081018390528082018890529051919250600160a060020a038816917f8b2a1e1ad5e0578c3dd82494156e985dade827a87c573b5c1c7716a32162ad649181900360600190a250505092915050565b614e92615de4565b81614e9d5743614ea0565b60005b63ffffffff1683525090919050565b60408051600080516020615eea8339815191528152905190819003601d01902060009081908190614edf9061416d565b60408051600080516020615f4a8339815191528152905190819003601a019020909250614f0b9061416d565b905080821015614f1757fe5b614f406801bc16d674ec800000614f34848463ffffffff6143f016565b9063ffffffff6141f116565b9250505090565b6000606080600080606080614f5a611542565b600160a060020a03166341bc716f896040518263ffffffff1660e01b815260040180828152602001915050600060405180830381600087803b158015614f9f57600080fd5b505af1158015614fb3573d6000803e3d6000fd5b505050506040513d6000823e601f3d908101601f191682016040908152811015614fdc57600080fd5b810190808051640100000000811115614ff457600080fd5b8201602081018481111561500757600080fd5b815164010000000081118282018710171561502157600080fd5b5050929190602001805164010000000081111561503d57600080fd5b8201602081018481111561505057600080fd5b815164010000000081118282018710171561506a57600080fd5b50508451949a5098505050901515905061508757600096506152bb565b855161509a90603063ffffffff61540916565b15615115576040805160e560020a62461bcd02815260206004820152602160248201527f52454749535452595f494e434f4e53495354454e545f5055424b4559535f4c4560448201527f4e00000000000000000000000000000000000000000000000000000000000000606482015290519081900360840190fd5b845161512890606063ffffffff61540916565b1561517d576040805160e560020a62461bcd02815260206004820152601d60248201527f52454749535452595f494e434f4e53495354454e545f5349475f4c454e000000604482015290519081900360640190fd5b855161519090603063ffffffff61429c16565b85519094506151a690606063ffffffff61429c16565b84146151fc576040805160e560020a62461bcd02815260206004820152601f60248201527f52454749535452595f494e434f4e53495354454e545f5349475f434f554e5400604482015290519081900360640190fd5b600092505b8383101561524057615218866030850260306154a6565b9150615229856060850260606154a6565b90506152358282615527565b826001019250615201565b60408051600080516020615eea8339815191528152905190819003601d01902061529f906152739086906110739061416d565b60408051600080516020615eea8339815191528152905190819003601d0190209063ffffffff61392416565b6152b8846801bc16d674ec80000063ffffffff6141f116565b96505b505050505050919050565b60408051600080516020615e6a833981519152815290519081900360170190206152f99061107f908390614db09061416d565b6040805182815290517f76a397bea5768d4fca97ef47792796e35f98dc81b16c1de84e28a818e1f971089181900360200190a150565b6000806000806040516020818751602089018a5afa9250600083111561535457805191505b50909590945092505050565b6000806040516020818551602087016000895af160008111156153a4573d8015615391576020811461539a576153a2565b600193506153a2565b600183511493505b505b5090949350505050565b6040805160028082526060808301845292602083019080388339019050509050828160008151811015156153de57fe5b6020908102909101015280518290829060019081106153f957fe5b6020908102909101015292915050565b60408051808201909152600d81527f4d4154485f4449565f5a45524f0000000000000000000000000000000000000060208201526000908215156154925760405160e560020a62461bcd028152600401808060200182810382528381815181526020019150805190602001908083836000838110156112c45781810151838201526020016112ac565b50818381151561549e57fe5b069392505050565b6060808284018551101515156154bb57600080fd5b821580156154d45760405191506020820160405261551e565b6040519150601f8416801560200281840101858101878315602002848b0101015b8183101561550d5780518352602092830192016154f5565b5050858452601f01601f1916604052505b50949350505050565b600080600080600080600061553a611b46565b9650861515615593576040805160e560020a62461bcd02815260206004820152601c60248201527f454d5054595f5749544844524157414c5f43524544454e5449414c5300000000604482015290519081900360640190fd5b6801bc16d674ec80000095506155b386633b9aca0063ffffffff61429c16565b9450856155ca86633b9aca0063ffffffff6141f116565b146155d157fe5b60026155dc8a615ca1565b6040518082805190602001908083835b6020831061560b5780518252601f1990920191602091820191016155ec565b51815160209384036101000a600019018019909216911617905260405191909301945091925050808303816000865af115801561564c573d6000803e3d6000fd5b5050506040513d602081101561566157600080fd5b505193506002806156758a600060406154a6565b6040518082805190602001908083835b602083106156a45780518252601f199092019160209182019101615685565b51815160209384036101000a600019018019909216911617905260405191909301945091925050808303816000865af11580156156e5573d6000803e3d6000fd5b5050506040513d60208110156156fa57600080fd5b5051600261572261571d8c604061571860608263ffffffff6143f016565b6154a6565b615ca1565b6040518082805190602001908083835b602083106157515780518252601f199092019160209182019101615732565b51815160209384036101000a600019018019909216911617905260405191909301945091925050808303816000865af1158015615792573d6000803e3d6000fd5b5050506040513d60208110156157a757600080fd5b5051604080516020818101949094528082019290925280518083038201815260609092019081905281519192909182918401908083835b602083106157fd5780518252601f1990920191602091820191016157de565b51815160209384036101000a600019018019909216911617905260405191909301945091925050808303816000865af115801561583e573d6000803e3d6000fd5b5050506040513d602081101561585357600080fd5b50516040805160208181018890528183018b905282518083038401815260609092019283905281519396506002938493918291908401908083835b602083106158ad5780518252601f19909201916020918201910161588e565b51815160209384036101000a600019018019909216911617905260405191909301945091925050808303816000865af11580156158ee573d6000803e3d6000fd5b5050506040513d602081101561590357600080fd5b5051600261591088615d31565b60408051602080820193909352808201899052815180820383018152606090910191829052805190928291908401908083835b602083106159625780518252601f199092019160209182019101615943565b51815160209384036101000a600019018019909216911617905260405191909301945091925050808303816000865af11580156159a3573d6000803e3d6000fd5b5050506040513d60208110156159b857600080fd5b5051604080516020818101949094528082019290925280518083038201815260609092019081905281519192909182918401908083835b60208310615a0e5780518252601f1990920191602091820191016159ef565b51815160209384036101000a600019018019909216911617905260405191909301945091925050808303816000865af1158015615a4f573d6000803e3d6000fd5b5050506040513d6020811015615a6457600080fd5b50519150615a7930318763ffffffff6143f016565b9050615a83612e7c565b600160a060020a03166322895118878b8a6040516020018082600019166000191681526020019150506040516020818303038152906040528c876040518663ffffffff1660e01b8152600401808060200180602001806020018560001916600019168152602001848103845288818151815260200191508051906020019080838360005b83811015615b1f578181015183820152602001615b07565b50505050905090810190601f168015615b4c5780820380516001836020036101000a031916815260200191505b50848103835287518152875160209182019189019080838360005b83811015615b7f578181015183820152602001615b67565b50505050905090810190601f168015615bac5780820380516001836020036101000a031916815260200191505b50848103825286518152865160209182019188019080838360005b83811015615bdf578181015183820152602001615bc7565b50505050905090810190601f168015615c0c5780820380516001836020036101000a031916815260200191505b509750505050505050506000604051808303818588803b158015615c2f57600080fd5b505af1158015615c43573d6000803e3d6000fd5b505050503031821490506120ab576040805160e560020a62461bcd02815260206004820152601b60248201527f455850454354494e475f4445504f5349545f544f5f48415050454e0000000000604482015290519081900360640190fd5b6060806020835110158015615cb857506040835111155b1515615cc057fe5b825160401415615cd257829150611433565b604080516020808252818301909252908082016104008038833901905050905060006020820152825160201415615d0d576114308382615d69565b61143083615d2c836000615718885160406143f090919063ffffffff16565b615d69565b600081815b6008811015615d5757600892831b60ff831617929190911c90600101615d36565b8115615d5f57fe5b505060c01b919050565b6060806040519050835180825260208201818101602087015b81831015615d9a578051835260209283019201615d82565b50855184518101855292509050808201602086015b81831015615dc7578051835260209283019201615daf565b509551919091011594909401601f01601f19166040529392505050565b60408051608081018252600080825260208201819052918101829052606081019190915290565b604051604f80615e1b8339019056006080604052348015600f57600080fd5b50603280601d6000396000f30060806040520000a165627a7a72305820fa63417e383db3113e2f6e0ab4a10af0318d3a5f301b9453df48438a541c853300296c69646f2e4c69646f2e627566666572656445746865720000000000000000006c69646f2e4c69646f2e7374616b654c696d69740000000000000000000000006c69646f2e4c69646f2e626561636f6e42616c616e63650000000000000000006c69646f2e5061757361626c652e616374697665466c616700000000000000006c69646f2e4c69646f2e6465706f736974656456616c696461746f7273000000434f4e54524143545f49535f53544f50504544000000000000000000000000005354414b494e475f434f4e54524f4c5f524f4c450000000000000000000000006c69646f2e4c69646f2e626561636f6e56616c696461746f7273000000000000a165627a7a72305820f875d5cce39288418ffe26e1c520e3b3cf2d6bf09aca063ac76ff18bda6a14470029ebb05b386a8d34882b8711d156f463690983dc47815980fb82aeeff1aa43579e",
    "linkReferences": {}
  },
  "methodIdentifiers": {
    "BURN_ROLE()": "b930908f",
    "DEPOSIT_ROLE()": "353efdcf",
    "DEPOSIT_SIZE()": "36bf3325",
    "MANAGE_FEE()": "9aaa2d15",
    "MANAGE_PROTOCOL_CONTRACTS_ROLE()": "7f6fdac7",
    "MANAGE_WITHDRAWAL_KEY()": "435721da",
    "PAUSE_ROLE()": "389ed267",
    "PUBKEY_LENGTH()": "a4d55d1d",
    "RESUME_ROLE()": "2de03aa1",
    "SET_EL_REWARDS_VAULT_ROLE()": "a6426f5f",
    "SET_EL_REWARDS_WITHDRAWAL_LIMIT_ROLE()": "6bb98ad3",
    "SIGNATURE_LENGTH()": "540bc5ea",
    "STAKING_CONTROL_ROLE()": "136dd43c",
    "STAKING_PAUSE_ROLE()": "eb85262f",
    "WITHDRAWAL_CREDENTIALS_LENGTH()": "a30448c0",
    "allowRecoverability(address)": "7e7db6e1",
    "allowance(address,address)": "dd62ed3e",
    "appId()": "80afdea8",
    "approve(address,uint256)": "095ea7b3",
    "balanceOf(address)": "70a08231",
    "burnShares(address,uint256)": "ee7a7c04",
    "canPerform(address,bytes32,uint256[])": "a1658fad",
    "decimals()": "313ce567",
    "decreaseAllowance(address,uint256)": "a457c2d7",
    "depositBufferedEther()": "ecc1dcfb",
    "depositBufferedEther(uint256)": "90adc83b",
    "distributeFeeCalled()": "d7310149",
    "getBeaconStat()": "ae2e3538",
    "getBufferedEther()": "47b714e0",
    "getCurrentStakeLimit()": "609c4c6c",
    "getDepositContract()": "ab94276a",
    "getELRewardsVault()": "706aa30d",
    "getELRewardsWithdrawalLimit()": "52b3af93",
    "getEVMScriptExecutor(bytes)": "2914b9bd",
    "getEVMScriptRegistry()": "a479e508",
    "getFee()": "ced72f87",
    "getFeeDistribution()": "752f77f1",
    "getInitializationBlock()": "8b3dd749",
    "getInsuranceFund()": "158626f7",
    "getOperators()": "27a099d8",
    "getOracle()": "833b1fce",
    "getPooledEthByShares(uint256)": "7a28fb88",
    "getRecoveryVault()": "32f0a3b5",
    "getSharesByPooledEth(uint256)": "19208451",
    "getStakeLimitFullInfo()": "665b4b0b",
    "getTotalELRewardsCollected()": "fa64ebac",
    "getTotalPooledEther()": "37cfdaca",
    "getTotalShares()": "d5002f2e",
    "getTreasury()": "3b19e84a",
    "getWithdrawalCredentials()": "56396715",
    "handleOracleReport(uint256,uint256)": "64f9991a",
    "hasInitialized()": "0803fac0",
    "increaseAllowance(address,uint256)": "39509351",
    "initialize(address)": "c4d66de8",
    "initialize(address,address,address)": "c0c53b8b",
    "initialize(address,address,address,address,address)": "1459457a",
    "isPetrified()": "de4796ed",
    "isStakingPaused()": "1ea7ca89",
    "isStopped()": "3f683b6a",
    "kernel()": "d4aae0c4",
    "name()": "06fdde03",
    "pauseStaking()": "f999c506",
    "receiveELRewards()": "4ad509b2",
    "removeStakingLimit()": "b3320d9a",
    "resetDistributeFee()": "3d7d1d60",
    "resume()": "046f7da2",
    "resumeStaking()": "7475f913",
    "setBeaconBalance(uint256)": "78c09186",
    "setBeaconValidators(uint256)": "fdaff5ac",
    "setBufferedEther()": "68de379e",
    "setDepositedValidators(uint256)": "4a01b2a9",
    "setELRewardsVault(address)": "7e4193c6",
    "setELRewardsWithdrawalLimit(uint16)": "63c2eb53",
    "setFee(uint16)": "8e005553",
    "setFeeDistribution(uint16,uint16,uint16)": "8cef3612",
    "setProtocolContracts(address,address,address)": "e73f4529",
    "setStakingLimit(uint256,uint256)": "2cb5f784",
    "setWithdrawalCredentials(bytes32)": "e97ee8cc",
    "sharesOf(address)": "f5eb42dc",
    "stop()": "07da68f5",
    "submit(address)": "a1903eab",
    "symbol()": "95d89b41",
    "totalRewards()": "0e15561a",
    "totalSupply()": "18160ddd",
    "transfer(address,uint256)": "a9059cbb",
    "transferFrom(address,address,uint256)": "23b872dd",
    "transferShares(address,uint256)": "8fcb4e5b",
    "transferToVault(address)": "9d4941d8"
  },
  "storageLayout": {
    "storage": [],
    "types": {}
  },
  "id": 28
}