{
  "abi": [
    {
      "inputs": [],
      "stateMutability": "nonpayable",
      "type": "constructor"
    },
    {
      "anonymous": false,
      "inputs": [
        {
          "indexed": true,
          "internalType": "address",
          "name": "owner",
          "type": "address"
        },
        {
          "indexed": true,
          "internalType": "address",
          "name": "spender",
          "type": "address"
        },
        {
          "indexed": false,
          "internalType": "uint256",
          "name": "value",
          "type": "uint256"
        }
      ],
      "name": "Approval",
      "type": "event"
    },
    {
      "anonymous": false,
      "inputs": [
        {
          "indexed": true,
          "internalType": "address",
          "name": "from",
          "type": "address"
        },
        {
          "indexed": true,
          "internalType": "address",
          "name": "to",
          "type": "address"
        },
        {
          "indexed": false,
          "internalType": "uint256",
          "name": "value",
          "type": "uint256"
        }
      ],
      "name": "Transfer",
      "type": "event"
    },
    {
      "inputs": [
        {
          "internalType": "address",
          "name": "owner",
          "type": "address"
        },
        {
          "internalType": "address",
          "name": "spender",
          "type": "address"
        }
      ],
      "name": "allowance",
      "outputs": [
        {
          "internalType": "uint256",
          "name": "",
          "type": "uint256"
        }
      ],
      "stateMutability": "view",
      "type": "function"
    },
    {
      "inputs": [
        {
          "internalType": "address",
          "name": "spender",
          "type": "address"
        },
        {
          "internalType": "uint256",
          "name": "amount",
          "type": "uint256"
        }
      ],
      "name": "approve",
      "outputs": [
        {
          "internalType": "bool",
          "name": "",
          "type": "bool"
        }
      ],
      "stateMutability": "nonpayable",
      "type": "function"
    },
    {
      "inputs": [
        {
          "internalType": "address",
          "name": "account",
          "type": "address"
        }
      ],
      "name": "balanceOf",
      "outputs": [
        {
          "internalType": "uint256",
          "name": "",
          "type": "uint256"
        }
      ],
      "stateMutability": "view",
      "type": "function"
    },
    {
      "inputs": [
        {
          "internalType": "uint256",
          "name": "amount",
          "type": "uint256"
        }
      ],
      "name": "burn",
      "outputs": [],
      "stateMutability": "nonpayable",
      "type": "function"
    },
    {
      "inputs": [
        {
          "internalType": "address",
          "name": "account",
          "type": "address"
        },
        {
          "internalType": "uint256",
          "name": "amount",
          "type": "uint256"
        }
      ],
      "name": "burnFrom",
      "outputs": [],
      "stateMutability": "nonpayable",
      "type": "function"
    },
    {
      "inputs": [],
      "name": "decimals",
      "outputs": [
        {
          "internalType": "uint8",
          "name": "",
          "type": "uint8"
        }
      ],
      "stateMutability": "view",
      "type": "function"
    },
    {
      "inputs": [
        {
          "internalType": "address",
          "name": "spender",
          "type": "address"
        },
        {
          "internalType": "uint256",
          "name": "subtractedValue",
          "type": "uint256"
        }
      ],
      "name": "decreaseAllowance",
      "outputs": [
        {
          "internalType": "bool",
          "name": "",
          "type": "bool"
        }
      ],
      "stateMutability": "nonpayable",
      "type": "function"
    },
    {
      "inputs": [
        {
          "internalType": "uint256",
          "name": "_sharesAmount",
          "type": "uint256"
        }
      ],
      "name": "getPooledEthByShares",
      "outputs": [
        {
          "internalType": "uint256",
          "name": "",
          "type": "uint256"
        }
      ],
      "stateMutability": "view",
      "type": "function"
    },
    {
      "inputs": [
        {
          "internalType": "uint256",
          "name": "_pooledEthAmount",
          "type": "uint256"
        }
      ],
      "name": "getSharesByPooledEth",
      "outputs": [
        {
          "internalType": "uint256",
          "name": "",
          "type": "uint256"
        }
      ],
      "stateMutability": "view",
      "type": "function"
    },
    {
      "inputs": [
        {
          "internalType": "address",
          "name": "spender",
          "type": "address"
        },
        {
          "internalType": "uint256",
          "name": "addedValue",
          "type": "uint256"
        }
      ],
      "name": "increaseAllowance",
      "outputs": [
        {
          "internalType": "bool",
          "name": "",
          "type": "bool"
        }
      ],
      "stateMutability": "nonpayable",
      "type": "function"
    },
    {
      "inputs": [
        {
          "internalType": "address",
          "name": "recipient",
          "type": "address"
        },
        {
          "internalType": "uint256",
          "name": "amount",
          "type": "uint256"
        }
      ],
      "name": "mint",
      "outputs": [],
      "stateMutability": "nonpayable",
      "type": "function"
    },
    {
      "inputs": [],
      "name": "name",
      "outputs": [
        {
          "internalType": "string",
          "name": "",
          "type": "string"
        }
      ],
      "stateMutability": "view",
      "type": "function"
    },
    {
      "inputs": [
        {
          "internalType": "uint256",
          "name": "_totalPooledEther",
          "type": "uint256"
        }
      ],
      "name": "setTotalPooledEther",
      "outputs": [],
      "stateMutability": "nonpayable",
      "type": "function"
    },
    {
      "inputs": [
        {
          "internalType": "uint256",
          "name": "_totalShares",
          "type": "uint256"
        }
      ],
      "name": "setTotalShares",
      "outputs": [],
      "stateMutability": "nonpayable",
      "type": "function"
    },
    {
      "inputs": [
        {
          "internalType": "address",
          "name": "holder",
          "type": "address"
        },
        {
          "internalType": "uint256",
          "name": "amount",
          "type": "uint256"
        }
      ],
      "name": "slash",
      "outputs": [],
      "stateMutability": "nonpayable",
      "type": "function"
    },
    {
      "inputs": [
        {
          "internalType": "address",
          "name": "",
          "type": "address"
        }
      ],
      "name": "submit",
      "outputs": [
        {
          "internalType": "uint256",
          "name": "",
          "type": "uint256"
        }
      ],
      "stateMutability": "payable",
      "type": "function"
    },
    {
      "inputs": [],
      "name": "symbol",
      "outputs": [
        {
          "internalType": "string",
          "name": "",
          "type": "string"
        }
      ],
      "stateMutability": "view",
      "type": "function"
    },
    {
      "inputs": [],
      "name": "totalPooledEther",
      "outputs": [
        {
          "internalType": "uint256",
          "name": "",
          "type": "uint256"
        }
      ],
      "stateMutability": "view",
      "type": "function"
    },
    {
      "inputs": [],
      "name": "totalShares",
      "outputs": [
        {
          "internalType": "uint256",
          "name": "",
          "type": "uint256"
        }
      ],
      "stateMutability": "view",
      "type": "function"
    },
    {
      "inputs": [],
      "name": "totalSupply",
      "outputs": [
        {
          "internalType": "uint256",
          "name": "",
          "type": "uint256"
        }
      ],
      "stateMutability": "view",
      "type": "function"
    },
    {
      "inputs": [
        {
          "internalType": "address",
          "name": "recipient",
          "type": "address"
        },
        {
          "internalType": "uint256",
          "name": "amount",
          "type": "uint256"
        }
      ],
      "name": "transfer",
      "outputs": [
        {
          "internalType": "bool",
          "name": "",
          "type": "bool"
        }
      ],
      "stateMutability": "nonpayable",
      "type": "function"
    },
    {
      "inputs": [
        {
          "internalType": "address",
          "name": "sender",
          "type": "address"
        },
        {
          "internalType": "address",
          "name": "recipient",
          "type": "address"
        },
        {
          "internalType": "uint256",
          "name": "amount",
          "type": "uint256"
        }
      ],
      "name": "transferFrom",
      "outputs": [
        {
          "internalType": "bool",
          "name": "",
          "type": "bool"
        }
      ],
      "stateMutability": "nonpayable",
      "type": "function"
    }
  ],
  "bytecode": {
    "object": "0x608060405234801561001057600080fd5b50604080518082018252601881527f4c6971756964207374616b6564204c69646f20457468657200000000000000006020808301918252835180850190945260058452640a6e88aa8960db1b9084015281519192916100719160039161009a565b50805161008590600490602084019061009a565b50506005805460ff191660121790555061012d565b828054600181600116156101000203166002900490600052602060002090601f016020900481019282601f106100db57805160ff1916838001178555610108565b82800160010185558215610108579182015b828111156101085782518255916020019190600101906100ed565b50610114929150610118565b5090565b5b808211156101145760008155600101610119565b61118b806200013d6000396000f3fe6080604052600436106101355760003560e01c806369415b86116100ab57806395d89b411161006f57806395d89b4114610491578063a1903eab146104a6578063a457c2d7146104cc578063a77384c114610505578063a9059cbb1461052f578063dd62ed3e1461056857610135565b806369415b86146103bc57806370a08231146103d157806379cc6790146104045780637a28fb881461043d57806384041a581461046757610135565b806323b872dd116100fd57806323b872dd1461029d578063313ce567146102e0578063395093511461030b5780633a98ef391461034457806340c10f191461035957806342966c681461039257610135565b806302fb4d851461013a57806306fdde0314610175578063095ea7b3146101ff57806318160ddd1461024c5780631920845114610273575b600080fd5b34801561014657600080fd5b506101736004803603604081101561015d57600080fd5b506001600160a01b0381351690602001356105a3565b005b34801561018157600080fd5b5061018a6105b1565b6040805160208082528351818301528351919283929083019185019080838360005b838110156101c45781810151838201526020016101ac565b50505050905090810190601f1680156101f15780820380516001836020036101000a031916815260200191505b509250505060405180910390f35b34801561020b57600080fd5b506102386004803603604081101561022257600080fd5b506001600160a01b038135169060200135610647565b604080519115158252519081900360200190f35b34801561025857600080fd5b50610261610665565b60408051918252519081900360200190f35b34801561027f57600080fd5b506102616004803603602081101561029657600080fd5b503561066b565b3480156102a957600080fd5b50610238600480360360608110156102c057600080fd5b506001600160a01b038135811691602081013590911690604001356106a9565b3480156102ec57600080fd5b506102f5610730565b6040805160ff9092168252519081900360200190f35b34801561031757600080fd5b506102386004803603604081101561032e57600080fd5b506001600160a01b038135169060200135610739565b34801561035057600080fd5b50610261610787565b34801561036557600080fd5b506101736004803603604081101561037c57600080fd5b506001600160a01b03813516906020013561078d565b34801561039e57600080fd5b50610173600480360360208110156103b557600080fd5b5035610797565b3480156103c857600080fd5b506102616107ab565b3480156103dd57600080fd5b50610261600480360360208110156103f457600080fd5b50356001600160a01b03166107b1565b34801561041057600080fd5b506101736004803603604081101561042757600080fd5b506001600160a01b0381351690602001356107cc565b34801561044957600080fd5b506102616004803603602081101561046057600080fd5b5035610826565b34801561047357600080fd5b506101736004803603602081101561048a57600080fd5b5035610856565b34801561049d57600080fd5b5061018a61085b565b610261600480360360208110156104bc57600080fd5b50356001600160a01b03166108bc565b3480156104d857600080fd5b50610238600480360360408110156104ef57600080fd5b506001600160a01b0381351690602001356108d4565b34801561051157600080fd5b506101736004803603602081101561052857600080fd5b503561093c565b34801561053b57600080fd5b506102386004803603604081101561055257600080fd5b506001600160a01b038135169060200135610941565b34801561057457600080fd5b506102616004803603604081101561058b57600080fd5b506001600160a01b0381358116916020013516610955565b6105ad8282610980565b5050565b60038054604080516020601f600260001961010060018816150201909516949094049384018190048102820181019092528281526060939092909183018282801561063d5780601f106106125761010080835404028352916020019161063d565b820191906000526020600020905b81548152906001019060200180831161062057829003601f168201915b5050505050905090565b600061065b610654610a7c565b8484610a80565b5060015b92915050565b60025490565b600060075460001415610680575060006106a4565b6106a160075461069b60065485610b6c90919063ffffffff16565b90610bcc565b90505b919050565b60006106b6848484610c33565b610726846106c2610a7c565b6107218560405180606001604052806028815260200161107b602891396001600160a01b038a16600090815260016020526040812090610700610a7c565b6001600160a01b031681526020810191909152604001600020549190610d8e565b610a80565b5060019392505050565b60055460ff1690565b600061065b610746610a7c565b846107218560016000610757610a7c565b6001600160a01b03908116825260208083019390935260409182016000908120918c168152925290205490610e25565b60065481565b6105ad8282610e7f565b6107a86107a2610a7c565b82610980565b50565b60075481565b6001600160a01b031660009081526020819052604090205490565b6000610803826040518060600160405280602481526020016110a3602491396107fc866107f7610a7c565b610955565b9190610d8e565b905061081783610811610a7c565b83610a80565b6108218383610980565b505050565b60006006546000141561083b575060006106a4565b6106a160065461069b60075485610b6c90919063ffffffff16565b600755565b60048054604080516020601f600260001961010060018816150201909516949094049384018190048102820181019092528281526060939092909183018282801561063d5780601f106106125761010080835404028352916020019161063d565b6000806108c83461066b565b90506106a13382610e7f565b600061065b6108e1610a7c565b8461072185604051806060016040528060258152602001611131602591396001600061090b610a7c565b6001600160a01b03908116825260208083019390935260409182016000908120918d16815292529020549190610d8e565b600655565b600061065b61094e610a7c565b8484610c33565b6001600160a01b03918216600090815260016020908152604080832093909416825291909152205490565b6001600160a01b0382166109c55760405162461bcd60e51b81526004018080602001828103825260218152602001806110c76021913960400191505060405180910390fd5b6109d182600083610821565b610a0e81604051806060016040528060228152602001610ff0602291396001600160a01b0385166000908152602081905260409020549190610d8e565b6001600160a01b038316600090815260208190526040902055600254610a349082610f6f565b6002556040805182815290516000916001600160a01b038516917fddf252ad1be2c89b69c2b068fc378daa952ba7f163c4a11628f55a4df523b3ef9181900360200190a35050565b3390565b6001600160a01b038316610ac55760405162461bcd60e51b815260040180806020018281038252602481526020018061110d6024913960400191505060405180910390fd5b6001600160a01b038216610b0a5760405162461bcd60e51b81526004018080602001828103825260228152602001806110126022913960400191505060405180910390fd5b6001600160a01b03808416600081815260016020908152604080832094871680845294825291829020859055815185815291517f8c5be1e5ebec7d5bd14f71427d1e84f3dd0314c0f7b2291e5b200ac8c7c3b9259281900390910190a3505050565b600082610b7b5750600061065f565b82820282848281610b8857fe5b0414610bc55760405162461bcd60e51b815260040180806020018281038252602181526020018061105a6021913960400191505060405180910390fd5b9392505050565b6000808211610c22576040805162461bcd60e51b815260206004820152601a60248201527f536166654d6174683a206469766973696f6e206279207a65726f000000000000604482015290519081900360640190fd5b818381610c2b57fe5b049392505050565b6001600160a01b038316610c785760405162461bcd60e51b81526004018080602001828103825260258152602001806110e86025913960400191505060405180910390fd5b6001600160a01b038216610cbd5760405162461bcd60e51b8152600401808060200182810382526023815260200180610fcd6023913960400191505060405180910390fd5b610cc8838383610821565b610d0581604051806060016040528060268152602001611034602691396001600160a01b0386166000908152602081905260409020549190610d8e565b6001600160a01b038085166000908152602081905260408082209390935590841681522054610d349082610e25565b6001600160a01b038084166000818152602081815260409182902094909455805185815290519193928716927fddf252ad1be2c89b69c2b068fc378daa952ba7f163c4a11628f55a4df523b3ef92918290030190a3505050565b60008184841115610e1d5760405162461bcd60e51b81526004018080602001828103825283818151815260200191508051906020019080838360005b83811015610de2578181015183820152602001610dca565b50505050905090810190601f168015610e0f5780820380516001836020036101000a031916815260200191505b509250505060405180910390fd5b505050900390565b600082820183811015610bc5576040805162461bcd60e51b815260206004820152601b60248201527f536166654d6174683a206164646974696f6e206f766572666c6f770000000000604482015290519081900360640190fd5b6001600160a01b038216610eda576040805162461bcd60e51b815260206004820152601f60248201527f45524332303a206d696e7420746f20746865207a65726f206164647265737300604482015290519081900360640190fd5b610ee660008383610821565b600254610ef39082610e25565b6002556001600160a01b038216600090815260208190526040902054610f199082610e25565b6001600160a01b0383166000818152602081815260408083209490945583518581529351929391927fddf252ad1be2c89b69c2b068fc378daa952ba7f163c4a11628f55a4df523b3ef9281900390910190a35050565b600082821115610fc6576040805162461bcd60e51b815260206004820152601e60248201527f536166654d6174683a207375627472616374696f6e206f766572666c6f770000604482015290519081900360640190fd5b5090039056fe45524332303a207472616e7366657220746f20746865207a65726f206164647265737345524332303a206275726e20616d6f756e7420657863656564732062616c616e636545524332303a20617070726f766520746f20746865207a65726f206164647265737345524332303a207472616e7366657220616d6f756e7420657863656564732062616c616e6365536166654d6174683a206d756c7469706c69636174696f6e206f766572666c6f7745524332303a207472616e7366657220616d6f756e74206578636565647320616c6c6f77616e636545524332303a206275726e20616d6f756e74206578636565647320616c6c6f77616e636545524332303a206275726e2066726f6d20746865207a65726f206164647265737345524332303a207472616e736665722066726f6d20746865207a65726f206164647265737345524332303a20617070726f76652066726f6d20746865207a65726f206164647265737345524332303a2064656372656173656420616c6c6f77616e63652062656c6f77207a65726fa2646970667358221220388b3a4d1685e6ba9cd0d6136a8cc6ee5f32cb3a3cf4fa4f9b5e4b610264fe9164736f6c634300060c0033",
    "linkReferences": {}
  },
  "methodIdentifiers": {
    "allowance(address,address)": "dd62ed3e",
    "approve(address,uint256)": "095ea7b3",
    "balanceOf(address)": "70a08231",
    "burn(uint256)": "42966c68",
    "burnFrom(address,uint256)": "79cc6790",
    "decimals()": "313ce567",
    "decreaseAllowance(address,uint256)": "a457c2d7",
    "getPooledEthByShares(uint256)": "7a28fb88",
    "getSharesByPooledEth(uint256)": "19208451",
    "increaseAllowance(address,uint256)": "39509351",
    "mint(address,uint256)": "40c10f19",
    "name()": "06fdde03",
    "setTotalPooledEther(uint256)": "84041a58",
    "setTotalShares(uint256)": "a77384c1",
    "slash(address,uint256)": "02fb4d85",
    "submit(address)": "a1903eab",
    "symbol()": "95d89b41",
    "totalPooledEther()": "69415b86",
    "totalShares()": "3a98ef39",
    "totalSupply()": "18160ddd",
    "transfer(address,uint256)": "a9059cbb",
    "transferFrom(address,address,uint256)": "23b872dd"
  },
  "storageLayout": {
    "storage": [
      {
        "astId": 1203,
        "contract": "contracts/0.6.12/mocks/StETHMockERC20.sol:StETHMockERC20",
        "label": "_balances",
        "offset": 0,
        "slot": "0",
        "type": "t_mapping(t_address,t_uint256)"
      },
      {
        "astId": 1209,
        "contract": "contracts/0.6.12/mocks/StETHMockERC20.sol:StETHMockERC20",
        "label": "_allowances",
        "offset": 0,
        "slot": "1",
        "type": "t_mapping(t_address,t_mapping(t_address,t_uint256))"
      },
      {
        "astId": 1211,
        "contract": "contracts/0.6.12/mocks/StETHMockERC20.sol:StETHMockERC20",
        "label": "_totalSupply",
        "offset": 0,
        "slot": "2",
        "type": "t_uint256"
      },
      {
        "astId": 1213,
        "contract": "contracts/0.6.12/mocks/StETHMockERC20.sol:StETHMockERC20",
        "label": "_name",
        "offset": 0,
        "slot": "3",
        "type": "t_string_storage"
      },
      {
        "astId": 1215,
        "contract": "contracts/0.6.12/mocks/StETHMockERC20.sol:StETHMockERC20",
        "label": "_symbol",
        "offset": 0,
        "slot": "4",
        "type": "t_string_storage"
      },
      {
        "astId": 1217,
        "contract": "contracts/0.6.12/mocks/StETHMockERC20.sol:StETHMockERC20",
        "label": "_decimals",
        "offset": 0,
        "slot": "5",
        "type": "t_uint8"
      },
      {
        "astId": 230,
        "contract": "contracts/0.6.12/mocks/StETHMockERC20.sol:StETHMockERC20",
        "label": "totalShares",
        "offset": 0,
        "slot": "6",
        "type": "t_uint256"
      },
      {
        "astId": 232,
        "contract": "contracts/0.6.12/mocks/StETHMockERC20.sol:StETHMockERC20",
        "label": "totalPooledEther",
        "offset": 0,
        "slot": "7",
        "type": "t_uint256"
      }
    ],
    "types": {
      "t_address": {
        "encoding": "inplace",
        "label": "address",
        "numberOfBytes": "20"
      },
      "t_mapping(t_address,t_mapping(t_address,t_uint256))": {
        "encoding": "mapping",
        "key": "t_address",
        "label": "mapping(address => mapping(address => uint256))",
        "numberOfBytes": "32",
        "value": "t_mapping(t_address,t_uint256)"
      },
      "t_mapping(t_address,t_uint256)": {
        "encoding": "mapping",
        "key": "t_address",
        "label": "mapping(address => uint256)",
        "numberOfBytes": "32",
        "value": "t_uint256"
      },
      "t_string_storage": {
        "encoding": "bytes",
        "label": "string",
        "numberOfBytes": "32"
      },
      "t_uint256": {
        "encoding": "inplace",
        "label": "uint256",
        "numberOfBytes": "32"
      },
      "t_uint8": {
        "encoding": "inplace",
        "label": "uint8",
        "numberOfBytes": "1"
      }
    }
  },
  "id": 2
}