{
  "abi": [
    {
      "constant": true,
      "inputs": [],
      "name": "hasInitialized",
      "outputs": [
        {
          "name": "",
          "type": "bool"
        }
      ],
      "payable": false,
      "stateMutability": "view",
      "type": "function"
    },
    {
      "constant": true,
      "inputs": [
        {
          "name": "_script",
          "type": "bytes"
        }
      ],
      "name": "getEVMScriptExecutor",
      "outputs": [
        {
          "name": "",
          "type": "address"
        }
      ],
      "payable": false,
      "stateMutability": "view",
      "type": "function"
    },
    {
      "constant": true,
      "inputs": [],
      "name": "POINT_ROOTNODE_ROLE",
      "outputs": [
        {
          "name": "",
          "type": "bytes32"
        }
      ],
      "payable": false,
      "stateMutability": "view",
      "type": "function"
    },
    {
      "constant": true,
      "inputs": [],
      "name": "getRecoveryVault",
      "outputs": [
        {
          "name": "",
          "type": "address"
        }
      ],
      "payable": false,
      "stateMutability": "view",
      "type": "function"
    },
    {
      "constant": true,
      "inputs": [],
      "name": "ens",
      "outputs": [
        {
          "name": "",
          "type": "address"
        }
      ],
      "payable": false,
      "stateMutability": "view",
      "type": "function"
    },
    {
      "constant": false,
      "inputs": [
        {
          "name": "_label",
          "type": "bytes32"
        },
        {
          "name": "_target",
          "type": "address"
        }
      ],
      "name": "createNameAndPoint",
      "outputs": [
        {
          "name": "node",
          "type": "bytes32"
        }
      ],
      "payable": false,
      "stateMutability": "nonpayable",
      "type": "function"
    },
    {
      "constant": false,
      "inputs": [
        {
          "name": "_label",
          "type": "bytes32"
        },
        {
          "name": "_owner",
          "type": "address"
        }
      ],
      "name": "createName",
      "outputs": [
        {
          "name": "node",
          "type": "bytes32"
        }
      ],
      "payable": false,
      "stateMutability": "nonpayable",
      "type": "function"
    },
    {
      "constant": true,
      "inputs": [
        {
          "name": "token",
          "type": "address"
        }
      ],
      "name": "allowRecoverability",
      "outputs": [
        {
          "name": "",
          "type": "bool"
        }
      ],
      "payable": false,
      "stateMutability": "view",
      "type": "function"
    },
    {
      "constant": true,
      "inputs": [],
      "name": "appId",
      "outputs": [
        {
          "name": "",
          "type": "bytes32"
        }
      ],
      "payable": false,
      "stateMutability": "view",
      "type": "function"
    },
    {
      "constant": true,
      "inputs": [],
      "name": "getInitializationBlock",
      "outputs": [
        {
          "name": "",
          "type": "uint256"
        }
      ],
      "payable": false,
      "stateMutability": "view",
      "type": "function"
    },
    {
      "constant": false,
      "inputs": [
        {
          "name": "_token",
          "type": "address"
        }
      ],
      "name": "transferToVault",
      "outputs": [],
      "payable": false,
      "stateMutability": "nonpayable",
      "type": "function"
    },
    {
      "constant": true,
      "inputs": [
        {
          "name": "_sender",
          "type": "address"
        },
        {
          "name": "_role",
          "type": "bytes32"
        },
        {
          "name": "_params",
          "type": "uint256[]"
        }
      ],
      "name": "canPerform",
      "outputs": [
        {
          "name": "",
          "type": "bool"
        }
      ],
      "payable": false,
      "stateMutability": "view",
      "type": "function"
    },
    {
      "constant": true,
      "inputs": [],
      "name": "getEVMScriptRegistry",
      "outputs": [
        {
          "name": "",
          "type": "address"
        }
      ],
      "payable": false,
      "stateMutability": "view",
      "type": "function"
    },
    {
      "constant": true,
      "inputs": [],
      "name": "DELETE_NAME_ROLE",
      "outputs": [
        {
          "name": "",
          "type": "bytes32"
        }
      ],
      "payable": false,
      "stateMutability": "view",
      "type": "function"
    },
    {
      "constant": false,
      "inputs": [
        {
          "name": "_ens",
          "type": "address"
        },
        {
          "name": "_rootNode",
          "type": "bytes32"
        }
      ],
      "name": "initialize",
      "outputs": [],
      "payable": false,
      "stateMutability": "nonpayable",
      "type": "function"
    },
    {
      "constant": true,
      "inputs": [],
      "name": "kernel",
      "outputs": [
        {
          "name": "",
          "type": "address"
        }
      ],
      "payable": false,
      "stateMutability": "view",
      "type": "function"
    },
    {
      "constant": false,
      "inputs": [
        {
          "name": "_target",
          "type": "address"
        }
      ],
      "name": "pointRootNode",
      "outputs": [],
      "payable": false,
      "stateMutability": "nonpayable",
      "type": "function"
    },
    {
      "constant": false,
      "inputs": [
        {
          "name": "_label",
          "type": "bytes32"
        }
      ],
      "name": "deleteName",
      "outputs": [],
      "payable": false,
      "stateMutability": "nonpayable",
      "type": "function"
    },
    {
      "constant": true,
      "inputs": [],
      "name": "isPetrified",
      "outputs": [
        {
          "name": "",
          "type": "bool"
        }
      ],
      "payable": false,
      "stateMutability": "view",
      "type": "function"
    },
    {
      "constant": true,
      "inputs": [],
      "name": "rootNode",
      "outputs": [
        {
          "name": "",
          "type": "bytes32"
        }
      ],
      "payable": false,
      "stateMutability": "view",
      "type": "function"
    },
    {
      "constant": true,
      "inputs": [],
      "name": "CREATE_NAME_ROLE",
      "outputs": [
        {
          "name": "",
          "type": "bytes32"
        }
      ],
      "payable": false,
      "stateMutability": "view",
      "type": "function"
    },
    {
      "anonymous": false,
      "inputs": [
        {
          "indexed": true,
          "name": "node",
          "type": "bytes32"
        },
        {
          "indexed": true,
          "name": "label",
          "type": "bytes32"
        }
      ],
      "name": "NewName",
      "type": "event"
    },
    {
      "anonymous": false,
      "inputs": [
        {
          "indexed": true,
          "name": "node",
          "type": "bytes32"
        },
        {
          "indexed": true,
          "name": "label",
          "type": "bytes32"
        }
      ],
      "name": "DeleteName",
      "type": "event"
    },
    {
      "anonymous": false,
      "inputs": [
        {
          "indexed": true,
          "name": "executor",
          "type": "address"
        },
        {
          "indexed": false,
          "name": "script",
          "type": "bytes"
        },
        {
          "indexed": false,
          "name": "input",
          "type": "bytes"
        },
        {
          "indexed": false,
          "name": "returnData",
          "type": "bytes"
        }
      ],
      "name": "ScriptResult",
      "type": "event"
    },
    {
      "anonymous": false,
      "inputs": [
        {
          "indexed": true,
          "name": "vault",
          "type": "address"
        },
        {
          "indexed": true,
          "name": "token",
          "type": "address"
        },
        {
          "indexed": false,
          "name": "amount",
          "type": "uint256"
        }
      ],
      "name": "RecoverToVault",
      "type": "event"
    }
  ],
  "bytecode": {
    "object": "0x6080604052620000146200001a60201b60201c565b62000231565b6200002a6200011c60201b60201c565b60408051808201909152601881527f494e49545f414c52454144595f494e495449414c495a454400000000000000006020820152901562000106576040517f08c379a00000000000000000000000000000000000000000000000000000000081526004018080602001828103825283818151815260200191508051906020019080838360005b83811015620000ca578181015183820152602001620000b0565b50505050905090810190601f168015620000f85780820380516001836020036101000a031916815260200191505b509250505060405180910390fd5b506200011a6000196200014f60201b60201c565b565b60006200014a60008051602062001dfa83398151915260001b600019166200022960201b6200168d1760201c565b905090565b6200015f6200011c60201b60201c565b60408051808201909152601881527f494e49545f414c52454144595f494e495449414c495a4544000000000000000060208201529015620001fe576040517f08c379a000000000000000000000000000000000000000000000000000000000815260040180806020018281038252838181518152602001915080519060200190808383600083811015620000ca578181015183820152602001620000b0565b506200022660008051602062001dfa833981519152826200022d602090811b62001b6917901c565b50565b5490565b9055565b611bb980620002416000396000f3006080604052600436106101005760003560e01c63ffffffff1680630803fac0146101055780632914b9bd1461012e578063307482cf146101a357806332f0a3b5146101ca5780633f15457f146101df57806365b0bc85146101f45780636b62cb1b146102185780637e7db6e11461023c57806380afdea81461025d5780638b3dd749146102725780639d4941d814610287578063a1658fad146102aa578063a479e50814610311578063bdbf7d4c14610326578063be13f47c1461033b578063d4aae0c41461035f578063db60693114610374578063dc371e5414610395578063de4796ed146103ad578063faff50a8146103c2578063fef47e38146103d7575b600080fd5b34801561011157600080fd5b5061011a6103ec565b604080519115158252519081900360200190f35b34801561013a57600080fd5b506040805160206004803580820135601f81018490048402850184019095528484526101879436949293602493928401919081908401838280828437509497506104159650505050505050565b60408051600160a060020a039092168252519081900360200190f35b3480156101af57600080fd5b506101b86104f8565b60408051918252519081900360200190f35b3480156101d657600080fd5b5061018761051c565b3480156101eb57600080fd5b50610187610591565b34801561020057600080fd5b506101b8600435600160a060020a03602435166105a0565b34801561022457600080fd5b506101b8600435600160a060020a03602435166106b0565b34801561024857600080fd5b5061011a600160a060020a0360043516610777565b34801561026957600080fd5b506101b861077d565b34801561027e57600080fd5b506101b86107ad565b34801561029357600080fd5b506102a8600160a060020a03600435166107d8565b005b3480156102b657600080fd5b50604080516020600460443581810135838102808601850190965280855261011a958335600160a060020a0316956024803596369695606495939492019291829185019084908082843750949750610a679650505050505050565b34801561031d57600080fd5b50610187610bb4565b34801561033257600080fd5b506101b8610c69565b34801561034757600080fd5b506102a8600160a060020a0360043516602435610c8d565b34801561036b57600080fd5b50610187610e78565b34801561038057600080fd5b506102a8600160a060020a0360043516610ea3565b3480156103a157600080fd5b506102a8600435610f68565b3480156103b957600080fd5b5061011a611322565b3480156103ce57600080fd5b506101b8611335565b3480156103e357600080fd5b506101b861133b565b6000806103f76107ad565b9050801580159061040f57508061040c61135f565b10155b91505090565b600061041f610bb4565b600160a060020a03166304bf2a7f836040518263ffffffff1660e01b81526004018080602001828103825283818151815260200191508051906020019080838360005b8381101561047a578181015183820152602001610462565b50505050905090810190601f1680156104a75780820380516001836020036101000a031916815260200191505b5092505050602060405180830381600087803b1580156104c657600080fd5b505af11580156104da573d6000803e3d6000fd5b505050506040513d60208110156104f057600080fd5b505192915050565b7f9ecd0e7bddb2e241c41b595a436c4ea4fd33c9fa0caa8056acf084fc3aa3bfbe81565b6000610526610e78565b600160a060020a03166332f0a3b56040518163ffffffff1660e01b8152600401602060405180830381600087803b15801561056057600080fd5b505af1158015610574573d6000803e3d6000fd5b505050506040513d602081101561058a57600080fd5b5051905090565b600054600160a060020a031681565b604080516000808252602082019092527ff86bc2abe0919ab91ef714b2bec7c148d94f61fdb069b91a6cfe9ecdee1799ba906105e29033908390855b50610a67565b60408051808201909152600f8152600080516020611b6e83398151915260208201529015156106925760405160e560020a62461bcd0281526004018080602001828103825283818151815260200191508051906020019080838360005b8381101561065757818101518382015260200161063f565b50505050905090810190601f1680156106845780820380516001836020036101000a031916815260200191505b509250505060405180910390fd5b5061069d8430611363565b91506106a98284611554565b5092915050565b604080516000808252602082019092527ff86bc2abe0919ab91ef714b2bec7c148d94f61fdb069b91a6cfe9ecdee1799ba906106f09033908390856105dc565b60408051808201909152600f8152600080516020611b6e83398151915260208201529015156107645760405160e560020a62461bcd0281526004018080602001828103825283818151815260200191508051906020019080838360008381101561065757818101518382015260200161063f565b5061076f8484611363565b949350505050565b50600190565b60006107a87fd625496217aa6a3453eecb9c3489dc5a53e6c67b444329ea2b2cbc9ff547639b61168d565b905090565b60006107a87febb05b386a8d34882b8711d156f463690983dc47815980fb82aeeff1aa43579e61168d565b60008060006107e684610777565b60408051808201909152601281527f5245434f5645525f444953414c4c4f5745440000000000000000000000000000602082015290151561086c5760405160e560020a62461bcd0281526004018080602001828103825283818151815260200191508051906020019080838360008381101561065757818101518382015260200161063f565b5061087561051c565b925061088083611695565b60408051808201909152601a81527f5245434f5645525f5641554c545f4e4f545f434f4e545241435400000000000060208201529015156109065760405160e560020a62461bcd0281526004018080602001828103825283818151815260200191508051906020019080838360008381101561065757818101518382015260200161063f565b50600160a060020a03841615156109575760405130319250600160a060020a0384169083156108fc029084906000818181858888f19350505050158015610951573d6000803e3d6000fd5b50610a16565b5082610972600160a060020a0382163063ffffffff6116c216565b915061098e600160a060020a038216848463ffffffff6117d716565b60408051808201909152601d81527f5245434f5645525f544f4b454e5f5452414e534645525f4641494c45440000006020820152901515610a145760405160e560020a62461bcd0281526004018080602001828103825283818151815260200191508051906020019080838360008381101561065757818101518382015260200161063f565b505b83600160a060020a031683600160a060020a03167f596caf56044b55fb8c4ca640089bbc2b63cae3e978b851f5745cbb7c5b288e02846040518082815260200191505060405180910390a350505050565b600080610a726103ec565b1515610a815760009150610bac565b610a89610e78565b9050600160a060020a0381161515610aa45760009150610bac565b80600160a060020a031663fdef9106863087610abf88611862565b60405163ffffffff861660e01b8152600160a060020a03808616600483019081529085166024830152604482018490526080606483019081528351608484015283519192909160a490910190602085019080838360005b83811015610b2e578181015183820152602001610b16565b50505050905090810190601f168015610b5b5780820380516001836020036101000a031916815260200191505b5095505050505050602060405180830381600087803b158015610b7d57600080fd5b505af1158015610b91573d6000803e3d6000fd5b505050506040513d6020811015610ba757600080fd5b505191505b509392505050565b600080610bbf610e78565b604080517fbe00bbd80000000000000000000000000000000000000000000000000000000081527fd6f028ca0e8edb4a8c9757ca4fdccab25fa1e0317da1188108f7d2dee14902fb60048201527fddbcfd564f642ab5627cf68b9b7d374fb4f8a36e941a75d89c87998cef03bd6160248201529051600160a060020a03929092169163be00bbd8916044808201926020929091908290030181600087803b1580156104c657600080fd5b7f03d74c8724218ad4a99859bcb2d846d39999449fd18013dd8d69096627e6862281565b610c956107ad565b60408051808201909152601881527f494e49545f414c52454144595f494e495449414c495a4544000000000000000060208201529015610d1a5760405160e560020a62461bcd0281526004018080602001828103825283818151815260200191508051906020019080838360008381101561065757818101518382015260200161063f565b50610d2361186c565b604080517f02571be30000000000000000000000000000000000000000000000000000000081526004810183905290513091600160a060020a038516916302571be3916024808201926020929091908290030181600087803b158015610d8857600080fd5b505af1158015610d9c573d6000803e3d6000fd5b505050506040513d6020811015610db257600080fd5b505160408051808201909152601881527f454e535355425f4e4f5f4e4f44455f4f574e4552534849500000000000000000602082015291600160a060020a0390911614610e445760405160e560020a62461bcd0281526004018080602001828103825283818151815260200191508051906020019080838360008381101561065757818101518382015260200161063f565b506000805473ffffffffffffffffffffffffffffffffffffffff1916600160a060020a039390931692909217909155600155565b60006107a87f4172f0f7d2289153072b0a6ca36959e0cbe2efc3afe50fc81636caa96338137b61168d565b604080516000808252602082019092527f9ecd0e7bddb2e241c41b595a436c4ea4fd33c9fa0caa8056acf084fc3aa3bfbe91610ee39133918491906105dc565b60408051808201909152600f8152600080516020611b6e8339815191526020820152901515610f575760405160e560020a62461bcd0281526004018080602001828103825283818151815260200191508051906020019080838360008381101561065757818101518382015260200161063f565b50610f6460015483611554565b5050565b6040805160008082526020820190925281907f03d74c8724218ad4a99859bcb2d846d39999449fd18013dd8d69096627e6862290610faa9033908390856105dc565b60408051808201909152600f8152600080516020611b6e833981519152602082015290151561101e5760405160e560020a62461bcd0281526004018080602001828103825283818151815260200191508051906020019080838360008381101561065757818101518382015260200161063f565b5061102884611934565b60008054604080517f02571be3000000000000000000000000000000000000000000000000000000008152600481018590529051939650600160a060020a03909116926302571be392602480840193602093929083900390910190829087803b15801561109457600080fd5b505af11580156110a8573d6000803e3d6000fd5b505050506040513d60208110156110be57600080fd5b505160408051808201909152601381527f454e535355425f444f45534e545f4558495354000000000000000000000000006020820152909250600160a060020a03831615156111525760405160e560020a62461bcd0281526004018080602001828103825283818151815260200191508051906020019080838360008381101561065757818101518382015260200161063f565b50600160a060020a03821630146111ed5760008054600154604080517f06ab592300000000000000000000000000000000000000000000000000000000815260048101929092526024820188905230604483015251600160a060020a03909216926306ab59239260648084019382900301818387803b1580156111d457600080fd5b505af11580156111e8573d6000803e3d6000fd5b505050505b60008054604080517f1896f70a00000000000000000000000000000000000000000000000000000000815260048101879052602481018490529051600160a060020a0390921692631896f70a9260448084019382900301818387803b15801561125557600080fd5b505af1158015611269573d6000803e3d6000fd5b505060008054604080517f5b0fc9c300000000000000000000000000000000000000000000000000000000815260048101899052602481018490529051600160a060020a039092169450635b0fc9c39350604480820193929182900301818387803b1580156112d757600080fd5b505af11580156112eb573d6000803e3d6000fd5b50506040518692508591507f49a4cd9bb38e10e402c44a680c5e13f710666ed683cb9cbbc131f7dc9f8b9d6090600090a350505050565b600060001961132f6107ad565b14905090565b60015481565b7ff86bc2abe0919ab91ef714b2bec7c148d94f61fdb069b91a6cfe9ecdee1799ba81565b4390565b600061136e83611934565b60008054604080517f02571be30000000000000000000000000000000000000000000000000000000081526004810185905290519394509192600160a060020a03909116916302571be391602480830192602092919082900301818787803b1580156113d957600080fd5b505af11580156113ed573d6000803e3d6000fd5b505050506040513d602081101561140357600080fd5b505160408051808201909152601281527f454e535355425f4e414d455f4558495354530000000000000000000000000000602082015291600160a060020a03909116146114955760405160e560020a62461bcd0281526004018080602001828103825283818151815260200191508051906020019080838360008381101561065757818101518382015260200161063f565b5060008054600154604080517f06ab5923000000000000000000000000000000000000000000000000000000008152600481019290925260248201879052600160a060020a03868116604484015290519216926306ab59239260648084019382900301818387803b15801561150957600080fd5b505af115801561151d573d6000803e3d6000fd5b50506040518592508391507f8f858576a6066f5ecb4d2f49d40fac9db317ff8d5f7610d58b616b657d7044cf90600090a392915050565b600061157f7ffdd5d5de6dd63db72bbc2d487944ba13bf775b50a80805fe6fcaba9b0fba88f56119bf565b60008054604080517f1896f70a00000000000000000000000000000000000000000000000000000000815260048101889052600160a060020a0380861660248301529151949550911692631896f70a9260448084019391929182900301818387803b1580156115ed57600080fd5b505af1158015611601573d6000803e3d6000fd5b5050604080517fd5fa2b0000000000000000000000000000000000000000000000000000000000815260048101879052600160a060020a0386811660248301529151918516935063d5fa2b00925060448082019260009290919082900301818387803b15801561167057600080fd5b505af1158015611684573d6000803e3d6000fd5b50505050505050565b5490565b5490565b600080600160a060020a03831615156116b157600091506116bc565b823b90506000811191505b50919050565b60408051600160a060020a0383166024808301919091528251808303909101815260449091019091526020810180517bffffffffffffffffffffffffffffffffffffffffffffffffffffffff167f70a082310000000000000000000000000000000000000000000000000000000017905260009081806117428684611aea565b60408051808201909152601c81527f534146455f4552435f32305f42414c414e43455f524556455254454400000000602082015291935091508215156117cd5760405160e560020a62461bcd0281526004018080602001828103825283818151815260200191508051906020019080838360008381101561065757818101518382015260200161063f565b5095945050505050565b60408051600160a060020a038416602482015260448082018490528251808303909101815260649091019091526020810180517bffffffffffffffffffffffffffffffffffffffffffffffffffffffff167fa9059cbb000000000000000000000000000000000000000000000000000000001790526000906118598582611b1b565b95945050505050565b8051602002815290565b6118746107ad565b60408051808201909152601881527f494e49545f414c52454144595f494e495449414c495a45440000000000000000602082015290156118f95760405160e560020a62461bcd0281526004018080602001828103825283818151815260200191508051906020019080838360008381101561065757818101518382015260200161063f565b5061193261190561135f565b7febb05b386a8d34882b8711d156f463690983dc47815980fb82aeeff1aa43579e9063ffffffff611b6916565b565b6001546040805160208082019390935280820184905281518082038301815260609091019182905280516000939192918291908401908083835b6020831061198d5780518252601f19909201916020918201910161196e565b5181516020939093036101000a6000190180199091169216919091179052604051920182900390912095945050505050565b60008054604080517f0178b8bf0000000000000000000000000000000000000000000000000000000081526004810185905290518392600160a060020a031691630178b8bf91602480830192602092919082900301818787803b158015611a2557600080fd5b505af1158015611a39573d6000803e3d6000fd5b505050506040513d6020811015611a4f57600080fd5b5051604080517f3b3b57de000000000000000000000000000000000000000000000000000000008152600481018690529051919250600160a060020a03831691633b3b57de916024808201926020929091908290030181600087803b158015611ab757600080fd5b505af1158015611acb573d6000803e3d6000fd5b505050506040513d6020811015611ae157600080fd5b50519392505050565b6000806000806040516020818751602089018a5afa92506000831115611b0f57805191505b50909590945092505050565b6000806040516020818551602087016000895af16000811115611b5f573d8015611b4c5760208114611b5557611b5d565b60019350611b5d565b600183511493505b505b5090949350505050565b905556004150505f415554485f4641494c45440000000000000000000000000000000000a165627a7a723058202e17e3a5101ba26e37ab48b2c3b2777e3c17e868eb25c4d63724098c71c799d30029ebb05b386a8d34882b8711d156f463690983dc47815980fb82aeeff1aa43579e",
    "linkReferences": {}
  },
  "methodIdentifiers": {
    "CREATE_NAME_ROLE()": "fef47e38",
    "DELETE_NAME_ROLE()": "bdbf7d4c",
    "POINT_ROOTNODE_ROLE()": "307482cf",
    "allowRecoverability(address)": "7e7db6e1",
    "appId()": "80afdea8",
    "canPerform(address,bytes32,uint256[])": "a1658fad",
    "createName(bytes32,address)": "6b62cb1b",
    "createNameAndPoint(bytes32,address)": "65b0bc85",
    "deleteName(bytes32)": "dc371e54",
    "ens()": "3f15457f",
    "getEVMScriptExecutor(bytes)": "2914b9bd",
    "getEVMScriptRegistry()": "a479e508",
    "getInitializationBlock()": "8b3dd749",
    "getRecoveryVault()": "32f0a3b5",
    "hasInitialized()": "0803fac0",
    "initialize(address,bytes32)": "be13f47c",
    "isPetrified()": "de4796ed",
    "kernel()": "d4aae0c4",
    "pointRootNode(address)": "db606931",
    "rootNode()": "faff50a8",
    "transferToVault(address)": "9d4941d8"
  },
  "storageLayout": {
    "storage": [],
    "types": {}
  },
  "id": 78
}