{
  "_format": "hh-sol-artifact-1",
  "contractName": "AppProxyUpgradeable",
  "sourceName": "@aragon/os/contracts/apps/AppProxyUpgradeable.sol",
  "abi": [
    {
      "constant": true,
      "inputs": [],
      "name": "proxyType",
      "outputs": [
        {
          "name": "proxyTypeId",
          "type": "uint256"
        }
      ],
      "payable": false,
      "stateMutability": "pure",
      "type": "function"
    },
    {
      "constant": true,
      "inputs": [],
      "name": "isDepositable",
      "outputs": [
        {
          "name": "",
          "type": "bool"
        }
      ],
      "payable": false,
      "stateMutability": "view",
      "type": "function"
    },
    {
      "constant": true,
      "inputs": [],
      "name": "implementation",
      "outputs": [
        {
          "name": "",
          "type": "address"
        }
      ],
      "payable": false,
      "stateMutability": "view",
      "type": "function"
    },
    {
      "constant": true,
      "inputs": [],
      "name": "appId",
      "outputs": [
        {
          "name": "",
          "type": "bytes32"
        }
      ],
      "payable": false,
      "stateMutability": "view",
      "type": "function"
    },
    {
      "constant": true,
      "inputs": [],
      "name": "kernel",
      "outputs": [
        {
          "name": "",
          "type": "address"
        }
      ],
      "payable": false,
      "stateMutability": "view",
      "type": "function"
    },
    {
      "inputs": [
        {
          "name": "_kernel",
          "type": "address"
        },
        {
          "name": "_appId",
          "type": "bytes32"
        },
        {
          "name": "_initializePayload",
          "type": "bytes"
        }
      ],
      "payable": false,
      "stateMutability": "nonpayable",
      "type": "constructor"
    },
    {
      "payable": true,
      "stateMutability": "payable",
      "type": "fallback"
    },
    {
      "anonymous": false,
      "inputs": [
        {
          "indexed": false,
          "name": "sender",
          "type": "address"
        },
        {
          "indexed": false,
          "name": "value",
          "type": "uint256"
        }
      ],
      "name": "ProxyDeposit",
      "type": "event"
    }
  ],
  "bytecode": "0x608060405234801561001057600080fd5b506040516106cb3803806106cb83398101604090815281516020808401519284015191939190910190839083908390600090610051908590610121811b901c565b6100608361014760201b60201c565b61006f8361017c60201b60201c565b90506000825111156101155761008a8161024960201b60201c565b151561009557600080fd5b80600160a060020a03168260405180828051906020019080838360005b838110156100ca5781810151838201526020016100b2565b50505050905090810190601f1680156100f75780820380516001836020036101000a031916815260200191505b50915050600060405180830381855af4915050151561011557600080fd5b505050505050506102ad565b6101446000805160206106ab83398151915282610276602090811b6103bb17901c565b50565b6101447fd625496217aa6a3453eecb9c3489dc5a53e6c67b444329ea2b2cbc9ff547639b82610276602090811b6103bb17901c565b600061018c61027a60201b60201c565b604080517fbe00bbd80000000000000000000000000000000000000000000000000000000081527ff1f3eb40f5bc1ad1344716ced8b8a0431d840b5783aea1fd01786bc26f35ac0f6004820152602481018590529051600160a060020a03929092169163be00bbd8916044808201926020929091908290030181600087803b15801561021757600080fd5b505af115801561022b573d6000803e3d6000fd5b505050506040513d602081101561024157600080fd5b505192915050565b600080600160a060020a03831615156102655760009150610270565b823b90506000811191505b50919050565b9055565b60006102a46000805160206106ab83398151915260001b600019166102a960201b6103b31760201c565b905090565b5490565b6103ef806102bc6000396000f3006080604052600436106100505760003560e01c63ffffffff1680634555d5c91461010f57806348a0c8dd146101365780635c60da1b1461015f57806380afdea81461019d578063d4aae0c4146101b2575b6127107f665fd576fbbe6f247aff98f5c94a561e3f71ec2d3c988d56f12d342396c50cea6000825a10156100c55760003411361583541616156100c0576040513381523460208201527f15eeaa57c7bd188c1388020bcadc2c436ec60d647d36ef5b9eb3c742217ddee1604082a1005b600080fd5b6100cd6101c7565b905061010a816000368080601f016020809104026020016040519081016040528093929190818152602001838380828437506101de945050505050565b505050005b34801561011b57600080fd5b5061012461021f565b60408051918252519081900360200190f35b34801561014257600080fd5b5061014b610224565b604080519115158252519081900360200190f35b34801561016b57600080fd5b506101746101c7565b6040805173ffffffffffffffffffffffffffffffffffffffff9092168252519081900360200190f35b3480156101a957600080fd5b5061012461024f565b3480156101be57600080fd5b5061017461027a565b60006101d96101d461024f565b6102a5565b905090565b60006101e983610379565b15156101f457600080fd5b612710905060008083516020850186855a03f43d604051816000823e82801561021b578282f35b8282fd5b600290565b60006101d97f665fd576fbbe6f247aff98f5c94a561e3f71ec2d3c988d56f12d342396c50cea6103b3565b60006101d97fd625496217aa6a3453eecb9c3489dc5a53e6c67b444329ea2b2cbc9ff547639b6103b3565b60006101d97f4172f0f7d2289153072b0a6ca36959e0cbe2efc3afe50fc81636caa96338137b6103b3565b60006102af61027a565b604080517fbe00bbd80000000000000000000000000000000000000000000000000000000081527ff1f3eb40f5bc1ad1344716ced8b8a0431d840b5783aea1fd01786bc26f35ac0f600482015260248101859052905173ffffffffffffffffffffffffffffffffffffffff929092169163be00bbd8916044808201926020929091908290030181600087803b15801561034757600080fd5b505af115801561035b573d6000803e3d6000fd5b505050506040513d602081101561037157600080fd5b505192915050565b60008073ffffffffffffffffffffffffffffffffffffffff831615156103a257600091506103ad565b823b90506000811191505b50919050565b5490565b5490565b9055565b90555600a165627a7a723058201f7172bafbfd668d51a2f5278c487bd0c3ae1b874a501ce6d1eb7aa8dbccb18600294172f0f7d2289153072b0a6ca36959e0cbe2efc3afe50fc81636caa96338137b",
  "linkReferences": {},
  "deployedLinkReferences": {}
}