{
  "_format": "hh-sol-artifact-1",
  "contractName": "Voting",
  "sourceName": "@aragon/apps-lido/apps/voting/contracts/Voting.sol",
  "abi": [
    {
      "constant": true,
      "inputs": [],
      "name": "hasInitialized",
      "outputs": [
        {
          "name": "",
          "type": "bool"
        }
      ],
      "payable": false,
      "stateMutability": "view",
      "type": "function"
    },
    {
      "constant": false,
      "inputs": [
        {
          "name": "_objectionPhaseTime",
          "type": "uint64"
        }
      ],
      "name": "unsafelyChangeObjectionPhaseTime",
      "outputs": [],
      "payable": false,
      "stateMutability": "nonpayable",
      "type": "function"
    },
    {
      "constant": false,
      "inputs": [
        {
          "name": "_token",
          "type": "address"
        },
        {
          "name": "_supportRequiredPct",
          "type": "uint64"
        },
        {
          "name": "_minAcceptQuorumPct",
          "type": "uint64"
        },
        {
          "name": "_voteTime",
          "type": "uint64"
        },
        {
          "name": "_objectionPhaseTime",
          "type": "uint64"
        }
      ],
      "name": "initialize",
      "outputs": [],
      "payable": false,
      "stateMutability": "nonpayable",
      "type": "function"
    },
    {
      "constant": true,
      "inputs": [],
      "name": "UNSAFELY_MODIFY_VOTE_TIME_ROLE",
      "outputs": [
        {
          "name": "",
          "type": "bytes32"
        }
      ],
      "payable": false,
      "stateMutability": "view",
      "type": "function"
    },
    {
      "constant": false,
      "inputs": [
        {
          "name": "_voteTime",
          "type": "uint64"
        }
      ],
      "name": "unsafelyChangeVoteTime",
      "outputs": [],
      "payable": false,
      "stateMutability": "nonpayable",
      "type": "function"
    },
    {
      "constant": true,
      "inputs": [
        {
          "name": "_script",
          "type": "bytes"
        }
      ],
      "name": "getEVMScriptExecutor",
      "outputs": [
        {
          "name": "",
          "type": "address"
        }
      ],
      "payable": false,
      "stateMutability": "view",
      "type": "function"
    },
    {
      "constant": true,
      "inputs": [],
      "name": "getRecoveryVault",
      "outputs": [
        {
          "name": "",
          "type": "address"
        }
      ],
      "payable": false,
      "stateMutability": "view",
      "type": "function"
    },
    {
      "constant": true,
      "inputs": [],
      "name": "MODIFY_QUORUM_ROLE",
      "outputs": [
        {
          "name": "",
          "type": "bytes32"
        }
      ],
      "payable": false,
      "stateMutability": "view",
      "type": "function"
    },
    {
      "constant": true,
      "inputs": [],
      "name": "objectionPhaseTime",
      "outputs": [
        {
          "name": "",
          "type": "uint64"
        }
      ],
      "payable": false,
      "stateMutability": "view",
      "type": "function"
    },
    {
      "constant": true,
      "inputs": [
        {
          "name": "_voteId",
          "type": "uint256"
        },
        {
          "name": "_voter",
          "type": "address"
        }
      ],
      "name": "getVoterState",
      "outputs": [
        {
          "name": "",
          "type": "uint8"
        }
      ],
      "payable": false,
      "stateMutability": "view",
      "type": "function"
    },
    {
      "constant": true,
      "inputs": [
        {
          "name": "_voteId",
          "type": "uint256"
        }
      ],
      "name": "getVote",
      "outputs": [
        {
          "name": "open",
          "type": "bool"
        },
        {
          "name": "executed",
          "type": "bool"
        },
        {
          "name": "startDate",
          "type": "uint64"
        },
        {
          "name": "snapshotBlock",
          "type": "uint64"
        },
        {
          "name": "supportRequired",
          "type": "uint64"
        },
        {
          "name": "minAcceptQuorum",
          "type": "uint64"
        },
        {
          "name": "yea",
          "type": "uint256"
        },
        {
          "name": "nay",
          "type": "uint256"
        },
        {
          "name": "votingPower",
          "type": "uint256"
        },
        {
          "name": "script",
          "type": "bytes"
        },
        {
          "name": "phase",
          "type": "uint8"
        }
      ],
      "payable": false,
      "stateMutability": "view",
      "type": "function"
    },
    {
      "constant": false,
      "inputs": [
        {
          "name": "_minAcceptQuorumPct",
          "type": "uint64"
        }
      ],
      "name": "changeMinAcceptQuorumPct",
      "outputs": [],
      "payable": false,
      "stateMutability": "nonpayable",
      "type": "function"
    },
    {
      "constant": true,
      "inputs": [],
      "name": "MODIFY_SUPPORT_ROLE",
      "outputs": [
        {
          "name": "",
          "type": "bytes32"
        }
      ],
      "payable": false,
      "stateMutability": "view",
      "type": "function"
    },
    {
      "constant": false,
      "inputs": [
        {
          "name": "_supportRequiredPct",
          "type": "uint64"
        }
      ],
      "name": "changeSupportRequiredPct",
      "outputs": [],
      "payable": false,
      "stateMutability": "nonpayable",
      "type": "function"
    },
    {
      "constant": true,
      "inputs": [
        {
          "name": "token",
          "type": "address"
        }
      ],
      "name": "allowRecoverability",
      "outputs": [
        {
          "name": "",
          "type": "bool"
        }
      ],
      "payable": false,
      "stateMutability": "view",
      "type": "function"
    },
    {
      "constant": true,
      "inputs": [],
      "name": "appId",
      "outputs": [
        {
          "name": "",
          "type": "bytes32"
        }
      ],
      "payable": false,
      "stateMutability": "view",
      "type": "function"
    },
    {
      "constant": true,
      "inputs": [],
      "name": "getInitializationBlock",
      "outputs": [
        {
          "name": "",
          "type": "uint256"
        }
      ],
      "payable": false,
      "stateMutability": "view",
      "type": "function"
    },
    {
      "constant": false,
      "inputs": [
        {
          "name": "_token",
          "type": "address"
        }
      ],
      "name": "transferToVault",
      "outputs": [],
      "payable": false,
      "stateMutability": "nonpayable",
      "type": "function"
    },
    {
      "constant": true,
      "inputs": [
        {
          "name": "_sender",
          "type": "address"
        },
        {
          "name": "_role",
          "type": "bytes32"
        },
        {
          "name": "_params",
          "type": "uint256[]"
        }
      ],
      "name": "canPerform",
      "outputs": [
        {
          "name": "",
          "type": "bool"
        }
      ],
      "payable": false,
      "stateMutability": "view",
      "type": "function"
    },
    {
      "constant": true,
      "inputs": [],
      "name": "getEVMScriptRegistry",
      "outputs": [
        {
          "name": "",
          "type": "address"
        }
      ],
      "payable": false,
      "stateMutability": "view",
      "type": "function"
    },
    {
      "constant": true,
      "inputs": [],
      "name": "voteTime",
      "outputs": [
        {
          "name": "",
          "type": "uint64"
        }
      ],
      "payable": false,
      "stateMutability": "view",
      "type": "function"
    },
    {
      "constant": true,
      "inputs": [],
      "name": "CREATE_VOTES_ROLE",
      "outputs": [
        {
          "name": "",
          "type": "bytes32"
        }
      ],
      "payable": false,
      "stateMutability": "view",
      "type": "function"
    },
    {
      "constant": true,
      "inputs": [
        {
          "name": "_sender",
          "type": "address"
        },
        {
          "name": "",
          "type": "bytes"
        }
      ],
      "name": "canForward",
      "outputs": [
        {
          "name": "",
          "type": "bool"
        }
      ],
      "payable": false,
      "stateMutability": "view",
      "type": "function"
    },
    {
      "constant": true,
      "inputs": [
        {
          "name": "_voteId",
          "type": "uint256"
        }
      ],
      "name": "canExecute",
      "outputs": [
        {
          "name": "",
          "type": "bool"
        }
      ],
      "payable": false,
      "stateMutability": "view",
      "type": "function"
    },
    {
      "constant": true,
      "inputs": [
        {
          "name": "_voteId",
          "type": "uint256"
        },
        {
          "name": "_voter",
          "type": "address"
        }
      ],
      "name": "canVote",
      "outputs": [
        {
          "name": "",
          "type": "bool"
        }
      ],
      "payable": false,
      "stateMutability": "view",
      "type": "function"
    },
    {
      "constant": true,
      "inputs": [],
      "name": "kernel",
      "outputs": [
        {
          "name": "",
          "type": "address"
        }
      ],
      "payable": false,
      "stateMutability": "view",
      "type": "function"
    },
    {
      "constant": false,
      "inputs": [
        {
          "name": "_executionScript",
          "type": "bytes"
        },
        {
          "name": "_metadata",
          "type": "string"
        }
      ],
      "name": "newVote",
      "outputs": [
        {
          "name": "voteId",
          "type": "uint256"
        }
      ],
      "payable": false,
      "stateMutability": "nonpayable",
      "type": "function"
    },
    {
      "constant": false,
      "inputs": [
        {
          "name": "_evmScript",
          "type": "bytes"
        }
      ],
      "name": "forward",
      "outputs": [],
      "payable": false,
      "stateMutability": "nonpayable",
      "type": "function"
    },
    {
      "constant": true,
      "inputs": [],
      "name": "minAcceptQuorumPct",
      "outputs": [
        {
          "name": "",
          "type": "uint64"
        }
      ],
      "payable": false,
      "stateMutability": "view",
      "type": "function"
    },
    {
      "constant": true,
      "inputs": [],
      "name": "isPetrified",
      "outputs": [
        {
          "name": "",
          "type": "bool"
        }
      ],
      "payable": false,
      "stateMutability": "view",
      "type": "function"
    },
    {
      "constant": true,
      "inputs": [],
      "name": "votesLength",
      "outputs": [
        {
          "name": "",
          "type": "uint256"
        }
      ],
      "payable": false,
      "stateMutability": "view",
      "type": "function"
    },
    {
      "constant": false,
      "inputs": [
        {
          "name": "_voteId",
          "type": "uint256"
        },
        {
          "name": "_supports",
          "type": "bool"
        },
        {
          "name": "_executesIfDecided_deprecated",
          "type": "bool"
        }
      ],
      "name": "vote",
      "outputs": [],
      "payable": false,
      "stateMutability": "nonpayable",
      "type": "function"
    },
    {
      "constant": false,
      "inputs": [
        {
          "name": "_executionScript",
          "type": "bytes"
        },
        {
          "name": "_metadata",
          "type": "string"
        },
        {
          "name": "_castVote",
          "type": "bool"
        },
        {
          "name": "_executesIfDecided_deprecated",
          "type": "bool"
        }
      ],
      "name": "newVote",
      "outputs": [
        {
          "name": "voteId",
          "type": "uint256"
        }
      ],
      "payable": false,
      "stateMutability": "nonpayable",
      "type": "function"
    },
    {
      "constant": true,
      "inputs": [
        {
          "name": "_voteId",
          "type": "uint256"
        }
      ],
      "name": "getVotePhase",
      "outputs": [
        {
          "name": "",
          "type": "uint8"
        }
      ],
      "payable": false,
      "stateMutability": "view",
      "type": "function"
    },
    {
      "constant": false,
      "inputs": [
        {
          "name": "_voteId",
          "type": "uint256"
        }
      ],
      "name": "executeVote",
      "outputs": [],
      "payable": false,
      "stateMutability": "nonpayable",
      "type": "function"
    },
    {
      "constant": true,
      "inputs": [],
      "name": "supportRequiredPct",
      "outputs": [
        {
          "name": "",
          "type": "uint64"
        }
      ],
      "payable": false,
      "stateMutability": "view",
      "type": "function"
    },
    {
      "constant": true,
      "inputs": [],
      "name": "token",
      "outputs": [
        {
          "name": "",
          "type": "address"
        }
      ],
      "payable": false,
      "stateMutability": "view",
      "type": "function"
    },
    {
      "constant": true,
      "inputs": [],
      "name": "PCT_BASE",
      "outputs": [
        {
          "name": "",
          "type": "uint64"
        }
      ],
      "payable": false,
      "stateMutability": "view",
      "type": "function"
    },
    {
      "constant": true,
      "inputs": [],
      "name": "isForwarder",
      "outputs": [
        {
          "name": "",
          "type": "bool"
        }
      ],
      "payable": false,
      "stateMutability": "pure",
      "type": "function"
    },
    {
      "anonymous": false,
      "inputs": [
        {
          "indexed": true,
          "name": "voteId",
          "type": "uint256"
        },
        {
          "indexed": true,
          "name": "creator",
          "type": "address"
        },
        {
          "indexed": false,
          "name": "metadata",
          "type": "string"
        }
      ],
      "name": "StartVote",
      "type": "event"
    },
    {
      "anonymous": false,
      "inputs": [
        {
          "indexed": true,
          "name": "voteId",
          "type": "uint256"
        },
        {
          "indexed": true,
          "name": "voter",
          "type": "address"
        },
        {
          "indexed": false,
          "name": "supports",
          "type": "bool"
        },
        {
          "indexed": false,
          "name": "stake",
          "type": "uint256"
        }
      ],
      "name": "CastVote",
      "type": "event"
    },
    {
      "anonymous": false,
      "inputs": [
        {
          "indexed": true,
          "name": "voteId",
          "type": "uint256"
        },
        {
          "indexed": true,
          "name": "voter",
          "type": "address"
        },
        {
          "indexed": false,
          "name": "stake",
          "type": "uint256"
        }
      ],
      "name": "CastObjection",
      "type": "event"
    },
    {
      "anonymous": false,
      "inputs": [
        {
          "indexed": true,
          "name": "voteId",
          "type": "uint256"
        }
      ],
      "name": "ExecuteVote",
      "type": "event"
    },
    {
      "anonymous": false,
      "inputs": [
        {
          "indexed": false,
          "name": "supportRequiredPct",
          "type": "uint64"
        }
      ],
      "name": "ChangeSupportRequired",
      "type": "event"
    },
    {
      "anonymous": false,
      "inputs": [
        {
          "indexed": false,
          "name": "minAcceptQuorumPct",
          "type": "uint64"
        }
      ],
      "name": "ChangeMinQuorum",
      "type": "event"
    },
    {
      "anonymous": false,
      "inputs": [
        {
          "indexed": false,
          "name": "voteTime",
          "type": "uint64"
        }
      ],
      "name": "ChangeVoteTime",
      "type": "event"
    },
    {
      "anonymous": false,
      "inputs": [
        {
          "indexed": false,
          "name": "objectionPhaseTime",
          "type": "uint64"
        }
      ],
      "name": "ChangeObjectionPhaseTime",
      "type": "event"
    },
    {
      "anonymous": false,
      "inputs": [
        {
          "indexed": true,
          "name": "executor",
          "type": "address"
        },
        {
          "indexed": false,
          "name": "script",
          "type": "bytes"
        },
        {
          "indexed": false,
          "name": "input",
          "type": "bytes"
        },
        {
          "indexed": false,
          "name": "returnData",
          "type": "bytes"
        }
      ],
      "name": "ScriptResult",
      "type": "event"
    },
    {
      "anonymous": false,
      "inputs": [
        {
          "indexed": true,
          "name": "vault",
          "type": "address"
        },
        {
          "indexed": true,
          "name": "token",
          "type": "address"
        },
        {
          "indexed": false,
          "name": "amount",
          "type": "uint256"
        }
      ],
      "name": "RecoverToVault",
      "type": "event"
    }
  ],
  "bytecode": "0x6080604052620000146200001a60201b60201c565b62000231565b6200002a6200011c60201b60201c565b60408051808201909152601881527f494e49545f414c52454144595f494e495449414c495a454400000000000000006020820152901562000106576040517f08c379a00000000000000000000000000000000000000000000000000000000081526004018080602001828103825283818151815260200191508051906020019080838360005b83811015620000ca578181015183820152602001620000b0565b50505050905090810190601f168015620000f85780820380516001836020036101000a031916815260200191505b509250505060405180910390fd5b506200011a6000196200014f60201b60201c565b565b60006200014a6000805160206200400483398151915260001b600019166200022960201b620027a61760201c565b905090565b6200015f6200011c60201b60201c565b60408051808201909152601881527f494e49545f414c52454144595f494e495449414c495a4544000000000000000060208201529015620001fe576040517f08c379a000000000000000000000000000000000000000000000000000000000815260040180806020018281038252838181518152602001915080519060200190808383600083811015620000ca578181015183820152602001620000b0565b506200022660008051602062004004833981519152826200022d602090811b6200312617901c565b50565b5490565b9055565b613dc380620002416000396000f3006080604052600436106101c65760003560e01c63ffffffff1680630803fac0146101cb5780631351c2f5146101f457806313e094531461021857806321ab25ed1461025857806324b2c7c41461027f5780632914b9bd146102a157806332f0a3b5146103165780633c624c751461032b5780633fe1614e146103405780634b12311c146103725780635a55c1f0146103ba5780635eb24332146104bc57806362de7e5a146104de5780637c1d0b87146104f35780637e7db6e11461051557806380afdea8146105365780638b3dd7491461054b5780639d4941d814610560578063a1658fad14610581578063a479e508146105e8578063bcf93dd6146105fd578063be2c64d414610612578063c0774df314610627578063cc63604a1461068e578063cdb2867b146106a6578063d4aae0c4146106ca578063d5db2c80146106df578063d948d4681461070b578063dc474b1a14610764578063de4796ed14610779578063de4f63471461078e578063df133bca146107a3578063f4b00513146107c5578063f5edb03a146107fb578063f98a4eca14610813578063fad167ab1461082b578063fc0c546a14610840578063fc157cb414610855578063fd64eccb1461086a575b600080fd5b3480156101d757600080fd5b506101e061087f565b604080519115158252519081900360200190f35b34801561020057600080fd5b5061021667ffffffffffffffff600435166108a9565b005b34801561022457600080fd5b50610216600160a060020a036004351667ffffffffffffffff60243581169060443581169060643581169060843516610aa3565b34801561026457600080fd5b5061026d610db0565b60408051918252519081900360200190f35b34801561028b57600080fd5b5061021667ffffffffffffffff60043516610de5565b3480156102ad57600080fd5b506040805160206004803580820135601f81018490048402850184019095528484526102fa943694929360249392840191908190840183828082843750949750610fac9650505050505050565b60408051600160a060020a039092168252519081900360200190f35b34801561032257600080fd5b506102fa61108f565b34801561033757600080fd5b5061026d611105565b34801561034c57600080fd5b5061035561113a565b6040805167ffffffffffffffff9092168252519081900360200190f35b34801561037e57600080fd5b50610396600435600160a060020a036024351661114a565b604051808260028111156103a657fe5b60ff16815260200191505060405180910390f35b3480156103c657600080fd5b506103d26004356111fa565b604080518c151581528b1515602082015267ffffffffffffffff808c16928201929092528982166060820152888216608082015290871660a082015260c0810186905260e0810185905261010081018490526101208101610140820183600281111561043a57fe5b60ff168152602001828103825284818151815260200191508051906020019080838360005b8381101561047757818101518382015260200161045f565b50505050905090810190601f1680156104a45780820380516001836020036101000a031916815260200191505b509c5050505050505050505050505060405180910390f35b3480156104c857600080fd5b5061021667ffffffffffffffff600435166113f5565b3480156104ea57600080fd5b5061026d6115b9565b3480156104ff57600080fd5b5061021667ffffffffffffffff600435166115ee565b34801561052157600080fd5b506101e0600160a060020a0360043516611867565b34801561054257600080fd5b5061026d61186d565b34801561055757600080fd5b5061026d61189d565b34801561056c57600080fd5b50610216600160a060020a03600435166118c8565b34801561058d57600080fd5b5060408051602060046044358181013583810280860185019096528085526101e0958335600160a060020a0316956024803596369695606495939492019291829185019084908082843750949750611b579650505050505050565b3480156105f457600080fd5b506102fa611ca4565b34801561060957600080fd5b50610355611d59565b34801561061e57600080fd5b5061026d611d75565b34801561063357600080fd5b5060408051602060046024803582810135601f81018590048502860185019096528585526101e0958335600160a060020a0316953695604494919390910191908190840183828082843750949750611d989650505050505050565b34801561069a57600080fd5b506101e0600435611dd6565b3480156106b257600080fd5b506101e0600435600160a060020a0360243516611e65565b3480156106d657600080fd5b506102fa611ef4565b3480156106eb57600080fd5b5061026d6024600480358281019290820135918135918201910135611f1f565b34801561071757600080fd5b506040805160206004803580820135601f81018490048402850184019095528484526102169436949293602493928401919081908401838280828437509497506120439650505050505050565b34801561077057600080fd5b506103556120f4565b34801561078557600080fd5b506101e0612104565b34801561079a57600080fd5b5061026d612117565b3480156107af57600080fd5b506102166004356024351515604435151561211d565b3480156107d157600080fd5b5061026d6024600480358281019290820135918135918201910135604435151560643515156122eb565b34801561080757600080fd5b50610396600435612410565b34801561081f57600080fd5b506102166004356124a4565b34801561083757600080fd5b50610355612526565b34801561084c57600080fd5b506102fa61253d565b34801561086157600080fd5b5061035561254c565b34801561087657600080fd5b506101e0612558565b60008061088a61189d565b905080158015906108a257508061089f61255d565b10155b91505b5090565b604080517f554e534146454c595f4d4f444946595f564f54455f54494d455f524f4c4500008152815190819003601e018120600080835260208301909352916108f89133918491905b50611b57565b60408051808201909152600f8152600080516020613d3883398151915260208201529015156109a85760405160e560020a62461bcd0281526004018080602001828103825283818151815260200191508051906020019080838360005b8381101561096d578181015183820152602001610955565b50505050905090810190601f16801561099a5780820380516001836020036101000a031916815260200191505b509250505060405180910390fd5b5060015460408051808201909152601781527f564f54494e475f4f424a5f54494d455f544f4f5f42494700000000000000000060208201529067ffffffffffffffff808516680100000000000000009092041611610a4b5760405160e560020a62461bcd0281526004018080602001828103825283818151815260200191508051906020019080838360008381101561096d578181015183820152602001610955565b506004805467ffffffffffffffff841667ffffffffffffffff19909116811790915560408051918252517ff2eb32f215d9f6d0f4ace97038141d2574af9f8c3bb509239254ace3d9c270009181900360200190a15050565b610aab61189d565b60408051808201909152601881527f494e49545f414c52454144595f494e495449414c495a4544000000000000000060208201529015610b305760405160e560020a62461bcd0281526004018080602001828103825283818151815260200191508051906020019080838360008381101561096d578181015183820152602001610955565b50610b39612561565b60408051808201909152601081527f564f54494e475f494e49545f5043545300000000000000000000000000000000602082015267ffffffffffffffff8086169085161115610bcd5760405160e560020a62461bcd0281526004018080602001828103825283818151815260200191508051906020019080838360008381101561096d578181015183820152602001610955565b5060408051808201909152601b81527f564f54494e475f494e49545f535550504f52545f544f4f5f42494700000000006020820152670de0b6b3a764000067ffffffffffffffff861610610c665760405160e560020a62461bcd0281526004018080602001828103825283818151815260200191508051906020019080838360008381101561096d578181015183820152602001610955565b5060408051808201909152601c81527f564f54494e475f494e49545f4f424a5f54494d455f544f4f5f42494700000000602082015267ffffffffffffffff80831690841611610cfa5760405160e560020a62461bcd0281526004018080602001828103825283818151815260200191508051906020019080838360008381101561096d578181015183820152602001610955565b506000805473ffffffffffffffffffffffffffffffffffffffff1916600160a060020a0396909616959095177bffffffffffffffff0000000000000000000000000000000000000000191660a060020a67ffffffffffffffff95861602179094556001805467ffffffffffffffff19908116938516939093176fffffffffffffffff0000000000000000191668010000000000000000928516929092029190911790556004805490911692909116919091179055565b604080517f554e534146454c595f4d4f444946595f564f54455f54494d455f524f4c4500008152905190819003601e01902081565b604080517f554e534146454c595f4d4f444946595f564f54455f54494d455f524f4c4500008152815190819003601e01812060008083526020830190935291610e329133918491906108f2565b60408051808201909152600f8152600080516020613d388339815191526020820152901515610ea65760405160e560020a62461bcd0281526004018080602001828103825283818151815260200191508051906020019080838360008381101561096d578181015183820152602001610955565b5060045460408051808201909152601a81527f564f54494e475f564f54455f54494d455f544f4f5f534d414c4c00000000000060208201529067ffffffffffffffff90811690841611610f3e5760405160e560020a62461bcd0281526004018080602001828103825283818151815260200191508051906020019080838360008381101561096d578181015183820152602001610955565b506001805467ffffffffffffffff84166801000000000000000081026fffffffffffffffff0000000000000000199092169190911790915560408051918252517f776dcd10c15e7a1bd4fbb6c824d2a80fa8a40a3a6b401fddc678696b7fb06abe9181900360200190a15050565b6000610fb6611ca4565b600160a060020a03166304bf2a7f836040518263ffffffff1660e01b81526004018080602001828103825283818151815260200191508051906020019080838360005b83811015611011578181015183820152602001610ff9565b50505050905090810190601f16801561103e5780820380516001836020036101000a031916815260200191505b5092505050602060405180830381600087803b15801561105d57600080fd5b505af1158015611071573d6000803e3d6000fd5b505050506040513d602081101561108757600080fd5b505192915050565b6000611099611ef4565b600160a060020a03166332f0a3b56040518163ffffffff1660e01b8152600401602060405180830381600087803b1580156110d357600080fd5b505af11580156110e7573d6000803e3d6000fd5b505050506040513d60208110156110fd57600080fd5b505190505b90565b604080517f4d4f444946595f51554f52554d5f524f4c4500000000000000000000000000008152905190819003601201902081565b60045467ffffffffffffffff1681565b60035460408051808201909152600e8152600080516020613d58833981519152602082015260009184919082106111c65760405160e560020a62461bcd0281526004018080602001828103825283818151815260200191508051906020019080838360008381101561096d578181015183820152602001610955565b506000848152600260209081526040808320600160a060020a038716845260060190915290205460ff1691505b5092915050565b600080600080600080600080600060606000808c60035481106040805190810160405280600e8152602001600080516020613d588339815191528152509015156112895760405160e560020a62461bcd0281526004018080602001828103825283818151815260200191508051906020019080838360008381101561096d578181015183820152602001610955565b5060008e815260026020526040902091506112a382612629565b9c508160000160009054906101000a900460ff169b508160000160019054906101000a900467ffffffffffffffff169a508160000160099054906101000a900467ffffffffffffffff1699508160000160119054906101000a900467ffffffffffffffff1698508160010160009054906101000a900467ffffffffffffffff169750816002015496508160030154955081600401549450816005018054600181600116156101000203166002900480601f0160208091040260200160405190810160405280929190818152602001828054600181600116156101000203166002900480156113d25780601f106113a7576101008083540402835291602001916113d2565b820191906000526020600020905b8154815290600101906020018083116113b557829003601f168201915b505050505093506113e282612690565b9250505091939597999b90929496989a50565b604080517f4d4f444946595f51554f52554d5f524f4c450000000000000000000000000000815290519081900360120190206001546114419067ffffffffffffffff808516911661274b565b61144c338383611b57565b60408051808201909152600f8152600080516020613d3883398151915260208201529015156114c05760405160e560020a62461bcd0281526004018080602001828103825283818151815260200191508051906020019080838360008381101561096d578181015183820152602001610955565b5060005460408051808201909152601981527f564f54494e475f4348414e47455f51554f52554d5f504354530000000000000060208201529067ffffffffffffffff60a060020a909104811690851611156115605760405160e560020a62461bcd0281526004018080602001828103825283818151815260200191508051906020019080838360008381101561096d578181015183820152602001610955565b506001805467ffffffffffffffff851667ffffffffffffffff19909116811790915560408051918252517f3172f2e9273c729c2a47cc8bf7e7f18506e3e3035126d562602bd2155bc78a509181900360200190a1505050565b604080517f4d4f444946595f535550504f52545f524f4c45000000000000000000000000008152905190819003601301902081565b604080517f4d4f444946595f535550504f52545f524f4c4500000000000000000000000000815290519081900360130190206000546116419067ffffffffffffffff8085169160a060020a90041661274b565b61164c338383611b57565b60408051808201909152600f8152600080516020613d3883398151915260208201529015156116c05760405160e560020a62461bcd0281526004018080602001828103825283818151815260200191508051906020019080838360008381101561096d578181015183820152602001610955565b5060015460408051808201909152601a81527f564f54494e475f4348414e47455f535550504f52545f5043545300000000000060208201529067ffffffffffffffff808616911611156117585760405160e560020a62461bcd0281526004018080602001828103825283818151815260200191508051906020019080838360008381101561096d578181015183820152602001610955565b5060408051808201909152601a81527f564f54494e475f4348414e47455f535550505f544f4f5f4249470000000000006020820152670de0b6b3a764000067ffffffffffffffff8516106117f15760405160e560020a62461bcd0281526004018080602001828103825283818151815260200191508051906020019080838360008381101561096d578181015183820152602001610955565b506000805467ffffffffffffffff851660a060020a81027bffffffffffffffff0000000000000000000000000000000000000000199092169190911790915560408051918252517f903b617f7f36eb047a29b89d1bf7885fdae31d250c3320fccf11d045c11b396e9181900360200190a1505050565b50600190565b60006118987fd625496217aa6a3453eecb9c3489dc5a53e6c67b444329ea2b2cbc9ff547639b6127a6565b905090565b60006118987febb05b386a8d34882b8711d156f463690983dc47815980fb82aeeff1aa43579e6127a6565b60008060006118d684611867565b60408051808201909152601281527f5245434f5645525f444953414c4c4f5745440000000000000000000000000000602082015290151561195c5760405160e560020a62461bcd0281526004018080602001828103825283818151815260200191508051906020019080838360008381101561096d578181015183820152602001610955565b5061196561108f565b9250611970836127ae565b60408051808201909152601a81527f5245434f5645525f5641554c545f4e4f545f434f4e545241435400000000000060208201529015156119f65760405160e560020a62461bcd0281526004018080602001828103825283818151815260200191508051906020019080838360008381101561096d578181015183820152602001610955565b50600160a060020a0384161515611a475760405130319250600160a060020a0384169083156108fc029084906000818181858888f19350505050158015611a41573d6000803e3d6000fd5b50611b06565b5082611a62600160a060020a0382163063ffffffff6127d416565b9150611a7e600160a060020a038216848463ffffffff6128d416565b60408051808201909152601d81527f5245434f5645525f544f4b454e5f5452414e534645525f4641494c45440000006020820152901515611b045760405160e560020a62461bcd0281526004018080602001828103825283818151815260200191508051906020019080838360008381101561096d578181015183820152602001610955565b505b83600160a060020a031683600160a060020a03167f596caf56044b55fb8c4ca640089bbc2b63cae3e978b851f5745cbb7c5b288e02846040518082815260200191505060405180910390a350505050565b600080611b6261087f565b1515611b715760009150611c9c565b611b79611ef4565b9050600160a060020a0381161515611b945760009150611c9c565b80600160a060020a031663fdef9106863087611baf8861294a565b60405163ffffffff861660e01b8152600160a060020a03808616600483019081529085166024830152604482018490526080606483019081528351608484015283519192909160a490910190602085019080838360005b83811015611c1e578181015183820152602001611c06565b50505050905090810190601f168015611c4b5780820380516001836020036101000a031916815260200191505b5095505050505050602060405180830381600087803b158015611c6d57600080fd5b505af1158015611c81573d6000803e3d6000fd5b505050506040513d6020811015611c9757600080fd5b505191505b509392505050565b600080611caf611ef4565b604080517fbe00bbd80000000000000000000000000000000000000000000000000000000081527fd6f028ca0e8edb4a8c9757ca4fdccab25fa1e0317da1188108f7d2dee14902fb60048201527fddbcfd564f642ab5627cf68b9b7d374fb4f8a36e941a75d89c87998cef03bd6160248201529051600160a060020a03929092169163be00bbd8916044808201926020929091908290030181600087803b15801561105d57600080fd5b60015468010000000000000000900467ffffffffffffffff1681565b60408051600080516020613d788339815191528152905190819003601101902081565b6000611dcf836040518080600080516020613d7883398151915281525060110190506040518091039020611dca612954565b611b57565b9392505050565b60035460408051808201909152600e8152600080516020613d5883398151915260208201526000918391908210611e525760405160e560020a62461bcd0281526004018080602001828103825283818151815260200191508051906020019080838360008381101561096d578181015183820152602001610955565b50611e5c83612966565b91505b50919050565b60035460408051808201909152600e8152600080516020613d5883398151915260208201526000918491908210611ee15760405160e560020a62461bcd0281526004018080602001828103825283818151815260200191508051906020019080838360008381101561096d578181015183820152602001610955565b50611eec8484612a3b565b949350505050565b60006118987f4172f0f7d2289153072b0a6ca36959e0cbe2efc3afe50fc81636caa96338137b6127a6565b60408051600080516020613d788339815191528152815190819003601101812060008083526020830190935290611f5a9033908390856108f2565b60408051808201909152600f8152600080516020613d388339815191526020820152901515611fce5760405160e560020a62461bcd0281526004018080602001828103825283818151815260200191508051906020019080838360008381101561096d578181015183820152602001610955565b5061203986868080601f0160208091040260200160405190810160405280939291908181526020018383808284375050604080516020601f8c018190048102820181019092528a815294508a935089925082915084018382808284375060019450612b159350505050565b9695505050505050565b61204d3382611d98565b60408051808201909152601681527f564f54494e475f43414e5f4e4f545f464f52574152440000000000000000000060208201529015156120d35760405160e560020a62461bcd0281526004018080602001828103825283818151815260200191508051906020019080838360008381101561096d578181015183820152602001610955565b506120f08160206040519081016040528060008152506001612b15565b5050565b60015467ffffffffffffffff1681565b600060001961211161189d565b14905090565b60035481565b60035460408051808201909152600e8152600080516020613d588339815191526020820152849182106121955760405160e560020a62461bcd0281526004018080602001828103825283818151815260200191508051906020019080838360008381101561096d578181015183820152602001610955565b506121a08433612a3b565b60408051808201909152601381527f564f54494e475f43414e5f4e4f545f564f54450000000000000000000000000060208201529015156122265760405160e560020a62461bcd0281526004018080602001828103825283818151815260200191508051906020019080838360008381101561096d578181015183820152602001610955565b508215806122535750600084815260026020526040812061224690612690565b600281111561225157fe5b145b60408051808201909152601381527f564f54494e475f43414e5f4e4f545f564f54450000000000000000000000000060208201529015156122d95760405160e560020a62461bcd0281526004018080602001828103825283818151815260200191508051906020019080838360008381101561096d578181015183820152602001610955565b506122e5848433612e09565b50505050565b60408051600080516020613d7883398151915281528151908190036011018120600080835260208301909352906123269033908390856108f2565b60408051808201909152600f8152600080516020613d38833981519152602082015290151561239a5760405160e560020a62461bcd0281526004018080602001828103825283818151815260200191508051906020019080838360008381101561096d578181015183820152602001610955565b5061240488888080601f0160208091040260200160405190810160405280939291908181526020018383808284375050604080516020601f8e018190048102820181019092528c815294508c93508b92508291508401838280828437508b9450612b159350505050565b98975050505050505050565b60035460408051808201909152600e8152600080516020613d588339815191526020820152600091839190821061248c5760405160e560020a62461bcd0281526004018080602001828103825283818151815260200191508051906020019080838360008381101561096d578181015183820152602001610955565b506000838152600260205260409020611e5c90612690565b60035460408051808201909152600e8152600080516020613d5883398151915260208201528291821061251c5760405160e560020a62461bcd0281526004018080602001828103825283818151815260200191508051906020019080838360008381101561096d578181015183820152602001610955565b506120f08261308a565b60005460a060020a900467ffffffffffffffff1681565b600054600160a060020a031681565b670de0b6b3a764000081565b600190565b4390565b61256961189d565b60408051808201909152601881527f494e49545f414c52454144595f494e495449414c495a45440000000000000000602082015290156125ee5760405160e560020a62461bcd0281526004018080602001828103825283818151815260200191508051906020019080838360008381101561096d578181015183820152602001610955565b506126276125fa61255d565b7febb05b386a8d34882b8711d156f463690983dc47815980fb82aeeff1aa43579e9063ffffffff61312616565b565b600154815460009161265f91610100900467ffffffffffffffff908116916801000000000000000090041663ffffffff61312a16565b67ffffffffffffffff166126716131c5565b67ffffffffffffffff1610801561268a5750815460ff16155b92915050565b600080600061269d6131c5565b60015485549193506126d391610100900467ffffffffffffffff908116916801000000000000000090041663ffffffff61312a16565b6004549091506126f69067ffffffffffffffff808416911663ffffffff6131d716565b67ffffffffffffffff168267ffffffffffffffff16101561271a5760009250612744565b8067ffffffffffffffff168267ffffffffffffffff16101561273f5760019250612744565b600292505b5050919050565b60408051600280825260608083018452926020830190803883390190505090508281600081518110151561277b57fe5b60209081029091010152805182908290600190811061279657fe5b6020908102909101015292915050565b5490565b5490565b600080600160a060020a03831615156127ca5760009150611e5f565b50506000903b1190565b60408051600160a060020a038316602480830191909152825180830390910181526044909101909152602081018051600160e060020a03167f70a0823100000000000000000000000000000000000000000000000000000000179052600090818061283f8684613278565b60408051808201909152601c81527f534146455f4552435f32305f42414c414e43455f524556455254454400000000602082015291935091508215156128ca5760405160e560020a62461bcd0281526004018080602001828103825283818151815260200191508051906020019080838360008381101561096d578181015183820152602001610955565b5095945050505050565b60408051600160a060020a03841660248201526044808201849052825180830390910181526064909101909152602081018051600160e060020a03167fa9059cbb0000000000000000000000000000000000000000000000000000000017905260009061294185826132a9565b95945050505050565b8051602002815290565b60408051600081526020810190915290565b600081815260026020526040812080548290819060ff161561298b5760009350612a33565b61299483612629565b156129a25760009350612a33565b826002015491506129c08360030154836132f790919063ffffffff16565b83549091506129f1908390839071010000000000000000000000000000000000900467ffffffffffffffff16613385565b1515612a005760009350612a33565b60048301546001840154612a1f91849167ffffffffffffffff16613385565b1515612a2e5760009350612a33565b600193505b505050919050565b6000828152600260205260408120612a5281612629565b8015611eec5750600080548254604080517f4ee2cd7e000000000000000000000000000000000000000000000000000000008152600160a060020a038881166004830152690100000000000000000090930467ffffffffffffffff16602482015290519190921691634ee2cd7e91604480830192602092919082900301818787803b158015612ae057600080fd5b505af1158015612af4573d6000803e3d6000fd5b505050506040513d6020811015612b0a57600080fd5b505111949350505050565b6000806000806001612b256133c7565b60008054604080517f981b24d00000000000000000000000000000000000000000000000000000000081529490930367ffffffffffffffff811660048601529251929650600160a060020a03169263981b24d09260248083019360209383900390910190829087803b158015612b9a57600080fd5b505af1158015612bae573d6000803e3d6000fd5b505050506040513d6020811015612bc457600080fd5b505160408051808201909152601681527f564f54494e475f4e4f5f564f54494e475f504f57455200000000000000000000602082015290925060008311612c505760405160e560020a62461bcd0281526004018080602001828103825283818151815260200191508051906020019080838360008381101561096d578181015183820152602001610955565b505060038054600181019091556000818152600260205260409020909350612c766131c5565b815468ffffffffffffffff00191661010067ffffffffffffffff928316021770ffffffffffffffff00000000000000000019166901000000000000000000858316021780835560005478ffffffffffffffff00000000000000000000000000000000001990911660a060020a909104821671010000000000000000000000000000000000021782556001805490830180549190921667ffffffffffffffff19909116179055600481018290558651612d3790600583019060208a0190613ca9565b5033600160a060020a0316847f4d72fe0577a3a3f7da968d7b892779dde102519c25527b29cf7054f245c791b9886040518080602001828103825283818151815260200191508051906020019080838360005b83811015612da2578181015183820152602001612d8a565b50505050905090810190601f168015612dcf5780820380516001836020036101000a031916815260200191505b509250505060405180910390a3848015612dee5750612dee8433612a3b565b15612dff57612dff84600133612e09565b5050509392505050565b60008381526002602090815260408083208354815483517f4ee2cd7e000000000000000000000000000000000000000000000000000000008152600160a060020a038881166004830152690100000000000000000090920467ffffffffffffffff166024820152935192959485949190921692634ee2cd7e9260448084019391929182900301818787803b158015612ea057600080fd5b505af1158015612eb4573d6000803e3d6000fd5b505050506040513d6020811015612eca57600080fd5b5051600160a060020a038516600090815260068501602052604090205490925060ff1690506001816002811115612efd57fe5b1415612f22576002830154612f18908363ffffffff6133d416565b6002840155612f51565b6002816002811115612f3057fe5b1415612f51576003830154612f4b908363ffffffff6133d416565b60038401555b8415612f9b576002830154612f6c908363ffffffff6132f716565b6002840155600160a060020a03841660009081526006840160205260409020805460ff19166001179055612fdb565b6003830154612fb0908363ffffffff6132f716565b6003840155600160a060020a03841660009081526006840160205260409020805460ff191660021790555b604080518615158152602081018490528151600160a060020a0387169289927fb34ee265e3d4f5ec4e8b52d59b2a9be8fceca2f274ebc080d8fba797fea9391f929081900390910190a3600161303084612690565b600281111561303b57fe5b141561308257604080518381529051600160a060020a0386169188917ffa539989fcfb5d8fa8c97a1102d1777a34c3543f0725fb8ab66109619bb9de189181900360200190a35b505050505050565b61309381612966565b60408051808201909152601681527f564f54494e475f43414e5f4e4f545f455845435554450000000000000000000060208201529015156131195760405160e560020a62461bcd0281526004018080602001828103825283818151815260200191508051906020019080838360008381101561096d578181015183820152602001610955565b5061312381613460565b50565b9055565b60408051808201909152601381527f4d41544836345f4144445f4f564552464c4f570000000000000000000000000060208201526000908383019067ffffffffffffffff8086169083161015611c9c5760405160e560020a62461bcd0281526004018080602001828103825283818151815260200191508051906020019080838360008381101561096d578181015183820152602001610955565b60006118986131d261355c565b613560565b60408051808201909152601481527f4d41544836345f5355425f554e444552464c4f570000000000000000000000006020820152600090819067ffffffffffffffff80861690851611156132705760405160e560020a62461bcd0281526004018080602001828103825283818151815260200191508051906020019080838360008381101561096d578181015183820152602001610955565b505050900390565b6000806000806040516020818751602089018a5afa9250600083111561329d57805191505b50909590945092505050565b6000806040516020818551602087016000895af160008111156132ed573d80156132da57602081146132e3576132eb565b600193506132eb565b600183511493505b505b5090949350505050565b60408051808201909152601181527f4d4154485f4144445f4f564552464c4f5700000000000000000000000000000060208201526000908383019084821015611c9c5760405160e560020a62461bcd0281526004018080602001828103825283818151815260200191508051906020019080838360008381101561096d578181015183820152602001610955565b6000808315156133985760009150611c9c565b836133b186670de0b6b3a764000063ffffffff6135f916565b8115156133ba57fe5b0492909211949350505050565b60006118986131d261255d565b60408051808201909152601281527f4d4154485f5355425f554e444552464c4f57000000000000000000000000000060208201526000908190848411156132705760405160e560020a62461bcd0281526004018080602001828103825283818151815260200191508051906020019080838360008381101561096d578181015183820152602001610955565b6000818152600260208181526040808420805460ff191660019081178255825195865260058201805491821615610100026000190190911694909404601f8101849004840286018301835292850183815290949361352b93919290919085018282801561350e5780601f106134e35761010080835404028352916020019161350e565b820191906000526020600020905b8154815290600101906020018083116134f157829003601f168201915b505060408051600081526020810190915286935091506136a49050565b5060405183907fbf8e2b108bb7c980e08903a8a46527699d5e84905a082d56dacb4150725c8cab90600090a2505050565b4290565b60408051808201909152601581527f55494e5436345f4e554d4245525f544f4f5f4249470000000000000000000000602082015260009067ffffffffffffffff8311156135f25760405160e560020a62461bcd0281526004018080602001828103825283818151815260200191508051906020019080838360008381101561096d578181015183820152602001610955565b5090919050565b60008083151561360c57600091506111f3565b5082820282848281151561361c57fe5b60408051808201909152601181527f4d4154485f4d554c5f4f564552464c4f5700000000000000000000000000000060208201529291900414611c9c5760405160e560020a62461bcd0281526004018080602001828103825283818151815260200191508051906020019080838360008381101561096d578181015183820152602001610955565b60606000806060806136b461087f565b60408051808201909152601481527f494e49545f4e4f545f494e495449414c495a4544000000000000000000000000602082015290151561373a5760405160e560020a62461bcd0281526004018080602001828103825283818151815260200191508051906020019080838360008381101561096d578181015183820152602001610955565b50600080613746611ef4565b915061375061186d565b905061375b8a610fac565b60408051808201909152601b81527f45564d52554e5f4558454355544f525f554e415641494c41424c4500000000006020820152909650600160a060020a03871615156137ed5760405160e560020a62461bcd0281526004018080602001828103825283818151815260200191508051906020019080838360008381101561096d578181015183820152602001610955565b506040516060602482019081528b5160848301528b517f279cea3500000000000000000000000000000000000000000000000000000000975087928d928d928d9282916044820191606481019160a490910190602089019080838360005b8381101561386357818101518382015260200161384b565b50505050905090810190601f1680156138905780820380516001836020036101000a031916815260200191505b50848103835286518152865160209182019188019080838360005b838110156138c35781810151838201526020016138ab565b50505050905090810190601f1680156138f05780820380516001836020036101000a031916815260200191505b508481038252855181528551602091820191808801910280838360005b8381101561392557818101518382015260200161390d565b50505050905001965050505050505060405160208183030381529060405290600160e060020a031916602082018051600160e060020a0383818316178352505050509350600080855160208701895af460405193508080156139e957603f3d11801561399e5760203d03806020883e86016040526139e3565b60e560020a62461bcd02865260206004870152601e60248701527f45564d52554e5f4558454355544f525f494e56414c49445f52455455524e00006044870152606486fd5b506139f2565b3d6000863e3d85fd5b505085600160a060020a03167f5229a5dba83a54ae8cb5b51bdd6de9474cacbe9dd332f5185f3a4f4f2e3f4ad98b8b8660405180806020018060200180602001848103845287818151815260200191508051906020019080838360005b83811015613a67578181015183820152602001613a4f565b50505050905090810190601f168015613a945780820380516001836020036101000a031916815260200191505b50848103835286518152865160209182019188019080838360005b83811015613ac7578181015183820152602001613aaf565b50505050905090810190601f168015613af45780820380516001836020036101000a031916815260200191505b50848103825285518152855160209182019187019080838360005b83811015613b27578181015183820152602001613b0f565b50505050905090810190601f168015613b545780820380516001836020036101000a031916815260200191505b50965050505050505060405180910390a282965081600160a060020a0316613b7a611ef4565b600160a060020a0316146040805190810160405280601f81526020017f45564d52554e5f50524f5445435445445f53544154455f4d4f44494649454400815250901515613c0c5760405160e560020a62461bcd0281526004018080602001828103825283818151815260200191508051906020019080838360008381101561096d578181015183820152602001610955565b5080613c1661186d565b60408051808201909152601f81527f45564d52554e5f50524f5445435445445f53544154455f4d4f4449464945440060208201529114613c9b5760405160e560020a62461bcd0281526004018080602001828103825283818151815260200191508051906020019080838360008381101561096d578181015183820152602001610955565b505050505050509392505050565b828054600181600116156101000203166002900490600052602060002090601f016020900481019282601f10613cea57805160ff1916838001178555613d17565b82800160010185558215613d17579182015b82811115613d17578251825591602001919060010190613cfc565b506108a5926111029250905b808211156108a55760008155600101613d2356004150505f415554485f4641494c45440000000000000000000000000000000000564f54494e475f4e4f5f564f54450000000000000000000000000000000000004352454154455f564f5445535f524f4c45000000000000000000000000000000a165627a7a7230582082c999c0a0c062fce716c0e3a28af142d305631b2e1d68a13e85310971bf04290029ebb05b386a8d34882b8711d156f463690983dc47815980fb82aeeff1aa43579e",
  "linkReferences": {},
  "deployedLinkReferences": {}
}