{
  "abi": [
    {
      "constant": false,
      "inputs": [
        {
          "name": "_subnode",
          "type": "bytes32"
        },
        {
          "name": "_owner",
          "type": "address"
        }
      ],
      "name": "register",
      "outputs": [],
      "payable": false,
      "stateMutability": "nonpayable",
      "type": "function"
    },
    {
      "constant": false,
      "inputs": [
        {
          "name": "_subnode",
          "type": "bytes32"
        },
        {
          "name": "_owner",
          "type": "address"
        },
        {
          "name": "_resolver",
          "type": "address"
        }
      ],
      "name": "registerWithResolver",
      "outputs": [],
      "payable": false,
      "stateMutability": "nonpayable",
      "type": "function"
    },
    {
      "constant": true,
      "inputs": [],
      "name": "rootNode",
      "outputs": [
        {
          "name": "",
          "type": "bytes32"
        }
      ],
      "payable": false,
      "stateMutability": "view",
      "type": "function"
    },
    {
      "inputs": [
        {
          "name": "_ensAddr",
          "type": "address"
        },
        {
          "name": "_defaultResolver",
          "type": "address"
        },
        {
          "name": "_node",
          "type": "bytes32"
        }
      ],
      "payable": false,
      "stateMutability": "nonpayable",
      "type": "constructor"
    },
    {
      "anonymous": false,
      "inputs": [
        {
          "indexed": true,
          "name": "subnode",
          "type": "bytes32"
        },
        {
          "indexed": true,
          "name": "owner",
          "type": "address"
        },
        {
          "indexed": true,
          "name": "resolver",
          "type": "address"
        }
      ],
      "name": "ClaimSubdomain",
      "type": "event"
    }
  ],
  "bytecode": {
    "object": "0x608060405234801561001057600080fd5b5060405160608061054483398101604090815281516020830151919092015160018054600160a060020a03948516600160a060020a031991821617909155600280549490931693169290921790556000556104d4806100706000396000f30060806040526004361061003a5760003560e01c63ffffffff168063d22057a91461003f578063f858fc0b14610065578063faff50a81461008f575b600080fd5b34801561004b57600080fd5b50610063600435600160a060020a03602435166100b6565b005b34801561007157600080fd5b50610063600435600160a060020a03602435811690604435166100d3565b34801561009b57600080fd5b506100a46104a2565b60408051918252519081900360200190f35b6002546100cf9083908390600160a060020a03166100d3565b5050565b60008054604080519182526020808301879052815192839003820183206001547f02571be3000000000000000000000000000000000000000000000000000000008552600485018290529251909493600160a060020a03909316926302571be392602480830193919282900301818787803b15801561015157600080fd5b505af1158015610165573d6000803e3d6000fd5b505050506040513d602081101561017b57600080fd5b50519050600160a060020a0381161561019357600080fd5b60015460008054604080517f06ab592300000000000000000000000000000000000000000000000000000000815260048101929092526024820189905230604483015251600160a060020a03909316926306ab59239260648084019391929182900301818387803b15801561020757600080fd5b505af115801561021b573d6000803e3d6000fd5b5050600154604080517f1896f70a00000000000000000000000000000000000000000000000000000000815260048101879052600160a060020a0388811660248301529151919092169350631896f70a9250604480830192600092919082900301818387803b15801561028d57600080fd5b505af11580156102a1573d6000803e3d6000fd5b5050604080517f01ffc9a70000000000000000000000000000000000000000000000000000000081527f3b3b57de0000000000000000000000000000000000000000000000000000000060048201529051600160a060020a03871693506301ffc9a7925060248083019260209291908290030181600087803b15801561032657600080fd5b505af115801561033a573d6000803e3d6000fd5b505050506040513d602081101561035057600080fd5b5051156103db57604080517fd5fa2b0000000000000000000000000000000000000000000000000000000000815260048101849052600160a060020a03868116602483015291519185169163d5fa2b009160448082019260009290919082900301818387803b1580156103c257600080fd5b505af11580156103d6573d6000803e3d6000fd5b505050505b600154604080517f5b0fc9c300000000000000000000000000000000000000000000000000000000815260048101859052600160a060020a03878116602483015291519190921691635b0fc9c391604480830192600092919082900301818387803b15801561044957600080fd5b505af115801561045d573d6000803e3d6000fd5b5050604051600160a060020a0380871693508716915087907fe27a5a369e0d2c5056ccfcbd5f83f145f43350142d42aaf46ff9a9e461d543df90600090a45050505050565b600054815600a165627a7a72305820857e4f2511c6b9481855c6d1f2ff39f2f31c14c6bfe2a6d4d71f4803dff9ee500029",
    "linkReferences": {}
  },
  "methodIdentifiers": {
    "register(bytes32,address)": "d22057a9",
    "registerWithResolver(bytes32,address,address)": "f858fc0b",
    "rootNode()": "faff50a8"
  },
  "storageLayout": {
    "storage": [],
    "types": {}
  },
  "id": 45
}