{
  "abi": [
    {
      "inputs": [
        {
          "internalType": "contract IStETH",
          "name": "_StETH",
          "type": "address"
        }
      ],
      "stateMutability": "nonpayable",
      "type": "constructor"
    },
    {
      "anonymous": false,
      "inputs": [
        {
          "indexed": true,
          "internalType": "address",
          "name": "owner",
          "type": "address"
        },
        {
          "indexed": true,
          "internalType": "address",
          "name": "spender",
          "type": "address"
        },
        {
          "indexed": false,
          "internalType": "uint256",
          "name": "value",
          "type": "uint256"
        }
      ],
      "name": "Approval",
      "type": "event"
    },
    {
      "anonymous": false,
      "inputs": [
        {
          "indexed": true,
          "internalType": "address",
          "name": "from",
          "type": "address"
        },
        {
          "indexed": true,
          "internalType": "address",
          "name": "to",
          "type": "address"
        },
        {
          "indexed": false,
          "internalType": "uint256",
          "name": "value",
          "type": "uint256"
        }
      ],
      "name": "Transfer",
      "type": "event"
    },
    {
      "inputs": [],
      "name": "DOMAIN_SEPARATOR",
      "outputs": [
        {
          "internalType": "bytes32",
          "name": "",
          "type": "bytes32"
        }
      ],
      "stateMutability": "view",
      "type": "function"
    },
    {
      "inputs": [
        {
          "internalType": "address",
          "name": "owner",
          "type": "address"
        },
        {
          "internalType": "address",
          "name": "spender",
          "type": "address"
        }
      ],
      "name": "allowance",
      "outputs": [
        {
          "internalType": "uint256",
          "name": "",
          "type": "uint256"
        }
      ],
      "stateMutability": "view",
      "type": "function"
    },
    {
      "inputs": [
        {
          "internalType": "address",
          "name": "spender",
          "type": "address"
        },
        {
          "internalType": "uint256",
          "name": "amount",
          "type": "uint256"
        }
      ],
      "name": "approve",
      "outputs": [
        {
          "internalType": "bool",
          "name": "",
          "type": "bool"
        }
      ],
      "stateMutability": "nonpayable",
      "type": "function"
    },
    {
      "inputs": [
        {
          "internalType": "address",
          "name": "account",
          "type": "address"
        }
      ],
      "name": "balanceOf",
      "outputs": [
        {
          "internalType": "uint256",
          "name": "",
          "type": "uint256"
        }
      ],
      "stateMutability": "view",
      "type": "function"
    },
    {
      "inputs": [],
      "name": "decimals",
      "outputs": [
        {
          "internalType": "uint8",
          "name": "",
          "type": "uint8"
        }
      ],
      "stateMutability": "view",
      "type": "function"
    },
    {
      "inputs": [
        {
          "internalType": "address",
          "name": "spender",
          "type": "address"
        },
        {
          "internalType": "uint256",
          "name": "subtractedValue",
          "type": "uint256"
        }
      ],
      "name": "decreaseAllowance",
      "outputs": [
        {
          "internalType": "bool",
          "name": "",
          "type": "bool"
        }
      ],
      "stateMutability": "nonpayable",
      "type": "function"
    },
    {
      "inputs": [],
      "name": "getChainId",
      "outputs": [
        {
          "internalType": "uint256",
          "name": "chainId",
          "type": "uint256"
        }
      ],
      "stateMutability": "view",
      "type": "function"
    },
    {
      "inputs": [
        {
          "internalType": "uint256",
          "name": "_wstETHAmount",
          "type": "uint256"
        }
      ],
      "name": "getStETHByWstETH",
      "outputs": [
        {
          "internalType": "uint256",
          "name": "",
          "type": "uint256"
        }
      ],
      "stateMutability": "view",
      "type": "function"
    },
    {
      "inputs": [
        {
          "internalType": "uint256",
          "name": "_stETHAmount",
          "type": "uint256"
        }
      ],
      "name": "getWstETHByStETH",
      "outputs": [
        {
          "internalType": "uint256",
          "name": "",
          "type": "uint256"
        }
      ],
      "stateMutability": "view",
      "type": "function"
    },
    {
      "inputs": [
        {
          "internalType": "address",
          "name": "spender",
          "type": "address"
        },
        {
          "internalType": "uint256",
          "name": "addedValue",
          "type": "uint256"
        }
      ],
      "name": "increaseAllowance",
      "outputs": [
        {
          "internalType": "bool",
          "name": "",
          "type": "bool"
        }
      ],
      "stateMutability": "nonpayable",
      "type": "function"
    },
    {
      "inputs": [
        {
          "internalType": "address",
          "name": "recipient",
          "type": "address"
        },
        {
          "internalType": "uint256",
          "name": "amount",
          "type": "uint256"
        }
      ],
      "name": "mint",
      "outputs": [],
      "stateMutability": "nonpayable",
      "type": "function"
    },
    {
      "inputs": [],
      "name": "name",
      "outputs": [
        {
          "internalType": "string",
          "name": "",
          "type": "string"
        }
      ],
      "stateMutability": "view",
      "type": "function"
    },
    {
      "inputs": [
        {
          "internalType": "address",
          "name": "owner",
          "type": "address"
        }
      ],
      "name": "nonces",
      "outputs": [
        {
          "internalType": "uint256",
          "name": "",
          "type": "uint256"
        }
      ],
      "stateMutability": "view",
      "type": "function"
    },
    {
      "inputs": [
        {
          "internalType": "address",
          "name": "owner",
          "type": "address"
        },
        {
          "internalType": "address",
          "name": "spender",
          "type": "address"
        },
        {
          "internalType": "uint256",
          "name": "value",
          "type": "uint256"
        },
        {
          "internalType": "uint256",
          "name": "deadline",
          "type": "uint256"
        },
        {
          "internalType": "uint8",
          "name": "v",
          "type": "uint8"
        },
        {
          "internalType": "bytes32",
          "name": "r",
          "type": "bytes32"
        },
        {
          "internalType": "bytes32",
          "name": "s",
          "type": "bytes32"
        }
      ],
      "name": "permit",
      "outputs": [],
      "stateMutability": "nonpayable",
      "type": "function"
    },
    {
      "inputs": [],
      "name": "stETH",
      "outputs": [
        {
          "internalType": "contract IStETH",
          "name": "",
          "type": "address"
        }
      ],
      "stateMutability": "view",
      "type": "function"
    },
    {
      "inputs": [],
      "name": "stEthPerToken",
      "outputs": [
        {
          "internalType": "uint256",
          "name": "",
          "type": "uint256"
        }
      ],
      "stateMutability": "view",
      "type": "function"
    },
    {
      "inputs": [],
      "name": "symbol",
      "outputs": [
        {
          "internalType": "string",
          "name": "",
          "type": "string"
        }
      ],
      "stateMutability": "view",
      "type": "function"
    },
    {
      "inputs": [],
      "name": "tokensPerStEth",
      "outputs": [
        {
          "internalType": "uint256",
          "name": "",
          "type": "uint256"
        }
      ],
      "stateMutability": "view",
      "type": "function"
    },
    {
      "inputs": [],
      "name": "totalSupply",
      "outputs": [
        {
          "internalType": "uint256",
          "name": "",
          "type": "uint256"
        }
      ],
      "stateMutability": "view",
      "type": "function"
    },
    {
      "inputs": [
        {
          "internalType": "address",
          "name": "recipient",
          "type": "address"
        },
        {
          "internalType": "uint256",
          "name": "amount",
          "type": "uint256"
        }
      ],
      "name": "transfer",
      "outputs": [
        {
          "internalType": "bool",
          "name": "",
          "type": "bool"
        }
      ],
      "stateMutability": "nonpayable",
      "type": "function"
    },
    {
      "inputs": [
        {
          "internalType": "address",
          "name": "sender",
          "type": "address"
        },
        {
          "internalType": "address",
          "name": "recipient",
          "type": "address"
        },
        {
          "internalType": "uint256",
          "name": "amount",
          "type": "uint256"
        }
      ],
      "name": "transferFrom",
      "outputs": [
        {
          "internalType": "bool",
          "name": "",
          "type": "bool"
        }
      ],
      "stateMutability": "nonpayable",
      "type": "function"
    },
    {
      "inputs": [
        {
          "internalType": "uint256",
          "name": "_wstETHAmount",
          "type": "uint256"
        }
      ],
      "name": "unwrap",
      "outputs": [
        {
          "internalType": "uint256",
          "name": "",
          "type": "uint256"
        }
      ],
      "stateMutability": "nonpayable",
      "type": "function"
    },
    {
      "inputs": [
        {
          "internalType": "uint256",
          "name": "_stETHAmount",
          "type": "uint256"
        }
      ],
      "name": "wrap",
      "outputs": [
        {
          "internalType": "uint256",
          "name": "",
          "type": "uint256"
        }
      ],
      "stateMutability": "nonpayable",
      "type": "function"
    },
    {
      "stateMutability": "payable",
      "type": "receive"
    }
  ],
  "bytecode": {
    "object": "0x6101406040527f6e71edae12b1b97f4d1f60370fef10105fa2faae0126114a169c64845d6126c9610120523480156200003757600080fd5b5060405162001cbf38038062001cbf833981810160405260208110156200005d57600080fd5b5051604080518082018252601f8082527f57726170706564206c6971756964207374616b656420457468657220322e300060208381018290528451808601865260018152603160f81b8183015285518087018752938452838201928352855180870190965260068652650eee6e88aa8960d31b9186019190915282518695859492939091620000ef916003916200020b565b508051620001059060049060208401906200020b565b50506005805460ff1916601217905550815160208084019190912082519183019190912060c082905260e08190527f8b73c3c69bb8fe3d512ecc4cf759cc79239f7b179b0ffacaa9a75d522b39400f6200015e620001a3565b60a0526200016e818484620001a7565b608052610100525050600780546001600160a01b0319166001600160a01b03959095169490941790935550620002a792505050565b4690565b6000838383620001b6620001a3565b3060405160200180868152602001858152602001848152602001838152602001826001600160a01b03168152602001955050505050506040516020818303038152906040528051906020012090509392505050565b828054600181600116156101000203166002900490600052602060002090601f016020900481019282601f106200024e57805160ff19168380011785556200027e565b828001600101855582156200027e579182015b828111156200027e57825182559160200191906001019062000261565b506200028c92915062000290565b5090565b5b808211156200028c576000815560010162000291565b60805160a05160c05160e05161010051610120516119ce620002f160003980610c545250806113eb52508061142d52508061140c5250806113925250806113c252506119ce6000f3fe6080604052600436106101445760003560e01c80637ecebe00116100b6578063bb2952fc1161006f578063bb2952fc14610525578063c1fe3e481461054f578063d505accf14610580578063dd62ed3e146105de578063de0e9a3e14610619578063ea598cb014610643576101d5565b80637ecebe001461042c5780639576a0c81461045f57806395d89b4114610474578063a457c2d714610489578063a9059cbb146104c2578063b0e38900146104fb576101d5565b8063313ce56711610108578063313ce567146103305780633408e4701461035b5780633644e51514610370578063395093511461038557806340c10f19146103be57806370a08231146103f9576101d5565b8063035faf82146101da57806306fdde0314610201578063095ea7b31461028b57806318160ddd146102d857806323b872dd146102ed576101d5565b366101d5576007546040805163a1903eab60e01b8152600060048201819052915191926001600160a01b03169163a1903eab913491602480830192602092919082900301818588803b15801561019957600080fd5b505af11580156101ad573d6000803e3d6000fd5b50505050506040513d60208110156101c457600080fd5b505190506101d2338261066d565b50005b600080fd5b3480156101e657600080fd5b506101ef61075d565b60408051918252519081900360200190f35b34801561020d57600080fd5b506102166107e2565b6040805160208082528351818301528351919283929083019185019080838360005b83811015610250578181015183820152602001610238565b50505050905090810190601f16801561027d5780820380516001836020036101000a031916815260200191505b509250505060405180910390f35b34801561029757600080fd5b506102c4600480360360408110156102ae57600080fd5b506001600160a01b038135169060200135610878565b604080519115158252519081900360200190f35b3480156102e457600080fd5b506101ef610895565b3480156102f957600080fd5b506102c46004803603606081101561031057600080fd5b506001600160a01b0381358116916020810135909116906040013561089b565b34801561033c57600080fd5b50610345610922565b6040805160ff9092168252519081900360200190f35b34801561036757600080fd5b506101ef61092b565b34801561037c57600080fd5b506101ef61092f565b34801561039157600080fd5b506102c4600480360360408110156103a857600080fd5b506001600160a01b03813516906020013561093e565b3480156103ca57600080fd5b506103f7600480360360408110156103e157600080fd5b506001600160a01b03813516906020013561098c565b005b34801561040557600080fd5b506101ef6004803603602081101561041c57600080fd5b50356001600160a01b031661099a565b34801561043857600080fd5b506101ef6004803603602081101561044f57600080fd5b50356001600160a01b03166109b5565b34801561046b57600080fd5b506101ef6109dc565b34801561048057600080fd5b50610216610a2f565b34801561049557600080fd5b506102c4600480360360408110156104ac57600080fd5b506001600160a01b038135169060200135610a90565b3480156104ce57600080fd5b506102c4600480360360408110156104e557600080fd5b506001600160a01b038135169060200135610af8565b34801561050757600080fd5b506101ef6004803603602081101561051e57600080fd5b5035610b0c565b34801561053157600080fd5b506101ef6004803603602081101561054857600080fd5b5035610b8a565b34801561055b57600080fd5b50610564610bd6565b604080516001600160a01b039092168252519081900360200190f35b34801561058c57600080fd5b506103f7600480360360e08110156105a357600080fd5b506001600160a01b03813581169160208101359091169060408101359060608101359060ff6080820135169060a08101359060c00135610be5565b3480156105ea57600080fd5b506101ef6004803603604081101561060157600080fd5b506001600160a01b0381358116916020013516610d9c565b34801561062557600080fd5b506101ef6004803603602081101561063c57600080fd5b5035610dc7565b34801561064f57600080fd5b506101ef6004803603602081101561066657600080fd5b5035610f12565b6001600160a01b0382166106c8576040805162461bcd60e51b815260206004820152601f60248201527f45524332303a206d696e7420746f20746865207a65726f206164647265737300604482015290519081900360640190fd5b6106d460008383611046565b6002546106e1908261104b565b6002556001600160a01b038216600090815260208190526040902054610707908261104b565b6001600160a01b0383166000818152602081815260408083209490945583518581529351929391927fddf252ad1be2c89b69c2b068fc378daa952ba7f163c4a11628f55a4df523b3ef9281900390910190a35050565b60075460408051630f451f7160e31b8152670de0b6b3a7640000600482015290516000926001600160a01b031691637a28fb88916024808301926020929190829003018186803b1580156107b057600080fd5b505afa1580156107c4573d6000803e3d6000fd5b505050506040513d60208110156107da57600080fd5b505190505b90565b60038054604080516020601f600260001961010060018816150201909516949094049384018190048102820181019092528281526060939092909183018282801561086e5780601f106108435761010080835404028352916020019161086e565b820191906000526020600020905b81548152906001019060200180831161085157829003601f168201915b5050505050905090565b600061088c6108856110ac565b84846110b0565b50600192915050565b60025490565b60006108a884848461119c565b610918846108b46110ac565b610913856040518060600160405280602881526020016118e2602891396001600160a01b038a166000908152600160205260408120906108f26110ac565b6001600160a01b0316815260208101919091526040016000205491906112f7565b6110b0565b5060019392505050565b60055460ff1690565b4690565b600061093961138e565b905090565b600061088c61094b6110ac565b84610913856001600061095c6110ac565b6001600160a01b03908116825260208083019390935260409182016000908120918c16815292529020549061104b565b610996828261066d565b5050565b6001600160a01b031660009081526020819052604090205490565b6001600160a01b03811660009081526006602052604081206109d690611458565b92915050565b60075460408051631920845160e01b8152670de0b6b3a7640000600482015290516000926001600160a01b0316916319208451916024808301926020929190829003018186803b1580156107b057600080fd5b60048054604080516020601f600260001961010060018816150201909516949094049384018190048102820181019092528281526060939092909183018282801561086e5780601f106108435761010080835404028352916020019161086e565b600061088c610a9d6110ac565b84610913856040518060600160405280602581526020016119746025913960016000610ac76110ac565b6001600160a01b03908116825260208083019390935260409182016000908120918d168152925290205491906112f7565b600061088c610b056110ac565b848461119c565b60075460408051631920845160e01b81526004810184905290516000926001600160a01b0316916319208451916024808301926020929190829003018186803b158015610b5857600080fd5b505afa158015610b6c573d6000803e3d6000fd5b505050506040513d6020811015610b8257600080fd5b505192915050565b60075460408051630f451f7160e31b81526004810184905290516000926001600160a01b031691637a28fb88916024808301926020929190829003018186803b158015610b5857600080fd5b6007546001600160a01b031681565b83421115610c3a576040805162461bcd60e51b815260206004820152601d60248201527f45524332305065726d69743a206578706972656420646561646c696e65000000604482015290519081900360640190fd5b6001600160a01b03871660009081526006602052604081207f000000000000000000000000000000000000000000000000000000000000000090899089908990610c8390611458565b8960405160200180878152602001866001600160a01b03168152602001856001600160a01b0316815260200184815260200183815260200182815260200196505050505050506040516020818303038152906040528051906020012090506000610cec8261145c565b90506000610cfc828787876114a8565b9050896001600160a01b0316816001600160a01b031614610d64576040805162461bcd60e51b815260206004820152601e60248201527f45524332305065726d69743a20696e76616c6964207369676e61747572650000604482015290519081900360640190fd5b6001600160a01b038a166000908152600660205260409020610d8590611626565b610d908a8a8a6110b0565b50505050505050505050565b6001600160a01b03918216600090815260016020908152604080832093909416825291909152205490565b6000808211610e075760405162461bcd60e51b81526004018080602001828103825260268152602001806118306026913960400191505060405180910390fd5b60075460408051630f451f7160e31b81526004810185905290516000926001600160a01b031691637a28fb88916024808301926020929190829003018186803b158015610e5357600080fd5b505afa158015610e67573d6000803e3d6000fd5b505050506040513d6020811015610e7d57600080fd5b50519050610e8b338461162f565b6007546040805163a9059cbb60e01b81523360048201526024810184905290516001600160a01b039092169163a9059cbb916044808201926020929091908290030181600087803b158015610edf57600080fd5b505af1158015610ef3573d6000803e3d6000fd5b505050506040513d6020811015610f0957600080fd5b50909392505050565b6000808211610f68576040805162461bcd60e51b815260206004820152601d60248201527f7773744554483a2063616e27742077726170207a65726f207374455448000000604482015290519081900360640190fd5b60075460408051631920845160e01b81526004810185905290516000926001600160a01b0316916319208451916024808301926020929190829003018186803b158015610fb457600080fd5b505afa158015610fc8573d6000803e3d6000fd5b505050506040513d6020811015610fde57600080fd5b50519050610fec338261066d565b600754604080516323b872dd60e01b81523360048201523060248201526044810186905290516001600160a01b03909216916323b872dd916064808201926020929091908290030181600087803b158015610edf57600080fd5b505050565b6000828201838110156110a5576040805162461bcd60e51b815260206004820152601b60248201527f536166654d6174683a206164646974696f6e206f766572666c6f770000000000604482015290519081900360640190fd5b9392505050565b3390565b6001600160a01b0383166110f55760405162461bcd60e51b81526004018080602001828103825260248152602001806119506024913960400191505060405180910390fd5b6001600160a01b03821661113a5760405162461bcd60e51b81526004018080602001828103825260228152602001806118566022913960400191505060405180910390fd5b6001600160a01b03808416600081815260016020908152604080832094871680845294825291829020859055815185815291517f8c5be1e5ebec7d5bd14f71427d1e84f3dd0314c0f7b2291e5b200ac8c7c3b9259281900390910190a3505050565b6001600160a01b0383166111e15760405162461bcd60e51b815260040180806020018281038252602581526020018061192b6025913960400191505060405180910390fd5b6001600160a01b0382166112265760405162461bcd60e51b81526004018080602001828103825260238152602001806117eb6023913960400191505060405180910390fd5b611231838383611046565b61126e81604051806060016040528060268152602001611878602691396001600160a01b03861660009081526020819052604090205491906112f7565b6001600160a01b03808516600090815260208190526040808220939093559084168152205461129d908261104b565b6001600160a01b038084166000818152602081815260409182902094909455805185815290519193928716927fddf252ad1be2c89b69c2b068fc378daa952ba7f163c4a11628f55a4df523b3ef92918290030190a3505050565b600081848411156113865760405162461bcd60e51b81526004018080602001828103825283818151815260200191508051906020019080838360005b8381101561134b578181015183820152602001611333565b50505050905090810190601f1680156113785780820380516001836020036101000a031916815260200191505b509250505060405180910390fd5b505050900390565b60007f00000000000000000000000000000000000000000000000000000000000000006113b961092b565b14156113e657507f00000000000000000000000000000000000000000000000000000000000000006107df565b6114517f00000000000000000000000000000000000000000000000000000000000000007f00000000000000000000000000000000000000000000000000000000000000007f000000000000000000000000000000000000000000000000000000000000000061172b565b90506107df565b5490565b600061146661138e565b82604051602001808061190160f01b81525060020183815260200182815260200192505050604051602081830303815290604052805190602001209050919050565b60007f7fffffffffffffffffffffffffffffff5d576e7357a4501ddfe92f46681b20a08211156115095760405162461bcd60e51b815260040180806020018281038252602281526020018061189e6022913960400191505060405180910390fd5b8360ff16601b148061151e57508360ff16601c145b6115595760405162461bcd60e51b81526004018080602001828103825260228152602001806118c06022913960400191505060405180910390fd5b600060018686868660405160008152602001604052604051808581526020018460ff1681526020018381526020018281526020019450505050506020604051602081039080840390855afa1580156115b5573d6000803e3d6000fd5b5050604051601f1901519150506001600160a01b03811661161d576040805162461bcd60e51b815260206004820152601860248201527f45434453413a20696e76616c6964207369676e61747572650000000000000000604482015290519081900360640190fd5b95945050505050565b80546001019055565b6001600160a01b0382166116745760405162461bcd60e51b815260040180806020018281038252602181526020018061190a6021913960400191505060405180910390fd5b61168082600083611046565b6116bd8160405180606001604052806022815260200161180e602291396001600160a01b03851660009081526020819052604090205491906112f7565b6001600160a01b0383166000908152602081905260409020556002546116e3908261178d565b6002556040805182815290516000916001600160a01b038516917fddf252ad1be2c89b69c2b068fc378daa952ba7f163c4a11628f55a4df523b3ef9181900360200190a35050565b600083838361173861092b565b3060405160200180868152602001858152602001848152602001838152602001826001600160a01b03168152602001955050505050506040516020818303038152906040528051906020012090509392505050565b6000828211156117e4576040805162461bcd60e51b815260206004820152601e60248201527f536166654d6174683a207375627472616374696f6e206f766572666c6f770000604482015290519081900360640190fd5b5090039056fe45524332303a207472616e7366657220746f20746865207a65726f206164647265737345524332303a206275726e20616d6f756e7420657863656564732062616c616e63657773744554483a207a65726f20616d6f756e7420756e77726170206e6f7420616c6c6f77656445524332303a20617070726f766520746f20746865207a65726f206164647265737345524332303a207472616e7366657220616d6f756e7420657863656564732062616c616e636545434453413a20696e76616c6964207369676e6174757265202773272076616c756545434453413a20696e76616c6964207369676e6174757265202776272076616c756545524332303a207472616e7366657220616d6f756e74206578636565647320616c6c6f77616e636545524332303a206275726e2066726f6d20746865207a65726f206164647265737345524332303a207472616e736665722066726f6d20746865207a65726f206164647265737345524332303a20617070726f76652066726f6d20746865207a65726f206164647265737345524332303a2064656372656173656420616c6c6f77616e63652062656c6f77207a65726fa2646970667358221220ce55719e7ce04dc75d4d278a1a9bff8be86a52bd0c204b3320c5538407344da964736f6c634300060c0033",
    "linkReferences": {}
  },
  "methodIdentifiers": {
    "DOMAIN_SEPARATOR()": "3644e515",
    "allowance(address,address)": "dd62ed3e",
    "approve(address,uint256)": "095ea7b3",
    "balanceOf(address)": "70a08231",
    "decimals()": "313ce567",
    "decreaseAllowance(address,uint256)": "a457c2d7",
    "getChainId()": "3408e470",
    "getStETHByWstETH(uint256)": "bb2952fc",
    "getWstETHByStETH(uint256)": "b0e38900",
    "increaseAllowance(address,uint256)": "39509351",
    "mint(address,uint256)": "40c10f19",
    "name()": "06fdde03",
    "nonces(address)": "7ecebe00",
    "permit(address,address,uint256,uint256,uint8,bytes32,bytes32)": "d505accf",
    "stETH()": "c1fe3e48",
    "stEthPerToken()": "035faf82",
    "symbol()": "95d89b41",
    "tokensPerStEth()": "9576a0c8",
    "totalSupply()": "18160ddd",
    "transfer(address,uint256)": "a9059cbb",
    "transferFrom(address,address,uint256)": "23b872dd",
    "unwrap(uint256)": "de0e9a3e",
    "wrap(uint256)": "ea598cb0"
  },
  "storageLayout": {
    "storage": [
      {
        "astId": 1203,
        "contract": "contracts/0.6.12/mocks/WstETHMock.sol:WstETHMock",
        "label": "_balances",
        "offset": 0,
        "slot": "0",
        "type": "t_mapping(t_address,t_uint256)"
      },
      {
        "astId": 1209,
        "contract": "contracts/0.6.12/mocks/WstETHMock.sol:WstETHMock",
        "label": "_allowances",
        "offset": 0,
        "slot": "1",
        "type": "t_mapping(t_address,t_mapping(t_address,t_uint256))"
      },
      {
        "astId": 1211,
        "contract": "contracts/0.6.12/mocks/WstETHMock.sol:WstETHMock",
        "label": "_totalSupply",
        "offset": 0,
        "slot": "2",
        "type": "t_uint256"
      },
      {
        "astId": 1213,
        "contract": "contracts/0.6.12/mocks/WstETHMock.sol:WstETHMock",
        "label": "_name",
        "offset": 0,
        "slot": "3",
        "type": "t_string_storage"
      },
      {
        "astId": 1215,
        "contract": "contracts/0.6.12/mocks/WstETHMock.sol:WstETHMock",
        "label": "_symbol",
        "offset": 0,
        "slot": "4",
        "type": "t_string_storage"
      },
      {
        "astId": 1217,
        "contract": "contracts/0.6.12/mocks/WstETHMock.sol:WstETHMock",
        "label": "_decimals",
        "offset": 0,
        "slot": "5",
        "type": "t_uint8"
      },
      {
        "astId": 670,
        "contract": "contracts/0.6.12/mocks/WstETHMock.sol:WstETHMock",
        "label": "_nonces",
        "offset": 0,
        "slot": "6",
        "type": "t_mapping(t_address,t_struct(Counter)1859_storage)"
      },
      {
        "astId": 8,
        "contract": "contracts/0.6.12/mocks/WstETHMock.sol:WstETHMock",
        "label": "stETH",
        "offset": 0,
        "slot": "7",
        "type": "t_contract(IStETH)212"
      }
    ],
    "types": {
      "t_address": {
        "encoding": "inplace",
        "label": "address",
        "numberOfBytes": "20"
      },
      "t_contract(IStETH)212": {
        "encoding": "inplace",
        "label": "contract IStETH",
        "numberOfBytes": "20"
      },
      "t_mapping(t_address,t_mapping(t_address,t_uint256))": {
        "encoding": "mapping",
        "key": "t_address",
        "label": "mapping(address => mapping(address => uint256))",
        "numberOfBytes": "32",
        "value": "t_mapping(t_address,t_uint256)"
      },
      "t_mapping(t_address,t_struct(Counter)1859_storage)": {
        "encoding": "mapping",
        "key": "t_address",
        "label": "mapping(address => struct Counters.Counter)",
        "numberOfBytes": "32",
        "value": "t_struct(Counter)1859_storage"
      },
      "t_mapping(t_address,t_uint256)": {
        "encoding": "mapping",
        "key": "t_address",
        "label": "mapping(address => uint256)",
        "numberOfBytes": "32",
        "value": "t_uint256"
      },
      "t_string_storage": {
        "encoding": "bytes",
        "label": "string",
        "numberOfBytes": "32"
      },
      "t_struct(Counter)1859_storage": {
        "encoding": "inplace",
        "label": "struct Counters.Counter",
        "numberOfBytes": "32",
        "members": [
          {
            "astId": 1858,
            "contract": "contracts/0.6.12/mocks/WstETHMock.sol:WstETHMock",
            "label": "_value",
            "offset": 0,
            "slot": "0",
            "type": "t_uint256"
          }
        ]
      },
      "t_uint256": {
        "encoding": "inplace",
        "label": "uint256",
        "numberOfBytes": "32"
      },
      "t_uint8": {
        "encoding": "inplace",
        "label": "uint8",
        "numberOfBytes": "1"
      }
    }
  },
  "id": 3
}