{
  "abi": [
    {
      "inputs": [
        {
          "internalType": "address",
          "name": "_voting",
          "type": "address"
        },
        {
          "internalType": "bytes4",
          "name": "_requiredIface",
          "type": "bytes4"
        }
      ],
      "stateMutability": "nonpayable",
      "type": "constructor"
    },
    {
      "anonymous": false,
      "inputs": [
        {
          "indexed": true,
          "internalType": "address",
          "name": "callback",
          "type": "address"
        },
        {
          "indexed": false,
          "internalType": "uint256",
          "name": "atIndex",
          "type": "uint256"
        }
      ],
      "name": "CallbackAdded",
      "type": "event"
    },
    {
      "anonymous": false,
      "inputs": [
        {
          "indexed": true,
          "internalType": "address",
          "name": "callback",
          "type": "address"
        },
        {
          "indexed": false,
          "internalType": "uint256",
          "name": "atIndex",
          "type": "uint256"
        }
      ],
      "name": "CallbackRemoved",
      "type": "event"
    },
    {
      "inputs": [],
      "name": "MAX_CALLBACKS_COUNT",
      "outputs": [
        {
          "internalType": "uint256",
          "name": "",
          "type": "uint256"
        }
      ],
      "stateMutability": "view",
      "type": "function"
    },
    {
      "inputs": [],
      "name": "REQUIRED_INTERFACE",
      "outputs": [
        {
          "internalType": "bytes4",
          "name": "",
          "type": "bytes4"
        }
      ],
      "stateMutability": "view",
      "type": "function"
    },
    {
      "inputs": [],
      "name": "VOTING",
      "outputs": [
        {
          "internalType": "address",
          "name": "",
          "type": "address"
        }
      ],
      "stateMutability": "view",
      "type": "function"
    },
    {
      "inputs": [
        {
          "internalType": "address",
          "name": "_callback",
          "type": "address"
        }
      ],
      "name": "addCallback",
      "outputs": [],
      "stateMutability": "nonpayable",
      "type": "function"
    },
    {
      "inputs": [
        {
          "internalType": "uint256",
          "name": "",
          "type": "uint256"
        }
      ],
      "name": "callbacks",
      "outputs": [
        {
          "internalType": "address",
          "name": "",
          "type": "address"
        }
      ],
      "stateMutability": "view",
      "type": "function"
    },
    {
      "inputs": [],
      "name": "callbacksLength",
      "outputs": [
        {
          "internalType": "uint256",
          "name": "",
          "type": "uint256"
        }
      ],
      "stateMutability": "view",
      "type": "function"
    },
    {
      "inputs": [
        {
          "internalType": "address",
          "name": "_callback",
          "type": "address"
        },
        {
          "internalType": "uint256",
          "name": "_atIndex",
          "type": "uint256"
        }
      ],
      "name": "insertCallback",
      "outputs": [],
      "stateMutability": "nonpayable",
      "type": "function"
    },
    {
      "inputs": [
        {
          "internalType": "uint256",
          "name": "_atIndex",
          "type": "uint256"
        }
      ],
      "name": "removeCallback",
      "outputs": [],
      "stateMutability": "nonpayable",
      "type": "function"
    }
  ],
  "bytecode": {
    "object": "0x60c060405234801561001057600080fd5b50604051610b5b380380610b5b83398101604081905261002f916100f4565b6001600160e01b0319818116141561007e5760405162461bcd60e51b815260206004820152600d60248201526c494e56414c49445f494641434560981b60448201526064015b60405180910390fd5b6001600160a01b0382166100d45760405162461bcd60e51b815260206004820152601360248201527f564f54494e475f5a45524f5f41444452455353000000000000000000000000006044820152606401610075565b6001600160a01b039091166080526001600160e01b03191660a052610147565b6000806040838503121561010757600080fd5b82516001600160a01b038116811461011e57600080fd5b60208401519092506001600160e01b03198116811461013c57600080fd5b809150509250929050565b60805160a0516109d46101876000396000818161012e015261047801526000818160d7015281816101b10152818161021301526103d001526109d46000f3fe608060405234801561001057600080fd5b50600436106100875760003560e01c806391b336141161005b57806391b336141461010e5780639fb56ad214610116578063d92f7c0f14610129578063fd2f1a441461016957600080fd5b8062e0d3b51461008c578063059c8479146100bc578063269e1d1a146100d257806333657836146100f9575b600080fd5b61009f61009a3660046107e6565b61017c565b6040516001600160a01b0390911681526020015b60405180910390f35b6100c4601081565b6040519081526020016100b3565b61009f7f000000000000000000000000000000000000000000000000000000000000000081565b61010c61010736600461081b565b6101a6565b005b6000546100c4565b61010c6101243660046107e6565b610208565b6101507f000000000000000000000000000000000000000000000000000000000000000081565b6040516001600160e01b031990911681526020016100b3565b61010c610177366004610836565b6103c5565b6000818154811061018c57600080fd5b6000918252602090912001546001600160a01b0316905081565b336001600160a01b037f000000000000000000000000000000000000000000000000000000000000000016146101f75760405162461bcd60e51b81526004016101ee90610860565b60405180910390fd5b60005461020590829061041b565b50565b336001600160a01b037f000000000000000000000000000000000000000000000000000000000000000016146102505760405162461bcd60e51b81526004016101ee90610860565b60005480821061029a5760405162461bcd60e51b8152602060048201526015602482015274494e4445585f49535f4f55545f4f465f52414e474560581b60448201526064016101ee565b600082815481106102ad576102ad610897565b600091825260209182902001546040518481526001600160a01b03909116917f1771a9538e51986b1f6a9d0c43430167b63350a53ba61805133916334b548dcc910160405180910390a2815b6103046001836108c3565b81101561038d5760006103188260016108da565b8154811061032857610328610897565b600091825260208220015481546001600160a01b0390911691908390811061035257610352610897565b600091825260209091200180546001600160a01b0319166001600160a01b039290921691909117905580610385816108f2565b9150506102f9565b50600080548061039f5761039f61090d565b600082815260209020810160001990810180546001600160a01b03191690550190555050565b336001600160a01b037f0000000000000000000000000000000000000000000000000000000000000000161461040d5760405162461bcd60e51b81526004016101ee90610860565b610417828261041b565b5050565b6001600160a01b0382166104695760405162461bcd60e51b815260206004820152601560248201527443414c4c4241434b5f5a45524f5f4144445245535360581b60448201526064016101ee565b61049c6001600160a01b0383167f00000000000000000000000000000000000000000000000000000000000000006106a5565b6104e15760405162461bcd60e51b81526020600482015260166024820152754241445f43414c4c4241434b5f494e5445524641434560501b60448201526064016101ee565b6000548082111561052c5760405162461bcd60e51b8152602060048201526015602482015274494e4445585f49535f4f55545f4f465f52414e474560581b60448201526064016101ee565b6010811061057c5760405162461bcd60e51b815260206004820152601c60248201527f4d41585f43414c4c4241434b535f434f554e545f45584345454445440000000060448201526064016101ee565b826001600160a01b03167f1bc6d1feb48e958f341d80c7de1a0cdff706f1d28c94b6b286302e4b7fa72a59836040516105b791815260200190565b60405180910390a26000805460010181558052801561065e57805b8281111561065c5760006105e76001836108c3565b815481106105f7576105f7610897565b600091825260208220015481546001600160a01b0390911691908390811061062157610621610897565b600091825260209091200180546001600160a01b0319166001600160a01b03929092169190911790558061065481610923565b9150506105d2565b505b826000838154811061067257610672610897565b9060005260206000200160006101000a8154816001600160a01b0302191690836001600160a01b03160217905550505050565b60006106b0836106ca565b80156106c157506106c183836106fd565b90505b92915050565b60006106dd826301ffc9a760e01b6106fd565b80156106c457506106f6826001600160e01b03196106fd565b1592915050565b604080516001600160e01b0319831660248083019190915282518083039091018152604490910182526020810180516001600160e01b03166301ffc9a760e01b179052905160009190829081906001600160a01b038716906175309061076490869061093a565b6000604051808303818686fa925050503d80600081146107a0576040519150601f19603f3d011682016040523d82523d6000602084013e6107a5565b606091505b50915091506020815110156107c057600093505050506106c4565b8180156107dc5750808060200190518101906107dc9190610975565b9695505050505050565b6000602082840312156107f857600080fd5b5035919050565b80356001600160a01b038116811461081657600080fd5b919050565b60006020828403121561082d57600080fd5b6106c1826107ff565b6000806040838503121561084957600080fd5b610852836107ff565b946020939093013593505050565b60208082526019908201527f4d53475f53454e4445525f4d5553545f42455f564f54494e4700000000000000604082015260600190565b634e487b7160e01b600052603260045260246000fd5b634e487b7160e01b600052601160045260246000fd5b6000828210156108d5576108d56108ad565b500390565b600082198211156108ed576108ed6108ad565b500190565b6000600019821415610906576109066108ad565b5060010190565b634e487b7160e01b600052603160045260246000fd5b600081610932576109326108ad565b506000190190565b6000825160005b8181101561095b5760208186018101518583015201610941565b8181111561096a576000828501525b509190910192915050565b60006020828403121561098757600080fd5b8151801515811461099757600080fd5b939250505056fea2646970667358221220c566113cb559479c957211415501c480375922fcd0d4a7b8674f022a6c3219f364736f6c63430008090033",
    "linkReferences": {}
  },
  "methodIdentifiers": {
    "MAX_CALLBACKS_COUNT()": "059c8479",
    "REQUIRED_INTERFACE()": "d92f7c0f",
    "VOTING()": "269e1d1a",
    "addCallback(address)": "33657836",
    "callbacks(uint256)": "00e0d3b5",
    "callbacksLength()": "91b33614",
    "insertCallback(address,uint256)": "fd2f1a44",
    "removeCallback(uint256)": "9fb56ad2"
  },
  "storageLayout": {
    "storage": [
      {
        "astId": 1376,
        "contract": "contracts/0.8.9/OrderedCallbacksArray.sol:OrderedCallbacksArray",
        "label": "callbacks",
        "offset": 0,
        "slot": "0",
        "type": "t_array(t_address)dyn_storage"
      }
    ],
    "types": {
      "t_address": {
        "encoding": "inplace",
        "label": "address",
        "numberOfBytes": "20"
      },
      "t_array(t_address)dyn_storage": {
        "encoding": "dynamic_array",
        "label": "address[]",
        "numberOfBytes": "32",
        "base": "t_address"
      }
    }
  },
  "id": 3
}