{
  "abi": [
    {
      "constant": true,
      "inputs": [],
      "name": "hasInitialized",
      "outputs": [
        {
          "name": "",
          "type": "bool"
        }
      ],
      "payable": false,
      "stateMutability": "view",
      "type": "function"
    },
    {
      "constant": true,
      "inputs": [],
      "name": "MAX_VESTINGS_PER_ADDRESS",
      "outputs": [
        {
          "name": "",
          "type": "uint256"
        }
      ],
      "payable": false,
      "stateMutability": "view",
      "type": "function"
    },
    {
      "constant": true,
      "inputs": [
        {
          "name": "_holder",
          "type": "address"
        }
      ],
      "name": "spendableBalanceOf",
      "outputs": [
        {
          "name": "",
          "type": "uint256"
        }
      ],
      "payable": false,
      "stateMutability": "view",
      "type": "function"
    },
    {
      "constant": false,
      "inputs": [
        {
          "name": "_receiver",
          "type": "address"
        },
        {
          "name": "_amount",
          "type": "uint256"
        },
        {
          "name": "_start",
          "type": "uint64"
        },
        {
          "name": "_cliff",
          "type": "uint64"
        },
        {
          "name": "_vested",
          "type": "uint64"
        },
        {
          "name": "_revokable",
          "type": "bool"
        }
      ],
      "name": "assignVested",
      "outputs": [
        {
          "name": "",
          "type": "uint256"
        }
      ],
      "payable": false,
      "stateMutability": "nonpayable",
      "type": "function"
    },
    {
      "constant": true,
      "inputs": [
        {
          "name": "_script",
          "type": "bytes"
        }
      ],
      "name": "getEVMScriptExecutor",
      "outputs": [
        {
          "name": "",
          "type": "address"
        }
      ],
      "payable": false,
      "stateMutability": "view",
      "type": "function"
    },
    {
      "constant": true,
      "inputs": [],
      "name": "getRecoveryVault",
      "outputs": [
        {
          "name": "",
          "type": "address"
        }
      ],
      "payable": false,
      "stateMutability": "view",
      "type": "function"
    },
    {
      "constant": true,
      "inputs": [
        {
          "name": "_recipient",
          "type": "address"
        },
        {
          "name": "_vestingId",
          "type": "uint256"
        }
      ],
      "name": "getVesting",
      "outputs": [
        {
          "name": "amount",
          "type": "uint256"
        },
        {
          "name": "start",
          "type": "uint64"
        },
        {
          "name": "cliff",
          "type": "uint64"
        },
        {
          "name": "vesting",
          "type": "uint64"
        },
        {
          "name": "revokable",
          "type": "bool"
        }
      ],
      "payable": false,
      "stateMutability": "view",
      "type": "function"
    },
    {
      "constant": false,
      "inputs": [
        {
          "name": "_receiver",
          "type": "address"
        },
        {
          "name": "_amount",
          "type": "uint256"
        }
      ],
      "name": "mint",
      "outputs": [],
      "payable": false,
      "stateMutability": "nonpayable",
      "type": "function"
    },
    {
      "constant": false,
      "inputs": [
        {
          "name": "_from",
          "type": "address"
        },
        {
          "name": "_to",
          "type": "address"
        },
        {
          "name": "_amount",
          "type": "uint256"
        }
      ],
      "name": "onTransfer",
      "outputs": [
        {
          "name": "",
          "type": "bool"
        }
      ],
      "payable": false,
      "stateMutability": "nonpayable",
      "type": "function"
    },
    {
      "constant": true,
      "inputs": [
        {
          "name": "_holder",
          "type": "address"
        },
        {
          "name": "_time",
          "type": "uint256"
        }
      ],
      "name": "transferableBalance",
      "outputs": [
        {
          "name": "",
          "type": "uint256"
        }
      ],
      "payable": false,
      "stateMutability": "view",
      "type": "function"
    },
    {
      "constant": true,
      "inputs": [
        {
          "name": "_token",
          "type": "address"
        }
      ],
      "name": "allowRecoverability",
      "outputs": [
        {
          "name": "",
          "type": "bool"
        }
      ],
      "payable": false,
      "stateMutability": "view",
      "type": "function"
    },
    {
      "constant": true,
      "inputs": [],
      "name": "appId",
      "outputs": [
        {
          "name": "",
          "type": "bytes32"
        }
      ],
      "payable": false,
      "stateMutability": "view",
      "type": "function"
    },
    {
      "constant": true,
      "inputs": [],
      "name": "ISSUE_ROLE",
      "outputs": [
        {
          "name": "",
          "type": "bytes32"
        }
      ],
      "payable": false,
      "stateMutability": "view",
      "type": "function"
    },
    {
      "constant": true,
      "inputs": [],
      "name": "getInitializationBlock",
      "outputs": [
        {
          "name": "",
          "type": "uint256"
        }
      ],
      "payable": false,
      "stateMutability": "view",
      "type": "function"
    },
    {
      "constant": true,
      "inputs": [
        {
          "name": "",
          "type": "address"
        }
      ],
      "name": "vestingsLengths",
      "outputs": [
        {
          "name": "",
          "type": "uint256"
        }
      ],
      "payable": false,
      "stateMutability": "view",
      "type": "function"
    },
    {
      "constant": false,
      "inputs": [
        {
          "name": "_token",
          "type": "address"
        }
      ],
      "name": "transferToVault",
      "outputs": [],
      "payable": false,
      "stateMutability": "nonpayable",
      "type": "function"
    },
    {
      "constant": false,
      "inputs": [
        {
          "name": "_holder",
          "type": "address"
        },
        {
          "name": "_amount",
          "type": "uint256"
        }
      ],
      "name": "burn",
      "outputs": [],
      "payable": false,
      "stateMutability": "nonpayable",
      "type": "function"
    },
    {
      "constant": true,
      "inputs": [
        {
          "name": "_sender",
          "type": "address"
        },
        {
          "name": "_role",
          "type": "bytes32"
        },
        {
          "name": "_params",
          "type": "uint256[]"
        }
      ],
      "name": "canPerform",
      "outputs": [
        {
          "name": "",
          "type": "bool"
        }
      ],
      "payable": false,
      "stateMutability": "view",
      "type": "function"
    },
    {
      "constant": true,
      "inputs": [],
      "name": "getEVMScriptRegistry",
      "outputs": [
        {
          "name": "",
          "type": "address"
        }
      ],
      "payable": false,
      "stateMutability": "view",
      "type": "function"
    },
    {
      "constant": true,
      "inputs": [],
      "name": "ASSIGN_ROLE",
      "outputs": [
        {
          "name": "",
          "type": "bytes32"
        }
      ],
      "payable": false,
      "stateMutability": "view",
      "type": "function"
    },
    {
      "constant": true,
      "inputs": [],
      "name": "BURN_ROLE",
      "outputs": [
        {
          "name": "",
          "type": "bytes32"
        }
      ],
      "payable": false,
      "stateMutability": "view",
      "type": "function"
    },
    {
      "constant": false,
      "inputs": [
        {
          "name": "_receiver",
          "type": "address"
        },
        {
          "name": "_amount",
          "type": "uint256"
        }
      ],
      "name": "assign",
      "outputs": [],
      "payable": false,
      "stateMutability": "nonpayable",
      "type": "function"
    },
    {
      "constant": true,
      "inputs": [
        {
          "name": "_sender",
          "type": "address"
        },
        {
          "name": "",
          "type": "bytes"
        }
      ],
      "name": "canForward",
      "outputs": [
        {
          "name": "",
          "type": "bool"
        }
      ],
      "payable": false,
      "stateMutability": "view",
      "type": "function"
    },
    {
      "constant": false,
      "inputs": [
        {
          "name": "_amount",
          "type": "uint256"
        }
      ],
      "name": "issue",
      "outputs": [],
      "payable": false,
      "stateMutability": "nonpayable",
      "type": "function"
    },
    {
      "constant": true,
      "inputs": [],
      "name": "kernel",
      "outputs": [
        {
          "name": "",
          "type": "address"
        }
      ],
      "payable": false,
      "stateMutability": "view",
      "type": "function"
    },
    {
      "constant": false,
      "inputs": [
        {
          "name": "_evmScript",
          "type": "bytes"
        }
      ],
      "name": "forward",
      "outputs": [],
      "payable": false,
      "stateMutability": "nonpayable",
      "type": "function"
    },
    {
      "constant": false,
      "inputs": [
        {
          "name": "",
          "type": "address"
        },
        {
          "name": "",
          "type": "address"
        },
        {
          "name": "",
          "type": "uint256"
        }
      ],
      "name": "onApprove",
      "outputs": [
        {
          "name": "",
          "type": "bool"
        }
      ],
      "payable": false,
      "stateMutability": "nonpayable",
      "type": "function"
    },
    {
      "constant": true,
      "inputs": [],
      "name": "isPetrified",
      "outputs": [
        {
          "name": "",
          "type": "bool"
        }
      ],
      "payable": false,
      "stateMutability": "view",
      "type": "function"
    },
    {
      "constant": false,
      "inputs": [
        {
          "name": "_token",
          "type": "address"
        },
        {
          "name": "_transferable",
          "type": "bool"
        },
        {
          "name": "_maxAccountTokens",
          "type": "uint256"
        }
      ],
      "name": "initialize",
      "outputs": [],
      "payable": false,
      "stateMutability": "nonpayable",
      "type": "function"
    },
    {
      "constant": true,
      "inputs": [],
      "name": "MINT_ROLE",
      "outputs": [
        {
          "name": "",
          "type": "bytes32"
        }
      ],
      "payable": false,
      "stateMutability": "view",
      "type": "function"
    },
    {
      "constant": true,
      "inputs": [],
      "name": "maxAccountTokens",
      "outputs": [
        {
          "name": "",
          "type": "uint256"
        }
      ],
      "payable": false,
      "stateMutability": "view",
      "type": "function"
    },
    {
      "constant": true,
      "inputs": [],
      "name": "REVOKE_VESTINGS_ROLE",
      "outputs": [
        {
          "name": "",
          "type": "bytes32"
        }
      ],
      "payable": false,
      "stateMutability": "view",
      "type": "function"
    },
    {
      "constant": false,
      "inputs": [
        {
          "name": "",
          "type": "address"
        }
      ],
      "name": "proxyPayment",
      "outputs": [
        {
          "name": "",
          "type": "bool"
        }
      ],
      "payable": true,
      "stateMutability": "payable",
      "type": "function"
    },
    {
      "constant": false,
      "inputs": [
        {
          "name": "_holder",
          "type": "address"
        },
        {
          "name": "_vestingId",
          "type": "uint256"
        }
      ],
      "name": "revokeVesting",
      "outputs": [],
      "payable": false,
      "stateMutability": "nonpayable",
      "type": "function"
    },
    {
      "constant": true,
      "inputs": [],
      "name": "token",
      "outputs": [
        {
          "name": "",
          "type": "address"
        }
      ],
      "payable": false,
      "stateMutability": "view",
      "type": "function"
    },
    {
      "constant": true,
      "inputs": [],
      "name": "isForwarder",
      "outputs": [
        {
          "name": "",
          "type": "bool"
        }
      ],
      "payable": false,
      "stateMutability": "pure",
      "type": "function"
    },
    {
      "anonymous": false,
      "inputs": [
        {
          "indexed": true,
          "name": "receiver",
          "type": "address"
        },
        {
          "indexed": false,
          "name": "vestingId",
          "type": "uint256"
        },
        {
          "indexed": false,
          "name": "amount",
          "type": "uint256"
        }
      ],
      "name": "NewVesting",
      "type": "event"
    },
    {
      "anonymous": false,
      "inputs": [
        {
          "indexed": true,
          "name": "receiver",
          "type": "address"
        },
        {
          "indexed": false,
          "name": "vestingId",
          "type": "uint256"
        },
        {
          "indexed": false,
          "name": "nonVestedAmount",
          "type": "uint256"
        }
      ],
      "name": "RevokeVesting",
      "type": "event"
    },
    {
      "anonymous": false,
      "inputs": [
        {
          "indexed": true,
          "name": "executor",
          "type": "address"
        },
        {
          "indexed": false,
          "name": "script",
          "type": "bytes"
        },
        {
          "indexed": false,
          "name": "input",
          "type": "bytes"
        },
        {
          "indexed": false,
          "name": "returnData",
          "type": "bytes"
        }
      ],
      "name": "ScriptResult",
      "type": "event"
    },
    {
      "anonymous": false,
      "inputs": [
        {
          "indexed": true,
          "name": "vault",
          "type": "address"
        },
        {
          "indexed": true,
          "name": "token",
          "type": "address"
        },
        {
          "indexed": false,
          "name": "amount",
          "type": "uint256"
        }
      ],
      "name": "RecoverToVault",
      "type": "event"
    }
  ],
  "bytecode": {
    "object": "0x6080604052620000146200001a60201b60201c565b62000231565b6200002a6200011c60201b60201c565b60408051808201909152601881527f494e49545f414c52454144595f494e495449414c495a454400000000000000006020820152901562000106576040517f08c379a00000000000000000000000000000000000000000000000000000000081526004018080602001828103825283818151815260200191508051906020019080838360005b83811015620000ca578181015183820152602001620000b0565b50505050905090810190601f168015620000f85780820380516001836020036101000a031916815260200191505b509250505060405180910390fd5b506200011a6000196200014f60201b60201c565b565b60006200014a600080516020620038fd83398151915260001b600019166200022960201b62002a831760201c565b905090565b6200015f6200011c60201b60201c565b60408051808201909152601881527f494e49545f414c52454144595f494e495449414c495a4544000000000000000060208201529015620001fe576040517f08c379a000000000000000000000000000000000000000000000000000000000815260040180806020018281038252838181518152602001915080519060200190808383600083811015620000ca578181015183820152602001620000b0565b5062000226600080516020620038fd833981519152826200022d602090811b620035c117901c565b50565b5490565b9055565b6136bc80620002416000396000f3006080604052600436106101a55760003560e01c63ffffffff1680630803fac0146101aa5780630db3971b146101d35780630f8f8b83146101fa57806321cb18cd1461021b5780632914b9bd1461025d57806332f0a3b5146102d25780633e05a36d146102e757806340c10f19146103445780634a3931491461036a57806372f8393c146103945780637e7db6e1146103b857806380afdea8146103d9578063856222f1146103ee5780638b3dd7491461040357806397f2562a146104185780639d4941d8146104395780639dc29fac1461045a578063a1658fad1461047e578063a479e508146104e5578063a51d9a8e146104fa578063b930908f1461050f578063be76048814610524578063c0774df314610548578063cc872b66146105af578063d4aae0c4146105c7578063d948d468146105dc578063da682aeb14610635578063de4796ed1461065f578063e37ff29f14610674578063e9a9c8501461069d578063ecfda432146106b2578063edc168f1146106c7578063f48c3054146106dc578063fa6799f2146106f0578063fc0c546a14610714578063fd64eccb14610729575b600080fd5b3480156101b657600080fd5b506101bf61073e565b604080519115158252519081900360200190f35b3480156101df57600080fd5b506101e8610767565b60408051918252519081900360200190f35b34801561020657600080fd5b506101e8600160a060020a036004351661076c565b34801561022757600080fd5b506101e8600160a060020a036004351660243567ffffffffffffffff6044358116906064358116906084351660a4351515610850565b34801561026957600080fd5b506040805160206004803580820135601f81018490048402850184019095528484526102b6943694929360249392840191908190840183828082843750949750610cce9650505050505050565b60408051600160a060020a039092168252519081900360200190f35b3480156102de57600080fd5b506102b6610db1565b3480156102f357600080fd5b5061030b600160a060020a0360043516602435610e26565b6040805195865267ffffffffffffffff948516602087015292841685840152921660608401529015156080830152519081900360a00190f35b34801561035057600080fd5b50610368600160a060020a0360043516602435610f71565b005b34801561037657600080fd5b506101bf600160a060020a03600435811690602435166044356110ce565b3480156103a057600080fd5b506101e8600160a060020a036004351660243561118b565b3480156103c457600080fd5b506101bf600160a060020a036004351661122d565b3480156103e557600080fd5b506101e8611242565b3480156103fa57600080fd5b506101e8611272565b34801561040f57600080fd5b506101e86112a7565b34801561042457600080fd5b506101e8600160a060020a03600435166112d2565b34801561044557600080fd5b50610368600160a060020a03600435166112e4565b34801561046657600080fd5b50610368600160a060020a0360043516602435611573565b34801561048a57600080fd5b5060408051602060046044358181013583810280860185019096528085526101bf958335600160a060020a03169560248035963696956064959394920192918291850190849080828437509497506116d39650505050505050565b3480156104f157600080fd5b506102b6611820565b34801561050657600080fd5b506101e86118d5565b34801561051b57600080fd5b506101e861190a565b34801561053057600080fd5b50610368600160a060020a036004351660243561193f565b34801561055457600080fd5b5060408051602060046024803582810135601f81018590048502860185019096528585526101bf958335600160a060020a0316953695604494919390910191908190840183828082843750949750611a059650505050505050565b3480156105bb57600080fd5b50610368600435611a9c565b3480156105d357600080fd5b506102b6611b66565b3480156105e857600080fd5b506040805160206004803580820135601f8101849004840285018401909552848452610368943694929360249392840191908190840183828082843750949750611b919650505050505050565b34801561064157600080fd5b506101bf600160a060020a0360043581169060243516604435611c8e565b34801561066b57600080fd5b506101bf611d2c565b34801561068057600080fd5b50610368600160a060020a03600435166024351515604435611d3f565b3480156106a957600080fd5b506101e8612019565b3480156106be57600080fd5b506101e861204e565b3480156106d357600080fd5b506101e8612054565b6101bf600160a060020a0360043516612089565b3480156106fc57600080fd5b50610368600160a060020a0360043516602435612125565b34801561072057600080fd5b506102b661255a565b34801561073557600080fd5b506101bf612569565b6000806107496112a7565b9050801580159061076157508061075e61256e565b10155b91505090565b603281565b600061077661073e565b60408051808201909152601481527f494e49545f4e4f545f494e495449414c495a454400000000000000000000000060208201529015156108385760405160e560020a62461bcd0281526004018080602001828103825283818151815260200191508051906020019080838360005b838110156107fd5781810151838201526020016107e5565b50505050905090810190601f16801561082a5780820380516001836020036101000a031916815260200191505b509250505060405180910390fd5b5061084a82610845612572565b612576565b92915050565b604080517f41535349474e5f524f4c450000000000000000000000000000000000000000008152905190819003600b019020600090819061089189896126cc565b61089c3383836116d3565b60408051808201909152600f815260008051602061367183398151915260208201529015156109105760405160e560020a62461bcd028152600401808060200182810382528381815181526020019150805190602001908083836000838110156107fd5781810151838201526020016107e5565b5060408051808201909152601081527f544d5f56455354494e475f544f5f544d000000000000000000000000000000006020820152600160a060020a038b163014156109a15760405160e560020a62461bcd028152600401808060200182810382528381815181526020019150805190602001908083836000838110156107fd5781810151838201526020016107e5565b50600160a060020a038a16600090815260036020908152604091829020548251808401909352601483527f544d5f544f4f5f4d414e595f56455354494e475300000000000000000000000091830191909152603211610a455760405160e560020a62461bcd028152600401808060200182810382528381815181526020019150805190602001908083836000838110156107fd5781810151838201526020016107e5565b508667ffffffffffffffff168867ffffffffffffffff1611158015610a7e57508567ffffffffffffffff168767ffffffffffffffff1611155b60408051808201909152601381527f544d5f57524f4e475f434c4946465f44415445000000000000000000000000006020820152901515610b045760405160e560020a62461bcd028152600401808060200182810382528381815181526020019150805190602001908083836000838110156107fd5781810151838201526020016107e5565b50600360008b600160a060020a0316600160a060020a03168152602001908152602001600020600081548092919060010191905055925060a0604051908101604052808a81526020018967ffffffffffffffff1681526020018867ffffffffffffffff1681526020018767ffffffffffffffff168152602001861515815250600260008c600160a060020a0316600160a060020a0316815260200190815260200160002060008581526020019081526020016000206000820151816000015560208201518160010160006101000a81548167ffffffffffffffff021916908367ffffffffffffffff16021790555060408201518160010160086101000a81548167ffffffffffffffff021916908367ffffffffffffffff16021790555060608201518160010160106101000a81548167ffffffffffffffff021916908367ffffffffffffffff16021790555060808201518160010160186101000a81548160ff021916908315150217905550905050610c7d8a8a6126e1565b60408051848152602081018b90528151600160a060020a038d16927f627ad26dcfe82ec79b33fda0ddd062f6fab9f4914acac8345f79090dfd86fb54928290030190a2509098975050505050505050565b6000610cd8611820565b600160a060020a03166304bf2a7f836040518263ffffffff1660e01b81526004018080602001828103825283818151815260200191508051906020019080838360005b83811015610d33578181015183820152602001610d1b565b50505050905090810190601f168015610d605780820380516001836020036101000a031916815260200191505b5092505050602060405180830381600087803b158015610d7f57600080fd5b505af1158015610d93573d6000803e3d6000fd5b505050506040513d6020811015610da957600080fd5b505192915050565b6000610dbb611b66565b600160a060020a03166332f0a3b56040518163ffffffff1660e01b8152600401602060405180830381600087803b158015610df557600080fd5b505af1158015610e09573d6000803e3d6000fd5b505050506040513d6020811015610e1f57600080fd5b5051905090565b60008060008060008087876003600083600160a060020a0316600160a060020a031681526020019081526020016000205481106040805190810160405280600d81526020017f544d5f4e4f5f56455354494e4700000000000000000000000000000000000000815250901515610ee15760405160e560020a62461bcd028152600401808060200182810382528381815181526020019150805190602001908083836000838110156107fd5781810151838201526020016107e5565b50505050600160a060020a03969096166000908152600260209081526040808320978352969052949094208054600190910154909667ffffffffffffffff8083169750680100000000000000008304811696507001000000000000000000000000000000008304169450780100000000000000000000000000000000000000000000000090910460ff1692509050565b604080517f4d494e545f524f4c45000000000000000000000000000000000000000000000081529051908190036009019020610fad83836126cc565b610fb83383836116d3565b60408051808201909152600f8152600080516020613671833981519152602082015290151561102c5760405160e560020a62461bcd028152600401808060200182810382528381815181526020019150805190602001908083836000838110156107fd5781810151838201526020016107e5565b5060408051808201909152601681527f544d5f4d494e545f52454345495645525f49535f544d000000000000000000006020820152600160a060020a0385163014156110bd5760405160e560020a62461bcd028152600401808060200182810382528381815181526020019150805190602001908083836000838110156107fd5781810151838201526020016107e5565b506110c8848461289c565b50505050565b6000805460408051808201909152601381527f544d5f43414c4c45525f4e4f545f544f4b454e00000000000000000000000000602082015290600160a060020a031633146111615760405160e560020a62461bcd028152600401808060200182810382528381815181526020019150805190602001908083836000838110156107fd5781810151838201526020016107e5565b5061116c83836129c9565b801561118357508161118085610845612572565b10155b949350505050565b600061119561073e565b60408051808201909152601481527f494e49545f4e4f545f494e495449414c495a4544000000000000000000000000602082015290151561121b5760405160e560020a62461bcd028152600401808060200182810382528381815181526020019150805190602001908083836000838110156107fd5781810151838201526020016107e5565b506112268383612576565b9392505050565b600054600160a060020a039081169116141590565b600061126d7fd625496217aa6a3453eecb9c3489dc5a53e6c67b444329ea2b2cbc9ff547639b612a83565b905090565b604080517f49535355455f524f4c45000000000000000000000000000000000000000000008152905190819003600a01902081565b600061126d7febb05b386a8d34882b8711d156f463690983dc47815980fb82aeeff1aa43579e612a83565b60036020526000908152604090205481565b60008060006112f28461122d565b60408051808201909152601281527f5245434f5645525f444953414c4c4f574544000000000000000000000000000060208201529015156113785760405160e560020a62461bcd028152600401808060200182810382528381815181526020019150805190602001908083836000838110156107fd5781810151838201526020016107e5565b50611381610db1565b925061138c83612a8b565b60408051808201909152601a81527f5245434f5645525f5641554c545f4e4f545f434f4e545241435400000000000060208201529015156114125760405160e560020a62461bcd028152600401808060200182810382528381815181526020019150805190602001908083836000838110156107fd5781810151838201526020016107e5565b50600160a060020a03841615156114635760405130319250600160a060020a0384169083156108fc029084906000818181858888f1935050505015801561145d573d6000803e3d6000fd5b50611522565b508261147e600160a060020a0382163063ffffffff612ab816565b915061149a600160a060020a038216848463ffffffff612ba216565b60408051808201909152601d81527f5245434f5645525f544f4b454e5f5452414e534645525f4641494c454400000060208201529015156115205760405160e560020a62461bcd028152600401808060200182810382528381815181526020019150805190602001908083836000838110156107fd5781810151838201526020016107e5565b505b83600160a060020a031683600160a060020a03167f596caf56044b55fb8c4ca640089bbc2b63cae3e978b851f5745cbb7c5b288e02846040518082815260200191505060405180910390a350505050565b604080517f4255524e5f524f4c450000000000000000000000000000000000000000000000815290519081900360090190206115af83836126cc565b6115ba3383836116d3565b60408051808201909152600f8152600080516020613671833981519152602082015290151561162e5760405160e560020a62461bcd028152600401808060200182810382528381815181526020019150805190602001908083836000838110156107fd5781810151838201526020016107e5565b5060008054604080517fd3ce77fe000000000000000000000000000000000000000000000000000000008152600160a060020a038881166004830152602482018890529151919092169263d3ce77fe92604480820193602093909283900390910190829087803b1580156116a157600080fd5b505af11580156116b5573d6000803e3d6000fd5b505050506040513d60208110156116cb57600080fd5b505050505050565b6000806116de61073e565b15156116ed5760009150611818565b6116f5611b66565b9050600160a060020a03811615156117105760009150611818565b80600160a060020a031663fdef910686308761172b88612c18565b60405163ffffffff861660e01b8152600160a060020a03808616600483019081529085166024830152604482018490526080606483019081528351608484015283519192909160a490910190602085019080838360005b8381101561179a578181015183820152602001611782565b50505050905090810190601f1680156117c75780820380516001836020036101000a031916815260200191505b5095505050505050602060405180830381600087803b1580156117e957600080fd5b505af11580156117fd573d6000803e3d6000fd5b505050506040513d602081101561181357600080fd5b505191505b509392505050565b60008061182b611b66565b604080517fbe00bbd80000000000000000000000000000000000000000000000000000000081527fd6f028ca0e8edb4a8c9757ca4fdccab25fa1e0317da1188108f7d2dee14902fb60048201527fddbcfd564f642ab5627cf68b9b7d374fb4f8a36e941a75d89c87998cef03bd6160248201529051600160a060020a03929092169163be00bbd8916044808201926020929091908290030181600087803b158015610d7f57600080fd5b604080517f41535349474e5f524f4c450000000000000000000000000000000000000000008152905190819003600b01902081565b604080517f4255524e5f524f4c4500000000000000000000000000000000000000000000008152905190819003600901902081565b604080517f41535349474e5f524f4c450000000000000000000000000000000000000000008152905190819003600b01902061197b83836126cc565b6119863383836116d3565b60408051808201909152600f815260008051602061367183398151915260208201529015156119fa5760405160e560020a62461bcd028152600401808060200182810382528381815181526020019150805190602001908083836000838110156107fd5781810151838201526020016107e5565b506110c884846126e1565b6000611a0f61073e565b80156112265750600080546040805160e060020a6370a08231028152600160a060020a038781166004830152915191909216916370a0823191602480830192602092919082900301818787803b158015611a6857600080fd5b505af1158015611a7c573d6000803e3d6000fd5b505050506040513d6020811015611a9257600080fd5b5051119392505050565b604080517f49535355455f524f4c45000000000000000000000000000000000000000000008152905190819003600a019020611ad782612c22565b611ae23383836116d3565b60408051808201909152600f81526000805160206136718339815191526020820152901515611b565760405160e560020a62461bcd028152600401808060200182810382528381815181526020019150805190602001908083836000838110156107fd5781810151838201526020016107e5565b50611b61308461289c565b505050565b600061126d7f4172f0f7d2289153072b0a6ca36959e0cbe2efc3afe50fc81636caa96338137b612a83565b606080611b9e3384611a05565b60408051808201909152601281527f544d5f43414e5f4e4f545f464f525741524400000000000000000000000000006020820152901515611c245760405160e560020a62461bcd028152600401808060200182810382528381815181526020019150805190602001908083836000838110156107fd5781810151838201526020016107e5565b506040805160008152600160208083018281526060840185529295509192909190850190803883395050600080548351939450600160a060020a0316928492508110611c6c57fe5b600160a060020a039092166020928302909101909101526110c8838383612c63565b6000805460408051808201909152601381527f544d5f43414c4c45525f4e4f545f544f4b454e00000000000000000000000000602082015290600160a060020a03163314611d215760405160e560020a62461bcd028152600401808060200182810382528381815181526020019150805190602001908083836000838110156107fd5781810151838201526020016107e5565b506001949350505050565b6000600019611d396112a7565b14905090565b611d476112a7565b60408051808201909152601881527f494e49545f414c52454144595f494e495449414c495a4544000000000000000060208201529015611dcc5760405160e560020a62461bcd028152600401808060200182810382528381815181526020019150805190602001908083836000838110156107fd5781810151838201526020016107e5565b50611dd5613268565b30600160a060020a031683600160a060020a031663f77c47916040518163ffffffff1660e01b8152600401602060405180830381600087803b158015611e1a57600080fd5b505af1158015611e2e573d6000803e3d6000fd5b505050506040513d6020811015611e4457600080fd5b505160408051808201909152601381527f544d5f544f4b454e5f434f4e54524f4c4c455200000000000000000000000000602082015291600160a060020a0390911614611ed65760405160e560020a62461bcd028152600401808060200182810382528381815181526020019150805190602001908083836000838110156107fd5781810151838201526020016107e5565b506000805473ffffffffffffffffffffffffffffffffffffffff1916600160a060020a0385161790558015611f0b5780611f0f565b6000195b6001819055508115156000809054906101000a9004600160a060020a0316600160a060020a031663bef97c876040518163ffffffff1660e01b8152600401602060405180830381600087803b158015611f6757600080fd5b505af1158015611f7b573d6000803e3d6000fd5b505050506040513d6020811015611f9157600080fd5b5051151514611b615760008054604080517ff41e60c500000000000000000000000000000000000000000000000000000000815285151560048201529051600160a060020a039092169263f41e60c59260248084019382900301818387803b158015611ffc57600080fd5b505af1158015612010573d6000803e3d6000fd5b50505050505050565b604080517f4d494e545f524f4c4500000000000000000000000000000000000000000000008152905190819003600901902081565b60015481565b604080517f5245564f4b455f56455354494e47535f524f4c450000000000000000000000008152905190819003601401902081565b6000805460408051808201909152601381527f544d5f43414c4c45525f4e4f545f544f4b454e00000000000000000000000000602082015290600160a060020a0316331461211c5760405160e560020a62461bcd028152600401808060200182810382528381815181526020019150805190602001908083836000838110156107fd5781810151838201526020016107e5565b50600092915050565b604080517f5245564f4b455f56455354494e47535f524f4c4500000000000000000000000081529051908190036014019020600090819061216585613330565b6121703383836116d3565b60408051808201909152600f815260008051602061367183398151915260208201529015156121e45760405160e560020a62461bcd028152600401808060200182810382528381815181526020019150805190602001908083836000838110156107fd5781810151838201526020016107e5565b50600160a060020a038616600090815260036020908152604091829020548251808401909352600d83527f544d5f4e4f5f56455354494e47000000000000000000000000000000000000009183019190915287918791821061228b5760405160e560020a62461bcd028152600401808060200182810382528381815181526020019150805190602001908083836000838110156107fd5781810151838201526020016107e5565b50600160a060020a03881660009081526002602090815260408083208a845282529182902060018101548351808501909452601884527f544d5f56455354494e475f4e4f545f5245564f4b41424c4500000000000000009284019290925297507801000000000000000000000000000000000000000000000000900460ff16151561235b5760405160e560020a62461bcd028152600401808060200182810382528381815181526020019150805190602001908083836000838110156107fd5781810151838201526020016107e5565b5085546123a69061236a612572565b600189015467ffffffffffffffff8082169168010000000000000000810482169170010000000000000000000000000000000090910416613344565b600160a060020a03808a1660008181526002602090815260408083208d84528252808320838155600101805478ffffffffffffffffffffffffffffffffffffffffffffffffff19169055825481517f23b872dd0000000000000000000000000000000000000000000000000000000081526004810195909552306024860152604485018790529051959a50909316936323b872dd936064808501949193918390030190829087803b15801561245a57600080fd5b505af115801561246e573d6000803e3d6000fd5b505050506040513d602081101561248457600080fd5b50516040805180820190915260208082527f544d5f5245564f4b455f5452414e534645525f46524f4d5f52455645525445449082015290151561250c5760405160e560020a62461bcd028152600401808060200182810382528381815181526020019150805190602001908083836000838110156107fd5781810151838201526020016107e5565b5060408051888152602081018790528151600160a060020a038b16927fafc516b1509f836efdc27d64d966d14f82ef53f456f0de74c12ac8a651a084cc928290030190a25050505050505050565b600054600160a060020a031681565b600190565b4390565b4290565b600080546040805160e060020a6370a08231028152600160a060020a03868116600483015291518493849384938493849392909216916370a082319160248082019260209290919082900301818787803b1580156125d357600080fd5b505af11580156125e7573d6000803e3d6000fd5b505050506040513d60208110156125fd57600080fd5b50519450600160a060020a03881630146126c057600160a060020a038816600090815260036020526040812054945092505b838310156126c057600160a060020a03881660009081526002602090815260408083208684529091529020805460018201549193506126a191899067ffffffffffffffff8082169168010000000000000000810482169170010000000000000000000000000000000090910416613344565b90506126b3858263ffffffff6133be16565b945060019092019161262f565b50929695505050505050565b606061122683600160a060020a031683613459565b6126eb82826129c9565b60408051808201909152601a81527f544d5f42414c414e43455f494e435f4e4f545f414c4c4f57454400000000000060208201529015156127715760405160e560020a62461bcd028152600401808060200182810382528381815181526020019150805190602001908083836000838110156107fd5781810151838201526020016107e5565b5060008054604080517f23b872dd000000000000000000000000000000000000000000000000000000008152306004820152600160a060020a03868116602483015260448201869052915191909216926323b872dd92606480820193602093909283900390910190829087803b1580156127ea57600080fd5b505af11580156127fe573d6000803e3d6000fd5b505050506040513d602081101561281457600080fd5b50516040805180820190915260208082527f544d5f41535349474e5f5452414e534645525f46524f4d5f524556455254454490820152901515611b615760405160e560020a62461bcd028152600401808060200182810382528381815181526020019150805190602001908083836000838110156107fd5781810151838201526020016107e5565b6128a682826129c9565b60408051808201909152601a81527f544d5f42414c414e43455f494e435f4e4f545f414c4c4f574544000000000000602082015290151561292c5760405160e560020a62461bcd028152600401808060200182810382528381815181526020019150805190602001908083836000838110156107fd5781810151838201526020016107e5565b5060008054604080517f827f32c0000000000000000000000000000000000000000000000000000000008152600160a060020a038681166004830152602482018690529151919092169263827f32c092604480820193602093909283900390910190829087803b15801561299f57600080fd5b505af11580156129b3573d6000803e3d6000fd5b505050506040513d60208110156110c857600080fd5b6000600160a060020a0383163014156129e45750600161084a565b600154600080546040805160e060020a6370a08231028152600160a060020a0388811660048301529151612a7a94889493909316926370a0823192602480820193602093909283900390910190829087803b158015612a4257600080fd5b505af1158015612a56573d6000803e3d6000fd5b505050506040513d6020811015612a6c57600080fd5b50519063ffffffff6134b416565b11159392505050565b5490565b5490565b600080600160a060020a0383161515612aa75760009150612ab2565b823b90506000811191505b50919050565b60408051600160a060020a038316602480830191909152825180830390910181526044909101909152602081018051600160e060020a031660e060020a6370a08231021790526000908180612b0d8684613542565b60408051808201909152601c81527f534146455f4552435f32305f42414c414e43455f52455645525445440000000060208201529193509150821515612b985760405160e560020a62461bcd028152600401808060200182810382528381815181526020019150805190602001908083836000838110156107fd5781810151838201526020016107e5565b5095945050505050565b60408051600160a060020a03841660248201526044808201849052825180830390910181526064909101909152602081018051600160e060020a03167fa9059cbb00000000000000000000000000000000000000000000000000000000179052600090612c0f8582613573565b95945050505050565b8051602002815290565b6040805160018082528183019092526060916020808301908038833901905050905081816000815181101515612c5457fe5b60209081029091010152919050565b6060600080606080612c7361073e565b60408051808201909152601481527f494e49545f4e4f545f494e495449414c495a45440000000000000000000000006020820152901515612cf95760405160e560020a62461bcd028152600401808060200182810382528381815181526020019150805190602001908083836000838110156107fd5781810151838201526020016107e5565b50600080612d05611b66565b9150612d0f611242565b9050612d1a8a610cce565b60408051808201909152601b81527f45564d52554e5f4558454355544f525f554e415641494c41424c4500000000006020820152909650600160a060020a0387161515612dac5760405160e560020a62461bcd028152600401808060200182810382528381815181526020019150805190602001908083836000838110156107fd5781810151838201526020016107e5565b506040516060602482019081528b5160848301528b517f279cea3500000000000000000000000000000000000000000000000000000000975087928d928d928d9282916044820191606481019160a490910190602089019080838360005b83811015612e22578181015183820152602001612e0a565b50505050905090810190601f168015612e4f5780820380516001836020036101000a031916815260200191505b50848103835286518152865160209182019188019080838360005b83811015612e82578181015183820152602001612e6a565b50505050905090810190601f168015612eaf5780820380516001836020036101000a031916815260200191505b508481038252855181528551602091820191808801910280838360005b83811015612ee4578181015183820152602001612ecc565b50505050905001965050505050505060405160208183030381529060405290600160e060020a031916602082018051600160e060020a0383818316178352505050509350600080855160208701895af46040519350808015612fa857603f3d118015612f5d5760203d03806020883e8601604052612fa2565b60e560020a62461bcd02865260206004870152601e60248701527f45564d52554e5f4558454355544f525f494e56414c49445f52455455524e00006044870152606486fd5b50612fb1565b3d6000863e3d85fd5b505085600160a060020a03167f5229a5dba83a54ae8cb5b51bdd6de9474cacbe9dd332f5185f3a4f4f2e3f4ad98b8b8660405180806020018060200180602001848103845287818151815260200191508051906020019080838360005b8381101561302657818101518382015260200161300e565b50505050905090810190601f1680156130535780820380516001836020036101000a031916815260200191505b50848103835286518152865160209182019188019080838360005b8381101561308657818101518382015260200161306e565b50505050905090810190601f1680156130b35780820380516001836020036101000a031916815260200191505b50848103825285518152855160209182019187019080838360005b838110156130e65781810151838201526020016130ce565b50505050905090810190601f1680156131135780820380516001836020036101000a031916815260200191505b50965050505050505060405180910390a282965081600160a060020a0316613139611b66565b600160a060020a0316146040805190810160405280601f81526020017f45564d52554e5f50524f5445435445445f53544154455f4d4f444946494544008152509015156131cb5760405160e560020a62461bcd028152600401808060200182810382528381815181526020019150805190602001908083836000838110156107fd5781810151838201526020016107e5565b50806131d5611242565b60408051808201909152601f81527f45564d52554e5f50524f5445435445445f53544154455f4d4f444946494544006020820152911461325a5760405160e560020a62461bcd028152600401808060200182810382528381815181526020019150805190602001908083836000838110156107fd5781810151838201526020016107e5565b505050505050509392505050565b6132706112a7565b60408051808201909152601881527f494e49545f414c52454144595f494e495449414c495a45440000000000000000602082015290156132f55760405160e560020a62461bcd028152600401808060200182810382528381815181526020019150805190602001908083836000838110156107fd5781810151838201526020016107e5565b5061332e61330161256e565b7febb05b386a8d34882b8711d156f463690983dc47815980fb82aeeff1aa43579e9063ffffffff6135c116565b565b606061084a82600160a060020a0316612c22565b6000808286106133575760009150612b98565b8386101561336757869150612b98565b613377838663ffffffff6133be16565b61339761338a888863ffffffff6133be16565b899063ffffffff6135c516565b8115156133a057fe5b0490506133b3878263ffffffff6133be16565b979650505050505050565b60408051808201909152601281527f4d4154485f5355425f554e444552464c4f570000000000000000000000000000602082015260009081908484111561344a5760405160e560020a62461bcd028152600401808060200182810382528381815181526020019150805190602001908083836000838110156107fd5781810151838201526020016107e5565b505050808203805b5092915050565b60408051600280825260608083018452926020830190803883390190505090508281600081518110151561348957fe5b6020908102909101015280518290829060019081106134a457fe5b6020908102909101015292915050565b60408051808201909152601181527f4d4154485f4144445f4f564552464c4f57000000000000000000000000000000602082015260009083830190848210156118185760405160e560020a62461bcd028152600401808060200182810382528381815181526020019150805190602001908083836000838110156107fd5781810151838201526020016107e5565b6000806000806040516020818751602089018a5afa9250600083111561356757805191505b50909590945092505050565b6000806040516020818551602087016000895af160008111156135b7573d80156135a457602081146135ad576135b5565b600193506135b5565b600183511493505b505b5090949350505050565b9055565b6000808315156135d85760009150613452565b508282028284828115156135e857fe5b60408051808201909152601181527f4d4154485f4d554c5f4f564552464c4f57000000000000000000000000000000602082015292919004146118185760405160e560020a62461bcd028152600401808060200182810382528381815181526020019150805190602001908083836000838110156107fd5781810151838201526020016107e556004150505f415554485f4641494c45440000000000000000000000000000000000a165627a7a72305820b1dfdbcd39c1b6a4f19debfdb62a3856a59c27ee272dff52580767d07a32f47e0029ebb05b386a8d34882b8711d156f463690983dc47815980fb82aeeff1aa43579e",
    "linkReferences": {}
  },
  "methodIdentifiers": {
    "ASSIGN_ROLE()": "a51d9a8e",
    "BURN_ROLE()": "b930908f",
    "ISSUE_ROLE()": "856222f1",
    "MAX_VESTINGS_PER_ADDRESS()": "0db3971b",
    "MINT_ROLE()": "e9a9c850",
    "REVOKE_VESTINGS_ROLE()": "edc168f1",
    "allowRecoverability(address)": "7e7db6e1",
    "appId()": "80afdea8",
    "assign(address,uint256)": "be760488",
    "assignVested(address,uint256,uint64,uint64,uint64,bool)": "21cb18cd",
    "burn(address,uint256)": "9dc29fac",
    "canForward(address,bytes)": "c0774df3",
    "canPerform(address,bytes32,uint256[])": "a1658fad",
    "forward(bytes)": "d948d468",
    "getEVMScriptExecutor(bytes)": "2914b9bd",
    "getEVMScriptRegistry()": "a479e508",
    "getInitializationBlock()": "8b3dd749",
    "getRecoveryVault()": "32f0a3b5",
    "getVesting(address,uint256)": "3e05a36d",
    "hasInitialized()": "0803fac0",
    "initialize(address,bool,uint256)": "e37ff29f",
    "isForwarder()": "fd64eccb",
    "isPetrified()": "de4796ed",
    "issue(uint256)": "cc872b66",
    "kernel()": "d4aae0c4",
    "maxAccountTokens()": "ecfda432",
    "mint(address,uint256)": "40c10f19",
    "onApprove(address,address,uint256)": "da682aeb",
    "onTransfer(address,address,uint256)": "4a393149",
    "proxyPayment(address)": "f48c3054",
    "revokeVesting(address,uint256)": "fa6799f2",
    "spendableBalanceOf(address)": "0f8f8b83",
    "token()": "fc0c546a",
    "transferToVault(address)": "9d4941d8",
    "transferableBalance(address,uint256)": "72f8393c",
    "vestingsLengths(address)": "97f2562a"
  },
  "storageLayout": {
    "storage": [],
    "types": {}
  },
  "id": 42
}