{
  "abi": [
    {
      "constant": true,
      "inputs": [],
      "name": "isStopped",
      "outputs": [
        {
          "name": "",
          "type": "bool"
        }
      ],
      "payable": false,
      "stateMutability": "view",
      "type": "function"
    },
    {
      "anonymous": false,
      "inputs": [],
      "name": "Stopped",
      "type": "event"
    },
    {
      "anonymous": false,
      "inputs": [],
      "name": "Resumed",
      "type": "event"
    }
  ],
  "bytecode": {
    "object": "0x608060405234801561001057600080fd5b5060bf8061001f6000396000f30060806040526004361060225760003560e01c63ffffffff1680633f683b6a146027575b600080fd5b348015603257600080fd5b506039604d565b604080519115158252519081900360200190f35b604080517f6c69646f2e5061757361626c652e616374697665466c6167000000000000000081529051908190036018019020600090608990608f565b15905090565b54905600a165627a7a72305820dafd5e78247d98dae7300393147f0fe712a57c16b3233644c2e9684d817bc1840029",
    "linkReferences": {}
  },
  "methodIdentifiers": {
    "isStopped()": "3f683b6a"
  },
  "storageLayout": {
    "storage": [],
    "types": {}
  },
  "id": 10
}