{
  "abi": [
    {
      "constant": true,
      "inputs": [],
      "name": "proxyType",
      "outputs": [
        {
          "name": "proxyTypeId",
          "type": "uint256"
        }
      ],
      "payable": false,
      "stateMutability": "pure",
      "type": "function"
    },
    {
      "constant": true,
      "inputs": [
        {
          "name": "",
          "type": "bytes32"
        },
        {
          "name": "",
          "type": "bytes32"
        }
      ],
      "name": "apps",
      "outputs": [
        {
          "name": "",
          "type": "address"
        }
      ],
      "payable": false,
      "stateMutability": "view",
      "type": "function"
    },
    {
      "constant": true,
      "inputs": [],
      "name": "isDepositable",
      "outputs": [
        {
          "name": "",
          "type": "bool"
        }
      ],
      "payable": false,
      "stateMutability": "view",
      "type": "function"
    },
    {
      "constant": true,
      "inputs": [],
      "name": "implementation",
      "outputs": [
        {
          "name": "",
          "type": "address"
        }
      ],
      "payable": false,
      "stateMutability": "view",
      "type": "function"
    },
    {
      "constant": true,
      "inputs": [],
      "name": "recoveryVaultAppId",
      "outputs": [
        {
          "name": "",
          "type": "bytes32"
        }
      ],
      "payable": false,
      "stateMutability": "view",
      "type": "function"
    },
    {
      "inputs": [
        {
          "name": "_kernelImpl",
          "type": "address"
        }
      ],
      "payable": false,
      "stateMutability": "nonpayable",
      "type": "constructor"
    },
    {
      "payable": true,
      "stateMutability": "payable",
      "type": "fallback"
    },
    {
      "anonymous": false,
      "inputs": [
        {
          "indexed": false,
          "name": "sender",
          "type": "address"
        },
        {
          "indexed": false,
          "name": "value",
          "type": "uint256"
        }
      ],
      "name": "ProxyDeposit",
      "type": "event"
    },
    {
      "anonymous": false,
      "inputs": [
        {
          "indexed": true,
          "name": "namespace",
          "type": "bytes32"
        },
        {
          "indexed": true,
          "name": "appId",
          "type": "bytes32"
        },
        {
          "indexed": false,
          "name": "app",
          "type": "address"
        }
      ],
      "name": "SetApp",
      "type": "event"
    }
  ],
  "bytecode": {
    "object": "0x608060405234801561001057600080fd5b506040516020806104c083398101604052516100328161011e602090811b901c565b151561003d57600080fd5b7f3b4bf6bf3ad5000ecf0f989d5befde585c6860fea3e574a4fab4c49d1c177d9c60008190527fc67454ed56db7ff90a4bb32fc9a8de1ab3174b221e5fecea22b7503a3111791f60209081527f8e2ed18767e9c33b25344c240cdf92034fae56be99e2c07f3d9946d949ffede48054600160a060020a031916600160a060020a03851690811790915560408051918252517fc681a85306374a5ab27f0bbc385296a54bcd314a1948b6cf61c4ea1bc44bb9f8927f2ec1ae0a449b7ae354b9dacfb3ade6b6332ba26b7fcbb935835fa39dd7263b23928290030190a35061014b565b600080600160a060020a038316151561013a5760009150610145565b823b90506000811191505b50919050565b6103668061015a6000396000f3006080604052600436106100505760003560e01c63ffffffff1680634555d5c91461010f5780634558850c1461013657806348a0c8dd1461017a5780635c60da1b146101a357806386070cfe146101b8575b6127107f665fd576fbbe6f247aff98f5c94a561e3f71ec2d3c988d56f12d342396c50cea6000825a10156100c55760003411361583541616156100c0576040513381523460208201527f15eeaa57c7bd188c1388020bcadc2c436ec60d647d36ef5b9eb3c742217ddee1604082a1005b600080fd5b6100cd6101cd565b905061010a816000368080601f01602080910402602001604051908101604052809392919081815260200183838082843750610250945050505050565b505050005b34801561011b57600080fd5b50610124610291565b60408051918252519081900360200190f35b34801561014257600080fd5b50610151600435602435610296565b6040805173ffffffffffffffffffffffffffffffffffffffff9092168252519081900360200190f35b34801561018657600080fd5b5061018f6102c6565b604080519115158252519081900360200190f35b3480156101af57600080fd5b506101516101cd565b3480156101c457600080fd5b506101246102f6565b7f3b4bf6bf3ad5000ecf0f989d5befde585c6860fea3e574a4fab4c49d1c177d9c6000527fc67454ed56db7ff90a4bb32fc9a8de1ab3174b221e5fecea22b7503a3111791f6020527f8e2ed18767e9c33b25344c240cdf92034fae56be99e2c07f3d9946d949ffede45473ffffffffffffffffffffffffffffffffffffffff1690565b600061025b836102fc565b151561026657600080fd5b612710905060008083516020850186855a03f43d604051816000823e82801561028d578282f35b8282fd5b600290565b600060208181529281526040808220909352908152205473ffffffffffffffffffffffffffffffffffffffff1681565b60006102f17f665fd576fbbe6f247aff98f5c94a561e3f71ec2d3c988d56f12d342396c50cea610336565b905090565b60015481565b60008073ffffffffffffffffffffffffffffffffffffffff831615156103255760009150610330565b823b90506000811191505b50919050565b54905600a165627a7a72305820d38831277b324815bc24f120417dbcf72fadbe26510a98aa54b728fa6234e5d90029",
    "linkReferences": {}
  },
  "methodIdentifiers": {
    "apps(bytes32,bytes32)": "4558850c",
    "implementation()": "5c60da1b",
    "isDepositable()": "48a0c8dd",
    "proxyType()": "4555d5c9",
    "recoveryVaultAppId()": "86070cfe"
  },
  "storageLayout": {
    "storage": [],
    "types": {}
  },
  "id": 94
}