{
  "abi": [
    {
      "constant": true,
      "inputs": [
        {
          "name": "interfaceID",
          "type": "bytes4"
        }
      ],
      "name": "supportsInterface",
      "outputs": [
        {
          "name": "",
          "type": "bool"
        }
      ],
      "payable": false,
      "stateMutability": "pure",
      "type": "function"
    },
    {
      "constant": false,
      "inputs": [
        {
          "name": "node",
          "type": "bytes32"
        },
        {
          "name": "key",
          "type": "string"
        },
        {
          "name": "value",
          "type": "string"
        }
      ],
      "name": "setText",
      "outputs": [],
      "payable": false,
      "stateMutability": "nonpayable",
      "type": "function"
    },
    {
      "constant": true,
      "inputs": [
        {
          "name": "node",
          "type": "bytes32"
        },
        {
          "name": "contentTypes",
          "type": "uint256"
        }
      ],
      "name": "ABI",
      "outputs": [
        {
          "name": "contentType",
          "type": "uint256"
        },
        {
          "name": "data",
          "type": "bytes"
        }
      ],
      "payable": false,
      "stateMutability": "view",
      "type": "function"
    },
    {
      "constant": false,
      "inputs": [
        {
          "name": "node",
          "type": "bytes32"
        },
        {
          "name": "x",
          "type": "bytes32"
        },
        {
          "name": "y",
          "type": "bytes32"
        }
      ],
      "name": "setPubkey",
      "outputs": [],
      "payable": false,
      "stateMutability": "nonpayable",
      "type": "function"
    },
    {
      "constant": true,
      "inputs": [
        {
          "name": "node",
          "type": "bytes32"
        }
      ],
      "name": "content",
      "outputs": [
        {
          "name": "ret",
          "type": "bytes32"
        }
      ],
      "payable": false,
      "stateMutability": "view",
      "type": "function"
    },
    {
      "constant": true,
      "inputs": [
        {
          "name": "node",
          "type": "bytes32"
        }
      ],
      "name": "addr",
      "outputs": [
        {
          "name": "ret",
          "type": "address"
        }
      ],
      "payable": false,
      "stateMutability": "view",
      "type": "function"
    },
    {
      "constant": true,
      "inputs": [
        {
          "name": "node",
          "type": "bytes32"
        },
        {
          "name": "key",
          "type": "string"
        }
      ],
      "name": "text",
      "outputs": [
        {
          "name": "ret",
          "type": "string"
        }
      ],
      "payable": false,
      "stateMutability": "view",
      "type": "function"
    },
    {
      "constant": false,
      "inputs": [
        {
          "name": "node",
          "type": "bytes32"
        },
        {
          "name": "contentType",
          "type": "uint256"
        },
        {
          "name": "data",
          "type": "bytes"
        }
      ],
      "name": "setABI",
      "outputs": [],
      "payable": false,
      "stateMutability": "nonpayable",
      "type": "function"
    },
    {
      "constant": true,
      "inputs": [
        {
          "name": "node",
          "type": "bytes32"
        }
      ],
      "name": "name",
      "outputs": [
        {
          "name": "ret",
          "type": "string"
        }
      ],
      "payable": false,
      "stateMutability": "view",
      "type": "function"
    },
    {
      "constant": false,
      "inputs": [
        {
          "name": "node",
          "type": "bytes32"
        },
        {
          "name": "name",
          "type": "string"
        }
      ],
      "name": "setName",
      "outputs": [],
      "payable": false,
      "stateMutability": "nonpayable",
      "type": "function"
    },
    {
      "constant": false,
      "inputs": [
        {
          "name": "node",
          "type": "bytes32"
        },
        {
          "name": "hash",
          "type": "bytes32"
        }
      ],
      "name": "setContent",
      "outputs": [],
      "payable": false,
      "stateMutability": "nonpayable",
      "type": "function"
    },
    {
      "constant": true,
      "inputs": [
        {
          "name": "node",
          "type": "bytes32"
        }
      ],
      "name": "pubkey",
      "outputs": [
        {
          "name": "x",
          "type": "bytes32"
        },
        {
          "name": "y",
          "type": "bytes32"
        }
      ],
      "payable": false,
      "stateMutability": "view",
      "type": "function"
    },
    {
      "constant": false,
      "inputs": [
        {
          "name": "node",
          "type": "bytes32"
        },
        {
          "name": "addr",
          "type": "address"
        }
      ],
      "name": "setAddr",
      "outputs": [],
      "payable": false,
      "stateMutability": "nonpayable",
      "type": "function"
    },
    {
      "inputs": [
        {
          "name": "ensAddr",
          "type": "address"
        }
      ],
      "payable": false,
      "stateMutability": "nonpayable",
      "type": "constructor"
    },
    {
      "anonymous": false,
      "inputs": [
        {
          "indexed": true,
          "name": "node",
          "type": "bytes32"
        },
        {
          "indexed": false,
          "name": "a",
          "type": "address"
        }
      ],
      "name": "AddrChanged",
      "type": "event"
    },
    {
      "anonymous": false,
      "inputs": [
        {
          "indexed": true,
          "name": "node",
          "type": "bytes32"
        },
        {
          "indexed": false,
          "name": "hash",
          "type": "bytes32"
        }
      ],
      "name": "ContentChanged",
      "type": "event"
    },
    {
      "anonymous": false,
      "inputs": [
        {
          "indexed": true,
          "name": "node",
          "type": "bytes32"
        },
        {
          "indexed": false,
          "name": "name",
          "type": "string"
        }
      ],
      "name": "NameChanged",
      "type": "event"
    },
    {
      "anonymous": false,
      "inputs": [
        {
          "indexed": true,
          "name": "node",
          "type": "bytes32"
        },
        {
          "indexed": true,
          "name": "contentType",
          "type": "uint256"
        }
      ],
      "name": "ABIChanged",
      "type": "event"
    },
    {
      "anonymous": false,
      "inputs": [
        {
          "indexed": true,
          "name": "node",
          "type": "bytes32"
        },
        {
          "indexed": false,
          "name": "x",
          "type": "bytes32"
        },
        {
          "indexed": false,
          "name": "y",
          "type": "bytes32"
        }
      ],
      "name": "PubkeyChanged",
      "type": "event"
    },
    {
      "anonymous": false,
      "inputs": [
        {
          "indexed": true,
          "name": "node",
          "type": "bytes32"
        },
        {
          "indexed": true,
          "name": "indexedKey",
          "type": "string"
        },
        {
          "indexed": false,
          "name": "key",
          "type": "string"
        }
      ],
      "name": "TextChanged",
      "type": "event"
    }
  ],
  "bytecode": {
    "object": "0x608060405234801561001057600080fd5b5060405160208061118a833981016040525160008054600160a060020a03909216600160a060020a0319909216919091179055611138806100526000396000f3006080604052600436106100a85760003560e01c63ffffffff16806301ffc9a7146100ad57806310f13a8c146100e35780632203ab561461018157806329cd62ea1461021b5780632dff6941146102395780633b3b57de1461026357806359d1d43c14610297578063623195b01461036a578063691f3431146103ca57806377372213146103e2578063c3d014d614610440578063c86902331461045b578063d5fa2b001461048c575b600080fd5b3480156100b957600080fd5b506100cf600160e060020a0319600435166104b0565b604080519115158252519081900360200190f35b3480156100ef57600080fd5b5060408051602060046024803582810135601f810185900485028601850190965285855261017f95833595369560449491939091019190819084018382808284375050604080516020601f89358b018035918201839004830284018301909452808352979a99988101979196509182019450925082915084018382808284375094975061061d9650505050505050565b005b34801561018d57600080fd5b5061019c60043560243561082d565b6040518083815260200180602001828103825283818151815260200191508051906020019080838360005b838110156101df5781810151838201526020016101c7565b50505050905090810190601f16801561020c5780820380516001836020036101000a031916815260200191505b50935050505060405180910390f35b34801561022757600080fd5b5061017f60043560243560443561093a565b34801561024557600080fd5b50610251600435610a3a565b60408051918252519081900360200190f35b34801561026f57600080fd5b5061027b600435610a50565b60408051600160a060020a039092168252519081900360200190f35b3480156102a357600080fd5b5060408051602060046024803582810135601f81018590048502860185019096528585526102f5958335953695604494919390910191908190840183828082843750949750610a6b9650505050505050565b6040805160208082528351818301528351919283929083019185019080838360005b8381101561032f578181015183820152602001610317565b50505050905090810190601f16801561035c5780820380516001836020036101000a031916815260200191505b509250505060405180910390f35b34801561037657600080fd5b50604080516020600460443581810135601f810184900484028501840190955284845261017f948235946024803595369594606494920191908190840183828082843750949750610b749650505050505050565b3480156103d657600080fd5b506102f5600435610c75565b3480156103ee57600080fd5b5060408051602060046024803582810135601f810185900485028601850190965285855261017f958335953695604494919390910191908190840183828082843750949750610d199650505050505050565b34801561044c57600080fd5b5061017f600435602435610e6f565b34801561046757600080fd5b50610473600435610f50565b6040805192835260208301919091528051918290030190f35b34801561049857600080fd5b5061017f600435600160a060020a0360243516610f6d565b6000600160e060020a031982167f3b3b57de0000000000000000000000000000000000000000000000000000000014806105135750600160e060020a031982167fd8389dc500000000000000000000000000000000000000000000000000000000145b806105475750600160e060020a031982167f691f343100000000000000000000000000000000000000000000000000000000145b8061057b5750600160e060020a031982167f2203ab5600000000000000000000000000000000000000000000000000000000145b806105af5750600160e060020a031982167fc869023300000000000000000000000000000000000000000000000000000000145b806105e35750600160e060020a031982167f59d1d43c00000000000000000000000000000000000000000000000000000000145b806106175750600160e060020a031982167f01ffc9a700000000000000000000000000000000000000000000000000000000145b92915050565b600080546040805160e060020a6302571be302815260048101879052905186933393600160a060020a0316926302571be39260248083019360209383900390910190829087803b15801561067057600080fd5b505af1158015610684573d6000803e3d6000fd5b505050506040513d602081101561069a57600080fd5b5051600160a060020a0316146106af57600080fd5b6000848152600160209081526040918290209151855185936005019287929182918401908083835b602083106106f65780518252601f1990920191602091820191016106d7565b51815160209384036101000a600019018019909216911617905292019485525060405193849003810190932084516107379591949190910192509050611071565b50826040518082805190602001908083835b602083106107685780518252601f199092019160209182019101610749565b51815160209384036101000a60001901801990921691161790526040805192909401829003822081835289518383015289519096508a95507fd8c9334b1a9c2f9da342a0a2b32629c1a229b6445dad78947f674b44444a7550948a94508392908301919085019080838360005b838110156107ed5781810151838201526020016107d5565b50505050905090810190601f16801561081a5780820380516001836020036101000a031916815260200191505b509250505060405180910390a350505050565b60008281526001602081905260409091206060905b83831161092d578284161580159061087b5750600083815260068201602052604081205460026000196101006001841615020190911604115b1561092157600083815260068201602090815260409182902080548351601f6002600019610100600186161502019093169290920491820184900484028101840190945280845290918301828280156109155780601f106108ea57610100808354040283529160200191610915565b820191906000526020600020905b8154815290600101906020018083116108f857829003601f168201915b50505050509150610932565b600183901b9250610842565b600092505b509250929050565b600080546040805160e060020a6302571be302815260048101879052905186933393600160a060020a0316926302571be39260248083019360209383900390910190829087803b15801561098d57600080fd5b505af11580156109a1573d6000803e3d6000fd5b505050506040513d60208110156109b757600080fd5b5051600160a060020a0316146109cc57600080fd5b604080518082018252848152602080820185815260008881526001835284902092516003840155516004909201919091558151858152908101849052815186927f1d6f5e03d3f63eb58751986629a5439baee5079ff04f345becb66e23eb154e46928290030190a250505050565b6000908152600160208190526040909120015490565b600090815260016020526040902054600160a060020a031690565b600082815260016020908152604091829020915183516060936005019285929182918401908083835b60208310610ab35780518252601f199092019160209182019101610a94565b518151600019602094850361010090810a820192831692199390931691909117909252949092019687526040805197889003820188208054601f6002600183161590980290950116959095049283018290048202880182019052818752929450925050830182828015610b675780601f10610b3c57610100808354040283529160200191610b67565b820191906000526020600020905b815481529060010190602001808311610b4a57829003601f168201915b5050505050905092915050565b600080546040805160e060020a6302571be302815260048101879052905186933393600160a060020a0316926302571be39260248083019360209383900390910190829087803b158015610bc757600080fd5b505af1158015610bdb573d6000803e3d6000fd5b505050506040513d6020811015610bf157600080fd5b5051600160a060020a031614610c0657600080fd5b6000198301831615610c1757600080fd5b600084815260016020908152604080832086845260060182529091208351610c4192850190611071565b50604051839085907faa121bbeef5f32f5961a2a28966e769023910fc9479059ee3495d4c1a696efe390600090a350505050565b6000818152600160208181526040928390206002908101805485516000199582161561010002959095011691909104601f81018390048302840183019094528383526060939091830182828015610d0d5780601f10610ce257610100808354040283529160200191610d0d565b820191906000526020600020905b815481529060010190602001808311610cf057829003601f168201915b50505050509050919050565b600080546040805160e060020a6302571be302815260048101869052905185933393600160a060020a0316926302571be39260248083019360209383900390910190829087803b158015610d6c57600080fd5b505af1158015610d80573d6000803e3d6000fd5b505050506040513d6020811015610d9657600080fd5b5051600160a060020a031614610dab57600080fd5b60008381526001602090815260409091208351610dd092600290920191850190611071565b50604080516020808252845181830152845186937fb7d29e911041e8d9b843369e890bcb72c9388692ba48b65ac54e7214c4c348f79387939092839283019185019080838360005b83811015610e30578181015183820152602001610e18565b50505050905090810190601f168015610e5d5780820380516001836020036101000a031916815260200191505b509250505060405180910390a2505050565b600080546040805160e060020a6302571be302815260048101869052905185933393600160a060020a0316926302571be39260248083019360209383900390910190829087803b158015610ec257600080fd5b505af1158015610ed6573d6000803e3d6000fd5b505050506040513d6020811015610eec57600080fd5b5051600160a060020a031614610f0157600080fd5b6000838152600160208181526040928390209091018490558151848152915185927f0424b6fe0d9c3bdbece0e7879dc241bb0c22e900be8b6c168b4ee08bd9bf83bc92908290030190a2505050565b600090815260016020526040902060038101546004909101549091565b600080546040805160e060020a6302571be302815260048101869052905185933393600160a060020a0316926302571be39260248083019360209383900390910190829087803b158015610fc057600080fd5b505af1158015610fd4573d6000803e3d6000fd5b505050506040513d6020811015610fea57600080fd5b5051600160a060020a031614610fff57600080fd5b600083815260016020908152604091829020805473ffffffffffffffffffffffffffffffffffffffff1916600160a060020a0386169081179091558251908152915185927f52d7d861f09ab3d26239d492e8968629f95e9e318cf0b73bfddc441522a15fd292908290030190a2505050565b828054600181600116156101000203166002900490600052602060002090601f016020900481019282601f106110b257805160ff19168380011785556110df565b828001600101855582156110df579182015b828111156110df5782518255916020019190600101906110c4565b506110eb9291506110ef565b5090565b61110991905b808211156110eb57600081556001016110f5565b905600a165627a7a72305820a8f30c3a4720fa4e2282204e3db8e04fb6578c57f79dc39981b02b224a37fded0029",
    "linkReferences": {}
  },
  "methodIdentifiers": {
    "ABI(bytes32,uint256)": "2203ab56",
    "addr(bytes32)": "3b3b57de",
    "content(bytes32)": "2dff6941",
    "name(bytes32)": "691f3431",
    "pubkey(bytes32)": "c8690233",
    "setABI(bytes32,uint256,bytes)": "623195b0",
    "setAddr(bytes32,address)": "d5fa2b00",
    "setContent(bytes32,bytes32)": "c3d014d6",
    "setName(bytes32,string)": "77372213",
    "setPubkey(bytes32,bytes32,bytes32)": "29cd62ea",
    "setText(bytes32,string,string)": "10f13a8c",
    "supportsInterface(bytes4)": "01ffc9a7",
    "text(bytes32,string)": "59d1d43c"
  },
  "storageLayout": {
    "storage": [],
    "types": {}
  },
  "id": 98
}