{
  "abi": [
    {
      "constant": false,
      "inputs": [
        {
          "name": "pubkey",
          "type": "bytes"
        },
        {
          "name": "withdrawal_credentials",
          "type": "bytes"
        },
        {
          "name": "signature",
          "type": "bytes"
        },
        {
          "name": "deposit_data_root",
          "type": "bytes32"
        }
      ],
      "name": "deposit",
      "outputs": [],
      "payable": true,
      "stateMutability": "payable",
      "type": "function"
    },
    {
      "constant": true,
      "inputs": [],
      "name": "totalCalls",
      "outputs": [
        {
          "name": "",
          "type": "uint256"
        }
      ],
      "payable": false,
      "stateMutability": "view",
      "type": "function"
    },
    {
      "constant": false,
      "inputs": [
        {
          "name": "_newRoot",
          "type": "bytes32"
        }
      ],
      "name": "set_deposit_root",
      "outputs": [],
      "payable": false,
      "stateMutability": "nonpayable",
      "type": "function"
    },
    {
      "constant": true,
      "inputs": [],
      "name": "get_deposit_root",
      "outputs": [
        {
          "name": "",
          "type": "bytes32"
        }
      ],
      "payable": false,
      "stateMutability": "view",
      "type": "function"
    },
    {
      "constant": true,
      "inputs": [
        {
          "name": "",
          "type": "uint256"
        }
      ],
      "name": "calls",
      "outputs": [
        {
          "name": "pubkey",
          "type": "bytes"
        },
        {
          "name": "withdrawal_credentials",
          "type": "bytes"
        },
        {
          "name": "signature",
          "type": "bytes"
        },
        {
          "name": "deposit_data_root",
          "type": "bytes32"
        },
        {
          "name": "value",
          "type": "uint256"
        }
      ],
      "payable": false,
      "stateMutability": "view",
      "type": "function"
    },
    {
      "constant": false,
      "inputs": [],
      "name": "reset",
      "outputs": [],
      "payable": false,
      "stateMutability": "nonpayable",
      "type": "function"
    }
  ],
  "bytecode": {
    "object": "0x608060405234801561001057600080fd5b50610739806100206000396000f30060806040526004361061005b5760003560e01c63ffffffff16806322895118146100605780633af3f24f14610090578063651bb8fb146100b7578063c5f2892f146100cf578063d183ce14146100e4578063d826f88f1461024f575b600080fd5b61008e6024600480358281019290820135918135808301929082013591604435918201910135606435610264565b005b34801561009c57600080fd5b506100a56103a5565b60408051918252519081900360200190f35b3480156100c357600080fd5b5061008e6004356103ac565b3480156100db57600080fd5b506100a56103b1565b3480156100f057600080fd5b506100fc6004356103b7565b60408051606081018490526080810183905260a080825287519082015286519091829160208084019284019160c08501918b019080838360005b8381101561014e578181015183820152602001610136565b50505050905090810190601f16801561017b5780820380516001836020036101000a031916815260200191505b5084810383528851815288516020918201918a019080838360005b838110156101ae578181015183820152602001610196565b50505050905090810190601f1680156101db5780820380516001836020036101000a031916815260200191505b50848103825287518152875160209182019189019080838360005b8381101561020e5781810151838201526020016101f6565b50505050905090810190601f16801561023b5780820380516001836020036101000a031916815260200191505b509850505050505050505060405180910390f35b34801561025b57600080fd5b5061008e6105a4565b6040805160c06020601f8a01819004028201810190925260a081018881526000928291908b908b9081908501838280828437820191505050505050815260200187878080601f016020809104026020016040519081016040528093929190818152602001838380828437820191505050505050815260200185858080601f0160208091040260200160405190810160405280939291908181526020018383808284375050509284525050506020808201859052346040909201919091528254600181018085556000948552938290208351805160059093029091019261034f928492909101906105b3565b50602082810151805161036892600185019201906105b3565b50604082015180516103849160028401916020909101906105b3565b50606082015160038201556080909101516004909101555050505050505050565b6000545b90565b600155565b60015490565b60008054829081106103c557fe5b60009182526020918290206005919091020180546040805160026001841615610100026000190190931692909204601f81018590048502830185019091528082529193509183919083018282801561045e5780601f106104335761010080835404028352916020019161045e565b820191906000526020600020905b81548152906001019060200180831161044157829003601f168201915b505050505090806001018054600181600116156101000203166002900480601f0160208091040260200160405190810160405280929190818152602001828054600181600116156101000203166002900480156104fc5780601f106104d1576101008083540402835291602001916104fc565b820191906000526020600020905b8154815290600101906020018083116104df57829003601f168201915b50505060028085018054604080516020601f600019610100600187161502019094169590950492830185900485028101850190915281815295969594509092509083018282801561058e5780601f106105635761010080835404028352916020019161058e565b820191906000526020600020905b81548152906001019060200180831161057157829003601f168201915b5050505050908060030154908060040154905085565b60006105b08180610631565b50565b828054600181600116156101000203166002900490600052602060002090601f016020900481019282601f106105f457805160ff1916838001178555610621565b82800160010185558215610621579182015b82811115610621578251825591602001919060010190610606565b5061062d929150610662565b5090565b81548183558181111561065d5760050281600502836000526020600020918201910161065d919061067c565b505050565b6103a991905b8082111561062d5760008155600101610668565b6103a991905b8082111561062d57600061069682826106c9565b6106a46001830160006106c9565b6106b26002830160006106c9565b506000600382018190556004820155600501610682565b50805460018160011615610100020316600290046000825580601f106106ef57506105b0565b601f0160209004906000526020600020908101906105b091906106625600a165627a7a723058205bc22df986684e1c7b2abe3e121fafe8d1e1ba0f9b46f5e2006384e7fdeaedfa0029",
    "linkReferences": {}
  },
  "methodIdentifiers": {
    "calls(uint256)": "d183ce14",
    "deposit(bytes,bytes,bytes,bytes32)": "22895118",
    "get_deposit_root()": "c5f2892f",
    "reset()": "d826f88f",
    "set_deposit_root(bytes32)": "651bb8fb",
    "totalCalls()": "3af3f24f"
  },
  "storageLayout": {
    "storage": [],
    "types": {}
  },
  "id": 24
}